:020000040000FA
:10000000982A0020F9020000010300000303000009
:1000100005030000070300000903000000000000C2
:100020000000000000000000000000000B030000C2
:100030000D030000000000000F030000110300008A
:1000400061060000130300002D0A000013030000E6
:1000500013030000130300009904000013030000C1
:100060001303000013030000130300001303000038
:100070001303000013030000130300001303000028
:1000800013030000E906000013030000130300003F
:100090000D0700001303000013030000130300000A
:1000A00013030000130300001303000013030000F8
:1000B000B90600001303000000000000000000006B
:1000C00013030000C9060000D90600001303000056
:1000D00013030000130300001303000000000000DE
:1000E0000000000000000000000000000000000010
:1000F0000000000000000000000000000000000000
:1001000000000000000000000000000000000000EF
:1001100000000000000000000000000000000000DF
:1001200000000000000000000000000000000000CF
:1001300000000000000000000000000000000000BF
:1001400000000000000000000000000000000000AF
:10015000000000000000000000000000000000009F
:10016000000000000000000000000000000000008F
:10017000000000000000000000000000000000007F
:10018000000000000000000000000000000000006F
:10019000000000000000000000000000000000005F
:1001A000000000000000000000000000000000004F
:1001B000000000000000000000000000000000003F
:1001C000000000000000000000000000000000002F
:1001D000000000000000000000000000000000001F
:1001E000000000000000000000000000000000000F
:1001F00000000000000000000000000000000000FF
:10020000DFF80CD000F00AF900480047511E00004A
:10021000982A002030B4044654E8000F0D4644E804
:100220000053002BF8D1156030BC704730B4044641
:1002300054E8000F40EA010544E80053002BF7D1D1
:10024000156030BC704730B4044654E8000F00EA33
:10025000010544E80053002BF7D1156030BC70470E
:1002600030B4044654E8000F80EA010544E8005326
:10027000002BF7D1156030BC704730B4044654E809
:10028000000F00EB010544E80053002BF7D1156087
:1002900030BC704730B4044654E8000FA0EB0105B1
:1002A00044E80053002BF7D1156030BC704770B4A0
:1002B00004464FF0000054E8006F0D68AE4207BFDF
:1002C00044E80023012044E800630E60002B1CBFBB
:1002D0000020F0E770BC704730B4044654E8000FCB
:1002E00088422CBF451A054644E80053002BF5D13F
:1002F000156030BC7047000006488047064800473C
:10030000FEE7FEE7FEE7FEE7FEE7FEE7FEE7FEE7C5
:10031000FEE7FEE711070000010200002DE9F05F93
:100320000546002092469B46884606468146402464
:100330001BE0284641464746224600F05EF85346F9
:100340005A46C01A914110D311461846224600F071
:1003500016F82D1A67EB01084F46224601200021AE
:1003600000F00DF817EB00094E41201EA4F1010426
:10037000DFDC484631462A464346BDE8F09F202A46
:1003800004DB203A00FA02F1002070479140C2F1EC
:10039000200320FA03F31943904070470048704748
:1003A0001440000040EA01039B0703D009E008C99C
:1003B000121F08C0042AFAD203E011F8013B00F82A
:1003C000013B521EF9D27047D2B201E000F8012B76
:1003D000491EFBD270470022F6E710B513460A46C5
:1003E00004461946FFF7F0FF204610BD421C10F8E6
:1003F000011B0029FBD1801A7047202A04DB203A18
:1004000021FA02F00021704721FA02F3D040C2F134
:10041000200291400843194670470000064C074DE2
:1004200006E0E06840F0010394E8070098471034C4
:10043000AC42F6D3FFF7E8FEC8400000E8400000F9
:1004400070B58C1810F8015B15F0070301D110F896
:10045000013B2A1106D110F8012B03E010F8016BC3
:1004600001F8016B5B1EF9D12B0705D40023521E46
:100470000DD401F8013BFAE710F8013BCB1A921CAE
:1004800003E013F8015B01F8015B521EF9D5A142AC
:10049000D8D3002070BD00002DE9F04700268AB0B7
:1004A000DFF85091B0464FF4807501243746069628
:1004B000284602F031F838B1D9F80403204203D0BD
:1004C000284602F01FF826432D1D64007F1CADB2A4
:1004D000082FEDD34FF4BE74204602F01DF848B14A
:1004E000204602F00FF846F0004606AA012100203F
:1004F00001F0F4FF404D16F0FF0F15D00127002446
:1005000037420DD009EB8401D1F81005D1F8101550
:10051000C0F3042055F82420C1F3014102B19047F3
:100520007F00641C082CEBD3002E5FDA4FF0FF3005
:10053000CDF8108054E0281910F8507F90F9000091
:1005400027F0C008401C3BD007A9404601F090FDB1
:1005500010B34FEA9719404600F02CFF55F8207071
:100560001FB1B9F1030F03D006E0B9F1030F27D192
:1005700004A9404601F084FD4FF0A04101EB880042
:10058000D0F8000706A9C0F3014A404601F070FD0B
:1005900018B1BAF1020F03D012E0BAF1030F0FD174
:1005A000B9F1030F08D1BAF1020F1DD00221404664
:1005B00001F078FF761CF6B217B149464046B847BD
:1005C000641C042CB7D3002E10D06A4601210020F1
:1005D00001F084FF06990098884207D0069004989D
:1005E000002634460790A6E70321E0E70AB0BDE8FD
:1005F000F087000000600040C802002000F01F02E9
:10060000012191404009800000F1E020C0F88012F3
:10061000704700F01F02012191404009800000F165
:10062000E020C0F80011704700F01F020121914046
:100630004009800000F1E020C0F80012704749072F
:10064000090E002806DA00F00F0000F1E02080F823
:10065000141D704700F1E02080F80014704700007E
:1006600070B54FF48076304601F014FD114CB5059D
:1006700060B1304601F015FD0120C5F8080360792E
:1006800020B9012060712168002088474FF48276EC
:10069000304601F0FFFC00280AD0304601F001FD91
:1006A0000220C5F808032168BDE870400120084712
:1006B00070BD00008C0000200149024801F082BAA0
:1006C0002403002000C001400149024801F07ABA29
:1006D0002C030020001002400149024801F072BAC8
:1006E000340300200020024007480021C0F84011D8
:1006F000C0F84411C0F84811C0F84C11C0F80011FE
:10070000C0F8041103F046B90010014003F094B89A
:10071000F0B5B5480023021D0178101D01254FF0EA
:10072000805406290BD11678360708D10678C6F30F
:100730000316032E06D0042E04D0052E02D006295F
:1007400007D00EE0B4F82463A84FC6F304263E6039
:1007500002E01678360704D10678C6F30316032E96
:1007600002D0062904D00FE0A24FA14E7E670EE012
:100770001678360708D10678C6F30316032E06D07E
:10078000042E04D0052E02D0062907D00EE0D4F89E
:100790004462994FC6F342363E6002E0167836074F
:1007A00004D10678C6F30316032E02D0062906D01C
:1007B00011E0924E376827F0807737600EE01678A8
:1007C000360708D10678C6F30316032E06D0042E8A
:1007D00004D0052E02D006290AD011E04FF0804641
:1007E000C6F80C31C6F81031834E361F336002E074
:1007F0001678360704D10678C6F30316032E02D006
:10080000062905D00CE07C4F032664373E600AE0E1
:100810001678360704D10678C6F30316032E02D0E5
:1008200006290DD014E0764F05263E60744E7836CA
:100830003560734E083633603F263F1D3E6002E050
:100840001678360704D10678C6F30316052E02D0B3
:10085000062957D062E06B4E36686B4F3E60694E9A
:10086000361D36683F1D3E60664E083636683F1DB1
:100870003E60644E0C3636683F1D3E60614E103659
:1008800036683F1D3E605F4E143636683F1D3E6041
:100890005C4E183636685C4F20373E60594E1C3629
:1008A00036683F1D3E60574E203636683F1D3E601D
:1008B000544E243636683F1D3E60524E2836366808
:1008C0003F1D3E604F4E2C3636683F1D3E604D4EFC
:1008D000303636684C4F40373E604A4E34363668C4
:1008E0003F1D3E60474E383636683F1D3E60454EE0
:1008F0003C3636683F1D3E60424E403636683F1DEE
:100900003E6002E01678360708D10678C6F3031673
:10091000032E06D0042E04D0052E02D0062907D0BF
:1009200019E0D4F85812394A01F04F01116002E081
:10093000117809070FD10078C0F30310032803D002
:10094000042801D0052806D131480168C90702D022
:100950006FF001010160D4F83001062808D1D4F805
:100960003401062804D12B48016841F480610160FC
:1009700022487438016841F470010160BFF34F8F61
:10098000BFF36F8F4FF01021D1F80002002803DB76
:10099000D1F80402002822DA1F4A15601F480468B3
:1009A000002CFCD01524C1F800420568002DFCD0B5
:1009B000C1F8044201680029FCD0136001680029D5
:1009C000FCD0BFF34F8F0D48F0380168144A01F492
:1009D000E06111430160BFF34F8F00BFFDE7124993
:1009E00010480860F0BD0000E00F00F04035014005
:1009F0000DF0ADBA00C007403C050040FCED00E042
:100A0000105600400404001020C50040E40E0040D1
:100A1000000400403C17004004E5014000E40140B0
:100A20000400FA050090D003480100200148006846
:100A3000004700009400002002E008C8121F08C10F
:100A4000002AFAD170477047002001E001C1121F4F
:100A5000002AFBD17047022000F0ECB970B50024E9
:100A6000064D06E06868012110F8340002F046F9EE
:100A7000641C28788442F5D3002070BDA0000020BB
:100A8000F8B515460C460646052A01D20720F8BDE2
:100A900002F030FA18B902F0F5F90028F7D112493E
:100AA00000224E600C708D60C1E90422C1E906226B
:100AB0000E4D0DE006EBC4002968009181788DF899
:100AC000011000780A4A694602F06AF90028DED16E
:100AD000641EE4B2EED2BDE8F84004480021054AA5
:100AE000001D00F053B80000A0000020303F0000BF
:100AF000E5190000F518000070B514460D460646CD
:100B000000F0D3F9224629463046BDE8704000F097
:100B10000BB80EB500210091CDE901106A4644F2F0
:100B20000100FFF7E9FF0EBD08B501238DF8003085
:100B30009DF80030144B186059609A606FF4804142
:100B4000401807D001280FD1DA60D8680088986172
:100B5000D86807E01A6118698068586118690068E8
:100B6000986118694068D861186858689868D868AA
:100B7000186958699869D86972B600BF9DF8000075
:100B80000028FBD162B608BDAC030020074B9B7860
:100B900023B12AB120B10068037C1BB10820704743
:100BA000072070474174426100207047CC03002049
:100BB00070B502F067FD104800240B2104704470EA
:100BC0000E4D817014206C602C706C70FFF716FD58
:100BD00006211420FFF733FD1420FFF71AFD084803
:100BE000046006211120FFF72AFD0548001F006858
:100BF000A860002070BD0000CC030020C0000020D1
:100C0000081501402DE9F843DFF8709099F802309B
:100C10005BB350B3052902D20720BDE8F8834369CE
:100C20001BB3437C012B22D00027044600258846B5
:100C30001646284600F036F8684603F0C9F8C0B1F9
:100C4000012101700E4944600968C0E90218C0E939
:100C500004769DF8000089F80100002000F024F8D7
:100C60001420FFF7E1FC2846D7E70820D5E70F4618
:100C7000DBE70425002000F017F8F4E7CC030020A0
:100C8000041501400649897839B130B1416921B173
:100C900000210174022102F05DBE082070470000AF
:100CA000CC03002000F002B800F008B872B6024889
:100CB0000168491C01607047D4000020034908689E
:100CC000401E086000D162B670470000D4000020CA
:100CD0002DE9F041064608680C46411C4FF0A0473C
:100CE0004FF0010506D005FA00F1C7F80815206895
:100CF00001F0C4FB6068411C02D0002101F0ACFB94
:100D00003168A069C1F82405607D227D31681043F7
:100D1000C1F86C05D4E900123068C0F81425C0F899
:100D20000C15207D012815D1A068411C02D000219E
:100D300001F092FBE068411C05D08540C7F80855DA
:100D4000E06801F09BFBD4E902123068C0F8082586
:100D5000C0F81015BDE8F0812DE9F041064608689D
:100D60000C46411C4FF0A0474FF0010506D005FA94
:100D700000F1C7F80815206801F08AFB6068411C83
:100D800002D0002101F071FB3168A069C1F824058F
:100D9000607D217D32680843C2F86C05D4E90012F9
:100DA0003068C0F80C15C0F81425207D012815D135
:100DB000A068411C02D0002101F057FBE068411CF3
:100DC00005D08540C7F80855E06801F061FBD4E91B
:100DD00002123068C0F80825C0F81015BDE8F0818F
:100DE0002DE9FC410646C0074FF000050ED0104F1C
:100DF00000240122385D009500231146019501F081
:100E0000D1FA641C042CF4D300F046F8B0070DD5D9
:100E1000074E0024361D0022305D03230095114645
:100E2000019501F0BFFA641C042CF4D3BDE8FC81E9
:100E3000F03E000007490B5C4FF0A041D1F80425BB
:100E40000120984020EA0203C1F808351040C1F89B
:100E50000C057047F03E00000249085C012101F0DA
:100E600032BB0000F03E00000249085C002101F0A6
:100E70002ABB0000F03E00000649095C4FF0A0408C
:100E8000D0F80405C84010F0010000D0012080F027
:100E900001007047F03E000010B500242046FFF727
:100EA000DBFF641C042CF9D310BD10B500242046D0
:100EB000FFF7DAFF641C042CF9D310BD10B502460D
:100EC000064B4FF0FF3000215C5C944201D1084694
:100ED00010BD491C0429F7D310BD0000F43E0000EA
:100EE0002DE9F0470D468146FFF7E8FF0446042848
:100EF00036D2DFF874801B481C4EA8F10C0725B3CE
:100F0000012D0ED0022D2BD104EB44003044457846
:100F1000002D25D0B968002922D02846BDE8F04729
:100F2000084704EB4401755C0E44717849B10E4AE0
:100F30004FF40041093A8068FFF764FE08B987F86A
:100F40000390B17808F80410E2E78068FFF79AFE92
:100F500004EB4401314418F804008D78A842D7D03E
:100F6000BDE8F087F83E00007C00002088020020E9
:100F7000FFF774BD70B50023042810D20D4D00EBAF
:100F80004004012A02D101290CD00022094E00EBB5
:100F90004000304461B1012906D0022906D0072360
:100FA000184670BD0E30C2B22A55F9E74270F7E715
:100FB0008270F5E78802002070B586B006461422DC
:100FC00019496846FFF7EEF9184C00250E2E617896
:100FD00006D00F2E25D1042908D2491C617006E0E5
:100FE00009B1491EFAE70420607000E065702078BE
:100FF000C00703D00D48001D02F082F8207880075A
:1010000003D50A480C3002F07BF82078400703D55E
:101010000648143002F074F8257061785DF82100FC
:10102000804706B070BD0000DC3E000000000020DC
:1010300070B506461E480024C0E90161B00720D5FE
:101040000025012211462846FFF794FF6D1C044637
:10105000042D02D2002CF4D013E094B940F2666261
:1010600004211448FFF70CFD04000AD1FFF7F6FC39
:10107000040006D10F48104A0021001FFFF786FD2B
:101080000446F00712D00120FFF7AAFE74B9094800
:101090000A4A00210C38FFF779FD040006D1054803
:1010A000074A01210838FFF771FD0446204670BD4C
:1010B00070000020043F000049130000A91C00003C
:1010C000570A00002DE9F05F6E4C05460026607857
:1010D000B34618B184F801B000F0CEFD6A4F4FF46A
:1010E0007A694FF4C87A4FF00108182D69D2DFE809
:1010F00005F00C1313384754696E727B727BC584FC
:1011000084848484B3B6B9BCC5C500F0B5FD386825
:10111000FFF7B8FD06465CE00020FFF7ADFE0028B3
:101120004FF0000008D0FFF797FE022D02D14FF4D8
:10113000E16008E0484606E0FFF796FE022D01D187
:10114000C82000E05046410CC0034FF4FA728018EA
:1011500041F10001257052000023FFF7DFF801463E
:101160002AE00020FFF788FE00284FF0000004D09E
:10117000FFF772FE4FF44870E5E7FFF775FEDFE713
:101180000020FFF779FE00284FF0000002D0FFF7A3
:1011900063FECFE7FFF768FED4E70020FFF76CFEA1
:1011A00000284FF0000002D0FFF756FE01E0FFF7E5
:1011B0005BFE257041F69A1100223868FFF722FD88
:1011C000064646E00020FFF735FE257008E00020C7
:1011D00051E025703DE084F801800120FFF72AFEF0
:1011E000002240F6CD41E8E784F801800120FFF7B6
:1011F00021FE00224FF48041DFE77868FFF742FDCF
:101200000646D5F1110000D02EB10220FFF724FED2
:1012100084F802B01DE0012816D980B2C8214843E5
:10122000C117C90341EA5041C0034FF4FA72801854
:1012300041F1000152000023FFF770F8014600223F
:101240007868FFF7DFFC06460220FFF70DFE84F802
:1012500002803046BDE8F09F00F00EFDB9E700F0D7
:101260000BFDB4E700F008FD04E000F005FD0020F0
:10127000FFF7FAFD0120FFF7F7FDAAE7FFF715FEDC
:10128000A7E7000070000020F83E00002DE9F047BD
:101290000546861C90460F464FF001090020FFF7D7
:1012A00001FD1B4C20683860D4E90001401AA16898
:1012B00004F21C47081A0EE00121384600F070FEC7
:1012C00000F078FD0146384600F06AFED4E90001DE
:1012D000401AA168081A401C8642EDD8B8F1000FE8
:1012E00003D0052065F3891002E0062065F39F50C6
:1012F000A2682168114004EB8101C8602068304475
:1013000020600020FFF7D0FC4846BDE8F0870000D1
:101310007006002030B482680468531C8360A154B6
:10132000D0E901128A4202D330BC00F042BF30BC87
:1013300070470000034803C8814201D10120704773
:10134000002070477006002000780221FFF7C8BD1A
:1013500005494FF0FF32082841F8202002D3084405
:1013600080F8482070470000C8020020F0B54FF018
:10137000FF3512B10023082601E008230C260C4C8F
:1013800005E000BF54F823707F1C04D05B1CB342FF
:10139000F8D32846F0BD26185DB286F8305044F8E0
:1013A0002310002AF5D1E11881F84800F1E7000088
:1013B000C80200200249084490F93000704700003C
:1013C000C802002070B5084C050009D0103421680F
:1013D000002907D008682060496828468847F6E752
:1013E0000834F4E770BD0000B4020020054A012172
:1013F00020B1012805D19170FFF7E4BF51700020A2
:10140000FAE77047B40200202DE9F05F26484168F2
:10141000F1B3DFF898B00E688146DBF800408768CA
:101420008078E11B21F07F45ED1CB0B9DFF88080AA
:101430004FF48030C8F84403C8F804031120FFF7C4
:10144000DDF81120FFF7E5F84FF0010AC8F800A019
:101450002F2001F04BFC89F802A0B54200D235469E
:10146000124BE8193C3320F07F401860DBF8001085
:101470005A46091B21F07F41001B20F07F40C91C08
:1014800081420FD9106818602F2001F02FFC00E076
:1014900004E0BDE8F05F1120FFF7C6B8BDE8F05FDB
:1014A00002F0F0B8BDE8F09FC00000200415014034
:1014B00000100140FFB5002301244FF0A0456E4607
:1014C000CA5CFF2A12D0D70922F0800246F82320F6
:1014D00004FA02F702D0C5F8087501E0C5F80C75EA
:1014E00005EB82020327C2F8007703E04FF0FF32DA
:1014F00046F823205B1CDBB2042BE1D301683246A3
:101500005FF0000001EB800452F82030C4F8603531
:10151000401CC0B20428F5D3FFBD00000EB516482C
:101520001649401AC008032101EB004014A101F044
:10153000F1F9154A07CA8DE80700144A69461448AC
:1015400001F03AFD08B1FFF7E4FA114A0223121F35
:1015500002F11C01107840F001001070002008809A
:1015600048808880C8809070074901221039084857
:1015700001F08EFD0EBD000030410000F84000007B
:1015800044656D6F20310000103E0000951500008D
:101590000400002070B5002822D112484FF000024C
:1015A00000F11C0483785D0813F0010F34F8151066
:1015B00004D0C8390904090C06D006E0C83189B244
:1015C00042F21076B14200D3012224F81510002A0D
:1015D00006D05B1CD9B28170082901D3002181702B
:1015E00070BD0000000000202148224910B5401ABB
:1015F000C008032101EB00408CB01FA101F08AF963
:101600001F4C09AB04F11C0007C883E80700002247
:1016100009A91C4801F0D0FC08B1FFF77AFA194873
:10162000194B001F4FF4C872017841F0010101709D
:1016300000210846114489B223F81010401CC0B2A2
:101640001928F7D328340DF1040C0FCC8CE80F00C7
:1016500094E80F000DF1140C8CE80F0002200090AC
:10166000012305AA01A9074801F078FC0CB010BDC0
:1016700030410000F840000044656D6F20320000EA
:10168000003E0000040000204C01002016481749CD
:1016900010B5401AC008032101EB004088B014A126
:1016A00001F038F9144C04AB04F1480007C883E892
:1016B0000700002204A9114801F07EFC08B1FFF7E1
:1016C00028FA0E485434001F017841F001010170DE
:1016D00094E80F008DE80F000123032269460748B4
:1016E00001F0D6FC08B010BD30410000F840000009
:1016F00044656D6F20330000003E000004000020B0
:1017000058485949F0B5401AC008032101EB004080
:101710009BB056A101F0FEF8564E02AB06F16400F4
:10172000FF2407C883E8070091208DF808008DF892
:10173000094092208DF80A0007208DF80D0047F629
:101740001220ADF8100001208DF812008DF80B402A
:10175000002202A9484801F02FFC08B1FFF7D9F98F
:10176000454D05AF2D1F7036287840F001002870D8
:1017700096E80F0087E80F0004208DF80D00002088
:1017800041F28833ADF810303C4A8DF81200014622
:101790006426314489B222F8101002EB400C5F1A23
:1017A000401CC0B2ACF864703228F2D38DF8084007
:1017B0008DF8094093208DF80A002F488DF80B40D2
:1017C000002202A9083001F0F7FB08B1FFF7A1F9E8
:1017D0002878284E40F00200803628700FCE09AFDE
:1017E00087E80F0096E80F000DAF103E87E80F0066
:1017F0008DF808408DF809408DF80A4094208DF846
:101800000B001D48002202A9103001F0D5FB08B1E1
:10181000FFF77FF92878203640F0040028700FCEBB
:1018200011AC84E80F0096E80F0015AC84E80F00B7
:101830000223012205A9104801F02AFC0E480224C7
:1018400001230DAA09A90830009401F087FB0A487A
:10185000012315AA11A91030009401F07FFB1BB0E1
:10186000F0BD000030410000F840000044656D6F9D
:1018700020340000003E0000040000207E01002013
:101880001648174910B5401AC008032101EB004063
:1018900088B014A101F03EF8144C04AB04F14000F0
:1018A00007C883E80700002204A9114801F084FB5F
:1018B00008B1FFF72EF90E484C34001F017841F0B3
:1018C0000101017094E80F008DE80F00022301224E
:1018D0006946074801F0DCFB08B010BD304100004C
:1018E000F840000044656D6F20350000803E000028
:1018F000040000202DE9F0470025DFF890803DE04E
:101900006068002100EBC506012032789146FEF7A1
:1019100036FDD4E9062300EA020701EA030C57EA80
:101920000C0729D082438B434846C4E9062301F0C3
:101930009FFA32788246914601200021FEF71FFD72
:10194000D4E9042300EA020401EA03074A465046A8
:101950000021FEF714FD44404F403C430CD1707809
:10196000012801D0012000E00020726880EA0A000E
:1019700012B1C1B2484690476D1CEDB298F8000014
:1019800044468542BCD3BDE8F0870000A00000209B
:1019900010B50021024800F00EFB80F3100010BDCE
:1019A0008C0A00200E4910B50A784C780023A24218
:1019B00012D0521CD2B20A70022A00D10B70084A0F
:1019C0000B780C3252F8232002608868104420F013
:1019D0007F408860012010BD0360002010BD000022
:1019E000C00000202DE9F041804602460120002180
:1019F000FEF7C5FC1A4F05460E467868FFF742F918
:101A000000280CD1174CD4E9062110462A4001EADF
:101A100006031A4305D0A843B143C4E90601BDE853
:101A2000F081404601F024FA30B1D4E904012843A2
:101A30003143C4E9040105E0D4E90410A943B043EB
:101A4000C4E90410D4E9060128433143C4E906017E
:101A5000A1687868BDE8F0410022FFF7D3B8000024
:101A6000303F0000A00000202DE9FC5F0E008346FF
:101A7000DDE90C47C6F1000098469246814600D445
:101A80000846012503E000BF90FBFAF06D1C5045AD
:101A9000FADAA84500D9454624B1002E01DB7807C3
:101AA00000D5641EB80702D5B8F1000F0AD0F807B8
:101AB00008D13CB1A54205D220215846641EFFF74B
:101AC00029FCF6E7002E02DA4E462D2102E07807C7
:101AD00003D52B215846FFF71DFC07F00300022811
:101AE0000BD1B8F1000F08D13CB1A54205D230218D
:101AF0005846641EFFF70EFCF6E7CDE90047434663
:101B000052463146584602F009F9BDE8FC9F0000F4
:101B100070B50D46044600684FF4887101F091F8E5
:101B20004FF49071206801F08CF84FF492712068A6
:101B300001F087F84FF4A271206801F082F8206864
:101B40001249C0F804132068690740F30730090EF2
:101B5000002806DA00F00F0000F1E02080F8141DE4
:101B600003E000F1E02080F800142068012140F338
:101B7000073000F01F0291404009800000F1E02092
:101B8000C0F88012C0F8001170BD00001003020000
:101B9000024600201268530713D502F00300012803
:101BA00002D002280CD105E0C2F383100B68801C20
:101BB000184404E00223086803EB925210440860C2
:101BC0000120704770B50C464FF4887605463146C3
:101BD00000F0F9FF50B13146284600F0F9FF607976
:101BE000400703D5216809B1012088474FF48A7660
:101BF0003146284600F0E7FF50B13146284600F054
:101C0000E7FF6079000703D5216809B10220884702
:101C10004FF48E763146284600F0D5FF50B131465C
:101C2000284600F0D5FF6079C00603D4216809B1C9
:101C3000002088474FF482763146284600F0C3FFE3
:101C400000280CD03146284600F0C2FF0120207148
:101C50002168002903D0BDE870400320084770BD0B
:101C60000268134602E08A4204D01268002AFAD1C0
:101C70000B600160704700000A4810B5807860B1C1
:101C8000002401E0022C06D02046FFF7E5F8641C92
:101C9000042CF7D310BD0324F6E7BDE81040FFF78E
:101CA000FBB800007000002003480179C90702D08A
:101CB0000078FFF707BA7047700000202DE9F04761
:101CC000394E002780463D46DFF8E090D6F804A064
:101CD00057E003D00446D0F81C8035E099F8002086
:101CE00002EB4201521CD2B289F8002009EBC1017B
:101CF00099F80230091D9A4201D189F800504868CC
:101D00000A780446012A12D0022A02D0032A3BD1C3
:101D100008E001F0EFFD00B10127257434E00574FF
:101D2000C06900E070680028F9D170602CE0207C68
:101D300050BB88686060C868A0600869E060486956
:101D4000A061F07800B165606268B168184B501A04
:101D500020F07F40984202D2A168084406E0881A29
:101D6000A16820F07F40814202D9081A206000E07B
:101D7000256065600120A56020742046E56101F0C2
:101D80009BFDB8F10000A4D199F8001099F801006A
:101D90008142A3D117B97168514502D00120BDE835
:101DA000F0870020FBE70000C0000020CC030020EB
:101DB000FFFF7F002DE9FF410026234800F0EDF8EA
:101DC0002148001F074600F0E8F8204C60680090AA
:101DD000A56800E000986946284004EB80000C30BC
:101DE000FFF7D6FE0028F5D101AA009901EA050304
:101DF00004EB8303491CDB6842F82030401C00914F
:101E00000228F2D3019800F0030001280BD0022829
:101E100010D10198032101EB90500099BDF80A60A0
:101E200001EB900005E00198BDF80A60C0F3831053
:101E300008440090384600F0ADF808B100986060A2
:101E400004B03046BDE8F081880A0020700600200A
:101E50004FF40041002000F0B7FD08B1FEF759FE35
:101E600000F032FC00F026F908B1FEF752FE002027
:101E700000F03AF9FEF79CFE08B1FEF74AFE104961
:101E80000220FFF7D5F808B1FEF743FEFFF770F820
:101E900008B1FEF73EFE0B480B49401AC00803216B
:101EA00001EB004009A100F035FDFFF737FB20BF33
:101EB00040BF20BF00F016FC0028FBD1F7E7000070
:101EC000B90F000030410000F840000050574D208D
:101ED0006578616D706C6520737461727465642ED1
:101EE000000000002DE9F047C5881E1DB6FBF5F780
:101EF0008946B6FBF5F1044605FB176C4079166878
:101F00006843DDF820A0F718001F874200D9C61AE1
:101F1000166001E02468491E0029FBD1A5EB0C07DF
:101F20008846B74216D818E004EB0C00001D09EBF8
:101F30000803BAF1000F3A4602D00146184600E005
:101F40001946FEF72FFA2468F61B4FF0000CB84430
:101F5000B54201D9374600E02F46002EE4D1BDE856
:101F6000F087000030B5024651B100F04BFD002172
:101F7000074C08E034F821301568AB4202D11160FB
:101F8000002030BD491C8142F4D3052030BD000043
:101F900000000000002100F009B8012100F010B895
:101FA00008B56A46FEF769F9009808BD08B56A46A3
:101FB000FEF749F908BD08B56A46FEF72BF908BDDA
:101FC00008B56A46FEF732F9009808BD08B56A46BA
:101FD000FEF760F9009808BD70B504460025284654
:101FE000FEF760FE21686268086890420ED9401EC4
:101FF00008600178238AE26801FB0325227A2168C0
:10200000101AC0B20A79824200D208710020FEF78D
:102010004BFE284670BD70B505460C460020FEF705
:1020200041FEE868298A201AB0FBF1F12A6810689D
:10203000431C13600170BDE870400020FEF734BE01
:1020400010B530B1017A42680368891AC9B21A60C2
:1020500006E00E2010BD03681A68541C1C60117045
:10206000491EC9B2F7D2006800210171084610BDAF
:10207000C20800F007030120895C984008407047BF
:1020800010B5C20800F00703885C01249C4020437F
:10209000885410BD00F180400068002800D0012065
:1020A000704708B500F18040002101600068009091
:1020B00008BD000070B50A4C207808B185250CE0F9
:1020C0000020A06060602061E060064800F0D8FD5C
:1020D000054600F0BDFD01202070284670BD0000BF
:1020E000B4020020ED13000070B5104D0446A8782E
:1020F00038B114B16168012088470020FEF7D2FD95
:102100000CE00020FEF7CEFD24B108482146103037
:10211000FFF7A6FDE86808B900F0C2FDE868401CBA
:10212000E860BDE870400020FEF7BEBDB4020020AC
:10213000F0B505460478154889B0164640F82420C5
:10214000124A0869121DA2F1080742F82400487FCC
:10215000385520226846FEF725F904942878385C23
:1021600048B10EB10A4A00E000226946281D01F07C
:1021700017F909B0F0BD0EB1064A00E00022694629
:1021800005F10C0000F0DEFFF3E700008400002002
:10219000F93B0000453A00000FB408B50399002947
:1021A00004D004AA00926A4600F00FF801B05DF86E
:1021B00014FB10B582680446002A05D0D4E9040354
:1021C000216898470020A06010BD2DE9FC4791468A
:1021D0000C00804676D014F8011B39B125290ED0A9
:1021E0004046FFF797F820780028F4D198F80C00C3
:1021F000002867D04046BDE8FC47FFF7DABF002063
:10220000012221782B291BD02D2902D0302908D179
:1022100002E040F0010001E040F00200641C002AEE
:10222000EFD100252A290ED02178A1F130020A2A07
:1022300011D205EB850201EB4205641C303DF1E74C
:1022400040F00400EAE7D9F800100B1DC9F800308F
:102250000968641C0D44217800232E290BD114F841
:10226000011FA1F130020A2A05D203EB830201EB20
:102270004203303BF3E76C290DD068290BD0692964
:1022800021D00BDC252918D0582931D063290ED054
:10229000642915D117E014F8011FECE7702969D003
:1022A000732932D075291BD0782909D120E0D9F8BB
:1022B0000000011DC9F8001001784046FFF72AF818
:1022C000641C90E76CE0D9F800100A1DC9F80020E2
:1022D0000968CDE900500A224046FFF7C5FBEFE749
:1022E000D9F800100A1DC9F8002009680A2206E082
:1022F000D9F800100A1DC9F8002009681022CDE99C
:102300000050404601F00AFDDAE7D9F80010002736
:102310000A1DC9F800200E68C00705D112E040462A
:10232000761C7F1CFEF7F6FF31780029F7D104E018
:10233000202140466D1EFEF7EDFFBD42C0D9002DA5
:10234000F6D1BDE74EB13046FEF750F8074604E03F
:10235000202140466D1EFEF7DDFFBD4206D9002D4F
:10236000F6D103E04046761CFEF7D4FF3178002911
:10237000F8D1A5E7D9F80000011DC9F800100568DB
:1023800030214046FEF7C6FF78214046FEF7C2FFE7
:1023900008200021CDE90001034610222946B0E7BC
:1023A000BDE8FC8770B541EA4201DDE904564FF013
:1023B000A04441EA830141EA052104EB800041EA9F
:1023C0000641C0F8001770BD70B541EA4201DDE971
:1023D00004564FF0A04441EA830141EA052104EB91
:1023E000800041EA0641C0F8001770BD70B541EAAF
:1023F0004201DDE904564FF0A04441EA830141EA7D
:10240000052104EB800041EA0641C0F8001770BDC9
:1024100070B541EA4201DDE904564FF0A04441EABB
:10242000830141EA052104EB800041EA0641C0F83E
:10243000001770BD1CB5002100910B4601220191CF
:10244000FFF7D4FF1CBD1CB5002100910B460122F3
:102450000191FFF7DDFF1CBD1CB500220B46009269
:1024600011460192FFF7C2FF1CBD1CB500220B46AE
:10247000009211460192FFF7CBFF1CBD1CB5002155
:1024800000910B46012201911146FFF7AFFF1CBDE1
:102490001CB5002100910B46012201911146FFF766
:1024A000B7FF1CBD4FF0A04202EB8000D0F8002720
:1024B00022F44032C0F80027D0F8002742EA014158
:1024C000C0F80017704701224FF0A043824011B1BD
:1024D000C3F808257047C3F80C25704718B5084B9A
:1024E0006C4601441B68009306E000BF54F820309E
:1024F000D3F81035401C08C28142F7D818BD00003F
:10250000243F0000034908B5084400210160006829
:10251000009008BD0060004002494058012800D0EA
:10252000002070470060004030B5154A0146002089
:10253000D2F8104423460AE0DB681D79854205D1B4
:10254000401C0A28F6DB4FF0FF3030BD1B68002B23
:10255000F2D1431CF9D0CB681871D2F8103443B1D2
:10256000DB68CC681B682360D2F81024D268116045
:1025700030BDC2F81014C96800220A6030BD0000E6
:1025800070060020F0B595B01C4615460F4608466B
:102590001A9E00F0F3FA182109A8FDF71CFF0E9609
:1025A000CDE909540023082203A9384600F0FBFABC
:1025B00005980690BDF81000ADF81C00BDF812009B
:1025C000ADF81E0000208DF821000398082600F0C9
:1025D0000300012802D0022818D032E003983346C5
:1025E000850AC0F3C2008DF8200003980FA9C0F33C
:1025F0008314A200384600F0D6FA09A8009006AB72
:1026000022460FA9284600F015FA1AE00398840D17
:10261000C0F3C2008DF82000082C01D2254600E04E
:10262000082533462A460FA9384600F0BCFA2E4446
:10263000641B09AB06AA29460FA800F06FF9002C0D
:10264000EAD1384600F0A0FA15B0F0BD704701207D
:1026500001F016BA084810B50178084A515C19B162
:10266000001D00F029FF02E00C3000F037FEBDE84D
:102670001040002001F004BADC000020800000209F
:1026800008B5034A00924023024AFFF77BFF08BDCA
:1026900021370000D80400200A4A012902EBC000BB
:1026A00007D0022907D0032907D0042907D000202A
:1026B00070470220704704207047007970474079C6
:1026C00070470000F840000010B5FFF7C0FF04217C
:1026D0000348FFF729FF02490120C968487110BD6E
:1026E000E84000002DE9F0478CB0FEF723FE18B15A
:1026F00000200CB0BDE8F0877D4C0020C4F8180421
:10270000BFF34F8F60680290A5684FF00008284023
:1027100004EB80000CE000BFD4F8180470B9216805
:102720000298814201D86160E2E7284004EB800012
:102730000C3002A9FFF72CFA0028EDD1002003AAE3
:10274000029901EA050304EB8303491CDB6842F8A4
:102750002030401C02910228F2D3039800F00300BD
:10276000022802D001284DD0A7E003985022810D05
:102770008946B2EB905F00D850210E4666F39F5019
:10278000039008315B4800F0B0F9070078D000F002
:10279000F5F94346082203A9384600F00CFA0299DD
:1027A00008F1080A2940681A8000001D864222D9D3
:1027B0004F4D0C3530B1C2B204EB8101301A904656
:1027C0000C3104E02946F2B2002590462846C6B2F4
:1027D0005346384600F0EFF90AEB080325B13246BC
:1027E0002946384600F0E7F9029909F1030001EBA8
:1027F000900002903BE004EB81015346324638469C
:102800000C31EFE70398C0F38310062800D30620AD
:10281000039960F38911C1F38310801C0391810037
:10282000344800F062F9070047D000F0A7F94346AA
:10283000082203A9384600F0BEF908F1080800266E
:102840000FE00298434600EA0501401C04EB8101B9
:102850000290042238460C3100F0ADF908F104086A
:10286000761C0398C0F38310B042EAD847B1D4F87D
:102870001054D4F8180478B1384600F085F931E0E6
:102880001BE0E8684079012804D12A6828463946C7
:1028900012689047E8680568002DF2D1384600F0CC
:1028A00073F90020FEF7FEF9D4F8180408B902986D
:1028B00060600020FEF7F8F914E0D4F8104405E059
:1028C0002168204689688847E0680468002CF7D1B1
:1028D00009480A49401AC008022101EB004008A13A
:1028E00000F018F8FEF726FD80F0010001E7000077
:1028F000700600203841000030410000F840000020
:102900004261636B656E647320666C7573686564A1
:102910000000000000231A4600F048BF2DE9F047F0
:102920000E4680461C46924608293ED894F80C90E4
:10293000002020731946104600F04CFE0025B542D9
:1029400006D218F805201AA12046FFF725FC03E05F
:1029500019A12046FFF720FC6D1C082DEFD317A10D
:102960002046FFF719FC0025B54210D218F8057073
:10297000FDF714FD0068C05D10F03E0F01D03A462F
:1029800000E02E220EA12046FFF706FC03E00DA179
:102990002046FFF701FC6D1C082DE5D301222146DE
:1029A000504600F0F9FD84F80C90BDE8F087000077
:1029B0002025303278000000202020007C0000001C
:1029C00025630000200000000B4810B5FF21816046
:1029D000002101604160C0F81814C0F8141480F898
:1029E0002014064800F0CEF8002803D1044800F077
:1029F00004F9002010BD00007006002038410000DE
:102A0000843F000002480349401AC0087047000094
:102A100038410000F840000013B56846FFF7A2FAFD
:102A200008B100201CBD0248009950F831001CBDBF
:102A3000F84000002DE9FF4781460C9D00200C4620
:102A40002F7B2873984616462946184600F0C2FD8B
:102A5000072E42D2DFE806F004090F161F2A3600BF
:102A600049462846FFF798FB37E049462846226842
:102A7000FFF792FB31E0D4E9002349462846FFF7EF
:102A80008BFB2AE0A0680090D4E900234946284641
:102A9000FFF782FB21E0D4E90201CDE90001D4E98E
:102AA000002349462846FFF777FB16E004F10800AB
:102AB00007C88DE80700D4E9002349462846FFF7F8
:102AC0006BFB0AE004F108000FC88DE80F00D4E9A1
:102AD000002349462846FFF75FFB0022294640466F
:102AE00000F05AFD2F73BDE8FF872DE9F041058AFC
:102AF00080462D1F4819C01CB0FBF5F0C6B24046F9
:102B0000FFF76AFA041E19D00020207101206071BD
:102B1000E58000272546761EC4F800800BE040467D
:102B2000FFF75AFA60B16179491C61712860054666
:102B30007F1CC0F80080B742F1D32046BDE8F08189
:102B4000204600F002F80020F8E72DE9F041457931
:102B500001466B1E002201E00968521C9A42FBD319
:102B60000F680146002605E038460C68FFF753FA67
:102B70002146761CAE42F7D3BDE8F0810121001D4D
:102B8000FFF70EBAFFF75CBA10B504460121001D2D
:102B9000FFF71CFA10F0FF0F04D12046BDE81040EB
:102BA000FFF7D3BF10BD1CB501920122009201AA0C
:102BB000FFF798F91CBD1CB501920022009201AAF2
:102BC000FFF790F91CBD4058002800D00120704745
:102BD00008B5002242504058009008BD00EB41105B
:102BE0001368C0F820359188C0F824159168C0F8A2
:102BF0002815D168C0F82C157047826800219160B3
:102C000082681161826851618268D1608268516016
:102C10008068016070474058002800D0012070474C
:102C200008B5002242504058009008BDD0F8040377
:102C3000084000D0012070474058002800D00120F3
:102C4000704708B5002242504058009008BD00006F
:102C500009480068012110F0010F08D14FF0E02071
:102C6000C02280F80024C0F88012C0F80011034987
:102C7000012008607047000000E100E018050040F6
:102C80000649024600200B790BB1852070470A6087
:102C900001220A7100224A71704700008C00002056
:102CA00070B54FF48270FFF7FCF902204107C1F8BC
:102CB00004030B4B196841F08070186009480268E2
:102CC00042F00104046044684FF40A554668361B1C
:102CD000AE42FBD30260196003490120086070BD59
:102CE000FCED00E0001000E008000040002802D0E9
:102CF0000149800108477047413F00002DE9F0413C
:102D00008846054600F030FC234E002828461AD09D
:102D1000FEF750FB304490F848008009032802D0A9
:102D200001280ED007E04FF0A040D0F81005E84091
:102D300010F0010F05D003212846BDE8F041FFF750
:102D4000B1BB0221F8E700F01BFC002822D0284686
:102D5000FEF730FB04464FF4807000EB84000F4F09
:102D600081B207EB8400D0F8102542F00102C0F8D0
:102D700010250846FFF7C6FBB8F1000F0AD0284619
:102D8000FEF718FB56F82000002803D00120A040D1
:102D9000C7F80403BDE8F081C802002000600040CD
:102DA0002DE9FC41DFF8BC80044608EB0400002755
:102DB00090F930001346C0170E46401C01D008277A
:102DC0004CE0B0781946C0F340022046FEF7CEFA38
:102DD0000546401C41D0B078410719D4C0070AD03D
:102DE0004FF0A04000EB8401D1F8000720F0020072
:102DF000C1F8000707E000217378204600910A46D9
:102E00000191FFF7E1FA174920465431FFF738F9ED
:102E1000B078800718D51448317800EB8500D0F8D9
:102E20001025124B1A40C0F810254FF4F8524FF4F9
:102E3000403302EA042203EA01410A43D0F81015A4
:102E40000A43C0F8102509E008EB0500327810F8B5
:102E5000481F41EA8211017000E004273846BDE8AE
:102E6000FC810000C802002000600040FFE0FCFF81
:102E70004FF0A041D1F81015C14011F0010000D071
:102E80000120704770B5184D95F8580008B108201A
:102E900070BD0020411E2A18401CC0B282F83010BC
:102EA0002028F8D300242046FEF752FA641CE4B22E
:102EB0000C2CF8D300240D49C0206C6581F8000467
:102EC00001264020891FC1F88002C1F800014FF49B
:102ED000BE70FFF717FB0649F007C1F8040385F839
:102EE0005860204670BD0000C802002006E000E0E7
:102EF00000600040034890F85800002800D00120EE
:102F000070470000C80200200121B1EB507F01D1C1
:102F1000012070470020704770B50D4600F0A6FBF9
:102F200004000FD00020FDF7BDFE207920B1002065
:102F3000FDF7BAFE112070BD012025602071002030
:102F4000FDF7B2FE002070BD10B500F08FFB002829
:102F500002D000210160017110BD00002DE9F04197
:102F6000904604460079134A1F4602EBC0060A4603
:102F7000069D00212068FFF731FE424601212068AE
:102F8000FFF72CFE2068C0F81475E80701D0102068
:102F900004E0A80701D5042000E000202168C1F862
:102FA0000002EAB231462046BDE8F041082300F0B5
:102FB000D7BB0000240300202DE9F0410D46044654
:102FC0000079324901EBC007387910B10820BDE81B
:102FD000F081294620463A60FEF76CFA2068012607
:102FE000C0F8006520686B79AA792989C0F80C358A
:102FF000C0F80425C0F80815A97AEA7A206841EAE1
:103000000221C0F8101520680021C0F800122068C5
:10301000C0F800134FF48E712068FFF7D9FD4FF40C
:1030200088712068FFF7D4FD4FF48A712068FFF79C
:10303000CFFD4FF482712068FFF7CAFD386808B3EE
:103040002068297940F3073000284FEA411106DA59
:1030500000F00F0000F1E02080F8141D03E000F103
:10306000E02080F80014206840F3073000F01F02D1
:1030700006FA02F14009800000F1E020C0F8801259
:10308000C0F800113E710020A1E7000024030020D9
:103090002DE9F0410F46044600791849164601EB28
:1030A000C0081D463A4600212068FFF797FD3A46C2
:1030B00001212068FFF792FD206806F0010101EB75
:1030C0005602C0F81425E80701D0102007E0A80731
:1030D00004D509B1082002E0042000E000202268A5
:1030E000C2F8000209B10C2300E00823EAB241460D
:1030F0002046BDE8F04100F033BB0000240300206F
:1031000010B501790A4A012302EBC102016841F3BB
:10311000073101F01F04A3404909890001F1E021B2
:10312000C1F8803100680021C0F80015117110BD90
:10313000240300200149024800F0CABC3C030020DF
:10314000002000402DE9F0410546007916460F4663
:1031500000EB40012D4A01EBC00102EB810494F821
:103160002A1011B10820BDE8F081294951F820103A
:103170002868FFF7D1FE08B11120F4E73946284648
:10318000FDF7A6FD66603869206030004FF001064B
:103190002FD03F7F4FF48E712868FFF741FD4FF429
:1031A000A2712868FFF73CFD28681A49C0F804138B
:1031B00028684FEA471140F30730002806DA00F08C
:1031C0000F0000F1E02080F8141D03E000F1E02082
:1031D00080F80014286840F3073000F01F0206FA58
:1031E00002F14009800000F1E020C0F88012C0F830
:1031F000001128680421C0F800150020A061E061DA
:1032000084F8290044F8140FA675ACE73C030020AD
:10321000283F0000800002002DE9F04705460079B4
:103220000B4600EB400101EBC000234901EB800499
:10323000284600F043F810B11120BDE8F0874FF0A8
:103240000008C4F82080A360626184F828804FF4ED
:103250008E76474631462868FFF7E2FC28684FF033
:103260000109C0F808902146286800F0CDFB60688D
:1032700000BBD5F800A00EE094F8280008B10F2795
:1032800016E031465046FFF7C6FC0028F4D0214630
:10329000504600F0B9FB216A60698142F1D33146A2
:1032A0002868FFF7B8FC0028F9D02868C0F80C900F
:1032B000C4F814803846C0E73C030020007900EBD6
:1032C000400101EBC000044901EB80004069002887
:1032D00000D00120704700003C0300202DE9F0479A
:1032E000044600794FF0000900EB400101EBC000FB
:1032F000254901EB80072068C0F80095786880B107
:1033000020682249C0F808132068012140F30730E3
:1033100000F01F0291404009800000F1E020C0F859
:1033200080112068D0F80C25D0F81485D0F80865F5
:10333000D0F810554FF0FF31C0F81415C0F80C1537
:103340002068C0F80815C0F81015501C02D01046AF
:10335000FFF770F8B8F1FF3F02D04046FFF76AF878
:10336000681C02D02846FFF765F8701C02D0304672
:10337000FFF760F82068FFF7E7FD87F82A90C7F8A5
:103380000490BDE8F08700003C03002084020200A6
:103390000149024800F048BC6803002000200040BA
:1033A0002DE9F0410546164600790F46154A00EB17
:1033B000C00102EB810494F8201011B10820BDE88F
:1033C000F081114951F820102868FFF7A5FD08B1D8
:1033D0001120F4E739462846FDF7BEFC66603869DF
:1033E00020601EB1397F2846FEF792FB286808212D
:1033F000C0F800150020A061E0610121606184F83F
:103400002010DCE7680300202C3F00002DE9F04786
:1034100004460E460079204900EBC00001EB800510
:1034200017463046FFF770FD30B1204600F036F801
:1034300020B11120BDE8F0871020FBE76F61AE607E
:103440004FF49076002731462068FFF7FAFB4FF4DF
:10345000AC7841462068FFF7F4FB2068AA686969E8
:10346000C0F84425C0F848152068012181606868CB
:1034700078B9B14649462068FFF7DEFB064641466B
:103480002068FFF7D9FB0643F4D000B10F270020D6
:1034900068613846CEE700006803002000790549DE
:1034A00000EBC00001EB80004069002800D0012043
:1034B00070470000680300202DE9F04704460079BA
:1034C000274900EBC00001EB800720684FF000099E
:1034D000C0F80095786880B120682249C0F80813C8
:1034E0002068012140F3073000F01F02914040099D
:1034F000800000F1E020C0F880112068D0F80C2591
:10350000D0F81485D0F80865D0F810554FF0FF3189
:10351000C0F80C15C0F814152068C0F80815C0F8DC
:103520001015501C02D01046FEF78DFFB8F1FF3F7A
:1035300002D04046FEF787FF681C02D02846FEF7FF
:1035400082FF701C02D03046FEF77DFF2068FFF737
:10355000FBFC87F82090C7F80490BDE8F0870000D6
:1035600068030020100302000449084490F9300069
:10357000082801DB0120704700207047C8020020A6
:103580000449084490F93000082801D2012070470E
:1035900000207047C802002010B50C46017A0529AA
:1035A00008D0407A38B1084808A102682046FEF7E2
:1035B000F3FD00E01AB106A12046FEF7EDFD20461E
:1035C000BDE81040FEF7F5BD240100202573000082
:1035D0000D0A000038B5C3880D46044633B114A067
:1035E000009015A216A12846FEF7D6FD217A0529DE
:1035F0001CD0607A48B1A088FFF74EF8164951F800
:10360000202016A12846FEF7C7FDA0880021FFF75D
:1036100003FA03461049207A143951F8202001B0EA
:103620002846BDE830400EA1FEF7B6BD38BD00000B
:103630001B5B306D000000001B5B313B33316D00C4
:1036400025734C6F67732064726F707065642028F7
:1036500025642925730D0A0024010020257300002C
:103660003C25733E2025733A200000000349884220
:1036700001D103487047002070470000002000403F
:103680009400002070B5012670044FF0E021002561
:10369000C1F88001084C4010C4F84803C4F808037E
:1036A00066602F20FFF722FBA660044C2F20A56048
:1036B000FFF71CFBA57070BD00100140C00000208A
:1036C00070B5054688690C4600284FF48471284679
:1036D0000AD0FFF7A5FAD5F81805626AE1688854A0
:1036E000606A401C606270BDFFF79AFAD5F8180551
:1036F00070BD1FB501238DF80030CDE90121D0E95F
:103700000012684690471FBD1FB501238DF8003099
:103710008DF808100192D0E90012684690471FBD4D
:1037200070B50D4C0020D2B22070201D0B4D0378D7
:10373000EB5C1BB1001DFFF769FE02E00C30FFF7E8
:103740006BFD08B1FDF7E5F96078002802D021781B
:103750000029FAD070BD0000D800002080000020B1
:1037600070B5054602201E46144608714A71086865
:1037700070B18221600700D59221200701D541F068
:103780002001E00601D521F080012868C0F800136F
:103790004FF482712868FFF71BFA2006286801D5CC
:1037A000304470BD01218151002070BD2DE9F84FDA
:1037B000204D92468946064698460122694618469B
:1037C000AF68FDF763FD58B3009800210446801CE4
:1037D00009E000BF00EA07035AF8212005EB830344
:1037E000401C491CDA604145F4D34FEA164AFEF703
:1037F000CFF84AEA0041601C384005EB80003C40AD
:1038000005EB8402C160D06866F3C50068F38910D7
:1038100069F39F2020F00300401C20F00400D060DA
:1038200095F8200402E000BFFEF75CFF0028FBD102
:10383000BDE8F88F700600202DE9F84F1D4C0025DB
:103840006846D4E901A6FEF7ADF8002738B3002397
:10385000009A61681CE0D1F800C00846944503D97D
:10386000ACEB02020A6015E0A2EB0C0263440760B5
:10387000D0F80CC0C1698146BCF1000F08D006EB3E
:10388000030828F07F48C0E9018CC9F81C500546A0
:103890000029E0D128466160FEF710FA03E02846CF
:1038A000FEF70CFA10B15046FDF7AEFDE770BDE82B
:1038B000F88F0000C00000200D4B10B5596831B1E1
:1038C00002680C68A24204D8A21A0A60C16158605A
:1038D00010BD0B4603E00B46C969121B21B10C68F1
:1038E0009442F8D3A41A0C600260C161D86110BD83
:1038F000C00000202DE9F041144E77683D462C466B
:1039000003E0844204D02546E469002CF9D11BE091
:10391000D4B1A5420BD1F869706040B90C490120BF
:1039200088600021B160F0702F20FFF7DFF9216877
:10393000E069E86110B10268114401607068874273
:1039400002D00120BDE8F0810020FBE7C00000208C
:1039500000100140F8B5064600240D462046FDF74C
:10396000A1F9684600F034FA68B10570084946606C
:103970009DF8000048700020FDF796F91420FCF730
:1039800053FE2046F8BD04240020FDF78DF9F8E72A
:10399000CC0300202DE9F041194D6C68002C2CD08F
:1039A000184800270068A968B846401A20F07F46EA
:1039B0002068B0420CD82146361A0744E469087CD6
:1039C00020B181F81080886949698847002CEFD1BF
:1039D00029786878814206D1401CC0B268700228FC
:1039E00001D185F80180064869780C3040F82170D3
:1039F000BDE8F0411420FCF717BEBDE8F0810000DF
:103A0000C00000200415014070B50C4605464FF477
:103A10008E71FFF705F9216AA068415C206A401C9D
:103A20002062C5F81C1570BD1FB500228DF800205E
:103A30000291816801914261D0E900126846904785
:103A40001FBD00001FB50A4601788DF800104168BF
:103A50000191017A8DF80810C0680390044850F86D
:103A60002210001F50F82220684690471FBD00001A
:103A7000880000200149012008707047D80000200C
:103A800010B588B0044620220E496846FCF78AFC2F
:103A900006200090C01F0190029003904FF0EB7041
:103AA00006900CB1084A00E0002269460748FEF77C
:103AB0003FFB08B1FDF72DF80448001F447008B023
:103AC00010BD0000643F0000753A0000DC000020DB
:103AD0002DE9FF470C4605464FF40071FFF7A6F8A5
:103AE00001274FF40178002618B34FF49279494624
:103AF0002846FFF790F8E0B149462846FFF790F8CE
:103B0000C5F8088394F8290000B96F6002208DF889
:103B10000000D5F88004C5F880040390A0690290E5
:103B2000E0680190A661E661D4E90012684690471A
:103B300028E004212846FFF779F818B34FF4847180
:103B40002846FFF768F8E8B121462846FFF7B8FD98
:103B5000616AA069884215D1E06938B1E268616A9A
:103B6000A0612069E6616662E06008E094F82900DF
:103B700000B96F60C5F80883A661E268616A2046F3
:103B8000FFF7B7FD4FF48E7841462846FFF743F81C
:103B900078B1206A6169884202D294F8280020B383
:103BA00041462846FFF73CF8616911B12046FFF70E
:103BB0003BFF4FF4A27841462846FFF72CF8002837
:103BC00018D041462846FFF72BF894F8290000B199
:103BD0002F60A06900280DD0A661E268616A04B078
:103BE0002046BDE8F047FFF784BD21462846FFF791
:103BF0000BFFDEE7BDE8FF871FB50A4601788DF8A9
:103C0000001041680191017A8DF80810C068039096
:103C1000044850F82210001F50F8222068469047B0
:103C20001FBD0000880000202DE9FF410C464FF425
:103C3000927705463946FEF7FFFF0026C0B13946A8
:103C40002846FEF7FEFF02208DF80000D5F880041C
:103C5000C5F880040390D5F83C058DF80800E068AD
:103C60000190A661E661D4E900126846904723E01E
:103C70004FF4887739462846FEF7DEFFE0B1394633
:103C80002846FEF7DEFFD5F83C15A069884213D11F
:103C9000E06960B1E268D5F8000220F02000C5F8C4
:103CA0000002E069A0612069E661E06001E0A661D0
:103CB000E2682046FFF728FD4FF4A27739462846F0
:103CC000FEF7BAFF60B139462846FEF7BAFFA06991
:103CD00030B1A661D5F83C152046E268FFF714FD27
:103CE0004FF4907739462846FEF7A6FF002813D0F8
:103CF00039462846FEF7A5FF606900280CD0D5F8A4
:103D00004C058DF800608DF80800A0680190666190
:103D1000D4E9001268469047BDE8FF812DE9F05FC5
:103D20008346DDE90A4A994690460D460846012732
:103D300003E000BFB0FBF8F07F1C4045FAD2B94564
:103D400000D94F465FEACA7012D18CB15FEA8A701F
:103D500002D5B9F1000F01D0202607E0302605E09A
:103D600031465846641EFDF7D5FA0CB1A742F7D389
:103D70005FF00106B9F1010F02D9A9F1010903E0D1
:103D8000B5FBF6F0404502D306FB08F6F2E7DFF894
:103D90003C9000BFB5FBF6F000FB165519F800107B
:103DA0005846FDF7B7FAB6FBF8F6002EF2D15FEAF7
:103DB000CA7009D0002C07D0A74205D2202158464E
:103DC000641EFDF7A7FAF5E7BDE8F09F463F000047
:103DD0000A494A788B78521CD2B2934200D1002211
:103DE0000B78934201D1002070470270487800EBB5
:103DF000400001EBC000001D70470000CC03002014
:103E00001C00002004000000000000000000000072
:103E100091929493070400001027020091929394CA
:103E200007050000102700004C01002019000000C9
:103E30000100000000000000240000200600000037
:103E4000040000000000000091FFFFFF07070000D2
:103E5000A861000030000020060000000000000003
:103E60000400000000000000070000000000000047
:103E70003C000020080000000100000000000000DD
:103E80007E0100206400000000000000000000002F
:103E90004C0000200200000095000000000000001F
:103EA0004C00002002000000310000000000000073
:103EB0007E010020640000000200000000000000FD
:103EC0009193949207070000093D020050000020E2
:103ED0001000000000000000000000001D150000A0
:103EE000E91500008D160000011700008118000080
:103EF000111213140D0E0F1048020020680200204A
:103F0000940200200D000300E10E00000E000300EB
:103F1000E10E00000F000300E10E0000100003009E
:103F2000E10E000000000050353100009133000028
:103F3000030000008C0300200000000000000000CF
:103F40000338FDD87047303132333435363738399D
:103F500041424344454600008126000055260000AA
:103F60004D260000FFFFFFFFFFFFFFFFFFFFFFFFEA
:103F7000FFFFFFFF00000000000000000000D6016E
:103F800006010000D80500207F0000005806002030
:103F9000004040404040404040404141414141405C
:103FA0004040404040404040404040404040404011
:103FB00040050202020202020202020202020202A0
:103FC00002202020202020202020200202020202A5
:103FD00002029090909090901010101010101010FD
:103FE0001010101010101010101010100202020209
:103FF000020288888888888808080808080808084D
:104000000808080808080808080808080202020248
:1040100040000000913F00007761726E696E67009A
:1040200064656275670000001B5B313B33306D00D7
:104030001B5B306D000000001B5B313B33316D00BA
:104040001B5B313B33326D001B5B313B33336D0007
:104050001B5B313B33346D001B5B313B33356D00F3
:104060001B5B313B33366D001B5B313B33376D00DF
:10407000696E666F000000006572726F720000006A
:10408000636C6F636B000000434C4F434B000000B8
:104090004750494F544500005052530050574D006F
:1040A0005541525400000000554152544500000053
:1040B000756172745F6C6F675F6261636B656E647C
:1040C00000000000617070004C4100000000002002
:1040D0004C01000040040000A44100004C010020FD
:1040E0004C290000480A0000583F00000000000072
:1040F000B0400000F0000020804000000000000000
:104100008840000000000000904000000000000017
:1041100098400000000000009C40000000000000EB
:10412000A040000000000000A840000000000000C7
:10413000C44000000000030300010020F80000203C
:104140000001002018050020180000005154C00193
:10415000404510024001E5200240025A8004890ACD
:10416000490E89162902891009200A01681220497E
:10417000DC690831021FFF1A782A1A18041A700421
:104180001A20041A30041A28041A38041A40041A8F
:1041900048041A50041A58041A60042A685A040081
:0441A00090D00300B8
:0400000500000201F4
:00000001FF
