:020000040000FA
:1000000000230020490300005103000031020000DA
:1000100055030000570300005903000000000000D2
:100020000000000000000000000000005B03000072
:100030005D030000000000005F030000610300009A
:100040007F06000063030000D10900006303000085
:100050006303000063030000650400006303000005
:1000600063030000630300006303000063030000F8
:1000700063030000630300006303000063030000E8
:10008000630300008D0600006303000063030000AB
:10009000B106000063030000630300006303000077
:1000A00063030000630300006303000063030000B8
:1000B0006303000063030000000000000000000074
:1000C0006303000063030000630300006303000098
:1000D00063030000630300006303000000000000EE
:1000E0000000000000000000000000000000000010
:1000F0000000000000000000000000000000000000
:1001000000000000000000000000000000000000EF
:1001100000000000000000000000000000000000DF
:1001200000000000000000000000000000000000CF
:1001300000000000000000000000000000000000BF
:1001400000000000000000000000000000000000AF
:10015000000000000000000000000000000000009F
:10016000000000000000000000000000000000008F
:10017000000000000000000000000000000000007F
:10018000000000000000000000000000000000006F
:10019000000000000000000000000000000000005F
:1001A000000000000000000000000000000000004F
:1001B000000000000000000000000000000000003F
:1001C000000000000000000000000000000000002F
:1001D000000000000000000000000000000000001F
:1001E000000000000000000000000000000000000F
:1001F00000000000000000000000000000000000FF
:10020000DFF80CD000F01CF900480047391200005C
:100210000023002000B583B002900091019244F2C7
:10022000010071466A4600F00FFC03B000BD0000FB
:10023000094B1EF0040F1CBFEFF309801847EFF3C2
:1002400008800649064A884201D8904202D88D4665
:100250004FF0000018470000D105000000230020E7
:100260000003002030B4044654E8000F0D4644E873
:100270000053002BF8D1156030BC704730B40446F1
:1002800054E8000F40EA010544E80053002BF7D181
:10029000156030BC704730B4044654E8000F00EAE3
:1002A000010544E80053002BF7D1156030BC7047BE
:1002B00030B4044654E8000F80EA010544E80053D6
:1002C000002BF7D1156030BC704730B4044654E8B9
:1002D000000F00EB010544E80053002BF7D1156037
:1002E00030BC704730B4044654E8000FA0EB010561
:1002F00044E80053002BF7D1156030BC704770B450
:1003000004464FF0000054E8006F0D68AE4207BF8E
:1003100044E80023012044E800630E60002B1CBF6A
:100320000020F0E770BC704730B4044654E8000F7A
:1003300088422CBF451A054644E80053002BF5D1EE
:10034000156030BC704700000648804706480047EB
:10035000FEE7FEE7FEE7FEE7FEE7FEE7FEE7FEE775
:10036000FEE7FEE7B5060000010200002DE9F05FA0
:100370000546002092469B46884606468146402414
:100380001BE0284641464746224600F048F85346BF
:100390005A46C01A914110D311461846224600F021
:1003A00016F82D1A67EB01084F462246012000215E
:1003B00000F00DF817EB00094E41201EA4F10104D6
:1003C000DFDC484631462A464346BDE8F09F202AF6
:1003D00004DB203A00FA02F1002070479140C2F19C
:1003E000200320FA03F319439040704740EA0103C9
:1003F0009B0703D009E008C9121F08C0042AFAD2DB
:1004000003E011F8013B00F8013B521EF9D270479E
:10041000421C10F8011B0029FBD1801A7047202ACA
:1004200004DB203A21FA02F00021704721FA02F39E
:10043000D040C2F1200291400843194670470000A5
:10044000064C074D06E0E06840F0010394E8070021
:1004500098471034AC42F6D3FFF7D6FE383500008B
:10046000583500002DE9F04700268AB0DFF8589192
:10047000B0464FF48075012437460596284601F0B2
:10048000C1F938B1D9F80403204203D0284601F05D
:10049000AFF926432D1D64007F1CADB2082FEDD3AC
:1004A0004FF4BE74204601F0ADF948B1204601F08A
:1004B0009FF946F0004605AA0121002001F064F9E9
:1004C000424D16F0FF0F15D00127002437420DD002
:1004D00009EB8401D1F81005D1F81015C0F3042000
:1004E00055F82420C1F3014102B190477F00641CFC
:1004F000082CEBD3002E63DA4FF0FF30CDF81080DC
:1005000058E0281910F8507F90F9000027F0C00833
:10051000401C3FD008A9404600F0F5FE30B34FEA3A
:100520009719404600F0A6FC55F820701FB1B9F1AC
:10053000030F03D006E0B9F1030F2BD104A9404605
:1005400000F0E9FE02A8CDF8088001F089F80299D0
:1005500000EB8100D0F8000705A9C0F3014A40462E
:1005600000F0D1FE18B1BAF1020F03D012E0BAF1D7
:10057000030F0FD1B9F1030F08D1BAF1020F1DD04B
:100580000221404601F02FF8761CF6B217B1494619
:100590004046B847641C042CB3D3002E10D06A46E2
:1005A0000121002001F0F0F805990098884207D059
:1005B00005900498002634460890A2E70321E0E75E
:1005C0000AB0BDE8F0870000006000402401002070
:1005D000084909680749091D09680021491C1A29A9
:1005E000FCD30449C8310968C90700D000BE00F037
:1005F00003F8000028ED00E0BFF34F8F05480168C5
:10060000054A01F4E06111430160BFF34F8F00BF61
:10061000FDE700000CED00E00400FA0500F01F0209
:10062000012191404009800000F1E020C0F88012D3
:10063000704700F01F02012191404009800000F145
:10064000E020C0F80011704700F01F020121914026
:100650004009800000F1E020C0F80012704749070F
:10066000090E002806DA00F00F0000F1E02080F803
:10067000141D704700F1E02080F80014704710B599
:1006800001F06EFEBDE8104001F086BD0748002174
:10069000C0F84011C0F84411C0F84811C0F84C111E
:1006A000C0F80011C0F8041102F0E4BC00100140D1
:1006B00002F032BCF0B5B5480023021D0178101DD0
:1006C00001254FF0805406290BD11678360708D142
:1006D0000678C6F30316032E06D0042E04D0052E8A
:1006E00002D0062907D00EE0B4F82463A84FC6F361
:1006F00004263E6002E01678360704D10678C6F379
:100700000316032E02D0062904D00FE0A24FA14EFB
:100710007E670EE01678360708D10678C6F3031612
:10072000032E06D0042E04D0052E02D0062907D0B1
:100730000EE0D4F84462994FC6F342363E6002E0C0
:100740001678360704D10678C6F30316032E02D0B6
:10075000062906D011E0924E376827F0807737607F
:100760000EE01678360708D10678C6F30316032E76
:1007700006D0042E04D0052E02D006290AD011E09E
:100780004FF08046C6F80C31C6F81031834E361F44
:10079000336002E01678360704D10678C6F30316F4
:1007A000032E02D0062905D00CE07C4F03266437C7
:1007B0003E600AE01678360704D10678C6F30316C1
:1007C000032E02D006290DD014E0764F05263E6098
:1007D000744E78363560734E083633603F263F1DC1
:1007E0003E6002E01678360704D10678C6F3031699
:1007F000052E02D0062957D062E06B4E36686B4F4B
:100800003E60694E361D36683F1D3E60664E0836B6
:1008100036683F1D3E60644E0C3636683F1D3E60B4
:10082000614E103636683F1D3E605F4E14363668A6
:100830003F1D3E605C4E183636685C4F20373E6088
:10084000594E1C3636683F1D3E60574E203636687E
:100850003F1D3E60544E243636683F1D3E60524E6A
:10086000283636683F1D3E604F4E2C3636683F1D99
:100870003E604D4E303636684C4F40373E604A4EF3
:10088000343636683F1D3E60474E383636683F1D69
:100890003E60454E3C3636683F1D3E60424E403617
:1008A00036683F1D3E6002E01678360708D10678AC
:1008B000C6F30316032E06D0042E04D0052E02D054
:1008C000062907D019E0D4F85812394A01F04F012F
:1008D000116002E0117809070FD10078C0F303100E
:1008E000032803D0042801D0052806D13148016827
:1008F000C90702D06FF001010160D4F83001062869
:1009000008D1D4F83401062804D12B48016841F4F9
:100910008061016022487438016841F4700101600F
:10092000BFF34F8FBFF36F8F4FF01021D1F800024C
:10093000002803DBD1F80402002822DA1F4A1560E0
:100940001F480468002CFCD01524C1F8004205683B
:10095000002DFCD0C1F8044201680029FCD01360CE
:1009600001680029FCD0BFF34F8F0D48F0380168B3
:10097000144A01F4E06111430160BFF34F8F00BFDF
:10098000FDE7124910480860F0BD0000E00F00F0DC
:10099000403501400DF0ADBA00C007403C050040B5
:1009A000FCED00E0105600400404001020C500409B
:1009B000E40E0040000400403C17004004E5014004
:1009C00000E401400400FA050090D0035C00002020
:1009D00010B5054C206818B904A12B2000F0E0F9EF
:1009E0002068BDE8104000473C0000202E2E5C2E01
:1009F0002E5C2E2E5C2E2E5C2E2E5C2E2E5C6D6FB1
:100A000064756C65735C6E7266785C647269766539
:100A100072735C7372635C7072735C6E7266785F23
:100A20007072732E6300000002E008C8121F08C134
:100A3000002AFAD170477047002001E001C1121F5F
:100A4000002AFBD17047000072B6034B1B68DB071E
:100A500000D000BE00F002B8F0ED00E008B50123C0
:100A60008DF800309DF80030144B186059609A6082
:100A70006FF48041401807D001280FD1DA60D868A0
:100A800000889861D86807E01A6118698068586121
:100A900018690068986118694068D86118685868D2
:100AA0009868D868186958699869D86972B600BF9B
:100AB0009DF800000028FBD162B608BDD0010020DF
:100AC000074B9B7823B12AB120B10068037C1BB18E
:100AD000082070470720704741744261002070472A
:100AE000F001002070B502F0F3F8104800240B214B
:100AF000047044700E4D817014206C602C706C700A
:100B0000FFF78CFD06211420FFF7A9FD1420FFF745
:100B100090FD0848046006211120FFF7A0FD05485C
:100B2000001F0068A860002070BD0000F0010020D8
:100B300044000020081501402DE9F843DFF87090CB
:100B400099F802305BB350B3052902D20720BDE803
:100B5000F88343691BB3437C012B22D00027044652
:100B6000002588461646284600F036F8684602F00A
:100B700081FCC0B1012101700E4944600968C0E9DF
:100B80000218C0E904769DF8000089F801000020F1
:100B900000F050F81420FFF757FD2846D7E708204B
:100BA000D5E70F46DBE70425002000F043F8F4E723
:100BB000F0010020041501400649897839B130B1AF
:100BC000416921B100210174022102F033BA0820E9
:100BD00070470000F001002010B501F0D9FF012896
:100BE00003D004A11D2000F0DBF8BDE8104000F0A8
:100BF0004FB800002E2E5C2E2E5C2E2E5C2E2E5C0E
:100C00002E2E5C2E2E5C636F6D706F6E656E74732E
:100C10005C6C69627261726965735C7574696C5C45
:100C20006170705F7574696C5F706C6174666F720F
:100C30006D2E630010B501F0ABFF012803D004A1B5
:100C40002B2000F0ADF8BDE8104000F029B80000FE
:100C50002E2E5C2E2E5C2E2E5C2E2E5C2E2E5C2ECE
:100C60002E5C636F6D706F6E656E74735C6C696221
:100C70007261726965735C7574696C5C6170705FD8
:100C80007574696C5F706C6174666F726D2E630051
:100C900072B602480168491C016070475800002084
:100CA00003490868401E086000D162B67047000022
:100CB0005800002070B5054608680C46411C04D059
:100CC00000F03AFD206800F07AFC6068411C02D018
:100CD000002100F062FC2968A069C1F82405607D4C
:100CE000227D29681043C1F86C05D4E900122868F8
:100CF000C0F81425C0F80C15207D012814D1A06877
:100D0000411C02D0002100F048FCE068411C04D0E6
:100D100000F012FDE06800F052FCD4E902122868ED
:100D2000C0F80825C0F8101570BD70B505460868F4
:100D30000C46411C04D000F009FD206800F049FC7D
:100D40006068411C02D0002100F030FC2968A069D5
:100D5000C1F82405607D217D2A680843C2F86C052E
:100D6000D4E900122868C0F80C15C0F81425207DBD
:100D7000012814D1A068411C02D0002100F016FC0B
:100D8000E068411C04D000F0E1FCE06800F021FCC8
:100D9000D4E902122868C0F80825C0F8101570BD03
:100DA0001CB56A46ADF800000191002144F2020032
:100DB000FFF74AFE1CBD00002DE9FC410646C007B6
:100DC0004FF000050ED0104F00240122385D009531
:100DD00000231146019500F095FB641C042CF4D30C
:100DE00000F03EF8B0070DD5074E0024361D002256
:100DF000305D032300951146019500F083FB641CD0
:100E0000042CF4D3BDE8FC811435000010B5044671
:100E1000042803D305A12120FFF7C2FF0F480121B9
:100E2000005DBDE8104000F09BBC00002E2E5C2E43
:100E30002E5C2E2E5C2E2E5C2E2E5C2E2E5C636F76
:100E40006D706F6E656E74735C626F617264735CFB
:100E5000626F617264732E6300000000143500003D
:100E600010B500242046FFF7D1FF641C042CF9D3F1
:100E700010BD00000249084490F93000704700009E
:100E80002401002070B5084C050009D010342168F9
:100E9000002907D008682060496828468847F6E797
:100EA0000834F4E770BD000010010020054A01215C
:100EB00020B1012805D19170FFF7E4BF51700020E7
:100EC000FAE77047100100202DE9F05F26484168DD
:100ED000F1B3DFF898B00E688146DBF80040876810
:100EE0008078E11B21F07F45ED1CB0B9DFF88080F0
:100EF0004FF48030C8F84403C8F804031120FFF70A
:100F00008DFB1120FFF795FB4FF0010AC8F800A0F8
:100F10002F2001F0B9F989F802A0B54200D2354678
:100F2000124BE8193C3320F07F401860DBF80010CA
:100F30005A46091B21F07F41001B20F07F40C91C4D
:100F400081420FD9106818602F2001F09DF900E050
:100F500004E0BDE8F05F1120FFF776BBBDE8F05F6D
:100F600001F0B6BEBDE8F09F44000020041501402A
:100F7000001001400E4910B50A784C780023A242B7
:100F800012D0521CD2B20A70022A00D10B70084A49
:100F90000B780C3252F8232002608868104420F04D
:100FA0007F408860012010BD0360002010BD00005C
:100FB0004400002042691268D268002A00D010471D
:100FC0007047000070B50E46054600684FF48E71FC
:100FD00001F067F84FF4A271286801F062F8286800
:100FE0001549C0F804132868082E40F3073403D3CA
:100FF00012A14520FFF7D4FE7007000E002C06DA80
:1010000004F00F0101F1E02181F8140D03E004F177
:10101000E02484F800042868012140F3073000F040
:101020001F0291404009800000F1E020C0F88012CA
:10103000C0F8001170BD0000800002002E2E5C2E52
:101040002E5C2E2E5C2E2E5C2E2E5C2E2E5C696E5F
:10105000746567726174696F6E5C6E7266785C6EDF
:101060007266785F676C75652E68000070B50E4615
:10107000044600684FF4887101F024F84FF4907131
:10108000206801F01FF84FF49271206801F01AF8FF
:101090004FF4A271206801F015F820681549C0F8D6
:1010A00004132068082E40F3073503D312A145200E
:1010B000FFF776FE7007000E002D06DA05F00F012F
:1010C00001F1E02181F8140D03E005F1E02585F838
:1010D00000042068012140F3073000F01F02914016
:1010E0004009800000F1E020C0F88012C0F8001133
:1010F00070BD0000100302002E2E5C2E2E5C2E2EE2
:101100005C2E2E5C2E2E5C2E2E5C696E74656772D2
:101110006174696F6E5C6E7266785C6E7266785F21
:10112000676C75652E6800000268134602E08A420B
:1011300004D01268002AFAD10B60016070470000E9
:101140002DE9F047394E002780463D46DFF8E09014
:10115000D6F804A057E003D00446D0F81C8035E050
:1011600099F8002002EB4201521CD2B289F800200B
:1011700009EBC10199F80230091D9A4201D189F8A1
:10118000005048680A780446012A12D0022A02D088
:10119000032A3BD108E001F01DFF00B101272574AF
:1011A00034E00574C06900E070680028F9D170600F
:1011B0002CE0207C50BB88686060C868A06008692B
:1011C000E0604869A061F07800B165606268B1686C
:1011D000184B501A20F07F40984202D2A168084470
:1011E00006E0881AA16820F07F40814202D9081ADF
:1011F000206000E0256065600120A5602074204625
:10120000E56101F0C9FEB8F10000A4D199F8001021
:1012100099F801008142A3D117B97168514502D0F4
:101220000120BDE8F0870020FBE70000440000201B
:10123000F0010020FFFF7F001CB500F085F818B119
:1012400028A24421FEF7E6FF002000F0E7F818B1DD
:1012500024A24621FEF7DEFF002000F08FF8FFF702
:1012600041FC18B11FA24A21FEF7D4FF0320FFF76B
:10127000A3FD204AA2F1200101F1340000F034FD69
:1012800018B118A25021FEF7C5FF1B48FFF7C0F8A0
:1012900002464FF0FF3000901648002316491430E4
:1012A00000F072FE18B10FA25921FEF7B3FF4FF400
:1012B0007A7400250F480023012201A914300094FC
:1012C00000F0D0FD0028F5D10A480023012201A931
:1012D0001430009500F058FE06480021143000F04C
:1012E0008BFCE7E72E2E5C2E2E5C2E2E5C6D61694A
:1012F0006E2E6300C43400000000002008B56A466A
:10130000FEF7B0FF08BDC20800F007030120895CAA
:1013100098400840704710B5C20800F00703885C89
:1013200001249C402043885410BD00F18040006897
:10133000002800D00120704708B500F1804000214E
:1013400001600068009008BD70B50A4C207808B1B3
:1013500085250CE00020A06060602061E060064808
:1013600000F0E8FE054600F0B3FE0120207028469C
:1013700070BD000010010020AD0E000070B5174CCC
:101380000546207818B916A1C320FFF709FDA078FB
:1013900038B115B16968012088470020FFF71CFCAF
:1013A0000CE00020FFF718FC25B10C48294610304E
:1013B000FFF7BAFEE06808B900F01AFFE068401CC9
:1013C000E0600020FFF736FCE068002805D1BDE8AA
:1013D000704003A1DF20FFF7E3BC70BD10010020C7
:1013E0002E2E5C2E2E5C2E2E5C2E2E5C2E2E5C2E37
:1013F0002E5C696E746567726174696F6E5C6E7283
:1014000066785C6C65676163795C6E72665F647256
:10141000765F636C6F636B2E6300000010B5074C42
:10142000217809B1852010BD00B9054800F060FFA2
:101430000028F8D10121217010BD00001600002005
:101440001C350000F0B505460478154889B01646ED
:1014500040F82420124A0869121DA2F1080742F838
:101460002400487F385520226846FEF7BFFF0494C9
:101470002878385C48B10EB10A4A00E0002269467B
:10148000281D01F0D9F909B0F0BD0EB1064A00E0FF
:101490000022694605F10C0001F000F8F3E70000B6
:1014A0001C00002051330000F931000030B40378F3
:1014B000054CE35C1BB130BC001D01F015BA30BC1B
:1014C0000C3001F047B800001800002030B4037859
:1014D000054CE35C1BB130BC001D01F0CDBA30BC43
:1014E0000C3001F00FB90000180000200178044A08
:1014F000515C11B1001D01F03DBB0C3001F084B90D
:10150000180000202DE9FF411C46DDE90A78154648
:101510000E46684600F080F846EA450141EA84013B
:1015200041EA072242EA0841009A00EB8200C0F833
:101530000017BDE8FF812DE9FF411C46DDE90A786F
:1015400015460E46684600F0AFF846EA450141EA06
:10155000840141EA072242EA0841009A00EB820036
:10156000C0F80017BDE8FF812DE9FF411C46DDE909
:101570000A7815460E46684600F0BAF846EA450174
:1015800041EA840141EA072242EA0841009A00EB5D
:101590008200C0F80017BDE8FF811CB500220B4691
:1015A000009211460192FFF7C6FF1CBD1CB5002238
:1015B0000B46009211460192FFF7D6FF1CBD1CB5E9
:1015C000002100910B46012201911146FFF7B3FF64
:1015D0001CBD1CB5002100910B4601220191114652
:1015E000FFF7C2FF1CBD13B50C46684600F038F883
:1015F000009900EB8101D1F8002722F44032C1F8B4
:101600000027009900EB8100D0F8001741EA04415F
:10161000C0F800171CBD000010B50068202804D3D6
:1016200003A14FF4D570FFF7BBFB4FF0A04010BDF6
:101630002E2E5C2E2E5C2E2E5C2E2E5C2E2E5C2EE4
:101640002E5C6D6F64756C65735C6E7266785C6839
:10165000616C5C6E72665F6770696F2E6800000077
:1016600010B50068202804D303A14FF4D570FFF70C
:1016700097FB4FF0A04010BD2E2E5C2E2E5C2E2E20
:101680005C2E2E5C2E2E5C2E2E5C6D6F64756C6550
:10169000735C6E7266785C68616C2F6E72665F67F1
:1016A00070696F2E6800000010B50068202804D310
:1016B00003A14FF4D570FFF773FB4FF0A04010BDAE
:1016C0002E2E5C2E2E5C2E2E5C2E2E5C2E2E5C2E54
:1016D0002E5C6D6F64756C65735C6E7266785C68A9
:1016E000616C2F6E72665F6770696F2E6800000014
:1016F00010B50068202804D303A14FF4D570FFF77C
:101700004FFB4FF0A04010BD2E2E5C2E2E5C2E2ED7
:101710005C2E2E5C2E2E5C2E2E5C6D6F64756C65BF
:10172000735C6E7266785C68616C2F6E72665F6760
:1017300070696F2E6800000001B56846FFF7B4FFBE
:10174000009A01219140C0F8081508BD01B568460E
:10175000FFF7CEFF009A01219140C0F8081508BD9F
:1017600038B501240090684631B1FFF755FF009964
:101770008C40C0F8084538BDFFF74EFF00998C40FB
:10178000C0F80C4538BD0000F8B504460B48661893
:10179000154600680090012E04D909A140F2CB2023
:1017A000FFF7FEFA694605E051F82400D0F810056D
:1017B000641C01C5A642F7D8F8BD00002035000022
:1017C0002E2E5C2E2E5C2E2E5C2E2E5C2E2E5C2E53
:1017D0002E5C6D6F64756C65735C6E7266785C68A8
:1017E000616C2F6E72665F6770696F2E6800000013
:1017F000034908B50844002101600068009008BD55
:101800000060004002494058012800D00020704785
:101810000060004010B5040003D104A14C20FFF784
:10182000BFFA00202060BFF35F8F10BD2E2E5C2E0C
:101830002E5C2E2E5C2E2E5C2E2E5C2E2E5C636F6C
:101840006D706F6E656E74735C6C696272617269E3
:1018500065735C6D757465785C6E72665F6D7478C7
:101860002E68000010B5040003D107A15F20FFF728
:1018700097FA01212046FFF741FDBFF35F8F08B1C2
:10188000002010BD012010BD2E2E5C2E2E5C2E2EB1
:101890005C2E2E5C2E2E5C2E2E5C636F6D706F6E38
:1018A000656E74735C6C69627261726965735C6D9C
:1018B000757465785C6E72665F6D74782E68000072
:1018C00010B5040003D108A16C20FFF769FA206865
:1018D000012803D004A16D20FFF762FABFF35F8FE8
:1018E0000020206010BD00002E2E5C2E2E5C2E2EBF
:1018F0005C2E2E5C2E2E5C2E2E5C636F6D706F6ED8
:10190000656E74735C6C69627261726965735C6D3B
:10191000757465785C6E72665F6D74782E68000011
:1019200000F180410868002210B101200A60704770
:101930001046704710B5040004D105A14FF4F670AD
:10194000FFF72EFA204600F025F9A168081A10BD0D
:101950002E2E5C2E2E5C2E2E5C2E2E5C2E2E5C2EC1
:101960002E5C636F6D706F6E656E74735C6C696214
:101970007261726965735C71756575655C6E7266BE
:101980005F71756575652E630000000070B51446C3
:101990000E46050004D113A14FF4A170FFF700FA21
:1019A00026B910A140F24310FFF7FAF94FF00000FA
:1019B000002C12D0FFF710F9287C78B12846FFF7E9
:1019C000B9FF844200D3044622463146284601F03E
:1019D00038F90020FFF72EF9204670BDA868A04214
:1019E000F2D8F0E72E2E5C2E2E5C2E2E5C2E2E5C76
:1019F0002E2E5C2E2E5C636F6D706F6E656E747331
:101A00005C6C69627261726965735C71756575653C
:101A10005C6E72665F71756575652E63000000000F
:101A200010B5040004D107A14FF4F270FFF7B8F924
:101A3000216808684968884201D1012010BD002052
:101A400010BD00002E2E5C2E2E5C2E2E5C2E2E5CE9
:101A50002E2E5C2E2E5C636F6D706F6E656E7473D0
:101A60005C6C69627261726965735C7175657565DC
:101A70005C6E72665F71756575652E6300000000AF
:101A800070B50C46050003D105495120FFF788F9D0
:101A9000A868A04201D9601C70BD002070BD000084
:101AA0005019000070B514460D46060004D110A16F
:101AB00040F2AF10FFF774F925B90DA14FF4D870BB
:101AC000FFF76EF94FF00000002C10D0FFF784F8FC
:101AD000304601F0AAF8844200D304462246294643
:101AE000304601F06FF80020FFF7A4F8204670BDE3
:101AF0002E2E5C2E2E5C2E2E5C2E2E5C2E2E5C2E20
:101B00002E5C636F6D706F6E656E74735C6C696272
:101B10007261726965735C71756575655C6E72661C
:101B20005F71756575652E630000000010B50400D7
:101B300004D109A140F2C910FFF732F90020FFF7E4
:101B40004BF820680021016041608160BDE81040D1
:101B50000846FFF76FB800002E2E5C2E2E5C2E2E4E
:101B60005C2E2E5C2E2E5C2E2E5C636F6D706F6E65
:101B7000656E74735C6C69627261726965735C71C5
:101B8000756575655C6E72665F71756575652E63EA
:101B90000000000010B5040004D108A140F2D710E5
:101BA000FFF7FEF80020FFF717F8204601F03DF898
:101BB00004460020FFF73EF8204610BD2E2E5C2E76
:101BC0002E5C2E2E5C2E2E5C2E2E5C2E2E5C636FD9
:101BD0006D706F6E656E74735C6C69627261726950
:101BE00065735C71756575655C6E72665F71756550
:101BF00075652E6300000000F8B50D46040004D1A1
:101C00002AA14FF4EA70FFF7CBF86069016821B1AF
:101C1000027B920703D40820F8BD8020F8BD097824
:101C200081B3001DFFF71EFE88B100200090681CE4
:101C30000FD06B462A462046A16901F047F90600FD
:101C400007D06069001DFFF73BFE3046F8BD11204C
:101C5000F8BD6069006840684068FFF7E1FE18B1B0
:101C60002046FFF743FC58B10026204601F024F936
:101C70009DF800000028ECD09DF8000018B108E0A5
:101C80000126F9E70FE06D1C03D0A0690068FEF79C
:101C900093FF6069001DFFF713FE26B99DF8000051
:101CA00008B10D20F8BD0020F8BD00002E2E5C2EDE
:101CB0002E5C2E2E5C2E2E5C2E2E5C2E2E5C636FE8
:101CC0006D706F6E656E74735C6C6962726172695F
:101CD00065735C73657269616C5C6E72665F736577
:101CE0007269616C2E63000070B588B015460E46AF
:101CF000040001D006B11DB93AA19920FFF750F8B0
:101D00006069006810B1852008B070BD287838B1CE
:101D1000686808B1A86818B932A1A320FFF740F895
:101D2000202231466846FEF761FB04942878022899
:101D300027D000208DF81D00287820B3384A694646
:101D40002046FFF77FFB0028DED1606905606868E8
:101D500040B14068FFF7EAFE6069006840680068CB
:101D6000FFF7E4FE60690830FFF754FD6069001D6D
:101D7000FFF750FD6169032008730098401C04D0F0
:101D800006E00120D6E70022D9E76069012101734E
:101D90000198401C60690DD000680078022818D0B6
:101DA0002178204A515C59B11FA14FF40D70FEF704
:101DB000F7FF09E0017B21F0010101730020A3E797
:101DC00004F10C0000F078FC6069006800780028DD
:101DD0009AD0606900688068427A41682046FFF7BF
:101DE00065FB91E72E2E5C2E2E5C2E2E5C2E2E5C3B
:101DF0002E2E5C2E2E5C636F6D706F6E656E74732D
:101E00005C6C69627261726965735C736572696149
:101E10006C5C6E72665F73657269616C2E63000044
:101E200025310000180000202E2E5C2E2E5C2E2E58
:101E30005C2E2E5C2E2E5C2E2E5C696E7465677295
:101E40006174696F6E5C6E7266785C6C6567616305
:101E5000795C6E72665F6472765F756172742E680B
:101E6000000000002DE9F8439946DDF82080164671
:101E70000F46040004D134A140F27D10FEF790FF1C
:101E800060690168E1B1017BC9071BD0002E58D001
:101E90000830FFF7E7FCB8B100200090B8F1FF3F31
:101EA00014D06B4642462046E16901F00FF8050068
:101EB0000CD060690830FFF703FD2846BDE8F883C1
:101EC0008020FBE70820F9E71120F7E735462A468E
:101ED0003946204600F05AFF2D1A074412D09DF8CB
:101EE0000000C8B160690068007858B12178254ABF
:101EF000515C19B1201D00F0B3FD03E004F10C00AA
:101F000000F0D0FBB9F1000F02D0711BC9F800102E
:101F10009DF8000020B10AE0204600F0CDFFD6E792
:101F2000B8F1FF3F03D0E0690068FEF745FE606945
:101F30000830FFF7C5FC25B19DF8000008B10D2061
:101F4000BCE70020BAE700002E2E5C2E2E5C2E2E61
:101F50005C2E2E5C2E2E5C2E2E5C636F6D706F6E71
:101F6000656E74735C6C69627261726965735C73CF
:101F7000657269616C5C6E72665F73657269616CD3
:101F80002E630000180000202DE9F8439946DDF883
:101F9000208017460D46060004D130A14FF49370FF
:101FA000FEF7FEFE7069016829B1027B920704D436
:101FB0000820BDE8F8838020FBE7EFB3012200246E
:101FC000B2EB557F02D00978022915D0001DFFF72A
:101FD00049FC98B10094B8F1FF3F11D06B464246DE
:101FE0003046B16900F072FF040009D07069001D2D
:101FF000FFF766FC2046DCE71020DAE71120D8E77F
:102000003C4622462946304600F0F8FE241A054494
:1020100006D0304600F050FF9DF800000028F0D0B8
:10202000B9F1000F02D0391BC9F800109DF800006B
:1020300040B9B8F1FF3F00E00EE003D0B06900689E
:10204000FEF7BAFD7069001DFFF73AFC24B19DF858
:10205000000008B10D20ACE70020AAE72E2E5C2E70
:102060002E5C2E2E5C2E2E5C2E2E5C2E2E5C636F34
:102070006D706F6E656E74735C6C696272617269AB
:1020800065735C73657269616C5C6E72665F7365C3
:102090007269616C2E6300004058002800D0012056
:1020A000704708B5002242504058009008BDD0F853
:1020B0000403084000D0012070474058002800D099
:1020C0000120704708B5002242504058009008BDDA
:1020D000084810B5007918B907A19520FEF760FEF1
:1020E00000F0E2F81249012008600249091F087057
:1020F00010BD0000280000202E2E5C2E2E5C2E2EFF
:102100005C2E2E5C2E2E5C2E2E5C6D6F64756C65C5
:10211000735C6E7266785C647269766572735C7308
:1021200072635C6E7266785F636C6F636B2E6300C4
:102130001805004010B5040003D108A17C20FEF76B
:102140002FFE144900200A790AB1852010BD012212
:102150000C600A7100224A7110BD00002E2E5C2E08
:102160002E5C2E2E5C2E2E5C2E2E5C2E2E5C6D6F29
:1021700064756C65735C6E7266785C6472697665B2
:1021800072735C7372635C6E7266785F636C6F63AC
:102190006B2E63002800002070B54FF48076304627
:1021A000FFF7C3F8114CB50560B13046FFF7C4F82E
:1021B0000120C5F80803607920B901206071216809
:1021C000002088474FF482763046FFF7AEF80028AB
:1021D0000AD03046FFF7B0F80220C5F8080321689E
:1021E000BDE870400120084770BD000028000020B5
:1021F00070B51348007918B912A1BF20FEF7D0FDC1
:102200004FF48270FFF798F802204107C1F80403E9
:102210001A4B196841F0807018601948026842F042
:102220000104046044684FF40A554668361BAE4208
:10223000FBD30260196013490120086070BD0000E3
:10224000280000202E2E5C2E2E5C2E2E5C2E2E5C66
:102250002E2E5C2E2E5C6D6F64756C65735C6E72D9
:1022600066785C647269766572735C7372635C6EC7
:102270007266785F636C6F636B2E6300FCED00E049
:10228000001000E008000040002802D00149800151
:1022900008477047313500000121B1EB507F01D173
:1022A000012070470020704707480068012110F0A6
:1022B000010F08D14FF0E020C02280F80024C0F8C0
:1022C0008012C0F80011704700E100E00748006884
:1022D000012110F0010F08D14FF0E020C02280F85A
:1022E0000024C0F88012C0F80011704700E100E03F
:1022F00070B5040003D10AA14620FEF751FD164D2A
:10230000287808B1852070BD2078144900F00100BC
:102310000860FFF7DBFF01202870002070BD00007F
:102320002E2E5C2E2E5C2E2E5C2E2E5C2E2E5C2EE7
:102330002E5C6D6F64756C65735C6E7266785C6440
:102340007269766572735C7372635C6E7266785FD5
:10235000706F7765722E63003000002078050040B2
:1023600070B54FF08040D0F804531A4C68070CD574
:102370004FF48470FFF7D4FA38B1606818B916A129
:10238000E020FEF70DFD60688047A8060DD54FF4EC
:102390008A70FFF7C5FA40B1A06818B90EA1E8200D
:1023A000FEF7FEFCA16800208847680610D54FF4B0
:1023B0008C70FFF7B5FA00280AD0A06818B906A1FA
:1023C000EF20FEF7EDFCA168BDE870400120084752
:1023D00070BD0000300000202E2E5C2E2E5C2E2EB4
:1023E0005C2E2E5C2E2E5C2E2E5C6D6F64756C65E3
:1023F000735C6E7266785C647269766572735C7326
:1024000072635C6E7266785F706F7765722E6300C0
:1024100070B50D46040003D10DA15120FEF7C0FC9C
:10242000204600F0C3FB04000FD00020FEF7D4FBD1
:10243000207920B10020FEF7FDFB112070BD0120A6
:10244000256020710020FEF7F5FB002070BD000024
:102450002E2E5C2E2E5C2E2E5C2E2E5C2E2E5C2EB6
:102460002E5C6D6F64756C65735C6E7266785C640F
:102470007269766572735C7372635C7072735C6EA2
:102480007266785F7072732E630000000149024823
:1024900000F0CABE80010020002000402DE9F0417C
:1024A00017460D00064603D11AA18420FEF778FCDA
:1024B0003079264A00EB400101EBC00102EB8104B8
:1024C00094F82A1011B10820BDE8F081204951F894
:1024D00020103068FFF79CFF08B11120F4E729466F
:1024E0003046FEF7E7FB6760286920601FB1297F4F
:1024F0003046FEF767FD30680421C0F80015002063
:10250000A061E06184F8290044F8140F0121A1754D
:10251000DAE700002E2E5C2E2E5C2E2E5C2E2E5C1A
:102520002E2E5C2E2E5C6D6F64756C65735C6E7206
:1025300066785C647269766572735C7372635C6EF4
:102540007266785F756172742E63000080010020EE
:10255000243500002DE9F05F054600790F4600EBB9
:10256000400101EBC0014048164600EB810494F89D
:102570002A00012804D03DA140F24310FEF710FCD0
:102580004FF4A27A1FB939A15046FEF709FC26B9CB
:1025900036A140F24510FEF703FC616800204FF4BD
:1025A000017811B12A68C2F80883A1694FF00009C7
:1025B00069B1E06938B1606810B12868C0F8048377
:1025C0001120BDE8F09F27610120E66105E0C4F815
:1025D0002490E760A661C4F81C9094F82910014388
:1025E00002D1284600F0C2FB60680028286803D0AA
:1025F000C0F804830020E4E756465146FFF751FD3A
:10260000B2464FF4927B59462868FFF745FD0646CF
:102610004FF484712868FFF73FFD804651462868D3
:10262000FFF73AFD074648EA07003043EBD056EA89
:10263000070007D12146286800F068FB616AA0699D
:102640008842E0D8C4F818900EB10320B9E70FB162
:102650000F20B6E794F8291001200029296801D03D
:102660000860C7E74860C5E7800100202E2E5C2E79
:102670002E5C2E2E5C2E2E5C2E2E5C2E2E5C6D6F14
:1026800064756C65735C6E7266785C64726976659D
:1026900072735C7372635C6E7266785F756172747C
:1026A0002E63000001684FF40172C1F8082300682E
:1026B000012141607047000070B5044600790C4D5F
:1026C00000EB400101EBC00005EB800090F8290011
:1026D00000280CD1204600F049FB2179012001EBB4
:1026E000410202EBC10105EB810181F8290070BDB7
:1026F000800100200068D0F80801002800D00120E7
:10270000704700002DE9F047054600790F4600EBC1
:10271000400101EBC0002D49164601EB800494F8FE
:102720002A00012803D02AA1EF20FEF739FB1FB9A8
:1027300027A1F020FEF734FB1EB925A1F120FEF7FA
:102740002FFB284600F060F810B11120BDE8F0879B
:102750004FF00008C4F82080A760666184F82880E4
:102760004FF48E76474631462868FFF79AFC286872
:102770004FF00109C0F808902146286800F0B4FC29
:10278000606808BBD5F800A00FE000BF94F82800EF
:1027900008B10F2716E031465046FFF77DFC0028B0
:1027A000F4D02146504600F09FFC216A60698142C6
:1027B000F1D331462868FFF76FFC0028F9D028686C
:1027C000C0F80C90C4F814803846BFE780010020A0
:1027D0002E2E5C2E2E5C2E2E5C2E2E5C2E2E5C2E33
:1027E0002E5C6D6F64756C65735C6E7266785C648C
:1027F0007269766572735C7372635C6E7266785F21
:10280000756172742E630000007900EB400101EBEA
:10281000C000044901EB80004069002800D001207D
:1028200070470000800100200149024800F0A8BD67
:10283000AC010020002000402DE9F04117460D00BA
:10284000064603D118A19620FEF7AAFA3079244A49
:1028500000EBC00102EB810494F8201011B10820B4
:10286000BDE8F0811F4951F820103068FFF7D0FD16
:1028700008B11120F4E729463046FEF756FA6760A2
:10288000286920601FB1297F3046FEF7EFFB3068D2
:102890000821C0F800150020A061E06101216061FD
:1028A00084F82010DCE700002E2E5C2E2E5C2E2EED
:1028B0005C2E2E5C2E2E5C2E2E5C6D6F64756C650E
:1028C000735C6E7266785C647269766572735C7351
:1028D00072635C6E7266785F75617274652E6300F8
:1028E000AC010020283500002DE9F05F0446007996
:1028F0000F46DFF830A100EBC0010AEB8105164658
:1029000095F82000012804D047A140F23110FEF7CD
:1029100047FA27B944A14FF49970FEF741FA26B956
:1029200041A140F23310FEF73BFA207908B9FF2E9F
:1029300004D93DA14FF49A70FEF732FA3846FFF7FA
:10294000ABFCB0B168684FF000084FF4047910B1E7
:102950002168C1F80893A8694FF0000B80B1E869BD
:1029600048B1686810B12068C0F804931120BDE830
:10297000F09F1020FBE72F614FF00108EE6102E0AD
:10298000EF60C5E9066B00254FF488712068FFF7FA
:1029900099FB4FF4A2712068FFF794FB2068C0F800
:1029A0003475C0F838652068B8F1000F12D0D0F83F
:1029B000001241F02001C0F800122079D04600EB4F
:1029C000C0010AEB8100406838B12168C1F8049366
:1029D0002846CCE701210160EFE74FF4887A4FF4F5
:1029E000A27951462068FFF768FB074649462068F0
:1029F000FFF763FB06464FF492712068FFF75DFB1B
:102A0000014647EA06000843EBD0227902EBC203F5
:102A100008EB8302C2F818B001B10325002ED7D00D
:102A20000F25D5E7AC0100202E2E5C2E2E5C2E2E1D
:102A30005C2E2E5C2E2E5C2E2E5C6D6F64756C658C
:102A4000735C6E7266785C647269766572735C73CF
:102A500072635C6E7266785F75617274652E630076
:102A600000680121416070470068D0F8100100281B
:102A700000D00120704700002DE9F04704460F46C2
:102A800000792D4900EBC00001EB8005164695F852
:102A90002000012803D029A1E720FEF781F91FB902
:102AA00026A1E820FEF77CF91EB924A1E920FEF753
:102AB00077F9207908B9FF2E03D920A1EA20FEF783
:102AC0006FF93846FFF7E8FB30B1204600F052F8C6
:102AD00020B11120BDE8F0871020FBE7AF606E61E8
:102AE0004FF49076002731462068FFF7EBFA4FF459
:102AF000AC7841462068FFF7E5FA2068AA68696962
:102B0000C0F84425C0F84815206801218160686834
:102B100078B9B14649462068FFF7CFFA06464146E4
:102B20002068FFF7CAFA0643F4D000B10F2700204F
:102B300068613846CEE70000AC0100202E2E5C2EE6
:102B40002E5C2E2E5C2E2E5C2E2E5C2E2E5C6D6F3F
:102B500064756C65735C6E7266785C6472697665C8
:102B600072735C7372635C6E7266785F75617274A7
:102B7000652E63000079054900EBC00001EB800081
:102B80004069002800D0012070470000AC010020FF
:102B9000EFF30580C005C00D01D001207047EFF3B1
:102BA000148040F30000401C704700000349884235
:102BB00001D103487047002070470000002000400A
:102BC0003C0000202DE9F041044600681746884685
:102BD00005684068854201D8461B02E0A068461B94
:102BE000761CE2686068B74205FB02010CD87A43A4
:102BF0004046FDF7FBFBA168E819884200D9002098
:102C000021680860BDE8F08102FB06F52A464046CF
:102C1000FDF7ECFBE268BE1B724308EB0500616840
:102C2000FDF7E4FB20680660ECE701680A68496884
:102C3000914201D3881A70478068801A0844401C6A
:102C400070472DE9F047164689460446FEF772FEA6
:102C500080462068A168426840688F1A6168E2680F
:102C60007F1C00FB0210BE420FD872434946FDF79D
:102C7000BDFB20684168A2683144914202D8416896
:102C8000314400E00021416018E002FB07F52A46CC
:102C90004946FDF7ABFBE268F71B7A4309EB0501F8
:102CA0006068FDF7A3FB20684760B04506D2206846
:102CB00041682046FEF7E4FE216808602046FFF7E1
:102CC000B4FF21688A68824200D28860BDE8F0873C
:102CD00070B5012670044FF0E0210025C1F8800195
:102CE000084C4010C4F84803C4F8080366602F205D
:102CF000FFF7CAFAA660044C2F20A560FFF7C4FABC
:102D0000A57070BD001001404400002070B505465C
:102D100088690C4600284FF4847128460AD0FFF7D2
:102D2000C0F9D5F81805626AE1688854606A401CE9
:102D3000606270BDFFF7B5F9D5F8180570BD1FB515
:102D400001238DF80030CDE90121D0E90012684659
:102D500090471FBD1FB501238DF800308DF8081076
:102D60000192D0E90012684690471FBD10B5044695
:102D700000684FF49271FFF794F94FF48471206862
:102D8000FFF78FF920680121016010BD2DE9F047A0
:102D90000446406989460068017831B14068494677
:102DA0000068BDE8F047FEF77DBEFF2A00D3FF2292
:102DB000164615460E4F04F10C0808E0012249465C
:102DC0002046FEF773FB78B909F101096D1E2178E1
:102DD000795C19B1201DFFF747FE02E04046FFF77E
:102DE00089FC08B1002DE9D1701BBDE8F087000017
:102DF0001800002001210170704700002DE9F0410A
:102E0000054640690068037863B1436884685E687A
:102E10003046FEF7BBFD07462846FEF767FB002855
:102E200025D10FE0FF2A00D3FF221446D2B2284654
:102E3000FEF74CFB18B10FA14320FDF7B1FF204670
:102E4000BDE8F081227A30462168FEF72BFE0600AD
:102E500003D108A15220FDF7A3FFF2B22846216852
:102E6000FEF734FB18B103A15420FDF799FF384653
:102E7000E6E700002E2E5C2E2E5C2E2E5C2E2E5CA5
:102E80002E2E5C2E2E5C636F6D706F6E656E74738C
:102E90005C6C69627261726965735C7365726961A9
:102EA0006C5C6E72665F73657269616C2E630000A4
:102EB00020BF40BF20BF70474069006801780029EB
:102EC00003D00069002800D00047704770B50E4657
:102ED000510CD0034FF4FA7280181D4641F10001E5
:102EE00052000023FDF742FA0446052803D20120D0
:102EF0002870002070BD074A00213046FDF7E0FD34
:102F00000028F7D12A4621463068BDE87040FDF719
:102F100013BE0000F52D00002DE9F84F1D4C0025D3
:102F20006846D4E901A6FEF725F8002738B3002348
:102F3000009A61681CE0D1F800C00846944503D9A6
:102F4000ACEB02020A6015E0A2EB0C0263440760DE
:102F5000D0F80CC0C1698146BCF1000F08D006EB67
:102F6000030828F07F48C0E9018CC9F81C500546C9
:102F70000029E0D128466160FEF7E2F803E0284628
:102F8000FEF7DEF810B15046FDF79EFFE770BDE892
:102F9000F88F0000440000200D4B10B5596831B186
:102FA00002680C68A24204D8A21A0A60C161586083
:102FB00010BD0B4603E00B46C969121B21B10C681A
:102FC0009442F8D3A41A0C600260C161D86110BDAC
:102FD000440000202DE9F041144E77683D462C4610
:102FE00003E0844204D02546E469002CF9D11BE0BB
:102FF000D4B1A5420BD1F869706040B90C490120E9
:1030000088600021B160F0702F20FFF73DF9216842
:10301000E069E86110B1026811440160706887429C
:1030200002D00120BDE8F0810020FBE74400002031
:1030300000100140F8B5064600240D462046FDF775
:10304000CBFD684600F016FA68B105700849466085
:103050009DF8000048700020FDF7ECFD1420FDF7FE
:10306000F3FA2046F8BD04240020FDF7E3FDF8E75D
:10307000F00100202DE9F041194D6C68002C2CD096
:10308000184800270068A968B846401A20F07F4613
:103090002068B0420CD82146361A0744E469087CFF
:1030A00020B181F81080886949698847002CEFD1E8
:1030B00029786878814206D1401CC0B26870022825
:1030C00001D185F80180064869780C3040F82170FC
:1030D000BDE8F0411420FDF7B7BABDE8F08100006B
:1030E000440000200415014070B50C4605464FF41D
:1030F0008E71FEF7D6FF216AA068415C206A401CF1
:103100002062C5F81C1570BD1FB500228DF8002087
:103110000291816801914261D0E9001268469047AE
:103120001FBD000070B5054600780C4638B3012875
:1031300003D0022840D102210BE060692A7A696835
:10314000006840680068FEF721FC297A814205D9B1
:1031500003212046BDE87040FDF72CBF0121204629
:10316000FDF728FF606900688068427A4168204660
:10317000FEF79CF900281FD010A1752018E06069A7
:1031800000684168856820464E680021FDF712FFFF
:103190002A7A30462968FEF785FC00280CD0C2B296
:1031A00020462968FEF792F9002805D003A18C205B
:1031B000BDE87040FDF7F4BD70BD00002E2E5C2E02
:1031C0002E5C2E2E5C2E2E5C2E2E5C2E2E5C636FC3
:1031D0006D706F6E656E74735C6C6962726172693A
:1031E00065735C73657269616C5C6E72665F736552
:1031F0007269616C2E6300001FB50A4601788DF874
:10320000001041680191017A8DF80810C0680390A0
:10321000044850F82210001F50F8222068469047BA
:103220001FBD0000200000202DE9FF470C46054689
:103230004FF40071FEF73BFF01274FF401780026A1
:1032400018B34FF4927949462846FEF725FFE0B1BE
:1032500049462846FEF725FFC5F8088394F829005B
:1032600000B96F6002208DF80000D5F88004C5F821
:1032700080040390A0690290E0680190A661E66175
:10328000D4E900126846904728E004212846FEF75A
:103290000EFF18B34FF484712846FEF7FDFEE8B127
:1032A00021462846FFF732FD616AA069884215D1A0
:1032B000E06938B1E268616AA0612069E66166622E
:1032C000E06008E094F8290000B96F60C5F8088351
:1032D000A661E268616A2046FFF731FD4FF48E78FF
:1032E00041462846FEF7D8FE78B1206A61698842D7
:1032F00002D294F8280020B341462846FEF7D1FEBA
:10330000616911B12046FFF7FFFE4FF4A2784146F4
:103310002846FEF7C1FE002818D041462846FEF791
:10332000C0FE94F8290000B12F60A06900280DD0DC
:10333000A661E268616A04B02046BDE8F047FFF785
:10334000FEBC21462846FFF7CFFEDEE7BDE8FF873B
:103350001FB50A4601788DF8001041680191017A85
:103360008DF80810C0680390044850F82210001F20
:1033700050F82220684690471FBD00002000002022
:103380002DE9FF410C464FF4927705463946FEF78A
:1033900094FE0026C0B139462846FEF793FE02206F
:1033A0008DF80000D5F88004C5F880040390D5F8A6
:1033B0003C058DF80800E0680190A661E661D4E95B
:1033C00000126846904723E04FF488773946284634
:1033D000FEF773FEE0B139462846FEF773FED5F8D6
:1033E0003C15A069884213D1E06960B1E268D5F864
:1033F000000220F02000C5F80002E069A061206909
:10340000E661E06001E0A661E2682046FFF7A2FC09
:103410004FF4A27739462846FEF74FFE60B1394691
:103420002846FEF74FFEA06930B1A661D5F83C15DD
:103430002046E268FFF78EFC4FF490773946284625
:10344000FEF73BFE002813D039462846FEF73AFE29
:10345000606900280CD0D5F84C058DF800608DF817
:103460000800A06801906661D4E9001268469047A0
:10347000BDE8FF810A494A788B78521CD2B2934248
:1034800000D100220B78934201D1002070470270D6
:10349000487800EB400001EBC000001D70470000C1
:1034A000F0010020060000000800000007000000F6
:1034B00005000000000000000100000000E0D7014E
:1034C0000600000001000000F83400000035000094
:1034D00000000000B12E00000000000000200040AD
:1034E000000000000020004000000000000100205B
:1034F000103500000C350000583500006C35000018
:1035000014000020150000200101000060000020D0
:1035100080000020111213140D0E0F100000000087
:10352000000000508D240000292800000000000049
:103530000338FDD8704700008035000000000020EF
:1035400060000000280A0000E03500006000002054
:10355000A0220000380A0000C4000020A0000020C3
:10356000200000000100000001000000F400002025
:10357000D000002020000000010000000100000039
:1035800048656C6C6F206E72665F73657269616C02
:10359000210A0D00000000000000000000000000F3
:1035A000000000000000000000000000000000001B
:1035B000000000000000000000000000000000000B
:1035C00000000000000000000000000000000000FB
:1035D0000000000000000000000000000090D00388
:0400000500000201F4
:00000001FF
