:020000040000FA
:1000000030480020110400001904000031020000F3
:100010001D0400001F040000210400000000000077
:1000200000000000000000000000000023040000A9
:10003000250400000000000027040000290400003F
:100040005D0B00002B040000A10E00002B0400003B
:100050002B0400002B040000810700002B0400008B
:100060002B0400002B0400002B0400002B040000D4
:100070002B0400002B0400002B0400002B040000C4
:100080002B0400006D0B00002B0400002B0400006B
:100090002B0400002B0400002B0400002B040000A4
:1000A0002B0400002B0400002B0400002B04000094
:1000B0002B0400002B0400000000000000000000E2
:1000C0002B0400002B0400002B0400002B04000074
:1000D0002B0400002B0400002B040000F90E00008C
:1000E0002B0400002B0400002B0400000000000083
:1000F000000000002B040000000000002B040000A2
:1001000000000000000000000000000000000000EF
:1001100000000000000000000000000000000000DF
:1001200000000000000000000000000000000000CF
:1001300000000000000000000000000000000000BF
:1001400000000000000000000000000000000000AF
:10015000000000000000000000000000000000009F
:10016000000000000000000000000000000000008F
:10017000000000000000000000000000000000007F
:10018000000000000000000000000000000000006F
:10019000000000000000000000000000000000005F
:1001A000000000000000000000000000000000004F
:1001B000000000000000000000000000000000003F
:1001C000000000000000000000000000000000002F
:1001D000000000000000000000000000000000001F
:1001E000000000000000000000000000000000000F
:1001F00000000000000000000000000000000000FF
:10020000DFF80CD000F070FA00480047D17E000003
:100210003048002000B583B002900091019244F272
:10022000010071466A4601F067F803B000BD0000A6
:10023000094B1EF0040F1CBFEFF309801847EFF3C2
:1002400008800649064A884201D8904202D88D4665
:100250004FF000001847000035090000304800202A
:100260003028002030B450E8012F93B2C4892344D1
:100270008489A34228BF1B1B0489A34202BFBFF38A
:100280002F8F002007E0C3EA020340E80134002C6E
:10029000E9D14FF001000A6030BC704750E8012FEF
:1002A000C2EA024240E801210029F7D1704730B488
:1002B00050E8022F1FFAA2F3C488A34202BFBFF383
:1002C0002F8F00200DE0C48923448489A34228BFD6
:1002D0001B1BC2EA034340E80234002CE8D14FF074
:1002E00001000A6030BC704750E8022FC2EA224287
:1002F00040E802210029F7D17047034653E8022F56
:10030000D988B2EB324F4FF0000017BF92B241EAEA
:10031000014142EA014104E05A68B2EB324F08BFA2
:10032000012043E80212002AE8D1704730B40446A5
:1003300054E8000F0D4644E80053002BF8D1156037
:1003400030BC704730B4044654E8000F40EA010561
:1003500044E80053002BF7D1156030BC704730B42F
:10036000044654E8000F00EA010544E80053002B5E
:10037000F7D1156030BC704730B4044654E8000F24
:1003800080EA010544E80053002BF7D1156030BC2A
:10039000704730B4044654E8000F00EB010544E810
:1003A0000053002BF7D1156030BC704730B40446C1
:1003B00054E8000FA0EB010544E80053002BF7D1EF
:1003C000156030BC704770B404464FF0000054E82C
:1003D000006F0D68AE4207BF44E80023012044E8E7
:1003E00000630E60002B1CBF0020F0E770BC70475C
:1003F00030B4044654E8000F88422CBF451A054625
:1004000044E80053002BF5D1156030BC7047000064
:100410000648804706480047FEE7FEE7FEE7FEE79E
:10042000FEE7FEE7FEE7FEE7FEE7FEE7C50C00009D
:100430000102000000487047741C0100A0F1410156
:10044000192900D8203070472DE9FE4399461546FA
:100450008846074601AC022942D3002D40D0002037
:100460000290A8F101004FF0FF36009022E000FB5F
:10047000057201FB057011464A469047002805DCCD
:1004800054F82600304444F8260013E060682A46F9
:1004900000FB057154F8040C00FB057007E00B78B5
:1004A00090F800C001F801CB00F8013B521E002A71
:1004B000F5D1764254F8040C61688842D7DC4B468B
:1004C0002A463846FFF7C0FF54F8040C4B46A8EB09
:1004D0000001401C00FB05702A46491EFFF7B4FFCF
:1004E000BDE8FE8310B5431A934209D283188818D9
:1004F00003E010F8011D03F8011D521EF9D210BDD2
:1005000040EA01039B0703D009E008C9121F08C095
:10051000042AFAD203E011F8013B00F8013B521E15
:10052000F9D210BDD2B201E000F8012B491EFBD276
:1005300070470022F6E710B513460A4604461946EE
:10054000FFF7F0FF204610BD30B505462A460B46A2
:1005500012F8010B13F8014B08B1A042F8D01CB1FE
:10056000002802D06D1CF1E7284630BDCAB2401EFB
:1005700010F8011F8A4202D00029F9D100207047EB
:10058000421C10F8011B0029FBD1801A704710B5DE
:10059000002200E0521C835C8C5CA34201D1002B42
:1005A000F8D1D8B2E1B2401A10BD034611F8012BC0
:1005B00000F8012B002AF9D11846704730B50546DE
:1005C0000020034600E05B1C934205D2EC5CC85C53
:1005D000201A01D1002CF6D130BD2DE9F04791460B
:1005E0000F4680460446002614F8015B2DB1FFF744
:1005F00021FF0068405DC007F6D12B2D02D02D2DC4
:1006000018D0641E4A463946204600F01EF827B12D
:100610003968A14201D1C7F8008071054FF002048A
:100620000BD54042002803DD00F0D0FD0460A00798
:10063000BDE8F08746F48066E4E70028F8DA00F0C9
:10064000C5FD04606FF00040F2E72DE9F05F8246DF
:100650000078002715468B460AF10104B946302878
:1006600001D09DB113E014F8010B0127782803D0C5
:10067000582801D045B10AE00DB1102D07D100274F
:10068000102514F8010B02E0082500E00A250026D9
:10069000B0460EE005FB080005FB06F1012701EB63
:1006A00010461FFA80F8B6F5803F00D3B94614F81B
:1006B000010B294600F02AF80028EBDABBF1000F05
:1006C00005D00FB1641E00E05446CBF80040B9F1EC
:1006D000000F06D000F07AFD02210160C81EBDE8BF
:1006E000F09F48EA0640FAE7064C074D06E0E0684E
:1006F00040F0010394E8070098471034AC42F6D369
:10070000FFF782FD943E0100B43E01003A2800D27A
:10071000303820F02002412A01D3A2F1370088426C
:1007200001D34FF0FF30704770B58C1810F8015BA3
:1007300015F0070301D110F8013B2A1106D110F87A
:10074000012B03E010F8016B01F8016B5B1EF9D17E
:100750002B0705D40023521E0DD401F8013BFAE704
:1007600010F8013BCB1A921C03E013F8015B01F86F
:10077000015B521EF9D5A142D8D3002070BD000004
:100780002DE9F04F00268DB0DFF8A081B146049628
:100790004FF4807501243746059628460AF00EFF6F
:1007A00038B1D8F80403204203D028460AF0FCFEF2
:1007B00026432D1D64007F1CADB2082FEDD34FF4EE
:1007C000BE7420460AF0FAFE48B120460AF0ECFE5C
:1007D00046F0004604AA022100200AF0AFFE544C65
:1007E00016F0FF0F15D00127002537420DD008EB7A
:1007F0008501D1F81005D1F81015C0F3052054F883
:100800002520C1F3014102B190477F006D1C082DE6
:10081000EBD3002E7EDA0020CDF82890411E0DF19A
:10082000100B07AACDF82C9042F82010401C9146DE
:100830000228F9D300252E46A11911F8607F91F9FD
:10084000000027F0C008401C40D007A9404608F02F
:100850000BF840B34FEA971A404602F09BFD54F85C
:1008600020701FB1BAF1030F03D006E0BAF1030FF5
:100870002CD10AA9404607F0FFFF02A8CDF8088056
:100880000AF0B8FD029900EB8100D0F8000704A936
:10089000C0F301400290404607F0E6FF00280298AE
:1008A00002D0022802D011E003280FD1BAF1030FC1
:1008B00008D10298022833D0022140460AF082FD76
:1008C0006D1CEDB217B151464046B847761C042E58
:1008D000B2D3002D21D001AA022100200AF02EFE61
:1008E00000205A460DF1040152F8206051F82030E2
:1008F000B34217D000200AAE4FEA090351F8207026
:1009000042F8207056F8207043F82070401C0228EE
:10091000F4D300E001E0002D8CD10DB0BDE8F08FE4
:100920000321CAE7401C0228DED3F6E7006000403E
:10093000CC1900201CB582460BF0C8FB0BF042F925
:100940000028FBD139485FEA0A05076839483A4967
:10095000374EA0EB01004FEAD0004FF0010808EB42
:10096000004470881ED0002821D0204633A1AA69F7
:100970000BF062FA7088002819D0D5E90201CDE9A0
:100980000001D5E90023204632A10BF06DFA7088F2
:1009900068B1E8690090D5E9042320463BA10BF03B
:1009A0005AFA04E018B1204642A10BF041FA1F4860
:1009B000001D0068800705D5708818B120464A4997
:1009C0000BF036FADFF82491002500BF08FA05F095
:1009D000384208D059F825202AB1708818B120462D
:1009E00043A10BF029FA6D1C1A2DEFD3380608D558
:1009F000708830B10D480C30026820463FA10BF0E2
:100A00001BFA380408D5708830B1084810300268E5
:100A1000204642A10BF010FA0448C8300068C00715
:100A200000D000BE504600F087F8000028ED00E03E
:100A3000B00400208C400100AC3F0100484152440A
:100A4000204641554C542061742030782530385868
:100A500000000000202052303A2020307825303825
:100A600058202052313A2020307825303858202024
:100A700052323A2020307825303858202052333AEC
:100A800020203078253038580000000020205231D6
:100A9000323A2030782530385820204C523A2020E5
:100AA00030782530385820205053523A203078255D
:100AB00030385800537461636B2076696F6C6174D1
:100AC000696F6E3A20737461636B20706F696E7426
:100AD0006572206F75747369646520737461636BEC
:100AE00020617265612E000014290100800200203F
:100AF00043617573653A2025732E00004D656D4D79
:100B0000616E616765204661756C74204164647232
:100B10006573733A20307825303858004275732059
:100B20004661756C7420416464726573733A203059
:100B30007825303858000000BFF34F8F0548016812
:100B4000054A01F4E06111430160BFF34F8F00BF1C
:100B5000FDE700000CED00E00400FA0510B50DF013
:100B600015F9BDE810400DF037B800000249024801
:100B7000091F09680068084734020020044900EB97
:100B8000400001EBC000416D806D081A7047000005
:100B9000A425002000F064BA70B5064614460D4640
:100BA000002001F0A1FD22462946304600F006F85B
:100BB0000446002001F0C6FD204670BD2DE9F04737
:100BC0001B4D0746164628780C4608B900F048FA2F
:100BD00007EB470005EBC007A046D7E915950024B1
:100BE00048374D4511D9B868441BB44200D3344648
:100BF0007868224641194046FFF774FCB868361BF6
:100C00002544A044A84200D10025A9EB0500B0422C
:100C100000D206463EB17868324641194046FFF799
:100C200061FC3444354404B13D612046BDE8F087A1
:100C3000A425002070B50B4B0646144618780D46C7
:100C400008B900F00DFA002001F04EFD22462946B9
:100C5000304600F009F80446002001F073FD2046FC
:100C600070BD0000A425002070B50E46144900EBAD
:100C7000400001EBC0051446E86A183520B1012890
:100C80000FD0022805D113E0284600F01DFAA0423B
:100C900001D2002411E022463146284600F061FAD4
:100CA0000BE0284600F010FAA042F4D20446F2E726
:100CB0003146284600F028FA0446204670BD000060
:100CC000A425002030B54FF0805000228300D0F8DA
:100CD0003011C3F80C21C3F81021624B1A60624B2B
:100CE0001B68624C2360604B1B1D1B68241D236026
:100CF0005D4B08331B68241D23605B4B0C331B6862
:100D0000241D2360584B10331B68241D2360564B51
:100D100014331B68241D2360534B18331B68534C3A
:100D200020342360504B1C331B68241D23604E4B22
:100D300020331B68241D23604B4B24331B68241D68
:100D40002360494B28331B68241D2360464B2C33FA
:100D50001B68241D2360444B30331B68434C4034D4
:100D60002360414B34331B68241D23603E4B3833D2
:100D70001B68241D23603C4B3C331B68241D2360EF
:100D8000394B40331B68241D23600124082902D1FC
:100D9000D0F8343113B1082904D006E0354B34497A
:100DA000196005E0D0F8343113B1082904D006E009
:100DB000314BFB21196005E0D0F8343113B108291B
:100DC00008D00EE090F858322C48016863F3030114
:100DD000016002E0D0F834311BB929494FF40070AA
:100DE000086028480168C90702D06FF0010101605E
:100DF0002548016841F470010160BFF34F8FBFF3D4
:100E00006F8F4FF01021D1F80002002803DBD1F8DA
:100E10000402002822DA1D4B1C601D480468002CC7
:100E2000FCD01224C1F800420568002DFCD0C1F8A6
:100E3000044201680029FCD01A6001680029FCD036
:100E4000BFF34F8F10487C380168124A01F4E0610B
:100E500011430160BFF34F8F00BFFDE70F490E48FC
:100E6000086030BD380500400404001020C5004073
:100E7000488103008C56004018F50040E40E004005
:100E8000409602400004004088ED00E004E5014087
:100E900000E401400400FA050090D003C4030020E0
:100EA00010B5054C206818B904A12B2001F000FDF5
:100EB0002068BDE810400047B00100202E2E5C2EB7
:100EC0002E5C2E2E5C2E2E5C2E2E5C2E2E5C6D6FDC
:100ED00064756C65735C6E7266785C647269766565
:100EE00072735C7372635C7072735C6E7266785F4F
:100EF0007072732E630000002DE9F05F5448D0F843
:100F0000045300242E464FF0010913E096FAA6F090
:100F1000B0FA80F7B80000F5807080460CF05EFDF6
:100F200028B140460CF062FD09FA07F0044309FAC3
:100F300007F08643002EE9D109F02EFA002869D087
:100F4000444AD078F0BBA00264D5434940F2A97866
:100F5000C1F80080081D036813F0FF0C02D003687D
:100F600003EA0C0C40F2AA7AC1F800A0036813F05F
:100F7000FF0301D00668334040F2AB7BC1F800B0FC
:100F8000066816F0FF0601D007683E4040F2AC77D5
:100F90000F60076817EA0C0709D0D2F810C04CEAB6
:100FA000070CC2F810C0C1F800800760076840F263
:100FB000AD770F6007681F4009D0136943EA074304
:100FC000136100E026E0C1F800A00760036840F26A
:100FD000AE730B60036833400BD0DE0701D044F4DE
:100FE0000004DE0601D544F00104C1F800B003603E
:100FF0000068106930F0011102D005F080710C43D7
:1010000010F0011F06D0690504D520F0011044F44A
:1010100080641061C4F3C05624F400044F46DFF826
:101020003C8009E094FAA4F0B0FA80F558F8250065
:10103000804707FA05F08443002CF3D10FF016FC2B
:10104000002E03D0BDE8F05F05F02CBBBDE8F09F9B
:10105000007002408001002000780240A8120100C8
:1010600010B5124C02202061606111A0A06104F152
:101070007800E0614FF4007020620020A06260629E
:101080000BA1A164E06204F51E71E1641021A0656A
:10109000C4E91410E06509A1E01DFFF786FA08A174
:1010A0002046FFF782FA2020A07110BDA425002061
:1010B0005465726D696E616C0000000052545400FA
:1010C00053454747455200000269C1688A4203D828
:1010D0008068401A104400E0501A401E704700001B
:1010E000C11700EBD161074B4A1153F8222021F0C0
:1010F0001F01411A01208840024201D0012070479F
:101100000020704700E100E02DE9F047C468174671
:10111000894606464FF000083069A04201D9051BF8
:1011200002E0B168201A0D1AB0686D1E001BA842BB
:1011300000D80546BD4200D33D4670682A4620448B
:101140004946FFF7CFF9B0687F1B2C44A844A94457
:10115000A04200D10024F460002FDDD14046BDE85C
:10116000F0872DE9F04104468846D4E90207C51B03
:10117000E168606816460844B54206D94146FFF763
:10118000B1F9B819E060BDE8F0812A464146FFF7A1
:10119000A9F9761B08EB050132466068FFF7A2F952
:1011A000E660F0E70FB4084B10B504A902AA039853
:1011B00000F01FF8044602A9002000F085F8204640
:1011C00010BC5DF814FB0000C91200000048704715
:1011D000C803002002E008C8121F08C1002AFAD183
:1011E00070477047002001E001C1121F002AFBD1A7
:1011F00070472DE9F84F99469246884605460027E4
:1012000006E025280AD051464A4690476D1C7F1CAF
:1012100028780028F5D13846BDE8F88F002315F866
:10122000011F18462E2915D115F8011F04232A295C
:101230000DD06FF02F022978A1F13004092C09D8C4
:1012400000EB800002EB400008446D1CF3E758F807
:10125000040B6D1C2A78002ADDD0632A07D0732A7C
:101260000FD0104651464A4690477F1C2AE018F896
:10127000042B8DF8002000218DF801106E4601210D
:1012800003E058F8046B4FF0FF315A074FF00004A9
:1012900001D409E0641C84420BDA8C42FADB325D33
:1012A000002AF7D105E0641C8C42FCDB305D00288D
:1012B000F9D1274404E016F8010B51464A469047FD
:1012C000641EF8D26D1CA3E70A68531C0B601070F3
:1012D0007047800701D00020704701207047C36825
:1012E0008B4206D811440069491E814201D8012071
:1012F00070470020704700002DE9FE4314460F465A
:10130000804672B60AF0E2FE0AF05CFC0028FBD1CF
:101310002448254A6FF48041A0EB0200204E4FEA9A
:10132000D0004FF0010218EB010102EB00451ED086
:101330007088012912D020B128463A461BA10AF034
:101340007BFD20480068C00700D000BE224603B0E5
:1013500039464046BDE8F04300F062B80028F0D0BE
:101360002388284618A162680AF06DFDE9E77088B5
:101370000028E6D0A0680CF057F90346D4E9000134
:10138000CDE900100297284616A1A2680AF076FD62
:1013900070880028D5D028461CA10AF049FDD0E766
:1013A000D4040020D4400100AC3F0100554E4B4E08
:1013B0004F574E204641554C5420617420307825BB
:1013C00030385800F0ED00E0415353455254494F36
:1013D0004E204641494C45442061742025733A25EE
:1013E000750000004552524F52202575205B257331
:1013F0005D2061742025733A25750D0A50432061E4
:10140000743A20307825303878000000456E64202A
:101410006F66206572726F72207265706F727400F1
:1014200008B501238DF800309DF80030144B18608A
:1014300059609A606FF48041401807D001280FD19D
:10144000DA60D86800889861D86807E01A6118697E
:101450008068586118690068986118694068D861A7
:10146000186858689868D868186958699869D86978
:1014700072B600BF9DF800000028FBD162B608BD1F
:10148000881A0020014804F068BD0000C001002057
:1014900070B514460E46050004D10B4940F2C91040
:1014A00001F006FA3CB12868012EC4600AD0002180
:1014B0008160002070BD04494FF4E57001F0F8F937
:1014C000072070BD0121F3E71026010038B50E4852
:1014D00008235822416800910C49006806F0BBFFC0
:1014E00000280FD10A4A69460A4804F03BFD04006F
:1014F00008D10121074804F012FE064901200839ED
:101500000870204638BD000054130100A81A0020BE
:10151000D9F10000C001002070B516460D46040048
:1015200004D10E4940F2D91001F0C2F9B5F5350FDA
:1015300001D3072070BD207E08B1002070BD08488F
:10154000266104F00AFD28446060A06800B1A5602F
:101550002146BDE8704000200EF084BD1026010039
:10156000C001002010B5040004D106494FF4FA7000
:1015700001F09EF9002021462076BDE810400120B0
:101580000EF070BD1026010070B50546064844688F
:1015900007E02946204602F077F8204600F02AFAB4
:1015A0000446002CF5D170BDE001002070B50A485A
:1015B00045680EE02E7A002405E02146284600F01A
:1015C0005DFE641CE4B2B442F7D3284600F012FA80
:1015D0000546002DEED170BDE00100202DE9F0415F
:1015E0000E4840F24477456814E02E7A00240BE060
:1015F00000222146284600F0A5FE18B108A1384671
:1016000001F056F9641CE4B2B442F1D3284600F06C
:10161000F1F90546002DE8D1BDE8F081E001002098
:101620002E2E5C2E2E5C2E2E5C2E2E5C2E2E5C2EF4
:101630002E5C636F6D706F6E656E74735C6C696247
:101640007261726965735C757362645C6170705F0E
:10165000757362642E63000070B50646094806255E
:1016600044680AE03146204602F00EF80546062896
:1016700005D1204600F0BEF90446002CF2D12846E0
:1016800070BD0000E00100202DE9FC4115460F006F
:10169000064604D11E4940F2F93001F009F93046FE
:1016A00001F0B4F90446007DC00715D0002001F018
:1016B0001BF8E06E98B1A84200D805462A46384685
:1016C000A16EFEF70FFFE06E401BE066A06E65673F
:1016D0002844A066002405E00820BDE8FC81A0693C
:1016E00028B11124002001F02DF82046F5E7C4E9C7
:1016F0000675304604F0D7FB06498969CDE9001428
:10170000694600F0BFFB0400ECD19224EAE7000038
:101710009C260100BC13010010B501F077F9406F61
:1017200010BD0000FEB515460E46044601F06EF9E8
:10173000007D10F0010F0CD0204604F0ABFBA90691
:1017400009D000210096CDE90151694600F0E6FB81
:10175000FEBD0820FEBD0149896AF3E7BC13010004
:10176000F8B5040004D138A140F2445001F0A0F8CB
:10177000606820B934A140F2455001F099F86068E2
:10178000006820B930A140F2465001F091F820687D
:10179000006820B12CA140F2475001F089F808F010
:1017A000DFFF10B908F0E6FF20B927A140F24B5047
:1017B00001F07EF800250FE0002705E0007800F03A
:1017C00075FB08B11120F8BD3946781CC7B2304608
:1017D00000F0C0F80028F1D12946681CC5B22046A7
:1017E00000F0E0F80600E7D100250DE0002703E057
:1017F0000078214600F060FB3946781CC7B23046BD
:1018000000F0A8F80028F3D12946681CC5B220468C
:1018100000F0C8F80600E9D1194D40F2715607E012
:10182000A04203D108A1304601F042F828680568BB
:1018300028680028F4D113482C606946806900901C
:10184000204601F021FFF8BD2E2E5C2E2E5C2E2EA0
:101850005C2E2E5C2E2E5C2E2E5C636F6D706F6E78
:10186000656E74735C6C69627261726965735C75D4
:101870007362645C6170705F757362642E630000F4
:10188000E4010020681301002DE9F04F87B04FF00C
:1018900000081D46934689460446DDF840A04646AA
:1018A000CDF80C8000E0761C6068012300224768B8
:1018B000214603A8B8470028F5D140468DF800809E
:1018C0000027B84601903BE0606801236A46D0F8E3
:1018D00004C0214601A8E0476068012305AAD0F8AA
:1018E00004C0214601A8E0479DF8141049451AD1CB
:1018F000D84514D19DF80000CAF8000005F8010B86
:101900006A1C85F8009060689DF8003021464568A3
:1019100001A89B1EA847002007B0BDE8F08F08F182
:10192000010000F0FF0860689DF800300022D0F848
:1019300004C0214601A89B1EE0479DF80000074413
:10194000B742C1D30520E7E701484068704700006F
:10195000E001002070B50D46040004D1064940F2B4
:101960001D1000F0A5FF6078A84201D8002070BDCE
:10197000A0782044284470BD5826010070B50D465B
:10198000040004D1064940F21D1000F091FF607878
:10199000A84201D8002070BDA0782044284470BD22
:1019A0005826010070B50D46040003D10649EA200F
:1019B00000F07EFF207AA84201D8002070BD05EB20
:1019C00045000934204470BD5826010070B50D460D
:1019D000040003D10649EA2000F06AFF207AA842F9
:1019E00001D8002070BD05EB45000934204470BDCE
:1019F0005826010010B5040004D1044940F21D200E
:101A000000F056FF2068006810BD0000E4210000CF
:101A100010B5040004D104A140F21D2000F048FFDD
:101A20002068006810BD00002E2E5C2E2E5C2E2E2D
:101A30005C2E2E5C2E2E5C2E2E5C636F6D706F6E96
:101A4000656E74735C6C69627261726965735C75F2
:101A50007362645C6170705F757362642E6800000D
:101A600002484078002800D001207047E0010020A3
:101A700010B5002000F0F2F9BDE81040802000F021
:101A8000EDB910B5002000F0EBF9BDE81040802062
:101A900000F0E6B92DE9F041494E0D4602460978BD
:101AA000062430780B2934D009DC4FF001070729D0
:101AB0006DD2DFE801F06C0D0F116C2951000C297B
:101AC0002FD00D2936D00E293DD085295FD115E0C4
:101AD000032016E000245AE03948001D06F0FDFC02
:101AE00028B138480760BFF36F8FBFF34F8F30784E
:101AF0000028EFD134A140F211400FE0032846D175
:101B000004200EF0B9FD42E0104600F097F80446BC
:101B10003DE00028DED02CA140F2254000F0C8FEB8
:101B2000D8E7012804D028A140F22B4000F0C0FEE5
:101B3000002005E03348006810F0010F0AD00220B1
:101B40000EF09AFDC6E7022804D21FA140F23F40E2
:101B500000F0AEFE0120F3E7E878032817D0A8785C
:101B600030B1802804D018A140F24D4000F0A0FE12
:101B70001349E87808310A6832B100230B604968DC
:101B80009047040006D000E00E2408F07DFE2046B9
:101B9000BDE8F0810EF068FD28B1A8780028F6D1E4
:101BA00008F035FEF3E74FF08050D0F830110829E7
:101BB00003D1D0F834010028E9D008F025FEE6E78B
:101BC000040200205C7002402E2E5C2E2E5C2E2E15
:101BD0005C2E2E5C2E2E5C2E2E5C636F6D706F6EF5
:101BE000656E74735C6C69627261726965735C7551
:101BF0007362645C6170705F757362645F636F725F
:101C0000652E630038040040024A0146D2E9000212
:101C100010470000481B002070B50C46054608F030
:101C2000EDFDA84201D0102070BD0348D4E9001298
:101C3000C0E90212002070BD040200207FB50546F5
:101C400005208DF8000006240DF1010008F0F4FDD8
:101C50000EF00AFD2949002008609DF8010010F0EF
:101C60001F0006D001280FD0022826D0032833D128
:101C700006E0694628460DF027FD044606282AD1CD
:101C80006846FFF7E9FC25E09DF8050003A900F090
:101C900035FB050008D06A469DF80C1000F0EAFA02
:101CA0000446062802D016E0102415E06A469DF886
:101CB0000C1028460DF05AFE0CE09DF805000107B7
:101CC00005D0694600F080F80446062803D168462E
:101CD0000DF09CFD044624B108F0D6FD04B020466A
:101CE00070BD0EF0C1FC30B108F088FD0028F5D1C0
:101CF00008F08DFDF2E708F087FDEFE70C02002009
:101D0000FEB5C08814460E46A04201D2054600E04A
:101D10001546844207D2802008F068F9B4FBF0F140
:101D200000FB114068B100200096CDE90150002071
:101D300000F0DAFC6946802000F0F0F8040002D0E0
:101D400006E00120F0E705498020FFF765FF044623
:101D5000002000F0F7FC2046FEBD0000F813010053
:101D600008B1402101600148704700009C1B002021
:101D700010B508F007FD20B104A140F2AB3000F02F
:101D800097FDBDE8104007F027BF00002E2E5C2E07
:101D90002E5C2E2E5C2E2E5C2E2E5C2E2E5C636F07
:101DA0006D706F6E656E74735C6C6962726172697E
:101DB00065735C757362645C6170705F7573626497
:101DC0002E63000007F066BF10B50C46010600F058
:101DD0000F02092A08D200F009F8006820B1214654
:101DE000BDE8104001F050BC102010BD10B5010638
:101DF00000F00F0408D5092C04D309A14FF4B970E1
:101E000000F056FD144808E0092C04D304A14FF457
:101E1000BC7000F04DFD1048483000EBC40010BD10
:101E20002E2E5C2E2E5C2E2E5C2E2E5C2E2E5C2EEC
:101E30002E5C636F6D706F6E656E74735C6C69623F
:101E40007261726965735C757362645C6170705F06
:101E5000757362642E630000001B002007F0BEBF94
:101E600010B5044600F00F00082805D2204607F000
:101E7000E5FF204608F03EF92046BDE8104008F096
:101E800001B8000070B50C46054608F04BF818B1D3
:101E900005480078022801D0082070BD2146284658
:101EA000BDE8704008F046B8E001002010B5FFF72B
:101EB0009DFF006810BD000070B50D460646FFF797
:101EC00095FF0446056015B16868006808E00EB12A
:101ED000802E04D103A14FF4CE7000F0E9FC002065
:101EE000606070BD2E2E5C2E2E5C2E2E5C2E2E5C25
:101EF0002E2E5C2E2E5C636F6D706F6E656E74732C
:101F00005C6C69627261726965735C757362645C52
:101F10006170705F757362642E63000070B50C466B
:101F2000054607F0FFFF18B105480078022801D0E8
:101F3000082070BD21462846BDE8704008F076B9FB
:101F4000E0010020017805290BD107490968064AFC
:101F5000C9B2121F126812F0FF0F02D1052900D179
:101F60000248034909680847847402408613010047
:101F7000901B002070B58A4C0546606820B989A185
:101F800040F2FF3000F094FC03F0D0FD062804D2AC
:101F900084A140F2064000F08BFC2878092876D016
:101FA00007DC18D2DFE800F07494C39DB0CCD117E1
:101FB000F40082282DD008DC0A28F0D00F28EED0BB
:101FC000802841D0812806D10CE0832847D084287E
:101FD0004ED0852872D0BDE8704072A14FF4A06049
:101FE00000F066BC7D48FFF70FFE7C48FFF7CCFA97
:101FF0000D200EF035FEFFF7D9FAFFF739FDA06886
:1020000010B97748007A00B1012008F041FC0120A6
:1020100089E0FFF7CBFA08F091FC00200DF058FEA4
:102020006E48401CFFF7B0FA6C48401CFFF7ECFD0F
:102030000E200EF015FE207800F03CFB002846D064
:10204000BDE8704007F0C6BB2078052803D00628FD
:1020500003D007283BD1022065E0082063E0207808
:10206000032834D108F0B4FC002830D004205AE012
:102070002078032805D108F0ABFC10B104200DF046
:1020800027FE08F077FD002821D006204BE080E0F5
:102090002078032801D0082803D15048801CFFF77E
:1020A00069FF00200EF0DCFDA46840F239260CE048
:1020B0002946204601F0E8FA2CB900E040E049A1A9
:1020C000304600F0F5FB20684468002CF0D170BD6C
:1020D000FFF76CFAFFF7D5FC02200DF0F9FD0120A7
:1020E00006E02078082809D005200DF0F1FD032036
:1020F0000EF0B6FD2846FFF787FD4CE002200DF0FC
:10210000E7FD08F0B3FAF2E703200EF0A9FD33482B
:10211000C01CFFF779FD3148C01CFFF735FA207865
:10212000062898D10720BDE870400DF0D1BD0320EE
:102130000DF0CEFD02200EF093FD2846FFF724FAA5
:102140002846BDE87040FFF75FBDA878FFF74EFE58
:102150000446006820B913A140F2DC4000F0A8FB5F
:10216000606820B90FA140F2DD4000F0A1FBD4E986
:102170000002294690470028A9D0A8780107A6D0D8
:1021800000F00F010829A2D2BDE8704007F080BF1F
:1021900008200EF065FD2846BDE87040FFF7F4B951
:1021A000E00100202E2E5C2E2E5C2E2E5C2E2E5C4E
:1021B0002E2E5C2E2E5C636F6D706F6E656E747369
:1021C0005C6C69627261726965735C757362645C90
:1021D0006170705F757362642E6300007913010093
:1021E000901B00202E2E5C2E2E5C2E2E5C2E2E5C44
:1021F0002E2E5C2E2E5C636F6D706F6E656E747329
:102200005C6C69627261726965735C757362645C4F
:102210006170705F757362642E680000FFF792BE94
:1022200010B520B104A140F2552000F041FBBDE8FB
:1022300010400F48FFF786BE2E2E5C2E2E5C2E2EF1
:102240005C2E2E5C2E2E5C2E2E5C636F6D706F6E7E
:10225000656E74735C6C69627261726965735C75DA
:102260007362645C6170705F757362642E630000FA
:1022700068130100114601F007BA000070B504466A
:1022800040680D46C2680AB120469047207AA842AD
:1022900004D20CA140F2F22000F00AFB29462046AD
:1022A000FFF780FB05464678002408E021462846D3
:1022B000FFF750FB007807F091FD641CE4B2B442D4
:1022C000F4D370BD2E2E5C2E2E5C2E2E5C2E2E5C3A
:1022D0002E2E5C2E2E5C636F6D706F6E656E747348
:1022E0005C6C69627261726965735C757362645C6F
:1022F0006170705F757362642E6300002DE9F041B8
:1023000080460F480E46456816E02F7A00240DE0FF
:1023100021462846FFF746FB0178414504D106B126
:1023200034702846BDE8F081641CE4B2BC42EFD3AF
:102330002846FFF75FFB0546002DE6D10020F1E7B8
:10234000E001002070B50446406815460E468368DB
:102350001BB120469847062809D1207AB04204D202
:102360000E4940F2D32000F0A3FA0DB1072070BD52
:1023700031462046FFF716FB05464678002408E064
:1023800021462846FFF7E6FA0078FFF769FD641C4E
:10239000E4B2B442F4D3002070BD0000C4220000B7
:1023A000034600205A681269002A01D018461047D7
:1023B000704700002DE9F843044607F0B9FA20B948
:1023C0002FA140F20B3000F073FA3B4808F054F9AB
:1023D000002850D139490870486088604821384841
:1023E000FEF7A7F8364848214830FEF7A2F83448EF
:1023F000344D80304CB194E80E00103080E80E006F
:102400002F489030016821B105E005F134010EC973
:10241000F3E72D490160002007F0E0FA30B185288C
:1024200004D017A240F23931FDF7F4FE274E002404
:102430000DE0002703E000783146FFF73DFD394607
:10244000781CC7B24046FFF785FA0028F3D1214631
:10245000641CE4B23046FFF7A5FA5FEA0008E8D151
:10246000686800906946304601F00EF9040004D017
:1024700008F072FB2046BDE8F8830020FBE700006F
:102480002E2E5C2E2E5C2E2E5C2E2E5C2E2E5C2E86
:102490002E5C636F6D706F6E656E74735C6C6962D9
:1024A0007261726965735C757362645C6170705FA0
:1024B000757362642E6300001D220000E00100209D
:1024C000001B002068130100751F00003814010074
:1024D00040B1012808D0022809D007A14FF40F709D
:1024E00000F0E6B9124804E01148001D01E0104870
:1024F0000830FFF727BD00002E2E5C2E2E5C2E2EFE
:102500005C2E2E5C2E2E5C2E2E5C636F6D706F6EBB
:10251000656E74735C6C69627261726965735C7517
:102520007362645C6170705F757362642E63000037
:102530008A13010010B508F01DF910B108F010F968
:1025400008B1082010BD054807F05CFA20B104A2CC
:102550004FF46771FDF75EFE002010BD9813010077
:102560002E2E5C2E2E5C2E2E5C2E2E5C2E2E5C2EA5
:102570002E5C636F6D706F6E656E74735C6C6962F8
:102580007261726965735C757362645C6170705FBF
:10259000757362642E6300002DE9F0410D46164903
:1025A00001EB800757F82500017849B10020FFF7BB
:1025B000D7FB57F8255006460024287848B911E083
:1025C000801CBDE8F0811F2C03D30C49C02000F013
:1025D0006FF9641CE4B215F8010B26F81400287892
:1025E0000028F0D1022000EB4400C0B240F440705B
:1025F00030803046E5E7000014020020EC260100A0
:1026000010B508F0ADF820B909A140F2B23000F0E1
:102610004FF915480168C1F3400121B1BDE81040F0
:102620001248FFF78FBC016811F0010FF2D110BD05
:102630002E2E5C2E2E5C2E2E5C2E2E5C2E2E5C2ED4
:102640002E5C636F6D706F6E656E74735C6C696227
:102650007261726965735C757362645C6170705FEE
:10266000757362642E630000380400406D1301002E
:10267000034808B5806800906846FFF763FC08BD12
:10268000681301004FF0000150B106280BD2074A31
:10269000105C002808D0064A52F820201AB100E049
:1026A0000020FFF779BF002070470000A014010050
:1026B00014020020092808D2DFE800F00707050708
:1026C000070505050500012070470020704709280F
:1026D00008D2DFE800F0070705070707070705002E
:1026E000012070470020704710B50CF0CBFA01288C
:1026F00003D004A11D2000F0DBF8BDE8104000F07D
:102700004FB800002E2E5C2E2E5C2E2E5C2E2E5CE2
:102710002E2E5C2E2E5C636F6D706F6E656E747303
:102720005C6C69627261726965735C7574696C5C1A
:102730006170705F7574696C5F706C6174666F72E4
:102740006D2E630010B50CF09DFA012803D004A192
:102750002B2000F0ADF8BDE8104000F029B80000D3
:102760002E2E5C2E2E5C2E2E5C2E2E5C2E2E5C2EA3
:102770002E5C636F6D706F6E656E74735C6C6962F6
:102780007261726965735C7574696C5C6170705FAD
:102790007574696C5F706C6174666F726D2E630026
:1027A00072B602480168491C016070472C02002083
:1027B00003490868401E086000D162B670470000F7
:1027C0002C02002070B5054608680C46411C04D058
:1027D00008F0A0FE206808F0E1FD6068411C02D00E
:1027E000002108F0C9FD2968A069C1F82405607DB1
:1027F000227D29681043C1F86C05D4E900122868CD
:10280000C0F81425C0F80C15207D012814D1A0684B
:10281000411C02D0002108F0AFFDE068411C04D04B
:1028200008F078FEE06808F0B9FDD4E902122868E3
:10283000C0F80825C0F8101570BD70B505460868C9
:102840000C46411C04D008F06FFE206808F0B0FD73
:102850006068411C02D0002108F097FD2968A0693A
:10286000C1F82405607D217D2A680843C2F86C0503
:10287000D4E900122868C0F80C15C0F81425207D92
:10288000012814D1A068411C02D0002108F07DFD70
:10289000E068411C04D008F047FEE06808F088FDBD
:1028A000D4E902122868C0F80825C0F8101570BDD8
:1028B0001CB56A46ADF800000191002144F2020007
:1028C000FEF71AFD1CBD0000F0B500220D4BCA60DA
:1028D000C1E901230C4B0D4D1446EE1A0A600CE0C1
:1028E00003EB0215EF683F79FF2F05D0A04202D11C
:1028F000A8680860F0BD641C521CB2EB161FEFD331
:10290000F0BD0000801A01004C3F0100AC3F010007
:10291000102802D31038C0B2704740F080007047D2
:102920002DE9F0470546C61C90460F464FF00109B9
:102930000020FFF7D9FE1B4C20683860D4E9000165
:10294000401AA16804F21C47081A0EE0012138461B
:1029500005F0CCFD05F0C6F90146384605F0C6FD88
:10296000D4E90001401AA168081A401C8642EDD83B
:10297000B8F1000F03D0052065F3891002E00620AE
:1029800065F39F50A2682168114004EB8101C86083
:102990002068304420600020FFF7D4FE4846BDE8A0
:1029A000F08700008021002030B482680468531C46
:1029B0008360A154D0E901128A4202D330BC08F0EE
:1029C00041B930BC70470000034803C8814201D1BF
:1029D0000120704700207047802100204360CA69B1
:1029E0009A420DD38A690260886918448861086F29
:1029F00018440867C869C01AC86100D00120704730
:102A000001F12802026000208B67704710B50400B6
:102A100003D106493920FFF74BFF206818B9034955
:102A20003A20FFF745FF20680C3010BD9C260100BE
:102A300070B50C46060004D1224940F2B720FFF7DA
:102A400037FF24B91F494FF42E70FFF731FF20786C
:102A500000250F2833D2DFE800F033083333320C7F
:102A600011323208323333333300304600F0D5FBB5
:102A700026E0214630460CF013FF0FE0304602F00E
:102A800042FF0146A0780025814219D00106E17875
:102A90004FF0030004D531B901210CE005460FE0E9
:102AA00021B101290CD00329F8D109E0304600F00A
:102AB000C5FB0546002130460EF0C4F800E00625AF
:102AC000284670BD9C2601002DE9FF5F0546019850
:102AD000DFF8F0931F46017A89F800101646019836
:102AE00000F044FB804625B9F74940F2E920FFF7A2
:102AF000DFFE29684FF0000A40F21F325446A1F26F
:102B00001F304FF0020B914256D04CDC40F20132A4
:102B1000A1F20130914272D029DC40F2F120A1F201
:102B2000F12281426CD015DC40F2EE22A1F2EE23BC
:102B300091426ED009DC4FF43B73E1B3994270D0FF
:102B4000A1F50071ED395ED17AE0012B74D0022B32
:102B500059D19BE0092A70D004DC012A6ED0022AE8
:102B600051D1B7E00A2A6AD00F2A4CD1DDE00E28F5
:102B700071D00EDC07286ED006DC01286CD0052849
:102B80006BD006283FD116E10C2867D00D283AD12A
:102B900038E11538092836D2DFE800F0F53535354B
:102BA00035F4F3F2F10013286FD010DCA0F103002C
:102BB000102828D201E02EE079E1DFE800F0F0EF04
:102BC000EEEDEC2424EBEAE9E82424E7E6E53728F7
:102BD0000CD00CDC292878D004DC142876D02828E6
:102BE00011D125E22D2872D032280CD150E2442890
:102BF0006ED006DC3E286CD03F2804D16FE29FE007
:102C00004CE04928F4D00020C5F800A004B0BDE88D
:102C1000F09F24E005E008212971002F01D82B60E6
:102C200081E20EB1297931700B2101242971012F24
:102C300006D840F2ED2075E21CE059E03AE062E08F
:102C40000EB12979315598F81410641C2971BC42D1
:102C500005D32A6067E2BAE07FE0A1E0C7E00EB1E9
:102C600029793155641C85F804B0BC4202D340F286
:102C7000EF2057E20EB129793155641C85F804B074
:102C8000BC4203D34FF43C704CE2A6E10EB129796B
:102C90003155641C85F804B0BC42CCD20EB1287901
:102CA000305598F81900641C2871BC4202D340F2D8
:102CB000F22037E20EB128793055641C85F804A063
:102CC000BC4207D340F2F3202CE2BCE191E1CDE11C
:102CD00019E2F9E10EB12879305589F801A0641C98
:102CE00037E209202871BC4202D340F2FA2019E2EF
:102CF0000EB1287930550420641C2871BC4202D3DF
:102D000040F2FB200EE20EB12879305599F80110FF
:102D1000641C0198FEF75AFEC9F804000078287177
:102D2000BC4202D34FF44070FCE10EB1287930551B
:102D3000641C85F804A0BC4202D340F20130F1E1EA
:102D40000EB128793055D9F80400641CBC42407893
:102D5000287102D340F20230E4E10EB128793055F7
:102D6000D9F8040098F81410641C0078814233D11B
:102D700085F804B0BC4213D340F20630D2E18BE0B8
:102D80007FE073E067E054E01BE10FE103E1F7E06F
:102D9000EBE0DFE0D3E0C7E0B9E0ADE0A1E095E033
:102DA0000EB128793055641C85F804B0BC4202D3BA
:102DB00040F20730B6E10EB12879305598F8190085
:102DC000641C2871BC4202D34FF44270AAE10EB1D8
:102DD00028793055641C25E098F8161081421CD1E2
:102DE0000A202871BC4202D340F20D309AE10EB1A4
:102DF00028793055641C85F804A0BC4202D340F207
:102E00000E308FE10EB128793055641C85F804A08E
:102E1000BC42DCD340F20F3084E12B4940F2133046
:102E2000FFF746FD85F804A0BC4202D340F21630FD
:102E300078E10EB128793055D9F8040098F81410CB
:102E4000641C007881426ED105202871BC4202D3F7
:102E500040F21B3066E10EB1287930552420641C05
:102E60002871BC4202D34FF447705BE10EB1287960
:102E70003055641C85F804A0BC4202D340F21D30DA
:102E800050E10EB1287930551020641C2871BC42E5
:102E900002D340F21E3045E10EB1287930550120B1
:102EA000641C2871BC4202D340F21F303AE10EB1DB
:102EB000287930550520641C2871BC4206D340F2A5
:102EC00022302FE1F80100209C2601000EB1287964
:102ED00030552420641C2871BC4202D340F22330B8
:102EE00020E10EB1287930550120641C2871BC42C4
:102EF00002D34FF4497015E10EB128793055032003
:102F0000641C2871BC4202D340F225300AE10EB1A4
:102F10002879305598F81600641C2871BC4203D3F8
:102F200040F22630FEE069E00EB1287930550420E9
:102F3000641C2871BC4202D340F22930F2E00EB189
:102F4000287930552420641C2871BC4202D340F2F9
:102F50002A30E7E00EB128793055641C85F804B0BA
:102F6000BC4202D340F22B30DCE00EB12879305560
:102F7000641C85F804B0BC4202D34FF44B70D1E01E
:102F80000EB1287930550520641C2871BC4202D34B
:102F900040F22F30C6E00EB1287930552420641C51
:102FA0002871BC4202D34FF44C70BBE00EB12879BB
:102FB00030550620641C2871BC4202D340F23130E7
:102FC000B0E00EB12879305598F81400641C2871CF
:102FD000BC4202D340F23230A4E00EB12879305521
:102FE00098F81600641C2871BC4202D340F23330BA
:102FF00098E00EB128793055641C08E098F8161056
:10300000814204D058494FF44F70FFF751FCD9F872
:1030100004104846497889F80210514689F803A0FF
:103020008EE007202871BC4202D340F2473079E09D
:103030000EB1287930550520641C2871BC4202D39A
:103040004FF452706EE00EB12879305599F80310A4
:10305000641CD9F80400FEF791FCC9F80800007858
:103060002871BC4202D34FF453705BE00EB1287953
:103070003055D9F8040098F81410641C0078814287
:103080000BD103202871BC4202D340F2513049E0F9
:103090000EB128793055641C0FE098F81610814263
:1030A00006D185F804B0BC42F2D340F2563039E084
:1030B0002D4940F25A30FFF7FBFB40202871BC42FB
:1030C00002D340F25D302DE00EB128793055641CFA
:1030D00085F804A0BC4202D340F25E3022E00EB17B
:1030E00028793055D9F8040098F81410641C007839
:1030F00081420DD1D8F82000BC420078287102D35B
:1031000040F263300EE00EB128793055641C11E0B6
:1031100098F81610814208D185F804A0BC42F2D379
:103120004FF45A702860012070E50F494FF45B702E
:10313000FFF7BEFB99F803104846491C89F80310B5
:103140008278C9B29142FFF46CAF4178491C89F88A
:10315000011099F8011099F800008142FFF4C1AD07
:1031600040F27330DEE700009C26010010B5040039
:1031700003D103492C20FFF79BFB204610BD000024
:103180009C26010070B50546144809F0CDFC30B905
:10319000134800684068D0E9002100209047402291
:1031A00010491148FEF770FA38B1922815D0BDE8E1
:1031B00070400E4A4B21FDF72DB82846FEF7ACFAB9
:1031C000044602460749054809F064FC8442DBD006
:1031D00006494220FFF76CFBD6E770BDA041010015
:1031E000F0020020F81D00203817010030310100E6
:1031F00010B508B1032010BD0846FFF707FC0178A1
:10320000202901D0062010BDD0F80210C160C1886D
:103210000182017A8174002010BD10B5FFF7A6FF6E
:10322000FFF7F4FB0021818281610162C1660167C1
:103230004167816700F12801816610BD2DE9FC47D7
:103240008146FFF793FFFFF7E1FB0446484602F093
:103250002AFE07462F4800268068CDE90004E06971
:10326000B0B1D4F878804546404500D205462A469C
:1032700004F12801A069FDF735F9206F2844C4E95D
:103280001C60A8EB0500E06660192830A06627E006
:10329000206F60672667E666216A304621B1626A60
:1032A000A161C4E907202CE0A06130E004F118021C
:1032B000616A82E84300E26E1AB38A4215D3A36EB4
:1032C0000A461946FDF70EF9E16EE069091AE16652
:1032D000A16E0144A1666067002148460DF0B2FC72
:1032E000206A0028E2D1A66111E0A16EFDF7FAF88C
:1032F000E06E2067E169091AE161A1690818A0611F
:1033000005D069463846FEF7BDFDBDE8FC870020C4
:10331000FBE70000BC1301004360CA699A4204D372
:103320008A6902600B67CB6103E001F12802026049
:103330008B6700207047000070B5044681B10129F9
:1033400005D002291CD1BDE87040FFF71BBF0D4816
:1033500000684068D0E90021BDE8704001201047B6
:10336000FEF7DAF9054602460749084809F092FBDC
:10337000854203D006496C20FFF79AFA2046E2E71F
:1033800070BD0000F0020020F81D0020A0410100E7
:10339000303101000249084490F9300070470000C4
:1033A000CC19002070B5816804464A8B002A4DD0A4
:1033B000888B00284AD0121A084495B200F12001E7
:1033C0006A1C1F30FDF78EF8A068818B491E81832F
:1033D000A068418B491E41838DB308221C49206996
:1033E00007F0F0FB204605F00EF88188C088814286
:1033F00011D1A06817A2818B4318082120462033E1
:1034000005F048FE204600F0BDF929462046BDE8FB
:10341000704002F015BC204600F0C0FA204600F0D3
:10342000B1F9A0680BA2818B4318082120462033F4
:1034300005F030FE2046BDE8704000F079BA206902
:10344000BDE87040044A03A107F0BCBB70BD00009A
:103450008436000025730000F416010070B50446A0
:103460008068428B818B521A15042D0C48D0084479
:1034700000F121012A462030FDF734F8A068418B85
:10348000491E4183204604F0BEFF8188C0888142E6
:103490000CD1A0681BA2818B431808212046203341
:1034A00005F0F8FD40F25F46C4B913E0204600F095
:1034B00075FA204600F066F9A06812A2818B4318C5
:1034C00008212046203305F0E5FD2046BDE8704088
:1034D00000F02EBA0CA13046FFF7EAF9206918B9BE
:1034E00009A13046FFF7E4F9154A06A1206907F063
:1034F00069FB6D1EA9B22046BDE8704002F0A0BB7A
:1035000070BD0000257300002E2E5C2E2E5C2E2E2A
:103510005C2E2E5C2E2E5C2E2E5C636F6D706F6E9B
:10352000656E74735C6C69627261726965735C6309
:103530006C695C6E72665F636C692E6300000000EC
:10354000F81601002DE9F041044680680F46D0F8D6
:103550004813828B11F00106418BA1EB02039DB24F
:103560004FF4BF730BD0994201D9002D7ED0A068D3
:10357000818B0844002180F8207066B113E09942E5
:103580007CD8002DF3D0831803F120012A46481C73
:10359000FCF7A8FFEBE7A068428B521C92B2428373
:1035A000A068203281544DB3204604F02CFF81885E
:1035B000C08881420ED1A06831A2818B43180821B6
:1035C0002046203305F066FDA81B81B2204602F09C
:1035D00037FB21E0204600F0E1F9A06828A2818BAA
:1035E000431808212046203305F054FD204600F002
:1035F0009FF90121204602F035FC0DE03EB1A068A4
:10360000428B521C92B24283A068203281543A46C7
:103610001CA1206907F0D6FAA168888B401C88831A
:10362000204602F0FAFA0028204603D0BDE8F04117
:1036300002F012BB03F0C0FC00281FD0204604F0AB
:10364000E2FE0546C088A988401A401E81B2204685
:1036500002F084FA204602F0FFFAE888A988401AAE
:1036600081B2204602F00AFC288800E006E0401EF5
:1036700081B22046BDE8F04102F0F4BBBDE8F08124
:10368000257300002563000070B50D46040003D1CA
:103690000BA1E920FFF70CF9606818B908A1EA202E
:1036A000FFF706F96068006818B905A1EB20FFF77D
:1036B000FFF86068294602682046BDE87040104760
:1036C0002E2E5C2E2E5C2E2E5C2E2E5C2E2E5C2E34
:1036D0002E5C636F6D706F6E656E74735C6C696287
:1036E0007261726965735C757362645C6170705F4E
:1036F000757362642E63000009B1062070470020D4
:103700007047000041680A6041684B6001490860E9
:1037100000207047F002002070B51C0015460E46D0
:1037200003D10649A020FFF7C3F82A4631460448D2
:1037300009F0C2FA2060002070BD000030310100A5
:10374000A04101000020704770B51C0015460E46D0
:1037500003D10A49AD20FFF7ABF82A4631460848A5
:10376000FDF7E0FF38B1082805D0112802D100206C
:103770002060002070BD2560FBE7000030310100B3
:103780003817010070B504004FF4D27503D108A1B9
:103790002846FFF78DF8206918B905A12846FFF7DC
:1037A00087F82069BDE870400F4A10A107F00ABAF7
:1037B0002E2E5C2E2E5C2E2E5C2E2E5C2E2E5C2E43
:1037C0002E5C636F6D706F6E656E74735C6C696296
:1037D0007261726965735C636C695C6E72665F636B
:1037E0006C692E6300000000EC16010025730000D8
:1037F0008268002182F8201082689183806841836A
:10380000704700002DE9F04781680546488B002885
:103810007CD0888B002879D00446002603E0761CF3
:10382000641EB6B2A4B284B104F11F028A5C202ADD
:10383000F5D0641E240406F10106240CB6B204D0AF
:1038400004F11F028A5C202AF3D1804621462846D3
:1038500000F0BCFA07464146284600F0B7FAA7EB4D
:103860000008A8682146B0F81C90284600F052F8DD
:1038700007464946284600F04DF83F1AA868031944
:10388000418B8A1B06F12001194404F120031844DE
:10389000FCF728FEA868418B891B4183A86800219A
:1038A000002F8483A868428B104480F8201028469B
:1038B00003DDB9B202F0D6FA05E004DAC7F100017F
:1038C00089B202F0BDF92846B8F1000F04DD1FFAF5
:1038D00088F102F043F905E004DAC8F1000189B289
:1038E00002F0CCFA284600F059F8A86808A2818BAB
:1038F000431808212846203305F0CCFB2846FFF763
:1039000041FF2846BDE8F04700F012B8BDE8F08757
:103910002573000070B584680D46006800F016FE3F
:10392000618A2844B0FBF1F201FB1200401C70BD1B
:1039300070B504004FF4D87503D108A12846FEF7EE
:10394000B7FF206918B905A12846FEF7B1FF206925
:10395000BDE870400F4A10A107F034B92E2E5C2E3E
:103960002E5C2E2E5C2E2E5C2E2E5C2E2E5C636F1B
:103970006D706F6E656E74735C6C69627261726992
:1039800065735C636C695C6E72665F636C692E6301
:1039900000000000E31601002573000070B504006C
:1039A0004FF4D57503D108A12846FEF781FF2069A1
:1039B00018B905A12846FEF77BFF2069BDE87040D5
:1039C0000F4A10A107F0FEB82E2E5C2E2E5C2E2E74
:1039D0005C2E2E5C2E2E5C2E2E5C636F6D706F6ED7
:1039E000656E74735C6C69627261726965735C6345
:1039F0006C695C6E72665F636C692E630000000028
:103A0000E016010025730000074A084BADF59E4DF6
:103A10000020134469469A1A01E00854401C82426F
:103A2000FBD80DF59E4D7047302800200020000087
:103A30002DE9F04F4FF000099FB005464E464C4629
:103A4000CDF8509001F012FF284603F0F1FCA86871
:103A5000CA464FF4C07100F5D070FCF76AFDA86843
:103A600000F12001428B00F5D070FCF73BFDA86807
:103A700000F5D0700CF046F8A86800F5D07000F0A2
:103A800065FDA968401CC883284602F073F82846E3
:103A900002F0C3F810B9284602F0DEF8AA680C2339
:103AA00004A912A8203204F0E1FA0346129840B1AA
:103AB0005BB170A20221284605F0ECFA1FB0BDE808
:103AC000F08F284602F0C8F8F8E7704970480027E0
:103AD000A1EB00080DF1100B13E008D36DA00090CE
:103AE00071A202212846049B05F0D4FAE6E700EB18
:103AF000C704606801685BF82900FCF748FD20B145
:103B00007F1C6348B7EBD80FE7D9207820B168A1B4
:103B100040F65510FEF7CCFE4FF00008CDF870804F
:103B20006068C7680FB1A9684860606809F101045E
:103B30004FF0000980680390129884425CD25BF8D1
:103B4000240069A1FCF723FDD0B15BF8240067A134
:103B5000FCF71DFDA0B15BF824000DF0CFF8B8B163
:103B60000020139013A800905BF8243022462846CA
:103B7000039901F009FF02283ED013998A4439E0E5
:103B8000A868D0F8481341F00201C0F8481333E0A8
:103B900018A84A46009009F101091CAB2146039878
:103BA00001F0C6FBB9F1000F26D01C9820B30168C4
:103BB0005BF82400FCF7EBFC0028BDD11C98C16821
:103BC000A1B1BAF1000F0BD0284601F0D3FF28466F
:103BD00002F023F810B9284602F03EF845A23CE076
:103BE000A9F10101DDF80C802646149180684FF0A0
:103BF00000090390641C9FE7BAF1000F10D0A86879
:103C000000F5D071C28B2030FCF76CFCA9680C2346
:103C1000C88B4883AA6804A912A8203204F026FAA7
:103C2000B8F1000F12D018A800901CAB31464046E6
:103C3000149A01F07DFBA9681C980BEB8602486082
:103C40001299C368891B284698470AE027B104AA3D
:103C500028461299B84704E032A20221284605F00E
:103C600019FAA868D0F8481321F00201C0F84813E7
:103C700024E700006E6F74207465726D696E617464
:103C800065643A2025630D0A000000004C3F0100E6
:103C9000B43E01003A20636F6D6D616E64206E6FFB
:103CA0007420666F756E6400257325730D0A00001D
:103CB0002E2E5C2E2E5C2E2E5C2E2E5C2E2E5C2E3E
:103CC0002E5C636F6D706F6E656E74735C6C696291
:103CD0007261726965735C636C695C6E72665F6366
:103CE0006C692E63000000002D6800002D2D6865B2
:103CF0006C7000004572726F723A20726571756562
:103D000073746564206D756C7469706C652066757C
:103D10006E6374696F6E20657865637574696F6E24
:103D2000730D0A00506C656173652073706563697B
:103D30006679206120737562636F6D6D616E642EAC
:103D40000D0A00008068D0F84803C0F3C000704737
:103D500010B58AB0032401231A46002119480094A3
:103D600005F078FB18B1184AB821FCF753FA154949
:103D70002022543101A8FCF7B5FB06200190082051
:103D8000029000208DF818000E4801231A4601A960
:103D90001C30009405F05EFB18B10B4AC121FCF702
:103DA00039FA084801231A4600213830009405F0FA
:103DB00051FB002803D0044AC521FCF72BFA0AB0B6
:103DC00010BD000028110100E87F000070B5846874
:103DD0000D46006800F0BAFB618A2844B0FBF1F0A0
:103DE00070BD00002DE9F0410446C0688EB00D465C
:103DF000406800263246006801A908F0DDFD18B1D0
:103E000000200EB0BDE8F0816DB1019808F02FFAE6
:103E1000A168D1F83803401CC1F8380300F007004E
:103E200001287AD10126204604F0EDFA0546808863
:103E3000012804D9401E81B2204602F01FF82888CC
:103E4000012804D9401E81B2204601F0F9FE204627
:103E5000FFF798FC2EB132A20221204605F01AF994
:103E60005BE04FF0010800230C2202A9019808F042
:103E70000DFA04980590BDF80C00ADF81800BDF8D7
:103E80000E00ADF81A008DF81D8002980C2700F086
:103E90000300012802D0022818D032E002983B46E5
:103EA000860AC0F3C2008DF81C00029808A9C0F36E
:103EB0008315AA00019808F0E9F92069009005AB84
:103EC0002A4608A9304608F017F91AE00298850D2D
:103ED000C0F3C2008DF81C00082D01D22E4600E070
:103EE00008263B46324608A9019808F0CFF9374426
:103EF000AD1B05AA314608A8236907F0CDFF002DA8
:103F0000EAD1019808F0B3F9E068002201A94068FD
:103F1000006808F051FD0028A5D0012071E70000DD
:103F20004C6F7374206C6F6773202D20696E637201
:103F300065617365206C6F67206261636B656E6499
:103F40002071756575652073697A652E0D0A00000C
:103F50002DE9F0411E4617460D46040000D01DB95C
:103F600009A1F320FEF7A4FC606818B906A1F420AB
:103F7000FEF79EFC606833463A4601680C692946A4
:103F8000A446BDE8F04160472E2E5C2E2E5C2E2EFE
:103F90005C2E2E5C2E2E5C2E2E5C636F6D706F6E11
:103FA000656E74735C6C69627261726965735C637F
:103FB0006C695C6E72665F636C692E630000000062
:103FC00070B5044640680E460025007A38B1A068F6
:103FD0000068FDF7C7FA08B108281AD10025BEB954
:103FE0006068007A50B90B4A0021A068FDF750FACA
:103FF000616805004FF00100087209D1A0682246EF
:1040000040F266610068FDF787FA0546FCF7C2FDDD
:10401000284670BD85FE000010B541680A60416801
:104020004B60406800210172FCF7B4FD0249012099
:104030000870002010BD0000F402002070B51C00C4
:1040400015460E4603D106A16620FEF731FC2A462E
:1040500031460020FCF7A0FD2060002070BD00006C
:104060002E2E5C2E2E5C2E2E5C2E2E5C2E2E5C2E8A
:104070002E5C636F6D706F6E656E74735C6C6962DD
:104080007261726965735C636C695C7274745C6E96
:1040900072665F636C695F7274742E630000000067
:1040A00080680068FDF75EBA2DE9F05F5FEA0308FB
:1040B00015460E4603D11DA17420FEF7F9FB2B48CF
:1040C0000068C0070FD0DFF8A8B000244FF0050A41
:1040D000B14600BF09EB04012A460020FCF7AAFD07
:1040E000060003D011E0C8F8005018E09BF800006B
:1040F00088B10A271F494FF47A4088477F1EF9D1BB
:10410000AAF101005FEA000A0CD001218BF800102F
:104110003444AD1BDED1002CE5D0C8F800400020AF
:10412000BDE8F09F00218BF80010F4E72E2E5C2EE6
:104130002E5C2E2E5C2E2E5C2E2E5C2E2E5C636F43
:104140006D706F6E656E74735C6C696272617269BA
:1041500065735C636C695C7274745C6E72665F63D9
:104160006C695F7274742E6300000000F0ED00E073
:10417000F40200209117010010B50F4805F0CAFAAB
:1041800018B10E4AA621FCF745F80B481C3005F083
:10419000C1FA18B1094AAB21FCF73CF8064838309F
:1041A00005F0B8FA002805D0BDE81040034AAF2159
:1041B000FCF730B810BD000028110100E87F0000B6
:1041C0002DE9FC4100254FF4F3660446771C019568
:1041D00001AB012269462046FFF7BAFE019800288C
:1041E0001CD09DF800007F28F2D808F0D3FBA0680F
:1041F000417821B101297DD002297CD1DCE09DF8F4
:104200000010227E88468A4210D1418B41B120465F
:10421000FFF70EFC0221204600F084F9BDE8FC8186
:10422000C0F84453204601F017FDF3E74146B8F1CA
:10423000090F74D009DC092913D2DFE801F005FD6C
:10424000122712FC12128B00C2E7172973D004DC6C
:104250000C292AD0152904D163E01B2914D07F2909
:1042600076D0FCF7E7F8016811F8080010F03E0F6F
:10427000AED02046FFF766FD00287DD09DF80010E7
:104280002046FFF75FF9A3E7012193E0204601F004
:1042900071FC204601F0C1FC10B9204601F0DCFCA5
:1042A0000221204600F03EF992E71CB98DA130466C
:1042B000FEF7FEFA206918B98AA13046FEF7F8FA2F
:1042C000964A97A1206906F07DFC1CB985A1384665
:1042D000FEF7EEFA206918B982A13846FEF7E8FA2F
:1042E0008E4A8FA11132206906F06CFC8CA203214A
:1042F000204601E057E05AE0236804F0CBFE204658
:10430000FFF720FD00289FD0A36885A20821204642
:10431000203304F0BFFE204601F06EFD58E70EE0AA
:1043200009E0204601F04FFC2046FFF761FA2046E5
:10433000FFF728FA4CE72046FFF764FA48E72046E3
:10434000FFF700FD00289ED0204600F005F93FE76A
:1043500009E011E02046FFF7F5FC002893D0204645
:10436000FFF720F834E72046FFF7ECFC00288AD05E
:104370002046FFF773F82BE7A1689DF80020488BD3
:10438000B0F5BF7F90D8888B0B18401C888383F8CA
:104390002020A068818B084480F82050A168488BB9
:1043A000401C488314E79DF800105B2901D00021D0
:1043B00000E0022141700BE7002141702046FFF729
:1043C000C1FC00283FF42AAF9DF80000422844D0E9
:1043D0001BDC332872D012DC312878D032289DD1F2
:1043E000A16803204870A068D0F8482301219143B8
:1043F000D0F8482361F30002C0F84823E8E63428E7
:104400005ED041288AD1012128E046285BD01FDCFC
:10441000432827D044288DD1204603F0F4FF80465E
:104420000188007B401C814203D1B8F804000128B8
:1044300084D0012901E046E04CE04FF00101204624
:1044400034D001F0FDFBA068818B491E8183BFE65B
:1044500048283FD04C2885D1C5E70021204602F0EE
:10446000CBFEB5E6204603F0CEFF804601884088AB
:10447000814205D1B8F80420B8F80600824291D0F4
:10448000B8F80A0081424FF00101204607D101F03F
:1044900065FBB8F80A10204601F0D2FB01E001F0FC
:1044A000E1FCA168888B401C888391E601F0E6FC62
:1044B000B8F80A10204601F0D5FCC4E70EE006E08B
:1044C000A16803204870204601F054FB80E6A168F3
:1044D00003204870204601F076FB79E6A1680320AE
:1044E000487040E72E2E5C2E2E5C2E2E5C2E2E5C0D
:1044F0002E2E5C2E2E5C636F6D706F6E656E747306
:104500005C6C69627261726965735C636C695C6E34
:1045100072665F636C692E6300000000FC16010088
:104520002573000010B504468068022901700AD185
:104530002046FFF75DF920462368BDE8104002A23F
:10454000032104F0A7BD10BD25730000002801D091
:10455000FCF716B8704700002DE9F04FA5B04FF0FA
:1045600000080546CDF83480CDF830808068474695
:10457000418BA1F27F11494289B25FEA010B71D0F0
:10458000828B00F1200100F5D070FBF7ABFFA8682B
:104590000024818B084480F8A041FBF74BFF20905A
:1045A0000168A8680C23828B0244D27F895CC0F822
:1045B0004443AA6801F001090EA91FA802F5D072B0
:1045C00003F054FD0E98FFF7C1FF86B2A2460A948D
:1045D00007941F9921B101EB0900401EB8426BD826
:1045E000B9F1000F01D0002605E00EA850F8270011
:1045F000FFF7ACFF86B200241BA822460090641C83
:104600000AAB3946504600F093FE0A9800287CD049
:1046100001680EA8324650F82700FBF7CFFF0028AC
:10462000079802D00028E7D06FE0E0B10A98006850
:10463000FFF78CFF0C9980B2884200D90C90BBF137
:10464000000F2BD021A8009007AB424639465046B8
:1046500000F06EFE0A9800688319079800688119B7
:10466000002015E042E0601E0D900A980068FFF7F8
:104670006DFF80B20C90801B58450FDA80B20CE0C1
:1046800011F800C0624506D1401C0004000C10D097
:104690001A5C002AF4D1834500D983460A98B4F104
:1046A00001080790A8D267A20421284604F0F2FC72
:1046B0002BE04FF6FF70EEE700241BA82246009087
:1046C000641C0AAB3946504600F032FE4CB10A98E1
:1046D00000280BD00EA850F827000CF00FFBA0B953
:1046E00007E058A20421284604F0D4FC25B0BDE818
:1046F000F08F0A9801680EA850F82700FBF747FFD3
:104700000028DAD10A98D0F808A0BAF1000F09D031
:104710000A9838B11F997F1CBFB201EB090087428C
:10472000FFF457AF07980028E0D00D984146404568
:1047300056D19AF8000038B11BA80A46009007AB82
:104740003946504600F0F4FD07980068FFF7FEFE7A
:10475000B04206D007985A4600688119284601F0F1
:1047600079F920980368A868818B421892F8202074
:104770009A5CD20715D0408B8142B7D2284603F00D
:1047800042FEA9688488888B401C8883284603F0F1
:104790003AFE8088A0421FD10121284601F062FB29
:1047A000A4E7D0F84813C90711D0D0F8481321F076
:1047B0000101C0F8481320212846FEF7C3FEA8686F
:1047C000D0F8481341F00101C0F848138EE72021CA
:1047D0002846FEF7B7FE89E7284601F03DFA85E74F
:1047E000002128460C9A0AF093F80DF16C090D9CF3
:1047F0000EE00AAB224639465046CDF8009000F054
:1048000097FD0A980C9A016828460AF081F8641C02
:104810004445EED917A2032128462B6804F03AFC40
:10482000AB6816A208212846203304F033FC284642
:1048300001F0E2FA07985A4600688119284601F00B
:1048400009F953E75461622066756E6374696F6E8F
:104850003A20636F6D6D616E647320636F756E7463
:104860006572206F766572666C6F7765642E0D0ACF
:10487000000000000D0A25730000000025730000F1
:1048800070B505460C0004D107A140F6F410FEF700
:104890000FF8002D06D0A068D0F8481341F0200191
:1048A000C0F8481370BD00002E2E5C2E2E5C2E2EFC
:1048B0005C2E2E5C2E2E5C2E2E5C636F6D706F6EE8
:1048C000656E74735C6C69627261726965735C6356
:1048D0006C695C6E72665F636C692E630000000039
:1048E00000238B540A460068194604F0D3BB00002D
:1048F00070B5044640680D4690F8280030B1A068B5
:104900000068FCF72FFE08B108280CD1012685B1FC
:10491000606905F0FBF8616800220831606905F004
:1049200083F808B1062070BD606880F82960002017
:1049300070BD606890F8280048B9074A0021A06857
:10494000FCF7A6FD6168002881F82860F0D12046B8
:10495000BDE870400AF03EBD05FF000070B504469A
:1049600040680D460260606800224360606880F81D
:104970002820606880F82920606820220830FBF732
:10498000B1FD2C61074A2946606905F04DF8050024
:1049900005D1E06808F09EFC206908F09BFC2846E1
:1049A00070BD0000B90101002DE9F0411C00164660
:1049B0000F46054603D106A1D220FDF779FF2660F8
:1049C00022463946E868BDE8F04108F03FBB0000E8
:1049D0002E2E5C2E2E5C2E2E5C2E2E5C2E2E5C2E11
:1049E0002E5C636F6D706F6E656E74735C6C696264
:1049F0007261726965735C636C695C756172745C29
:104A00006E72665F636C695F756172742E6300001D
:104A100010B50446406905F079F8A0680068BDE863
:104A20001040FCF79FBD00002DE9FC411D0016461B
:104A30000F46044603D11AA1E620FDF739FF2E6088
:104A40002A463946206908F06BFB050025D16069CC
:104A5000234A0178515C19B1001D09F04BFE02E0B8
:104A60000C3009F03DFCC0B9FF20009001236A46DC
:104A700001A9206908F0CCFB78B900980199C2B26D
:104A8000606905F033F80546606890F8290020B1A8
:104A90001DB92069009908F0A7FB2846BDE8FC81F4
:104AA0002E2E5C2E2E5C2E2E5C2E2E5C2E2E5C2E40
:104AB0002E5C636F6D706F6E656E74735C6C696293
:104AC0007261726965735C636C695C756172745C58
:104AD0006E72665F636C695F756172742E6300004D
:104AE0006C0100202DE9F8431F4614468846050056
:104AF00002D0B8F1000F03D11EA1C420FDF7D8FEEB
:104B00006868006818B91BA1C520FDF7D1FE002612
:104B100028E000BF686808EB06016B460268D2F81F
:104B20000CC02246E04718B112A1CF20FDF7C0FE0D
:104B30000098844203D20FA1D020FDF7B9FE00985F
:104B40000644241A70B9A868017803290AD000BF66
:104B5000D0F848138906FBD5D0F8481321F020017E
:104B6000C0F84813002CD5D1002F01D00098386030
:104B7000BDE8F8832E2E5C2E2E5C2E2E5C2E2E5C35
:104B80002E2E5C2E2E5C636F6D706F6E656E74736F
:104B90005C6C69627261726965735C636C695C6E9E
:104BA00072665F636C692E630000000070B5084C8C
:104BB000050009D010342168002907D0086820605A
:104BC000496828468847F6E70834F4E770BD0000D6
:104BD00080170020054A012120B1012805D19170DC
:104BE000FFF7E4BF51700020FAE7704780170020FC
:104BF0003EB5044604F022FC38B103B02046BDE8BF
:104C000030400022114604F0A3BA06490648CDE917
:104C100000010346029105A20821204604F03AFA59
:104C20003EBD000040430100000000004170706C78
:104C300069636174696F6E20616464726573733A4D
:104C400025642028307825303858292C2073697A3B
:104C5000653A2025642028307825303858290D0AF7
:104C600000000000F8B514460E46050004D121A14D
:104C700040F21110FDF71CFEA86818B1686808B171
:104C8000286820B91BA14FF48970FDF711FE012E91
:104C900003D0284604F0CCFB30B12846BDE8F840EC
:104CA00001221B4904F054BA022E08D0236801B037
:104CB0002846BDE8F04017A2022104F0EBB91CA180
:104CC0006068FBF764FC68B11AA16068FBF75FFCE1
:104CD00040B16068009019A202212846236804F0C0
:104CE000D9F9F8BD2846BDE8F8401BA2082104F018
:104CF000D1B900002E2E5C2E2E5C2E2E5C64656DCC
:104D00006F5F636C695F636D64732E630000000006
:104D1000F810010025733A206261642070617261AD
:104D20006D6574657220636F756E740D0A00000006
:104D30002D7400002D2D74657374000025733A20C6
:104D4000756E6B6E6F776E20706172616D657465E4
:104D5000723A2025730D0A0044756D6D79207465D3
:104D60007374206F7074696F6E2E0D0A000000005E
:104D7000012904D0136804A2022104F08BB9094967
:104D8000002048607047000025733A20626164206B
:104D9000706172616D6574657220636F756E740DFC
:104DA0000A00000000000020012904D0136804A2BA
:104DB000022104F06FB90949012008707047000012
:104DC00025733A2062616420706172616D6574655B
:104DD0007220636F756E740D0A00000000000020E1
:104DE000012904D0136804A2022104F053B909492F
:104DF000002008707047000025733A20626164202B
:104E0000706172616D6574657220636F756E740D8B
:104E10000A0000000000002070B514460D4606464A
:104E2000012902D004F004FB30B13046BDE87040E7
:104E30000022114604F08CB92368022D01D904A286
:104E400000E00AA23046BDE87040022104F022B919
:104E500025733A2062616420706172616D657465CA
:104E60007220636F756E740D0A00000025733A207E
:104E7000706C656173652073706563696679207312
:104E80007562636F6D6D616E640D0A002DE9F04708
:104E900014460D46814604F0CBFA30B14846BDE8D1
:104EA000F0470022114604F053B9022D07D04846BE
:104EB0002368BDE8F04728A2022104F0EBB8DFF830
:104EC000B48098F80100142801D32BA206E0606892
:104ED000FBF756FB86B2212E02D32DA2022132E02F
:104EE000002567680AE000BFFBF7A4FA0068795D57
:104EF000405C10F0380F2BD06D1CEDB2B542F3D3EF
:104F0000284E002505EB451030446168FBF73FFB58
:104F100000281FD06D1CEDB2142DF3D398F80110AA
:104F2000454601EB4110491C88F8011030441EA190
:104F30006268FCF737F91D4B212269781948FBF7A5
:104F400083FA1BA208214846BDE8F04704F0A2B846
:104F50001FA2C3E72EA2C1E725733A206261642035
:104F6000706172616D6574657220636F756E740D2A
:104F70000A00000000000020636F6D6D616E642008
:104F80006C696D697420726561636865640D0A00FF
:104F9000746F6F206C6F6E6720636F6D6D616E64F0
:104FA0000D0A0000700500202573000029FC000098
:104FB000636F6D6D616E64206164646564207375F8
:104FC000636365737366756C6C790D0A000000008D
:104FD00062616420636F6D6D616E64206E616D65EA
:104FE000202D20706C6561736520757365206F6E70
:104FF0006C7920616C7068616E756D657269636152
:105000006C20636861726163746572730D0A0000DD
:105010006475706C69636174656420636F6D6D6144
:105020006E640D0A000000002DE9F84314460D4699
:10503000804604F0FDF930B14046BDE8F843002257
:10504000114604F085B8022D03D014A20221236872
:105050001DE00025184F194E09E000BF05EB451073
:1050600038446168FBF793FA70B16D1CEDB270784B
:105070008542F3D36068009011A202214046236864
:1050800004F008F8BDE8F883636814A2082101B0B1
:105090004046BDE8F04303F0FDBF000025733A2011
:1050A00062616420706172616D6574657220636F06
:1050B000756E740D0A0000007005002000000020CD
:1050C00025733A20756B6E6F776E20706172616D1B
:1050D000657465723A2025730D0A000064796E616B
:1050E0006D696320636F6D6D616E643A2025730D89
:1050F0000A0000002DE9F04117460C4680460129C0
:1051000002D004F095F930B14046BDE8F0410022EC
:10511000114604F01DB8022C02D01BA23B6811E01E
:105120000024204E204D08E004EB44103044796800
:10513000FBF72DFA60B1641CE4B268788442F3D3C3
:105140007B681AA24046BDE8F041022103F0A2BFED
:10515000132C14D06878001B00EB401204EB4410B1
:10516000304400F12101FBF7BDF9687816A2401E1A
:1051700068704046BDE8F041082103F08BBF002075
:1051800086F87302F1E7000025733A20626164201B
:10519000706172616D6574657220636F756E740DF8
:1051A0000A000000700500200000002064696420EF
:1051B0006E6F742066696E6420636F6D6D616E64DE
:1051C0003A2025730D0A0000636F6D6D616E6420D7
:1051D00072656D6F7665642073756363657373665E
:1051E000756C6C790D0A0000F8B514460D4607463B
:1051F00004F01EF930B13846BDE8F84000221146EF
:1052000003F0A6BF012D08D0236801B03846BDE8E1
:10521000F04013A2022103F03DBF184D687838B169
:1052200017A20821384603F035FF00241A4E13E078
:105230003846BDE8F84019A2042103F02BBF00BF97
:1052400004EB44103044009023461DA20821384648
:1052500003F020FF641CE4B268788442F0D3F8BD08
:1052600025733A2062616420706172616D657465B6
:105270007220636F756E740D0A000000000000203C
:1052800044796E616D696320636F6D6D616E64203A
:105290006C6973743A0D0A0070050020506C6561EA
:1052A00073652061646420736F6D6520636F6D6D3D
:1052B000616E64732066697273742E0D0A000000BB
:1052C0005B2533645D2025730D0A000010B504468C
:1052D00004F0B4F830B120460022BDE81040114679
:1052E00003F036BF1F21BDE8104002A20320FAF7E9
:1052F00091BF00002E2E5C2E2E5C2E2E5C2E2E5C7E
:105300002E2E5C2E2E5C636F6D706F6E656E7473E7
:105310005C6C69627261726965735C636C695C6321
:105320006C695F7574696C735F636D64732E630081
:105330002DE9F05F1C000A9F15468846064604D1F9
:1053400021A14FF48470FDF7B3FA27B91EA140F2F2
:105350000910FDF7ADFA4FF00009B8F1000F0BD0BE
:105360001EB3307838B3726839462846904738689B
:10537000D8B12760BDE8F09F21492248A1EB000881
:10538000B5EBD80F14D2DFF880A00026834609E0E1
:105390000BEBC607786801685AF82500FBF7F7F8A9
:1053A00020B1761CB6EBD80FF2D301E0786808E0A4
:1053B000C4F80090DEE7706800EB05100168002972
:1053C000F6D02060D6E700002E2E5C2E2E5C2E2E0E
:1053D0005C2E2E5C2E2E5C2E2E5C636F6D706F6EBD
:1053E000656E74735C6C69627261726965735C632B
:1053F0006C695C6E72665F636C692E63000000000E
:105400004C3F0100B43E0100CC03002070B51546AE
:105410000E46044604F012F830B12046BDE8704054
:105420000022114603F094BE2149224B0122C91AE1
:10543000C9081E4802EB0144761E0CD0012E10D084
:105440004088022E1CD000282FD020461AA1BDE88B
:10545000704006F0EDBC4088002826D0204622A1EE
:10546000F5E74088002820D00A2200216868FBF771
:10547000B4F802462046BDE8704020A106F0DCBC2E
:10548000002812D00A220021A868FBF7A6F80646D9
:105490000A2200216868FBF7A0F80246204633463E
:1054A000BDE870401BA106F0CEBC70BDD404002046
:1054B000D4400100AC3F01007465737420657272C2
:1054C0006F72206D657373616765207769746820FA
:1054D0006D6F7265207468616E203320617267752C
:1054E0006D656E747300000074657374206572726C
:1054F0006F72206D65737361676500007465737406
:10550000206572726F72206D6573736167653A20F2
:105510002564000074657374206572726F72206D6B
:105520006573736167653A20256420256400000077
:1055300070B515460E46044603F080FF30B1204694
:10554000BDE870400022114603F002BE2149224B03
:105550000222C91AC9081E4802EB0144761E0CD06B
:10556000012E10D04088022E1CD002282FD32046B6
:105570001AA1BDE8704006F05BBC4088022826D323
:10558000204622A1F5E74088022820D30A220021E4
:105590006868FBF722F802462046BDE8704021A16A
:1055A00006F04ABC022812D30A220021A868FBF7A1
:1055B00014F806460A2200216868FBF70EF8024636
:1055C00020463346BDE870401DA106F03CBC70BDCE
:1055D000D4040020D4400100AC3F01007465737412
:1055E000207761726E696E67206D657373616765A0
:1055F0002077697468206D6F7265207468616E2011
:105600003320617267756D656E74730074657374B1
:10561000207761726E696E67206D6573736167656F
:105620000000000074657374207761726E696E67A4
:10563000206D6573736167653A2025640000000082
:1056400074657374207761726E696E67206D65731F
:10565000736167653A2025642025640010B504460F
:1056600003F0E6FE30B120460022BDE810401146AE
:1056700003F06EBD054A0721204603F00BFD2046CE
:10568000BDE8104002A2082103F004BD142001006F
:10569000202020202020202020202020202020200A
:1056A0004E6F726469632053656D69636F6E6475D4
:1056B00063746F72202020202020202020202020B2
:1056C00020200D0A0D0A0000F8B515460E4604000C
:1056D00003D117A12820FDF7EBF8A06818B1606886
:1056E00008B1206818B912A12920FDF7E1F8012EB0
:1056F00003D0204603F09CFE30B12046BDE8F840C0
:105700000022114603F024BD022E08D02B6801B000
:105710002046BDE8F0400DA2022103F0BBBC686842
:10572000009011A2022120462B6803F0B3FCF8BDC3
:105730002E2E5C2E2E5C2E2E5C64656D6F5F636C6E
:10574000695F636D64732E630000000025733A2067
:1057500062616420706172616D6574657220636F4F
:10576000756E740D0A00000025733A20756E6B6E1D
:105770006F776E20706172616D657465723A202575
:10578000730D0A002DE9F04116460D460746012427
:1057900008E000BF56F8243007A20821384603F07D
:1057A00079FC641CAC42F5D33846BDE8F04103A255
:1057B000082103F06FBC0000257320000D0A0000D3
:1057C000F8B516460D460746012409E056F82400B0
:1057D0000090234604A20821384603F05BFC641CB9
:1057E000AC42F3D3F8BD0000617267765B25645D5F
:1057F000203D2025730D0A0001A2022103F04ABCBE
:105800004E696365206A6F6B65203B290D0A0000B5
:1058100010B5044603F012FE30B120460022BDE868
:105820001040114603F094BCBFF34F8F0548016848
:10583000054A01F4E06111430160BFF34F8F00BFDF
:10584000FDE700000CED00E00400FA0510B5044689
:1058500003F0EEFD30B120460022BDE810401146B5
:1058600003F076BCBDE81040FEF7CEB82DE9F0415C
:1058700085680646002495F82000002811D0A0462F
:10588000FAF7D8FD0746006804F1200104F101048D
:10589000695CA4B2415CC90705D0002CF4D185F83D
:1058A0002080BDE8F081641E2404240C0FD0688B96
:1058B000021B04F12000291805F12000521CFAF700
:1058C00011FEB168488B001B4883B1688883B268B9
:1058D0003D68538BD0181F300446002102E0491C5C
:1058E00089B2401E0778EF5DFF07F8D18442D8D017
:1058F0005B1A203302F80380B268508B401A508341
:10590000B1688883CDE710B50021FCF75FF800216E
:10591000FCF734F8007810BD2DE9F0410746154634
:1059200088460846FEF712FE84B2B868661CC18B32
:105930003144B1F5C07F07D9124A0421384603F03B
:10594000A9FB0020BDE8F081294600F5D070FAF7E8
:10595000FBFD051EF6D0FEF7F9FD82B22819294697
:10596000401C521CFAF7BEFD224641462846FAF773
:10597000B9FD20202855B868C18B3144C18301206E
:10598000E0E70000DC3001002DE9FF4F002787B081
:105990009A46DDF850B006463C46B84602250DF161
:1059A00008090197DDE908013A467F1C01ABCDF8F3
:1059B0000090FFF7BDFC019888B1016800225046B5
:1059C00001F084F948B90198524601683046FFF762
:1059D000A3FF5FEA000802D0641C002FE2D15CB391
:1059E000CBF80040B0685546514600F5D070FAF744
:1059F000ABFD04462846FEF7A9FD85B2C4B1B068E8
:105A000000F5D070A04206D214F8010C202802D173
:105A10006D1CADB2641E2046FEF798FD421BB068B7
:105A2000521CC18B491BC18361192046FAF75AFDEC
:105A3000B8F1000F01D0002500E001250BB0284689
:105A4000BDE8F08F40684968884201D8012070475E
:105A5000002070472DE9F04115460F00044604D19F
:105A600023A140F22360FCF723FFA068418B828BC7
:105A70008B1A29449EB2B1F5C07F37D2002D35D0A4
:105A8000104400F1200105F120021044721CFAF7C5
:105A900029FDA0682A46818B084439462030FAF750
:105AA00021FDA0682030FEF751FDA1681EA24883A9
:105AB000A068818B431808212046203303F0EAFABE
:105AC000A068818B29448183204600F0A6F818B98C
:105AD000204601F071FA10B1204600F0BDF8002E0A
