:1000000000000420B5020000DD020000DF02000055
:10001000E1020000E3020000E50200000000000031
:10002000000000000000000000000000E7020000E7
:10003000E902000000000000EB020000ED020000F9
:1000400015240000F9A00000B5860000EF020000B2
:10005000EF020000EF02000019280000EF0200008C
:10006000EF020000EF020000EF020000EF020000CC
:10007000EF0200008D820000EF020000EF0200009E
:10008000EF02000089100000EF020000EF02000004
:1000900029110000EF020000EF020000EF02000053
:1000A000EF020000EF020000EF020000EF0200008C
:1000B000EF020000EF02000000000000000000005E
:1000C000EF020000EF020000EF020000EF0200006C
:1000D00099740000EF020000EF020000EF02000040
:1000E000EF020000EF020000EF020000000000003D
:1000F00000000000EF02000000000000EF0200001E
:1001000000000000000000000000000000000000EF
:1001100000000000000000000000000000000000DF
:1001200000000000000000000000000000000000CF
:1001300000000000000000000000000000000000BF
:1001400000000000000000000000000000000000AF
:10015000000000000000000000000000000000009F
:10016000000000000000000000000000000000008F
:10017000000000000000000000000000000000007F
:10018000000000000000000000000000000000006F
:10019000000000000000000000000000000000005F
:1001A000000000000000000000000000000000004F
:1001B000000000000000000000000000000000003F
:1001C000000000000000000000000000000000002F
:1001D000000000000000000000000000000000001F
:1001E000000000000000000000000000000000000F
:1001F00000000000000000000000000000000000FF
:1002000010B5054C237833B9044B13B10448AFF350
:1002100000800123237010BD1802002000000000A0
:100220000C01010008B5034B1BB103490348AFF3B0
:10023000008008BD000000001C0200200C0101002D
:10024000154B002B08BF134B9D46A3F5803A0021A8
:100250008B460F461348144A121A0CF0F4F90F4B50
:10026000002B00D098470E4B002B00D09847002061
:10027000002104000D000D48002802D00C48AFF307
:1002800000800CF065F92000290002F0B9FF0CF0A5
:1002900039F900BF00000800000004200000000041
:1002A000000000001802002050270020000000007D
:1002B000000000000649074A074B9B1A03DD043B78
:1002C000C858D050FBDC03F001F9FFF7B9FF00007C
:1002D0005C0101000000002018020020FEE7FEE79C
:1002E000FEE7FEE7FEE7FEE7FEE7FEE7FEE7FEE7E6
:1002F000074B1B5C1F2B8ABF064A4FF0A04203F03E
:100300001F03D2F80405D840C04300F00100704735
:100310000CDF000000030050074B1B5C1F2B86BF47
:1003200003F01F0305494FF0A041012202FA03F335
:10033000C1F80C35704700BF0CDF0000000300500F
:10034000074B1B5C1F2B86BF03F01F0305494FF0B3
:10035000A041012202FA03F3C1F80835704700BF3B
:100360000CDF0000000300504FF0A04310B44FF426
:1003700080404FF400544FF400414FF48032C3F8F2
:100380000845C3F80805C3F80815C3F808255DF843
:10039000044B70474FF0A04310B44FF480404FF42B
:1003A00000544FF400414FF48032C3F80C45C3F8B9
:1003B0000C05C3F80C15C3F80C255DF8044B704709
:1003C0000A4B195C1F298ABF09484FF0A04001F071
:1003D0001F01D0F8043501228A4022EA03011340AC
:1003E000C0F80815C0F80C35704700BF0CDF0000DE
:1003F000000300500B2809D00C2809D0182809D078
:1004000019280CBF03204FF0FF30704700207047C1
:100410000120704702207047C20730B40ED4830712
:100420000AD54FF0A0430C22C3F82C27C3F830277D
:10043000C3F86027C3F8642730BC70474FF0A0436F
:100440000322C3F834274FF40055C3F838274FF47C
:100450008044C3F83C274FF40041C3F840274FF4D1
:100460008032C3F80855C3F80845C3F80815C3F827
:100470000825D4E7704700BF00B583B0044B009354
:10048000044A402300F034F803B05DF804FB00BFD9
:10049000990400003802002002B32DE9F843114B03
:1004A000114E8846144643F00109032700252246D1
:1004B00008EB0501002002F0EFFE03461D444FF457
:1004C0007A40E41A23B9337833B1C847013F06D0E4
:1004D00001233370002CEAD1BDE8F88370473770F0
:1004E000BDE8F88310DF000034020020704700BF31
:1004F000F0B595B0002415460F4608461E4601F09B
:10050000BDFD384623460895082205A91A9D09967F
:100510000D950A948DF82C400C9401F009FE9DF87D
:1005200014308DF81140DDE9061003F00302012AB2
:10053000CDE9020127D0022A04D0384601F0A2FDFD
:1005400015B0F0BDBDF81650C3F3C2038DF81030DE
:10055000AD090826082D2C4628BF0824334622461C
:100560000EA9384601F0E4FD2D1B214608AB02AA76
:100570000EA8264400F03EFB002DEBD1384601F0DA
:1005800081FD15B0F0BDBDF81460059DC6F383165E
:10059000C3F3C204B2000EA9384608238DF81040F8
:1005A000C5F3952501F0C4FD08AB324628460EA9D7
:1005B000009302AB00F078FA384601F063FD15B005
:1005C000F0BD00BFF0B5324C85B004F5836001F09A
:1005D00091F804F2144001F08DF8D4E9013703EAF0
:1005E0000702D01C04EB800114F8200010F0040076
:1005F00044D003F1020C0E7806F00306012E654686
:1006000035D0022E02F1030621D004EB860100282A
:10061000F1D104EB82020133D26801923B4004EB3A
:10062000830302F00302012ADE6829D0022A23D1C3
:10063000BDF806309B090333360C05EB93051548CE
:1006400001F064F800B16560304605B0F0BD4B883C
:100650000CEB931307EA0302D11C03F1020C14F80C
:100660002100654604EB810100F00400CFE70B8810
:10067000C3F383136344EDE70026E0E79D1CC8E75E
:10068000BDF80430C3F38313360C1D44D7E700BF15
:10069000480300205C07002021B9124B03EBC00087
:1006A00000687047104A0F49521AD20815D030B46A
:1006B0000E4D2B88834212D0002303E035F82340EF
:1006C000844205D001339A42F8D1002030BC7047F3
:1006D00001EBC300006830BC704710467047084605
:1006E000F8E700BF100101003001010014020020F2
:1006F000094B013903EBC00003290BD8DFE801F0F7
:10070000020806040220704740797047007970475C
:100710000420704700207047100101002DE9F843C4
:10072000DFF8D890074600208846D9F8084000F046
:10073000ADFFD9E90132D9F80060134401339B1BA6
:10074000012B56D809F21C450121284600F0BAFFBA
:10075000FFF738FF0146284600F0B4FFD9E901321F
:10076000D9F80010134401335B1A012BECD90A406D
:10077000033205230231002049F82230C9F8001065
:1007800000F08CFF00211C4800F092FF80F3100065
:10079000731C234009EB830300043440033440EA14
:1007A0001740D86019F8243067F3C50309F82430DE
:1007B00039F824306FF3891329F8243059F82420AC
:1007C00068F39F221346012161F301036FF3820353
:1007D00049F8242009F8243099F820341BB906E0A0
:1007E00000F00EF818B1D9E900329A42F8D1BDE80C
:1007F000F8833146BBE700BF6407002048030020B0
:100800002DE9F047914C002384B0C4F81834BFF3AD
:100810004F8FD4E9015605EA0602D31C04EB83018D
:1008200014F82330580719D527680B7803F0030311
:10083000012B43D0022B03D14B88023505EB9315D6
:1008400006EA0502D4F81804D31C04EB830128B986
:10085000AF4239D914F823305B07E6D404EB8202A7
:100860006B1CD2680192334004EB830302F0030255
:10087000DB680293022A05F1020700F08980012A51
:1008800026D0D4F810543DB12B6828469B68984771
:10089000EB681D68002DF7D16D486E4B6E49C01A8C
:1008A000C008000440F00200FFF738FFD4E9003030
:1008B000C01A18BF012004B0BDE8F0870B880235CC
:1008C000C3F383131D44BBE7676004B0BDE8F08742
:1008D000BDF804206148C2F38313062B28BF06230A
:1008E00063F3891202339900ADF8042001F084FB10
:1008F00080460028C5D001F0C1FB0023082201A9D1
:10090000404601F0E1FBBDF8043013F4707F00F0C5
:100910009B806FF0010AAAEB050A082506EA070189
:1009200003312B46042204EB8101404601F0CCFB4D
:10093000BDF8043007F101090AEB0902C3F3831380
:1009400093424F4605F10405E8D8D4F81834002B3B
:1009500064D1D4F8105465B1EB685A792846414601
:10096000002A57D02B681B689847EB681D68002D3C
:10097000F2D1404601F086FB002000F087FED4F85B
:1009800018340BB9C4F80490002000F087FE8DE7FE
:10099000BDF8063031484FEA93194D46502D28BF17
:1009A000502565F38F1305F10801ADF8063001F00D
:1009B00023FB804600283FF464AF26EA070A0AF1C9
:1009C000010A01F05BFB4FEA8A0A0023082201A911
:1009D000404601F079FB55452BD9EBB2BAF1000F37
:1009E00020D006EA0701A3EB0A03033104EB8101DF
:1009F000DDB252460823404601F066FB2A460AF162
:100A000008031749404601F05FFB09F1030907EBB2
:100A100099099AE71D68002D9ED1AAE7404601F08A
:100A200031FB43E72A4608230D49404601F04CFBC1
:100A3000EBE706EA0701033104EB81012A460823AC
:100A4000404601F041FBE0E7B9467EE7480300205D
:100A5000200101001001010034DF0000400101000D
:100A600054030020044BD3E900239A4201D0FFF73E
:100A7000C7BE0020704700BF4803002038B5094BAF
:100A8000D3F81044012583F820544CB1E3685D711C
:100A9000236820465B689847E3681C68002CF5D102
:100AA00038BD00BF480300202DE9F04784B01D4643
:100AB0000C9C002394F80C802373EB8881460E462F
:100AC0001746002B40D1297A05290ED06B7AA888C9
:100AD00073BB404B53F821A00021FFF7DDFD5246C8
:100AE00003463D49204600F061FE062F09D8DFE8A5
:100AF00007F0046A4249525D33004946204600F03F
:100B000055FE2B7A052B05D06B7A5BB9334920460D
:100B100000F04CFE204600F03DFE84F80C8004B04E
:100B2000BDE8F0872E4A2F49204600F03FFEEDE752
:100B3000FFF7DEFD2C4B2B4953F82020204600F018
:100B400035FE297AA888C4E7254A00922749284A11
:100B5000204600F02BFEB6E7D6E90410D6E90023C4
:100B60000390D6E902070291CDE9000749462046E5
:100B700000F01CFEC5E74946D6E90023204600F0F8
:100B800015FEBEE7B168D6E900232046009149462C
:100B900000F00CFEB5E7D6E90201D6E90023019189
:100BA00000904946204600F001FEAAE7D6E903710D
:100BB000B068D6E900230291CDE9000749462046F6
:100BC00000F0F4FD9DE732684946204600F0EEFD56
:100BD00097E700BFC0DF0000B0DF0000BCDF00000F
:100BE000A4DF0000ACDF00004CDF00008CDF000061
:100BF00084DF0000082900D970472DE9F04F1D4619
:100C0000904600232A7B2B7385B0B8F806300392F8
:100C100007460E46002B7BD198F80810052911D005
:100C200098F80930B8F80400002B63D13C4B53F816
:100C300021400021FFF730FD22460346394928466E
:100C400000F0B4FDDFF8FCB0DFF8FC90002405E014
:100C50003A5D013400F0AAFD082C09D0A6424946AD
:100C60002846F5D85946013400F0A0FD082CF5D1EE
:100C70002D49DFF8D8B0DFF8D890284600F096FD6F
:100C800000240CE017F804A0BAF17E0F23D92E221D
:100C900049462846013400F089FD082C08D0A642B8
:100CA000F0D859462846013400F080FD082CF6D1D2
:100CB00098F80830052B02D098F80930A3B91B49E1
:100CC000284600F073FD284600F064FD039B2B735B
:100CD00005B0BDE8F08F0BF063FC504452464378FA
:100CE00013F0970FD3D0D3E7114A1249284600F0EA
:100CF0005DFDE4E7FFF7FCFC0F4B0E4953F82020A5
:100D0000284600F053FD98F80810B8F804008DE765
:100D1000074A009209490A4A284600F047FD7BE746
:100D2000C0DF0000B0DF00007CDF0000BCDF00009F
:100D3000A4DF0000ACDF00004CDF00008CDF00000F
:100D400084DF000078DF000070DF0000B8DF000003
:100D500080DF0000434B1978002900F081802DE9E5
:100D6000F04F002487B001258E4603E00134E4B241
:100D7000744560D23C4B27B21E6816F837C0ACF100
:100D8000200205FA02F9394ACCF12003D2E9000128
:100D900025FA03F349EA030905FA0CF800EA080208
:100DA00001EA0903134306EBC70BDFD021EA09036D
:100DB0002E4920EA08026046C1E9002301F01CFD2B
:100DC00016F837C0ACF1200205FA02F2019201993F
:100DD000CCF12003C6B225FA03F3ACF1200219438B
:100DE00006FA02F30393224B0191D3E90023CDE9E4
:100DF000042305FA0CF30093CCF12001039B26FA9F
:100E000001F10B43039306FA0CF30293DDE9046747
:100E1000DDE9002316401F4032463B46DDE902670C
:100E2000BB4208BFB24209D00E4B013493F800E038
:100E3000E4B274459ED307B0BDE8F08F9BF8011073
:100E4000DBF80430A1F10101B1FA81F14909091A75
:100E5000B1FA81F14909002BE6D060469847E3E7F3
:100E6000704700BF6C070020A8070020A0070020E3
:100E7000980700202DE9F84F0646244800F0D2FBE1
:100E8000D8B9234F0123A6F1200103FA01FBC6F1D3
:100E90002002D7E9000123FA02F24BEA020B03FA1F
:100EA00006FA00EA0A0201EA0B03134307D020EA1C
:100EB0000A0421EA0B05C7E90045BDE8F88F304672
:100EC00001F09AFC134ED6E90089C8B148EA0A033A
:100ED00049EA0B049846A146D7E900234BEA0305EB
:100EE0000D4B0A4819684AEA02044B464246C6E9D5
:100EF0000023C7E900450022BDE8F84F00F044BBDD
:100F000028EA0A0829EA0B09E6E700BF740700206F
:100F1000A00700209807002070070020042A36D977
:100F20002DE9F04182B00E460546144601F0EEFA76
:100F3000002836D01D491E4A1E4B0D601E481F4911
:100F40001C60167000230022741EC0E90023C1E952
:100F50000023E4B2EEB105EBC404194F083D4FF095
:100F60000008032601E0AC4213D0A37820788DF866
:100F700006803A4601A98DF804608DF8053001F02D
:100F8000CFFA083C0028EED002B0BDE8F08107207F
:100F900070470C4A0C48002100F0E4FA02B0BDE8AA
:100FA000F08101F069FA0028C4D0EDE7A80700201D
:100FB0006C0700207007002098070020A007002081
:100FC000750E0000550D00002CE0000070B5084DB6
:100FD0002B785BB1074E00243368012113F83400ED
:100FE00001F08EFB2B780134A342F5D8002070BDB0
:100FF0006C070020A807002000B585B000230390EF
:10100000194601AA44F20100CDE9013300F004F8C9
:1010100005B05DF804FB00BF10B572B6FFF72EFDFA
:10102000FFF720FD0028FBD1104B114C1149E41AA9
:10103000E408240444F00100FFF770FB0E4B1B682A
:10104000DB0700D500BE44F002000C49FFF766FB49
:10105000BFF34F8F0A490B4BCA6802F4E062134397
:10106000CB60BFF34F8F00BFFDE700BF1001010051
:101070002001010030E00000F0ED00E03CE0000065
:1010800000ED00E00400FA05F8B5204A204B0024EA
:10109000C2F84041C2F84441C2F84841C2F84C414C
:1010A000C2F80041C2F804411B6833B31949D2F8B1
:1010B00004550A68AD1A1A6825F07F45AA422746EA
:1010C0000DD8197CDE69AD1A144419B11F74D3E927
:1010D000052090471EB133461A68AA42F1D90E493D
:1010E0000E4A0B7812789A4208D00D490D4A41F801
:1010F00023404FF48013C2F80031F8BD531CDBB21B
:10110000022B08BF00230B70EFE700BF0010014067
:10111000CC080020C8080020C5080020C408002012
:10112000BC08002000E100E02DE9F04F8C4A8D4919
:1011300013780978DFF85082994285B0D8F800A07A
:1011400000F07B810133DBB2022B08BF002386480D
:101150001370864A076852F823107B1823F07F43E8
:1011600000240360534626462046A446ABB11A68C5
:101170008A4200F26581DC68C3F800C0891A104415
:10118000DA6934B13D1825F07F45C3E90154DE61C9
:101190001E4613460124002BE9D1002C40F07C812F
:1011A00001230093724B734FDFF8E09143F001038A
:1011B000019355464FF0000B46B3D6E901C13446C2
:1011C000F669694B6C481A68ACEB020323F07F4365
:1011D000834248D80B44236000220121C4E9012244
:1011E000E2612174002D5DD02A689A424DD22846D2
:1011F00003E00A689A424FD20846C1699B1A002947
:10120000F7D12360E161C461002ED6D178783978B6
:10121000884264D00B4603EB43034C1CBA7807EBBF
:10122000C303E1B28A421A79397004BF00213970D0
:10123000022A9C6844D0032A38D0012AE8D1227CB3
:10124000002AE5D1D3F80CC0C4F804C01969A16024
:101250005869E06099F800009B69A3610028B0D04C
:1012600062609446ADE7A2EB0C0222F07F428A4214
:1012700002D28B1A2360AFE700230122C4E90033B6
:10128000A360E36122746DB12A68C8F80040D31AE4
:101290002B60E56125468FE7D21A0A602360E16181
:1012A000C461B1E7C8F80040254685E7002DAFD0FE
:1012B00000232B74ED69002DFBD1C8F80050A5E781
:1012C0004DB1AC422B4603D1E4E094422FD01346FB
:1012D000DA69002AF9D10023237488429AD1BBF13C
:1012E000000F01D1554553D0002D56D1234E244A2D
:1012F0001F4C4FF480334FF400310127C2F88010A7
:101300003C43C6F848334FF43C60C6F80833776076
:10131000A047154BB7604FF43C601D60A047194BC8
:101320001D70002389F8003005B0BDE8F08FA3429E
:1013300000F09180E0692168D861002800F0868083
:101340002A4603680B440360AA424FF00003397831
:10135000787823741CBF15464FF0010BBDE700BF22
:10136000C4080020C5080020C8080020BC080020D0
:1013700050E00000AC070020FEFF7F00001001409D
:1013800000E100E0B9080020CC080020B8080020E7
:10139000009B002BC5D0002DA8D0434B434A1C68AE
:1013A000D2F80465424FD5F800A03978331B23F0FA
:1013B0007F43DD1CB9B93F493F4B4FF48030C2F841
:1013C00044034FF00108C2F804034FF40030C1F8A1
:1013D000800143F001030860C2F800804FF43C60D4
:1013E000984787F80080AA452CBF04EB0A036319CD
:1013F0002E4923F07F43C1F84035D1F80425921BD4
:101400009B1B22F07F4223F07F4303329A4288D90C
:10141000294BD1F80425C1F8402543F001034FF4CE
:101420003C609847234B4FF40032C3F8002100235F
:1014300089F8003005B0BDE8F08F00260096B1E6CF
:1014400074BB521A1A6001230093ABE6002339786B
:101450007878237441E71946EA69C8F8002092B900
:10146000CDE90231114BDFF840C001209860019BAB
:1014700089F80000CCF800204FF43C609847DDE983
:101480000231D8F80020C8690968D86100287FF4C3
:1014900058AF59E72946DFE7C8F800309A467FE69B
:1014A000C8F800309A46CCE7C80800200010014078
:1014B000B908002000E100E050E000002DE9F84309
:1014C0001F4D204E204FDFF898804FF480334FF4AB
:1014D00000324FF001090024C6F8802047EA0907CE
:1014E000C5F848334FF43C60C5F80833C5F804909C
:1014F000B847C5F808904FF43C60C8F80040B847BA
:10150000124A134B13491C601470134B134A0C708E
:101510000B2114701C8099704FF48012C023C6F800
:10152000802186F814333260C5F8084586F81133F7
:10153000D5F80435C8F800302046BDE8F88300BF70
:101540000010014000E100E050E00000B908002078
:10155000CC080020C4080020AC070020C5080020EB
:10156000C8080020074B9B784BB132B128B1036803
:10157000187C20B959745A617047072070470820B9
:10158000704700BFAC0700202DE9F843224CA37838
:10159000002B35D0002833D0042934D943697BB3DC
:1015A000437C0646012B4FF000000CBF8846804666
:1015B0001746894600F06AF86378A17822785D1CA6
:1015C000EDB2A94208BF0025AA421FD003EB430396
:1015D00004EBC3030121114A9E601971D2F804255E
:1015E000DA600020C3E904989F61657000F056F846
:1015F0000B4B4FF48012C3F800210020BDE8F883A4
:101600000820BDE8F8830720BDE8F883002000F03B
:1016100045F80420F2E700BFAC07002000100140AD
:1016200000E100E070B5174DAB7823B318B3436900
:101630000BB3002404740646204600F027F86A78AD
:10164000A8782978531CDBB2984208BF23469942F8
:1016500013D002EB420205EBC20202219660204643
:1016600011716B7000F01AF8074B4FF48012C3F839
:101670000021204670BD082070BD204600F00EF805
:10168000042070BDAC07002000E100E072B6024A01
:101690001368013313607047D0080020034A1368B1
:1016A000013B136003B962B6704700BFD008002049
:1016B00050E8002F0B4640E8003C9CF0000FF7D1AB
:1016C0001046704750E8003F03EB010240E8002C51
:1016D0009CF0000FF6D11046704700BF50E8003F65
:1016E000A3EB010240E8002C9CF0000FF6D110465D
:1016F000704700BF012350E8002F42EA030C40E886
:1017000000C191F0000FF6D160467047002350E809
:1017100000CF0CEA030240E8002191F0000FF6D15F
:101720006046704738B504460020FFF7AFFFD4E9A4
:1017300000311A688A4215D9511E19602168A368C0
:101740000868258A12F8012CE4681B1A0879DBB2B4
:10175000984205FB024400D20B710020FFF79EFF68
:10176000204638BD0024F8E738B5054600200C4671
:10177000FFF78CFF2A681368591C1160E9682A8AF0
:10178000641AB4FBF2F41C700020BDE83840FFF787
:1017900085BF00BF826842B110B504464369016845
:1017A000006998470023A36010BD70470EB400B5D0
:1017B00082B0039929B102AA04AB42F8043D00F0BB
:1017C000A9F802B05DF804EB03B070472DE9F04FC3
:1017D000924683B051450F4605461E46DDE90CB2E0
:1017E000C0F092800B464FF00108B3FBFAF39A4524
:1017F00008F10108F9D9B04538BFB04612F0010927
:10180000A96802D1BBF1000F54D1012402E0013ECE
:101810000AFB04F4012EFAD8B7FBF4F08245F7D99D
:101820003B4E02E0A968B7FBF4F0335C2A680A2B50
:1018300004FB107702EB010E01F1010029D0A86032
:101840008EF80030D5E90131994202D32846FFF7DE
:10185000A1FFB4FBFAF4002CE4D1B9F1000F15D0CC
:10186000BBF1000F12D0C34510D92024AB682A6801
:10187000591CA960D454D5E901329A420BF1FF3BBF
:1018800014D2BBF1000F01D0C345EFD103B0BDE8C6
:10189000F08FA8604FF00D005054D5E90110884238
:1018A0001DD2296801EB000E0130C8E72846FFF77A
:1018B00071FFE6E7930722D42024C345A5D92B68FE
:1018C0004A1CAA605C54D5E9013199420BF1FF3BF7
:1018D00010D2BBF1000F98D0C345F0D195E7284650
:1018E0000193FFF757FFAA682968019B501C01EB81
:1018F000020EA4E72846FFF74DFFA968E9E7002E8E
:101900000CBF30242024D8E74FF0010873E700BF54
:1019100058E00000002900F0B9822DE9F04F05469B
:1019200087B091460C460E78DFF8C8A64FF00D0B35
:1019300013E0AB6828680A2E03F1010200EB0301F3
:1019400000F04B82AA600E70D5E901329A4280F015
:101950001B812678002E00F01E810134002E00F03D
:101960001A81252EE5D12346002713F8012B2D2AB5
:1019700000F0E380302A00F0E4802B2A00F0D480CD
:101980002A2A00F00D81A2F13006F1B2092903D90B
:101990007DE2A1F130060346184606EB860110F8F9
:1019A000012BA2F13004092C02EB4101F1D92E2ABE
:1019B00000F002814FF00008013301E013F8012B21
:1019C00002F0FB0168291C46F8D0253A532AC0D8FA
:1019D00001A353F822F000BFC31D000053190000FB
:1019E0005319000053190000531900005319000047
:1019F0005319000053190000531900005319000037
:101A00005319000053190000531900005319000026
:101A10005319000053190000531900005319000016
:101A20005319000053190000531900005319000006
:101A300053190000531900005319000053190000F6
:101A400053190000531900005319000053190000E6
:101A500053190000531900005319000053190000D6
:101A600053190000531900005319000053190000C6
:101A700053190000531900005319000053190000B6
:101A800053190000531900005319000053190000A6
:101A90005319000053190000531900005319000096
:101AA00053190000A71D000053190000531900002E
:101AB0005319000053190000531900005319000076
:101AC0005319000053190000531900005319000066
:101AD0004B1B00002D1D000053190000531900007E
:101AE00053190000531900002D1D00005319000068
:101AF0005319000053190000531900005319000036
:101B000053190000951C00005319000053190000E0
:101B10000D1C000053190000F11B000053190000B8
:101B200053190000A71D000047F004071C46234678
:101B300013F8012B2D2A7FF41DAF47F001071C4637
:101B4000F5E747F002071C46F1E7D9F800301A1D07
:101B5000C9F800201E78AB680A2E0CD12A68591CDF
:101B6000A96002F803B0D5E90123934203D32846C4
:101B7000FFF710FEAB682A68591CA960D654D5E956
:101B800001329A42FFF4E5AE2846FFF703FE2678BD
:101B9000002E7FF4E2AE2B7B23BB07B0BDE8F08FB5
:101BA000D9F80020111DC9F80010166862782E2A95
:101BB00004F102007FF4FEAE5A78A2F13003092B43
:101BC00000F2BD814FF0000808EB880802EB4808DE
:101BD00010F8012FA2F13003092BA8F13008F3D936
:101BE0000346E9E6284607B0BDE8F04FFFF7D2BD4F
:101BF000D9F800301A1DC9F800201968019743462A
:101C000000960A222846FFF7E1FDA2E6D9F8003047
:101C10001A1DC9F80020D3F80080FB0700F1E88006
:101C2000B8F1000F00F0A18140460BF079F80746AB
:101C3000BE4215D9A6B1202100E08EB1AA682B685A
:101C4000501CA8609954D5E901329A4206F1FF363A
:101C500004D328460391FFF79DFD0399BE42ECD1C2
:101C600008F1FF3818F8016F002E3FF472AEAB6830
:101C700028680A2E03F1010200EB030100F09081B5
:101C8000AA600E70D5E901329A42EBD32846FFF7DD
:101C900081FDE7E7D9F80020131DC9F80030AB68D3
:101CA00029681768581C3022A860CA54D5E9012356
:101CB000934280F0E6802A68581C7821A860D154AD
:101CC000D5E90123934280F0D7800F2F03D93A46FC
:101CD00012090F2AFCD84FF080560DE0AA6081F857
:101CE0000080D5E901329A4202D32846FFF752FD1F
:101CF00036093FF42EAEAB68B7FBF6F21AF8028055
:101D00002868B8F10A0F06FB127700EB030103F114
:101D10000102E3D1AA6000F803B0D5E901329A428A
:101D200080F049812B6899180132D7E7D9F8003043
:101D30001A1DC9F80020196881EAE173A3EBE17369
:101D4000092B40F30E81AA480122A0FB03C3DB0844
:101D5000092B02F10102F8DC4245134638BF434625
:101D6000039307F00203002E40F09580002B00F053
:101D7000B780B8F1000F00F0F680F80740F1B080AE
:101D80000029C0F2FF807A0700F1C88007F0030342
:101D9000022B00F0A780CDE9006743460A222846BF
:101DA000FFF714FDD5E5D9F800301A1DC9F8002059
:101DB000196801974346009610222846FFF706FD52
:101DC000C7E5AB682A68581C2521A860D154D5E91D
:101DD00001329A42FFF4BDADD6E6AA6000F803B026
:101DE000D5E901329A423FD2296811440132A9E56E
:101DF0004146A1EB080311F8017BD7B1AB68D5F8D8
:101E000000C00A2F03F101020CEB030000F0AF80C9
:101E1000AA600770D5E901329A42EAD328460391B5
:101E2000FFF7B8FC0399A1EB080311F8017B002F21
:101E3000E4D19E427FF68DAD202702E0002E3FF4D4
:101E400088ADA9682A68481CA8605754D5E90121C3
:101E5000914206F1FF3604D328460393FFF79AFC1C
:101E6000039BB342EAD174E52846FFF793FCAB68C5
:101E700029685A1C194465E52846FFF78BFCAB68B6
:101E800023E72846FFF786FCAB6814E7704718463F
:101E9000002623468BE5002920DB7A071ED41BB1E0
:101EA000B8F1000F3FF46CAFF8073FF569AFBEB172
:101EB000039BB342BFF464AF2023AA68501CA86000
:101EC00028688354D5E90102824206F1FF3640D2E8
:101ED00036B1039AB242F0D1164651E7013EDEE731
:101EE00000264DE7B8F1000F7FF455AF002E6AD001
:101EF000039BB342BFF44FAF3023AA68501CA860C5
:101F000028688354D5E90102824206F1FF3618D2CF
:101F1000002E58D0039AB242EFD13CE7AA68531C76
:101F2000AB602B682B209854D5E901329A42FFF41C
:101F30002DAF28460491FFF72DFC049926E70346B0
:101F400038E52846CDE90413FFF724FCDDE9041346
:101F5000DEE72846CDE90413FFF71CFCDDE9041396
:101F6000B6E70122F8E646460AE7474660E6AA6079
:101F70000CF803B0D5E901329A4226D22B689818A2
:101F8000013245E7AA68531CAB602B682D2098549A
:101F9000D5E901329A42C1F10001FFF4F7AEC8E77A
:101FA000AA6000F803B0D5E901329A4217D2296835
:101FB0001144013264E62846FFF7ECFBA9682B6860
:101FC0004A1C19448AE60026E5E628460391FFF7F5
:101FD000E1FBA8682B680399421C184418E72846BF
:101FE000FFF7D8FBAB6829685A1C194448E600BFC4
:101FF000CDCCCCCC58E000002DE9F041058ACE1CB8
:10200000043D2E440746B6FBF5F6FFF78BFB78B38D
:10201000F6B24FF48073013E0446C58007608380AA
:1020200027D08046002509E06379AE4203F1010321
:102030006371C8F80000076080461AD03846FFF781
:1020400071FB01350028EFD16679721E14D023464A
:10205000013082421B68FBD11F684EB10025236806
:102060002146013538461C46FFF77EFBAE42F6D1CD
:1020700000242046BDE8F0812768EFE70430012105
:10208000FFF720BBF8B5012104460430FFF726FB1B
:10209000C0B200B1F8BD6679721E12D0234601307D
:1020A00082421B68FBD11F68002EF3D000252368F5
:1020B0002146013538461C46FFF756FBAE42F6D1A5
:1020C000F8BD2768F2E700BF2DE9F843C7884679D5
:1020D00007FB06F6043E02EB030C0446664503F1DB
:1020E000040015468846B0FBF7F238BFF51A07FB27
:1020F000120012B1013A2468FCD13E1AAE4228BF48
:102100002E469DB14FF000090430AD1B20443246ED
:1021100008EB09010AF073FAAF42B14424683E4665
:102120004FF0000028BF2E46002DEDD1BDE8F8830A
:102130002DE9F843C7884679154607FB06F6043EA5
:1021400005EB030C1A1D664504468846B2FBF7F002
:1021500038BFF51A07FB102110B101382468FCD1F3
:102160007E1AAE4228BF2E469DB14FF000090431C1
:102170002144AD1B324608EB09000AF040FAAF4299
:10218000B14424683E464FF0000128BF2E46002D82
:10219000EDD1BDE8F88300BF10B570B101280BD1B7
:1021A0000D4C2369A0703BB1D3E9002301202261CB
:1021B00098472369002BF7D110BD074CA368012273
:1021C0006270002BF8D0D3E900230020A26098476A
:1021D000A368002BF7D1EFE7D408002038B50A4CEC
:1021E00023786BB909486360A3602361E36000F062
:1021F000A7F8054600F0B2F801232370284638BD41
:102200008525284638BD00BFD4080020992100004C
:1022100038B5154CA378054673B110B14368012059
:1022200098470020FFF732FAE3680133E3600020AB
:10223000BDE83840FFF732BA03F0FF00FFF726FA97
:1022400065B1226942B1954208D0134601E09D4232
:1022500004D01B68002BFAD12A602561E368002BAB
:10226000E2D100F08DF8DFE7D408002038B5084C43
:102270000020FFF70BFAE368013BE360E56815B95E
:1022800000F096F8A5700020BDE83840FFF706BAC8
:10229000D40800204FF08043D3F81804C0F3004066
:1022A000704700BF38B5154C6378054673B110B15F
:1022B0004368002098470020FFF7E8F9636801337E
:1022C00063600020BDE83840FFF7E8B903F0FF0085
:1022D000FFF7DCF965B1A26842B1954208D0134618
:1022E00001E09D4204D01B68002BFAD12A60A56052
:1022F0006368002BE2D100F067F8DFE7D408002024
:1023000038B5084C0020FFF7C1F96368013B6360F2
:10231000656815B900F06AF865700020BDE83840BE
:10232000FFF7BCB9D40800204FF08043D3F80C0469
:1023300000F00110A0F10110B0FA80F040097047E0
:10234000054A13792BB90121106053711846117198
:1023500070478520704700BFE8080020074B1A68C7
:10236000D20704D4C021012283F800131A604FF071
:1023700080430122C3F81825704700BF00E100E048
:1023800010B4094B094A0021196083B01B680193FE
:10239000019C4FF0804102200123C1F80403136027
:1023A00003B05DF8044B7047040100400800004092
:1023B000044B01221A604FF08042D2F81834DB033C
:1023C000FBD470470C000040074B00221A6082B01B
:1023D0001B68019301994FF080430122C3F8042345
:1023E0001A6002B0704700BF00010040074B012295
:1023F0001A604FF08042D2F80C3403F00113B3F1AD
:10240000011FF8D0024B00225A71704704000040AF
:10241000E808002010B5154B1A6882B07AB1002187
:10242000134A19601B68507900934FF080410123D3
:10243000009CC1F8083310B91168537188470D4BDF
:102440001A6882B100221A601B6801934FF0804223
:102450000221074B0198C2F808131B68012002B043
:10246000BDE81040184702B010BD00BF0001004099
:10247000E80800200401004030B5204C94F86A5070
:1024800083B0002D36D14FF0FF332946062204F1E8
:102490006400C4E90033C4E90233C4E90433C4E985
:1024A0000633C4E90833C4E90A33C4E90C33C4E988
:1024B0000E33C4E91033C4E91233C4E91433C4E958
:1024C000163323660AF0BFF80D4A0E4B0E491D6005
:1024D000C02082F80603402010601B680193019819
:1024E0004FF000430122284684F86A20C1F80433E3
:1024F00003B030BD082003B030BD00BFF00800209D
:1025000000E100E07C61004000600040034B93F874
:102510006A00003018BF0120704700BFF00800209B
:10252000F0B5744B1C1894F93050002D6ADA8E788F
:10253000C6F340069646002E5ED11D6A013500F0B6
:10254000C48009240C2553F8247001375DD004F1B0
:10255000010C53F82C70013700F0C280A71CAF4269
:1025600048D253F82720013200F0BC8004F1030C5C
:10257000AC453FD253F82C70013700F0B18004F124
:10258000040CAC4536D253F82C70013700F0A8800B
:1025900004F1050CAC452DD253F82C70013700F036
:1025A0009F8004F1060CAC4524D253F82C700137FF
:1025B00000F0968004F1070CAC451BD253F82C7048
:1025C000013700F08D8004F1080CAC4512D253F8AD
:1025D0002C70013700F0848004F1090CAC4509D25D
:1025E00053F82C7001377BD00A34AC4202D2DC6A3B
:1025F000013409D00420F0BD1D68013574D00124D8
:102600000825A0E70820F0BD0B241F1865B243F889
:1026100024E087F83050002E5ED08A7854071AD410
:10262000D60741D41F284A7887BF334E00F01F04D5
:1026300004464FF0A04604F5E074920046F82420CA
:102640002E4EC40800F0070C375D012202FA0CF28E
:102650003A4332558A780C7812F0020209D1083DCB
:102660002B44104693F8602042EA841483F86040BB
:10267000F0BDAB0003F1804303F5C0430202D3F881
:10268000101521F44F3121F44071C3F810152404C2
:10269000D3F8101504F4403402F47C5222430A4368
:1026A000C3F810250020F0BD1F2887BF124A00F094
:1026B0001F0404464FF0A04202EB8402D2F8004708
:1026C00024F00204C2F80047BAE7082684F8306014
:1026D000C3F820E0354634461C4484F858009CE793
:1026E000644692E73C4690E700251A6084F8305033
:1026F00093E700BFF00800200003005054090020B9
:1027000070B43A4D2E1883B096F93030072B20DD87
:102710002B4493F858309B09032B45D0012B14BF51
:102720004FF440314FF400311F284DD900F01F0005
:102730002F4B03EB8000D0F8002722F44032C0F882
:102740000027D0F800370B43C0F8003703B070BC47
:102750007047DAB2072AF9D8980000F1804000F5F6
:10276000C04003F14002D0F81045920092B244F00C
:10277000010402F18042C0F8104502F5C042002079
:102780000190019C10600029E0D096F9302055F8A6
:102790002220002ADAD00122164902FA03F3C1F8F6
:1027A000043303B070BC70471F2810D9104BD3F806
:1027B000103500F01F00C34013F0010F0CBF4FF4A1
:1027C00000314FF44031B3E74FF0A043B1E74FF091
:1027D000A0421346D2F81025C24012F0010F14BFD8
:1027E0004FF440314FF40031A3E700BFF008002060
:1027F00000030050006000401F288ABF054B4FF0C7
:10280000A04300F01F00D3F8103523FA00F000F0C9
:1028100001007047000300502DE9F047002388B005
:10282000CDE90233CE4A1668012E00F03B821E46E7
:10283000CC4B1A68012A00F02782CB4B1A68012A78
:1028400000F01482C94B1A68012A00F00182C84BBB
:102850001A68012A00F0EE81C64B1A68012A00F0BE
:10286000DB81C54B1A68012A00F0C881C34B1A6886
:10287000012A00F0B581C24B1A68012A0FD100224B
:102880001A601B6801934FF0A042019BD2F81025FB
:10289000BC4B0292D3F81035039346F0004616F075
:1028A000FF0F1AD0B84F00240125A30003F1804385
:1028B0002E4203F5C0434FEA45050BD0D3F810056F
:1028C00057F82420D3F81015C0F30520C1F30141B7
:1028D00002B190470134082CE7D1002E02DB08B08A
:1028E000BDE8F087A84CA74F4FF0FF33CDE9063382
:1028F00094F960300DF1100800225D1CC8F8042026
:1029000004924FF0010600F0F4805FFA83FC2CF093
:10291000C00008AB4FEAD00903EB090E0CF0070327
:102920001EF8082C06FA03F312EA030521D0221838
:102930004FEA9C1192F9302054F82220002A00F02E
:102940002981032900F028811F2800F2F98005461B
:102950004FF0A04C0CEB850C1EF8185CDCF800E77F
:102960001D40CEF3014E40F0DF80BEF1030F00F0BA
:10297000BF8194F96130581C32D0DBB223F0C00023
:1029800008AA4FEAD00E02EB0E0C03F007011CF868
:10299000082C06FA01F912EA090F21D02218990928
:1029A00092F9302054F82220002A00F0FB800329FD
:1029B00000F0FB801F2800F2E98003464FF0A04E94
:1029C0000EEB83031CF818ECD3F800C71EEA090FBE
:1029D000CCF3014C40F0B880BCF1030F00F0AE81A5
:1029E00094F96230591C30D0DBB223F0C00008AA41
:1029F0004FEAD00E02EB0E0C03F007011CF8082C76
:102A000006FA01F912EA090F1FD02218990992F962
:102A1000302054F82220002A00F0D880032900F04A
:102A2000D8801F287CD803464FF0A04E0EEB8303BE
:102A30001CF818ECD3F800C71EEA090FCCF3014CC0
:102A400064D1BCF1030F00F0658194F963305A1C26
:102A500034D0DBB223F0C00008AA4FEAD00E02EB5C
:102A60000E0C03F007021CF8081C06FA02F21142D1
:102A700024D004EB0009990999F9309054F8299071
:102A8000B9F1000F00F09880032900F098801F280A
:102A90008BBFBE464FF0A04E03F01F0303460EEB64
:102AA00083031CF818ECD3F800C71EEA020FCCF31E
:102AB000014C20D1BCF1030F00F00181002D3FF447
:102AC0000EAF4FF0A0430299D3F81035D7F8102578
:102AD000994203D1039991423FF401AFDDE904012A
:102AE000CDE9023294F960305D1CCDE906017FF436
:102AF0000CAF00253DE7BCF1020FDFD1032900F048
:102B00003481B9F1000F40F0F180D7E7BCF1020F3A
:102B10009BD1032900F02681002A96D0904794E7A4
:102B200003F01F03BE4681E7BEF1020FE1D1032986
:102B300000F021810025002A3FF41BAF904718E7E1
:102B40000CF01F05BC4605E7BCF1020F7FF448AF4F
:102B5000032900F00D81002A3FF442AF90473FE780
:102B60000061004004610040086100400C610040C9
:102B70001061004014610040186100401C61004079
:102B80007C61004000030050F008002003F01F03A8
:102B9000BE4615E70329ACD118F809501D4308F8C3
:102BA0000950D1E603297FF41BAF18F80EA04AEABA
:102BB000090A08F80EA0FDE603297FF47FAF18F894
:102BC0000EA04AEA020A08F80EA060E703297FF483
:102BD0003CAF18F80EA04AEA090A08F80EA020E750
:102BE000664AD2F8042317067FF545AE00221A6024
:102BF0001B680093009B46F080063CE65F4AD2F8D3
:102C0000042352067FF532AE00221A601B6800933F
:102C1000009B46F0400629E6584AD2F80423910664
:102C20007FF51FAE00221A601B680093009B46F0E0
:102C3000200616E6514AD2F80423D0067FF50CAEE2
:102C400000221A601B680093009B46F0100603E602
:102C50004A4AD2F8042314077FF5F9AD00221A601E
:102C60001B680093009B46F00806F0E5434AD2F843
:102C7000042355077FF5E6AD00221A601B68009318
:102C8000009B46F00406DDE53C4AD2F80423970792
:102C90007FF5D3AD00221A601B680093009B46F0BD
:102CA0000206CAE53549D1F8041311F0010104D038
:102CB000136013680093009BBAE50E46B8E503293C
:102CC0007FF41FAF4FF4003CD3F8002722F44032CA
:102CD000C3F80027D3F80027013542EA0C02EDB211
:102CE000C3F80027B9F1000F3FF4EBAEC847E5E6A3
:102CF00003297FF420AF4FF40035DCF8003723F4CC
:102D00004033CCF80037DCF800372B43CCF80037E1
:102D1000012510E703297FF4FFAE4FF4003ED3F8FE
:102D200000C72CF4403CC3F800C7D3F800C70135F6
:102D30004EEA0C0CEDB2C3F800C7EDE603297FF4B0
:102D40000AAF4FF4003ED3F800C72CF4403CC3F860
:102D500000C7D3F800C701354EEA0C0CEDB2C3F83A
:102D600000C7F8E64FF4403ED9E74FF4403CABE7EC
:102D70004FF4403EE7E74FF44035BEE700600040C7
:102D80000220FDF71DBB00BF2DE9F0470D460646AA
:102D9000FDF730FB03281ED8012D04461DD00ED3AD
:102DA000022D18D11B4B00EB40041C44657895B1F3
:102DB000194B1B687BB12846BDE8F04718471748F8
:102DC000FEF730FC134B164A04EB44010B44125D32
:102DD0009D78AA42EBD0BDE8F0870E4F4FEA40083D
:102DE00008EB0003FA18FD5C53782BB9A044474464
:102DF0000B4BBA781A55DAE7DFF8289007484A46AD
:102E00004FF40041FEF7C0FB0028EFD189F80060C5
:102E1000ECE700BFC0090020D40900208009002091
:102E2000DC0900205C09002010B50078FDF7E2FA0B
:102E300003280BD8064B00EB40001844407828B11B
:102E4000044B1B6813B1BDE81040184710BD00BF0C
:102E5000C0090020D4090020B44B1B68DB0700D454
:102E6000704770B5B24DB34E2B7834786BB1B24B1E
:102E70001B7800202870002B4BD0FDF761FA012051
:102E8000FDF75EFA0320FDF75BFA172C40D8DFE868
:102E900014F0B600F400F400DC000801CA001301CD
:102EA000EE0050004300500043006100180018007D
:102EB000180018001800660077008B009F005D0066
:102EC0005D009E48FEF7AEFBD4F11104054600F00C
:102ED0000081002840F0FD80012C13D0C82303FBA3
:102EE00004F44FF4FA704FF400430021C3FB0401D3
:102EF0004FF47A7200230AF07DFE2A4601468F487D
:102F0000FEF742FB0220FDF707FA8B4B01221A70F5
:102F100070BDFDF729FAB8E7012318462B70FDF7BD
:102F20004FFA00224FF480418548BDE87040FEF71B
:102F30002BBB012318462B70FDF742FA002240F606
:102F4000CD417F48BDE87040FEF71EBBFDF722FA79
:102F5000347070BDFDF71EFA0C23337070BD764BD4
:102F60001B78002B00F0BF800020FDF7E9F901205D
:102F7000FDF7E6F90320FDF7E3F91223337070BD86
:102F80006D4B1B78002B00F0B1800020FDF7D8F9C5
:102F90000120FDF7D5F90320FDF7D2F90020FDF758
:102FA000BBF91323337070BD634B1B78002B00F00B
:102FB000AD800020FDF7C4F90120FDF7C1F9032021
:102FC000FDF7BEF90120FDF7A7F91423337070BD9A
:102FD000594B1B78002B00F083800020FDF7B0F9DF
:102FE0000120FDF7ADF90320FDF7AAF90020FDF758
:102FF00093F90120FDF790F91523337070BD4E4B06
:103000001B78002B00F08A800020FDF799F9012041
:10301000FDF796F90320FDF793F94948FEF702FB07
:103020000023337070BD0020FDF762F9002860D0E6
:103030000020FDF785F905233370002241F69A112F
:103040003F48BDE87040FEF79FBA0020FDF750F9F9
:1030500000285ED00020FDF773F946F26661032375
:10306000337000223648BDE87040FEF78DBA00206C
:10307000FDF752F90723337070BD0020FDF738F9D2
:10308000D0B30020FDF75CF9022C4EF2666118BF48
:103090004FF40031347000222948BDE87040FEF73B
:1030A00073BA0020FDF724F9D8B30020FDF748F9E2
:1030B0004FF400310423D3E70020FDF781F9062304
:1030C0003370002240F6CD411D48BDE87040FEF748
:1030D0005BBA0220FDF734F9174B00221A7070BD5D
:1030E000FDF742F982E7FDF73FF946E7FDF73CF9C6
:1030F00054E7FDF711F99EE7FDF70EF943F233317E
:1031000041F69A13022C08BF1946C3E7FDF72CF9C4
:1031100058E7FDF701F941F69A11A0E7FDF724F908
:103120007BE7FDF7F9F843F23331C3E7CC09002020
:10313000D0090020D80900205D0900206009002086
:10314000A009002038B5244B244A19608307106079
:1031500000F0010503D4CDB92C46204638BD204BE4
:1031600020480E240F2210211C701124DA7099714E
:103170005C7240F266620421FDF7D0FE0446B8B1ED
:1031800015B10120FDF748F9204638BD0120FDF7B3
:1031900043F9154A15480021FEF7E4F904460028D2
:1031A000F2D1134A13480121BDE83840FEF7DAB9DD
:1031B000FDF70CFF04460028E2D101460E4A0F48F5
:1031C000FEF7D0F90446002DDED00120FDF724F9EA
:1031D000002CD9D1DDE700BFD4090020CC090020A4
:1031E000C009002080E00000592E0000A8E0000087
:1031F000812D0000A0E00000292E0000A4E00000C6
:1032000038B5FEF75BF908B1FDF7F6FE00230120A3
:103210004FF0A041032204E015F4F03F18BF41F83D
:1032200024200133202B00FA03F503F5E074F3D1D9
:103230004FF0A0434FF4F0310022C3F808150120ED
:103240001146C3F80C25FFF77DFF08B1FDF7D4FE4A
:10325000104C00250021084605F0CEF802F03BFE98
:10326000206000F055FA09E0206803F080FA206839
:1032700005F0F0F8206803F086FA40B105F0E4F8B4
:103280000028F1D0206802F02AFE2560E2E720BF86
:10329000F4E700BFE00900202DE9F84F4400DFF813
:1032A0005CB126180BEBC6068146F76A012F8A46E9
:1032B000904667D03DD3022F30D100F1010909EBD0
:1032C0004909756A4FEAC9090027B36A346AAB42F3
:1032D00003F1FF329CBF1B1903F1FF33A4EB05047C
:1032E0008CBF531B5B1B0BEB0902444528BF4446B4
:1032F0009C42506828BF1C4628445146224609F08B
:103300007EF9336A25449D422744A8EB0408A24471
:1033100008D07562B8F1000FD7D100E00027384619
:10332000BDE8F88F00231D467362B8F1000FCCD1C1
:10333000F5E7B36A756AAB429CBF326A9B18013BE2
:103340005B1B9845EBD8044400F101090BEBC40466
:1033500009EB49090BEBC90B266ADBF80400761B65
:10336000B045284443D33246A8EB060509F047F997
:103370000AEB0601DBF804002A4609F040F947464B
:103380006562CCE7D6E90825B76AAF4298BFBF1897
:10339000461C013F06EB46067F1B0BEBC606474566
:1033A00028BF47467068A2EB05084745284412D35A
:1033B000A1444246A7EB08050BEBC90B09F01FF926
:1033C0000AEB080170682A4609F019F9CBF8245075
:1033D0003846BDE8F88FA1440BEBC90B3A463D4493
:1033E00009F00DF9CBF824503846BDE8F88F424675
:1033F000454409F004F94746656290E7C01E002085
:103400002DE9F0412B4C94F800C00546884616463D
:103410001F46BCF1000F23D02369AB4246D90020E0
:10342000FEF734F95DB92A46154404EBC504069B42
:10343000E3620020FEF732F90020BDE8F0816B1C4A
:1034400003EB4303DB006A00511904EBC10144F8AC
:103450000380234400200F625E6088624862E3E7D5
:10346000154B1648A3610222C4E904224FF40071EF
:10347000134AA3641023C4F828C02365C4F824C0E9
:10348000C4F82CC0C4F858C0C4F854C0C4F85CC018
:10349000E0612162E2640B49E01D09F039FC0A4950
:1034A000204609F035FC2023A371B5E74FF0FF302B
:1034B000C3E700BFC01E0020ACE00000F4090020FC
:1034C000E4090020B8E00000BCE0000010B44FF0B8
:1034D00080414FF080520020C1F80C015E4BC1F8D2
:1034E0001001C1F83805D2F80414C3F82015D2F839
:1034F0000814C3F82415D2F80C14C3F82815D2F810
:103500001014C3F82C15D2F81414C3F83015D2F8DF
:103510001814C3F83415D2F81C14C3F84015D2F8A7
:103520002014C3F84415D2F82414C3F84815D2F86F
:103530002814C3F84C15D2F82C14C3F85015D2F83F
:103540003014C3F85415D2F83414C3F86015D2F807
:103550003814C3F86415D2F83C04C3F86805D2F8EF
:1035600040043E49C3F86C050968D2F84424C3F806
:103570007025082924D04FF08043D3F80024D207C7
:1035800044BF6FF00102C3F80024354AD2F88830F6
:1035900043F47003C2F88830BFF34F8FBFF36F8FCF
:1035A0004FF01023D3F80022002A23DBD3F8043293
:1035B000002B1FDB2B4B2C4A1A605DF8044B704725
:1035C0002A4B1B68002BD6D129482A4A2A4C046072
:1035D0002A492B4BFB20C2F818050A681B682948AA
:1035E00022F00F0203F00F0313434FF400720B603D
:1035F0000260C0E7244B0122C3F80425D3F800245D
:10360000002AFBD04FF0102312221F49C3F80022DA
:10361000D1F80034002BFBD04FF0102212211A4BAE
:10362000C2F80412D3F80024002AFBD00022164965
:10363000C3F80425D1F80034002BFBD0BFF34F8F23
:103640000749124BCA6802F4E0621343CB60BFF330
:103650004F8F00BFFDE700BF00C0004030010010E9
:1036600000ED00E0080000200090D00334010010BD
:103670008C56004000F0004048810300E40E0040FA
:10368000580200104096024000E001400400FA0594
:1036900038B504460D4600F05BFA04F55D7104F59B
:1036A000567000F04AF9234604F58061154A04F586
:1036B000587000F09CF904F27A33C4F8743304F2C1
:1036C00006428023A4F87833C4F8002400234FF482
:1036D000007284F8FC3384F8FD33A4F8042484F8E1
:1036E000083629462346084A04F20C6002F0EFFF30
:1036F00022460649201D01F0D5FD04F023FF204697
:1037000038BD00BF1D3900001338000043370000EA
:1037100010B5054C01462046FFF7BAFF00F0ACFAA1
:10372000844200D0FEE710BDF80B0020D0F87423CF
:1037300000F27A339A4203D100F20C6002F0EEBF3D
:103740007047FFF7F3BF2DE9F8430446051D00F568
:1037500056764FF002080127284601F0CBFE94F878
:10376000FC3390B1022B18D1012B21D3022BF3D1C2
:10377000304600F01DF980B994F8083684F8FC034F
:10378000002BE9D084F80806E5E7012BEDD194F889
:10379000FD13304600F0DEF8F8B1D4F8741304F2EB
:1037A0007A30091A89B291B304F060FF78B3FEE76A
:1037B000204600F067FA08B104F04AFA204600F00B
:1037C0006BFA0028E9D1304600F0BBF80028E4D1BC
:1037D000284601F024FF84F8FC73284601F036FFE8
:1037E00028B9284601F03BFF84F8FD03CFE794F8A1
:1037F000C090284602F030F8B9F1000F04D094F8D8
:10380000C0300BB984F8087684F8FC83B0E7BDE8D3
:10381000F88308B500F030FABDE80840FFF793BF21
:1038200000F27A33C0F874338023A0F8783300F2C2
:103830000C6002F073BF08B500F01EFA18B1BDE8C5
:103840000840FFF7EDBF08BD38B504460D4600F04F
:1038500013FA38B12A46214600F55870BDE83840C1
:1038600000F0CEB838BD0000F0B50C46A1B0164649
:103870001F4600F01BFA2346194A1A4D802168465C
:1038800009F008FA684609F04BFA6946024600203A
:1038900001F0C0F80024BC42A0B20ED0292C0BD0FD
:1038A000A4EB840104EB4400335D2A468031684474
:1038B00009F0F0F90134EEE7204600EB4000C0F1DA
:1038C0008001094A684409F0E5F9684609F028FAD8
:1038D0000DF10101421E002001F09CF821B0F0BD65
:1038E000C4E00000D8E00000DEE0000038B5D0F809
:1038F000003400F206455B1B04469BB251B91A46E0
:10390000294600F0C0FF4FF40073C4F80054A4F837
:10391000043438BD2A46FFF7A7FFF4E7FFF7E6BFF8
:10392000838843B103685A1C026019708388013B85
:10393000838000207047032070470022016082804E
:10394000704708B54FF6FF7383807E210068FFF74C
:10395000E7FF08BD38B57E2905460C4600680AD841
:103960007D2903D2112901D0132906D18388012B87
:1039700008D8032005E0F829F7E72146FFF7D0FF34
:1039800040B138BD7D21FFF7CBFF84F020012868CE
:10399000FFF7C6FFAA88054B5440E4B2002033F875
:1039A000143083EA1223AB80EBE700BFE2E00000B3
:1039B0002DE9F04186880368F543ADB2E9B20446CB
:1039C0001F68B3F80480FFF7C5FF48B9290A2046ED
:1039D000FFF7C0FF20B97E212068FFF7A1FF20B1CB
:1039E00023681F60A3F80480A680BDE8F08130B58D
:1039F00000250570C0E90112C0E9033530BD0000A3
:103A00002DE9F843374E04460D468F184FF0020853
:103A1000AF4265D0237815F8011B012B24D01BD3AE
:103A2000022BF5D16068B0F80490B9F1000F50D0C6
:103A3000B4F810C081F0200181EA0C02D2B236F84D
:103A4000123083EA1C232382FFF76AFF638A013363
:103A5000638201232370DBE77E29D9D10123237000
:103A60004FF6FF732361D3E77D2917D07E2918D045
:103A70006068B0F80490B9F1000F2AD0B4F810C013
:103A800081EA0C02D2B236F8123083EA1C23238278
:103A9000FFF746FF638A01336382B9E784F8008049
:103AA000B6E7638A002BDBD0012B10D9228A4FF2B4
:103AB000B8039A420BD163681A68023A1A609A886E
:103AC00002329A800021D4E902309847C8E70621E3
:103AD000F9E7A368E0680321984784F8009097E726
:103AE000BDE8F883E2E0000021282CD8DFE800F0F0
:103AF0002E1113152B17191B2B2B2B2B1D1F2123BD
:103B00002B2B2B2B2B2B2B27252B2B2B2B2B2B2B0F
:103B10002B29012070470E2070470B2070470C2086
:103B20007047092070470320704702207047042027
:103B300070471120704712207047132070471420DF
:103B400070471520704700F580407047002070478F
:103B50002DE9F0410646044646F8041B4FF4007276
:103B6000884600F1F901304601F081FB0025A66787
:103B700004F17C0304F19C02C3E9005508339A4226
:103B8000FAD1A4F89C50C4E9285504F1A80001F02A
:103B9000CBFE344BC4F8C830C823A4F8CC3004F1B1
:103BA000D4074FF6FF73A4F8D0302F4A84F8C050E2
:103BB0002346C4F8C45084F8CE5084F8CF50414610
:103BC000384602F084FD00230022C4E93823C4E90A
:103BD0003A23042384F8F030244BC4F8DC501B68EB
:103BE000C4F8F4304FF47F43A4F83E33236884F8DC
:103BF000F85084F8F95284F8FA5284F8FB5284F8A9
:103C0000385384F8395384F83A5384F83B5384F892
:103C10003C5384F83D5384F84053C4F84453C4F8EB
:103C20004853C4F84C53C4F8505384F8545303B960
:103C3000FEE70F4B0F491C602246304601F035FB72
:103C40003C22002104F53F7008F0FDFC77220021A2
:103C500004F1E00002F040F8384602F05FFD204633
:103C6000BDE8F08100F8FF0701400000F0E200002D
:103C70001012002067400000014B1868704700BF19
:103C80001012002090F8F030042B1ABF90F8C000FA
:103C900080F001000020704790F8F030012B06BF43
:103CA00090F8C00080F0010000207047D0F8443345
:103CB0000133C0F8443370472DE9F843994690F832
:103CC0003C3304469046002914BF0F46702713B1B9
:103CD0000D20BDE8F88300F1E0053946284602F0E2
:103CE00091F80028F4D194F8FA2294F8FB329A4221
:103CF0000AD00B220021284601F0EEFF04F1D40087
:103D000002F00CFD0320E4E704F178063B460622AE
:103D10008021304601F0ADFF48B91FFA89F24146D3
:103D2000A06F01F06CFD10B9304601F085FF03284B
:103D3000CFD1DEE70138C0B204289ABF014B185C2E
:103D400000207047EBE20000F8B511F00F0508D134
:103D5000022A04D11A462946E03001F0BDFF284668
:103D60000CE090F8FB6290F8FA72F41B0E2C06DD62
:103D7000E0300E22002101F0AFFF0320F8BD90F8E3
:103D8000F942AC4217D0BE4215D93C460E2C02D99E
:103D90000F3CE4B2FAE7BE3400EB840494F804C0AC
:103DA0001CF0100F0DD00CF00F0EAE4509D16FF3C3
:103DB000041C84F804C034460E2C05D90F3CE4B230
:103DC000FAE70137FFB2DEE7BE3400EB84040136C8
:103DD000257961F30305E9B241F0100162F3461160
:103DE0002171626863F3DE12626080F8FB6200207A
:103DF000C4E713460222FFF7A7BF38B511F0300F12
:103E000000F1780408BFC0F8C4201546002306223C
:103E1000204601F02EFF48B92946204601F081FED8
:103E200020B92046BDE8384001F006BF38BD2DE975
:103E3000F74304460E46014668469146984600F010
:103E4000FBFDDDE900570DB9F90717D504F1780836
:103E50004B4606223146404601F00BFFD8B97B1095
:103E6000FA0704EB030044BFE3585D59A84790B933
:103E7000404603B0BDE8F04301F0DEBEB8F1000FEC
:103E800007D00D223146204603B0BDE8F043FFF7CE
:103E9000B4BF4246F6E703B0BDE8F08370B5044610
:103EA000002694F8FA5294F8FB32AB4237D0BE3574
:103EB00004EB85021379D90616D404EB85052B791A
:103EC0006FF304132B7194F8FA320133DBB20F2B2A
:103ED00084F8FA32E5D194F8FB3284F8FA620E2BBA
:103EE0001AD90F3BDBB2FAE7C3F30301526803F0C0
:103EF0006003402B41F08001C2F3D71205D1204668
:103F0000FFF77BFF0028D8D070BDB3FA83F35B09BD
:103F10002046FFF78CFFF5E784F8FB32C1E700206D
:103F2000F2E700002DE9F04FD0E93823134385B0C4
:103F3000044651D0E03001F0CCFE2F4F0190002517
:103F4000019AEBB2934247D2D4E93803C5F120017C
:103F500003FA01F1A5F1200220FA05FA23FA02F290
:103F60004AEA010A4AEA020A00230AF0010213435C
:103F7000A5F12003C5F12006029301D10135DFE749
:103F80000C236B43D919DA5962BB4A68772A09D1E5
:103F90002068039203F042FE082898BF174B039A4B
:103FA00098BF1A5C80212046FFF727FFA0B9029A2C
:103FB000012303FA02F923FA06F603FA05F8D4E915
:103FC000382349EA060922EA080023EA090150EAEF
:103FD0000103C4E93801D1D1012384F8543305B079
:103FE000BDE8F08F94F85433002BE0D001238021FA
:103FF0002046FFF71CFFD9E7F4E20000E2E20000F0
:10400000014B1868FFF78EBF1012002010B590F812
:10401000C030044633B1D0F8F4308B4204BF0023E3
:1040200080F8C0302046FFF739FFD8B994F8F8106F
:1040300099B101230C222046FFF7F9FE90B994F8BC
:10404000F03084F8F800042B07D0201D01F050FA5E
:104050000123C4F8F40084F8C0302046BDE81040C5
:10406000FFF760BF10BDFFF7D1BFF8B500F17804CE
:1040700005462046069EBDF81C7001F0FAFD50B9B9
:104080003A463146A86F01F0BAFB20B92046BDE898
:10409000F84001F0D1BDF8BD2DE9F04F042B87B0F9
:1040A00004460F46924602D0052B16D0FEE7014685
:1040B00004A800F019FEDDE904654FF0070905F0DA
:1040C000010B9EB9BBF1000F10D10D2239462046DD
:1040D000FFF78FFE07B0BDE8F08F014604A800F09F
:1040E00023FE4FF00809DDE90465E8E704F1A808BC
:1040F000404601F0D8FC0DF10A0203A9404601F048
:10410000B2FC404601F0D6FC6D10002384F83C332D
:104110006019BBF1000F01D063599E59B0470123CC
:1041200084F83C33054618B1FFF7DEFC0246CDE7C4
:10413000BDF80A300193039B00934A465346394623
:104140002046FFF792FF0028C4D02A46BEE708B5F4
:104150000022FFF74EFE08BD38B50446006801F0A6
:10416000C0FE722280212046FFF747FE054648B177
:1041700004F1E0007722002101F0AEFD04F1D4004B
:1041800002F0CCFA284638BD30B5C3B004460D461F
:10419000002301A9A830019301F047FC40B1FFF7CB
:1041A000A3FC294602462046FFF727FE43B030BD58
:1041B0008DF80701FF2202A90198783401F012FF5F
:1041C0004FF46F5306222946204601F052FD002885
:1041D000ECD102A9204601F0CFFC0028E6D1204610
:1041E00001F02AFDE2E710B50446006801F083FE05
:1041F0000146A06FBDE8104001F0EFBA10B50446CB
:10420000006801F0DEFE0146A06FBDE8104001F03D
:10421000E4BA000037B502A90023054641F8043D81
:10422000A83001F0DBFB044690B99DF80410286823
:1042300001F0C9FE044658B9286801F05CFE38B1A7
:1042400095F83A3323B10449286801F05FFE04462B
:10425000204603B030BD00BF2D4E000010B504460F
:10426000006803F0FBFD002818BF0221A06F08BF03
:104270000021BDE8104001F0B0BA37B502A9002313
:10428000054601F8013DA83001F066FB044650B92F
:104290009DF807301BB1022B08D8012100E0014630
:1042A000286803F0DDFD204603B030BD0724FAE79F
:1042B00010B5044654F8780B01F088FE01462046FC
:1042C000BDE8104001F003BC13B504460DF1060132
:1042D000A83001F06FFB20B9BDF80610206801F08E
:1042E00077FE02B010BD10B50446006801F073FE01
:1042F00008220146A06FBDE8104001F080BA13B556
:104300000822044601A9A83001F07FFB18B90199E1
:10431000206801F062FE02B010BD10B5044654F8EA
:10432000780B01F05DFE01462046BDE8104001F02B
:10433000CEBB90F83A13806F01F04FBA37B502A99F
:104340000023054601F8013DA83001F015FB0446A5
:1043500078B9286801F0CFFD38B19DF8073028689A
:1043600053B1074901F0D2FD04469DF8073085F8A6
:104370003A33204603B030BD01F0C2FDF4E700BF80
:104380002D4E0000F8B505460E460024012707FA19
:1043900004F33342E1B204D10134202CF7D10020E0
:1043A00004E0A86F01F019FA0028F5D0F8BD002349
:1043B000F7B505460C460B6000F1A8070126B5F8D5
:1043C000AE20B5F8B0309A420FD00DF10701384653
:1043D00001F0C2FA50B99DF807301F2B08D82268A7
:1043E00006FA03F313432360E9E7002003B0F0BDAE
:1043F0000720FBE7D0F8C810FFF7C4BF13B502A928
:10440000002341F8043D0446FFF7D1FF10B9019B9A
:10441000C4F8C83002B010BDB0F8CC10783001F04C
:1044200056BB00F1CC01A83001F0C4BA10B5044667
:10443000006801F060FD50B194F93F3301330CBFC7
:1044400000210221A06FBDE8104001F0C6B901466D
:10445000F8E7000037B502A90023054601F8013D41
:10446000A83001F079FA044628B99DF8073013B155
:10447000022B03D00C24204603B030BD286801F085
:104480003AFD0028F7D095F93F33013316D1D5F81E
:10449000C820AAB1531E134012D15208D9B203F159
:1044A000010009D185F83F33B5F8CC20054B2868C9
:1044B00001F037FD0446DEE70346EEE70D24DAE7B8
:1044C0000724D8E77D4F00002DE9F84F0546E0307E
:1044D00001F0FFFBDFF85890834600244FF00C0AF0
:1044E00005F17808E3B29B451FD9D5E93A23C4F119
:1044F000200022FA04F603FA00F0A4F1200123FAC6
:1045000001F106430E4306F001020023134301D1DB
:104510000134E7E70AFB04F3404653F8091001F0C1
:1045200000FB0028F4D0BDE8F88F0020FBE700BFB7
:10453000F4E20000F7B500230022C0E93A23044664
:1045400000F1A80700F1E006B4F8AE20B4F8B030EE
:104550009A420BD001A9384601F040FA054648B905
:1045600001220199304601F0F9FBEDE700252846CC
:1045700003B0F0BD012341F2080280212046FFF77D
:1045800056FCF4E713B5044601A9A83001F026FA59
:1045900028B90122019904F1E00001F0DFFB02B02B
:1045A00010BD13B5044601A9A83001F017FA28B9C7
:1045B0000246019904F1E00001F0D0FB02B010BD09
:1045C000D0F8C410783001F0ACBA10B500F178041E
:1045D0000421204601F0A5FA28B920460321BDE8B0
:1045E000104001F09EBA10BD0321783001F099BA55
:1045F0000021783001F095BA10B500F1780405215A
:10460000204601F08EFAA8B90C21204601F089FA63
:1046100080B91821204601F084FA58B92221204699
:1046200001F07FFA30B9204640F20121BDE8104088
:1046300001F077BA10BD10B5044601F055FC0146F3
:1046400004F17800BDE8104001F096BA0121806FB6
:1046500001F0C3B80021806F01F0BFB8212070477E
:104660000421806F01F0B9B80C20704713B50446DF
:104670006946006803F02CFB08226946A06F01F030
:10468000BEF802B010BD0221783001F010BB90F8E6
:10469000F010806F01F0A1B873B504460E46A83043
:1046A0000DF1070101F058F9A0BB9DF80730042B6C
:1046B00007D8012202FA03F111F01B0F02D14B07B8
:1046C00003D4032384F8F03001E084F8F0200023C1
:1046D00084F8F8300C22012331462046FFF7A7FB6F
:1046E00094F8F030042B054608D070B9201D00F076
:1046F000FFFEC4F8F400012384F8C03015B184F83B
:10470000F8600025284602B070BD074B1B68C4F84E
:10471000F430F0E7FFF7E8F9314602462046FFF7AC
:104720006CFB0546EEE700BFF0E20000712A10B511
:104730001C460CD0B2F56F5F06D00C2A0AD1FFF7E9
:10474000ABFF2070012010BDFFF71EFDF9E700F060
:10475000F7FCF6E70020F6E7F0B585B004460D4615
:104760000026014602A817468DF8076000F042FABD
:10477000DDE9022303F0010102B9C1B15B1084F845
:104780003C63E01809B1E3589A58904701228DF82C
:10479000070084F83C23C8B93B4629462046FFF76A
:1047A000D3FA8DF807009DF8070005B0F0BD0DF1B4
:1047B00007033A4629462046FFF7B8FF0028F2D102
:1047C0000D2229462046FFF714FBEAE7FFF78CF994
:1047D0000246F6E773B50D4602A9002341F8043DF1
:1047E0000446A830164601F0F9F8014650B1FFF72B
:1047F0007BF9294602462046FFF7FBFA01460846A8
:1048000002B070BDB31E032BF9D8DFE803F0020934
:104810000F0F019B002229462046FFF795FAEDE78E
:10482000019A29462046FFF797FFE7E73346019AAA
:1048300029462046FFF730FCE0E737B504460D4631
:10484000A83001A901F0CAF858B9019A052A14D86C
:10485000DFE802F003090E0E0E0E29462046FFF790
:1048600076FC03B030BD29462046FFF775FCF8E71B
:1048700029462046FFF7AEFFF3E7052229462046EA
:10488000FFF7B7FAEDE7F7B502AD0123002700F116
:10489000A806044680F83C3305F8017D304601F057
:1048A00050F8042384F8F03084F8C070294630466C
:1048B00001F052F880B99DF807100B060CD5D4F81A
:1048C000483311F0300F03F10103C4F8483308D026
:1048D00006222046FFF791FA002384F83C3303B008
:1048E000F0BD2046FFF7A9FF38B19DF80710FFF78C
:1048F000FBF802462046FFF77CFA94F8FA2294F877
:10490000FB329A4202D02046FFF7C8FA9DF80730E2
:1049100094F8F92203F00F0332B193421EBFD4F88A
:104920004C230132C4F84C230F2B14BF0133012355
:1049300084F8F932D0E700002DE9F0410446E03078
:1049400001F0C7F90C4E074600254FF00C087834EB
:10495000EBB29F420ED908FB05F39A19127A0AB9F5
:104960000135F5E79959204601F0DBF80028F7D02A
:10497000BDE8F0810020FBE7F4E2000010B504463A
:10498000006803F067FAC1B2A06FBDE8104000F004
:1049900024BF10B50446006803F062FCC1B2A06FEA
:1049A000BDE8104000F019BF13B504460DF1070132
:1049B000006803F0B5FA30B99DF80710A06F00F059
:1049C0000CFF02B010BDFFF78FF8014604F178002C
:1049D00001F06DF9F5E713B502A90023044601F8CB
:1049E000013DA83000F0DAFF20B99DF907102068DA
:1049F00003F0A0FA02B010BDFEE7FEE710B50446D2
:104A000001F07AFBFFF796F90146A06FBDE8104070
:104A100000F0E3BE10B41346064A0446106828B1FD
:104A20000A4621465DF8044BFFF746B90D205DF8B4
:104A3000044B704710120020262A7DD029D8072A5F
:104A40007ED011D8032A6FD006D8012A4FF0000378
:104A50007AD06BD9474A5AE0052A4FF0000355D067
:104A600040F28480444A52E00D2A6BD009D8092ACA
:104A70004FF000035CD053D30C2A53D000230360C3
:104A800046E0212A56D0252A58D0202AF6D13B4B81
:104A900041E0372A5ED014D8322A61D008D8302AB3
:104AA0004FF0000358D059D8272AE7D1344A2EE0D6
:104AB000352A4FF000034BD048D8342ADED1314A92
:104AC00025E041F20B239A4252D00BD841F2080361
:104AD0009A4247D041F209039A4245D0382ACDD1B3
:104AE000294B18E0B2F5804F14D005D841F20333BA
:104AF0009A42C3D1254B0EE044F201039A420DD0F5
:104B000044F202039A42B9D1214B04E0214A0260E7
:104B100043607047204B03600023F9E71F4BFAE71F
:104B20001F4AF4E71F4AF2E71F4BF4E71F4AEEE77C
:104B30001F4AECE71F4BEEE71F4BECE71F4BEAE782
:104B40001F4BE8E71F4BE6E71F4AE0E71F4ADEE797
:104B50001F4ADCE71F4BDEE71F4AD8E71F4AD6E7AC
:104B60001F4BD8E71F4BD6E71F4BD4E71F4ACEE7B2
:104B70001F4BD0E7374600004D460000E7410000DC
:104B800093490000E74200005D420000A14F000091
:104B9000FB490000F9450000F9490000FD4900000B
:104BA0006D4600008F460000E9450000C145000049
:104BB00087460000FD4100007D490000A949000032
:104BC0006146000055460000CB450000B1420000A0
:104BD0001B430000334300002D440000F543000058
:104BE00019440000C944000039490000F1450000A3
:104BF000894F0000342A46D01AD8212A3BD009D840
:104C00000D2A34D0202A4AD0072A08D1254B036028
:104C1000002336E0302A3AD004D8252A29D00023B0
:104C200003602EE0312A30D0322AF8D11E4BEEE755
:104C3000382A22D006D8362A4FF000031FD028D9B0
:104C40001A4A1DE041F203339A4224D005D841F2BA
:104C500008039A42E3D1164BD9E741F204339A4252
:104C60001BD041F205339A42D9D1124BCFE7124BF8
:104C7000CDE7124BCBE7124BC9E7124BC7E7124AFD
:104C8000026043607047114BC1E7114BBFE7114B06
:104C9000BDE7114AF4E7114BB9E7114BB7E7114BE8
:104CA000B5E700BF69460000234400003D43000013
:104CB000354500000F5000005D460000D749000058
:104CC000154200007B420000C9420000FF42000084
:104CD000FD4300005544000021510000AB4F00008F
:104CE000CB4F0000CD50000041F204339A420CD06B
:104CF00041F205339A424FF000030BD041F2080114
:104D00008A4209D1054A026002E0054B0360002394
:104D100043607047034AF6E70360F9E78545000002
:104D20008B500000A950000041F204339A420CD08D
:104D300041F205339A424FF000030BD041F20801D3
:104D40008A4209D1054A026002E0054B0360002354
:104D500043607047034AF6E70360F9E7A3450000A4
:104D6000515000006F500000F8B500F1780406467D
:104D70000D461746712306228021204600F079FF58
:104D8000002852D1002F47D12979204600F09FFEFC
:104D900000284AD1002F41D0297BB06F00F01DFDC3
:104DA000002842D18021B06F00F017FD0146002895
:104DB0003BD1204600F08BFE002836D1204600F083
:104DC000F3FE90BB6979B06F00F007FD68BB697BAB
:104DD000B06F00F002FD40BB2969204600F086FE5E
:104DE00018BBE989204600F072FEF0B9204600F0B9
:104DF000FAFED0B9204600F0D7FEB0B939462046B9
:104E000000F08FFE88B9204600F0EDFE68B920461C
:104E1000BDE8F84000F010BF0146B6E72A792968DE
:104E2000B06F00F0ECFC0028B6D0F8BD014B18685C
:104E3000FFF79ABF101200202DE9F04190F83E13C1
:104E4000054614469846002958D041F080011AB30F
:104E500013681F78C7F30017002305F1780685F85B
:104E60003E330622304600F004FF002846D140467B
:104E7000FEF73AFE0146304600F053FE00283DD1D1
:104E80003946A86F00F0A9FC002837D134B9304664
:104E9000BDE8F04100F0D0BE1746DDE7B8F1000FE5
:104EA000F5D12179304600F012FE38BB2279216815
:104EB000A86F00F0A4FC08BB217BA86F00F08DFC5C
:104EC000E0B98021A86F00F088FCB8B941463046AF
:104ED00000F0FDFD90B9304600F066FE70B96179D2
:104EE000A86F00F07AFC48B9617BA86F00F075FCF0
:104EF00020B9304600F077FE0028C8D0BDE8F08128
:104F000001480068FFF798BF10120020F8B5FF2392
:104F1000044690F93F7380F83F33054654F8780B08
:104F20000E46154900F0F2FF392306228021204663
:104F300000F09FFEF0B9F9B2A86F00F04EFCC8B9BE
:104F4000F1B2A86F00F049FCA0B9204600F074FE51
:104F500080B9802130230622204600F08AFE0146D7
:104F600040B9A86F00F039FC20B92046BDE8F840F0
:104F700000F062BEF8BD00BF2D4E0000014B186866
:104F8000FFF7C4BF1012002010B5044654F8780B88
:104F900000F0C4FF01462046BDE8104000F0C1BD4E
:104FA00090F84013806F00F018BC10B500F55071F8
:104FB0000446A83000F0E0FC30B994F840132068B3
:104FC000BDE8104000F0B0BF10BD73B504460068E6
:104FD00000F0E5FF0546B8B904F1A806B4F8B03012
:104FE000B4F8AE209B1A9BB2012B0DD90DF106012E
:104FF000304600F0DFFC30B9BDF80610206800F044
:105000009CFF0028EAD00546284602B070BD73B563
:105010000446006800F0CCFF0546B0B904F1A806CC
:10502000B4F8B030B4F8AE209B1A9BB2072B0CD961
:10503000082201A9304600F0E8FC28B9019920684F
:1050400000F081FF0028EBD00546284602B070BD75
:1050500013B504460DF10601A83000F0ABFC20B9F1
:10506000BDF80610206800F081FF02B010BD13B536
:105070000822044601A9A83000F0C7FC18B901991C
:10508000206800F079FF02B010BD13B504460DF1A1
:105090000601A83000F08EFC20B9BDF8061020688B
:1050A00000F04BFF02B010BD13B502A90023044667
:1050B00041F8043D0822A83000F0A7FC18B9019976
:1050C000206800F040FF02B010BD000013B502A937
:1050D0000023044601F8013DA83000F04DFC60B902
:1050E0009DF80730206853B994F83A330BB100F0BB
:1050F00007FF0021206800F0FBFE02B010BD012177
:1051000000F0F6FE0028F8D194F83A33002BF4D0E2
:105110000249206800F0FAFEEFE700BF2D4E0000C4
:1051200013B504460DF10601A83000F043FC20B988
:10513000BDF80610206800F0E0FE02B010BD0000CF
:10514000F7B500230446006801930F46ADF802301E
:1051500000F0D1FE78B3264656F8A80B00F0D9FE31
:105160000DF10202054601A9304600F087FCC8B9DE
:10517000691D304600F0F0FBA0B9BDF802207F2A7F
:105180001BD807F00F0384F83E3301992A71286871
:1051900007F035FA4FF44873AB810949206800F0F5
:1051A000BAFE30B1FEF7A0FC394602462046FEF7B3
:1051B00024FE03B0F0BD0D20F4E70620F2E700BFA7
:1051C000014F000070B50368C3625A1E04461146C1
:1051D0008B4202D920890144FAE72163022184F835
:1051E0002410C4E90D330021E16384F8401084F8F1
:1051F00041104FF6FF71A4F842106364934202D944
:1052000021890A44FAE7C4E91223C4E914330023CC
:10521000A365A4F85C3004F15E03236704F128055C
:10522000284600F091FF0146E0B904F11C06304623
:1052300000F08AFF054668B92034204600F084FF5C
:10524000054698B10146204600F07CFF284600F054
:1052500067FFF2E70146304600F074FF284600F091
:105260005FFFE4E7284600F06DFFD9E770BD10B599
:10527000016011440446416002811C3000F05CFF73
:1052800004F1200000F058FF04F1280000F054FF62
:1052900000232046C4E90333C4E90533FFF792FF36
:1052A000204610BDC0E903127047C0E905127047DF
:1052B000012B0AD002D3022B0ED1FEE71144426823
:1052C0008A4209D80389C91AFAE7891A02688A4208
:1052D00002D903891944FAE708467047012B0ED01A
:1052E00002D3022B15D1FEE78A423FBF43685B1A07
:1052F0000168511A2CBF511AC91888B270478A42E6
:1053000081BF436800689A1A091A94BF891A8918DC
:10531000F3E70021F1E710B5144612120A700122DA
:10532000FFF7C6FF047010BD10B5134601220C78BC
:10533000FFF7BEFF00782402204480B210BD2DE9A3
:10534000F041476B90F82480826B0E464346394605
:105350000446FFF7C3FF0128054614D942463946E3
:105360002046FFF7E1FF023DC5F30D05354340EA56
:105370000502434692B239462046FFF7CCFFA36BA5
:105380006363BDE8F081A763FBE72DE9F04790F880
:105390002460022E80460F4691461C4622D04D685E
:1053A000436B9D4221D13346826B2946FFF796FF1E
:1053B0003F68824633463A4629464046FFF78EFF0D
:1053C0002044504511DC94B119F8013B3B7039463B
:1053D00098F8243001224046FFF76AFF013CA4B24E
:1053E0000746F0E70D20BDE8F0870720FBE72046E1
:1053F000F9E72DE9F04790F82450022D04460F46B6
:105400001CD04E68436B9E4218D1D0F838802B4692
:1054100042463146FFF762FF3F6881462B463A46D7
:1054200031462046FFF75AFF814507D92B464246B1
:1054300039462046BDE8F047FFF750BF0020BDE8E1
:10544000F0872DE9F04190F82460022E04460F46C3
:1054500016D04D68436B9D4214D13346826B29466A
:10546000FFF73CFF3F68804633463A4629462046D0
:10547000FFF734FF804505D9A7630020BDE8F08120
:105480000D20FBE70720F9E770B590F82430022BD8
:1054900004462BD00021FFF752FF94F8243004EB90
:1054A000830304F12806DA6AE263626BDA6230464B
:1054B00000F04AFE054660B10146304600F042FE6B
:1054C00094F824000730294604EB800000F037FEF2
:1054D000EDE7E5682DB1234694F82420E16B2069BF
:1054E000A847022384F82430002070BD0D20FCE77B
:1054F000C06B7047826C036B9A4205D1436CC06AE3
:105500001B1A5842584170470020704790F84130AC
:1055100033B9836C026B9B1A18BF012380F84030AB
:10552000704738B50446806D08B9172038BDB4F807
:105530005C5000F0F7FD8542F7D204F15E051023C0
:105540002A46B4F85C10A06D00F0EEFD0028ECD007
:10555000B4F85C306565034428442067A4F85C30E7
:105560000020E3E738B590F84050C16C2A46044665
:10557000FFF7DAFE430401D4172038BDA16DE81D02
:1055800004EB800081B900F0DFFDA0650028F3D0B6
:105590000023A4F85C302046FFF7C3FF0028ECD1BD
:1055A000022384F84130E8E700F0D0FDEDE7F8B5DC
:1055B000044694F84060256DE56404EB8607FB6AB9
:1055C0009D4227D0324629462046FFF7ADFE030410
:1055D00002D57B6C9D421DD1C0F30D0233460232D1
:1055E00029462046FFF764FE33460746206502221F
:1055F00029462046FFF75CFE8742606504D0012300
:1056000084F841300020F8BD2046FFF7ABFF0028AA
:10561000CFD1F8E7032384F841301720F3E710B522
:105620000146FFF767FF044670B90846FFF76EFFB3
:1056300091F8403001EB83035B6C8C65C1E9133357
:10564000BDE81040FFF7B3BF172010BD90F8410030
:1056500003281ABFB0FA80F040090120704738B51E
:1056600090F84120012A044603D0022A14D00025D4
:1056700010E0416D90F840300D78FFF719FE236D72
:105680006065984206D12046FFF76CFF10B12046B6
:10569000FFF78DFF284638BD436D026F13F8015B9D
:1056A00043659342F6D1FFF73CFFEFE7D0E91123C2
:1056B000016B99420DD190F82410012909D001689D
:1056C000531E994202D902891344FAE703638364A3
:1056D0007047C16A91420BD190F8242042B14168D1
:1056E0000133994202D802899B1AFAE7C3624364E4
:1056F000704738B590F82430022B044612D000EBE6
:10570000830300F12805DB6AC0E90D33284600F069
:105710001BFD014618B1284600F014FDF6E70223F0
:1057200084F824302046BDE83840FFF7BFBFF8B505
:1057300090F82440022C05460F4600D1FEE7866B08
:105740002346002C0CBF2C242824012231462C4453
:10575000FFF7AEFD6368834203D03770A863002073
:10576000F8BD2846FFF7C5FF0320F9E770B5D0E97B
:105770000D32934204461DD190F8242000EB8202A2
:105780000021D66AB3420CBF4FF400460026FFF753
:10579000CEFF054660B901462046FFF7C8FF054623
:1057A00030B994F82430616B32462046FFF7B3FDE0
:1057B000284670BD0025FBE738B590F82430022B51
:1057C00004460D4607D0FFF7D1FF18B9A36B2B6035
:1057D000636B6B6038BD0D20FCE738B590F8243062
:1057E000022B04460D4608D0FFF7C0FF30B929460A
:1057F0002046BDE83840FFF79ABF0D2038BDF8B508
:1058000090F82430022B07460D46164610D0FFF7BD
:10581000ADFF044650B92E44B54207D015F8011B20
:105820003846FFF784FF0028F6D004462046F8BD2E
:105830000D24FBE738B50D460446FFF75AFF0DB1BE
:10584000012D01D184F8245094F8243004EB830313
:10585000DB6AC4E90D3338BD2DE9F0470446FFF794
:1058600049FE00285CD12046FFF750FE94F84030F6
:1058700004EB83030B27D3F84480464694F840504A
:1058800004EB850ADAF82C30B34231D02A4631468F
:105890002046FFF749FD10F4004F814603D0DAF8A7
:1058A0004430B34223D119F4804F11D0E81D04EBEA
:1058B000800000F049FC054650B194F840000730E4
:1058C000294604EB800000F03DFC284600F028FC4F
:1058D000C9F30D02314694F8403002322046FFF7FA
:1058E000E7FC013F17F0FF070646C7D1FEE7334646
:1058F00004EB850520466B64FFF7D8FE656900263A
:105900004FF6FF7384F84160A4F8423055B1A069A6
:1059100094F8402023464146A8473046BDE8F0872A
:105920001720FBE72846F9E70022C0E90022C0E97A
:105930000222704700228388C280038182728381A1
:105940007047002908BF002210B501608280FFF770
:10595000F1FF8388838110BD10B5C38802895C1C68
:1059600094429FBF0268D35C0B70C3889BBF013316
:10597000C3800620002010BD13B50C460DF10701B1
:10598000FFF7EAFF18B99DF8073013B9207002B08D
:1059900010BD012B0CBF23700620F8E713B50C4691
:1059A0000DF10701FFF7D8FF10B99DF807302370FC
:1059B00002B010BD30B5C2880389941C9C420BD83C
:1059C0000468A3185D78A35C43EA05230B80C388B1
:1059D0000233C380002030BD0620FCE737B5044603
:1059E000C3880D4601890068C91A184401AA00F04D
:1059F0002DFA0028C1BFE388C018019BE080D2BF08
:105A0000062000202B6003B030BD30B5C488038968
:105A1000A5189D42DFBF03681B190B60C388DBBF5D
:105A2000D218C2800620002030BD38B5C3880D468C
:105A300001895A1C8A42044601D9062038BD0068F3
:105A4000C91A184407F074F9E28823899B1A9BB29B
:105A50008342F2D9236813442B60E388013318444E
:105A6000E0800020EAE710B4C48803891B1B9BB2C6
:105A700013805DF8044B1A46FFF7C7BF73B50E4697
:105A80000DF1060105461446FFF794FF48B9BDF82D
:105A9000062031462846FFF7B8FF10B9BDF806309A
:105AA000238002B070BDC38883810389C381837A58
:105AB000C3727047838982889A4281BFC380C38939
:105AC0000381C37A86BF837200200D20704738B5EA
:105AD00004460D460068C9B2FFF77FFE28B9290ABF
