:020000022000DC
:1060000000000420E1620200096302000B63020049
:106010000D6302000F630200116302000000000024
:1060200000000000000000000000000013630200F8
:1060300015630200000000001763020019630200EC
:10604000ED8D02007DFD040031DE0400AD4505004C
:106050001B6302001B630200E19102001B6302004C
:106060001B6302001B6302001B6302001B63020030
:106070001B63020065DB04001B6302001B6302005C
:106080001B630200E57302001B6302001B63020036
:10609000A97402001B6302008DAD02001B630200A5
:1060A0001B6302001B6302001B6302001B630200F0
:1060B0001B6302001B6302000000000000000000E0
:1060C0001B6302001B6302001B6302001B630200D0
:1060D000CDD204001B6302001B6302001B6302009D
:1060E000B99902001B6302001D7D0500000000003D
:1060F000000000001B630200000000001B630200A0
:10610000000000000000000000000000000000008F
:10611000000000000000000000000000000000007F
:10612000000000000000000000000000000000006F
:10613000000000000000000000000000000000005F
:10614000000000000000000000000000000000004F
:10615000000000000000000000000000000000003F
:10616000000000000000000000000000000000002F
:10617000000000000000000000000000000000001F
:10618000000000000000000000000000000000000F
:1061900000000000000000000000000000000000FF
:1061A00000000000000000000000000000000000EF
:1061B00000000000000000000000000000000000DF
:1061C00000000000000000000000000000000000CF
:1061D00000000000000000000000000000000000BF
:1061E00000000000000000000000000000000000AF
:1061F000000000000000000000000000000000009F
:1062000010B5054C237833B9044B13B10448AFF3F0
:1062100000800123237010BD082D00200000000025
:10622000384606000C4B43B10C480D4910B5AFF38E
:1062300000800C48036823B910BD0A48036833B9CD
:106240007047094B002BF7D0BDE810401847064BAC
:10625000002BF5D0184700BF0000000038460600AC
:106260000C2D0020042D002000000000154B002BF9
:1062700008BF134B9D46A3F5803A00218B460F467D
:106280001348144A121A32F0D3FC0F4B002B00D0E3
:1062900098470E4B002B00D09847002000210400A7
:1062A0000D000D48002802D00C48AFF3008032F0FA
:1062B0003BFC2000290004F04FFB32F00FFC00BF34
:1062C00000000800000004200000000000000000A2
:1062D000082D002084F900200000000000000000CC
:1062E0000649074A074B9B1A03DD043BC858D050A8
:1062F000FBDC02F09BF9FFF7B9FF00002047060026
:10630000982A0020082D0020FEE7FEE7FEE7FEE7C2
:10631000FEE7FEE7FEE7FEE7FEE7FEE7704700BFA9
:1063200000B583B0044B0093044A402300F036F8D4
:1063300003B05DF804FB00BF41630200282D00207C
:1063400002B32DE9F843114B114E8846144643F031
:10635000010903270025224608EB0501002004F06F
:10636000B7FE03461D444FF47A40E41A23B933784C
:1063700033B1C847013F06D001233370002CEAD166
:10638000BDE8F88370473770BDE8F883C0A5050005
:10639000242D0020704700BF04F0CCBFF0B595B0AD
:1063A000002415460F4608461E4602F03BF83846C4
:1063B00023460822089505A91A9D09960D950A9469
:1063C0008DF82C400C9402F089F89DF81430079851
:1063D00006998DF8114003F00302012A02900391FF
:1063E00028D0022A04D0384602F020F815B0F0BDBB
:1063F000BDF81650C3F3C2038DF81030C5F38915EC
:106400000826082D2C4628BF0824334622460EA90C
:10641000384602F063F82D1B214608AB02AA0EA8ED
:10642000264400F099FC002DEBD1384601F0FEFF28
:1064300015B0F0BDBDF81460059DC6F38316C3F317
:10644000C204B2000EA9384608238DF81040C5F3E7
:10645000952502F043F808AB0093324628460EA972
:1064600002AB00F0D3FBBEE708B5FFF795FF0421B0
:10647000034800F083FB034B01225A7108BD00BFA3
:1064800094460600982A0020F0B5334D85B005F5F6
:10649000836001F0D3FB05F2144001F0CFFB6B6881
:1064A000AE6803EA0600C11C05EB810215F8214025
:1064B00014F004040ED0117801F0030101293BD03F
:1064C000022903F1020700F1030126D005EB810246
:1064D000002CF0D105EB80005A1CC16801913240BC
:1064E00005EB820201F00301D2680292012903F157
:1064F000020429D0022925D1BDF80630BDF80A6072
:10650000C3F38913033304EB9304144801F0A4FB91
:1065100000B16C60304605B0F0BD538807EB9313B3
:1065200006EA0300C11C05EB810215F8214004F0C6
:106530000404002CBFD1CDE711880233C1F38311CD
:106540000B44EDE70026E0E7BDF80430BDF80A6033
:10655000C3F383131C44D8E7382E00204C320020AC
:106560000B4B0C4810B50022FF21C3F8182499608A
:106570001A605A60C3F8142483F8202401F008FF3D
:10658000044610B9044801F0DFFF204610BD00BFEB
:10659000382E0020A4460600E4A5050021B9114BC1
:1065A00003EBC0000068704730B40F4A0D4C121B5B
:1065B000D2080CD00D4D2B88834210D0002303E06D
:1065C00035F82310814205D001339A42F8D10020DA
:1065D00030BC704704EBC300006830BC70472046F5
:1065E000FAE700BF3C46060094460600082D00204E
:1065F000094B013903EBC00003290BD8DFE801F098
:1066000002080604022070474079704700797047FD
:1066100004207047002070473C4606002DE9F047F3
:10662000944C94E80C009A4284B000F0BB800023A4
:10663000C4F81834BFF34F8F6368A56803EA0501F7
:10664000CA1C04EB820614F8222050071AD52768CA
:10665000327802F00302012A44D0022A03F1020236
:1066600002D1738802EB931305EA0301D4F81804EE
:10667000CA1C04EB820628B99F4239D914F822209B
:106680005207E5D404EB81015A1CC96801912A40E4
:1066900004EB820201F00301D2680292022903F1A5
:1066A000020829D0012900F08180D4F810543DB1AE
:1066B0002B6828469B689847EB681D68002DF7D12A
:1066C0006D486E4B6E49C01AC008000440F00200CD
:1066D00000F0DCF860682368C01A18BF012004B01D
:1066E000BDE8F08732880233C2F383121344BBE75C
:1066F000676004B0BDE8F087BDF806306148C3F3B9
:1067000089194F46502FA8BF502767F38F1307F101
:106710000801ADF8063001F03DFE06460028C4D061
:1067200025EA080A0AF1010A01F07CFE4FEA8A0A0A
:106730000023082201A9304601F09AFE574572D97C
:10674000BAF1000F7ED13A4608234F49304601F096
:106750008FFE09F1030708EB9707D4F81834002BD4
:106760006CD1D4F810545DB1EB685A7931462846A3
:106770001AB12B681B689847EB681D68002DF3D190
:10678000304601F053FE04A8002300F80D3D01F04F
:10679000B5F9D4F8183403B967609DF8030001F027
:1067A000D3F997E7002004B0BDE8F087BDF80430C6
:1067B0003448C3F38312062A28BF0622911C62F3D1
:1067C00089138900ADF8043001F0E4FD0646002885
:1067D0003FF46BAF01F026FE0023082201A93046EA
:1067E00001F046FEBDF8043013F4707F3FD04FF047
:1067F000000A4FF0080905EA080103314B4604EB93
:1068000081010422304601F033FEBDF804300AF164
:10681000010AC3F3831308F10107534509F1040981
:10682000B846E8D899E705EA0801033104EB81018D
:106830003A460823304601F01BFE8AE7304601F055
:10684000F5FD47E705EA08010331A7EB0A0504EB6C
:10685000810152463046EDB2082301F009FE2A4676
:106860000AF108030849304601F002FE71E7474685
:1068700073E700BF382E0020544606003C46060051
:10688000F0A50500A4460600442E00202DE9F043A3
:1068900083B002AB002203F8012DDFF8E090074639
:1068A00018468846D9F8085001F028F9D9F8082088
:1068B000D9F80430D9F80060134401339B1B012B35
:1068C00057D809F21C440121204601F09BF9FFF73B
:1068D000DBFD0146204601F095F999E80A00D9F858
:1068E0000820134401335B1A012BECD901240A4020
:1068F000033244F004036FF3891302319DF807005B
:1069000049F82230C9F8001001F01EF900211A4898
:1069100001F050F980F3100033192B4009EB830389
:1069200000043540033540EA1740D86019F8253097
:1069300067F3C50309F8253039F825306FF389135B
:1069400029F8253059F8252068F39F22134664F36F
:1069500001036FF3820349F8252009F8253099F8DF
:1069600020341BB1FFF75AFE0028FBD103B0BDE86D
:10697000F0833146BAE700BF54320020382E0020A1
:106980002DE9F04782B002AB002403F8014D374CEB
:106990008046184692468946A56801F0AFF8A2687D
:1069A0006368276813440133DB1B022B5BD804F2B6
:1069B0001C460121304601F025F9FFF765FD01462F
:1069C000304601F01FF994E80A00A268134401332D
:1069D0005B1A022BEDD901260A40033246F004036C
:1069E00066F3891344F8223003319DF807002160D3
:1069F00001F0AAF8BB1C2B4004EB830300211C48C8
:106A0000C3F80CA001F0D6F880F31000BB192B409E
:106A100004EB830300043D40033540EA1840D8608E
:106A200014F8253068F3C50304F8253034F8253010
:106A300066F3891324F8253054F8252069F39F2242
:106A4000134666F301036FF3820344F8252004F82C
:106A5000253094F820341BB1FFF7E0FD0028FBD16E
:106A600002B0BDE8F0873946B5E700BF382E0020F8
:106A7000543200202DE9F04F85B004AD002405F814
:106A8000014D3C4C01938046284693468946A668B2
:106A900001F034F8A2686368276813440133DB1BF4
:106AA000032B65D804F21C450121284601F0AAF801
:106AB000FFF7EAFC0146284601F0A4F894E80A0032
:106AC000A268134401335B1A032BEDD901250A4058
:106AD00003324FF0020A45F004036AF3891344F8C5
:106AE000223004319DF80F00216001F02DF807EBF2
:106AF0000A0EFA1C0EEA060E324004EB820204EB88
:106B00008E0E019B1C48CEF80CB00021D36001F022
:106B100051F880F310007A19324004EB820200042D
:106B20003E40033640EA1840D06014F8262068F34F
:106B3000C50204F8262034F826206AF3891224F8C6
:106B4000262054F8262069F39F22134665F301039B
:106B50006FF3820344F8262004F8263094F820349A
:106B60001BB1FFF75BFD0028FBD105B0BDE8F08F3E
:106B70003946ABE7382E00205432002030B4174D90
:106B8000D5F8104400215CB1E3681A798A4204D137
:106B900016E0DB681A798A4212D01B68002BF8D104
:106BA000C3681971D5F8103493B1DA68C3681268F4
:106BB0001A60D5F81034DB681860084630BC70479E
:106BC00001310A29DFD14FF0FF31084630BC704750
:106BD000C5F81004C2681360EFE700BF382E00202C
:106BE00038B5094BD3F81044012583F820544CB133
:106BF000E3685D71236820465B689847E3681C681A
:106C0000002CF5D138BD00BF382E00202DE9F0470B
:106C100084B01D460C9C002394F80C802373EB88F1
:106C200081460E461746002B3BD1297A05290FD005
:106C30006B7A002B3DD1404BA88853F821A000214E
:106C4000FFF7ACFC524603463C49204601F07EF873
:106C5000062F0FD8DFE807F0484D535A0463390078
:106C6000F168B06896E80C00019100904946204612
:106C700001F06CF82B7A052B05D06B7A5BB93049A3
:106C8000204601F063F8204601F054F884F80C80A7
:106C900004B0BDE8F0872B4A2B49204601F056F896
:106CA000EDE7284A00922949294A204601F04EF88A
:106CB000BBE7A888FFF79CFC264B234953F820200C
:106CC000204601F043F8297AB5E77069316996E802
:106CD0000C000390B068F76802918DE88100494686
:106CE000204601F033F8C5E74946204601F02EF86A
:106CF000C0E732684946204601F028F8BAE749461D
:106D000096E80C00204601F021F8B3E7B16896E858
:106D10000C0020460091494601F018F8AAE7B06837
:106D2000F768316996E80C0002918DE881004946C8
:106D3000204601F00BF89DE774A6050068A6050043
:106D4000C421060060A6050064B2050048A605003F
:106D500040A6050008A60500082900D970472DE9BE
:106D6000F04F1D46904600232A7B2B7385B0B8F860
:106D70000630039207460E46002B6BD198F8081098
:106D8000052911D098F80930002B6BD13C4BB8F88D
:106D9000040053F821400021FFF700FC224603467F
:106DA0003849284600F0D2FFDFF8F8B0DFF8F89055
:106DB0000024A642494628463ED93A5D013400F0F7
:106DC000C5FF082CF5D13049DFF8E090DFF8E0B0DE
:106DD000284600F0BBFF002411E017F804A031F0B2
:106DE000CBFE50445946437813F0970F14BF5246D8
:106DF0002E222846013400F0A9FF082C08D0A64214
:106E000049462846E9D8013400F0A0FF082CF6D105
:106E100098F80830052B02D098F80930A3B91B491F
:106E2000284600F093FF284600F084FF9DF80C30C0
:106E30002B7305B0BDE8F08F01345946284600F0A9
:106E400085FF082CB5D1BEE7114A1249284600F04B
:106E50007DFFE4E70E4A00920F49104A284600F0F1
:106E600075FF8BE7B8F80400FFF7C2FB0C4B09492C
:106E700053F82020284600F069FF98F8081085E7AD
:106E800074A6050068A6050038A60500C421060002
:106E900060A6050064B2050048A6050040A60500EE
:106EA00008A6050034A605002CA6050070A605005E
:106EB0003CA60500434B1978002900F081802DE99C
:106EC000F04F8C4687B00024012503E00134E4B282
:106ED000644560D23C4B27B21E6816F837E0AEF12D
:106EE000200305FA03F9394BCEF12001D3E9002341
:106EF00025FA01F149EA010905FA0EF808EA02004B
:106F000009EA0301014306EBC70BDFD02F4922EA50
:106F1000080223EA09037046C1E9002302F050F990
:106F200016F837E0AEF1200205FA02F2019201995B
:106F3000CEF12003C6B225FA03F3AEF120021943C5
:106F400006FA02F30393224B0191D3E90023CDE922
:106F5000042305FA0EF30093CEF12001039B26FAD9
:106F600001F10B43039306FA0EF30293DDE9046784
:106F7000DDE9002316401F4032463B46DDE902674B
:106F8000BB4208BFB24209D00E4B013493F800C097
:106F9000E4B264459ED307B0BDE8F08FDBF804305F
:106FA000002BF1D09BF80110A1F10101B1FA81F1A0
:106FB0004909091AB1FA81F1490970469847E3E78E
:106FC000704700BFF4320020303300202833002007
:106FD000203300202DE9F8430646204800F010FD3C
:106FE000D0B91F4F0123A6F1200103FA01F5C6F124
:106FF0002002D7E9000123FA02F2154303FA06F44E
:1070000004EA000205EA0103134307D020EA04045E
:1070100021EA0505C7E90045BDE8F883304602F0DE
:10702000CFF8104ED6E9008998B148EA040849EA39
:107030000509D7E9002314431D43C6E90089C7E9C0
:107040000045094B054819680022BDE8F84300F0E7
:1070500081BC28EA040829EA0509EAE7FC32002095
:107060002833002020330020F8320020042A01D8E1
:10707000072070472DE9F04182B00F4605461646BD
:1070800001F036FF002834D01C4C1D4A1D4B1E4811
:107090001E49256017707C1E00221E600023C0E977
:1070A0000023C1E90023E4B2EFB1DFF86C800027D0
:1070B000032601E0FF2C16D023B205EBC30215F81E
:1070C000330093788DF80670424601A98DF804606C
:1070D0008DF8053001F016FF013CE4B20028E9D03C
:1070E00002B0BDE8F0810A4A0A48002100F020FC05
:1070F000F6E701F0ABFE0028C6D0F1E73033002000
:10710000F4320020F8320020203300202833002001
:10711000B56E0200E0A60500D56F020070B5084DFF
:107120002B785BB1074E00243368012113F834003B
:1071300001F0CAFF2B780134A342F5D8002070BDBE
:10714000F43200203033002000B585B000230390D6
:10715000194601AA44F201000193029300F004F8D9
:1071600005B05DF804FB00BF10B572B6FFF738FD3F
:10717000FFF754FA0028FBD1104B114C1149E41AC7
:10718000E408240444F00100FFF780FB0E4B1B6869
:10719000DB0700D500BE44F002000C49FFF776FB88
:1071A000BFF34F8F0A490B4BCA6802F4E0621343E6
:1071B000CB60BFF34F8F00BFFDE700BF3C4606002A
:1071C00054460600E4A60500F0ED00E0F0A6050038
:1071D00000ED00E00400FA0510B48468C2680346BC
:1071E0008088121B904203D204205DF8044B704744
:1071F000DA681C6802400020A154DA680132DA60C3
:107200005DF8044B704700BF03468068DA6890421F
:107210000DD010B498689A881C6802400020A25CC7
:107220000A709A6801329A605DF8044B7047052035
:10723000704700BF12F0030301D007207047F0B47D
:10724000094D0A4F2B700A4D3A604C1C2B70094FA8
:10725000094D0A4E3880E400A4B2224429803260ED
:107260001846F0BC704700BF343300203C33002088
:1072700044330020403300204233002038330020C4
:107280002DE9F0472C4D2B888B4282B003D2092088
:1072900002B0BDE8F087064602A84FF0000800F8EB
:1072A000018D17460C4600F029FC244B244A254842
:1072B000197813780088DBB2834238BF0133C9B232
:1072C00038BF5FFA83F841451FD092F800801378E9
:1072D000DFF87890DBB2984286BF0133DBB200233F
:1072E0005FFA88F89DF80700137000F02DFCD9F8BC
:1072F00000300FFA88F24FEAC20A43F83270534462
:1073000006B144B900209880C2E79DF8070000F05C
:107310001BFC0420BCE70C4B28881B68314608FB8B
:107320000030224631F05FFCD9F800309A4400204A
:10733000AAF80440ACE700BF4033002044330020EB
:107340003433002042330020383300203C33002007
:107350002DE9F047174C184D22782B789A4226D009
:10736000DFF85C90DFF85C80144FDFF85CA02378D6
:10737000D9F800203888D8F80060DBB20FFA83FC17
:1073800002EBCC0103FB0060898852F83C3098473F
:107390002378BAF80020DBB29A4203F101038CBFD4
:1073A000DBB20023237022782B789A42DFD1BDE82C
:1073B000F08700BF443300203433002040330020E6
:1073C0003C3300203833002042330020082910B518
:1073D000044602D00020FFF7B7FE23686068BDE8CE
:1073E000104018472DE9F041274A284B0025C2F8E4
:1073F0004051C2F84451C2F84851C2F84C51C2F849
:107400000051C2F804511B6882B023B32049D2F85E
:1074100004450A68DFF88C80A41A1A6824F07F44B7
:10742000A2422F4609D8197CDE69A41A1544A9B9CD
:107430001EB133461A68A242F5D91649164A0B788E
:1074400012789A4219D01549154A41F823504FF441
:107450008013C2F8003102B0BDE8F0819A691F7450
:1074600001925B690093424608216846FFF708FFD6
:107470000028DDD0FFF768FEDAE7531CDBB2022BF1
:1074800008BF00230B70DEE70010014068340020C5
:10749000643400206134002060340020583400201F
:1074A00000E100E0CD7302002DE9F04FB74AB84982
:1074B00013780978994285B033D00133DBB2022BBF
:1074C00008BF0023B3481370B34A0768DFF8E082AF
:1074D00052F82320D8F80010BB18002423F07F4373
:1074E000036025462046A646A9B10B68934200F2E8
:1074F0007D81CC68C1F800E0D21A1844CB6934B160
:107500003E1826F07F46CD618C604E600D461946D0
:1075100001240029E9D1002C40F0A5814FF0010B96
:1075200005E0DFF88C820025D8F80010AB469B4BB5
:107530009B4FDFF8809243F0010300930E464FF01B
:10754000000A002D2DD0D5F804E0D5F808C02C464F
:10755000ED69904B93481B68AEEB030222F07F422B
:10756000824255D802EB0C032360002201206260A6
:10757000A260E2612074002E6BD03068834261D932
:10758000B64603E0106898424CD29646DEF81C20BE
:107590001B1A002AF6D12360E261CEF81C40002DB0
:1075A000D1D197F801C097F800E0F44571D0734647
:1075B00003EB43030EF10100BA7807EBC3035FFA54
:1075C00080FE7245187987F800E004BF4FF0000E86
:1075D00087F800E002289A684CD003283DD00128A3
:1075E000E3D1107C0028E0D1D3F80CE0C2F804E02D
:1075F000D3F810C0C2F808C014465A69E26099F87E
:1076000000209B69A361002AA3D060608646A0E7A2
:10761000A3EB0E0323F07F4363450AD2ACEB0303D5
:107620002360A2E7C01A10602360E261CEF81C401C
:10763000B5E70023012223606360A360E361227445
:107640003EB13068C8F80040C31A3360E661264690
:1076500077E7C8F80040264673E7002EA5D0002241
:1076600000E01E46F3693274002BFAD1C8F80030EE
:107670001E4696E74EB1B242344603D1BDE09A426F
:1076800060D01C46E369002BF9D100231374F44544
:107690008DD1BAF1000F02D18E4200F09D80002EF4
:1076A00000F0C5803B4B404A1C68D2F80475DFF8F7
:1076B0000881D6F800A098F800103B1B23F07F4308
:1076C000DD1CA9B93949354B4FF48030C2F8440369
:1076D0000126C2F804034FF40030C1F8800143F0E2
:1076E0000103086016604FF43C60984788F800601A
:1076F000AA452CBF04EB0A0363192B4923F07F43EF
:10770000C1F84035D1F80425D21BDB1B22F07F42A3
:1077100023F07F4303329A420ED9204BD1F804253F
:10772000C1F8402543F001034FF43C6098471F4BDC
:107730004FF40032C3F80021002389F8003005B06F
:10774000BDE8F08FA24239D0D2F81CE01368C4F82B
:107750001CE0BEF1000F11D03046DEF8004023449B
:10776000CEF80030864209D0002397F800E097F861
:1077700001C0137406464FF0010A88E7002397F80A
:1077800000E097F801C0137481E700BF6034002067
:1077900061340020643400205834002000A7050024
:1077A00048330020FEFF7F000010014000E100E0B0
:1077B0006834002054340020553400201346F0690A
:1077C000C8F80000D8B1D3F81CE01B68C4F81CE06E
:1077D000BEF1000FC1D1C5E7BBF1000F7FF45FAF71
:1077E000002389F8003005B0BDE8F08F002C3DD1B2
:1077F0009B1A0B604FF0010B99E63346DFE70193CC
:107800001C4BDFF87CC003924FF0010E0291C3F8CD
:1078100008E0009BCCF8000089F800E04FF43C60E1
:107820009847D8F80000019B0299039ACBE7114DC5
:10783000114A124C4FF480334FF400310127C2F843
:1078400080103C43C5F848334FF43C60C5F808331A
:107850006F60A0470A4BAF604FF43C601E60A047CA
:10786000084B1E7068E7C8F8001057E6C8F800100B
:10787000BEE700BF0010014000E100E000A70500E6
:1078800064340020553400202DE9F8431F4D204E6C
:10789000204FDFF898804FF480334FF400324FF0E0
:1078A00001090024C6F8802047EA0907C5F84833D3
:1078B0004FF43C60C5F80833C5F80490B847C5F8E4
:1078C00008904FF43C60C8F80040B847124B13488A
:1078D0001349144A1C70144B04600C7014704FF45C
:1078E0008011C0220B2098701C705C70C6F880114B
:1078F00086F814233160C5F8084586F81123D5F8B9
:107900000435C8F800302046BDE8F8830010014077
:1079100000E100E000A70500553400206834002095
:10792000603400206134002048330020643400209B
:10793000074B9B780BB9082070473AB130B1036808
:10794000187C0028F7D159745A6170470720704796
:10795000483300202DE9F043264CA37883B01BB9AF
:10796000082003B0BDE8F0830028F9D0042903D82B
:10797000072003B0BDE8F0834369002BF0D0064632
:1079800002A8737C0025012B00F8015D0CBF89461D
:10799000A94690460F4600F0B1F86378A0782178A8
:1079A0005A1CD2B2904208BF2A4691421BD003EB28
:1079B000430304EBC30301200F4918719E60D1F803
:1079C00004159DF80700D9601F61C3F81490C3F82F
:1079D0001880627000F0B8F8084B4FF48012284607
:1079E000C3F80021BDE79DF8070000F0ADF80420C2
:1079F000B7E700BF483300200010014000E100E07D
:107A000070B51B4CA37882B013B9082002B070BDCA
:107A10000028FAD04369002BF7D0064602A80025BB
:107A200000F8015D357400F069F86278A07821787B
:107A3000531CDBB2984208BF2B46994212D002EB8E
:107A4000420204EBC20202219DF807009660117108
:107A5000637000F079F8074B4FF480122846C3F8A2
:107A60000021D3E79DF8070000F06EF80420CDE771
:107A70004833002000E100E070B50B4C01460B4894
:107A80002678FFF7C1FB05460EB9284670BD0023D6
:107A9000012207490748237001F0F8FE0028F4D0BE
:107AA000FFF752FB284670BD7C3400206C34002068
:107AB00090340020A42A002010B501460C48FFF79E
:107AC0008BFB044608B1204610BD0A4801F0D0FEE9
:107AD0000028F8D108490648FFF796FB0028F2D1A4
:107AE000012205490348BDE8104001F073BE00BF04
:107AF00080340020A42A00209434002070B4EFF3D6
:107B0000108472B60D4B9A68AAB90D490D4E012525
:107B10009D60D1F8805035401D60C1F88060D1F87B
:107B200084505D604FF0FF33C1F88430027004B9B7
:107B300062B670BC704701230370F8E70CD80020D0
:107B400000E100E0FC06FFBD094B9A6872B168B91C
:107B500010B4EFF3108272B606491C680C605C68C2
:107B60004C60986002B962B65DF8044B704700BF84
:107B70000CD8002000E100E001F01F024B090121B8
:107B800000EB8300914000F021B800BF01F01F021C
:107B900001234909934000EB8100D94300F024B848
:107BA0004B0901F01F0150F82300C84000F001000C
:107BB000704700BF00B550E8002F0B4640E8003E7C
:107BC0009EF0000FF7D110465DF804FB00B550E8B9
:107BD000003F43EA010240E8002E9EF0000FF6D17C
:107BE00010465DF804FB00BF00B550E8003F03EA13
:107BF000010240E8002E9EF0000FF6D110465DF81D
:107C000004FB00BF00B550E8003F03EB010240E871
:107C1000002E9EF0000FF6D110465DF804FB00BF69
:107C200000B550E8003FA3EB010240E8002E9EF0B3
:107C3000000FF6D110465DF804FB00BF00B501232C
:107C400050E8002F42EA030E40E800E191F0000FF7
:107C5000F6D170465DF804FB00B5002350E800EF54
:107C60000EEA030240E8002191F0000FF6D17046C1
:107C70005DF804FBB8B130B4416882680468521AF8
:107C8000D2B2531E2160DBB242B101680A685C1EA9
:107C9000551C0D601370E3B2FF2BF6D10368002072
:107CA000187130BC70470E20704700BFF0B583B02C
:107CB00002AB002503F8015D04461846FFF71EFFDE
:107CC000236861681A688A4210D9511E19602168B8
:107CD000A3680E6812F8015C0A79278AE0689B1B8A
:107CE000DBB29A4207FB050538BF0B719DF8070010
:107CF000FFF72AFF284603B0F0BD00BF30B583B0C0
:107D000002AB002203F8012D054618460C46FFF78A
:107D1000F5FE2A681368591C1160E9682A8A641AFA
:107D2000B4FBF2F41C709DF80700FFF70DFF03B0E1
:107D300030BD00BF826802B9704710B50446436980
:107D40000168006998470023A36010BD0EB400B518
:107D500082B0039929B102AA04AB42F8043D00F0B5
:107D600095F802B05DF804EB03B070472DE9F84FC9
:107D70001746B942884606461D46DDF828B00B9ADC
:107D80007DD30B464FF00109B3FBF7F39F4209F196
:107D90000109F9D9A94538BFA94612F0010A02D153
:107DA000BBF1000F49D1B268012402E0013D07FB9D
:107DB00004F4012DFAD8B8FBF4F18F42F7D9324D13
:107DC00005E0B4FBF7F4A4B1B8FBF4F1B268685C69
:107DD000531CB36033689854B26873689A4204FBCA
:107DE0001188EED33046FFF7A5FFB4FBF7F4002C63
:107DF000EAD1BAF1000F16D0BBF1000F33D0CB455A
:107E000088BF20243ED9B3683268591CB160D4546D
:107E1000B26873689A420BF1FF3B06D2BBF1000FC8
:107E200009D0D945EFD1BDE8F88F3046FFF782FF82
:107E3000BBF1000FF5D1BDE8F88F93071AD42024C9
:107E4000CB45B0D9B2683368511CB1609C54B2685C
:107E500073689A420BF1FF3B07D2BBF1000FA3D02E
:107E6000CB45F0D1A0E7BDE8F88F3046FFF762FFC1
:107E7000B268F2E7002D0CBF30242024E0E74FF079
:107E8000010987E7BDE8F88F08A70500002900F081
:107E90006F822DE9F04F064685B093460C460B786D
:107EA0000DE0B2683168501CB0608B54B2687368E2
:107EB0009A4280F0D3802378002B00F0BA800134FE
:107EC000002B00F0B680252BEBD14FF000082346A5
:107ED00014F8012B2D2A00F0BB80302A00F0BB8063
:107EE0002B2A00F0AD802A2A00F0BC80A2F13005D8
:107EF000E9B2092998BF013302D9A9E1A1F13005FE
:107F00001C4613F8012BA2F1300005EB850109286E
:107F100002EB4101F2D92E2A00F0B080002701E0E7
:107F200014F8012F02F0FB03682BF9D0253A532AED
:107F30007AD8DFE812F07A017900790079007900C7
:107F40007900790079007900790079007900790069
:107F50007900790079007900790079007900790059
:107F60007900790079007900790079007900790049
:107F70007900790079007900790079007900790039
:107F80007900790079007900790079007900790029
:107F90007900790079007900790079006A01790027
:107FA0007900790079007900790079007900790009
:107FB00079005501FC007900790079007900FC0016
:107FC000790079007900790079007900540079000E
:107FD0007900CA007900BA00790079006A01DBF8FB
:107FE0000020131DCBF80030B368156831685A1CA7
:107FF000B2604FF03002CA54B3687268934280F0A6
:10800000A0813268581C7821B060D154B26873687E
:108010009A4280F09281002208230192294600931F
:1080200010223046FFF7A2FE01342378002B7FF4A4
:1080300046AF337B002B40F0058105B0BDE8F08FE3
:10804000234614F8012B2D2A48F004087FF445AF8D
:1080500048F001083BE748F0020838E73046FFF7F0
:1080600069FE28E7DBF80020111DCBF80010156829
:108070005A782E2A03F101047FF450AF6278A2F1FE
:108080003003092B04F101044FF000073FF64AAF1B
:1080900007EB870702EB470714F8012FA2F1300323
:1080A000092BA7F13007F3D93CE7DBF800301A1DA4
:1080B000CBF800201968CDF804803B4600950A22D1
:1080C0003046FFF753FE0134AFE7DBF800301A1DEE
:1080D000CBF8002018F0010FD3F8009040F0BB80DF
:1080E000B9F1000F00F04781484631F006FA074623
:1080F000BD4240F2F180002D00F0EE804FF02008EC
:1081000005E0BD4200F0E880002D00F0E580B36896
:108110003268591CB16002F80380B26873689A42F1
:1081200005F1FF35EDD33046FFF704FEE9E7DBF854
:1081300000301A1DCBF80020D3F8009089EAE973CB
:10814000A3EBE973092B4FF0010A09DD8F4A82FB8B
:108150000312DB17C3EBA203092B0AF1010AF5DCBA
:10816000BA4538BFBA462DB3B9F1000F02DB18F09B
:10817000040F00D0013D18F0020F40F0F58018F018
:10818000010F17D1002D00F0FE80AA4538BF202135
:1081900010D2B2683368501CB0609954B2687368EA
:1081A0009A4205F1FF3580F0E880002D00F0EB8069
:1081B000AA45EED1B9F1000FC0F2C88018F0040F43
:1081C0007BD108F00303022B00F09A808DE8200198
:1081D0003B4649460A223046FFF7C8FD013424E7F2
:1081E000DBF80020131DCBF80030B368316812783B
:1081F000581CB060CA54B26873689A42FFF414AF56
:108200003046FFF797FD01340FE7DBF800301A1D09
:10821000CBF800201968CDF804803B460095102269
:108220003046FFF7A3FD0134FFE6B3683268591CFE
:10823000B1604FF02501D154B26873689A42DFD221
:108240000134F2E6304605B0BDE8F04FFFF772BDED
:108250001C4600255FE64F46A7EB090817F8013BCF
:108260008BB1B2683168501CB0608B54B2687368CF
:108270009A42F1D33046FFF75DFDA7EB090817F8E6
:10828000013B002BEDD145457FF6CEAE202705E022
:1082900045453FF4C9AE002D3FF4C6AEB368326821
:1082A000591CB160D754B26873689A4205F1FF3522
:1082B000EED33046FFF73EFDEAE7B2683368501C64
:1082C0002B21B0609954B26873689A42FFF479AF79
:1082D0003046FFF72FFD74E709F1FF3919F8013F28
:1082E000002B3FF4A1AEB2683168501CB0608B54D3
:1082F000B26873689A42F1D33046FFF71BFDEDE791
:10830000002F7FF463AF002D33D0AA45BFF45EAFDA
:10831000B2683368511CB1604FF030019954B268B3
:1083200073689A4205F1FF3503D215B3AA45EFD120
:108330004CE73046FFF7FEFCF7E73046FFF7FAFC64
:1083400069E63046FFF7F6FCB3685AE6B268336870
:10835000501C2D21B0609954B26873689A42C9F1DB
:108360000009FFF42EAFB3E7002F3FF423AF06E779
:10837000704700252AE74F46BAE630460391FFF7DB
:10838000D9FC039911E7002514E700BF676666660C
:10839000FFF770BC2DE9F041B0F81080CF1CA8F1B8
:1083A000040847440646B7FBF8F7FFF77FFC80B3A5
:1083B000FFB200250123013F0446A0F806800660B5
:1083C0000571437128D0804609E06379AF4203F11B
:1083D00001036371C8F80000066080461CD0304677
:1083E000FFF764FC01350028EFD16679721E16D0C4
:1083F0002346013082421B68FBD81F684EB12146DC
:1084000000250C6801353846FFF778FCAE4221465E
:10841000F7D10020BDE8F0812046BDE8F081276853
:10842000EDE700BF04300121FFF7ECBBF8B50121F7
:1084300004460430FFF7F4FBC0B200B1F8BD667922
:10844000721E12D02346013082421B68FBD81F687F
:10845000002EF3D0214600240D6801343846FFF782
:108460004DFCA6422946F7D1F8BD2768F2E700BFC8
:108470002DE9F843C78890F805E0154607FB0EFE86
:10848000EC18AEF1040E1A1DA6458846B2FBF7F6AD
:1084900038BFAEEB030507FB1621044616B1013EBB
:1084A0002468FCD17E1AAE4228BF2E469DB14FF003
:1084B0000009081DAD1B08EB09012044324630F0CD
:1084C00092FBAF42B14424683E464FF0000128BF02
:1084D0002E46002DEDD1BDE8F88300BF2DE9F8430D
:1084E000C78890F805E0154607FB0EFEEC18AEF1C4
:1084F000040E1A1DA6458846B2FBF7F638BFAEEB50
:10850000030507FB1621044616B1013E2468FCD181
:108510007E1AAE4228BF2E469DB14FF000090431AD
:108520002144AD1B324608EB090030F05CFBAF4242
:10853000B14424683E464FF0000128BF2E46002D6E
:10854000EDD1BDE8F88300BF8268002393608268A4
:108550001361826853618268D36082685360826865
:108560001360704701600B6843604A68934204BF20
:1085700000234360704700BF436843B102689168BD
:108580000B4443605268934204BF0023436070472A
:1085900030B4184DA5F59472AB1ADB1003EBD3730E
:1085A0005B1002EBC30152F83330984228BF0C46EF
:1085B00005D311E052F8333098420CD221468B1A81
:1085C000DB1003EBD3735B10914202EBC304F1D8D1
:1085D000094830BC70470D46984204D904F108029E
:1085E000AA42D9D3F4E76068034B002808BF1846B5
:1085F000EFE700BF60A8050024A7050070B5161EB0
:1086000007DD0C468D1914F8010BFFF755FAA5424A
:10861000F9D1304670BD00BF10B50C462046FFF7BB
:108620002BFA0528FAD0012010BD00BF10B44FF07E
:1086300080414FF080520020C1F80C015E4BC1F820
:108640001001C1F83805D2F80414C3F82015D2F887
:108650000814C3F82415D2F80C14C3F82815D2F85E
:108660001014C3F82C15D2F81414C3F83015D2F82E
:108670001814C3F83415D2F81C14C3F84015D2F8F6
:108680002014C3F84415D2F82414C3F84815D2F8BE
:108690002814C3F84C15D2F82C14C3F85015D2F88E
:1086A0003014C3F85415D2F83414C3F86015D2F856
:1086B0003814C3F86415D2F83C04C3F86805D2F83E
:1086C00040043E49C3F86C050968D2F84424C3F855
:1086D0007025082924D04FF08043D3F80024D20716
:1086E00044BF6FF00102C3F80024354AD2F8883045
:1086F00043F47003C2F88830BFF34F8FBFF36F8F1E
:108700004FF01023D3F80022002A23DBD3F80432E1
:10871000002B1FDB2B4B2C4A1A605DF8044B704773
:108720002A4B1B68002BD6D129482A4A2A4C0460C0
:108730002A492B4BFB20C2F818050A681B682948F8
:1087400022F00F0203F00F0313434FF400720B608B
:108750000260C0E7244B0122C3F80425D3F80024AB
:10876000002AFBD04FF0102312221F49C3F8002229
:10877000D1F80034002BFBD04FF0102212211A4BFD
:10878000C2F80412D3F80024002AFBD000221649B4
:10879000C3F80425D1F80034002BFBD0BFF34F8F72
:1087A0000749124BCA6802F4E0621343CB60BFF37F
:1087B0004F8F00BFFDE700BF00C000403001001038
:1087C00000ED00E0AC2A00200090D003340100103E
:1087D0008C56004000F0004048810300E40E004049
:1087E000580200104096024000E001400400FA05E3
:1087F000074B1B5C1F2B8ABF064A4FF0A04203F0B9
:108800001F03D2F80405D840C04300F001007047B0
:1088100050AC050000030050074B1B5C1F2B86BFAC
:1088200003F01F0305494FF0A041012202FA03F3B0
:10883000C1F80C35704700BF50AC05000003005074
:10884000074B1B5C1F2B86BF03F01F0305494FF02E
:10885000A041012202FA03F3C1F80835704700BFB6
:1088600050AC0500000300504FF0A04310B44FF48B
:1088700080404FF400544FF400414FF48032C3F86D
:108880000845C3F80805C3F80815C3F808255DF8BE
:10889000044B70474FF0A04310B44FF480404FF4A6
:1088A00000544FF400414FF48032C3F80C45C3F834
:1088B0000C05C3F80C15C3F80C255DF8044B704784
:1088C0000A4B195C1F298ABF09484FF0A04001F0EC
:1088D0001F01D0F8043501228A4022EA0301134027
:1088E000C0F80815C0F80C35704700BF50AC050043
:1088F00000030050074B1B5C1F2B8ABF064A4FF03A
:10890000A04203F01F03D2F81005D840C04300F086
:10891000010070474CAC0500000300500B2809D043
:108920000C2809D0182809D019280CBF03204FF0B3
:10893000FF307047002070470120704702207047C9
:10894000C20770B40ED483070AD54FF0A0430C229F
:10895000C3F82C27C3F83027C3F86027C3F864276F
:1089600070BC70474FF0A04303224FF400564FF401
:1089700080454FF400444FF48031C3F83427C3F8E6
:108980003827C3F83C27C3F84027C3F80865C3F865
:108990000855C3F80845C3F80815D4E742DF704707
:1089A00043DF704710B568B101280AD10C4C236928
:1089B000A07033B10CCB0120226198472369002BB2
:1089C000F8D110BD064CA36801226270002BF8D0CC
:1089D0000CCB0020A2609847A368002BF8D110BDF3
:1089E0009834002068B910B5064CA3680122627063
:1089F00033B10CCB0020A2609847A368002BF8D1BC
:108A000010BD70479834002030B5012883B01CD0C9
:108A100015D3032811D100F08BF902A800231F4CB5
:108A200000F8013DFFF76AF8E368013BE360E568A1
:108A300065B39DF80700FFF787F803B030BD184B0A
:108A40000122C3F8802003B030BD02A80023134CDC
:108A500000F8013DFFF752F8237853B1E3689DF821
:108A6000070001330122E360A270FFF76DF803B045
:108A700030BD0C486360A3602361E36000F04AF9F5
:108A800002F07EF930B101232370E7E700F07CF9B2
:108A9000A570CEE700F04CF9F5E700BF9834002050
:108AA00000E100E0A589020038B50C4C237813B131
:108AB0008525284638BD0A486360A3602361E360CA
:108AC00000F028F9054602F05BF918B10123237084
:108AD000284638BD00F02CF9F8E700BF9834002094
:108AE000A589020030B5194DAB7883B0044693B127
:108AF00010B143680120984702A8002300F8013D07
:108B0000FEF7FCFFEB689DF807000133EB60FFF711
:108B10001BF803B030BD02A803F0FF0200F8012DDE
:108B2000FEF7ECFF64B12A6942B1944208D01346C3
:108B300001E09C4204D01B68002BFAD122602C611A
:108B4000EB68002BDED100F007F9DBE7983400205A
:108B500030B583B002A80023094C00F8013DFEF7B0
:108B6000CDFFE368013BE360E56815B900F00CF95F
:108B7000A5709DF80700FEF7E7FF03B030BD00BF0A
:108B80009834002008B502F0FBF838B94FF0804364
:108B9000D3F81804000C00F0010008BD012000F01B
:108BA000010008BD30B51C4D6B7883B0044693B10D
:108BB00010B143680020984702A8002300F8013D47
:108BC000FEF79CFF6B689DF8070001336B60FEF7B2
:108BD000BBFF03B030BD02A803F0FF0200F8012D77
:108BE000FEF78CFF64B1AA6842B1944208D01346E4
:108BF00001E09C4204D01B68002BFAD12260AC60DB
:108C00006B68002BDED102F0BBF810B900F0C8F899
:108C1000D8E7FFF7C3FED5E79834002070B582B0DF
:108C200002A80023124C00F8013DFEF767FF6368BD
:108C3000013B636065682DB19DF80700FEF784FF76
:108C400002B070BD02F09CF8064640B900F0BAF8D8
:108C50009DF807006670FEF777FF02B070BDFFF762
:108C60009FFE9DF807006570FEF76EFF02B070BDB5
:108C7000983400200A4A0223C2F80435BFF36F8FEC
:108C8000BFF34F8FC2F80805D2F80034002BFBD099
:108C90000023C2F80435BFF36F8FBFF34F8F7047C7
:108CA00000E001409AB32DE9F047194CA0EB010810
:108CB0000D468E18C0004FF0FF0C4FF0010E00273C
:108CC00008EB050222F0030200F01809116815F8FC
:108CD000013BC4F804E50CFA09FA21EA0A01BFF3E2
:108CE0006F8FBFF34F8F03FA09F30B441360D4F86F
:108CF0000034002BFBD0C4F80475BFF36F8FBFF3B3
:108D00004F8FAE4200F10800DAD1BDE8F08770471E
:108D100000E00140054A13790BB18520704701211D
:108D20001060537118461171704700BFAC340020B9
:108D3000084B1A68D20706D40122C02183F8001319
:108D4000C3F880211A604FF080430122C3F8182530
:108D5000704700BF00E100E010B4094B094A002150
:108D6000196083B01B680193019C4FF08041022081
:108D70000123C1F80403136003B05DF8044B70478E
:108D80000401004008000040044B01221A604FF02B
:108D90008042D2F81834DB03FBD470470C0000404B
:108DA000074B00221A6082B01B68019301994FF0B3
:108DB00080430122C3F804231A6002B0704700BF49
:108DC00000010040074B01221A604FF08042D2F8A8
:108DD0000C3403F00113B3F1011FF8D0024B002251
:108DE0005A71704704000040AC34002010B5144B99
:108DF0001A6882B062B10021124A19601B6850796A
:108E000000934FF080410123009CC1F8083390B1DA
:108E10000D4B1A686AB100221A601B6801934FF06B
:108E200080420221074B0198C2F808131B680120F9
:108E3000984702B010BD116853718847E8E700BF3A
:108E400000010040AC3400200401004070B5244C07
:108E500094F86A5082B015B1082002B070BD4FF08E
:108E6000FF332946FF26062204F16400236363636F
:108E7000A363E36323646364A364E36423656365BA
:108E8000A365E36523606360A360E36023616361BE
:108E9000A361E361236284F860306362A36284F8B3
:108EA0006230E36284F8633084F861602FF0C0FEC2
:108EB0000C4B0D4A0D4E15604021C02083F806036F
:108EC000C3F8801119601368019301994FF00043B2
:108ED0000122284684F86A20C6F8043302B070BD27
:108EE000B434002000E100E07C61004000600040FC
:108EF000034B93F86A00003018BF0120704700BF91
:108F0000B4340020F0B56D4C231893F93050002D87
:108F100001DB0820F0BD91F802E0CEF3400EBEF177
:108F2000000F50D02568013500F0C28001250826C9
:108F300054F8253001334CD06B1C54F823700137A2
:108F400048D0AB1CB3423CD254F82370013741D017
:108F5000EB1CB34235D254F8237001373AD02B1DA5
:108F6000B3422ED254F82370013733D06B1DB34275
:108F700027D254F8237001372CD0AB1DB34220D236
:108F800054F82370013725D0EB1DB34219D254F8A1
:108F9000237001371ED005F10803B34211D254F8F3
:108FA0002370013716D005F10903B34209D254F8F2
:108FB000237001370ED00A35B54202D2E36A01337D
:108FC00074D00420F0BD256A01353AD009250C265D
:108FD000AEE72B4626185DB244F8232086F83050C1
:108FE000BEF1000F33D08B785A071CD4DE074ED564
:108FF0001F2887BF324B00F01F0202464FF0A043EC
:1090000003EB8203D3F8002722F00202C3F8002703
:109010002C4EC20800F0070EB75C012303FA0EF3D2
:109020003B43B3548B7813F0020314D1083D2C4416
:10903000097894F8602042EA811284F8602018468A
:10904000F0BD082683F8306035462262334623445B
:1090500083F85800C7E7AD0005F1804505F5C04528
:109060000A78D5F8101521F44F3121F44071C5F874
:10907000101503021204D5F8101502F4403203F45F
:109080007C5313430B43C5F810350020F0BD1F2857
:109090004A7887BF0A4E00F01F0303464FF0A046F0
:1090A00003F5E073920046F82320B1E70B2391E724
:1090B0000025226083F8305095E700BFB4340020CB
:1090C0000003005018350020F0B43A4D2E1882B03D
:1090D00096F93030072B20DD2B4493F858309B094C
:1090E000032B45D0012B14BF4FF440314FF4003116
:1090F0001F284DD900F01F002F4B03EB8000D0F844
:10910000002722F44032C0F80027D0F800370B4384
:10911000C0F8003702B0F0BC7047DAB2072AF9D8BD
:10912000980000F1804000F5C04003F14002920039
:10913000D0F8104592B202F18042002744F00104B9
:1091400002F5C042C0F81045019701981760002948
:10915000E0D096F9302055F82220002ADAD00122FA
:10916000164902FA03F3C1F8043302B0F0BC7047A9
:109170001F2810D9104BD3F8103500F01F00C34042
:10918000DB0748BF4FF44031B6D44FF40031B3E7AA
:109190004FF0A043B1E74FF0A0421346D2F810259C
:1091A000C24012F0010F14BF4FF440314FF40031B0
:1091B000A3E700BFB434002000030050006000406B
:1091C0001F288ABF054B4FF0A04300F01F00D3F8C3
:1091D000103523FA00F000F0010070470003005042
:1091E0002DE9F04788B00023CB4A0393029311681E
:1091F000012900F0A8821E46C84B1A68012A00F017
:109200009482C74B1A68012A00F08182C54B1A6804
:10921000012A00F06E82C44B1A68012A00F05B82BA
:10922000C24B1A68012A00F04882C14B1A68012A11
:1092300000F03582BF4B1A68012A00F02282BE4B33
:109240001A68012A00F00C8216F0FF0F1AD0BB4FEB
:1092500001250024A30003F180432E4203F5C043FF
:109260004FEA45050BD0D3F8100557F82420D3F862
:109270001015C0F30520C1F3014102B1904701343C
:10928000082CE7D1002E02DB08B0BDE8F0870DF115
:10929000100800224FF0FF33A84CA94FC8F8042053
:1092A000049206930793012694F960305A1C21D04A
:1092B0005FFA83FE2EF0C00008AB4FEAD00903EB43
:1092C000090C0EF007031CF8082C06FA03F31A40E9
:1092D00040F0388194F96110481C00F06A8215460C
:1092E0000DE0022A06D1032900F06082002D00F073
:1092F0003682A84794F961104A1C51D00025CBB2A0
:1093000023F0C00008AA4FEAD00C02EB0C0E03F0C9
:1093100007011EF8082C06FA01F912EA090F4CD1D0
:1093200094F96210481C11D0CBB223F0C00008AAF7
:109330004FEAD00C02EB0C0E03F007011EF8082CCC
:1093400006FA01F912EA090F40F0AD8094F9633092
:109350005A1C0FD0DBB223F0C00008AA4FEAD00C91
:1093600002EB0C0E03F007021EF8081C06FA02F2CC
:1093700011425AD1002D87D04FF0A0430299D3F863
:109380001035D7F81025994203D1039991423FF443
:109390007BAF04980599029303920690079183E7A7
:1093A00094F962104B1C01D00025BDE794F963309D
:1093B0005D1C3FF469AF0025CCE72218990992F9AA
:1093C000302054F82220002A00F02381032900F0E5
:1093D00023811F2800F20C8184464FF0A04303EB49
:1093E0008C031EF818CCD3F800E71CEA090FCEF363
:1093F000014E40F0F380BEF1030F91D103290FD14C
:109400004FF4003ED3F800C72CF4403CC3F800C72B
:10941000D3F800C701354EEA0C0EEDB2C3F800E7F1
:10942000002A3FF47DAF90477AE704EB00099909E1
:1094300099F9309054F82990B9F1000F00F0FD80AF
:10944000032900F0FD801F288BBFBC464FF0A04CC5
:1094500003F01F0303460CEB83031EF818CCD3F86C
:1094600000E71CEA020FCEF3014E40F0A680BEF1E9
:10947000030F7FF47FAF032940F0A6804FF4003242
:10948000D3F800E72EF4403EC3F800E7D3F800E736
:10949000013542EA0E02EDB2C3F80027B9F1000F20
:1094A00040F0968068E72218990992F9302054F824
:1094B0002220002A00F0B780032900F0B7801F287F
:1094C00000F2A38084464FF0A04303EB8C031EF808
:1094D00018CCD3F800E71CEA090FCEF3014E40F098
:1094E0008B80BEF1030F7FF431AF03290FD14FF40E
:1094F000003ED3F800C72CF4403CC3F800C7D3F8B3
:1095000000C701354EEA0C0EEDB2C3F800E7002AA1
:109510003FF41CAF904719E7006100400461004030
:10952000086100400C61004010610040146100407F
:10953000186100401C6100407C610040B434002090
:109540000003005022184FEA9E1192F9302054F87F
:109550002250002D7BD003297CD01F283AD8024608
:109560004FF0A04E0EEB820E1CF8189CDEF8002780
:1095700019EA0309C2F301427FF4B3AE032A7FF470
:10958000B9AE03297FF4B2AE4FF40032DEF80037F3
:1095900023F44033CEF80037DEF800371343CEF81B
:1095A0000037002D00F0ED800321A84794F96110E9
:1095B0004B1C00F0EB800125A1E6BEF1020F7FF409
:1095C000D9AE032900F0EF80B9F1000F3FF4D2AE1D
:1095D000C847CFE60EF01F02BE46C3E7BEF1020F3A
:1095E0007FF49EAE03297FF41BAF4FF4403E09E7A2
:1095F00003F01F0C3B46F2E6BEF1020F7FF4A6AE6D
:10960000032984D14FF4403E73E703F01F0C3B461F
:109610005BE703297FF484AE18F80CA04AEA090A34
:1096200008F80CA0D5E603297FF490AE18F80CA03A
:109630004AEA090A08F80CA041E703297FF49AAE28
:1096400018F80CA04AEA020A08F80CA0FBE6032965
:1096500040F0858018F809201A4308F809207CE7B3
:1096600000221A601B6801934FF0A042019BD2F8C0
:109670001025564B0292D3F81035039346F000465E
:10968000E2E5534AD2F8042311067FF5D8AD002253
:109690001A601B680093009B46F08006CFE54C4A99
:1096A000D2F8042350067FF5C5AD00221A601B686E
:1096B0000093009B46F04006BCE5454AD2F80423DF
:1096C00094067FF5B2AD00221A601B680093009BE0
:1096D00046F02006A9E53E4AD2F80423D5067FF5D8
:1096E0009FAD00221A601B680093009B46F0100695
:1096F00096E5374AD2F8042317077FF58CAD002290
:109700001A601B680093009B46F0080683E5304A08
:10971000D2F8042352077FF579AD00221A601B6846
:109720000093009B46F0040670E5294AD2F8042312
:1097300091077FF566AD00221A601B680093009BBD
:1097400046F002065DE52249D1F8046316F00106F1
:109750003FF452AD136013680093009B4CE594F9FD
:1097600061104B1C7FF4CBAD94F96210481C7FF460
:10977000DBAD94F963305A1C7FF4ECAD08B0BDE862
:10978000F08794F961104D1C7FF415AF94F96210C5
:10979000481C01D00125C7E594F96330591C3FF4FA
:1097A000EBAD0125D6E54FF4403269E64FF4403287
:1097B000ECE694F962104B1C01D01546B4E594F91F
:1097C00063305D1C3FF460AD1546C3E500030050F7
:1097D0000060004001F06043B3F1005F01D0102051
:1097E0007047F0B50579214EEF007C1906EB840433
:1097F00083B0636913B1112003B0F0BDA160626151
:10980000D0F800E0CEF82031DEF820C1D0F800E03A
:10981000CDF804C0DDF804C0CEF85831DEF858C1E8
:10982000D0F800E0CDF800C0DDF800C0CEF8441557
:10983000CEF8482502680121916062680AB1184695
:10984000DAE7036800E079B9D3F82021D3F858119A
:10985000002AF8D0002914BF0F2000207B1906EB46
:10986000830300225A61C7E70F20F7E72035002065
:109870000379054A03EBC30302EB83035869003005
:1098800018BF0120704700BF2035002001F0604361
:10989000B3F1005F01D010207047F0B50479454E58
:1098A000E3001D1906EB850583B06D6825B10768D7
:1098B0004FF4047EC7F808E3234406EB83039C6956
:1098C0006CB3DC69002C44D11961DA610368C3F818
:1098D0001041D3F8105103680195019DC3F844412C
:1098E000D3F8444103680094009CC3F83415C3F8CE
:1098F00038250268D2F8003243F02003C2F8003263
:109900000479E5002B1906EB83035B684BB303680E
:109910004FF40472C3F80423002003B0F0BD9A6131
:10992000DC61D9600368C3F81041D3F810510368B3
:109930000195019DC3F84441D3F844410368009464
:10994000009CC3F83415C3F83825036801221A6057
:10995000D6E705B303684FF40472C3F8042311205B
:10996000DBE7036801E0C1B9E8B9D3F81021D3F807
:109970004411D3F82401002AF5D02C4400284FF0DC
:10998000000306EB840614BF032018469942B36116
:1099900018BF0F20C1E71120BFE72C4406EB840657
:1099A0000F20B261B9E72C4406EB84060320B161B5
:1099B000B3E700BF2035002070B54A4BD3F824210F
:1099C00088B0002A55D1D3F81011F1B9454BD3F81E
:1099D000442152B10020444AC3F84401D3F8444121
:1099E00091690194019C002960D13E4BD3F820215C
:1099F0004AB100213C4AC3F82011D3F820415069F4
:109A00000094009C30BB08B070BDC3F81021D3F89F
:109A100010113548039103998169D3F83C458C4274
:109A2000D4D1C569002D50D0D3F80012C668856125
:109A300021F02001C3F800120369C261012201680C
:109A4000C3608DF81840436805968DF8102004A86F
:109A50009847BBE7D3F84C0593688DF818008DF84C
:109A600010105161059304A892E80A00984708B0C5
:109A700070BD0021C3F82411D3F8242102920222E0
:109A80008DF81020029AD3F88004174AC3F8800496
:109A90000790D3F83C05D3688DF818009161D16127
:109AA00005931168536804A898478FE7D3F83C459D
:109AB0008DF81840D36890610124059311685368AC
:109AC0008DF8104004A898478FE7C3680168856146
:109AD000012205938DF8184043688DF8102004A8E2
:109AE000984773E700800240203500200220FEF7EF
:109AF000E7BE00BF2DE9F0470D460646FEF70EFF14
:109B000003281ED8012D04461FD00ED3022D1AD1D2
:109B10001C4B00EB40041C44657895B11A4B1B6844
:109B20007BB12846BDE8F04718471848FDF768FFA5
:109B3000144B174A04EB44010B44125D9D78AA4272
:109B4000EBD0BDE8F087BDE8F0870E4F4FEA400844
:109B500008EB0003FA18FD5C53782BB9A044474486
:109B60000B4BBA781A55D8E7DFF8289007484A46D1
:109B70004FF40041FDF7EEFE0028EFD189F80060B8
:109B8000ECE700BFA8350020BC3500206835002078
:109B9000C43500204435002010B50078FEF7BEFE25
:109BA00003280BD8064B00EB40001844407828B13E
:109BB000044B1B6813B1BDE81040184710BD00BF2F
:109BC000A8350020BC350020B44B1B68DB0700D44F
:109BD000704770B5B24EB34D33782C78FBB9172C63
:109BE0001CD8DFE814F0F1001701170163007600BC
:109BF000830096005D0039002C0039002C00A30082
:109C0000A800A800A800A800A800CE00DE0004015B
:109C1000460018001800FEF73DFE2C7070BDA24BE8
:109C20001B7800203070002B00F00881FEF708FE42
:109C30000120FEF705FE0320FEF702FECFE7012319
:109C400018463370FEF73CFE00224FF480419748DF
:109C5000BDE87040FDF77EBE012318463370FEF765
:109C60002FFE002240F6CD419048BDE87040FDF740
:109C700071BE8D4B1B78002B00F001810020FEF798
:109C8000DFFD0120FEF7DCFD0320FEF7D9FD0020FB
:109C9000FEF7C2FD0120FEF7BFFD15232B7070BD3E
:109CA0000020FEF7B9FD07232B7070BD0020FEF7E2
:109CB0009FFD002800F0D6800020FEF7C1FD46F28F
:109CC000666103232B7000227848BDE87040FDF7E1
:109CD00041BE0020FEF78CFD002800F0C880002067
:109CE000FEF7AEFD4FF400310423EBE70020FEF752
:109CF0007FFD002800F0C0800020FEF7A1FD0523B5
:109D00002B70002241F69A116848BDE87040FDF7BB
:109D100021BE0020FEF7D4FD06232B70002240F662
:109D2000CD416248BDE87040FDF714BEFEF7B2FDBC
:109D30000C232B7070BD5E48FDF762FED4F1110458
:109D400005467ED000287CD1012C13D0C82303FB0C
:109D500004F44FF4FA704FF400430021C3FB0401F4
:109D60004FF47A72002330F095FA2A4601465048A3
:109D7000FDF7F0FD0220FEF74FFD4B4B01221A705C
:109D800070BD494B1B78002B7CD00020FEF758FD9E
:109D90000120FEF755FD0320FEF752FD12232B7024
:109DA00070BD414B1B78002B72D00020FEF748FDA0
:109DB0000120FEF745FD0320FEF742FD0020FEF7DF
:109DC0002BFD13232B7070BD374B1B78002B5CD001
:109DD0000020FEF735FD0120FEF732FD0320FEF7DF
:109DE0002FFD3248FDF70CFE00232B7070BD2E4B6B
:109DF0001B78002B4FD00020FEF722FD0120FEF73C
:109E00001FFD0320FEF71CFD0120FEF705FD1423B6
:109E10002B7070BD0020FEF7EBFCC8B10020FEF7F0
:109E20000FFD022C4EF2666118BF4FF400312C700A
:109E300000221E48BDE87040FDF78CBDFEF714FD02
:109E4000CDE60220FEF7FCFC174B00221A7070BD15
:109E5000FEF7E2FC43F2333141F69A13022C08BFBD
:109E60001946E4E7FEF7D8FC41F69A1129E7FEF718
:109E7000D3FC43F2333137E7FEF7CEFC3FE7FEF782
:109E8000F3FC04E7FEF7F0FC88E7FEF7EDFCA8E73B
:109E9000FEF7EAFC92E7FEF7E7FCB5E7B4350020F1
:109EA000B8350020C0350020453500208835002019
:109EB00048350020032801D900207047FEF71ABD5D
:109EC00038B5C54B1C6814F0010401D1204638BDDB
:109ED000C24C23780546E3B9172D00F28981DFE8EB
:109EE00015F00B013501350169007D009100A500D9
:109EF0005B003500280035002800B300BA00BA0026
:109F0000BA00BA00BA00E300F60020014200630084
:109F10006300B34B1B7800202070002B00F02B81D6
:109F2000FEF78EFC0120FEF78BFC0320FEF788FC79
:109F3000D2E7012318462370FEF7C2FC00224FF43B
:109F40008041A848BDE83840FDF704BD012318460C
:109F50002370FEF7B5FC002240F6CD41A148BDE8D4
:109F60003840FDF7F7BC9E4B1B78002B00F0248196
:109F70000020FEF765FC0120FEF762FC0320FEF7DF
:109F80005FFC0020FEF748FC0120FEF745FC964BE5
:109F900015221A70002499E70020FEF73DFC924B31
:109FA00007221A70002491E7FEF774FC8E4B002400
:109FB0001D708BE70020FEF71BFC002800F0E580F9
:109FC0000020FEF73DFC46F26661874B854803247E
:109FD0001C700022BDE83840FDF7BCBC0020FEF735
:109FE00007FC002800F0E0800020FEF729FC4FF479
:109FF00000317D4B7B4804241C700022BDE83840B2
:10A00000FDF7A8BC0020FEF7F3FB002800F0D1808C
:10A010000020FEF715FC744B724805241C700022CA
:10A0200041F69A11BDE83840FDF794BC0020FEF7D8
:10A0300047FC6D4B6B4806241C70002240F6CD4156
:10A04000BDE83840FDF786BCFEF724FC664B0C22C9
:10A050001A7000243AE76548FDF7D2FC0446D5F1B2
:10A06000110000F08B80002C40F08880012814D073
:10A07000C82505FB00F54FF400434FF4FA700021AA
:10A08000C3FB05014FF47A72002330F003F9224636
:10A0900001465648FDF75EFC04460220FEF7BCFB75
:10A0A0004F4B01221A7011E74D4B1B78002B00F02B
:10A0B00086800020FEF7C4FB0120FEF7C1FB0320D1
:10A0C000FEF7BEFB484B12221A700024FEE6444BFA
:10A0D0001B78002B79D00020FEF7B2FB0120FEF7A1
:10A0E000AFFB0320FEF7ACFB0020FEF795FB3E4BD9
:10A0F00013221A700024E9E6394B1B78002B61D03B
:10A100000020FEF79DFB0120FEF79AFB0320FEF7DF
:10A1100097FB3448FDF774FC334B002204461A7059
:10A12000D4E62F4B1B78002B52D00020FEF788FB83
:10A130000120FEF785FB0320FEF782FB0120FEF7DE
:10A140006BFB294B14221A700024BFE60020FEF797
:10A150004FFBF8B10020FEF773FB022D4EF2666153
:10A1600018BF4FF40031204B1E481D700022BDE87F
:10A170003840FDF7EFBBFEF777FBADE60220FEF7B8
:10A180005FFB174B00221A70A0E6FEF745FB41F675
:10A190009A111AE7FEF740FB43F2333141F69A1366
:10A1A000022D08BF1946DEE7FEF736FB43F23331D6
:10A1B0001FE7FEF731FB2EE7FEF756FBE1E6FEF761
:10A1C00053FB7FE7FEF750FBA3E7FEF74DFB8BE762
:10A1D000FEF74AFBB2E700BFB4350020B8350020D7
:10A1E0004535002088350020C03500204835002046
:10A1F00000246BE6F8B5254B254A19608107044613
:10A20000106014D5234B24480E2111250F2710264A
:10A2100019705D7240F266620421DF709E71FCF776
:10A2200025FF0546C0B1E3072AD42846F8BD10F043
:10A230000105FAD00120FEF783FB184A18480021D7
:10A24000FDF776FB05460028EFD1164A1648012196
:10A25000BDE8F840FDF76CBBFCF760FF0546002841
:10A26000E1D10146114A1248FDF762FBE2070546BB
:10A27000DBD50120FEF764FB002DDED02846F8BDBB
:10A280000120FEF75DFB2846F8BD00BFBC3500206D
:10A29000B4350020A835002074AC0500C99B02002D
:10A2A0009CAC0500ED9A020094AC0500999B02005D
:10A2B00098AC0500032801D907207047012A12D065
:10A2C000012917D008D30229F6D10D4B00EB40002D
:10A2D000034400205A707047094B00EB40000344D0
:10A2E00000209A707047012901D00022E8E700F1B0
:10A2F0000E02D2B200EB400301490020CA5470475D
:10A30000A835002010B50388102B08D0112B05D1DB
:10A31000264B18680138186038B110BD10BD234CA9
:10A32000216881B10131216010BD01220221FFF7B6
:10A33000C1FF48B3072827D01D4B1B68002BECD06A
:10A34000BDE81040184701220846FFF7B3FF48B1A7
:10A35000072807D0164B1B6803B1984721680131C5
:10A36000216010BD072202210120FFF7A3FF08B1E1
:10A370000728EFD1042202210020FFF79BFF0028CD
:10A38000ECD00728E6D1E9E7072202210120FFF7F8
:10A3900091FF08B10728CFD1002108460A22FFF714
:10A3A00089FF0028B9D00728C6D110BDCC350020C0
:10A3B000C8350020194B10B5186031B101200C468A
:10A3C000FFF778FD30B102232370154B186848B1B0
:10A3D000002010BDFFF76EFDE8B9114B2070186822
:10A3E0000028F5D101220221FFF764FF08B10728F8
:10A3F000EFD1072202210120FFF75CFF08B10728F7
:10A40000E7D1002108460A22FFF754FF0028DFD0D9
:10A410000728DED1DCE70B232370D6E7C835002000
:10A42000CC35002076DF70477ADF70477CDF7047DD
:10A430007FDF704790DF7047B0DF7047B1DF704754
:10A4400066DF704741DF7047014B08221A70704782
:10A45000383A0020FCF778BE10B50388013B84B081
:10A460000446552B3FD8DFE803F0783E3E3E3E3EA3
:10A470003E3E3E3E3E3E3E3E3E2B7F3E943E3E3E78
:10A480003E3E3E3E3E3E3E3E3E3E3E3E4A3E3E3EE0
:10A490003E3E3E3E3E3E3E3E3E3E3E3E3E3E3E3EDC
:10A4A0003E3E3E3E403E3E3E3E3E3E3E3E3E3E3ECA
:10A4B0003E3E3E3E3E3E3E3E3E3E576E3E3E3E4071
:10A4C000394B3A483A49C01AC008000440F003002A
:10A4D000FCF7DCF90720FFF7F3FC08B1FCF734FECA
:10A4E000344BA2881A8004B010BD80881321FFF776
:10A4F00099FF0028F7D0FCF727FE04B010BD082212
:10A50000002168462EF094FB6946A0880022FFF7E0
:10A5100091FF0028E7D0EEE78379002BE3D0827B20
:10A52000043A022ADFD8022B18BF01238DF800302D
:10A5300080884FF4C1736946ADF80430FFF77CFFA3
:10A540000028D0D0D7E71B4A0023108819461A46A6
:10A55000FFF774FF0028C6D0CDE780880021FFF701
:10A560006FFF0028BFD0C6E70F4B10481249C01A32
:10A57000C008000440F00300FCF788F90F4B0D49B8
:10A580001A784FF6FF70032A0880ACD104221A70A3
:10A59000A9E7084A0023108885211A46FFF748FFDB
:10A5A0000028A0D0A7E700BF3C460600544606009E
:10A5B000A0AC0500B42A0020ACAC0500383A00205D
:10A5C0000C4B4A881B889A4200D070470A8840F694
:10A5D00077239A42F9D1084A08488B880849801A9B
:10A5E000033BC0089BB2000440F003001A46FCF78E
:10A5F00041BA00BFB42A00203C460600544606007B
:10A60000DCAC050008B5037803B108BD054B3B2160
:10A610001888FFF707FF0028F7D0BDE80840FCF7CF
:10A6200093BD00BFB42A0020072808B51ED010280B
:10A630000ED0042800D008BD134B13211888FFF753
:10A64000F1FE30F00803F6D0BDE80840FCF77CBD11
:10A650000E4B1A78012AEED10B4A11884FF6FF7281
:10A66000914214BF022204221A7008BD064B1A88B8
:10A670004FF6FF739A42DED1054801F0E9FC30F055
:10A680000803D8D0E0E700BFB42A0020383A002001
:10A69000E037002008B530B1032803D10220FFF7CE
:10A6A0000FFC30B908BD0321044801F007FB002866
:10A6B000F8D0BDE80840FCF747BD00BFE0370020F8
:10A6C00010B5420782B004460CD4A30508D502F0A9
:10A6D000DBFC002300931249124B042206F094F98C
:10A6E00002B010BD084606F0A0FC01280CD90228D3
:10A6F000EBD10720FFF7E4FB70B90B4B1A78052A62
:10A7000004BF06221A70E0E71420FFF7D9FB0028E7
:10A71000DBD0FCF719FDD8E7FCF716FDEDE700BF2D
:10A72000543A00200D0A0300383A002038B5037867
:10A7300003B138BD04461048A58A2EF0DEFE8542DE
:10A74000F7D10D4824692EF0D8FE0B490246204669
:10A750002EF0DBFE0028ECD1084B1A78012AE8D154
:10A76000074A11884FF6FF72914202D002221A70F6
:10A7700038BD04221A70DCE7C4B20500383A002064
:10A78000B42A002070B5AEB000F006FA002840F000
:10A79000C1802EAC002344F8B03D0120214600F0DA
:10A7A00043FB002840F0B380204600F01BFC00284B
:10A7B00040F0AA801320FFF783FB002840F0A1801F
:10A7C0009DF804305548012262F303032EAC62F376
:10A7D000071304F8B43D2EF090FE504982B2204693
:10A7E000FFF724FE002840F0898003A808220021FA
:10A7F0002EF01EFA4A4B039303A84FF0C87304933C
:10A80000FFF712FE08B1FCF79FFC4649464802F0EC
:10A81000A7F800286FD14021434802F0B9F808B1E9
:10A82000FCF792FC0021042203A82EF001FA3F4B12
:10A830003F48039303A902F095FA08B1FCF784FCA2
:10A84000AC22002103A82EF0F3F9022500240521F3
:10A850000123384E384A8DF80C508DF80E404025B3
:10A8600044F250648DF80F103448ADF8583003A905
:10A870008DF888301796259526942C9201F0A4F92E
:10A8800008B1FCF761FC01212C4801F099F91C2268
:10A89000002103A82EF0CCF94FF4203600234FF40A
:10A8A000702503242649274A039303A8ADF81A30DC
:10A8B0008DF81C30049605958DF818400891099282
:10A8C00001F022FD08B1FCF73FFC1F4A1F48204B56
:10A8D0002049801AC008000440F0030001221A70C9
:10A8E000FBF7D4FF0321154801F0E8F908B1FCF7A4
:10A8F0002BFC2EB070BDFCF727FC8CE7FCF724FC8A
:10A9000073E7FCF721FC5BE7FCF71EFC52E7FCF762
:10A910001BFC49E7FCF718FC3BE700BFBCAC05009B
:10A9200010003C00C1A502003C3A00202DA7020007
:10A93000B82A0020B02A002095A60200E0370020A7
:10A9400005A6020055A402003C4606005446060037
:10A95000383A0020C8AC050080B54FF4004184B0FF
:10A960000020FBF7FDFD08B1FCF7EEFBFBF77CFDDB
:10A970007A4A20210820FCF75DFC08B1FCF7E4FBD3
:10A98000FCF782FF08B1FCF7DFFB754A7548002130
:10A99000FCF7CEFF08B1FCF7D7FB73490320FFF7A4
:10A9A00029FC08B1FCF7D0FB01A90020FFF702FD4C
:10A9B00008B1FCF7C9FBFFF7E5FE6C486C4B6D492D
:10A9C0006D4CDFF8C4916D4EDFF8C081C01AC0082D
:10A9D000000440F00300FBF759FF694D694F2378ED
:10A9E000023B062B0FD8DFE803F0860E4F0C042B3A
:10A9F0004A0002F049FB0022322102F01FFA07232D
:10AA0000237002F035FBFCF7A3FCFBF707FE0028E0
:10AA1000E5D12378013B072BE1D801A252F823F0BE
:10AA20000DAB02000DAB02000DAB0200DFA902006E
:10AA30001DAB02001DAB02001DAB02001DAB0200EE
:10AA40002846FCF7DDFF00287ED102F01DFB06F052
:10AA50000FFA0028D5D102F017FB06F027F90028DD
:10AA6000CFD102F011FB22F015FE012805D002F033
:10AA70000BFB22F00FFE0028C3D10823237002F045
:10AA8000EBFAFFF77FFEBEE701F07CFC002861D106
:10AA900000F00AF900285AD1002030603368009392
:10AAA000009BFFF70DFA08B1FCF74EFB01230021D4
:10AAB0004EF6602201A8019102928DF804308DF8C3
:10AAC0000630CDF80C8002F023FA384602F0E2FAA4
:10AAD000052314202370FFF7F3F908B1FCF734FBCA
:10AAE00000224FF4A0212846FCF734FF00288AD02A
:10AAF000FCF72AFB87E71321B9F80000FFF792FC67
:10AB000008B1FCF721FB032323707CE7FFF79AFCD5
:10AB100000283FF462AFFCF717FB5EE702F0B4FADF
:10AB200006F0A6F900287FF458AF02F0ADFA22F043
:10AB3000B1FD012806D002F0A7FA22F0ABFD0028F3
:10AB40007FF44BAF20BF48E7FCF7FEFA7DE7FCF748
:10AB5000FBFAA1E7FCF7F8FA9AE700BFD03500202E
:10AB600049A40200F8AC050029A6020054460600DC
:10AB70003C460600FCAC0500383A002000010040CD
:10AB8000B43A0020C1A60200B42A002080A9030024
:10AB900010DF704711DF704770B53A4D2B7884B0E5
:10ABA0001BB10824204604B070BD374E374901233D
:10ABB00002A83370FDF7D6FC039B2BB90CE002A86A
:10ABC000FDF7DAFC039B3BB11A68596800209047F7
:10ABD0000028F4D10446E5E72D4902A8FDF7C2FCA0
:10ABE000039B4BB11A6859680020904702A8FDF7F3
:10ABF000C3FC039B002BF5D1264A002312688DF875
:10AC0000083002A80192FCF779FF234901A8FFF759
:10AC1000BFFFB0FA80F304465B099DF808002B7073
:10AC2000FCF792FF002CBDD11C4B1D491C703470E9
:10AC300091F81623EC2352091341DB0717D5194B62
:10AC40009A68CAB94FF480030B60114902A8FDF756
:10AC500089FC039B002BA5D01A68596801209047F6
:10AC600002A8FDF789FC039B002BF5D19AE742F27D
:10AC70000200FCF769FAE8E71A6842F480021A60F9
:10AC8000E3E700BFD53A0020D43A00202CAD050000
:10AC900044AD050028AD050069710200D63A0020D8
:10ACA00000E100E00CD80020F0B52F4D2B7883B0E8
:10ACB0001BB90824204603B0F0BD2C4E2C490123BB
:10ACC00068463370FDF74EFC019B2BB90CE06846DB
:10ACD000FDF752FC019B3BB11A685968012090476F
:10ACE0000028F4D10446E5E722496846FDF73AFC1E
:10ACF000019B4BB11A685968022090476846FDF7DE
:10AD00003BFC019B002BF5D1002768468DF80070B5
:10AD1000FCF7F4FEFFF73EFF04469DF800002F709D
:10AD2000FCF712FF002CC5D1134B34709A68B2B9EE
:10AD3000124B4FF48002C3F880200E496846FDF79D
:10AD400011FC019B002BB5D01A685968032090476D
:10AD50006846FDF711FC019B002BF5D1AAE71A68A4
:10AD600022F480021A60E8E7D53A0020D43A0020A5
:10AD70002CAD050044AD05000CD8002000E100E03A
:10AD8000014B1878704700BFD53A002000B583B05A
:10AD900068460849FDF7E6FB019B43B158681A680D
:10ADA00090476846FDF7E8FB019B002BF6D103B006
:10ADB0005DF804FB38AD050060DF704769DF704760
:10ADC00061DF704730B5134DADF5017D4FF4FA7476
:10ADD0000DF1020103A8ADF80240FFF7F1FF88B9B9
:10ADE000294601A8FDF7BEFB029B002BF0D01A6894
:10ADF000596803A8904701A8FDF7BEFB029B002BF2
:10AE0000F5D1E5E7052801D0FCF79EF90DF5017DA8
:10AE100030BD00BFD8AF0500024B1B780BB1FFF768
:10AE2000D1BF7047D73A0020002900F08F8070B55D
:10AE3000634B0B6084B00C4605460C22002101A830
:10AE40002DF0F6FE0126062301A922688DF8045094
:10AE500020208DF80660ADF80830FFF7AFFF00281E
:10AE600040F084800C22002101A82DF0E1FE012198
:10AE700000238DF8051022688DF8063001A94020C6
:10AE80008DF80730FFF79AFF002841D10C220021EE
:10AE900001A82DF0CDFEF72322688DF8045001A9FA
:10AEA0002320ADF80630FFF789FF00287AD10C2265
:10AEB000002101A82DF0BCFE0123184622688DF860
:10AEC000043001A9FFF77AFF00285DD10C22002190
:10AED00001A82DF0ADFE4FF4B0632268019301A9E3
:10AEE000A120FFF76BFF002832D10C22002101A81E
:10AEF0002DF09EFE9DF8043022686FF3000301A937
:10AF0000A0208DF80430FFF759FF78B904B070BD68
:10AF1000FDF73EFB2B4A2C4B2C499B1ADB081B04EC
:10AF2000024643F00100FBF72BFDAFE7FDF730FBD6
:10AF3000244A254B26499B1ADB081B04024643F092
:10AF40000100FBF71DFD002004B070BD0E2070470E
:10AF5000FDF71EFB1B4A1C4B1E499B1ADB081B04FA
:10AF6000024643F00100FBF70BFDBEE7FDF710FBC7
:10AF7000144A154B18499B1ADB081B04024643EA86
:10AF80000600FBF7FDFC6DE7FDF702FB0D4A0E4BDB
:10AF900012499B1ADB081B04024643F00100FBF731
:10AFA000EFFC93E7FDF7F4FA064A074B0C499B1AAE
:10AFB000DB081B04024643F00100FBF7E1FC76E7E7
:10AFC000982A00203C4606007C460600A0AD0500FD
:10AFD000D4AE050080AE050058AD050034AE0500C6
:10AFE000ECAD0500F8B504460768FFF7E5FE2368F9
:10AFF0009F42064605D326BB1A4B01221A703046E3
:10B00000F8BD194B194D1A49ED1AED082D0445F0FC
:10B0100002052846FBF73AFC3A46284623681549BC
:10B02000FBF728FD4FF080532268D3F80C3112490A
:10B030009B0203F1005328469A1AFBF7A1FC002E4D
:10B04000DAD03046FDF7A4FA074A084B0B499B1AA1
:10B05000DB081B04024643F00100FBF791FC30467D
:10B06000F8BD00BFD73A00203C4606007C460600EB
:10B0700028AF050058AF05008CAF0500B8AF05003C
:10B080004BDF704710B5114C84B001A8FFF7F8FFF3
:10B09000A8B9214602A8FDF765FA039B002BF4D05E
:10B0A0001A6859680198904702A8FDF765FA039B52
:10B0B000002BF5D101A8FFF7E3FF0028E9D0052810
:10B0C00001D0FCF741F804B010BD00BFF0AF05009F
:10B0D0002DE9F84F4400DFF87CA126180AEBC606DC
:10B0E0008146D6F82C80B8F1010F8B46174661D007
:10B0F00038D3B8F1020F30D100F1010909EB490949
:10B10000756A4FEAC9094FF000081CE0326A641BF7
:10B11000BC420AEB09012346A2EB050428BF3B46CB
:10B120009C42486828BF1C462844594622462DF0B8
:10B130005AFD336A25449D4208BF00253F1BA044A9
:10B14000A34475620BD0B36AAB4203F1FF34DDD880
:10B15000326A1344013B5C1BDAE74FF000084046BB
:10B16000BDE8F88FB36A756AAB429CBF326A9B1820
:10B17000013B5B1B9F42F2D804440AEBC40400F17C
:10B180000109266A761B09EB4909B7420AEBC90A8D
:10B1900056D3DAF8040032462844BD1B2DF023FDB7
:10B1A000DAF804000BEB06012A462DF01CFDB84628
:10B1B0006562D4E7B36A756AAB4226D903F1FF38FA
:10B1C000366AA8EB0508B84528BFB846761BB045D7
:10B1D00023D309F1010707EB47070AEBC707A1448F
:10B1E00078683246594628440AEBC90AA8EB060596
:10B1F0002DF0F9FC78680BEB06012A462DF0F3FCE4
:10B20000CAF824504046BDE8F88F366A03EB0608BA
:10B2100008F1FF38A8EB0508D5E709F1010303EBB6
:10B2200043030AEBC303A14458680AEBC90A284444
:10B230005946424645442DF0D6FCCAF824508EE7C4
:10B24000DAF804003A4628443D442DF0CCFCB846D8
:10B25000656284E718D800202DE9F0432F4C94F85C
:10B2600000E083B00546884616461F46BEF1000F33
:10B270002AD02369AB424DD902A84FF0000900F84B
:10B28000019DFCF73BFC6DB92A46154404EBC5044F
:10B290000A9B9DF80700E362FCF756FC002003B010
:10B2A000BDE8F0836B1C03EB4303DB006A0051191C
:10B2B00004EBC10144F8038023440F625E60C1F8CF
:10B2C0002890C1F82490E0E70222154B154822612E
:10B2D00062614FF40071144AA361A3641023C4F89F
:10B2E00028E02365C4F824E0C4F82CE0C4F858E052
:10B2F000C4F854E0C4F85CE0E0612162E2640B4908
:10B30000E01D2EF0DDF80A4920462EF0D9F8202362
:10B31000A371AEE74FF0FF30C1E700BF18D800209F
:10B3200008B00500E83A0020D83A002014B0050023
:10B3300018B00500F8B5114C114B124AE3614FF4F7
:10B3400000750023104FA36210266362E362A365B9
:10B350006365E3650D492562A2610225A264E01DD3
:10B36000E7642665256165612EF0AAF82046084944
:10B370002EF0A6F82023A371F8BD00BF18D8002036
:10B38000E83A002008B00500D83A002014B00500C3
:10B3900018B005006DDF704779DF70477DDF7047BB
:10B3A00064DF70472DE9F04F83B004880C9FBDF82F
:10B3B0003490B7F800A0002C4CD0984600231646D5
:10B3C0008B4605461C4603E02A880134A24224DD50
:10B3D0006A6852F82400019000220DF1030101A8CF
:10B3E000FFF7DEFF10BB9DF80320B242ECD103B3A0
:10B3F0003A8893194B4518DC42440DF1030101A82A
:10B400000123FFF7CDFF88B939889DF803200A444E
:10B410003A802A880134A242DADCDBB13B88013B66
:10B42000A3EB0A039BB2FF2B12D90C2003B0BDE89B
:10B43000F08F3B885A1C334402334B4592B2F4DC04
:10B440003A8008F802B03A88013292B23A80D3E7E3
:10B4500008F80A30002003B0BDE8F08F2DE9F0476E
:10B4600000231788138090F82D3086B014460546C7
:10B470000E46002B49D1AA78002A70D1EA78002A1A
:10B480002ED16A68A2B1D91CB94225D8022192F9FD
:10B490000020F154238801339BB20A212380F15408
:10B4A000238801339BB22380F25423880133238005
:10B4B0002B89002B40F030812B8A002B40F04581F6
:10B4C0002B8B002B40F05A812B6A002B00F0A780B9
:10B4D0002288911DB94262D90C2006B0BDE8F087E0
:10B4E000D91CB942F8D80221F154238801339BB208
:10B4F00001212380F15423880B449BB22380F25412
:10B5000023880B449BB22380BBE7082FE4D904A80F
:10B51000FFF740FF0028E0D113880822CA5423888F
:10B5200001339BB21B222380CA542088013080B291
:10B530002080062208440DF111012DF054FB2388D0
:10B540009DF8102006339BB212F0FE0218BF0122B4
:10B550002380F254238801339BB223808BE704338A
:10B56000BB42B9D804A8FFF717FF0028B5D123883C
:10B57000BDF810200321F154238801339BB2192117
:10B580002380F154238801339BB2F1182380F254B5
:10B59000120A4A70238802339BB223806EE719880F
:10B5A000052940F2B5806FF4486801EB080080B2CD
:10B5B0004FF27D3E704540F2AB805888052840F23E
:10B5C000A7806FF4486C84441FFA8CFCF44540F269
:10B5D0009F804FF6FF7E714504D0704502D08142B6
:10B5E00000F296800521B1542288013292B21221D4
:10B5F0002280B1542288013292B222801988B1543B
:10B600003244090A51702288023292B222805B8849
:10B61000B35432441B0A53702388023323806B6A6D
:10B62000002B30D09888B4F800E0811C0EF10202A3
:10B630000A44BA423FF650AFFE293FF64DAF033001
:10B6400006F80E002288013292B2FF212280B15406
:10B650002288013292B222801988B1543244090AF8
:10B6600051702088023080B220809A885AB199683F
:10B67000039300294CD030442DF0B5FA039B9A88EF
:10B6800023881344238095F82C30002B40F08F80C2
:10B69000287800283FF421AF2B88012B38D023884D
:10B6A0009A1CBA423FF618AF012805D169780231D9
:10B6B00019448F42FFF410AF023FFB1A06A99BB258
:10B6C00021F8083DB018FFF769FE00287FF405AFA8
:10B6D0002A78022A00F0BB806878BDF810108842F2
:10B6E000C0F0B1808B42C0F0AE800B460921FE2B2A
:10B6F0003FF6F2AE2288581CB0542288013292B232
:10B700002280B15422880132134423800020E4E6D1
:10B71000072006B0BDE8F08705F1080802228DE891
:10B720009000404611463346FFF73CFE00287FF468
:10B73000D4AE8DE890004046334610220621FFF734
:10B7400031FE00283FF4B8AEC7E605F110088DE8D9
:10B7500090004046334602220321FFF723FE0028D3
:10B760007FF4BBAE8DE8900040463346102207219F
:10B77000FFF718FE00283FF4A3AEAEE605F1180867
:10B780008DE890004046334602221421FFF70AFE5E
:10B7900000287FF4A2AE8DE8900040463346102288
:10B7A0001521FFF7FFFD00283FF48EAE95E6D5F892
:10B7B0002880B8F1000FABD0B8F804200232FE2A7E
:10B7C0003FF68AAE23884FF000094FF0160A013287
:10B7D000F254238801339BB2238006F803A0238808
:10B7E00001339BB22380B8F80020F2543344120A8C
:10B7F0005A70238802339BB22380B8F80410F018E3
:10B800000A4661B1D8F808301946002B80D02DF0D7
:10B81000EAF9B8F80420238813449BB2238009F185
:10B82000010995F82C205FFA89F94A4509EB490886
:10B830007FF62EAFAA6A02EB8808B8F8042002321D
:10B84000FE2AC4D948E6012A08D008214FE7BDF8EE
:10B8500010209342F9D31346092148E78342F4D3D9
:10B860000346082143E700BFD8B130B44378934280
:10B870001BD0B9B10024234601E0994212D9045DDE
:10B88000013423449BB2C5181C466D789542F4D10F
:10B89000994207D9025D0233012A9BB202D030BC23
:10B8A00018447047002030BCFBE700242346EFE734
:10B8B00072DF704773DF704774DF704770B50446FE
:10B8C00000F24A2681700D463046072200212DF0F5
:10B8D000AFF9E38813B1A378012B2AD0E3792BBB0E
:10B8E00094F84B32002B40F0C38094F84C32002B7C
:10B8F00040F0BE8094F84D32002B40F0B98094F8AF
:10B900004E32002B40F0B48094F84F32002B40F0C0
:10B91000AF8094F850321A1C18BF01226B1E032B03
:10B9200000F24881DFE803F00F5B1845A378022B93
:10B93000D6D1636B002B00F0F780012284F85122EE
:10B9400008209847CCE7A379002B48D094F82430FE
:10B95000002B44D1002A48D1237A53B3636B0322CE
:10B96000A2706BBB002384F8533204F13C0518220B
:10B97000002128462DF05CF9E36A0122591E91420C
:10B9800084F83C2054D9042B52D094F8241084F825
:10B990005120002955D084F85220A37800211A465E
:10B9A00084F85010042B39D8DFE803F07B64AE2113
:10B9B0007F00657ACDB1636B0422A270002BD1D0D9
:10B9C0006279002ACED094F85222002ACAD10121ED
:10B9D00084F8542284F8531207209847C5E7E37986
:10B9E000002BB9D0002AB7D00225A570BAE762694A
:10B9F000A16962640622A4F8481084F83C206279A8
:10BA000022B194F85222002A00F0B280032284F876
:10BA1000312004F50D76C4F844621A46002A40F03D
:10BA2000CC80636B13B194F831009847002070BD4F
:10BA300094F8242084F8513072B1A36A84F852300B
:10BA4000ABE7A37884F850101A46042BE6D8DFE859
:10BA500003F028116E737900A37800211A4684F848
:10BA60005010042BDAD8DFE803F01C0562676D0084
:10BA7000012253E70023012002218022266484F85A
:10BA80003100C4F84432636484F83C10A4F84820C0
:10BA900000212A4604F15400FFF70AFF00285DD078
:10BAA00070BD002384F83130BBE7E269216A62642B
:10BAB0000622A4F8481084F83C206279002A47D076
:10BAC00094F85222002A43D194F85422002A3FD0FD
:10BAD000022384F850300122B4F83812D4F834022A
