:020000022000DC
:1060000000000420B5620200DD620200DF620200CF
:10601000E1620200E3620200E562020000000000AB
:10602000000000000000000000000000E762020025
:10603000E962020000000000EB620200ED62020073
:106040000DE30200EF62020089BE0600EF6202006B
:10605000EF620200EF62020041DD0200EF62020027
:10606000EF620200EF62020039E802008DE50200F3
:10607000EF620200EF620200EF620200EF620200D4
:10608000EF620200817E0200EF620200EF62020016
:10609000497F0200EF6202003DFC020085390700E3
:1060A000EF620200EF62020091E80200196D030046
:1060B000EF620200EF62020000000000000000003A
:1060C000EF620200EF620200EF620200EF62020084
:1060D000398A0600EF620200EF620200EF620200FE
:1060E000E9ED0200EF620200E5F4060000000000A6
:1060F00000000000EF62020000000000EF620200FA
:10610000000000000000000000000000000000008F
:10611000000000000000000000000000000000007F
:10612000000000000000000000000000000000006F
:10613000000000000000000000000000000000005F
:10614000000000000000000000000000000000004F
:10615000000000000000000000000000000000003F
:10616000000000000000000000000000000000002F
:10617000000000000000000000000000000000001F
:10618000000000000000000000000000000000000F
:1061900000000000000000000000000000000000FF
:1061A00000000000000000000000000000000000EF
:1061B00000000000000000000000000000000000DF
:1061C00000000000000000000000000000000000CF
:1061D00000000000000000000000000000000000BF
:1061E00000000000000000000000000000000000AF
:1061F000000000000000000000000000000000009F
:1062000010B5054C237833B9044B13B10448AFF3F0
:1062100000800123237010BD901F012000000000AA
:106220007440080008B5034B1BB103490348AFF3A2
:10623000008008BD00000000941F01207440080089
:10624000154B002B08BF134B9D46A3F5803A002148
:106250008B460F461348144A121A4EF02CFF0F4B70
:10626000002B00D098470E4B002B00D09847002001
:10627000002104000D000D48002802D00C48AFF3A7
:1062800000804EF095FE2000290009F06BFB4EF0D7
:1062900069FE00BF000008000000042000000000AC
:1062A00000000000901F0120988C022000000000D8
:1062B000000000000649074A074B9B1A03DD043B18
:1062C000C858D050FBDC01F093FAFFF7B9FF00008B
:1062D0007C44080018170120901F0120FEE7FEE70C
:1062E000FEE7FEE7FEE7FEE7FEE7FEE7FEE7FEE786
:1062F000704700BF00B583B0044B0093044A4023AD
:1063000000F036F803B05DF804FB00BF156302002F
:10631000B01F012002B32DE9F843114B114E8846FE
:10632000144643F0010903270025224608EB050126
:10633000002009F0F5FD03461D444FF47A40E41AAD
:1063400023B9337833B1C847013F06D001233370F6
:10635000002CEAD1BDE8F88370473770BDE8F883B8
:10636000C06F0700AC1F0120704700BF09F0F8BFE5
:10637000F0B595B0002415460F4608461E4606F0B7
:10638000D3FB3846234608950C2205A91A9D099689
:106390000D950A948DF82C400C9406F01FFC9DF886
:1063A00014308DF81140DDE9061003F00302012AD4
:1063B000CDE9020127D0022A04D0384606F0B8FB06
:1063C00015B0F0BDBDF81650C3F3C2038DF8103000
:1063D000AD090C26082D2C4628BF0824334622463A
:1063E0000EA9384606F0FAFB2D1B214608AB02AA7F
:1063F0000EA8264401F000F8002DEBD1384606F037
:1064000097FB15B0F0BDBDF81460059DC6F383166B
:10641000C3F3C204B2000EA938460C238DF8104015
:10642000C5F3952506F0DAFB08AB324628460EA9DF
:10643000009302AB00F0FCFE384606F079FB15B085
:10644000F0BD00BF08B5FFF791FF0421034800F03D
:1064500063FE034B01225A7108BD00BFF4430800DC
:1064600018170120064B8B6004284FF00003CB6007
:106470004B609CBF034B53F820300B60704700BF4C
:10648000DC71070000720700C368DB6800225A71E4
:10649000704700BFC368DB6801225A71704700BFB4
:1064A00030B40E4B0E4D0F4CED1A00222D09C1E9F0
:1064B0000242C1E900220BD003EB0515DC68247908
:1064C000FF2C02D0904205D001321033AB42F5D1FF
:1064D00030BC70479B680B6030BC7047F4430800C9
:1064E00074440800147207000129034604D081682F
:1064F000D1F83C17890704D500221846114605F04B
:10650000D7B800B5D2E90031054A83B0CDE9002102
:10651000044A022103F086FC03B05DF804FB00BFCF
:10652000A0700700947007008368D3F83C379B077E
:1065300033D42DE9F0471B4C1B4E361B360982B075
:1065400028D00746DFF868A0DFF86890DFF8688099
:1065500004EB06160CE06D79CDF804C0002D0CBFDD
:1065600055464D460095103403F05CFCA64211D010
:10657000D4E902E595F804C0BCF1FF0F734642462A
:106580004FF008013846E6D1084A103403F04AFCBF
:10659000A642EDD102B0BDE8F0870022114605F019
:1065A00087B800BFF443080074440800CC700700AB
:1065B000C0700700B8700700EC7007002DE9F04FBD
:1065C0009C4C002385B0C4F81834BFF34F8FD4E936
:1065D000015605EA0602D31C04EB830114F82330AC
:1065E000580719D527680B7803F00303012B3FD018
:1065F000022B03D14B88033505EB931506EA050200
:10660000D4F81804D31C04EB830128B9AF4235D960
:1066100014F823305B07E6D404EB8202691CAB1C40
:1066200031403340D068019004EB810204EB8303D6
:1066300000F00300D268DB680228CDE9022305F1EF
:10664000030800F0988001281CD0D4F810543DB104
:106650002B6828469B689847EB681D68002DF7D18A
:10666000D4E90030C01A18BF012005B0BDE8F08F92
:106670000B880335C3F383131D44BFE7676005B080
:10668000BDE8F08FBDF804706B48C7F38313062B89
:1066900028BF0623D91C63F389178900ADF804705D
:1066A00006F0E6F9C7F3C20781460028CDD006F010
:1066B0003BFA00230C2201A9484606F05BFABDF81C
:1066C000043013F4707F00F0B2806FF0020BABEB7C
:1066D000050B0C2506EA080103312B46042204EBC6
:1066E0008101484606F046FABDF8043008F1010A77
:1066F0000BEB0A02C3F383139342D04605F1040562
:10670000E8D8D4F81834002B7BD1D4F81054FDB15C
:10671000DFF82C810726EB685A79B2B11A79BDF8F7
:10672000080002EB420158F8200006FA01F2052F9A
:1067300002EA000208BF0327CA40BA4205D32B6809
:1067400049461B6828469847EB681D68002DE2D132
:10675000484606F0EDF904A8002300F80D3D01F0CD
:10676000B9FED4F818340BB9C4F804A09DF803009E
:1067700001F0D6FE74E7BDF806302F489DF804708E
:106780004FEA931A5546502D28BF502565F38F13B5
:1067900005F10C01ADF8063006F06AF9C7F3C2073F
:1067A000814600283FF451AF26EA080B0BF1010B9C
:1067B00006F0BAF94FEA8B0B00230C2201A94846D8
:1067C00006F0D8F95D4527D9EBB2BBF1000F1CD01C
:1067D00006EA0801A3EB0B03033104EB8101DDB2F0
:1067E0005A460C23484606F0C5F92A460BF10C031D
:1067F0001249484606F0BEF90AF1030A08EB9A0A64
:106800007FE7484606F094F92AE72A460C230B490D
:10681000484606F0AFF9EFE706EA0801033104EB5A
:1068200081012A460C23484606F0A4F9E4E7C24653
:1068300067E700BFC020012014420800CC200120DF
:106840000C1F01208368D3F83C379B0703D4044A0C
:10685000022103F0E7BA0022114604F029BF00BF6D
:10686000107107008368D3F83C379B0703D4044AB0
:10687000022103F0D7BA0022114604F019BF00BF6D
:10688000107107002DE9F041104C114D52F8046CC5
:106890002D1B2D09074610D004EB051502E010341E
:1068A000AC420AD0A16830464FF0A7F90028F6D1D3
:1068B000E36801225A71BDE8F08133463846054A43
:1068C0000221BDE8F04103F0ADBA00BFF443080077
:1068D000744408007C7007002DE9F0410F4C104D06
:1068E00052F8046C2D1B2D0907460FD004EB05153B
:1068F00002E01034AC4209D0A16830464FF07DF977
:106900000028F6D1E3685871BDE8F0813346384677
:10691000044A0221BDE8F04103F084BAF4430800C0
:10692000744408007C70070070B4104A104E114C7B
:10693000921B0023D208C1E902434B600CD00E4DDC
:106940002C88A04204D10CE035F82340A04206D0A8
:1069500001339A42F8D100220A6070BC704706EBFE
:10696000C30632680A6070BC704700BFF443080079
:10697000F4420800DC7107008C1E01202DE9F04F65
:10698000CB68394EDFF810915B79A6EB090685B02C
:106990008B46F6088046002B60D0344A344B0821E1
:1069A000404603F03FFA334A0821404603F03AFAE2
:1069B0005EB3DFF8C8A0304DB70000240023EA5AC8
:1069C000A24237D004339F42F9D12C49002335F835
:1069D0002320A2423ED001339E42F8D10020002362
:1069E00035F82320A24222D001339E42F8D1002361
:1069F00070B9234A0292CDE9001A0134214A0821D4
:106A0000404603F00FFAA642D8D105B0BDE8F08F9A
:106A10001D4A0292CDE9001A01341A4A0821404663
:106A200003F000FAB442C9D105B0BDE8F08F59F8BF
:106A30003330DDE7DBF80C2014491279595802EBAA
:106A40004202072393400B40D340DBB2104A52F876
:106A50002310BBE709EBC3039879C0E70D4A022175
:106A600003F0E0F999E700BFF44308004C71070018
:106A7000407107006C7107008C1E01202471070013
:106A80000C710700AC710700C47107000C1F0120D6
:106A9000EC7107002C710700F442080013460A4607
:106AA000C168FFF76BBF00BF2DE9F047124C134DD3
:106AB00052F8046C2D1B2D09804615D017468946C7
:106AC00004EB051502E01034A5420DD0A168304654
:106AD0004FF093F80028F6D13B464A4621464046FF
:106AE000BDE8F047FFF74ABF33464046044A02215B
:106AF000BDE8F04703F096B9F44308007444080079
:106B00007C7007002DE9F04F8E4B8F4C52F8049C9F
:106B1000A3EB04085FEA181885B0064611D01746A3
:106B20000D4604EB081802E01034A04509D0A16816
:106B300048464FF062F80028F6D15DB905B0BDE8CF
:106B4000F08F824A4B463046022105B0BDE8F04F37
:106B500003F068B9E3687E49386893F80490072227
:106B60004FF07AF8002866D1012D00F0DE80DFF8C2
:106B70000C8204460A2258F8041B78684FF06CF81F
:106B800058B10134052CF5D17B68724A3046022198
:106B900005B0BDE8F04F03F045B9E3B2022D019313
:106BA00040F0BF806C4C6D4BA3EB04085FEAD80843
:106BB0002746C3D009EB490307229A400292019A63
:106BC000DFF8A4A10194DFF8A4914FEA880802FA43
:106BD00003FB0025144609E0019B53F8153003F030
:106BE00021F90435A84507F10807A7D0BB79A342CE
:106BF0004A464FF002013046EED355F80A2002997A
:106C000082EA0B030B405340C3F3C202C3F3821169
:106C10008A4238BF0A4603F007018A4238BF0A4653
:106C20004F4945F80A30C3F342206918824238BF01
:106C300002464A80D5E708224A4938684FF00CF8E6
:106C400000287AD1012D0190ACD0012303F18043BB
:106C5000013B09EB4909A7F1040A07EB8307072366
:106C60003D4C3E4A03FA09F30293019BA2EB040850
:106C70004FEAD80803FA09F3B3460AEB850A4646F9
:106C80000393A04657F8044F002E43D0C146002579
:106C900004E00135AE4209F108093AD0202221462C
:106CA00058F835004EF0D8FF0028F2D1AE4230D06F
:106CB00099F80620019B9A4223D32B4C039B54F84E
:106CC000252002982649534003405340C3F3C20293
:106CD000C3F38210824238BF024603F007008242AB
:106CE00038BF0246C3F3422001EB8501824238BF20
:106CF000024644F825304A80BA45C3D105B0BDE804
:106D0000F08FD9F80030194A0221584603F08AF86A
:106D1000F2E73C68164A23460221584603F082F8FF
:106D2000EAE77FF60BAF022390E7124A30460221D2
:106D300005B0BDE8F04F03F075B83B680E4A304629
:106D400025E700BF74440800F44308007C70070086
:106D5000E46F07005C700700F4420800F443080089
:106D60008C1E0120047007000C1F012024700700F6
:106D700048700700EC6F07000C700700EC7107000B
:106D800001B970472DE9F04FC368DB6885B08946CB
:106D9000174683467A4910681D7907224EF05CFF3A
:106DA00000286ED1B9F1010F00F0DE80754E044667
:106DB0000A2256F8041B78684EF04EFF58B1013491
:106DC000052CF5D17B68704A5846022105B0BDE814
:106DD000F04F03F027B8E3B2B9F1020F019340F08E
:106DE000C0806A4C6A4F3F1BFF08264646D0019B75
:106DF000029405EB45051A46AA404FF0070A0AFA25
:106E000005FADFF89891DFF898810192BF0000251C
:106E10001C4609E0029B53F81530043503F002F8D4
:106E2000AF4206F1080629D0B379A34242464FF09B
:106E300002015846EED355F80920019B534003EA5E
:106E40000A035340C3F3C202C3F382118A4238BF1C
:106E50000A4603F007018A4238BF0A464D4945F801
:106E60000930C3F342206918824205F1040538BF96
:106E70000246AF424A8006F10806D5D105B0BDE80A
:106E8000F08F0822444938684EF0E6FE002873D19E
:106E9000B9F1010F0190A4D0012303F18043013B1C
:106EA00005EB45053A1F07EB83070723AB40374C3B
:106EB000374E0293019B361BAB4002EB8909F60863
:106EC0000393A04657F8044F002E43D0C246002536
:106ED00004E00135AE420AF1080A3AD020222146E8
:106EE00058F835004EF0B8FE0028F2D1AE4230D04E
:106EF0009AF80620019B9A4223D3284C039B54F80E
:106F0000252002982349534003405340C3F3C20253
:106F1000C3F38210824238BF024603F00700824268
:106F200038BF0246C3F3422001EB8501824238BFDD
:106F3000024644F825304A80B945C3D105B0BDE8C2
:106F4000F08FDAF80030164A0221584602F06AFF44
:106F5000F2E73C68134A23460221584602F062FFDA
:106F6000EAE78BD9022398E70F4A5846022105B079
:106F7000BDE8F04F02F056BF3B680C4A24E700BF63
:106F8000E46F0700EC7107005C700700F442080032
:106F9000F44308008C1E0120047007000C1F012020
:106FA0002470070048700700EC6F07000C700700A2
:106FB0002DE9F84F00284DD0294C0023FF2205462B
:106FC0000846C4F81834A260C4E90033C4F8143485
:106FD00084F8203400F000FB2248C4F80C5405F07B
:106FE00045FD814610B14846BDE8F88FDFF888803E
:106FF0001D4F1E48A7EB080705F09CFFFF08F2D0C5
:10700000DFF86CB04D460026344608EBC50AA542B1
:107010004FF0140208D058F83410DAF800004EF09F
:107020001BFE0028C8BF01360134A742EFD12BF860
:1070300025600135BD42E6D10D4B0E490BEB8505B0
:1070400000225A8004339D4241F8042BF9D148466E
:10705000BDE8F88F4FF007094846BDE8F88F00BF3C
:10706000C020012014420800F4430800D07107003A
:107070008C1E01200C1F0120F442080021B9124B84
:1070800003EBC00000687047104A0F49521AD2083B
:1070900015D030B40E4D2B88834212D0002303E06C
:1070A00035F82340844205D001339A42F8D10020BC
:1070B00030BC704701EBC300006830BC704710461D
:1070C00070470846F8E700BFF4420800F4430800A0
:1070D0008C1E0120094B013903EBC00003290BD89A
:1070E000DFE801F00208060402207047407970478B
:1070F000007970470420704700207047F442080070
:10710000044BD3E900239A4201D0FFF757BA00207D
:10711000704700BFC02001202DE9F043344DD5F861
:107120001044064600205CB1E3681A79824204D11B
:1071300051E0DB681A7982424DD01B68002BF8D1F0
:10714000F3681871D5F81034002B4BD0DA68F36867
:1071500012681A60D5F81034DB681E60254A264F85
:10716000BF1AFF0835D0254D254C02EBC7094FF05B
:10717000070CF768D37997F80480D5F800E08B42C4
:1071800008EB480828BF0B4603FA08F383EA0E030E
:107190000CFA08F803EA080383EA0E03C3F3C20EED
:1071A000C3F38218C64538BFC64603F00708C64574
:1071B00038BFC646C3F34228C64502F1080238BFAD
:1071C000C6469145A4F802E045F8043B04F10404E6
:1071D000CFD1BDE8F08301300A28A4D14FF0FF30B1
:1071E000BDE8F083C5F81064F2681360B6E700BF2D
:1071F000C0200120F4420800F44308000C1F0120C5
:107200008C1E012038B5094BD3F81044012583F8B2
:1072100020544CB1E3685D71236820465B68984751
:10722000E3681C68002CF5D138BD00BFC0200120E8
:107230002DE9F04784B01D460C9C002394F80C8087
:107240002373EB8881460E461746002B74D1297AAA
:10725000052943D06B7A002B63D15A485A4B5B4ABD
:10726000D0F800C01B682968B1FBF3F0B0FBFCF15B
:10727000A2FB01324FF4616E4FEAD22A544B0EFB4F
:107280001A1AA3FB0AE30CFB11015B094FF47A7095
:10729000C3EB031E00FB01F1AAEB8E0AB1FBFCFE5F
:1072A0000CFB1E11D20ACDF800A000FB01F0CDF8B6
:1072B00004E0B0FBFCF047490290204604F0B0FF28
:1072C000454B2A7AA88853F822A00021FFF7D6FE62
:1072D000524603464149204604F0A2FF062F09D832
:1072E000DFE807F004694148515C32004946204616
:1072F00004F096FF2B7A052B05D06B7A5BB93849E1
:10730000204604F08DFF204604F07EFF84F80C80B8
:1073100004B0BDE8F087334A3349204604F080FFCB
:10732000EDE7A888FFF7D6FE304B2F4953F8202011
:10733000204604F075FF90E72A4A00922C492D4A16
:10734000204604F06DFF82E7D6E90410D6E9002359
:107350000390D6E902070291CDE90007494620468D
:1073600004F05EFFC6E74946D6E90023204604F054
:1073700057FFBFE7B168D6E9002320460091494690
:1073800004F04EFFB6E7D6E90201D6E900230191E9
:1073900000904946204604F043FFABE7D6E903716D
:1073A000B068D6E900230291CDE90007494620469E
:1073B00004F036FF9EE732684946204604F030FF6D
:1073C00098E700BF7C25012080250120C5B3A2914C
:1073D000898888883C76070064760700587607001D
:1073E000E87007003076070038760700D875070088
:1073F0001876070010760700082900D970472DE994
:10740000F04F1D46904600232A7B2B7387B0B8F8B7
:107410000630059207460E46002B40F0B08098F8E3
:107420000810052947D098F80930002B40F09B80C0
:10743000574B5849584A1C680868D8F80010B1FBE7
:10744000F0F0B0FBF4F1A2FB01324FF4616E4FEAB1
:10745000D22C524B0EFB1C1CA3FB0CE304FB1101B2
:107460005B094FF47A70C3EB031E00FB01F1ACEB38
:107470008E0EB1FBF4FC04FB1C1100FB01F1D20ADF
:10748000B1FBF4F4CDF800E0CDF804C04449029417
:10749000284604F0C5FE434B98F80820B8F80400CD
:1074A00053F822400021FFF7E9FD224603463E49FA
:1074B000284604F0B5FEDFF810B1DFF81091002483
:1074C00005E03A5D013404F0ABFE082C09D0A64279
:1074D00049462846F5D85946013404F0A1FE082C47
:1074E000F5D13249DFF8E8B0DFF8E890284604F03B
:1074F00097FE00240CE017F804A0BAF17E0F23D900
:107500002E2249462846013404F08AFE082C08D071
:10751000A642F0D859462846013404F081FE082CD2
:10752000F6D198F80830052B02D098F80930A3B9A5
:107530001F49284604F074FE284604F065FE059BAA
:107540002B7307B0BDE8F08F4DF05AFD5044524602
:10755000437813F0970FD3D0D3E7164A164928463D
:1075600004F05EFEE4E7B8F80400FFF7B3FD134B48
:10757000114953F82020284604F052FE58E70D4ADE
:1075800000920F490F4A284604F04AFE47E700BF21
:107590007C25012080250120C5B3A2918988888897
:1075A0003C760700647607005876070008760700E7
:1075B000E87007003076070038760700D8750700B6
:1075C000187607001076070004760700FC750700A0
:1075D000607607000C760700074A084901239042AD
:1075E0000B6005D9400890424FEA4303FAD80B607C
:1075F000034B1860704700BF40420F0080250120F8
:107600007C250120074B1B5C1F2B8ABF064A4FF0CD
:10761000A04203F01F03D2F80405D840C04300F095
:1076200001007047B076070000030050074B1B5C59
:107630001F2B86BF03F01F0305494FF0A041012215
:1076400002FA03F3C1F80C35704700BFB0760700AB
:1076500000030050074B1B5C1F2B86BF03F01F036A
:1076600005494FF0A041012202FA03F3C1F80835A1
:10767000704700BFB0760700000300504FF0A043F2
:1076800010B44FF480404FF400544FF400414FF4D5
:107690008032C3F80845C3F80805C3F80815C3F8D5
:1076A00008255DF8044B70474FF0A04310B44FF429
:1076B00080404FF400544FF400414FF48032C3F83F
:1076C0000C45C3F80C05C3F80C15C3F80C255DF880
:1076D000044B70470A4B195C1F298ABF09484FF0B9
:1076E000A04001F01F01D0F8043501228A4022EAAF
:1076F00003011340C0F80815C0F80C35704700BFEF
:10770000B0760700000300500B2809D00C2809D0E0
:10771000182809D019280CBF03204FF0FF307047FC
:10772000002070470120704702207047C20730B424
:107730000ED483070AD54FF0A0430C22C3F82C27A0
:10774000C3F83027C3F86027C3F8642730BC7047FC
:107750004FF0A0430322C3F834274FF40055C3F879
:1077600038274FF48044C3F83C274FF40041C3F856
:1077700040274FF48032C3F80855C3F80845C3F8D2
:107780000815C3F80825D4E710B586B0044648F0BC
:1077900069FE022802D0082006B010BD1422002184
:1077A00001A84DF088FC4FF4C8530E490E4A0193CE
:1077B0004FF4FA73CDE90312ADF814304CB1012C3B
:1077C00001D10A4B029301A84DF02EF8002006B01B
:1077D00010BD41F2941301A802934DF025F800204A
:1077E000F5E700BF000E270705007E00FF1FA10779
:1077F00010B44FF080414FF080520020C1F80C01CE
:107800005E4BC1F81001C1F83805D2F80414C3F872
:107810002015D2F80814C3F82415D2F80C14C3F8B4
:107820002815D2F81014C3F82C15D2F81414C3F884
:107830003015D2F81814C3F83415D2F81C14C3F854
:107840004015D2F82014C3F84415D2F82414C3F814
:107850004815D2F82814C3F84C15D2F82C14C3F8E4
:107860005015D2F83014C3F85415D2F83414C3F8B4
:107870006015D2F83814C3F86415D2F83C04C3F884
:107880006805D2F840043E49C3F86C050968D2F88F
:107890004424C3F87025082924D04FF08043D3F83E
:1078A0000024D20744BF6FF00102C3F80024354A18
:1078B000D2F8883043F47003C2F88830BFF34F8F9A
:1078C000BFF36F8F4FF01023D3F80022002A23DB81
:1078D000D3F80432002B1FDB2B4B2C4A1A605DF8C7
:1078E000044B70472A4B1B68002BD6D129482A4AE3
:1078F0002A4C04602A492B4BFB20C2F818050A6861
:107900001B68294822F00F0203F00F0313434FF4C2
:1079100000720B600260C0E7244B0122C3F804250B
:10792000D3F80024002AFBD04FF0102312221F4965
:10793000C3F80022D1F80034002BFBD04FF0102206
:1079400012211A4BC2F80412D3F80024002AFBD0EB
:1079500000221649C3F80425D1F80034002BFBD0CF
:10796000BFF34F8F0749124BCA6802F4E06213431A
:10797000CB60BFF34F8F00BFFDE700BF00C00040EA
:107980003001001000ED00E0201701200090D0032E
:10799000340100108C56004000F000404881030084
:1079A000E40E0040580200104096024000E0014002
:1079B0000400FA05434B1978002900F081802DE975
:1079C000F04F002487B001258E4603E00134E4B275
:1079D000744560D23C4B27B21E6816F837C0ACF134
:1079E000200205FA02F9394ACCF12003D2E900015C
:1079F00025FA03F349EA030905FA0CF800EA08023C
:107A000001EA0903134306EBC70BDFD021EA0903A0
:107A10002E4920EA08026046C1E9002306F080F9F9
:107A200016F837C0ACF1200205FA02F20192019972
:107A3000CCF12003C6B225FA03F3ACF120021943BE
:107A400006FA02F30393224B0191D3E90023CDE917
:107A5000042305FA0CF30093CCF12001039B26FAD2
:107A600001F10B43039306FA0CF30293DDE904677B
:107A7000DDE9002316401F4032463B46DDE9026740
:107A8000BB4208BFB24209D00E4B013493F800E06C
:107A9000E4B274459ED307B0BDE8F08F9BF80110A7
:107AA000DBF80430A1F10101B1FA81F14909091AA9
:107AB000B1FA81F14909002BE6D060469847E3E727
:107AC000704700BF84250120C0250120B825012072
:107AD000B02501202DE9F84F0646244800F0BAFCF5
:107AE000D8B9234F0123A6F1200103FA01FBC6F107
:107AF0002002D7E9000123FA02F24BEA020B03FA53
:107B000006FA00EA0A0201EA0B03134307D020EA4F
:107B10000A0421EA0B05C7E90045BDE8F88F3046A5
:107B200006F0FEF8134ED6E90089C8B148EA0A0308
:107B300049EA0B049846A146D7E900234BEA03051E
:107B40000D4B0A4819684AEA02044B464246C6E908
:107B50000023C7E900450022BDE8F84F00F024BC2F
:107B600028EA0A0829EA0B09E6E700BF8C2501206C
:107B7000B8250120B025012088250120042A36D906
:107B80002DE9F04182B00E460546144605F048FE48
:107B9000002836D01D491E4A1E4B0D601E481F4945
:107BA0001C60167000230022741EC0E90023C1E986
:107BB0000023E4B2EEB105EBC404194F083D4FF0C9
:107BC0000008032601E0AC4213D0A37820788DF89A
:107BD00006803A4601A98DF804608DF8053005F05D
:107BE00033FF083C0028EED002B0BDE8F08107204A
:107BF00070470C4A0C48002100F0C4FB02B0BDE8FD
:107C0000F08105F0C3FD0028C4D0EDE7C0250120B8
:107C10008425012088250120B0250120B8250120D8
:107C2000D57A0200B5790200B476070070B5084D28
:107C30002B785BB1074E00243368012113F8340020
:107C400005F0F2FF2B780134A342F5D8002070BD77
:107C500084250120C025012000B585B000230390B4
:107C6000194601AA44F20100CDE9013300F004F8FD
:107C700005B05DF804FB00BF08B572B6FFF7C2FAA5
:107C8000FFF73EFA0028FBD1084B1B68DB0700D545
:107C900000BEBFF34F8F0649064BCA6802F4E0628C
:107CA0001343CB60BFF34F8F00BFFDE7F0ED00E063
:107CB00000ED00E00400FA05F0B412F0030412D164
:107CC0004B1CDB000A4D0B4E0B4F34709BB2134420
:107CD0002B600A4E0A4D0B4B28803A603470198095
:107CE0002046F0BC704707242046F0BC704700BF18
:107CF000C8250120C4250120CC250120D425012040
:107D0000D0250120D22501202DE9F0472D4F3B88B9
:107D10008B4282B03CD3054602A84FF0000800F821
:107D2000018D16460C4600F0D5FB274B274A284804
:107D300019781378B0F800C09DF80700DBB26345EE
:107D400038BF0133C9B238BF5FFA83F8414523D049
:107D500092F800801378DFF88090DBB29C4586BFF4
:107D60000133DBB200235FFA88F8137000F0D8FB10
:107D7000D9F800300FFA88F24FEAC20A43F83260AD
:107D8000534405B174B90020988002B0BDE8F08773
:107D9000092002B0BDE8F08700F0C2FB042002B069
:107DA000BDE8F0870B4B38881B68294608FB00307C
:107DB00022464DF05CF9D9F800309A440020AAF828
:107DC0000440E2E7D0250120D4250120C42501206C
:107DD000D2250120C8250120CC2501202DE9F84F0E
:107DE0001B4C1C4D22782B789A4226D0DFF86CA0D1
:107DF000DFF86C90184FDFF86CB04FF00008237874
:107E0000DAF800203888D9F80060DBB20FFA83FE78
:107E100002EBCE0103FB0060898852F83E309847A0
:107E20002378BBF80010DBB25A1C9942D2B206D9B3
:107E3000227023782A789A42E1D1BDE8F88F84F83D
:107E4000008022782B789A42D9D1BDE8F88F00BF04
:107E5000D4250120C4250120D0250120CC250120D6
:107E6000C8250120D2250120082910B5044602D0DA
:107E70000020FFF7F1FED4E90030BDE810401847BC
:107E80002DE9F041284A294B0024C2F84041C2F8AC
:107E90004441C2F84841C2F84C41C2F80041C2F81E
:107EA00004411B6882B033B32149D2F804550A68F3
:107EB000204EAD1A1A6825F07F45AA4227460CD8F5
:107EC000197CD3F81C80AD1A1444B9B9B8F1000F6D
:107ED00003D043461A68AA42F2D91749174A0B78C9
:107EE00012789A4219D01649164A41F823404FF4A5
:107EF0008013C2F8003102B0BDE8F0811F74D3E9ED
:107F0000053208210192684632460093FFF7FCFED5
:107F10000028DBD0FFF7A0FED8E7531CDBB2022B12
:107F200008BF00230B70DEE700100140F826012097
:107F3000F4260120697E0200F1260120F0260120AE
:107F4000E826012000E100E02DE9F04F8C4A8D4940
:107F500013780978DFF85082994285B0D8F800A0EC
:107F600000F07B810133DBB2022B08BF002386487F
:107F70001370864A076852F823107B1823F07F435A
:107F800000240360534626462046A446ABB11A6837
:107F90008A4200F26581DC68C3F800C0891A104487
:107FA000DA6934B13D1825F07F45C3E90154DE613B
:107FB0001E4613460124002BE9D1002C40F07C81A1
:107FC00001230093724B734FDFF8E09143F00103FC
:107FD000019355464FF0000B46B3D6E901C1344634
:107FE000F669694B6C481A68ACEB020323F07F43D7
:107FF000834248D80B44236000220121C4E90122B6
:10800000E2612174002D5DD02A689A424DD2284643
:1080100003E00A689A424FD20846C1699B1A0029B8
:10802000F7D12360E161C461002ED6D17878397828
:10803000884264D00B4603EB43034C1CBA7807EB31
:10804000C303E1B28A421A79397004BF0021397042
:10805000022A9C6844D0032A38D0012AE8D1227C25
:10806000002AE5D1D3F80CC0C4F804C01969A16096
:108070005869E06099F800009B69A3610028B0D0BE
:1080800062609446ADE7A2EB0C0222F07F428A4286
:1080900002D28B1A2360AFE700230122C4E9003328
:1080A000A360E36122746DB12A68C8F80040D31A56
:1080B0002B60E56125468FE7D21A0A602360E161F3
:1080C000C461B1E7C8F80040254685E7002DAFD070
:1080D00000232B74ED69002DFBD1C8F80050A5E7F3
:1080E0004DB1AC422B4603D1E4E094422FD013466D
:1080F000DA69002AF9D10023237488429AD1BBF1AE
:10810000000F01D1554553D0002D56D1234E244A9E
:108110001F4C4FF480334FF400310127C2F8801018
:108120003C43C6F848334FF43C60C6F808337760E8
:10813000A047154BB7604FF43C601D60A047194B3A
:108140001D70002389F8003005B0BDE8F08FA34210
:1081500000F09180E0692168D861002800F08680F5
:108160002A4603680B440360AA424FF000033978A3
:10817000787823741CBF15464FF0010BBDE700BF94
:10818000F0260120F1260120F4260120E826012016
:10819000C0760700D8250120FEFF7F0000100140B7
:1081A00000E100E0E5260120F8260120E426012078
:1081B000009B002BC5D0002DA8D0434B434A1C6820
:1081C000D2F80465424FD5F800A03978331B23F06C
:1081D0007F43DD1CB9B93F493F4B4FF48030C2F8B3
:1081E00044034FF00108C2F804034FF40030C1F813
:1081F000800143F001030860C2F800804FF43C6046
:10820000984787F80080AA452CBF04EB0A0363193E
:108210002E4923F07F43C1F84035D1F80425921B45
:108220009B1B22F07F4223F07F4303329A4288D97E
:10823000294BD1F80425C1F8402543F001034FF440
:108240003C609847234B4FF40032C3F800210023D1
:1082500089F8003005B0BDE8F08F00260096B1E641
:1082600074BB521A1A6001230093ABE600233978DD
:108270007878237441E71946EA69C8F8002092B972
:10828000CDE90231114BDFF840C001209860019B1D
:1082900089F80000CCF800204FF43C609847DDE9F5
:1082A0000231D8F80020C8690968D86100287FF435
:1082B00058AF59E72946DFE7C8F800309A467FE60D
:1082C000C8F800309A46CCE7F4260120001001409F
:1082D000E526012000E100E0C07607002DE9F84323
:1082E0001F4D204E204FDFF898804FF480334FF41D
:1082F00000324FF001090024C6F8802047EA090740
:10830000C5F848334FF43C60C5F80833C5F804900D
:10831000B847C5F808904FF43C60C8F80040B8472B
:10832000124A134B13491C601470134B134A0C7000
:108330000B2114701C8099704FF48012C023C6F872
:10834000802186F814333260C5F8084586F8113369
:10835000D5F80435C8F800302046BDE8F88300BFE2
:108360000010014000E100E0C0760700E526012092
:10837000F8260120F0260120D8250120F126012031
:10838000F4260120074B9B784BB132B128B103682A
:10839000187C20B959745A6170470720704708202B
:1083A000704700BFD82501202DE9F047264CA3785F
:1083B00082B0002B3CD000283AD004293CD9436934
:1083C000002B35D0814602A899F811300026012BE8
:1083D00000F8016D0CBF8846B04617468A4600F08B
:1083E00079F86378A17822789DF807005D1CEDB2DA
:1083F000A94208BF3546AA4222D003EB430304EB4F
:10840000C3030121114AC3F808901971D2F8042559
:108410006570C3E9032AC3E9058700F081F80C4BB6
:108420004FF480123046C3F8002102B0BDE8F08757
:10843000082002B0BDE8F087072002B0BDE8F08751
:1084400000F06EF80420F0E7D8250120001001406C
:1084500000E100E0F0B51A4CA37883B043B338B321
:1084600043692BB3064602A8002500F8015D357468
:1084700000F030F86278A77821789DF80700531C47
:10848000DBB29F4208BF2B46994214D002EB420256
:1084900004EBC202022196601171637000F040F893
:1084A000084B4FF480122846C3F8002103B0F0BDFA
:1084B000082003B0F0BD00F033F80420F9E700BF56
:1084C000D825012000E100E0014BD3F804057047F6
:1084D0000010014070B4EFF3108472B60D4B9A682F
:1084E000AAB90D490D4E01259D60D1F88050354047
:1084F0001D60C1F88060D1F884505D604FF0FF339B
:10850000C1F88430027004B962B670BC70470123B0
:108510000370F8E7886A022000E100E0FC06FFBD76
:10852000094B9A687AB170B910B4EFF3108172B642
:10853000064A1C6814605C685460986001B962B6B1
:108540005DF8044B70477047886A022000E100E044
:10855000B0F5A27F05D1084B994203D0074B994251
:1085600005D07047064A1368013313607047054A07
:108570001368013313607047CC760700D476070088
:10858000FC2601200427012008B50649064A0748B1
:1085900000230B60136006F01DF90548BDE8084094
:1085A00006F018B9FC26012004270120CC7607002C
:1085B000D476070070B5434B82B01B68ADF800302D
:1085C00069461B0C10208DF8023005F033F9044683
:1085D000102005F007FA14B1204602B070BD3A4DE4
:1085E000284605F009FF04460028F5D1374E3046ED
:1085F00005F002FF04460028EED1354A35492878B7
:1086000005F05AFF04460028E6D1334A3349307852
:1086100005F052FF04460028DED110202C7805F02A
:1086200005FA0146204605F06DFF04460028D3D127
:108630001020347805F0FAF90146204605F062FF73
:1086400004460028C8D1264DADF8000004230321BC
:108650008DF800308DF802100723224A0195284634
:1086600069468DF8033005F0EBFF04460028B3D1CE
:108670001D4E1C4A01966946304605F0E1FF04464E
:108680000028A9D10123194628464FF0FF3206F0F1
:10869000B5F8012319464FF0FF32304606F0AEF828
:1086A000284606F073F8284606F090F80F4A104B5B
:1086B000146028461C6006F08DF8304606F08AF8F3
:1086C0008AE700BFC87607000027012001270120A4
:1086D00000A001401401004004A001401801004026
:1086E000CC76070051850200D4760700FC260120D5
:1086F0000427012010B5102005F086F9102005F0A0
:1087000037F90D4B187805F0B3FE044608B1204642
:1087100010BD0A4B187805F0ABFE04460028F6D1D0
:10872000074806F041F8064806F002F8054805F04B
:10873000FFFF204610BD00BF0027012001270120B8
:10874000CC760700D476070010B5074B187805F0F3
:10875000EDFE064B187805F0E9FE0446044806F0E5
:1087600031F8204610BD00BF00270120012701205D
:10877000CC76070010B5074B187805F0EFFE064BD6
:10878000187805F0EBFE0446044806F01FF8204672
:1087900010BD00BF0027012001270120CC76070073
:1087A0002DE9F04B284C294D294826682F680021D7
:1087B00006F014F800218046264806F00FF82468D9
:1087C000D5F80090A64201D14F4508D0002120489D
:1087D00006F004F8002180461E4805F0FFFF002641
:1087E00046EA0802234652EA030129D046EA000B72
:1087F0004FEA8B004FEA890610EB0B0446EA9B71A7
:1088000041EB0905EE00E70046EA5476B7EB0B04AE
:1088100066EB090527012E0117EB0B00CC4646EA53
:10882000147646EB0C010C0144EA1074050128464D
:1088300021464EF037FAC0F51C501030BDE8F08BE1
:108840003046BDE8F08B00BFFC2601200427012044
:10885000CC760700D476070001F01F024B090121F6
:1088600000EB8300914000F015B800BF01F01F023B
:1088700001234909934000EB8100D94300F016B869
:108880004B0901F01F0150F82300C84000F001001F
:10889000704700BF50E8003F43EA010240E8002C67
:1088A0009CF0000FF6D11046704700BF50E8003F23
:1088B00003EA010240E8002C9CF0000FF6D11046BC
:1088C000704700BF50E8003F03EB010240E8002C76
:1088D0009CF0000FF6D11046704700BF50E8003FF3
:1088E000A3EB010240E8002C9CF0000FF6D11046EB
:1088F000704700BF012350E800CF4CEA030240E874
:10890000002191F0000FF6D160467047002350E837
:1089100000CF0CEA030240E8002191F0000FF6D1ED
:1089200060467047002350E8002F02EA030C40E83D
:1089300000C191F0000FF6D1604670472DE9F04379
:108940008368D3F83C67C6F340068BB0002E47D14E
:1089500001293ED8264C274D274B2D1BAD08A3FBE4
:108960000535002D32D0C5EBC505DFF894900746DC
:1089700004EB85054FF064082368A1681A7918682C
:108980006369099363680692081A02EB8202A1EBFD
:10899000030CC0B2218B039002EB8202009101967E
:1089A000920008FB00F0B2FBFCF2B0FBFCF0059279
:1089B0000290CDF81CC0CDF810C0099B1C344A466B
:1089C0000821384601F02EFAA542D5D10BB0BDE8FA
:1089D000F0830A4A02210BB0BDE8F04301F022BA4D
:1089E000002211460BB0BDE8F04302F061BE00BFAB
:1089F00014420800F4420800254992240477070035
:108A000018770700B8B130B4D0E90112521A0468DF
:108A1000D2B2531E2160DBB242B101680A685C1E0B
:108A2000551C0D601370E3B2FF2BF6D103680020D4
:108A3000187130BC70470E20704700BFF0B583B08E
:108A400002AB002503F8015D04461846FFF742FD1E
:108A5000D4E900311A688A4210D9511E1960216880
:108A6000A3680F6812F8015C0A79268BE068DB1BAB
:108A7000DBB29A4206FB050538BF0B719DF8070073
:108A8000FFF74EFD284603B0F0BD00BF30B583B000
:108A900002AB002203F8012D054618460C46FFF7ED
:108AA00019FD2A681368591C1160E9682A8B641A39
:108AB000B4FBF2F41C709DF80700FFF731FD03B022
:108AC00030BD00BF30B18A68B2F83C3743F02003B4
:108AD000A2F83C37704700BF10B543689C686068D7
:108AE000036801219B689847A36810B104221A709B
:108AF00010BD03221A7010BD096800684DF07DB8E2
:108B00002DE9F041054680684C4F82B000264FF4B5
:108B1000C072314600F5D5708DF803604CF0CBFA89
:108B20002869474903F07CFB286903F06DFB47F097
:108B300001074FF47A786868036801221C690DF117
:108B4000030101ABA047019B4FF6C01063B9B847C2
:108B5000019B002BEFD108F1FF381FFA88F8B8F11C
:108B6000000FE8D10D2018E09DF80330AA681B2BF8
:108B700006F1010002EB060105D092F8AA411B2C78
:108B8000D9D1522B0CD086B2092E81F8AA31D2D974
:108B9000AB68002283F8AA21042002B0BDE8F0816E
:108BA000002681F8AA61AF6897F8AB315B2B3AD108
:108BB00007F2AB14022303E0B3F5C07F96B238D0BE
:108BC00014F8010F06EB8602A0F1300101333B28B7
:108BD00001EB42029BB2EFD1B3F5C07F29D003F283
:108BE000A91CBC44002003E0B3F5C07F90B220D2A2
:108BF0001CF8014F00EB80020133A4F1300101EBBE
:108C000042029BB2002CEFD1FA2828BFFA20B8828A
:108C1000AB68FA2E86BFFA221A831E83AB68002047
:108C200083F8AA01B9E70B2087F8AA6102B0BDE872
:108C3000F0810C2002B0BDE8F08100BF9078070001
:108C400060780700F8B50C4601F1140508B14CF046
:108C5000FBFF228DE38BE18C84F82000C0B202443C
:108C60004FF0000C084492FBF3F103FB11224E1C61
:108C7000013290FBF3F1674603FB110362F30F0C23
:108C80000133013166F30F0763F31F4C61F31F4794
:108C9000C4F814C0A7612846F8BD00002DE9F04FC4
:108CA0000746002083B003468846144638600546D0
:108CB000814605E084F8009001343B680B2B77D89F
:108CC0002678002E74D04CF09BF93044437813F092
:108CD0000803EFD13A68511C396048F822401D461C
:108CE0002378002BE9D0002D69D09D4204F10106C4
:108CF00024D05C2B627802D013463446F1E79542CB
:108D000000F0B280302A5CD01346782BF4D1A378DF
:108D1000A3F1300A5FFA8AFABAF1090F7FD8E27834
:108D2000A2F13003DBB2092B00F28C8043EA0A1A6D
:108D30005FFA8AFA032304225FE0661C20464CF0A7
:108D400083FF3146024620464CF09CF92578002DE1
:108D5000B3D0272D14D05C2D04F10106204619D084
:108D6000222D0DD0002DE8D04CF04AF9284443784C
:108D70001B0777D465780134002D9ED0272DEAD1CA
:108D800020464CF061FF611C024620464CF07AF907
:108D90002378A6E74CF058FF3146024620464CF0B7
:108DA00071F965783446002DD3D13B680B2B87D9F8
:108DB0000022284648F8232003B0BDE8F08F1D4666
:108DC000C7E7A378A3F1300A5FFA8AFABAF1070F6E
:108DD0009BD8E378303BDBB2072B63D82279303A5B
:108DE00043EACA0AD3B2072B4FFA8AFA35D843EAC4
:108DF000CA0A5FFA8AFA04230522204604EB030B11
:108E000001924CF021FF019A0230821A5946204605
:108E10004CF038F984F800A06378344661E7A3F198
:108E2000610105292BD9A3F1410105293FF664AF62
:108E3000E278373B5FFA83FAA2F13003DBB2092B09
:108E40007FF674AFA2F16103052B23D9A2F1410390
:108E5000052B27D8373A42EA0A1A5FFA8AFA03231F
:108E60000422CAE7002528E720464CF0EDFE3146F3
:108E7000024620464CF006F96378344631E7E27842
:108E8000573B5FFA83FAA2F13003DBB2092B7FF67E
:108E90004DAFD7E7573A42EA0A1A5FFA8AFA032334
:108EA0000422AAE702230322A7E700BF002900F05B
:108EB000D4802DE9F04F8B4685B0914606464C1E76
:108EC000002700E001374CF09BF814F8013F1844EC
:108ED00043781B07F6D41FFA89F3009358464CF0E9
:108EE000B3FEB368B3F81E80C01BA8EB0908404569
:108EF0005BD907F1FF3ADA44002400E001344CF07A
:108F00007FF81AF8013F184409EB04014278100772
:108F100007EB040502D50A2B07D0A046B368DB8B0C
:108F20009942EBD307EB08054446306903F06CF92E
:108F300004B34FF00008AA467068036807EB080105
:108F4000DD68224603AB5944A847039B9844E41AC2
:108F50006BB9B2681378032B09D0D2F83C37990665
:108F6000FBD5B2F83C376FF34513A2F83C37002C21
:108F7000E2D155466C1E5C4400E001354CF040F8EF
:108F800014F8013F184443781B07F6D4334930697D
:108F900003F046F9009B0BB92F469FE74A4630493C
:108FA000306903F03DF92F4698E703460BEB0708BD
:108FB00030697BB11BF807200A2A3BD042460024C7
:108FC00003E012F8011F0A290ED00134A34207EB77
:108FD0000405F6D1414603F023F930691F4903F037
:108FE0001FF905B0BDE8F08F03F00EF94FF0000A4D
:108FF0000197B8467068019903682246DF685944B2
:1090000003ABB847039B33B1E41A9A4415D008EB7D
:109010000A030193EEE7B2681378032BEAD0D2F883
:109020003C379F06FBD5B2F83C376FF34513A2F8E7
:109030003C37DFE703F0E8F83D460849306903F0C4
:10904000EFF8009B01350BEB050823B14A460449B4
:10905000306903F0E5F83069BCE77047A477070092
:10906000987807000CB470B584B008AB816853F8E9
:10907000045B0193D1F83C375B07044602D591F8B5
:1090800022304BB92946206901AA03F07DF904B0CA
:10909000BDE8704002B070472231022268464BF0B2
:1090A000E6FFA368284A2949002683F82260206940
:1090B00003F0B6F801AA2946206903F065F99DF886
:1090C0000030A268002B36D092F8221099421ED1AF
:1090D0009DF80130002BDAD0A26892F82310994253
:1090E000D5D045F61B3103F12F00ADF8081034251B
:1090F0006D218DF80B00ADF80C108DF80A5082F838
:1091000023302069114902AA03F08AF8BFE7104909
:10911000029103F12F0033256D218DF80D00ADF87C
:109120000E108DF80C5082F822302069074902AAEF
:1091300003F076F8CCE782F822302069024A03492E
:1091400003F06EF8C4E700BF5878070038760700D0
:109150001B5B313B0CB430B585B008AB816853F86C
:10916000045B0193D1F83C375B07044603D591F8C3
:109170002230082B09D12946206901AA03F004F9FD
:1091800005B0BDE8304002B0704702222231684687
:109190004BF06DFFA36893F82220082A2CD101AA76
:1091A0002946206903F0F0F89DF80030A268002BF2
:1091B00043D092F8221099422BD19DF80130002B18
:1091C000DED0A26892F823109942D9D045F61B311F
:1091D00003F12F00ADF8081034256D218DF80B0038
:1091E000ADF80C108DF80A5082F823302069174929
:1091F00002AA03F015F8C3E7154A02921549039134
:10920000082283F82220206910496A4403F008F8F4
:10921000C5E70F49029103F12F0033256D218DF829
:109220000D00ADF80E108DF80C5082F82230206938
:10923000064902AA02F0F4FFBFE782F82230206953
:10924000054A024902F0ECFFB7E700BF3876070095
:109250001B5B313B33376D00587807002DE9F04731
:10926000064686B052484CF0EFFC044651484CF09C
:10927000EBFCB36850495B68504A0091241A0821FE
:109280003046FFF767FFB3685868A4B2002800F0C3
:109290008D804CF0D9FC85B247484CF0D5FCB368C2
:1092A0002844996882B23046FFF700FE444A002104
:1092B0003046FFF7D7FE3F484CF0C6FC023004446E
:1092C000A4B23B4B00933F4A234608213046FFF7A8
:1092D00041FFE21C92B23C493046FFF7E7FDB3681C
:1092E000DC68002C3BD000231D4694F800C0626867
:1092F00002A918465F1CBCF1000F11D090470298DC
:10930000A0B10DF108084CF09FFCA84206D9D8F88E
:109310000050284615B14CF097FC85B23B46E4E777
:109320001B0102EB0308D0580028ECD1012F16D006
:10933000264ADFF890A000213046FFF793FE2278FE
:10934000636805F102094FF000081FFA89F902A9C4
:109350004046FAB94FEA08129F189B581BB906B04D
:10936000BDE8F08702AF0821009352464B463046D5
:10937000FFF7F0FE7B686A1D92B21946304683B152
:10938000FFF794FD2278636808F1010802A94046BE
:10939000002ADFD09847029B002BE3D106B0BDE83E
:1093A000F0870B49306902F03BFFEBE7054673E7B6
:1093B000A0780700B07B070068780700E07A070014
:1093C000A47A0700B07A0700B87A0700CC7A0700C1
:1093D000A4770700022910B5044604D18368D3F8A6
:1093E0003C379B070BD42069074A084902F018FF55
:1093F0002069074A0549BDE8104002F011BFBDE8E9
:109400001040FFF72BBF00BF387807003876070001
:109410003C780700F8B504460068A56898B34CF09E
:1094200013FCC6B23046298DEB8BEA8C85F82060A0
:109430000144024491FBF3F003FB101192FBF3F69D
:10944000013103FB1622002701308BB280B2711C60
:1094500001323E4692B263F30F0789B260F30F0602
:1094600062F31F4761F31F4693426F61AE610CD0F8
:1094700088420ED3934216D8D21A92B2EAB9A368A0
:10948000DA8C1A85F8BD0646CDE78842FAD08842C4
:10949000F0D20A1A92B20D49206902F0C1FEAB8ADD
:1094A000EA8A9342E8D99A1A92B20949206902F0ED
:1094B000B7FEA368DA8C1A85E4E70649206902F052
:1094C000AFFEA368DA8C1A85DCE700BF6C78070072
:1094D00074780700987807002DE9F0410546006888
:1094E000AE68002851D04CF0AFFBC0B20246471C1A
:1094F000348DF18BB6F826E086F82020044494FBE6
:10950000F1FC01FB1C4370444FF0000801330CF1E7
:10951000010490FBF1FE9BB201FB1E01A4B2404688
:10952000013163F30F080EF1010E64F30F0061F3D4
:109530001F486EF31F40BB42C6F81480B06127D0AD
:10954000012C15D892B29A4208D3D21A013292B2A3
:1095500012BBAB6800221A85BDE8F081013B9A1A64
:1095600092B2002AF5D00F49286902F059FEF0E7BF
:109570001FFA8CF20C49286902F052FE96F820205E
:10958000B38A92B29A42E0D2E8E702460127AFE7F7
:10959000012CD5D1BDE8F0810449286902F040FED4
:1095A000D7E700BF747807007C7807009878070039
:1095B000F0B585B08268002504460195D2F83837A9
:1095C0000295ADF80C50002958D1002B54D00E460E
:1095D000FFF782FFA26801AFD2F8380733460A22AC
:1095E000394603F0FBFAA368029AC3F83827A36848
:1095F000D3F83807DD8C002800F08C803946002332
:109600000A2203F0EBFAA168BDF80C20D1F8380764
:109610000A232A31013203F0E1FABDF80C00A368F5
:109620001885A3688542D8844FD8A368464A204647
:109630002A330821FFF78EFDA2682068158D0028C7
:109640003AD04CF001FBA268D38B2844B0FBF3F571
:1096500003FB150060B12068D58C18B14CF0F4FA0A
:10966000A368DB8B2844B0FBF3F203FB120018B9AC
:109670002069364902F0D4FD05B0F0BDD2F83417A8
:109680009942F9D0D2F83037002BF5D0FFF724FFFC
:10969000A368D3F83807F0B101AF2B460A22394648
:1096A00003F09CFAA368019ABDF80C50C3F8382760
:1096B000A368D3F83807A1E7D38BB5FBF3F103FB1D
:1096C0001155002DD4D0D58CCCE7214A1E492069F4
:1096D00002F0A6FDA9E703F12A004CF0B5FAA36851
:1096E00085B2D3F83027C3F838273DB9A36883F88B
:1096F000AA51A36801AFD3F838077FE7A06800F14B
:109700002A0100F5D5704CF082FAA36801AFD3F8B6
:10971000380773E703F5D5704CF096FA68B9A3687B
:1097200083F82A00A36813F12A0003D04CF08CFAC6
:10973000A36880B2ADF80C0072E7A06800F5D5719F
:109740002A304CF064FAEDE738760700A47707007A
:109750004C7807002DE9F04105460068AC68002808
:109760006BD04CF071FAC6B23046228DE38BE18C9F
:1097700084F8206002444FF0000C084492FBF3F69A
:1097800003FB1622013690FBF3F7013203FB1703AC
:109790006146B6B2013762F30F0C0133BFB266F314
:1097A0000F0163F31F4C67F31F41C4F814C0A1619C
:1097B000AA682868B2F82880002834D04CF044FA0F
:1097C000AA68D38B4044B0FBF3F803FB180068B1E0
:1097D0002868B2F8268018B14CF036FAAB68DB8BFB
:1097E0004044B0FBF3F203FB120018B91E4928698C
:1097F00002F016FDBE4222D0628B238BD21A92B2A7
:1098000042B9A38AE28A934225D8D21A92B2E2B927
:10981000BDE8F0811549286902F002FDA38AE28AB9
:109820009342F2D917E0D38BB8FBF3F103FB11811C
:109830000029DBD0B2F82680D2E7064695E7E28A17
:10984000A38AD21A92B2002AE2D028690849BDE858
:10985000F04102F0E5BC9A1A2869064992B2BDE8C7
:10986000F04102F0DDBC00BFA47707007C78070060
:1098700074780700987807002DE9F0418768FB8C21
:109880009C18B4F5C07F00DA0AB9BDE8F0818846BB
:10989000398D05465B1A88189EB22A302A31144643
:1098A0003944721C38444BF0EDFBA868038D2A3311
:1098B0001844414622464BF0E5FBAB6813F12A0001
:1098C00003D04CF0C1F9AB6880B2D884A9681D4AB6
:1098D0000B8D2A330B4428460821FFF73BFCAB686D
:1098E0001A8D22441A85AA682868148D08B34CF092
:1098F000ABF9AA68D38B2044B0FBF3F403FB14004C
:1099000060B12868D48C18B14CF09EF9AB68DB8B41
:109910002044B0FBF3F203FB120018B90A4928698E
:1099200002F07EFC002EB0D02846BDE8F041FFF7E3
:1099300011BFD38BB4FBF3F103FB1144002CEDD02A
:10994000D48CE5E738760700A4770700F8B583687C
:109950001A8DDC8CA41AA4B204B9F8BD054602F134
:109960002B0102F12A001944184422464BF08AFBCD
:10997000AA68D38C013BD3842868AE68002842D003
:109980004CF062F9C7B23846328DF38BF18C86F811
:10999000207002444FF0000C084492FBF3F703FBE5
:1099A0001722013790FBF3F1013203FB1103BFB221
:1099B0006046013162F30F0C01338AB267F30F0086
:1099C00063F31F4C62F31F409742C6F814C0B061A6
:1099D0001BD02869194A1A4902F022FC2869194A41
:1099E000174902F01DFCA968154A0B8D2A330B4458
:1099F00028460821FFF7AEFB2869134A1049BDE845
:109A0000F84002F00DBC0746BEE7A9680C4A0B8D72
:109A10002A330B4428460821FFF79CFB0B4A0849D0
:109A2000286902F0FDFB621E92B2002A95D02869D7
:109A30000749BDE8F84002F0F3BB00BF50780700CB
:109A4000387607004C780700547807003478070010
:109A5000747807002DE9F0418368D3F83C67044629
:109A60008846188DD98CC6F300060D1AF7B2ADB230
:109A7000DFB9B1F5BF7F16D8002D40F0E380034475
:109A800083F82A8019E0EB8BB6FBF3F003FB10663A
:109A9000002E00F0EF80EE8CB6FBF3F203FB1262B7
:109AA000002A00F0E580BDE8F081B1F5BF7F79D8EC
:109AB000034483F82A80002D7AD1A268D38C013325
:109AC0009BB2D118D38481F82A5042467C49206940
:109AD00002F0A6FBA268138D01331385A5682068E8
:109AE0002E8D0028CFD04CF0AFF8A568EB8B30441A
:109AF000B0FBF3F603FB1600002800F0BB802068E3
:109B0000EE8C0028C8D04CF09FF8A568EB8B304451
:109B1000B0FBF3F603FB16000028C4D12068002830
:109B200000F0CB804CF090F8EB8BEE8CC0B202468C
:109B3000298D85F8200011441644002791FBF3F28B
:109B400003FB1211013296FBF3F092B203FB106695
:109B5000013183B2384662F30F0061F30F079A1A9E
:109B60000136013366F31F4763F31F4092B26F6102
:109B7000A861002A40F09C805249206902F050FB05
:109B80006A8B2B8BD21A92B2002A40F08C80AA8A60
:109B9000013A92B2002A86D020694B49BDE8F041D3
:109BA00002F03EBB002D3FF47EAF034483F82A80D1
:109BB0002068A668002843D04CF046F8C1B2084699
:109BC000328DF38BB6F826C086F820100244844408
:109BD0004FF0000E92FBF3F003FB102201309CFBD0
:109BE000F3F1013203FB11C380B2F446013162F399
:109BF0000F0E01338AB260F30F0C63F31F4E62F352
:109C00001F4C9042C6F814E0C6F818C038D020693E
:109C10002E4A2F4902F004FBA1682D4A0B8D2A33EE
:109C20000B4420460821FFF795FA2069294A284964
:109C300002F0F6FA01222449206902F0F1FA49E71C
:109C40000146BDE700F12A012B30194418442A4689
:109C50004BF018FAA3681A8D134483F82A80A2687F
:109C6000D38C01339BB2D118D38481F82A609FE74B
:109C700010465DE720691349BDE8F04102F0D0BA13
:109C8000A168134A0B8D2A330B4420460821ED1B93
:109C9000FFF760FAAAB2002A3FF41CAF0E49206910
:109CA00002F0BEFA16E70D49206902F0B9FA6EE734
:109CB0000B49206902F0B4FA5EE70246EE8C37E702
:109CC0000C760700A4770700987807005078070003
:109CD0003876070054780700747807007C7807000E
:109CE0006C7807002DE9F0410446C0689DF81870B3
:109CF000406884606068056890462D682E4A1E465C
:109D00002346A847054610B12846BDE8F0816069A2
:109D100002F0ACFE05460028F6D1A368C3F8300770
:109D2000A368C3F834074FF4E8622946A0684BF0F3
:109D3000C2F9A068214BB0F83C27214942F020022B
:109D4000A0F83C27A268B2F83C0768F38200A2F8AA
:109D50003C07A068B0F83C2742F00802A0F83C2776
:109D6000A26801201070A2685020D083A268C91A8E
:109D70001820C90890830ED0124A03EBC10C586812
:109D80000833006842F8040B6345F8D10E4B0D48C8
:109D900004224BF041FD002EB6D03946E068FDF7B5
:109DA000BBF9002806DBE368DB6801225A7128460C
:109DB000BDE8F0810425A7E7C58A0200C840080075
:109DC00030410800581E0120F98A02004AB32DE9EB
:109DD000F043054683B08846144600270E4668685F
:109DE00003682246D3F80C90314601ABC847019B6B
:109DF0002BB1E41A1F4411D008EB0706EFE7AA685D
:109E00001378032BEBD0D2F83C379B06FBD5B2F886
:109E10003C376FF34513A2F83C37E0E703B0BDE8E9
:109E2000F08370470CB470B584B008AB826853F807
:109E3000046B0193D2F83C375B07044604D592F8D3
:109E400022308B420D4609D13146206901AA02F029
:109E50009BFA04B0BDE8704002B0704702F12201E5
:109E6000684602224BF003F9A368002D60D093F8F6
:109E70002220AA4240D101AA3146206902F084FA88
:109E80009DF80030A268002B4AD092F82210994227
:109E90001ED19DF80130002BDBD0A26892F8231070
:109EA0009942D6D045F61B3103F12F00ADF80810CA
:109EB00034256D218DF80B00ADF80C108DF80A508B
:109EC00082F8233020691E4902AA02F0A9F9C0E7EE
:109ED0001C49029103F12F0033256D218DF80D00EF
:109EE000ADF80E108DF80C5082F82230206914491C
:109EF00002AA02F095F9CCE7124A0292332205F148
:109F00002F018DF80C206D228DF80D10ADF80E206C
:109F100083F8225020690A4902AA02F081F9AAE7CF
:109F200082F822302069084A054902F079F9B0E741
:109F300083F822502069044A014902F071F99AE736
:109F4000387607001B5B313B587807002DE9F0415C
:109F5000C3685B6890B006460F46186803A90022E4
:109F600002F078FF002840F08B80002F73D1B46896
:109F70003068002800F0C6804BF066FEC2B2104682
:109F8000238DE18BE58C84F82020034493FBF1F2D0
:109F900001FB123328444FF0000E0133551C90FB97
:109FA000F1FCADB201FB1C019BB27046013163F3C1
:109FB0000F0E0CF1010C65F30F0061F31F4E6CF3F3
:109FC0001F40012DC4F814E0A06100F29080012B25
:109FD000306977D84C4A4D4902F022F977B17DE0DB
:109FE000022A51D0039802F0A3FDF3685B680022B7
:109FF000186803A902F02EFF00283DD100230C228F
:10A0000004A9039802F0EAFD9DF810308DF8257040
:10A01000DDE9051003F00302012ACDE90701DFD1D4
:10A02000BDF81080DDE90304C8F38318C3F3C2054B
:10A030004FEA88020AA90C238DF82450C4F3952412
:10A0400002F0CCFD336900934246204607AB0AA9D3
:10A05000FDF7EEF8C6E7039802F06AFDB268D2F8A1
:10A060002C370133C2F82C37B468D4F82C3703F0FE
:10A070000703012B3FF47CAF012010B0BDE8F08155
:10A08000002010B0BDE8F081BDF81250C3F3C20348
:10A090008DF82430AD094FF00C08082D2C4628BF50
:10A0A0000824434622460AA9039802F097FD2D1B77
:10A0B0002146336907AA0AA8A044FDF79DF9002D9F
:10A0C000EBD18FE75A1E92B2114902F0A9F830691C
:10A0D0000D4A0E4902F0A4F8002F8FD030460D4AE9
:10A0E0000221FFF79FFE384610B0BDE8F0813069CD
:10A0F000094992B202F094F8A38A3069012B7FF6E5
:10A1000069AFDFE702463BE74C7807003876070087
:10A1100074780700047807007C78070010B543685E
:10A1200082B0002218689C6801A902F093FE18B959
:10A1300001462046FFF70AFF02B010BDF0B54468A3
:10A14000A56883B0AB6801911F78042F16D001A9D0
:10A15000206802F009FE60B1FE1E18BF01263146DC
:10A160002846FFF7F3FE01A9206802F0FDFD002854
:10A17000F5D1019802F0D8FC032F01D003B0F0BD57
:10A1800028460021FFF7E2FE03B0F0BD2DE9F04FB5
:10A1900083468068A9B0102100F23C70FEF77AFB7C
:10A1A000DBF808301B78022B40F08380DFF86C93DB
:10A1B000D34BCDF81C900DF1A0080022A3EB0903AE
:10A1C00048F85C2D4FEAD30ADBF80400036801224B
:10A1D0001C690DF143014346A047119B002B4DD054
:10A1E0009DF94330002BEFDB02F02CFDDBF808304B
:10A1F0005A78012A00F03F8104D3022A68D0002255
:10A200005A70E1E79DF843400D2C02D00A2C40F033
:10A21000A980D3F83C2712F47F5F06D0D3F83C27FF
:10A22000C2F38712944240F0A380B3F83C2764F352
:10A230008D12A3F83C27DBF80820D38C002B40F0CC
:10A24000DC83C2F83837DBF81000AE4901F0E8FFD4
:10A25000DBF80830AC4A02211970DBF80810002343
:10A2600081F82A30DBF808100B85DBF80810CB8466
:10A27000DBF8003003215846FFF7D4FD0021584693
:10A28000FFF764FEA8B1DBF800309F4A032158466F
:10A29000FFF7C8FDDBF80830D3F83C27120708D5D4
:10A2A00058462A33984A0821FEF754FF5846FFF7CC
:10A2B00051FADBF8100001F0A7FFDBF808006FF09F
:10A2C000100100F23C70FEF7F1FA29B0BDE8F08F02
:10A2D00000225A70DBF80840D4F83C371807CDD577
:10A2E0009DF84330313B1B2B3FF66EAF01A252F875
:10A2F00023F000BFB5A40200C1A40200E3A4020041
:10A30000A9A40200C9A10200C9A10200C9A10200BA
:10A31000C9A10200C9A10200C9A10200C9A102008D
:10A32000C9A10200C9A10200C9A10200C9A102007D
:10A33000C9A10200F7A402009DA50200A7A5020082
:10A3400021A50200C9A10200ADA40200C9A102001A
:10A35000B9A40200C9A10200C9A10200C9A102005A
:10A36000C9A40200B3F83C276FF38D12A3F83C2771
:10A37000092C00F0868100F28680002C3FF424AF87
:10A38000082C40F04F81DBF80830D3F83C27160743
:10A390007FF51AAFDA8C002A3FF416AF188D00282B
:10A3A0003FF412AF121A00F12A0195B229306A1C4B
:10A3B000194418444AF066FEDBF80820138D013B6F
:10A3C0001385DBF80820D38C013BD384002D00F0EB
:10A3D00066852246DBF810004C4901F021FFDBF8CE
:10A3E0000000DBF80840002800F08A854BF02CFCC8
:10A3F000C0B20246218DE38BE78C84F82000114423
:10A400001744002091FBF3F203FB1216013291B2C4
:10A41000013697FBF3F203FB12730746013292B247
:10A4200066F30F00013361F30F0763F31F4062F31C
:10A430001F4791426061A76100F08B85DBF8100037
:10A44000334A314901F0ECFEDBF81000314A2E4965
:10A4500001F0E6FEDBF808102B4A0B8D2A330B4483
:10A4600058460821FEF776FE2B4A2749DBF81000F4
:10A4700001F0D6FEA8E69DF843205B2A7FF4BFAE2C
:10A4800002225A70A0E61B2C00F0F6807F2C40F0D0
:10A49000C980DBF80830D3F83C371D077FF594AE50
:10A4A0005846FFF753FA8FE6032363705846FEF7CA
:10A4B000B1FF89E6032363705846FFF70DF883E682
:10A4C00003236370DBF80840D4F83C37B4F83C272A
:10A4D00003F0010383F0010363F30002A4F83C27B7
:10A4E00072E603236370DBF80830D3F83C371907B2
:10A4F0007FF56AAED4E701215846FFF759F863E6C5
:10A5000030410800A4770700387607000C76070072
:10A51000507807004C78070054780700C8400800BE
:10A52000DBF80000002800F02E814BF08DFBC1B25B
:10A530000D4628460131228DE38BE78C84F82050AC
:10A54000024492FBF3F503FB152207440135002674
:10A55000013292B2A8B297FBF3F503FB15733746AD
:10A56000013362F30F06013560F30F0763F31F46F3
:10A5700065F31F478A426661A76100F01B82012ACA
:10A58000DBF8100000F02E82B349012201F048FEF2
:10A59000DBF80820138D013B138515E60021584692
:10A5A000FFF706F810E6DBF80000002800F0EE8068
:10A5B0004BF04AFBC5B22846228DE18BE38C84F830
:10A5C00020500244034492FBF1F001FB1022451C91
:10A5D000002693FBF1F0013201FB103392B23746B3
:10A5E000ADB2013301309BB262F30F0680B265F366
:10A5F0000F0763F31F4660F31F479A426661A76126
:10A6000000F0DC8191424FF0010200F0E0819349BB
:10A61000DBF8100001F004FEDBF80820138D013395
:10A620001385D1E54AF0ECFC9DF8431008444378CB
:10A6300013F0970F3FF4C8ADDBF80830D3F83C2790
:10A640001407C2F3C00000F1BD81DA8CB2F5BF7F00
:10A650003FF6BAAD1A8D9C1801321A8584F82A107B
:10A66000DBF808301A8D134483F82A00DBF8082041
:10A67000D38C0133D384A7E5DBF8083001225A706C
:10A68000A2E5DBF80800D0F83C371A077FF59CAD4F
:10A69000C38CC3F5BF7301339BB20993002B3FF406
:10A6A00093AD00F12A01028D00F5D5704AF0DFFC70
:10A6B000DBF808301A8D1344002483F8AA414AF0CD
:10A6C0009FFCDBF808301A8D1A441BA992F8292048
:10A6D000024412A85578C3F83847DBF8082005F083
:10A6E00008030F9302F5D572C5F3C0030D93FEF76F
:10A6F000D5FA1B98002800F043834BF0A5FA83B2EB
:10A7000008930022CDF814B0129BDDF820B003921C
:10A710000A920C92164604920E920B92CDF8188073
:10A72000002B00F0A1800D9A013A1344B34240F28D
:10A730009B8028AA02EB8608494C0A9FCDF820800E
:10A740000023CDF828B05D1C16BB53457ED2CB4606
:10A75000B046DBF80430206819684BF04EFA002848
:10A7600000F01C8108F10108C2450BF1080BF0D183
:10A77000DDE905B8002D7FF427AD3A4A042158469B
:10A78000FFF750FB20E505460121D4E6054613E717
:10A79000002F5BD039787A68002951D013A9184668
:10A7A00090471399002951D00DF14C0B002D00F06A
:10A7B0008384089B53F8340C4BF01FFA04342B4667
:10A7C0000028C0D15F46DDF828B0BB680A9333B1DA
:10A7D000129B0D9A0136B6B21A449642A0D3CDF818
:10A7E00020B0DDE905B8049B002B3FF4EDAC012B54
:10A7F00000F01484DBF808300E9D00229A8428AB08
:10A8000003EB86030593002E40F0D382AA4514D9AA
:10A81000134ACDF8188002EB8507A84634464D460A
:10A820006B68386819684BF0E8F9002800F0CF83AE
:10A830000134A24505F10805F2D100231B68FFDEB3
:10A840001B0102EB030BD1580029AFD1DDE905B89C
:10A85000002D7FF4B9AC90E7747807009878070072
:10A86000581E0120547B07000F9B002B75D128AB8D
:10A8700003EB860353F8340C00286ED04BF0E4F958
:10A880001FFA80FB28AB03EB860300240893C6B9AC
:10A89000A24510D9B64B374603EB840509EBC70830
:10A8A0002868D8F8043019684BF0A7F900284CD074
:10A8B00001375745F2D1CDF820B00026DDE905B8C3
:10A8C00091E70A9B002B8AD01A785B68002A00F077
:10A8D000188213A920469847139900293FF47FAFA7
:10A8E00013AD089B5A4653F8340C4BF0B5F9B0B988
:10A8F000049B039A013304932B6892B143B1184629
:10A900004BF0A2F90C9B80B2834238BF03460C93F4
:10A91000099B2BBB631C00F0FB8103950B94013456
:10A92000B5E7002B38D018464BF08EF983B20C9364
:10A930001846099BA0EB0B0083420CDD0C9B0E9488
:10A94000A3EB0B039BB20993E4E7D8F80450002D66
:10A95000B1D02968C5E70E94DCE74FF0000B91E712
:10A96000002E40F0DE810B9B5345BFF466AF804A5A
:10A97000039402EB8307C8463446D8F8043038689D
:10A9800019684BF03AF9002800F0A38201345445CD
:10A9900008F10808F1D150E70C90CAE7DBF804B0E1
:10A9A000002D00F08983BBF1000F00F08183DBF8FC
:10A9B0000010FEE601287FF4E2AD05E485427FF455
:10A9C00021AE01E45846FFF745F8FFF7FDBB6949A2
:10A9D000DBF8100001F024FCE28B002A3FF41CAEEF
:10A9E000654915E6654901F01BFCE28B002A3FF43E
:10A9F000CFAD6349DBF81000C8E592F82A30002B90
:10AA00004ED0002404E00134B4F5803F00F0C08251
:10AA10004AF0F6FADBF808201319A5B293F82A30A9
:10AA2000184443781907EED4D38C95B102F12A006B
:10AA300001331A1B01194AF025FBDBF80820D38CDF
:10AA40005D1BD584DBF80830DA8C1A85DBF808202A
:10AA5000D38C2933D41825464AF0D2FA2B780344F4
:10AA6000661B5B7813F008032F46B6B205F1FF357D
:10AA7000F2D1DBF80820D18C01F129001044874283
:10AA80000ED0891B0A4482F82A30DBF80820D38CC8
:10AA90009E1BD684DBF80830DA8C1A85DBF8082098
:10AAA00012F12A0000F068814BF0CEF8DBF8083094
:10AAB000002485B2C3F83847002D00F05F81DBF831
:10AAC0000830D3F830371FFA80F81BAE53B1184660
:10AAD000314623460A2202F081F8BDF87430AB42B9
:10AAE00000F05C8208F10B08082703E0C3F8300788
:10AAF000013F76D04146DBF8140001F0B9FFDBF8E6
:10AB00000830044600283DD1D3F83457002DEFD04B
:10AB100003460A223146284602F060F8DBF8083086
:10AB20001C9AC3F8342721460A2230464AF0C3FA59
:10AB300023460A223146284602F01CF8284601F036
:10AB4000D9FFDBF80830D3F834070028CED02346ED
:10AB500031460A2202F042F8DBF808201B94D2F8B2
:10AB6000340723460A22314602F004F8C0E700BF4A
:10AB7000581E01206C780700747807007C78070065
:10AB800098780700D3F83007002800F0BC81002334
:10AB90000A22314602F022F8DBF808301C94D3F880
:10ABA00030070A220023314601F0E4FFDBF80830C9
:10ABB00000221C92D3F830271B92DA8CADF8742057
:10ABC000C3F8304700230A223146204601F0D2FF65
:10ABD000DBF80810CA8C204601322A310A2301F022
:10ABE000C9FF5846FEF716FCDBF80820DBF800002A
:10ABF000148D20B14BF028F8DBF808200444D18BE9
:10AC0000B4FBF1F301FB1343002B40F0BB802A326D
:10AC1000314613A8FEF742F8139B002B00F0BA80D0
:10AC2000002840F0BE80BAF1000F00F04881079D77
:10AC300004466B681B9819684AF0DFFF002840F053
:10AC40003681DBF808001022043000214AF033FA84
:10AC50006B68DA6832B10FCBDBF80840043484E863
:10AC60000F006B68D3F808A0DFF8A893DFF8A8837B
:10AC700003960023344604930127002515E09AF833
:10AC80000020DAF80430002A00F0298117A92846AC
:10AC900098471799E9B117AE6B1C1AD060684AF053
:10ACA000ACFF0135002800F03C81139BBB4210D95A
:10ACB000494660684AF0A1FF002800F0178141462C
:10ACC00060684AF09AFF002800F01081BAF1000F86
:10ACD000D5D1039EDBF808301B69002B00F00782FA
:10ACE0000498139906EB8002091A58469847DBF836
:10ACF0000830B3F83C276FF34102A3F83C27FFF775
:10AD0000A7BA22019D18995800297FF4EAAD66E59B
:10AD1000B44A0598039504210B94FFF783F80A9B26
:10AD200055E50A9B002B3FF488AD1A785B68002A32
:10AD300000F006810B9817A99847DDF85CE0BEF19A
:10AD4000000F3FF47AAD2868002308E01EF80110D8
:10AD500091420BD10133B3F5803F3FF4DBAD0BEBF8
:10AD600003011FFA83FC425C002AEFD1099B634573
:10AD700028BF63460993CDE5C2F838071BAE30E71C
:10AD80000890BEE49849DBF8100001F049FADBF8BE
:10AD900008203CE79449DBF8100001F041FAFFF786
:10ADA00057BA0346914A02215846FFF73BF8FFF78E
:10ADB0004FBA0A9B002B3FF440AD1A785B68002A1B
:10ADC00000F0648113A928469847139900293FF49D
:10ADD00034AD13AC059B089A53F8340C4AF03CFF91
:10ADE00000285AD1049B2768013B0493002F00F0F0
:10ADF000F5807F484AF028FF0C9BDBF808101A18F2
:10AE000092B27B48CC8B0B924AF01EFF06903846DC
:10AE10004AF01AFFDBF808300699B3F824C00B9A01
:10AE2000611AB1FBF2F189B2BCFBF1F401FB14C170
:10AE3000121A0CF1010C89B294B2A3F824C00029B3
:10AE400040F09F8000976A4B6A4A07215846FEF7F8
:10AE5000E9FF002C40F02281049B0135002B7FF498
:10AE6000D2ACDBF80030644A58460321FEF7DAFF23
:10AE7000DBF80830614A2A3308215846FEF76AF9A0
:10AE80005846FEF767FC039B1968DDE9083258460F
:10AE90001944FEF7F1FCFFF797B90135B3E4584ABE
:10AEA0005649DBF8100001F0BBF9FFF78DB901340A
:10AEB00054453FF6C6AE05F108057FF4BAAE514BD6
:10AEC0000093514A1B9B02215846FEF7ABFFFFF748
:10AED000BFB9D8F80430039CD3F800E033E72A0167
:10AEE0009E18995800297FF4D7AEF2E6DBF80820C7
:10AEF000039EB2F83C3743F00203A2F83C37E9E680
:10AF00000246FFF777BAC3F83047DBF80830C3F8DA
:10AF10003447CDE91B00DBF80830DB8CADF874302A
:10AF200050E6F3683BB196E80F00DBF80850049751
:10AF3000043585E80F000137D6F808A004349CE6F4
:10AF40000B9A120153F802E0BEF1000F7FF4FBAE42
:10AF500073E4DBF80810294A0B8D2A330B4458465A
:10AF60000821FEF7F7F8DBF81000284A234901F022
:10AF700057F92A462649DBF8100001F051F9FFF78E
:10AF800023B93B461D4A07215846FEF74BFF60E7B1
:10AF9000002382F82A30DBF8082081E5DBF808205E
:10AFA0000A2302F5D571D2F8300708F1010201F049
:10AFB00015FEDBF8080000F5D5712A304AF01DFEB9
:10AFC000DBF80830002870D083F8AA418AE52C46C7
:10AFD00045466468DDF818802168FBE6DBF8082048
:10AFE000978439E7547B0700A4770700F87A0700B5
:10AFF000807B0700847B07008C7B07003876070086
:10B000005C780700147B07000C7B07004C78070076
:10B0100074780700287B07002C7B07000A9B1B78AD
:10B02000002B4DD1039B186808B14AF00DFE089B18
:10B03000834206D0039A1168099A19445846FEF7CC
:10B040001BFC49F0DDFFDBF808100A8D8B1893F824
:10B050002A3003445B7813F0080363D1D1F83C270E
:10B06000D70759D5B1F83C2763F30002A1F83C2774
:10B0700058462021FEF7EEFCDBF80820B2F83C37FA
:10B0800043F00103A2F83C37FFF79EB82A019C1851
:10B09000995800297FF49EAEFFF7CFBB2246344972
:10B0A000DBF8100001F0BCF8D6E683F8AA0198E5B9
:10B0B000DDE905B8FFF788B8DDE905B8FFF75DBB46
:10B0C000F6B90B9B9A457FF6B8AB2A4A4C4602EB81
:10B0D000830708E06368386819684AF08EFD2346E4
:10B0E000083450B10136B245F4D1FFF7A6BB224A6D
:10B0F00002215846FEF796FEF9E55B68039391E757
:10B100000A9B0B985B6813A99847139800283FF493
:10B1100094AB13AB039388E720215846FEF79AFCC3
:10B12000FFF752B8CB8C93427FF64EA8DBF80000B5
:10B13000FDF788FDDBF808208488138D0133138523
:10B14000DBF80810DBF80000FDF77CFD8388A342E4
:10B1500006D00A49DBF8100001F062F8FFF734B8B6
:10B1600001220349DBF8100001F05AF8FFF72CB870
:10B1700098780700581E0120347B0700A477070049
:10B1800001290AD0022904D18368D3F83C379B07F0
:10B1900003D4034A0221FEF745BEFEF75FB800BFA5
:10B1A000347B070010B5012982B004460BD0022978
:10B1B0000B460ED08268D2F83C17890703D4022BC5
:10B1C00011D802B010BD204602B0BDE81040FEF715
:10B1D00045B8D2E90034084ACDE90024074AFEF711
:10B1E00021FE02B010BD5368054A022102B0BDE83D
:10B1F0001040FEF717BE00BFA0700700E4790700FB
:10B20000F079070030B583681B78012B83B04AD1F1
:10B2100004464068036800219B689847054610B1C2
:10B22000284603B030BDA36893F82220082A1BD11A
:10B2300093F82320012A28D120691D4900F0F0FF4E
:10B24000A3681C4A02211970A168002381F82A30E2
:10B25000A1680B85A168CB84204623680321FEF7F3
:10B26000E1FD284603B030BD134A00921349019115
:10B27000082283F8222020690E496A4600F0D0FF98
:10B28000A36893F82320012AD6D00D4A00926D219D
:10B290000122ADF8041083F82320206905496A468D
:10B2A00000F0BEFFC8E70825284603B030BD00BF48
:10B2B000A07B0700387607001B5B313B33376D00FE
:10B2C0001B5B34308268D2F83C37C3F3400383B948
:10B2D000012909D110B4C2F82C37C3685DF8044BBA
:10B2E0005B68186801F022BE5368034A0221FEF72A
:10B2F00099BDFDF7B3BF00BFF07907008268D2F8AF
:10B300003C37C3F340036BB9012906D1B2F83C17AF
:10B3100063F3C301A2F83C1770475368024A022145
:10B32000FEF780BDFDF79ABFF079070010B582687F
:10B33000D2F83C47A30715D401290CD104460B4A87
:10B340000B49006900F06CFFA3685022DA83A36800
:10B3500018229A8310BD5368064A0221BDE81040A6
:10B36000FEF760BDBDE81040FDF778BF44780700E8
:10B3700038760700F079070070B58268D2F83C474C
:10B38000C4F3400484B02CBB01291BD1C3685B68A3
:10B390001E680546304601F0C5FDAB68B168D3F8BC
:10B3A0002C370291C0B2642202FB00F2B2FBF1F230
:10B3B000D2B2CDE9002021462846094AFDF752FEC7
:10B3C00004B070BD5368074A022104B0BDE8704064
:10B3D000FEF728BD04B0BDE87040FDF73FBF00BFD9
:10B3E0000C7A0700F07907008368D3F83C279207AE
:10B3F0000DD4012906D1B3F83C2742F00802A3F886
:10B400003C2770475B68034A0221FEF70BBDFDF73E
:10B4100025BF00BFF0790700F0B58368D3F83C473B
:10B42000C4F3400487B094BB012929D1D3F8345721
:10B430000DB3194F0646284600230A2203A901F03E
:10B44000CDFBBDF81420B1682846013201F5D57155
:10B450000A2301F0C3FBB368049D03F5D573009381
:10B460003A462346002130460134FDF7FBFD0DB17D
:10B47000082CE0D1B368002283F8AA2107B0F0BD00
:10B480005B68064A0221FEF7CDFC07B0F0BDFDF770
:10B49000E5FE07B0F0BD00BF5C7A0700F079070059
:10B4A0008268D2F83C37C3F340036BB9012906D157
:10B4B000B2F83C1763F38201A2F83C177047536857
:10B4C000024A0221FEF7AEBCFDF7C8BEF0790700C4
:10B4D0008368D3F83C2792070DD4012906D1B3F82D
:10B4E0003C2742F00402A3F83C2770475B68034AFC
:10B4F0000221FEF797BCFDF7B1BE00BFF07907004F
:10B5000030B58368D3F83C47C4F3400483B0CCB96A
:10B5100002290FD81BD0D3F83C17124D124B134AF7
:10B5200011F0080F18BF2B46214603B0BDE830408C
:10B53000FDF798BD5B680E4A022103B0BDE83040BC
:10B54000FEF770BC03B0BDE83040FDF787BED2E91E
:10B550000034084ACDE90024074AFEF763FC03B033
:10B5600030BD00BF44990700447A0700487A0700BD
:10B57000F0790700A0700700E479070070B5012991
:10B5800082B0044610D08568D5F83C67B3070BD469
:10B5900002290FD1D2E900340A4ACDE900240A4A2F
:10B5A000FEF740FC02B070BD204602B0BDE870401E
:10B5B000FDF754BE6B68054A022102B0BDE8704039
:10B5C000FEF730BCA0700700E4790700F0790700AF
:10B5D000F0B5012983B0856810D0D5F83C379B07BA
:10B5E00043D4022946D8D2E90031294ACDE90021C5
:10B5F000284A0221FEF716FC03B0F0BD0446FDF711
:10B600007FFA20BBA368244920699F8A1E8BFA22F7
:10B6100000F006FE20692149FA2200F001FE2046D2
:10B62000FDF76EFA98B9A3689A8AEA83A368D21BD9
:10B630001B8BAB8392B22ABB9A1B92B2002ADBD03F
:10B640002069174903B0BDE8F04000F0E9BDA368E8
:10B65000144A5021D983A3681821998320460421D4
:10B6600003B0BDE8F040FEF7DDBB03B0BDE8F0403D
:10B67000FDF7F4BD6B680C4A022103B0BDE8F04051
:10B68000FEF7D0BB0949206900F0CAFDAB8BD3E7B8
:10B69000A0700700E4790700987807006C7807002D
:10B6A0007C780700687A0700F07907007478070053
:10B6B0002DE9F04F054687B0AB480C4690464AF05E
:10B6C000C3FA0646A9484AF0BFFAAB68A8495B68C6
:10B6D000A84A0091361A08212846FDF73BFDAB68C1
:10B6E0005868B6B2002800F0BD804AF0ADFA87B2C3
:10B6F0009F484AF0A9FAAB68384482B29968284654
:10B70000FDF7D4FB9C4A00212846FDF7ABFCB8F1BD
:10B71000000F2CD0002C00F0118108EB480804EB3E
:10B72000880827461BE018464AF08EFA814638689A
:10B7300008B14AF089FA4844B0420CD97868002828
:10B7400000F092804AF080FA86B2386818B14AF068
:10B750007BFA0644B6B20C37B84500F087807B68A8
:10B76000002BE0D138680028F5D09946E1E77F4802
:10B770004AF06AFA02300644B6B27B4B00937F4A25
:10B780003346082128460336FDF7E4FCB2B27C4973
:10B790002846FDF78BFBAB68DC68002C3BD0002310
:10B7A0001E4694F800C0626802A918465F1CBCF1EE
:10B7B000000F11D090470298A0B10DF108084AF08F
:10B7C00043FA864206D2D8F80060304616B14AF0F5
:10B7D0003BFA86B23B46E4E71B0102EB0308D05874
:10B7E0000028ECD1012F16D0664ADFF890A1002185
:10B7F0002846FDF737FC2278636806F102094FF00E
:10B8000000081FFA89F902A94046FAB94FEA08125E
:10B810009F189B581BB907B0BDE8F08F02AF0821F5
:10B82000009352464B462846FDF794FC7B68721DF8
:10B8300092B21946284683B1FDF738FB2278636837
:10B8400008F1010802A94046002ADFD09847029B70
:10B85000002BE3D107B0BDE8F08F4B49286900F019
:10B86000DFFCEBE7074643E706466EE73F48DFF8B5
:10B870000CA1DFF8F8904AF0E7F902300644B6B2BE
:10B88000394B009306F103083346524608212846F7
:10B890001FFA88F8FDF75EFC424639492846FDF755
:10B8A00005FB2CE0CDE900922846384A0821FDF737
:10B8B00051FC606800283AD04AF0C6F9301A1FFAE5
:10B8C00080FB206828B14AF0BFF9ABEB000B1FFAF0
:10B8D0008BFB48464AF0B8F9ABEB000292B242BB90
:10B8E0003A222B49286900F09BFCA168B1B142467D
:10B8F0002846FDF7DBFA0C34A7423FF44CAFD4E9FD
:10B90000002383B1002ACDD100930821334652464B
:10B910002846FDF71FFCA1680029E8D11A492869CB
:10B9200000F07EFCE7E7002ADFD00092EDE7B346A7
:10B93000C7E71849286900F073FCD1E70B484AF0C3
:10B9400083F902300644B6B2074B009328463346CB
:10B950000A4A0821FDF7FEFBF21C92B2084928466C
:10B96000FDF7A4FA17E700BFA0780700B07B070037
:10B9700068780700E07A0700A47A0700B07A070029
:10B98000B87A0700CC7A0700A4770700DC7A0700B2
:10B990000C76070098780700002070471A608068CE
:10B9A0001A4601F0B3BB00BF10B542680F4900232F
:10B9B00013604268536043680446986811F0F3F9D5
:10B9C00063680B49986811F0EEF90A490B6843B1B6
:10B9D0005A68D3699C42FAD16368DB69D36100205D
:10B9E00010BD00230B60002010BD00BF24170120F4
:10B9F000341701200C27012070B5044640681B4D08
:10BA0000026060682A784360636899609AB96368E5
:10BA1000174E9B68B36063689B68B3616368314687
:10BA2000986811F0BBF9636806F11001986811F08D
:10BA3000B5F901232B700F4A13687BB15A68D2699C
:10BA40000AB910E01A465368DB69002BFAD1636823
:10BA50000021D9615368DC61002070BD6168146009
:10BA6000CB61002070BD1A46F1E700BF0827012016
:10BA7000241701200C2701202DE9F0411A6004460B
:10BA800040688EB00C301646884615F00BFB40B16E
:10BA900063680120D3E90021904700200EB0BDE883
:10BAA000F081636801460546986811F02CF9074655
:10BAB0000028EDD00322294611F030F90221384642
:10BAC00011F030F91F4B3846196911F02DF938463D
:10BAD00011F02CF9B2B2414638461BF0F0FF054692
