:1000000000000420B5020000DD020000DF02000055
:10001000E1020000E3020000E50200000000000031
:10002000000000000000000000000000810500004A
:10003000E902000000000000A1050000ED02000040
:1000400051440000551204000DB40300EF020000FB
:10005000EF020000EF02000055480000EF02000030
:10006000EF020000EF020000EF020000EF020000CC
:10007000EF020000C5AE0300EF020000EF02000037
:10008000EF020000A9060000EF020000EF020000EE
:10009000EF020000EF020000EF020000EF0200009C
:1000A000EF020000EF020000EF020000EF0200008C
:1000B000EF020000EF02000000000000000000005E
:1000C000EF020000EF020000EF020000EF0200006C
:1000D000497F0300EF020000EF020000EF02000082
:1000E000EF020000EF02000069EA030000000000D8
:1000F00000000000EF02000000000000EF0200001E
:1001000000000000000000000000000000000000EF
:1001100000000000000000000000000000000000DF
:1001200000000000000000000000000000000000CF
:1001300000000000000000000000000000000000BF
:1001400000000000000000000000000000000000AF
:10015000000000000000000000000000000000009F
:10016000000000000000000000000000000000008F
:10017000000000000000000000000000000000007F
:10018000000000000000000000000000000000006F
:10019000000000000000000000000000000000005F
:1001A000000000000000000000000000000000004F
:1001B000000000000000000000000000000000003F
:1001C000000000000000000000000000000000002F
:1001D000000000000000000000000000000000001F
:1001E000000000000000000000000000000000000F
:1001F00000000000000000000000000000000000FF
:1002000010B5054C237833B9044B13B10448AFF350
:1002100000800123237010BD780200200000000040
:10022000F0E8040008B5034B1BB103490348AFF3E2
:10023000008008BD000000007C020020F0E80400FF
:10024000154B002B08BF134B9D46A3F5803A0021A8
:100250008B460F461348144A121A43F0AAFA0F4B62
:10026000002B00D098470E4B002B00D09847002061
:10027000002104000D000D48002802D00C48AFF307
:10028000008043F013FA2000290005F02BFB43F017
:10029000E7F900BF00000800000004200000000093
:1002A0000000000078020020B84F0120000000008C
:1002B000000000000649074A074B9B1A03DD043B78
:1002C000C858D050FBDC05F003FDFFF7B9FF000074
:1002D00050E904000000002078020020FEE7FEE75D
:1002E000FEE7FEE7FEE7FEE7FEE7FEE7FEE7FEE7E6
:1002F000074B1B5C1F2B8ABF064A4FF0A04203F03E
:100300001F03D2F80405D840C04300F00100704735
:100310002C52040000030050074B1B5C1F2B86BFB0
:1003200003F01F0305494FF0A041012202FA03F335
:10033000C1F80C35704700BF2C5204000003005078
:10034000074B1B5C1F2B86BF03F01F0305494FF0B3
:10035000A041012202FA03F3C1F80835704700BF3B
:100360002C520400000300504FF0A04310B44FF48F
:1003700080404FF400544FF400414FF48032C3F8F2
:100380000845C3F80805C3F80815C3F808255DF843
:10039000044B70474FF0A04310B44FF480404FF42B
:1003A00000544FF400414FF48032C3F80C45C3F8B9
:1003B0000C05C3F80C15C3F80C255DF8044B704709
:1003C0000A4B195C1F298ABF09484FF0A04001F071
:1003D0001F01D0F8043501228A4022EA03011340AC
:1003E000C0F80815C0F80C35704700BF2C52040047
:1003F000000300500B2809D00C2809D0182809D078
:1004000019280CBF03204FF0FF30704700207047C1
:100410000120704702207047C20730B40ED4830712
:100420000AD54FF0A0430C22C3F82C27C3F830277D
:10043000C3F86027C3F8642730BC70474FF0A0436F
:100440000322C3F834274FF40055C3F838274FF47C
:100450008044C3F83C274FF40041C3F840274FF4D1
:100460008032C3F80855C3F80845C3F80815C3F827
:100470000825D4E738B5430704461CBF20F007041D
:10048000083401F025F90E4A136873B10D4A156856
:1004900043F2F7712C448C420CD8A5420AD21D4479
:1004A000146001F0C1F9284638BD074B23F007035B
:1004B0001360EBE7002501F0B7F9284638BD00BF0F
:1004C00094020020983A0020A0020020704700BF4C
:1004D00000F108034FF0FF310022816002604360A9
:1004E000C0E90333704700BF00230361704700BFBA
:1004F00043684B609A688A609A68516099600861A5
:10050000036801330360704730B40D686B1C11D071
:1005100000F1080200E01A4653681C68AC42FAD9A0
:100520004B6099608A605160086103680133036021
:1005300030BC704702695368F2E700BFD0E901217F
:1005400003699160D0E9011251605A68824204BF88
:1005500082685A60002202611A68013A1A601868BB
:10056000704700BF0548006880F3088862B661B62E
:10057000BFF34F8FBFF36F8F00DF00BF000000009D
:10058000064B19680868B0E8F04F80F30988BFF39C
:100590006F8F4FF0000080F311887047A03A002061
:1005A000EFF30980BFF36F8F144B1A681EF0100F22
:1005B00008BF20ED108A20E9F04F10604DF8043D8F
:1005C0004FF0400080F31188BFF34F8FBFF36F8F60
:1005D00001F086FA4FF0000080F3118808BC19681A
:1005E0000868B0E8F04F1EF0100F08BFB0EC108A9A
:1005F00080F30988BFF36F8F704700BFA03A0020D7
:10060000402383F31188FEE730B46FF002034FF00C
:100610008075074C40F8081C40F8202C40F8045C1A
:1006200040F80C4C40F8243C30BC4438704700BFC4
:10063000010600000F4C08B5E02384F8223000F0DA
:1006400073F80D4B0D4A00211960D4F8883043F43B
:100650007003C4F88830536843F040435360236903
:1006600043F010032361FFF77DFF402383F31188DC
:10067000FEE700BF00ED00E09C3A002030EF00E014
:10068000402383F31188024A1368013313607047D3
:100690009C3A0020034A1368013B13600BB983F3B3
:1006A000118870479C3A002070B51B4B00251D60D7
:1006B00082B01B680193019BEFF31186402383F303
:1006C0001188164A164BD2F804451D601B6800932A
:1006D000009B01F005F8241A24F07F44012C0DD86A
:1006E00044B101F011F8054625B10E4B4FF0805290
:1006F0005A6040BF86F3118802B070BD01F06CFBF8
:100700000228EED1013C00F0FFFF013C631C45EAEA
:100710000005F8D1E8E700BF40110140001001409A
:100720000011014000ED00E038B5002003F03EFD6F
:100730000A4B0B480B4901221F24C3F80845022528
:10074000C3F80423E02402604FF400301A60C3F8B9
:10075000445381F81143086038BD00BF00100140C8
:100760000810014000E100E0F0B5074685B072B620
:10077000284CD4F8046501F015FB002842D0264D22
:10078000264BBD4228BF3D4672190121C4F808130B
:1007900022F07F420021C4F8402519601B680193B4
:1007A0004FF48033019AC4F80433BFF34F8F47B13D
:1007B0001B4A20BFD2F80041D2F8041154EA0103C9
:1007C000F7D0144A1548174B4FF48031C2F808137C
:1007D0000021016000680390039819601B68029370
:1007E00001230299C2F80433D2F804350C4A9B1B4A
:1007F00023F07F40A8424FF4003328BF2846C2F8B8
:10080000803110B962B605B0F0BD00F075FF62B678
:1008100005B0F0BD00100140FDFFFF004011014098
:1008200000E100E00011014070B506460D4651B1EF
:1008300000FB01F04830FFF71DFE044658B300F1FD
:100840004803036005E04820FFF714FE044610B398
:100850002460C4E90F65FFF713FFD4E90F13226882
:10086000A26001FB03F1CB1A134400200A44FF21CC
:10087000A063E36084F84410626084F8451004F1DA
:100880001000FFF725FE04F12400FFF721FEFFF71B
:1008900001FF204670BD0024204670BD2DE9F04FB9
:1008A000044685B01D4601928846FFF7E9FEA26B1B
:1008B000E36BA84F4FF000099A424E46C0F08B8080
:1008C000022D00F006810198002800F03081B9F176
:1008D000000F00F09580FFF7DDFE00F0F9FEFFF756
:1008E000CFFE94F84430FF2B08BF84F8446094F89E
:1008F0004530FF2B08BF84F84560FFF7CBFE01A908
:1009000002A801F011FA002840F01881FFF7B8FEA4
:10091000A26BE36B9A4277D0FFF7BCFEFFF7B0FE05
:1009200094F845304FFA83FABAF1000F1ADD636A82
:10093000C3B104F1240907E00AF1FF33DBB24FFA37
:1009400083FA7BB1636A6BB1484601F093F90028E2
:10095000F2D001F021FA0AF1FF33DBB24FFA83FA49
:10096000002BEFD1FF2384F84530FFF793FEFFF70C
:1009700087FE94F844304FFA83FABAF1000F1ADD7B
:100980002369C3B104F1100907E00AF1FF33DBB2B8
:100990004FFA83FA7BB123696BB1484601F06AF9DB
:1009A0000028F2D001F0F8F90AF1FF33DBB24FFA78
:1009B00083FA002BEFD1FF2384F84430FFF76AFE5F
:1009C00000F032FFFFF75CFEA26BE36B9A424FF040
:1009D0000109BFF475AF226CA66B002A40F0FC80C1
:1009E00025680136002D00F01881A663636A002B8C
:1009F00040F08C80FFF74EFE012005B0BDE8F08F7F
:100A000002A801F085F966E704F11009FFF742FE3C
:100A10004846019901F090F8FFF732FE94F845A09E
:100A20004FFA8AFABAF1000F1CDD636AD3B104F100
:100A3000240B08E00AF1FF3A5FFA8AF34FFA83FACF
:100A400083B1636A73B1584601F014F90028F1D0FC
:100A50000AF1FF3A01F0A0F95FFA8AF34FFA83FA3C
:100A6000002BEED1FF2384F84530FFF713FEFFF78C
:100A700007FE94F844304FFA83FABAF1000F06DC0F
:100A800015E00AF1FF33DBB24FFA83FA7BB1236939
:100A90006BB1484601F0EEF80028F2D001F07CF985
:100AA0000AF1FF33DBB24FFA83FA002BEFD1FF23B9
:100AB00084F84430FFF7EEFD00F0B6FE002881D147
:100AC0004FF080537B6040BFBFF34F8FBFF36F8FFA
:100AD00078E7226CA66B002A82D04146E06842F09B
:100AE00044FE236CE26821685B421A448A42E26059
:100AF00080F0898062681344E360022D00F08380F7
:100B00000136A663636A002B3FF474AF04F124003E
:100B100001F0B0F800283FF46DAF0E4B4FF080525B
:100B20005A6040BFBFF34F8FBFF36F8F62E70090F3
:100B3000FFF7B0FD009805B0BDE8F08FFFF7A0FD0E
:100B400094F845506DB2002D18DD636AB3B104F11D
:100B5000240607E000ED00E0013DEBB25DB26BB1B1
:100B6000636A5BB1304601F085F80028F4D0013D9E
:100B700001F012F9EBB25DB2002BF1D1FF2384F842
:100B80004530FFF787FDFFF77BFD94F844506DB2C9
:100B9000002D16DD2369A3B104F1100605E0013D27
:100BA000EBB25DB26BB123695BB1304601F062F824
:100BB0000028F4D0013D01F0EFF8EBB25DB2002B5C
:100BC000F1D1FF2384F84430FFF764FD00F02CFEE0
:100BD000002005B0BDE8F08F41465DBBA06842F043
:100BE000C4FDA368216C62680B44934206F10106C0
:100BF000A360FFF4FAAEA663636A2268A260002BCA
:100C00003FF4F8AE82E7002E7FF4EFAE0123A3633A
:100C1000636A002B3FF4EEAE78E7606801F0ECF811
:100C2000A663636A6560002B7FF470AF00287FF4D1
:100C300074AFDFE6E06842F098FD236CE26821685B
:100C40005B421A448A42E260BFF457AF52E700BFEA
:100C50002DE9F0418C4682B004461746EFF3118629
:100C6000402282F31188806BE26B904221D3022BE9
:100C700005D0002086F3118802B0BDE8F08194F819
:100C80004550226CD4F838806DB252BB236808F10D
:100C90000108002B4FD06B1CC4F8388037D00135C9
:100CA0006DB284F84550012086F3118802B0BDE88A
:100CB000F08194F84550226CD4F838806DB2002A47
:100CC000E4D073B9A06842F050FDA368216C62685B
:100CD0000B44934208F10108A360DCD32368A360AE
:100CE000D9E76146E068019342F03FFD206CE2687D
:100CF0002168019B404202448A42E26002D262685B
:100D00001044E060022B10D008F10108C3E7636AC9
:100D1000002BC8D004F1240000F0ACFF0028C2D0A2
:100D2000002FC0D001203860A4E7B8F1000F08BF41
:100D30004FF00108AFE76068019301F05DF8019B97
:100D40006360A8E72DE9F047044684B08846019225
:100D5000FFF796FCD4F83890B9F1000F40F093807B
:100D6000019B002B00F00A8102A800F0D1FFB34FD5
:100D70004E4604F12405FFF78DFC00F0A9FCFFF7B7
:100D80007FFC94F84430FF2B08BF84F8446094F84B
:100D90004530FF2B08BF84F84560FFF77BFC01A9B5
:100DA00002A800F0C1FF002840F08780FFF768FC30
:100DB000A36B002B40F0E880FFF76CFC01992846FC
:100DC00000F0BAFEFFF75CFC94F845304FFA83F967
:100DD000B9F1000F06DC15E009F1FF33DBB24FFA81
:100DE00083F97BB1636A6BB1284600F043FF0028AA
:100DF000F2D000F0D1FF09F1FF33DBB24FFA83F9F3
:100E0000002BEFD1FF2384F84530FFF743FCFFF7B9
:100E100037FC94F844304FFA83FABAF1000F1ADD28
:100E20002369C3B104F1100907E00AF1FF33DBB213
:100E30004FFA83FA7BB123696BB1484600F01AFF81
:100E40000028F2D000F0A8FF0AF1FF33DBB24FFA1E
:100E500083FA002BEFD1FF2384F84430FFF71AFC0C
:100E600000F0E2FC00287ED14FF080537B6040BF51
:100E7000BFF34F8FBFF36F8FFFF702FCD4F83890AA
:100E8000B9F1000F76D0226C52B1E1686368114469
:100E90009942E16024BF2168E160404642F065FC70
:100EA00009F1FF33A3632369002B40F0C980FFF7EA
:100EB000F1FB012004B0BDE8F087FFF7E1FB94F8F7
:100EC00045304FFA83F9B9F1000F06DC15E009F15E
:100ED000FF33DBB24FFA83F97BB1636A6BB128460B
:100EE00000F0C8FE0028F2D000F056FF09F1FF33F1
:100EF000DBB24FFA83F9002BEFD1FF2384F84530A2
:100F0000FFF7C8FBFFF7BCFB94F844304FFA83FAB5
:100F1000BAF1000F1ADD2369C3B104F1100907E02B
:100F20000AF1FF33DBB24FFA83FA7BB123696BB16D
:100F3000484600F09FFE0028F2D000F02DFF0AF195
:100F4000FF33DBB24FFA83FA002BEFD1FF2384F893
:100F50004430FFF79FFB00F067FCFFF791FBA36BAA
:100F600063B1FFF797FBFFF78BFBD4F83890B9F12B
:100F7000000F88D1019B002B7FF4FDAEFFF78AFBA9
:100F8000002004B0BDE8F087FFF784FBFFF778FB93
:100F900094F845304FFA83F9B9F1000F06DC15E0FB
:100FA00009F1FF33DBB24FFA83F97BB1636A6BB1AE
:100FB000284600F05FFE0028F2D000F0EDFE09F1B7
:100FC000FF33DBB24FFA83F9002BEFD1FF2384F814
:100FD0004530FFF75FFBFFF753FB94F844304FFABF
:100FE00083FABAF1000F1ADD2369C3B104F11009C5
:100FF00007E00AF1FF33DBB24FFA83FA7BB12369D2
:101000006BB1484600F036FE0028F2D000F0C4FE76
:101010000AF1FF33DBB24FFA83FA002BEFD1FF2343
:1010200084F84430FFF736FB00F0FEFBFFF728FBA7
:10103000D4F83890B9F1000F9CD024E700ED00E01F
:1010400004F1100000F016FE00283FF430AF054B0D
:101050004FF080525A6040BFBFF34F8FBFF36F8F86
:1010600025E700BF00ED00E0074B1A681AB19A6847
:1010700002B17047012210B403EBC20443F83210EE
:1010800060605DF8044B70473C2E012070B505464A
:101090000C461646FFF7F4FA95F84430FF2B04BFD0
:1010A000002385F8443095F84530FF2B04BF00231A
:1010B00085F84530FFF7EEFAAB6B2BB93246214687
:1010C00005F1240000F080FDFFF7DAFA95F84540BD
:1010D00064B2002C16DD6B6AA3B105F1240605E0AD
:1010E000013CE3B25CB26BB16B6A5BB1304600F0BD
:1010F000C1FD0028F4D0013C00F04EFEE3B25CB22A
:10110000002BF1D1FF2385F84530FFF7C3FAFFF735
:10111000B7FA95F8444064B2002C16DD2B69A3B1F0
:1011200005F1100605E0013CE3B25CB26BB12B693E
:101130005BB1304600F09EFD0028F4D0013C00F089
:101140002BFEE3B25CB2002BF1D1FF2385F84430D3
:10115000BDE87040FFF79EBA2DE9F84F9600804633
:1011600030460D4699460B9FFFF784F9002800F0A2
:10117000C38082464820FFF77DF90446002800F02E
:1011800092803246C0F830A0A521504642F011FBB3
:101190002A78236B84F83420043E2A781E4426F0F3
:1011A000070662B16B7884F835306B783BB1AB7869
:1011B00084F83630AB7813B1EB7884F837300A9D79
:1011C000022D28BF02254FF0000B04F1040AE5624E
:1011D000A563504684F837B0C4F83CB0FFF784F9F3
:1011E000C5F1030504F11800FFF77EF9C4F840B01B
:1011F000A561246184F844B064624A4641463046A1
:10120000FFF702FA206007B13C60FFF739FA3C4A69
:101210003C4F1368013313603B68002B3BD0DFF871
:101220001881E36AD8F800207AB3374ADFF80CC196
:101230001668DCF800E0354801252E44166005FAF2
:1012400003F203EB830342EA0E0200EB83005146F4
:10125000CCF80020FFF74CF9FFF71CFAD8F8003063
:1012600083B13A68E36AD26A9A420BD2284B4FF0B4
:1012700080525A6040BFBFF34F8FBFF36F8F284635
:10128000BDE8F88F2846BDE8F88F3A68D26A9A42DE
:1012900098BF3C60C9E73C601368012B0AD0E36A41
:1012A000DFF89480C1E75046FFF710F94FF0FF30A8
:1012B000BDE8F88F1548174E174DDFF87C80FFF713
:1012C00007F91648FFF704F91548FFF701F930460A
:1012D000FFF7FEF82846FFF7FBF81248FFF7F8F88B
:1012E0001148FFF7F5F81148FFF7F2F8104B114AD3
:1012F00016601D60E36A98E74FF0FF30C3E700BF58
:10130000E83A0020A03A0020F83A0020AC3A002049
:1013100000ED00E0003B0020143B0020C03A00201C
:10132000D43A0020343B0020603B00204C3B00209E
:10133000A83A0020A43A0020483B0020FC3A0020B4
:1013400070B504463E4EFFF79BF9002C4BD0251D8F
:101350002846FFF7F3F830B9E26A3A4902EB820314
:101360009B00CB584BB3A36A1BB104F11800FFF7E5
:10137000E5F829463448354DFFF7BAF894F844307B
:10138000012B04BF002384F84430FFF783F92B6856
:10139000E3B93368A34200D070BD2B682BBB2A4948
:1013A0002B4A09681268914247D02A4B1B68002BD0
:1013B0002CD0294B01221A6070BD284801210368F6
:1013C00001FA02F223EA02020260CCE7FFF758F9C1
:1013D000234B1A68126892B9224B4FF0FF321A6001
:1013E000FFF758F9D5E73468B1E71F4B4FF080524B
:1013F0005A6040BFBFF34F8FBFF36F8F70BD1A6845
:10140000184BD268D26852681A60E9E71249134A49
:101410000B6013680B4AB3FA83F3C3F11F0303EBAA
:1014200083039B00D0180833416849684160134426
:10143000994204BF49684160CB68336070BD00BF0A
:10144000A03A0020AC3A00204C3B0020483B002052
:10145000E83A0020F43A0020783B0020FC3A0020D3
:10146000A43A00202C3B002000ED00E080B1F8B54C
:101470001D4D2B6883420AD00446FFF701F91B4B30
:1014800062699A4205D0BDE8F840FFF703B9F8BD9C
:101490007047A36A164A9342F5D0002BF3D1271D5B
:1014A000144E3846FFF74AF8E26AD6F800C01248F0
:1014B0000123934002EB820243EA0C0300EB82001B
:1014C00039463360FFF714F82B68E26ADB6A9A4208
:1014D000D9D30A4B4FF080525A6040BFBFF34F8FB1
:1014E000BFF36F8FCFE700BFA03A00204C3B002036
:1014F000343B0020FC3A0020AC3A002000ED00E034
:101500002DE9F843F020FEF7B5FF00286CD0054622
:101510004820FEF7AFFF0446002800F08580F02247
:10152000A5210563284642F044F9206B534B6363C1
:101530000025271D00F1EC06E5623846C4E90E558A
:10154000FEF7D2FF04F11800FEF7CEFF26F00706E3
:1015500003232A4630462564A3614949246184F85F
:1015600044506462FFF750F8464B20601C60FFF760
:1015700087F8454A454E1368013313603368002BE2
:101580004AD0DFF84081E36AD8F8002072B3404ABD
:10159000DFF834C11568DCF800E03E48013515601D
:1015A00001229A4003EB830342EA0E0200EB830020
:1015B0003946CCF80020FEF79BFFFFF76BF8D8F810
:1015C00000306BB13268E36AD26A9A4208D2324B79
:1015D0004FF080525A6040BFBFF34F8FBFF36F8F01
:1015E00000F0E8FE012807D0BDE8F8833268D26A2F
:1015F0009A4298BF3460CAE7402383F31188274B8F
:1016000027494FF0FF3400220C60C8F800001A6030
:10161000BDE8F843FFF70EB834601368012B08D01B
:10162000E36ADFF8A080B2E72846BDE8F843FEF79A
:101630004DBF1848DFF894901A4DDFF88880FEF708
:1016400047FF1948FEF744FF1848FEF741FF484698
:10165000FEF73EFF2846FEF73BFF1548FEF738FF32
:101660001448FEF735FF1448FEF732FF134B144AB7
:10167000C2F800901D60E36A89E700BF49444C004E
:10168000DD190000283B0020E83A0020A03A0020A5
:10169000F83A0020AC3A002000ED00E0743B002056
:1016A0002C3B0020143B0020C03A0020D43A0020FC
:1016B000343B0020603B00204C3B0020A83A002037
:1016C000A43A0020483B0020FC3A0020003B0020C8
:1016D000024A136801331360704700BFF43A0020D8
:1016E000014B1868704700BF743B0020014B18681D
:1016F000704700BF743B0020024A13681844106012
:10170000704700BF743B00202DE9F04F3B4B1B6836
:1017100083B0002B43D13A4B1F6801371F60002F65
:101720004BD0384B01931B68BB423CD8364EDFF898
:10173000EC80DFF8ECA0DFF8EC90002526E03368C1
:10174000DB68DC68636804F1040B9F42584652D39F
:10175000FEF7F4FEA36A04F118000BB1FEF7EEFEEB
:10176000E06AD8F800200123834000EB8000134397
:1017700059460AEB8000C8F80030FEF7B9FED9F8E8
:101780000030E26ADB6A9A4228BF012533681B6891
:10179000002BD4D1019A4FF0FF33136004E01B4AB1
:1017A0001368013313600025194B1B68002B0CBF15
:1017B0002846012003B0BDE8F08F134E154B316869
:1017C000154A186830601960136801331360336874
:1017D0001B683BB90B4B01931A464FF0FF33136064
:1017E0001346A0E73368074ADB680192DB685B6851
:1017F0001360134697E7019A1360D5E7F43A002087
:10180000743B00202C3B0020A43A0020F03A00203A
:10181000783B0020A83A0020303B0020FC3A002012
:10182000AC3A0020A03A00202DE9F84FFEF728FF3F
:10183000384B1A68013A1A601C68002C5CD1364B90
:101840001B68002B58D0DFF8E8A0DFF8E8B0334F72
:10185000DFF8E490DFF8E480DBF80030012623B302
:10186000DBF80C30DC68251D04F11800FEF766FE7D
:101870002846FEF763FEE06A3A6806FA00F300EBDA
:1018800080001343294609EB80003B60FEF730FEE1
:10189000D8F80030E26ADB6A9A42DDD3CAF8006009
:1018A000DBF800300126002BDAD13CB11C4B1A6862
:1018B00012683ABB1B4B4FF0FF321A601A4D2C686E
:1018C00044B10126FFF720FF08B1CAF80060013CCF
:1018D000F8D12C60DAF8003073B1144B4FF080521D
:1018E0005A6040BFBFF34F8FBFF36F8F0124FEF7E5
:1018F000D1FE2046BDE8F88F0024FEF7CBFE20463F
:10190000BDE8F88F1A68074BD268D26852681A602F
:10191000D4E700BFF43A0020E83A0020FC3A002067
:10192000A43A00202C3B0020F03A002000ED00E01B
:10193000783B0020343B0020AC3A0020A03A002045
:1019400070B548B91D4B4FF080525A6040BFBFF38D
:101950004F8FBFF36F8F70BD194A1A4913681A4D24
:101960000133136004460E6828680430FEF7E6FD74
:1019700040B92B681549D86A0B680122824023EAD6
:1019800002030B602B68A4195C600FD2104B18681F
:1019900029680431FEF7B8FD0E4B1A68944238BF2F
:1019A0001C60FFF741FF0028CCD070BD0A4B1868BF
:1019B00029680431FEF7A8FDF3E700BF00ED00E061
:1019C000F43A0020743B0020A03A0020FC3A0020AA
:1019D000A43A00202C3B0020A83A00202DE9F84F23
:1019E000354C364E364DDFF8EC90DFF8EC80DFF802
:1019F000ECB04FF0805A14E0FEF742FEF368DF6867
:101A0000381DFEF79BFD2B68013B2B602368013BD3
:101A10002360FEF73FFE386BFEF758FD3846FEF7B1
:101A200055FD2368002BE7D1264B1B68012B06D9F7
:101A3000CBF804A040BFBFF34F8FBFF36F8F03F00D
:101A400049FFD9F80030012BD8F80030DB6A04D9FF
:101A5000002BE6D11B4B1B68E3E7002BE1D1194BB0
:101A60001B68012BDDD8184B184A1B6812689B1A9B
:101A7000012BD6D9164A136801331360D9F8003008
:101A8000012BD8F80030DB6A05D90BB90D4B1B6868
:101A9000FFF7CAFEC5E7002BFAD10A4B1B68012BE2
:101AA000F6D8094B1868094B1B68C01A0128EFD9F2
:101AB000FEF75AFEECE700BFEC3A0020603B002046
:101AC000E83A0020AC3A00202C3B0020743B002078
:101AD000F43A0020FC3A0020A03A002000ED00E09B
:101AE000104B1B68CBB91049104A0B601368104AA1
:101AF000B3FA83F3C3F11F0303EB83039B00D018F6
:101B000008334168496841601344994204BF4968F9
:101B10004160084BCA681A607047034B01221A6083
:101B2000704700BFF43A0020783B0020FC3A0020C8
:101B3000AC3A0020A03A002070B51C4D2B680C4632
:101B400003F11801FEF7E0FC194B1E682868043009
:101B5000FEF7F4FC40B92B681649D86A0B680122DD
:101B6000824023EA02030B60631C17D02B68A41980
:101B70005C600BD2104B186829680431FEF7C4FC76
:101B80000E4B1A68944238BF1C6070BD0C4B18682D
:101B90002968BDE870400431FEF7B6BC29680948E1
:101BA0000431BDE87040FEF7A3BC00BFA03A00209E
:101BB000743B0020FC3A0020A43A00202C3B00207B
:101BC000A83A00204C3B0020F8B5234D2B680C466A
:101BD00003F118011746FEF78BFC204B1E6828689E
:101BE000043047B3FEF7AAFCF0B94FF0FF342B687E
:101BF0001B49D86A0B680122824023EA02030B606A
:101C0000631C0FD02B6834195C601CD2154B18680C
:101C100029680431FEF778FC134B1A68944200D20D
:101C20001C60F8BD002FEDD0296810480431BDE8D4
:101C3000F840FEF75DBCFEF781FC0028D7D02B688A
:101C400034195C60E2D30A4B18682968BDE8F84093
:101C50000431FEF759BC00BFA03A0020743B0020BD
:101C6000FC3A0020A43A00202C3B00204C3B0020F2
:101C7000A83A0020F8B5C368DC6804F118052846C6
:101C8000FEF75CFC1A4B1B6833BB261D194D304612
:101C9000FEF754FCE26A2F6817480123934002EBD9
:101CA00082023B43314600EB82002B60FEF720FCB2
:101CB000124BE26A1B68DB6A9A4282BF104B01201A
:101CC0001860104B1A68126898BF00204AB90E4B72
:101CD0004FF0FF321A60F8BD29460C48FEF708FCA9
:101CE000E6E71A68084BD268D26852681A60F8BDF5
:101CF000F43A0020FC3A0020AC3A0020A03A002040
:101D0000783B0020A43A00202C3B0020343B0020EC
:101D1000034A044B12681B68C0E90023704700BFE8
:101D2000303B0020743B0020F8B50D460446FEF71A
:101D3000A7FC2B681649581C0A6813D0DFF854C05A
:101D4000D4E90060DCF80070BE4201D090421AD99C
:101D5000121A93420BD800232B600125FEF79AFC40
:101D60002846F8BD0025FEF795FC2846F8BDDCF8AE
:101D700000009B1A0A682B60C4E900020025FEF7E8
:101D800089FC2846F8BD0125FEF784FC2846F8BDED
:101D9000743B0020303B0020014B01221A60704749
:101DA000783B0020084B186860B9084B1B6853B992
:101DB000074A084B10681B68013B984214BF01207A
:101DC0000220704700207047343B0020783B002001
:101DD0004C3B0020E83A0020054B1B6833B1054B13
:101DE0001B68002B0CBF02200020704701207047A9
:101DF000483B0020F43A002050B1F8B5C36BC16AEB
:101E0000826B013B9142C36300D01BB10020F8BD3F
:101E100000207047071D04463846FEF78FFBC0B10F
:101E20001448154EA36BD6F800E0E3620125C3F118
:101E3000030C05FA03F203EB830342EA0E0200EB04
:101E400083003946C4F818C03260FEF751FB2846BB
:101E5000F8BDE26A0748084E02EB82039B00C358B4
:101E6000002BDFD13368012101FA02F223EA0202DA
:101E70003260D7E7AC3A0020FC3A00202DE9F0416F
:101E80002E4C06460D46FEF7FBFB23681B6C23B960
:101E90002368012783F84470B5B9FEF7FBFBFEF712
:101EA000EFFB23681D6C1DB1236856B96A1E1A64C6
:101EB0002368002283F84420FEF7ECFB2846BDE8A7
:101EC000F08100221A64F3E71D4BD3F800802068EC
:101ED0000430FEF733FB38B923681A4AD96A13680D
:101EE0008F4023EA070717606B1C19D0236815EB96
:101EF00008055D601AD2144B186821680431FEF79A
:101F000003FB124B1A68954238BF1D60104B4FF00F
:101F100080525A6040BFBFF34F8FBFF36F8FBCE753
:101F200021680C480431FEF7E3FAEFE70A4B186822
:101F300021680431FEF7E8FAE8E700BFA03A002084
:101F4000743B0020FC3A0020A43A00202C3B0020E7
:101F500000ED00E04C3B0020A83A0020F8B51D46FB
:101F600004460F461646FEF78BFB0DB1236C2B6023
:101F700094F844500223721EEDB284F84430032AD0
:101F800006D8DFE802F03C0C0402022D42D02764A0
:101F9000012D0AD00124FEF77DFB2046F8BD236CFD
:101FA000012D03F101032364F4D1261D3046FEF711
:101FB000C5FA194AE36A176818489D4003EB830382
:101FC00000EB830031463D431560FEF791FA144B58
:101FD0001A681268BAB9134B4FF0FF321A60124BED
:101FE000E26A1B68DB6A9A42D4D9104B4FF08052E8
:101FF0005A6040BFBFF34F8FBFF36F8FCAE7236CA8
:102000001F432764C4E71A68064BD268D268526837
:102010001A60E4E70024BEE7FC3A0020AC3A002056
:10202000A43A00202C3B0020A03A002000ED00E064
:102030002DE9F041EFF31186402383F31188022349
:1020400090F8445080F84430036CEDB20133012D18
:10205000036403D086F31188BDE8F081184B1B6838
:102060000F4604468BB100F118011648FEF740FAFE
:10207000154BE26A1B68DB6A9A42EBD9DFB1012398
:102080003B6086F31188BDE8F08100F1040840460A
:10209000FEF754FA0D4AE36AD2F800C00C489D409E
:1020A00003EB830345EA0C05414600EB8300156012
:1020B000FEF71EFADCE7074B01221A60CAE700BFF1
:1020C000F43A0020343B0020A03A0020FC3A0020E3
:1020D000AC3A0020783B00202DE9F04FAF4EDFF8FE
:1020E000CC82AF4D89B033681C68002C00F08C8026
:1020F000DB681C68FFF7ECFAFFF7F2FAD8F800305B
:10210000834207465BD88442C8F8000040F2C4808E
:102110000022E11B2868FEF7B9FFFFF785FB88B9AD
:10212000A04B4FF080525A6040BFBFF34F8FBFF3B8
:102130006F8F07E0019B039920469847009B002B77
:1021400080F23681286800226946FEF7FBFD0028F0
:10215000C9D0009B029C002BECDB636913B1201DEE
:10216000FEF7ECF9FFF7BCFAD8F800309842814648
:1021700041D3009BC8F80090092BE3D8012202FA52
:1021800003F313F4047F40F0D38013F0C70F40F043
:10219000A5809B06D6D52046FEF798F92868D2E799
:1021A000DB68DC68D3F800A004F104094846FEF7B8
:1021B000C5F9636A20469847E369012B36D0336836
:1021C0001A68002AECD17849C8F800700A683260B1
:1021D0000B60FFF729FBB5E7DB68DF68D3F800B0D9
:1021E00007F1040A5046FEF7A9F97B6A384698477A
:1021F000FB69012B25D033681A68002AECD16A49A3
:102200000A6832600B60B4E7FFF762FAFFF768FA1A
:10221000D8F8003098420746D1D3634BC8F8007015
:102220001B681A68B2FA82F2520972E7A369534432
:102230009A45494610D2636024613068FEF764F91C
:10224000BDE7BB695B449B45514615D27B603F614E
:102250003068FEF759F9CEE72B68002BAFD000238A
:10226000CDE9043A0694FFF7B7FD00231A4604A906
:102270002868FEF713FBA2E72B68002BBBD00023D6
:10228000CDE9043B0697FFF7A7FD00231A4604A9F2
:102290002868FEF703FBAEE7FFF7C6FA3368DB6892
:1022A000D3F80C9009F1040A5046FEF747F9D9F823
:1022B0001C30012B04D0D9F824304846984741E718
:1022C000D9F81830C9F81090E218BA42C9F80420B9
:1022D0004AD951463068FEF717F9ECE7019BA2692D
:1022E000246199182CBF012000204945616031D834
:1022F000A9EB03039A4226D8636A20469847E3690C
:10230000012B7FF41FAF019BA269286813440028AA
:102310003FF419AF0022CDE904230694FFF75CFDDA
:1023200000231A4604A92868FEF7B8FA28680AE7C5
:10233000019B246103EB09024A45A36162600DD849
:10234000002B3FF4FFAE184B211D1868FEF7DCF898
:102350002868F8E64B4501D90028CDD03068211D0A
:10236000FEF7D2F82868EEE63F1BBB4210D82B6878
:10237000002BA0D00023CDE90434CDF81890FFF74E
:102380002BFD00231A4604A92868FEF787FA92E776
:10239000054B51461868FEF7B7F88CE77C3B0020E8
:1023A000B03B002000ED00E0803B0020AC3B002073
:1023B000029CD2E6F0B5174C83B0FEF761F92568B0
:1023C0007DB1FEF767F9206848B1134B01930223F2
:1023D00000938022002311491148FEF7BDFE03B08F
:1023E000F0BD104F104E3846FEF772F83046FEF73B
:1023F0006FF80E4A0E4B176010212A4620201E60EF
:10240000FEF712FA20600028DBD00A49FEF72CFE06
:10241000D7E700BFB03B0020B43B00203852040097
:10242000D9200000843B0020983B00207C3B00200A
:10243000803B0020305204002DE9F04F804683B0ED
:1024400028200F4616461D46FEF714F8044690B1A4
:10245000DFF87490FEF714F9D9F800207AB1FEF78E
:1024600019F90C9BC4F80080C4E906762562636202
:10247000201DFEF739F8204603B0BDE8F08FDFF8E5
:102480004CB0DFF84CA001925846FEF721F85046B8
:10249000FEF71EF809490A4BC1F800B0019AC3F8CB
:1024A00000A010212020FEF7BFF9C9F80000002885
:1024B000D5D00449FEF7D8FDD1E700BF7C3B002012
:1024C000803B002030520400B03B0020843B0020C1
:1024D000983B002030B5144D2C6885B0C4B1052957
:1024E000CDE9001202900BDCFFF776FC022812D037
:1024F000002328681A466946FEF7D0F905B030BDBA
:102500001A46204600236946FEF7A2FB05B030BDFF
:10251000204605B030BD2868089A00236946FEF7BA
:10252000BDF905B030BD00BFB03B002010B504467A
:10253000FEF7A6F86469003418BF0124FEF7AAF874
:10254000204610BD10B50446FEF79AF8246AFEF73F
:10255000A1F8204610BD00BF434B1978002900F0B8
:1025600081802DE9F04F002487B001258E4603E0DD
:102570000134E4B2744560D23C4B27B21E6816F8B1
:1025800037C0ACF1200205FA02F9394ACCF1200338
:10259000D2E9000125FA03F349EA030905FA0CF828
:1025A00000EA080201EA0903134306EBC70BDFD078
:1025B00021EA09032E4920EA08026046C1E9002306
:1025C00002F038F916F837C0ACF1200205FA02F231
:1025D00001920199CCF12003C6B225FA03F3ACF1C4
:1025E0002002194306FA02F30393224B0191D3E927
:1025F0000023CDE9042305FA0CF30093CCF120016C
:10260000039B26FA01F10B43039306FA0CF30293A2
:10261000DDE90467DDE9002316401F4032463B46F2
:10262000DDE90267BB4208BFB24209D00E4B01345C
:1026300093F800E0E4B274459ED307B0BDE8F08F94
:102640009BF80110DBF80430A1F10101B1FA81F12E
:102650004909091AB1FA81F14909002BE6D060460F
:102660009847E3E7704700BFB83B0020F03B0020ED
:10267000E83B0020E03B00202DE9F84F06462448C7
:1026800000F0AAF9D8B9234F0123A6F1200103FADB
:1026900001FBC6F12002D7E9000123FA02F24BEA5E
:1026A000020B03FA06FA00EA0A0201EA0B031343DB
:1026B00007D020EA0A0421EA0B05C7E90045BDE876
:1026C000F88F304602F0B6F8134ED6E90089C8B14B
:1026D00048EA0A0349EA0B049846A146D7E90023D1
:1026E0004BEA03050D4B0A4819684AEA02044B46B7
:1026F0004246C6E90023C7E900450022BDE8F84F7D
:1027000000F008B928EA0A0829EA0B09E6E700BF41
:10271000C03B0020E83B0020E03B0020BC3B002009
:10272000042A36D92DE9F04182B00E4605461446FA
:1027300001F00AFF002836D01D491E4A1E4B0D60CD
:102740001E481F491C60167000230022741EC0E939
:102750000023C1E90023E4B2EEB105EBC404194F34
:10276000083D4FF00008032601E0AC4213D0A378E7
:1027700020788DF806803A4601A98DF804608DF81E
:10278000053001F0EBFE083C0028EED002B0BDE8B9
:10279000F081072070470C4A0C48002100F088F8AF
:1027A00002B0BDE8F08101F085FE0028C4D0EDE75D
:1027B000F03B0020B83B0020BC3B0020E03B002069
:1027C000E83B002079260000592500004052040013
:1027D00070B5084D2B785BB1074E0024336801219A
:1027E00013F8340001F0AAFF2B780134A342F5D886
:1027F000002070BDB83B0020F03B002000B585B044
:1028000000230390194601AA44F20100CDE90133E7
:1028100000F004F805B05DF804FB00BF10B572B617
:1028200001F01CFB01F0DAFA0028FBD1104B114C2F
:102830001149E41AE408240444F0010001F036F8D8
:102840000E4B1B68DB0700D500BE44F002000C49AC
:1028500001F02CF8BFF34F8F0A490B4BCA6802F402
:10286000E0621343CB60BFF34F8F00BFFDE700BFB3
:10287000F4E804000CE9040044520400F0ED00E028
:102880005052040000ED00E00400FA0510B5FFF717
:1028900059FE027B4AB1427B8168034682F0010205
:1028A00000681A73BDE81040084710BD002070474B
:1028B00070B582B004682AB3237B0BB9636813B187
:1028C000082002B070BD15460E461022194620465B
:1028D00040F06FFF002E0CBF012200220B4B6273F1
:1028E000A56014BF0122002200934FF47A712346A1
:1028F0000748FFF7A1FD0028606014BF00200E20EC
:1029000002B070BD072002B070BD00BF8D2800006E
:10291000305304002DE9F041456884B0002D54D0B7
:10292000077B77BB04460E462260EFF3058363B353
:102930000DF11008009748F8047D0A464346092126
:102940002846FFF7C7FD012803D0042004B0BDE8E6
:10295000F081FEF7CBFE009702464346284606214B
:10296000FFF7B8FD0128F0D1039B43B1194B4FF09D
:1029700080525A6040BFBFF34F8FBFF36F8F012368
:102980002373002004B0BDE8F0812846FFF7CEFD98
:1029900007460028F5D14FF0020832460346CDF82D
:1029A000008004212846FFF795FD01280646CCD17A
:1029B000FEF796FECDF8008002463B46314628469B
:1029C000FFF788FD0128DAD0BFE7082004B0BDE892
:1029D000F08100BF00ED00E0416869B310B5044626
:1029E00084B0EFF3058363B9022208460092032105
:1029F0001A46FFF76FFD01281BD10020207304B099
:102A000010BD04AB002243F8042D084600920821B3
:102A1000FFF760FD01280CD1039B002BEDD0074B85
:102A20004FF080525A6040BFBFF34F8FBFF36F8F9C
:102A3000E3E7042004B010BD0820704700ED00E07B
:102A400072B6024A1368013313607047F43B0020EA
:102A5000034A1368013B136003B962B6704700BFB5
:102A6000F43B002050E8002F0B4640E8003C9CF06F
:102A7000000FF7D11046704750E8003F03EB01020A
:102A800040E8002C9CF0000FF6D11046704700BFC4
:102A900050E8003FA3EB010240E8002C9CF0000F3F
:102AA000F6D11046704700BF012350E8002F42EADC
:102AB000030C40E800C191F0000FF6D1604670476A
:102AC000002350E800CF0CEA030240E8002191F017
:102AD000000FF6D160467047B8B130B4D0E90112AA
:102AE000521A0468D2B2531E2160DBB242B10168AF
:102AF0000A685C1E551C0D601370E3B2FF2BF6D103
:102B000003680020187130BC70470E20704700BF6A
:102B100038B504460020FFF793FFD4E900311A6866
:102B20008A4215D9511E19602168A3680868258A50
:102B300012F8012CE4681B1A0879DBB2984205FBF5
:102B4000024400D20B710020FFF782FF204638BDFF
:102B50000024F8E738B5054600200C46FFF770FF63
:102B60002A681368591C1160E9682A8A641AB4FB40
:102B7000F2F41C700020BDE83840FFF769BF00BFC9
:102B8000826842B110B504464369016800699847FC
:102B90000023A36010BD70470EB400B582B0039946
:102BA00029B102AA04AB42F8043D00F0A9F802B032
:102BB0005DF804EB03B070472DE9F04F924683B007
:102BC00051450F4605461E46DDE90CB2C0F0928025
:102BD0000B464FF00108B3FBFAF39A4508F10108E0
:102BE000F9D9B04538BFB04612F00109A96802D141
:102BF000BBF1000F54D1012402E0013E0AFB04F4B2
:102C0000012EFAD8B7FBF4F08245F7D93B4E02E02B
:102C1000A968B7FBF4F0335C2A680A2B04FB107731
:102C200002EB010E01F1010029D0A8608EF80030FE
:102C3000D5E90131994202D32846FFF7A1FFB4FB41
:102C4000FAF4002CE4D1B9F1000F15D0BBF1000F5C
:102C500012D0C34510D92024AB682A68591CA9603A
:102C6000D454D5E901329A420BF1FF3B14D2BBF1A7
:102C7000000F01D0C345EFD103B0BDE8F08FA860CD
:102C80004FF00D005054D5E9011088421DD229683B
:102C900001EB000E0130C8E72846FFF771FFE6E7B9
:102CA000930722D42024C345A5D92B684A1CAA60C7
:102CB0005C54D5E9013199420BF1FF3B10D2BBF1D5
:102CC000000F98D0C345F0D195E728460193FFF750
:102CD00057FFAA682968019B501C01EB020EA4E76C
:102CE0002846FFF74DFFA968E9E7002E0CBF302406
:102CF0002024D8E74FF0010873E700BF60520400BA
:102D0000002900F0B9822DE9F04F054687B09146C1
:102D10000C460E78DFF8C8A64FF00D0B13E0AB6839
:102D200028680A2E03F1010200EB030100F04B8238
:102D3000AA600E70D5E901329A4280F01B81267894
:102D4000002E00F01E810134002E00F01A81252E85
:102D5000E5D12346002713F8012B2D2A00F0E3804C
:102D6000302A00F0E4802B2A00F0D4802A2A00F0D8
:102D70000D81A2F13006F1B2092903D97DE2A1F15A
:102D800030060346184606EB860110F8012BA2F127
:102D90003004092C02EB4101F1D92E2A00F0028106
:102DA0004FF00008013301E013F8012B02F0FB01A2
:102DB00068291C46F8D0253A532AC0D801A353F8F5
:102DC00022F000BFAF3100003F2D00003F2D00007A
:102DD0003F2D00003F2D00003F2D00003F2D000043
:102DE0003F2D00003F2D00003F2D00003F2D000033
:102DF0003F2D00003F2D00003F2D00003F2D000023
:102E00003F2D00003F2D00003F2D00003F2D000012
:102E10003F2D00003F2D00003F2D00003F2D000002
:102E20003F2D00003F2D00003F2D00003F2D0000F2
:102E30003F2D00003F2D00003F2D00003F2D0000E2
:102E40003F2D00003F2D00003F2D00003F2D0000D2
:102E50003F2D00003F2D00003F2D00003F2D0000C2
:102E60003F2D00003F2D00003F2D00003F2D0000B2
:102E70003F2D00003F2D00003F2D00003F2D0000A2
:102E80003F2D00003F2D00003F2D00003F2D000092
:102E9000933100003F2D00003F2D00003F2D00002A
:102EA0003F2D00003F2D00003F2D00003F2D000072
:102EB0003F2D00003F2D00003F2D0000372F000068
:102EC000193100003F2D00003F2D00003F2D000074
:102ED0003F2D0000193100003F2D00003F2D000064
:102EE0003F2D00003F2D00003F2D00003F2D000032
:102EF000813000003F2D00003F2D0000F92F000021
:102F00003F2D0000DD2F00003F2D00003F2D000071
:102F10009331000047F004071C46234613F8012BA9
:102F20002D2A7FF41DAF47F001071C46F5E747F057
:102F300002071C46F1E7D9F800301A1DC9F8002035
:102F40001E78AB680A2E0CD12A68591CA96002F8B9
:102F500003B0D5E90123934203D32846FFF710FEBF
:102F6000AB682A68591CA960D654D5E901329A4247
:102F7000FFF4E5AE2846FFF703FE2678002E7FF427
:102F8000E2AE2B7B23BB07B0BDE8F08FD9F8002061
:102F9000111DC9F80010166862782E2A04F102008B
:102FA0007FF4FEAE5A78A2F13003092B00F2BD8106
:102FB0004FF0000808EB880802EB480810F8012FD2
:102FC000A2F13003092BA8F13008F3D90346E9E652
:102FD000284607B0BDE8F04FFFF7D2BDD9F8003062
:102FE0001A1DC9F8002019680197434600960A2265
:102FF0002846FFF7E1FDA2E6D9F800301A1DC9F80E
:103000000020D3F80080FB0700F1E880B8F1000F42
:1030100000F0A181404641F015F80746BE4215D99F
:10302000A6B1202100E08EB1AA682B68501CA860D0
:103030009954D5E901329A4206F1FF3604D3284665
:103040000391FFF79DFD0399BE42ECD108F1FF38D3
:1030500018F8016F002E3FF472AEAB6828680A2E94
:1030600003F1010200EB030100F09081AA600E70F1
:10307000D5E901329A42EBD32846FFF781FDE7E715
:10308000D9F80020131DC9F80030AB68296817680B
:10309000581C3022A860CA54D5E90123934280F01D
:1030A000E6802A68581C7821A860D154D5E901230C
:1030B000934280F0D7800F2F03D93A4612090F2A86
:1030C000FCD84FF080560DE0AA6081F80080D5E969
:1030D00001329A4202D32846FFF752FD36093FF4E7
:1030E0002EAEAB68B7FBF6F21AF802802868B8F18A
:1030F0000A0F06FB127700EB030103F10102E3D193
:10310000AA6000F803B0D5E901329A4280F0498103
:103110002B6899180132D7E7D9F800301A1DC9F881
:103120000020196881EAE173A3EBE173092B40F3F6
:103130000E81AA480122A0FB03C3DB08092B02F180
:103140000102F8DC4245134638BF4346039307F0BB
:103150000203002E40F09580002B00F0B780B8F1FC
:10316000000F00F0F680F80740F1B0800029C0F2AF
:10317000FF807A0700F1C88007F00303022B00F0FC
:10318000A780CDE9006743460A222846FFF714FDD1
:10319000D5E5D9F800301A1DC9F800201968019743
:1031A0004346009610222846FFF706FDC7E5AB68A8
:1031B0002A68581C2521A860D154D5E901329A42C9
:1031C000FFF4BDADD6E6AA6000F803B0D5E9013240
:1031D0009A423FD2296811440132A9E54146A1EB48
:1031E000080311F8017BD7B1AB68D5F800C00A2FEE
:1031F00003F101020CEB030000F0AF80AA6007703E
:10320000D5E901329A42EAD328460391FFF7B8FC88
:103210000399A1EB080311F8017B002FE4D19E4232
:103220007FF68DAD202702E0002E3FF488ADA9681F
:103230002A68481CA8605754D5E90121914206F13B
:10324000FF3604D328460393FFF79AFC039BB3424F
:10325000EAD174E52846FFF793FCAB6829685A1C4D
:10326000194465E52846FFF78BFCAB6823E7284641
:10327000FFF786FCAB6814E7704718460026234624
:103280008BE5002920DB7A071ED41BB1B8F1000FB3
:103290003FF46CAFF8073FF569AFBEB1039BB34293
:1032A000BFF464AF2023AA68501CA8602868835428
:1032B000D5E90102824206F1FF3640D236B1039AC7
:1032C000B242F0D1164651E7013EDEE700264DE757
:1032D000B8F1000F7FF455AF002E6AD0039BB342C4
:1032E000BFF44FAF3023AA68501CA86028688354ED
:1032F000D5E90102824206F1FF3618D2002E58D0DD
:10330000039AB242EFD13CE7AA68531CAB602B682A
:103310002B209854D5E901329A42FFF42DAF28466C
:103320000491FFF72DFC049926E7034638E528466B
:10333000CDE90413FFF724FCDDE90413DEE728469A
:10334000CDE90413FFF71CFCDDE90413B6E7012205
:10335000F8E646460AE7474660E6AA600CF803B07E
:10336000D5E901329A4226D22B689818013245E7F6
:10337000AA68531CAB602B682D209854D5E9013204
:103380009A42C1F10001FFF4F7AEC8E7AA6000F865
:1033900003B0D5E901329A4217D2296811440132AB
:1033A00064E62846FFF7ECFBA9682B684A1C194421
:1033B0008AE60026E5E628460391FFF7E1FBA868C8
:1033C0002B680399421C184418E72846FFF7D8FBDE
:1033D000AB6829685A1C194448E600BFCDCCCCCC58
:1033E00060520400FFF778BB2DE9F041058ACE1C3E
:1033F000043D2E440746B6FBF5F6FFF789FB78B38C
:10340000F6B24FF48073013E0446C58007608380A6
:1034100027D08046002509E06379AE4203F101031D
:103420006371C8F80000076080461AD03846FFF77D
:103430006FFB01350028EFD16679721E14D0234648
:10344000013082421B68FBD11F684EB10025236802
:103450002146013538461C46FFF77CFBAE42F6D1CB
:1034600000242046BDE8F0812768EFE70430012101
:10347000FFF702BBF8B5012104460430FFF708FB53
:10348000C0B200B1F8BD6679721E12D02346013079
:1034900082421B68FBD11F68002EF3D000252368F1
:1034A0002146013538461C46FFF754FBAE42F6D1A3
:1034B000F8BD2768F2E700BF2DE9F843C7884679D1
:1034C00007FB06F6043E02EB030C0446664503F1D7
:1034D000040015468846B0FBF7F238BFF51A07FB23
:1034E000120012B1013A2468FCD13E1AAE4228BF44
:1034F0002E469DB14FF000090430AD1B20443246EA
:1035000008EB090140F031F9AF42B14424683E466E
:103510004FF0000028BF2E46002DEDD1BDE8F88306
:103520002DE9F843C7884679154607FB06F6043EA1
:1035300005EB030C1A1D664504468846B2FBF7F0FE
:1035400038BFF51A07FB102110B101382468FCD1EF
:103550007E1AAE4228BF2E469DB14FF000090431BD
:103560002144AD1B324608EB090040F0FEF8AF42A3
:10357000B14424683E464FF0000128BF2E46002D7E
:10358000EDD1BDE8F88300BF8268002393608268B4
:103590001361826853618268D36082685360826875
:1035A00013607047704700BF00B583B0044B0093B1
:1035B000044A402300F036F803B05DF804FB00BF76
:1035C000C9350000FC3B002002B32DE9F843114B44
:1035D000114E8846144643F0010903270025224670
:1035E00008EB0501002002F029FA03461D444FF4C0
:1035F0007A40E41A23B9337833B1C847013F06D083
:1036000001233370002CEAD1BDE8F883704737708E
:10361000BDE8F88380520400F83B0020704700BFEB
:1036200002F026BBF0B595B0002415460F460846BB
:103630001E46FFF71BFF384623460895082205A9BA
:103640001A9D09960D950A948DF82C400C94FFF75D
:1036500067FF9DF814308DF81140DDE9061003F086
:103660000302012ACDE9020127D0022A04D03846FC
:10367000FFF700FF15B0F0BDBDF81650C3F3C2034D
:103680008DF81030AD090826082D2C4628BF0824D7
:10369000334622460EA93846FFF742FF2D1B21462E
:1036A00008AB02AA0EA8264400F094FC002DEBD132
:1036B0003846FFF7DFFE15B0F0BDBDF81460059D7C
:1036C000C6F38316C3F3C204B2000EA9384608231A
:1036D0008DF81040C5F39525FFF722FF08AB324661
:1036E00028460EA9009302AB00F0CEFB3846FFF748
:1036F000C1FE15B0F0BD00BF08B5FFF791FF042172
:10370000034800F077FB034B01225A7108BD00BF4C
:1037100024E9040000000020F0B5324C85B004F527
:103720008360FFF7C1F904F21440FFF7BDF9D4E953
:10373000013703EA0702D01C04EB800114F82000D3
:1037400010F0040044D003F1020C0E7806F00306DA
:10375000012E654635D0022E02F1030621D004EB7E
:1037600086010028F1D104EB82020133D268019274
:103770003B4004EB830302F00302012ADE6829D0F8
:10378000022A23D1BDF806309B090333360C05EB22
:1037900093051548FFF794F900B16560304605B010
:1037A000F0BD4B880CEB931307EA0302D11C03F125
:1037B000020C14F82100654604EB810100F00400BE
:1037C000CFE70B88C3F383136344EDE70026E0E7FC
:1037D0009D1CC8E7BDF80430C3F38313360C1D44A9
:1037E000D7E700BF0C3D0020204100200B4B0C48C8
:1037F00010B50022FF21C3F818249960C3E9002204
:10380000C3F8142483F82024FFF7ECFD044610B914
:103810000448FFF7B9FE204610BD00BF0C3D002054
:1038200034E90400A452040021B9124B03EBC00098
:1038300000687047104A0F49521AD20815D030B4A8
:103840000E4D2B88834212D0002303E035F823402D
:10385000844205D001339A42F8D1002030BC704731
:1038600001EBC300006830BC704710467047084643
:10387000F8E700BFF4E8040024E904007402002023
:10388000094B013903EBC00003290BD8DFE801F035
:10389000020806040220704740797047007970479B
:1038A0000420704700207047F4E804002DE9F84335
:1038B000DFF8D890074600208846D9F80840FFF77F
:1038C000BFF8D9E90132D9F80060134401339B1BDA
:1038D000012B56D809F21C4501212846FFF7CCF8E8
:1038E000FFF71AFF01462846FFF7C6F8D9E901326B
:1038F000D9F80010134401335B1A012BECD90A40AC
:10390000033205230231002049F82230C9F80010A3
:10391000FFF79EF800211C48FFF7A4F880F3100081
:10392000731C234009EB830300043440033440EA52
:103930001740D86019F8243067F3C50309F824301C
:1039400039F824306FF3891329F8243059F82420EA
:1039500068F39F221346012161F301036FF3820391
:1039600049F8242009F8243099F820341BB906E0DE
:1039700000F00EF818B1D9E900329A42F8D1BDE84A
:10398000F8833146BBE700BF284100200C3D0020F2
:103990002DE9F047914C002384B0C4F81834BFF3EC
:1039A0004F8FD4E9015605EA0602D31C04EB8301CC
:1039B00014F82330580719D527680B7803F0030350
:1039C000012B43D0022B03D14B88023505EB931515
:1039D00006EA0502D4F81804D31C04EB830128B9C5
:1039E000AF4239D914F823305B07E6D404EB8202E6
:1039F0006B1CD2680192334004EB830302F0030294
:103A0000DB680293022A05F1020700F08980012A8F
:103A100026D0D4F810543DB12B6828469B689847AF
:103A2000EB681D68002DF7D16D486E4B6E49C01ACA
:103A3000C008000440F00200FFF738FFD4E900306E
:103A4000C01A18BF012004B0BDE8F0870B8802350A
:103A5000C3F383131D44BBE7676004B0BDE8F08780
:103A6000BDF804206148C2F38313062B28BF062348
:103A700063F3891202339900ADF80420FFF7B4FC18
:103A800080460028C5D0FFF7F1FC0023082201A9D9
:103A90004046FFF711FDBDF8043013F4707F00F0CD
:103AA0009B806FF0010AAAEB050A082506EA0701C8
:103AB00003312B46042204EB81014046FFF7FCFC56
:103AC000BDF8043007F101090AEB0902C3F38313BF
:103AD00093424F4605F10405E8D8D4F81834002B7A
:103AE00064D1D4F8105465B1EB685A792846414640
:103AF000002A57D02B681B689847EB681D68002D7B
:103B0000F2D14046FFF7B6FC0020FEF799FFD4F84B
:103B100018340BB9C4F804900020FEF799FF8DE724
:103B2000BDF8063031484FEA93194D46502D28BF55
:103B3000502565F38F1305F10801ADF80630FFF746
:103B400053FC804600283FF464AF26EA070A0AF1D6
:103B5000010AFFF78BFC4FEA8A0A0023082201A919
:103B60004046FFF7A9FC55452BD9EBB2BAF1000F3F
:103B700020D006EA0701A3EB0A03033104EB81011D
:103B8000DDB2524608234046FFF796FC2A460AF16A
:103B9000080317494046FFF78FFC09F1030907EBBB
:103BA00099099AE71D68002D9ED1AAE74046FFF7C4
:103BB00061FC43E72A4608230D494046FFF77CFC99
:103BC000EBE706EA0701033104EB81012A460823EB
:103BD0004046FFF771FCE0E7B9467EE70C3D002068
:103BE0000CE90400F4E80400B052040034E90400D5
:103BF000183D00202DE9F047DFF8E4A0074600203B
:103C000091468846DAF80840FEF71AFFDAE90132F1
:103C1000DAF80060134401339B1B022B5CD80AF2D4
:103C20001C4501212846FEF727FFFFF775FD0146D9
:103C30002846FEF721FFDAE90132DAF800101344D2
:103C400001335B1A022BECD90A40033203314523BE
:103C500000204AF82230CAF80010FEF7F9FEB31C23
:103C600023400AEB830300211C48C3F80C90FEF7A5
:103C7000F9FE80F31000731C23400AEB8303000459
:103C80003440033440EA1740D8601AF8243067F310
:103C9000C5030AF824303AF82430012161F389136E
:103CA0002AF824305AF8242068F39F22134661F33F
:103CB00001036FF382034AF824200AF824309AF8AB
:103CC00020341BB906E0FFF763FE18B1DAE90032D1
:103CD0009A42F8D1BDE8F0873146B5E72841002087
:103CE0000C3D00202DE9F84F3A4C804600209346C9
:103CF0009A468946A568FEF7A3FED4E901322768F3
:103D000013440133DB1B032B61D804F21C46012151
:103D10003046FEF7B1FEFFF7FFFC01463046FEF7E6
:103D2000ABFED4E901322168134401335B1A032B43
:103D3000EDD90A40033204318523002044F82230B3
:103D40002160FEF785FEBA1CFB1C2A402B4004EBC9
:103D5000820204EB830300211F48C2F80CB0C3F8B1
:103D60000CA0FEF77FFE80F310007B1C2B4004EBC1
:103D7000830300043D40033540EA1840D86014F83E
:103D8000253068F3C50304F8253034F825300222C5
:103D900062F3891324F8253054F8252069F39F2213
:103DA0001346012161F301036FF3820344F82520D8
:103DB00004F8253094F820341BB906E0FFF7E8FD3D
:103DC00018B1D4E900329A42F8D1BDE8F88F3946EB
:103DD000AFE700BF0C3D002028410020044BD3E991
:103DE00000239A4201D0FFF7D3BD0020704700BFE7
:103DF0000C3D002030B4184DD5F8104400215CB1C2
:103E0000E3681A798A4204D116E0DB681A798A429B
:103E100012D01B68002BF8D1C3681971D5F8103483
:103E200093B1DA68C36812681A60D5F81034DB6899
:103E3000186030BC0846704701310A29DFD14FF0C5
:103E4000FF31084630BC7047C5F81004C2681360E3
:103E5000084630BC704700BF0C3D002038B5094B08
:103E6000D3F81044012583F820544CB1E3685D7108
:103E7000236820465B689847E3681C68002CF5D1EE
:103E800038BD00BF0C3D00202DE9F04784B01D4631
:103E90000C9C002394F80C802373EB8881460E461B
:103EA0001746002B40D1297A05290ED06B7AA888B5
:103EB00073BB404B53F821A00021FFF7B5FC5246DD
:103EC00003463D492046FEF767FE062F09D8DFE886
:103ED00007F0046A4249525D330049462046FEF726
:103EE0005BFE2B7A052B05D06B7A5BB933492046F4
:103EF000FEF752FE2046FEF743FE84F80C8004B025
:103F0000BDE8F0872E4A2F492046FEF745FEEDE733
:103F1000FFF7B6FC2C4B2B4953F820202046FEF728
:103F20003BFE297AA888C4E7254A00922749284AF7
:103F30002046FEF731FEB6E7D6E90410D6E90023A5
:103F40000390D6E902070291CDE9000749462046D1
:103F5000FEF722FEC5E74946D6E900232046FEF7D4
:103F60001BFEBEE7B168D6E9002320460091494612
:103F7000FEF712FEB5E7D6E90201D6E9002301916A
:103F8000009049462046FEF707FEAAE7D6E90371EE
:103F9000B068D6E900230291CDE9000749462046E2
:103FA000FEF7FAFD9DE7326849462046FEF7F4FD2C
:103FB00097E700BF345304002853040034B50400CD
:103FC00020530400B4550400C852040008530400F0
:103FD00000530400082900D970472DE9F04F1D4611
:103FE000904600232A7B2B7385B0B8F806300392E5
:103FF00007460E46002B7BD198F80810052911D0F2
:1040000098F80930B8F80400002B63D13C4B53F802
:1040100021400021FFF708FC224603463949284683
:10402000FEF7BAFDDFF8FCB0DFF8FC90002405E0F5
:104030003A5D0134FEF7B0FD082C09D0A64249468E
:104040002846F5D859460134FEF7A6FD082CF5D1CF
:104050002D49DFF8D8B0DFF8D8902846FEF79CFD50
:1040600000240CE017F804A0BAF17E0F23D92E2209
:10407000494628460134FEF78FFD082C08D0A64299
:10408000F0D8594628460134FEF786FD082CF6D1B3
:1040900098F80830052B02D098F80930A3B91B49CD
:1040A0002846FEF779FD2846FEF76AFD039B2B7331
:1040B00005B0BDE8F08F3FF021FB504452464378F5
:1040C00013F0970FD3D0D3E7114A12492846FEF7D1
:1040D00063FDE4E7FFF7D4FB0F4B0E4953F82020B4
:1040E0002846FEF759FD98F80810B8F804008DE747
:1040F000074A009209490A4A2846FEF74DFD7BE728
:104100003453040028530400F852040034B504006A
:1041100020530400B4550400C8520400085304009E
:1041200000530400F4520400EC5204003053040025
:10413000FC52040010B570B101280BD10D4C23695D
:10414000A0703BB1D3E90023012022619847236985
:10415000002BF7D110BD074CA36801226270002B21
:10416000F8D0D3E900230020A2609847A368002B71
:10417000F7D1EFE7C841002038B50A4C23786BB976
:1041800009486360A3602361E36000F0F7F8054627
:1041900000F002F901232370284638BD8525284602
:1041A00038BD00BFC84100203541000038B5154C6E
:1041B000A378054673B110B14368012098470020E9
:1041C000FEF73EFCE3680133E3600020BDE83840C1
:1041D000FEF73EBC03F0FF00FEF732FC65B122693A
:1041E00042B1954208D0134601E09D4204D01B68BD
:1041F000002BFAD12A602561E368002BE2D100F0A0
:10420000DDF8DFE7C841002038B5084C0020FEF794
:1042100017FCE368013BE360E56815B900F0E6F8D8
:10422000A5700020BDE83840FEF712BCC841002050
:104230004FF08043D3F81804C0F30040704700BF2C
:1042400038B5154C6378054673B110B1436800204A
:1042500098470020FEF7F4FB636801336360002099
:10426000BDE83840FEF7F4BB03F0FF00FEF7E8FBC3
:1042700065B1A26842B1954208D0134601E09D4263
:1042800004D01B68002BFAD12A60A5606368002B5C
:10429000E2D100F0B7F8DFE7C841002038B5084C9C
:1042A0000020FEF7CDFB6368013B6360656815B9CC
:1042B00000F0BAF865700020BDE83840FEF7C8BBD2
:1042C000C84100204FF08043D3F80C0400F00110E7
:1042D000A0F10110B0FA80F0400970470A4A0223A9
:1042E000C2F80435BFF36F8FBFF34F8FC2F80805D4
:1042F000D2F80034002BFBD00023C2F80435BFF302
:104300006F8FBFF34F8F704700E001409AB32DE9E4
:10431000F047194CA0EB01080D468E18C0004FF075
:10432000FF0E4FF0010C002708EB050222F00302FC
:1043300000F01809116815F8013BC4F804C50EFA1D
:1043400009FA21EA0A01BFF36F8FBFF34F8F03FA17
:1043500009F30B441360D4F80034002BFBD0C4F8ED
:104360000475BFF36F8FBFF34F8FAE4200F10800AB
:10437000DAD1BDE8F087704700E00140054A1379C3
:104380002BB90121106053711846117170478520B7
:10439000704700BFDC410020074B1A68D20704D4E5
:1043A000C021012283F800131A604FF080430122DC
:1043B000C3F81825704700BF00E100E010B4094BB6
:1043C000094A0021196083B01B680193019C4FF0DA
:1043D000804102200123C1F80403136003B05DF89B
:1043E000044B70470401004008000040044B0122C8
:1043F0001A604FF08042D2F81834DB03FBD47047C8
:104400000C000040074B00221A6082B01B68019329
:1044100001994FF080430122C3F804231A6002B0CF
:10442000704700BF00010040074B01221A604FF0A7
:104430008042D2F80C3403F00113B3F1011FF8D01D
:10444000024B00225A71704704000040DC410020FA
:1044500010B5154B1A6882B07AB10021134A196061
:104460001B68507900934FF080410123009CC1F8F4
:10447000083310B91168537188470D4B1A6882B11F
:1044800000221A601B6801934FF080420221074B03
:104490000198C2F808131B68012002B0BDE8104063
:1044A000184702B010BD00BF00010040DC410020F1
:1044B0000401004030B5204C94F86A5083B0002DC0
:1044C00036D14FF0FF332946062204F16400C4E9D7
:1044D0000033C4E90233C4E90433C4E90633C4E950
:1044E0000833C4E90A33C4E90C33C4E90E33C4E920
:1044F0001033C4E91233C4E91433C4E91633236614
:104500003FF057F90D4A0E4B0E491D60C02082F84E
:104510000603402010601B68019301984FF0004390
:104520000122284684F86A20C1F8043303B030BD64
:10453000082003B030BD00BFE441002000E100E0EE
:104540007C61004000600040034B93F86A0000303B
:1045500018BF0120704700BFE4410020F0B5744B44
:104560001C1894F93050002D6ADA8E78C6F3400694
:104570009646002E5ED11D6A013500F0C4800924E4
:104580000C2553F8247001375DD004F1010C53F869
:104590002C70013700F0C280A71CAF4248D253F8FC
:1045A0002720013200F0BC8004F1030CAC453FD25F
:1045B00053F82C70013700F0B18004F1040CAC45C5
:1045C00036D253F82C70013700F0A88004F1050CA6
:1045D000AC452DD253F82C70013700F09F8004F1C8
:1045E000060CAC4524D253F82C70013700F09680AD
:1045F00004F1070CAC451BD253F82C70013700F0C6
:104600008D8004F1080CAC4512D253F82C700137A0
:1046100000F0848004F1090CAC4509D253F82C70E9
:1046200001377BD00A34AC4202D2DC6A013409D0B3
:104630000420F0BD1D68013574D001240825A0E7D1
:104640000820F0BD0B241F1865B243F824E087F85A
:104650003050002E5ED08A7854071AD4D60741D441
:104660001F284A7887BF334E00F01F0404464FF0DE
:10467000A04604F5E074920046F824202E4EC408AB
:1046800000F0070C375D012202FA0CF23A43325572
:104690008A780C7812F0020209D1083D2B441046AA
:1046A00093F8602042EA841483F86040F0BDAB00C8
:1046B00003F1804303F5C0430202D3F8101521F43F
:1046C0004F3121F44071C3F810152404D3F81015AC
:1046D00004F4403402F47C5222430A43C3F8102508
:1046E0000020F0BD1F2887BF124A00F01F040446B7
:1046F0004FF0A04202EB8402D2F8004724F00204FB
:10470000C2F80047BAE7082684F83060C3F820E012
:10471000354634461C4484F858009CE7644692E7CA
:104720003C4690E700251A6084F8305093E700BFBC
:10473000E4410020000300504842002070B43A4D8C
:104740002E1883B096F93030072B20DD2B4493F8D8
:1047500058309B09032B45D0012B14BF4FF4403137
:104760004FF400311F284DD900F01F002F4B03EBF1
:104770008000D0F8002722F44032C0F80027D0F89B
:1047800000370B43C0F8003703B070BC7047DAB293
:10479000072AF9D8980000F1804000F5C04003F1E5
:1047A0004002D0F81045920092B244F0010402F1A8
:1047B0008042C0F8104502F5C04200200190019CE3
:1047C00010600029E0D096F9302055F82220002A08
:1047D000DAD00122164902FA03F3C1F8043303B018
:1047E00070BC70471F2810D9104BD3F8103500F05B
:1047F0001F00C34013F0010F0CBF4FF400314FF402
:104800004031B3E74FF0A043B1E74FF0A042134669
:10481000D2F81025C24012F0010F14BF4FF44031FE
:104820004FF40031A3E700BFE44100200003005033
:10483000006000401F288ABF054B4FF0A04300F0E6
:104840001F00D3F8103523FA00F000F00100704784
:10485000000300502DE9F047002388B0CDE9023372
:10486000CE4A1668012E00F03B821E46CC4B1A68D9
:10487000012A00F02782CB4B1A68012A00F014822B
:10488000C94B1A68012A00F00182C84B1A68012A34
:1048900000F0EE81C64B1A68012A00F0DB81C54B9F
:1048A0001A68012A00F0C881C34B1A68012A00F077
:1048B000B581C24B1A68012A0FD100221A601B6809
:1048C00001934FF0A042019BD2F81025BC4B0292FD
:1048D000D3F81035039346F0004616F0FF0F1AD0B8
:1048E000B84F00240125A30003F180432E4203F5B5
:1048F000C0434FEA45050BD0D3F8100557F82420E4
:10490000D3F81015C0F30520C1F3014102B190475F
:104910000134082CE7D1002E02DB08B0BDE8F08797
:10492000A84CA74F4FF0FF33CDE9063394F9603020
:104930000DF1100800225D1CC8F8042004924FF00D
:10494000010600F0F4805FFA83FC2CF0C00008AB95
:104950004FEAD00903EB090E0CF007031EF8082CF0
:1049600006FA03F312EA030521D022184FEA9C113C
:1049700092F9302054F82220002A00F029810329DE
:1049800000F028811F2800F2F98005464FF0A04C66
:104990000CEB850C1EF8185CDCF800E71D40CEF32C
:1049A000014E40F0DF80BEF1030F00F0BF8194F9AB
:1049B0006130581C32D0DBB223F0C00008AA4FEAA5
:1049C000D00E02EB0E0C03F007011CF8082C06FABF
:1049D00001F912EA090F21D02218990992F9302021
:1049E00054F82220002A00F0FB80032900F0FB800D
:1049F0001F2800F2E98003464FF0A04E0EEB830320
:104A00001CF818ECD3F800C71EEA090FCCF3014CD0
:104A100040F0B880BCF1030F00F0AE8194F9623031
:104A2000591C30D0DBB223F0C00008AA4FEAD00EE8
:104A300002EB0E0C03F007011CF8082C06FA01F932
:104A400012EA090F1FD02218990992F9302054F860
:104A50002220002A00F0D880032900F0D8801F28E7
:104A60007CD803464FF0A04E0EEB83031CF818ECE5
:104A7000D3F800C71EEA090FCCF3014C64D1BCF196
:104A8000030F00F0658194F963305A1C34D0DBB217
:104A900023F0C00008AA4FEAD00E02EB0E0C03F080
:104AA00007021CF8081C06FA02F2114224D004EB9B
:104AB0000009990999F9309054F82990B9F1000F3B
:104AC00000F09880032900F098801F288BBFBE4615
:104AD0004FF0A04E03F01F0303460EEB83031CF8B8
:104AE00018ECD3F800C71EEA020FCCF3014C20D11A
:104AF000BCF1030F00F00181002D3FF40EAF4FF029
:104B0000A0430299D3F81035D7F81025994203D164
:104B1000039991423FF401AFDDE90401CDE902328E
:104B200094F960305D1CCDE906017FF40CAF0025DF
:104B30003DE7BCF1020FDFD1032900F03481B9F168
:104B4000000F40F0F180D7E7BCF1020F9BD10329A1
:104B500000F02681002A96D0904794E703F01F03C7
:104B6000BE4681E7BEF1020FE1D1032900F02181A9
:104B70000025002A3FF41BAF904718E70CF01F05F3
:104B8000BC4605E7BCF1020F7FF448AF032900F0F3
:104B90000D81002A3FF442AF90473FE7006100409B
:104BA00004610040086100400C6100401061004059
:104BB00014610040186100401C6100407C610040AD
:104BC00000030050E441002003F01F03BE4615E738
:104BD0000329ACD118F809501D4308F80950D1E653
:104BE00003297FF41BAF18F80EA04AEA090A08F857
:104BF0000EA0FDE603297FF47FAF18F80EA04AEA65
:104C0000020A08F80EA060E703297FF43CAF18F809
:104C10000EA04AEA090A08F80EA020E7664AD2F870
:104C2000042317067FF545AE00221A601B68009327
:104C3000009B46F080063CE65F4AD2F80423520609
:104C40007FF532AE00221A601B680093009B46F08D
:104C5000400629E6584AD2F8042391067FF51FAE94
:104C600000221A601B680093009B46F0200616E69F
:104C7000514AD2F80423D0067FF50CAE00221A6008
:104C80001B680093009B46F0100603E64A4AD2F8E0
:104C9000042314077FF5F9AD00221A601B68009306
:104CA000009B46F00806F0E5434AD2F80423550776
:104CB0007FF5E6AD00221A601B680093009B46F06A
:104CC0000406DDE53C4AD2F8042397077FF5D3AD0F
:104CD00000221A601B680093009B46F00206CAE59A
:104CE0003549D1F8041311F0010104D013601368A1
:104CF0000093009BBAE50E46B8E503297FF41FAF89
:104D00004FF4003CD3F8002722F44032C3F80027C8
:104D1000D3F80027013542EA0C02EDB2C3F80027B0
:104D2000B9F1000F3FF4EBAEC847E5E603297FF485
:104D300020AF4FF40035DCF8003723F44033CCF8D3
:104D40000037DCF800372B43CCF80037012510E79B
:104D500003297FF4FFAE4FF4003ED3F800C72CF4D4
:104D6000403CC3F800C7D3F800C701354EEA0C0C2D
:104D7000EDB2C3F800C7EDE603297FF40AAF4FF4A4
:104D8000003ED3F800C72CF4403CC3F800C7D3F86A
:104D900000C701354EEA0C0CEDB2C3F800C7F8E6C7
:104DA0004FF4403ED9E74FF4403CABE74FF4403E70
:104DB000E7E74FF44035BEE7006000400220FBF714
:104DC000FFBA00BF2DE9F0470D460646FBF712FB80
:104DD00003281ED8012D04461DD00ED3022D18D154
:104DE0001B4B00EB40041C44657895B1194B1B68C4
:104DF0007BB12846BDE8F04718471748FDF7ECFDA2
:104E0000134B164A04EB44010B44125D9D78AA42F1
:104E1000EBD0BDE8F0870E4F4FEA400808EB0003E7
:104E2000FA18FD5C53782BB9A04447440B4BBA7871
:104E30001A55DAE7DFF8289007484A464FF48061B0
:104E4000FDF768FD0028EFD189F80060ECE700BFAE
:104E5000B4420020C842002074420020D04200200A
:104E60005042002010B50078FBF7C4FA03280BD895
:104E7000064B00EB40001844407828B1044B1B68F7
:104E800013B1BDE81040184710BD00BFB442002068
:104E9000C8420020AE4B1B68DB0700D4704770B5DA
:104EA000AC4DAD4E2B7834786BB1AC4B1B780020F9
:104EB0002870002B44D0FBF743FA0120FBF740FA9F
:104EC0000320FBF73DFA172C39D8DFE814F0AE00C9
:104ED000EB00EB00D300FF00C2000A01E50049002F
:104EE0003C0049003C005900180018001800180048
:104EF00018005E006F008300970055005500984829
:104F0000FDF76AFDD4F11104024600F0F680002896
:104F100040F0F380012C0CD04FF4483101FB04F138
:104F2000904B8F4801F5FA71A3FB01318909FDF718
:104F3000F1FC0220FBF7F0F9884B01221A7070BDDA
:104F4000FBF712FABFE7012318462B70FBF738FA7C
:104F500000224FF400718448BDE87040FDF7DABCD0
:104F6000012318462B70FBF72BFA002266217E489E
:104F7000BDE87040FDF7CEBCFBF70CFA347070BD95
:104F8000FBF708FA0C23337070BD744B1B78002BB1
:104F900000F0BD800020FBF7D3F90120FBF7D0F92A
:104FA0000320FBF7CDF91223337070BD6B4B1B78D8
:104FB000002B00F0AF800020FBF7C2F90120FBF7C7
:104FC000BFF90320FBF7BCF90020FBF7A5F9132379
:104FD000337070BD614B1B78002B00F0A98000205E
:104FE000FBF7AEF90120FBF7ABF90320FBF7A8F9BB
:104FF0000120FBF791F91423337070BD574B1B78D8
:10500000002B00F081800020FBF79AF90120FBF7CC
:1050100097F90320FBF794F90020FBF77DF90120B5
:10502000FBF77AF91523337070BD4C4B1B78002BBE
:1050300000F085800020FBF783F90120FBF780F961
:105040000320FBF77DF94848FDF7C6FC00233370C9
:1050500070BD0020FBF74CF900285ED00020FBF764
:105060006FF9052333700022CD213F48BDE8704021
:10507000FDF750BC0020FBF73BF900285BD0002077
:10508000FBF75EF940F233310323337000223648D8
:10509000BDE87040FDF73EBC0020FBF73DF907235B
:1050A000337070BD0020FBF723F9C8B30020FBF775
:1050B00047F9022C40F2337118BF4FF4805134701D
:1050C00000222948BDE87040FDF724BC0020FBF712
:1050D0000FF9B8B30020FBF733F94FF480510423E4
:1050E000D3E70020FBF76CF906233370002266211A
:1050F0001D48BDE87040FDF70DBC0220FBF720F90C
:10510000164B00221A7070BDFBF72EF984E7FBF7EF
:105110002BF948E7FBF728F956E7FBF7FDF8A0E77E
:10512000FBF7FAF8022C14BF4FF4CD71CD21C6E77E
:10513000FBF71AF95CE7FBF7EFF8CD21A4E7FBF7E3
:1051400013F980E7FBF7E8F84FF4CD71C7E700BF2C
:10515000C0420020C4420020CC4200205142002026
:1051600054420020D34D621094420020B84B1A687C
:1051700012F0010201D11046704730B5B54D2B78C1
:1051800083B0044663B1B44B1B780020287023B36E
:10519000FBF7D6F80120FBF7D3F80320FBF7D0F894
:1051A000172C00F25381DFE814F0BC00E100E100AD
:1051B000FE00D1000E01F4001D0129001B00290092
:1051C0001B0068006F006F006F006F006F0093009E
:1051D000A6003100490062006200FBF7C5F8DFE776
:1051E000012318462B70FBF7EBF800224FF40071F7
:1051F0009A4803B0BDE83040FDF78CBB0123184648
:105200002B70FBF7DDF800226621F1E7924B1B784B
:10521000002B00F003810020FBF792F80120FBF740
:105220008FF80320FBF78CF80120FBF775F88C4B07
:1052300014221A700022104603B030BD864B1B7832
:10524000002B00F0EE800020FBF77AF80120FBF73E
:1052500077F80320FBF774F80020FBF75DF80120D6
:10526000FBF75AF87E4B15221A700022E3E7FBF792
:1052700091F87B4B00221C70DDE7FBF78BF8784B35
:105280000C221A700022D6E77648FDF7A5FB0246ED
:10529000D4F1110000F0AE80002A40F0AB8001286C
:1052A0000DD04FF4483101FB00F16F4B6D4801F513
:1052B000FA71A3FB01318909FDF72CFB024602209C
:1052C0000192FBF729F8644B019A01211970B2E7AA
:1052D000614B1B78002B00F09E800020FBF730F81C
:1052E0000120FBF72DF80320FBF72AF85C4B122274
:1052F0001A7000229FE7584B1B78002B00F0838028
:105300000020FBF71DF80120FBF71AF80320FBF73C
:1053100017F80020FBF700F8514B13221A700022F7
:1053200089E74D4B1B78002B7ED00020FBF708F857
:105330000120FBF705F80320FBF702F84748FDF7CB
:105340004BFB474B00210246197074E70020FAF727
:10535000CFFF00285AD00020FAF7F2FF4FF4805117
:105360003F4B3E48042400221C7042E70020FAF71D
:10537000BFFF00285FD00020FAF7E2FF022C40F2C6
:10538000337118BF4FF48051354B34481C700022E4
:105390002FE70020FBF714F8314B30480624002299
:1053A00066211C7025E70020FAF7A2FF00283ED0F6
:1053B0000020FAF7C5FF40F23331294B2748032478
:1053C00000221C7015E70020FAF792FF00283AD05F
:1053D0000020FAF7B5FF224B204805240022CD21FA
:1053E0001C7006E70020FAF797FF1D4B07221A7082
:1053F000002220E702200192FAF7A2FF164B019A41
:105400000021197017E7FAF7AFFF82E7FAF784FF78
:105410004FF4CD71A4E7FAF7A7FF67E7FAF7A4FF07
:1054200002E7FAF7A1FF17E7FAF79EFF86E7FAF718
:1054300073FFCD21C1E7FAF76FFF022C14BF4FF4C1
:10544000CD71CD21A0E7FAF767FFC4E70022F2E6AD
:10545000C0420020C442002051420020944200205B
:10546000CC42002054420020D34D621038B5234B6B
:10547000234A19608307106000F0010503D4C5B901
:105480002C46204638BD1F4B1F480E240F221021EA
:105490001C701124DA7099715C7233220421FDF7BB
:1054A0003FF90446B8B115B10120FAF7B5FF20461F
:1054B00038BD0120FAF7B0FF144A15480021FDF766
:1054C000F7F904460028F2D1124A13480121BDE839
:1054D0003840FDF7EDB9FDF77BF904460028E2D12D
:1054E00001460E4A0E48FDF7E3F90446002DDED0D2
:1054F0000120FAF791FF002CD9D1DDE7C842002046
:10550000C0420020B4420020B8530400954E000071
:10551000E0530400BD4D0000D8530400654E000068
:10552000DC53040008B51B78802B00D008BD0D4B60
:10553000072201201A70FAF7DBFE58B9FAF7ECFEE1
:105540000120FAF7E9FE0022CD210748BDE8084016
:10555000FDF7E0B90020FAF7F3FE0120FAF7F0FEBC
:10556000F1E700BF0443002008430020420700D4B5
:10557000704708B508461EF0FEFD88B1831E022B59
:105580000A4A06D9062313701846BDE80840FFF7FB
:10559000EDBD072313701846BDE80840FFF7E6BDD0
:1055A000024A1070BDE80840FFF7E0BDF542002058
:1055B00008B51B4B1B78032B25D8DFE803F01F1120
:1055C00007020120BDE80840FAF7A6BE0120FAF75D
:1055D000F7FE002266211348BDE80840FDF79AB99E
:1055E0000120FAF785FE78B90120FAF795FECD2162
:1055F00000220C48BDE80840FDF78CB90120BDE849
:105600000840FAF79DBE08BD0120FAF799FE40F266
:10561000333100220348BDE80840FDF77BB900BFE5
:10562000F4420020D442002008B52A4A1378013BF6
:10563000DBB213707BB10120FAF75AFE98B9FAF782
:105640006BFE0120FAF768FE0022CD212248BDE85A
:105650000840FDF75FB9214B1B78032B0DD8DFE81D
:1056600003F0121B2B090020FAF76AFE0120FAF75B
:1056700067FEE9E70120FAF74FFE194B1878BDE8FD
:105680000840FFF773BD0120FAF75AFE144B187853
:10569000BDE80840FFF76ABD0120FAF729FEA0B176
:1056A0000120FAF74DFE40F2333100220D48FDF79C
:1056B00031F90028E1D008BD0120FAF781FE00226F
:1056C00066210848FDF726F9F3E70120FAF724FEE2
:1056D000CD21EAE70443002008430020F4420020E3
:1056E000F5420020D442002070B5134A134E144BEB
:1056F00000242146147005460C2230461C703EF0F2
:1057000058F821460F4B104A10483360FDF7D0F887
:10571000044628B901460E4A0E48FDF7C9F804466A
:105720002A460D49284609F0DDFF2846034909F0BD
:105730002CFF204670BD00BFF5420020F84200203B
:10574000F442002025550000B1550000E453040048
:1057500029560000E85304006D55000010B54FF0C5
:10576000A044D4F80435DA4302F4803203F48033E1
:10577000C4F808254FF4EC70C4F80C35FCF7E0F8D9
:10578000EFE700BF10B54FF0A044D4F80435DA437A
:1057900002F4004203F40043C4F8082540F2AB10C1
:1057A000C4F80C35FCF7CCF8EFE700BF08B5FEF7FE
:1057B00015FB0028FBD1FBF7C3FDF8E708B500F0A7
:1057C0006BFE4FF0FF310120FCF758FBF7E700BFFD
:1057D000112800D07047012000F05ABD430770B572
:1057E00005460C4610D420461EF0C5FC0B4C0C4B55
:1057F0000C49E41AE408240403462A4644F0030052
:10580000BDE87040FEF76EBA08461EF0B4FC0238E0
:105810000228E8D9002000F03BFDE4E7F4E80400AA
:10582000F4E8040010540400312870B51ED032286A
:1058300002D0302803D070BD00F078FDB0B1104E1A
:105840004FF0A0447068FBF77BFD00254FF4004348
:10585000B068C4F80835C4F80C55FBF771FD4FF477
:105860008033C4F80835C4F80C5570BD044C60682A
:10587000FBF7FCFDA068BDE87040FBF7F7BD00BF7B
:1058800028430020044B186820B100231946022247
:10589000FCF764BB704700BF284300200A4B186820
:1058A00080B110B5094C2146FCF7C2FB236843B117
:1058B000074B4FF080525A6040BFBFF34F8FBFF38A
:1058C0006F8F10BD704700BF284300203843002071
:1058D00000ED00E0024B186808B1FBF7C7BD704748
:1058E0003443002000B54FF4004187B00020FDF79D
:1058F0007DFF00287ED1FDF7FFFEFEF73DFC00286E
:1059000075D1FCF7D3FF00286ED10023012203A834
:10591000CDE9033305938DF80E2000F00DFD00F066
:10592000AFFD364800F0CAFD354B1B68ADF80C30B2
:1059300003A81B0C8DF80E3000F042FC3149032007
:10594000FFF794FD00284CD100F0B2FDFFF7CCFE2C
:10595000002843D12C4800F0E3FC2C4B0193022398
:1059600000934FF40062002329492A48FBF7F4FB17
:10597000012802D00420FCF741FF274B01930123AB
:1059800000934FF48072002324492548FBF7E4FB81
:10599000012802D00420FCF731FF224B01930123A0
:1059A00000933C22002320492048FBF7D5FB012827
:1059B00002D00420FCF722FF1D4B0193012300932A
:1059C0003C2200231B491C48FBF7C6FB012802D0E0
:1059D0000420FCF713FFFBF793FDFEE7FCF70EFF37
:1059E000B8E7FCF70BFFAFE7FCF708FF8DE7FCF724
:1059F00005FF86E7FCF702FF7DE700BFDD570000EB
:105A0000EC530400D157000029580000284300201F
:105A1000F0530400BD57000034430020F453040049
:105A2000AD5700002C430020FC53040085570000B4
:105A300030430020045404005D5700002DE9F84F66
:105A40004400DFF85CB126180BEBC6068146F76A06
:105A5000012F8A46904667D03DD3022F30D100F106
:105A6000010909EB4909756A4FEAC9090027B36AB8
:105A7000346AAB4203F1FF329CBF1B1903F1FF33C1
:105A8000A4EB05048CBF531B5B1B0BEB09024445C5
:105A900028BF44469C42506828BF1C4628445146B3
:105AA00022463DF062FE336A25449D422744A8EB1E
:105AB0000408A24408D07562B8F1000FD7D100E005
:105AC00000273846BDE8F88F00231D467362B8F101
:105AD000000FCCD1F5E7B36A756AAB429CBF326A5E
