:020000040000FA
:10000000982E0020F5030000FD03000015020000FB
:1000100001040000030400000504000000000000CB
:1000200000000000000000000000000007040000C5
:1000300009040000000000000B0400000D04000093
:10004000C30800000F040000D50A00000F040000E0
:100050000F0400000F040000D90400000F0400008A
:100060000F0400000F0400000F0400000F04000044
:100070000F0400000F0400000F0400000F04000034
:100080000F040000D10800000F0400000F0400005E
:10009000F50800000F0400000F0400000F0400002A
:1000A0000F0400000F0400000F0400000F04000004
:1000B0000F0400000F04000000000000000000001A
:1000C0000F0400000F0400000F0400000F040000E4
:1000D0000F0400000F0400000F040000E10A0000FC
:1000E0000F0400000F0400000F04000000000000D7
:1000F000000000000F040000000000000F040000DA
:1001000000000000000000000000000000000000EF
:1001100000000000000000000000000000000000DF
:1001200000000000000000000000000000000000CF
:1001300000000000000000000000000000000000BF
:1001400000000000000000000000000000000000AF
:10015000000000000000000000000000000000009F
:10016000000000000000000000000000000000008F
:10017000000000000000000000000000000000007F
:10018000000000000000000000000000000000006F
:10019000000000000000000000000000000000005F
:1001A000000000000000000000000000000000004F
:1001B000000000000000000000000000000000003F
:1001C000000000000000000000000000000000002F
:1001D000000000000000000000000000000000001F
:1001E000000000000000000000000000000000000F
:1001F00000000000000000000000000000000000FF
:10020000DFF80CD000F038F9004800477D2E0000E0
:10021000982E0020094B1EF0040F1CBFEFF309803D
:100220001847EFF308800649064A884201D89042F1
:1002300002D88D464FF00000184700008D060000E0
:10024000982E0020980E002030B450E8012F93B271
:10025000C48923448489A34228BF1B1B0489A34269
:1002600002BFBFF32F8F002007E0C3EA020340E87C
:100270000134002CE9D14FF001000A6030BC704716
:1002800050E8012FC2EA024240E801210029F7D1DB
:10029000704730B450E8022F1FFAA2F3C488A3427B
:1002A00002BFBFF32F8F00200DE0C489234484894F
:1002B000A34228BF1B1BC2EA034340E80234002CC0
:1002C000E8D14FF001000A6030BC704750E8022FBF
:1002D000C2EA224240E802210029F7D170470346D2
:1002E00053E8022FD988B2EB324F4FF0000017BF0E
:1002F00092B241EA014142EA014104E05A68B2EB9C
:10030000324F08BF012043E80212002AE8D17047AB
:1003100030B4044654E8000F0D4644E80053002B67
:10032000F8D1156030BC704730B4044654E8000F73
:1003300040EA010544E80053002BF7D1156030BCBA
:10034000704730B4044654E8000F00EA010544E861
:100350000053002BF7D1156030BC704730B4044611
:1003600054E8000F80EA010544E80053002BF7D160
:10037000156030BC704730B4044654E8000F00EB01
:10038000010544E80053002BF7D1156030BC7047DD
:1003900030B4044654E8000FA0EB010544E80053D4
:1003A000002BF7D1156030BC704770B404464FF095
:1003B000000054E8006F0D68AE4207BF44E8002318
:1003C000012044E800630E60002B1CBF0020F0E712
:1003D00070BC704730B4044654E8000F88422CBF0C
:1003E000451A054644E80053002BF5D1156030BC92
:1003F000704700000648804706480047FEE7FEE7D2
:10040000FEE7FEE7FEE7FEE7FEE7FEE7FEE7FEE7C4
:10041000F9080000010200000048704788650000EC
:1004200040EA01039B0703D009E008C9121F08C076
:10043000042AFAD203E011F8013B00F8013B521EF6
:10044000F9D27047D2B201E000F8012B491EFBD26D
:1004500070470022F6E710B513460A4604461946CF
:10046000FFF7F0FF204610BD421C10F8011B0029C9
:10047000FBD1801A70470000064C074D06E0E0688B
:1004800040F0010394E8070098471034AC42F6D3DB
:10049000FFF7BAFE786B0000986B000030B58C183F
:1004A00010F8012B12F00F0301D110F8013B1209D3
:1004B00006D110F8012B03E010F8015B01F8015B95
:1004C0005B1EF9D101E001F8013B521EFBD1A142B4
:1004D000E6D3002030BD00002DE9F04F00268DB09E
:1004E000DFF8A081B14604964FF4807501243746A9
:1004F0000596284603F0D6FD38B1D8F8040320420B
:1005000003D0284603F0C4FD26432D1D64007F1C44
:10051000ADB2082FEDD34FF4BE74204603F0C2FDF8
:1005200048B1204603F0B4FD46F0004604AA02217B
:10053000002003F097FD544C16F0FF0F15D0012753
:10054000002537420DD008EB8501D1F81005D1F810
:100550001015C0F3052054F82520C1F3014102B164
:1005600090477F006D1C082DEBD3002E7EDA002013
:10057000CDF82890411E0DF1100B07AACDF82C9054
:1005800042F82010401C91460228F9D300252E463F
:10059000A11911F8607F91F9000027F0C008401CF4
:1005A00040D007A9404602F0F8FD40B34FEA971A41
:1005B000404601F0A5FF54F820701FB1BAF1030FB7
:1005C00003D006E0BAF1030F2CD10AA9404602F08D
:1005D000ECFD02A8CDF8088003F0F2FC029900EBD4
:1005E0008100D0F8000704A9C0F301400290404602
:1005F00002F0D3FD0028029802D0022802D011E0B8
:1006000003280FD1BAF1030F08D10298022833D082
:100610000221404603F0ADFC6D1CEDB217B151460E
:100620004046B847761C042EB2D3002D21D001AA33
:100630000221002003F016FD00205A460DF10401AE
:1006400052F8206051F82030B34217D000200AAE93
:100650004FEA090351F8207042F8207056F82070D4
:1006600043F82070401C0228F4D300E001E0002D84
:100670008CD10DB0BDE8F08F0321CAE7401C0228E1
:10068000DED3F6E700600040800500201CB58146FF
:1006900003F0B0FF03F0ECFD0028FBD12D485FEA2A
:1006A000090507682C482D494FF00106A0EB010011
:1006B0004FEAD00006EB004417D0204628A1AA69D3
:1006C00003F0F2FED5E90201CDE90001D5E90023EE
:1006D000204629A103F0F8FEE8690090D5E904233B
:1006E000204633A103F0E7FE03E020463AA103F0E1
:1006F000D7FE1848001D0068800703D520464349EF
:1007000003F0CEFEDFF80881002500BF06FA05F0F1
:10071000384206D058F825201AB120463DA103F0F2
:10072000C3FE6D1C1A2DF1D3380606D509480C30CE
:10073000026820463AA103F0B7FE380406D5054802
:100740001030026820463EA103F0AEFE484600F09D
:1007500085F8000028ED00E0F06B0000A86B0000B9
:1007600048415244204641554C5420617420307811
:100770002530385800000000202052303A20203028
:100780007825303858202052313A202030782530D2
:100790003858202052323A202030782530385820DE
:1007A0002052333A2020307825303858000000009D
:1007B00020205231323A2030782530385820204CD1
:1007C000523A202030782530385820205053523A61
:1007D0002030782530385800537461636B20766977
:1007E0006F6C6174696F6E3A20737461636B207013
:1007F0006F696E746572206F7574736964652073B8
:100800007461636B20617265612E00006466000094
:10081000E000002043617573653A2025732E0000C7
:100820004D656D4D616E616765204661756C742024
:10083000416464726573733A20307825303858000B
:10084000427573204661756C7420416464726573EF
:10085000733A20307825303858000000BFF34F8FAE
:1008600005480168054A01F4E06111430160BFF3E6
:100870004F8F00BFFDE700000CED00E00400FA051B
:1008800000F01F02012191404009800000F1E020AA
:10089000C0F88012704700F01F020121914040090A
:1008A000800000F1E020C0F80011704700F01F0246
:1008B000012191404009800000F1E020C0F80012C1
:1008C000704710B504F0F8F8BDE8104004F088B89F
:1008D00007480021C0F84011C0F84411C0F8481181
:1008E000C0F84C11C0F80011C0F8041104F068BF42
:1008F0000010014004F0D6BE30B54FF08050002209
:100900008300D0F83011C3F80C21C3F81021624BDA
:100910001A60624B1B68624C2360604B1B1D1B6896
:10092000241D23605D4B08331B68241D23605B4B33
:100930000C331B68241D2360584B10331B68241D87
:100940002360564B14331B68241D2360534B18330C
:100950001B68534C20342360504B1C331B68241DF0
:1009600023604E4B20331B68241D23604B4B2433E4
:100970001B68241D2360494B28331B68241D2360FA
:10098000464B2C331B68241D2360444B30331B68BB
:10099000434C40342360414B34331B68241D236097
:1009A0003E4B38331B68241D23603C4B3C331B6893
:1009B000241D2360394B40331B68241D2360012410
:1009C000082902D1D0F8343113B1082904D006E047
:1009D000354B3449196005E0D0F8343113B108299A
:1009E00004D006E0314BFB21196005E0D0F834312A
:1009F00013B1082908D00EE090F858322C4801684D
:100A000063F30301016002E0D0F834311BB92949D6
:100A10004FF40070086028480168C90702D06FF0E1
:100A2000010101602548016841F470010160BFF3D4
:100A30004F8FBFF36F8F4FF01021D1F800020028C5
:100A400003DBD1F80402002822DA1D4B1C601D488C
:100A50000468002CFCD01224C1F800420568002D67
:100A6000FCD0C1F8044201680029FCD01A6001687A
:100A70000029FCD0BFF34F8F10487C380168124A20
:100A800001F4E06111430160BFF34F8F00BFFDE748
:100A90000F490E48086030BD3805004004040010BE
:100AA00020C50040488103008C56004018F50040E6
:100AB000E40E0040409602400004004088ED00E053
:100AC00004E5014000E401400400FA050090D00371
:100AD000B8010020014800680047000058000020CD
:100AE0002DE9F05F5448D0F8045300242E464FF00F
:100AF000010913E096FAA6F0B0FA80F7B80000F505
:100B00008070804603F0ECFE28B1404603F0F0FE12
:100B100009FA07F0044309FA07F08643002EE9D1E9
:100B200002F07EFE002869D0444AD078F0BBA002D3
:100B300064D5434940F2A978C1F80080081D0368D4
:100B400013F0FF0C02D0036803EA0C0C40F2AA7AFF
:100B5000C1F800A0036813F0FF0301D0066833401A
:100B600040F2AB7BC1F800B0066816F0FF0601D07A
:100B700007683E4040F2AC770F60076817EA0C0741
:100B800009D0D2F810C04CEA070CC2F810C0C1F866
:100B900000800760076840F2AD770F6007681F406C
:100BA00009D0136943EA0743136100E026E0C1F866
:100BB00000A00760036840F2AE730B600368334027
:100BC0000BD0DE0701D044F40004DE0601D544F06A
:100BD0000104C1F800B003600068106930F0011131
:100BE00002D005F080710C4310F0011F06D069059A
:100BF00004D520F0011044F480641061C4F3C056A1
:100C000024F400044F46DFF83C8009E094FAA4F095
:100C1000B0FA80F558F82500804707FA05F08443BC
:100C2000002CF3D105F096F8002E03D0BDE8F05F5C
:100C300001F036BEBDE8F09F0070024028000020A1
:100C400000780240E8620000C11700EBD161074B59
:100C50004A1153F8222021F01F01411A0120884037
:100C6000024201D0012070470020704700E100E0FF
:100C700002E008C8121F08C1002AFAD17047704765
:100C8000002001E001C1121F002AFBD170470000C3
:100C900072B603F0AFFC00BF03F0EAFA0028FBD104
:100CA00011481249401AC408012000EB044010A169
:100CB00003F0F6FB11480068C00700D000BE022018
:100CC00000EB04400EA103F0EBFBBFF34F8F0B488A
:100CD000E43801680E4A01F4E06111430160BFF39A
:100CE0004F8F00BFFDE70000F86B0000A86B00000D
:100CF000466174616C206572726F7200F0ED00E005
:100D000053797374656D207265736574000000001B
:100D10000400FA050EB500210091CDE901106A46E4
:100D200044F20100FFF7B4FF0EBD000070B50546A8
:100D30000548C46805E02946204601F0E9FB206823
:100D40000468002CF7D170BD7400002070B509480C
:100D5000C4680CE0267A002505E02946204600F00C
:100D600077FC6D1CEDB2B542F7D320680468002C07
:100D7000F0D170BD7400002070B50A48C4680DE061
:100D8000267A002506E000222946204600F09EFC37
:100D90006D1CEDB2B542F6D320680468002CEFD18B
:100DA00070BD00007400002070B50849054606209B
:100DB000CC6807E02946204601F0AAFB062803D1AB
:100DC00021680C68002CF5D170BD00007400002073
:100DD00010B501F049FCBDE8104002F0E7BC3EB59B
:100DE00014460D4601F040FC00210095CDE901417B
:100DF000694600F0BDFA3EBD3EB514460D4601F011
:100E000033FC00210095CDE90141694600F0B0FABC
:100E10003EBD00688165002070470000F8B50446BB
:100E200000250FE0002705E0007800F08FFA08B1F8
:100E30001120F8BD3946781CC7B2304600F09CF846
:100E40000028F1D12946681CC5B2204600F0A6F85A
:100E50000600E7D100250DE0002703E000782146D9
:100E600000F079FA3946781CC7B2304600F084F8B1
:100E70000028F3D12946681CC5B2204600F08EF840
:100E80000600E9D1074800E0086801680029FBD1A5
:100E900004600548694680690090606802682046E1
:100EA0009047F8BD80000020A86300002DE9F04FB6
:100EB00087B04FF000081D46934689460446DDF88A
:100EC00040A04646CDF80C8000E0761C6068012307
:100ED00000224768214603A8B8470028F5D14046BC
:100EE0008DF800800027B84601903BE06068012340
:100EF0006A46D0F804C0214601A8E0476068012393
:100F000005AAD0F804C0214601A8E0479DF81410B6
:100F100049451AD1D84514D19DF80000CAF80000FF
:100F200005F8010B6A1C85F8009060689DF8003098
:100F30002146456801A89B1EA847002007B0BDE8D0
:100F4000F08F08F1010000F0FF0860689DF80030A4
:100F50000022D0F804C0214601A89B1EE0479DF85E
:100F600000000744B742C1D30520E7E70148C06845
:100F7000704700007400002042788A4201D80020A7
:100F80007047827810440844704742788A4201D8FA
:100F9000002070478278104408447047027A8A42E1
:100FA00001D80020704701EB410109300844704727
:100FB000027A8A4201D80020704701EB41010930D2
:100FC0000844704702484078002800D0012070474C
:100FD0007400002002689160084901E00968091D59
:100FE00009680029FAD10549091D01E01168091DA8
:100FF0000A68002AFAD108600020704784000020A7
:1010000009490BE0824207D1026852680A60006811
:1010100000214160084670471168091D0A68002ACE
:10102000F0D10520704700008800002010B5002096
:1010300000F064F9BDE81040802000F05FB910B501
:10104000002000F05DF9BDE81040802000F058B9A4
:1010500070B50D460146287806240B2815D009DC0A
:101060004FF0010607284AD2DFE800F0490D0F11C2
:10107000492638000C2824D00D2824D00E282BD047
:1010800085283CD10FE0032013E0002437E02848F6
:1010900002F00FF80028F8D026480660BFF36F8FE3
:1010A000BFF34F8FF1E72248001F0078032826D1B5
:1010B000042004F0ABFD22E0084600F059F8044695
:1010C0001DE0002005E01C48006810F0010F03D06F
:1010D000022004F09BFDD8E70120FAE7E878032816
:1010E0000DD01349091D0A6832B100230B6049680D
:1010F0009047040005D000E00E2402F0B1FC204629
:1011000070BD04F07BFD28B1A8780028F7D102F06B
:101110006AFCF4E74FF08050D0F83011082903D171
:10112000D0F834010028EAD002F05AFCE7E70000CA
:10113000B80000205C70024038040040024A0146BA
:10114000D2E90002104700002408002070B50C46C8
:10115000054602F03FFCA84201D0102070BD0348B4
:10116000D4E90012C0E90212002070BDB4000020D2
:101170007FB5054605208DF8000006240DF101001D
:1011800002F046FC04F03AFD2949002008609DF871
:10119000010010F01F0006D001280FD0022826D031
:1011A000032833D106E06946284604F093F8044644
:1011B00006282AD16846FFF7F7FD25E09DF80500CF
:1011C00003A900F061FA050008D06A469DF80C10EA
:1011D00000F03AFA0446062802D016E0102415E082
:1011E0006A469DF80C10284604F0A6F90CE09DF81C
:1011F0000500010705D0694600F05EF804460628A0
:1012000003D1684604F0E4F8044624B102F028FC57
:1012100004B0204670BD04F0F1FC30B102F0DAFBFE
:101220000028F5D102F0DFFBF2E702F0D9FBEFE78F
:10123000BC000020FEB5C08814460E46A04201D274
:10124000054600E01546844207D2802002F0EAF904
:10125000B4FBF0F100FB114068B100200096CDE92D
:101260000150002000F060FB6946802000F080F80B
:10127000040002D006E00120F0E705498020FFF7D6
:1012800065FF0446002000F051FB2046FEBD000033
:101290000C64000008B14021016001487047000063
:1012A000780800200148007870470000B400002052
:1012B00002F064B802F098B810B50C46010600F0D0
:1012C0000F02092A09D200F00BF8006828B1416822
:1012D0000A682146BDE810401047102010BD0000EC
:1012E000010600F00F0001D5034901E00249483131
:1012F00001EBC00070470000DC07002002F0EAB8F4
:1013000010B5044600F00F00082805D2204602F070
:1013100003F9204602F0B6F92046BDE8104002F07D
:1013200009B9000070B50C46054602F043F918B142
:1013300005480078022801D0082070BD21462846C3
:10134000BDE8704002F038B97400002010B5FFF716
:10135000C7FF006810BD10B50C46FFF7C1FF046061
:101360001CB161680968416010BD0021FBE7000005
:1013700070B50C46054602F01DF918B10548007815
:10138000022801D0082070BD21462846BDE87040E3
:1013900002F0A8B97400002038B50446007805288A
:1013A0000BD11A4800681949C0B2091F096811F029
:1013B000FF0F04D1052802D1154C207890B1144DAF
:1013C0006946243D286A01F048FE002809D02168BA
:1013D00001606946286A01F061FE0146204604F07A
:1013E000A7FE38BD0B48456905E029686088896813
:1013F000884728684568002DF7D10021204604F071
:1014000097FE204600F008F838BD000084740240C2
:10141000CC6300007400002070B5764C054601785E
:10142000207809297AD007DC79D2DFE801F06A84D4
:10143000B28D9FBBC283D700822927D017DC0A292F
:101440006ED00F296DD080293BD0812972D16A4896
:10145000FFF774FE6848FFF769FC0D2004F076FE84
:10146000FFF774FCFFF7E2FD206950B906E083291D
:1014700031D0842937D085295CD193E05F48007A48
:1014800000B1012002F0F0FA01207EE0FFF75EFCDF
:1014900002F016FB002004F0D9F85748401CFFF773
:1014A00045FC5548401CFFF749FE0E2004F04EFE57
:1014B000207800F01FFA00283CD0BDE8704001F011
:1014C0008DBE052803D0062803D0072832D102207C
:1014D0005BE0082059E003282CD102F00FFB002824
:1014E00028D0042051E0032805D102F007FB10B1F9
:1014F000042004F0ABF802F08BFB00281AD0062081
:1015000043E0032801D0082803D13B48801CFFF7A3
:1015100083FF002004F01AFE246909E060E009E07E
:1015200060E044E02946204600F0F2FF206844686D
:10153000002CF7D170BDFFF709FCFFF780FD0220FA
:1015400004F084F8012005E0082809D0052004F003
:101550007DF8032004F0FAFD2846FFF7EFFD44E094
:10156000022004F073F802F0DBF9F2E7032004F044
:10157000EDFD2148C01CFFF7E1FD1F48C01CFFF72F
:10158000D5FB20780628A2D10720BDE8704004F0E2
:101590005DB8032004F05AF8022004F0D7FD284675
:1015A000FFF7C4FB2846BDE87040FFF7C7BD0F201A
:1015B00019E0A878FFF794FED0E9002329461046E9
:1015C00098470028B6D0A8780107B3D000F00F01E3
:1015D0000829AFD2BDE8704002F030B8082002E020
:1015E000092000E00A2004F0B1FD2846BDE8704063
:1015F000FFF79CBB74000020B96300006C0800205A
:10160000FFF7CABE70B50B4C0B4DA06830B9211D59
:10161000286A01F038FDA060002809D0FFF7FCFE21
:101620000449286A091D01F023FD0020A060012063
:1016300070BD000074000020A86300000148FFF79F
:10164000ABBE0000A863000011464268136818474B
:1016500070B5044640680D46C2680AB120469047FE
:1016600020462946FFF79AFC05464678002408E004
:1016700021462846FFF780FC007801F02BFF641C10
:10168000E4B2B442F4D370BD2DE9F04180460E4877
:101690000E46C56814E02F7A00240DE02146284646
:1016A000FFF77CFC0178414504D106B1347028462F
:1016B000BDE8F081641CE4B2BC42EFD32868056841
:1016C000002DE8D10020F3E77400002070B5044637
:1016D000406815460E4683681BB120469847062889
:1016E00003D1204631460DB1072070BDFFF756FCEF
:1016F00005464678002408E021462846FFF73CFCD2
:101700000078FFF7FDFD641CE4B2B442F4D300207E
:1017100070BD034600205A681269002A01D018469D
:10172000104770472DE9F8432D4C054604238422C9
:101730002A49206A01F07EFC10B10320BDE8F8833D
:10174000284802F0F3F80028F8D127490870C8604B
:101750000861224848218430FEF77BFE1F4848215B
:10176000CC30FEF776FE21487DB195E80E001430AE
:1017700080E80E00002001F085FD18B1852801D019
:10178000FFF7C8FA1A4D002611E004F138010EC91E
:10179000EDE7002703E000782946FFF7DCFD394636
:1017A000781CC7B24046FFF7E7FB0028F3D131466B
:1017B000701CC6B22846FFF7F1FB5FEA0008E8D1CB
:1017C000606800906946284600F0A2FE040003D03D
:1017D00002F010FA2046B1E70020AFE758070020DA
:1017E000A8630000011600007400002058080020C3
:1017F0004C64000030B1012807D0022808D1054808
:10180000FFF7CABD03480838FAE70248001FF7E7A8
:1018100070470000D863000010B502F0D3F810B193
:1018200002F0C6F808B1082010BD044801F03EFDE2
:1018300008B1FFF76FFA002010BD0000DC63000064
:1018400070B50C460F4901EB800555F8240001786E
:1018500031B10020FFF71EFD002255F8241006E0EC
:10186000801C70BD521CD2B2491C20F812300B787B
:10187000002BF7D1022101EB4201C9B241F44071C2
:10188000018070BDC4000020074803E0016811F02A
:10189000010F07D00168C1F340010029F6D00348C9
:1018A000FFF77ABD7047000038040040AD630000C8
:1018B000034808B5806800906846FFF76DFD08BDD5
:1018C000A86300004FF0000150B106280BD2074A70
:1018D000105C002808D0064A52F820201AB100E017
:1018E0000020FFF7ADBF002070470000B664000085
:1018F000C4000020092808D2DFE800F00707050728
:1019000007050505050001207047002070470928DC
:1019100008D2DFE800F007070507070707070500FB
:10192000012070470020704700F002B800F008B8AE
:1019300072B602480168491C01607047DC00002053
:1019400003490868401E086000D162B67047000075
:10195000DC00002070B5054608680C46411C04D028
:1019600002F058FB206802F0F0FA6068411C02D0D7
:10197000002102F0D8FA2968A069C1F82405607D29
:10198000227D29681043C1F86C05D4E9001228684B
:10199000C0F81425C0F80C15207D012814D1A068CA
:1019A000411C02D0002102F0BEFAE068411C04D0C4
:1019B00002F030FBE06802F0C8FAD4E902122868AD
:1019C000C0F80825C0F8101570BD70B50546086848
:1019D0000C46411C04D002F027FB206802F0BFFA3D
:1019E0006068411C02D0002102F0A6FA2968A069B3
:1019F000C1F82405607D217D2A680843C2F86C0582
:101A0000D4E900122868C0F80C15C0F81425207D10
:101A1000012814D1A068411C02D0002102F08CFAE8
:101A2000E068411C04D002F0FFFAE06802F097FA87
:101A3000D4E902122868C0F80825C0F8101570BD56
:101A400010B50A7800240F2A26D2DFE802F02526F6
:101A5000262625080C25252525151B26260003F0FE
:101A600001FD044619E08978090601D5022100E04C
:101A7000012104F065FB10E00168896D69B1FFF791
:101A8000A9FA04E00168896D39B1FFF7B9FA041EBB
:101A900003D0FFF73FF900E00624204610BD000008
:101AA0002DE9F05FDFF81CA88B46097A05468AF815
:101AB000001000684FF0000916464C469846B0F5F5
:101AC000317F7AD053DC40F29522A0F295219042EA
:101AD00074D02DDC40F28621A0F2862288426ED09E
:101AE00015DC40F28227A0F28221B84268D007DCE0
:101AF00090B3C81D65D0012875D006286FD18BE042
:101B000001296DD002296CD00329F7D1B5E0062A4E
:101B100068D006DC012A77D0042A76D0052AEDD1D8
:101B2000D7E0072A72D0082A71D00E2AE6D130E118
:101B300025296DD011DC14296BD006DC012969D070
:101B4000022968D00B29D9D15EE11D2970D0232943
:101B50006FD02429D2D1BFE127E0263909293ED20E
:101B6000DFE801F0DEDDDCDBDAD93D3DD800A0F2B4
:101B7000C5203028F3D2DFE800F0F2F1F0EFEEED0F
:101B8000EC3232EBEAE9E8E7E6E532323232323281
:101B900032E4323232E3E2E1E0DFDEDD3232DCDB5E
:101BA000323232DAD9D8D7D6D5D409202871B8F153
:101BB000000F06D840F27B200EE0F4E1F6E067E08B
:101BC00038E00EB128793070042001242871B8F172
:101BD000010F08D84FF41F70286026E003E06CE383
:101BE00035E03FE080E00EB12879305500215846BD
:101BF000641CFFF7DDF9CAF8040000782871444539
:101C00000AD340F28120E7E74DE057E077E0A7E014
:101C100070E119E1D5E0E2E00EB128793055641C9D
:101C200085F80490444505D32F600120BDE8F09F5E
:101C30002CE146E10EB128793055DAF80400641C35
:101C400044454078287102D340F28320C4E70EB1A6
:101C5000287930550120641C2871444502D34FF483
:101C60002170B9E70EB1287930550120641C287124
:101C7000444502D340F28520AEE70EB128793055B5
:101C8000641C85F80490444502D340F28620A3E703
:101C90000EB128793055641C85F80490444502D370
:101CA00040F2872098E70EB1287930550920641C4E
:101CB0002871444502D340F28A208DE70EB128797D
:101CC00030552420641C2871444502D340F28B20F7
:101CD00082E70EB1287930550120641C28714445F3
:101CE00002D34FF4237077E70EB128793055641C86
:101CF00085F80490444502D340F28D206CE70EB184
:101D0000287930550120641C2871444528D340F2BD
:101D10008E2061E73CE130E124E118E10BE1FFE0D6
:101D2000F3E0C4E2B8E2ACE2A0E292E285E279E25A
:101D300066E25AE24EE242E236E22AE21EE212E2B3
:101D400006E2F1E1D6E1C8E1BBE1AEE19FE193E15A
:101D500087E17BE16FE163E156E14AE13CE130E19B
:101D60000EB1287930555846641C00F0B3FA074686
:101D7000584600F0B4FA0744584600F0B5FA384423
:101D80000930AAF802002871444502D34FF42570A7
:101D900022E70EB128793055BAF80200641C000A17
:101DA0002871444502D340F2952015E70EB12879F9
:101DB00030550120641C2871444502D340F296201E
:101DC0000AE70EB1287930555846641C00F07CFAB9
:101DD000401C2871444502D340F29720FCE60EB126
:101DE000287930555846641C00F079FACAE9029007
:101DF00013E000BFDBF8140044458068405C2871A4
:101E000002D34FF42870E7E60EB128793055DAF89E
:101E10000810491C641CCAF808105746D7E902107C
:101E20008142E7D3584600F055FAC7F80890386168
:101E300013E000BFDBF81C0044458068405C28715B
:101E400002D340F2A920C7E60EB128793055DAF85E
:101E50000810491C641CCAF80810DAF80810DAF8EF
:101E6000100057468142E5D3584600F03DFAC7F8C6
:101E70000890786113E000BFDBF8180044458068E3
:101E8000405C287102D340F2B220A5E60EB1287959
:101E90003055DAF80810491C641CCAF80810DAF842
:101EA0001420DAF8081050469142E5D34168092021
:101EB000C91CCAF804102871444502D34FF42E708F
:101EC0008AE60EB1287930550420641C28714445F7
:101ED00002D340F2B9207FE60EB12879305558463A
:101EE000641C00F0F1F9401C2871444502D340F213
:101EF000BA2071E60EB128793055641C85F804903B
:101F0000444502D340F2BB2066E60EB12879305535
:101F1000641C85F80490444502D34FF42F705BE6AF
:101F20000EB1287930550120641C2871444502D334
:101F300040F2BD2050E60EB1287930559BF82600BE
:101F4000641C2871444502D340F2BE2044E60EB121
:101F500028793055641C85F80490444502D340F23A
:101F6000BF2039E60EB128793055641C85F80490FD
:101F7000444502D34FF430702EE60EB12879305527
:101F80000920641C2871444502D340F2C32023E693
:101F90000EB1287930550420641C2871444502D3C1
:101FA0004FF4317018E60EB1287930555846641C4C
:101FB00000F08AF9401C2871444502D340F2C52044
:101FC0000AE60EB1287930550120641C2871444579
:101FD00002D340F2C620FFE50EB128793055DAF879
:101FE0000400641C44454078287102D340F2C720A5
:101FF000F2E50EB1287930550120641C2871444562
:1020000002D34FF43270E7E50EB1287930559BF8D2
:102010002600641C2871444502D340F2C920DBE548
:102020000EB128793055641C85F80490444502D3DC
:1020300040F2CA20D0E50EB128793055641C85F8ED
:102040000490444502D340F2CB20C5E50EB1287977
:1020500030550720641C2871444502D340F2CE203D
:10206000BAE50EB1287930552420641C2871444506
:1020700002D340F2CF20AFE50EB1287930550120D0
:10208000641C2871444502D34FF43470A4E50EB1AA
:10209000287930555846641C00F016F9401C287108
:1020A000444502D340F2D12096E50EB1287930554F
:1020B0009BF82000641C2871444502D340F2D220D2
:1020C0008AE50EB1287930559BF82200641C2871EE
:1020D000444502D340F2D3207EE50EB12879305535
:1020E000BBF82200641C000A2871444502D34FF457
:1020F000357071E50EB128793055DBF81000641C9D
:1021000030B10168CAF818104946CAF8089014E0BE
:102110004946F7E7DBF8100044458068405C2871C9
:1021200002D34FF4377057E50EB128793055DAF8FD
:102130000810491C641CCAF80810DAF8180081421B
:10214000E8D307202871444502D34FF4387043E5A3
:102150000EB1287930552520641C2871444502D3DE
:1021600040F2E12038E50EB1287930550120641C99
:102170002871444502D340F2E2202DE50EB12879C2
:102180003055641C85F80490444502D340F2E320A6
:1021900022E50EB128793055641C85F80490444539
:1021A00002D34FF4397017E50EB128793055641C0D
:1021B00085F80490444502D340F2E5200CE50EB1C9
:1021C00028793055641C85F80490444502D340F2C8
:1021D000E62001E50EB1287930550920641C2871EC
:1021E000444502D340F2E920F6E40EB12879305597
:1021F0000520641C2871444502D340F2EA20EBE438
:102200000EB12879305500215746641CDAF80400D5
:10221000FEF7BBFEF86100782871444502D340F216
:10222000EE20D9E40EB1287930550120641C2871C4
:10223000444502D340F2EF20CEE40EB12879305568
:102240009BF82400641C2871444502D34FF43C7071
:10225000C2E40EB128793055BBF82400641C000A92
:102260002871444502D340F2F120B5E40EB128793B
:1022700030550120641C2871444502D340F2F220FD
:10228000AAE40EB128793055641C85F804904445C1
:1022900002D340F2F3209FE40EB128793055641C3C
:1022A00085F80490444502D34FF43D7094E40EB198
:1022B0002879305540F2F6208EE40020C5F80090D1
:1022C000B4E400009400002010B50021FEF770FE79
:1022D000007810BDC069002800D0006870474069D0
:1022E000002800D0006870478069002800D000688E
:1022F0007047000030B50268044685B08878507396
:1023000008799073C878D0738879107448795074BC
:10231000B1F807005082012002F80C0F487800F055
:102320001F00022801D103201070002001900290AC
:1023300002F108000090D08801900020FFF7F4FA25
:1023400069460020FFF714F8050008D1074803A9E3
:102350000068CDE903040020FEF7F8FE05460020E2
:10236000FFF7E4FA05B0284630BD00000064000025
:1023700010B518B90846002103F0E2FE002010BD98
:10238000102802D31038C0B2704740F08000704768
:102390002DE9FC410646C0074FF000050ED0104F56
:1023A00000240122385D009500231146019501F0BB
:1023B0005DFD641C042CF4D300F03AF8B0070DD591
:1023C000074E0024361D0022305D03230095114680
:1023D000019501F04BFD641C042CF4D3BDE8FC8195
:1023E00088620000094908B5085C0090684601F061
:1023F000D9FDD0F80425009B0121994021EA020370
:10240000C0F808351140C0F80C1508BD88620000FE
:102410000249085C012101F011BE00008862000041
:102420000249085C002101F009BE0000886200003A
:1024300010B500242046FFF7EBFF641C042CF9D3F1
:1024400010BD00002DE9F0470546861C90460F465A
:102450004FF001090020FFF767FA1B4C2068386035
:10246000D4E90001401AA16804F21C47081A0EE0E2
:102470000121384600F023FE00F0B2FC0146384648
:1024800000F01DFED4E90001401AA168081A401CA2
:102490008642EDD8B8F1000F03D0052065F389100E
:1024A00002E0062065F39F50A2682168114004EB0A
:1024B0008101C8602068304420600020FFF736FAB0
:1024C0004846BDE8F0870000740A002030B48268F6
:1024D0000468531C8360A154D0E901128A4202D3DC
:1024E00030BC01F0CABB30BC70470000034803C8D1
:1024F000814201D10120704700207047740A0020FA
:102500000249084490F9300070470000800500201F
:10251000426812681047000070B5084C050009D0E9
:1025200010342168002907D00868206049682846CF
:102530008847F6E70834F4E770BD00003403002054
:10254000054A012120B1012805D19170FFF7E4BFB0
:1025500051700020FAE77047340300202DE9F05F46
:1025600026484168F1B3DFF898B00E688146DBF881
:10257000004087688078E11B21F07F45ED1CB0B9F1
:10258000DFF880804FF48030C8F84403C8F80403B3
:102590001120FEF775F91120FEF77DF94FF0010AC1
:1025A000C8F800A02F2002F04FFA89F802A0B54227
:1025B00000D23546124BE8193C3320F07F401860BA
:1025C000DBF800105A46091B21F07F41001B20F068
:1025D0007F40C91C81420FD9106818602F2002F07B
:1025E00033FA00E004E0BDE8F05F1120FEF75EB9C9
:1025F000BDE8F05F02F078BDBDE8F09F600000200C
:10260000041501400010014010B50021024800F0FF
:1026100067FD80F3100010BD900E00200E4910B52C
:102620000A784C780023A24212D0521CD2B20A700F
:10263000022A00D10B70084A0B780C3252F8232082
:1026400002608868104420F07F408860012010BD3F
:102650000360002010BD0000600000206FEA0061F0
:10266000C90F61F31F10704710B50121FEF7A0FCE0
:102670000021FEF78AFC007810BD00000106044925
:1026800000D5903100F00F0001EB00107047000002
:102690004803002010B503F047FB8020FFF7EEFF52
:1026A000817B0124032902D00068002809D1802001
:1026B000FFF7D4FF8440E143BDE81040014800F03B
:1026C00004BD10BD34000020812002F0BBB8822080
:1026D00002F0B8B8832002F0B5B8842002F0B2B896
:1026E000852002F0AFB8862002F0ACB8872002F057
:1026F000A9B8000038B5882503F016FB2846FFF777
:10270000BDFF817B0124032915D00068002811D169
:102710002846FFF7A3FF8440E1430C4800F0D5FCB6
:102720000B480A49806800900C398DF802504968BE
:102730006846884738BD2846FFF790FF8440E1434C
:10274000BDE83840014800F0C0BC00003400002063
:10275000A062000038B503F0E7FA0020FFF78EFF13
:10276000817B0124032905D0006868B1BDE83840A9
:1027700001F039B90020FFF771FF8440E143BDE863
:1027800038400A4800F0A1BC0020FFF767FF8440F2
:10279000E143064800F099FC05480449C0680C393B
:1027A000009049686846884738BD00003400002022
:1027B000A0620000012002F061B8022002F05EB8C1
:1027C000032002F05BB8042002F058B8052002F0A4
:1027D00055B8062002F052B8072002F04FB80000AA
:1027E00038B5082403F0A0FA2046FFF747FF817BA5
:1027F000032915D00068002812D12046FFF72EFFCC
:1028000001218140C943074800F05FFC06480549A3
:10281000406900900C398DF8024049686846884745
:1028200038BD000034000020A062000070B51348DD
:1028300004680460BFF36F8FBFF34F8F00F0F0FFA9
:1028400038B10F48016921F0011201F00111144360
:10285000016101266CB194FAA4F0B0FA80F5284623
:10286000FFF78EFD06FA05F18C43294603F0DAFBEB
:10287000F0E7BDE8704003F06DBA00006C740240F0
:102880002800002010B5054CA078FFF7E7FE0146B0
:10289000A078BDE8104003F0C5BB00002800002070
:1028A000F8B51A4800681A4DC6B2A878FFF7D6FEE8
:1028B000012404FA00F12889EA68C04380B2104379
:1028C000014202D0A87803F007FB06F08000A87050
:1028D0000020FFF7C3FE04FA00F68020FFF7BEFEDB
:1028E00004FA00F006430A48F1430C3000F0EDFB17
:1028F0008020FFF7B3FE8440A86804430548AC601D
:10290000006A0090696868468847F8BD8074024094
:1029100028000020A062000038B5002000900F4879
:102920000068ADF802008820FFF798FE012505FA3F
:1029300000F40A486038006840B1C10301D4401C6B
:1029400004D00820FFF78AFE85402C43044988689C
:102950002043886049686846884738BD2075024032
:102960002800002070470000F8B518480568284680
:1029700001F0CAFFBFF36F8FBFF34F8F144E154C9A
:10298000E80506D501206070706A009061686846AD
:102990008847A8054FF0000705D56770B06A00901A
:1029A00061686846884768050ED5607800280BD0B6
:1029B0006770094901200860582001F0B7FFF06AEC
:1029C0000090616868468847F8BD000000740240C6
:1029D000A06200002800002008750240054908B5E3
:1029E0000020487088700448406800904968684634
:1029F000884708BD28000020A062000010B5174AD3
:102A000069B101291CD1526815491648FEF7F4F93D
:102A1000002815D1BDE810400220FFF7E3BC006894
:102A200010F80C1F69B1012911D0022908D003291F
:102A300006D14178012903D1806820F07F40906061
:102A400010BD41780129FBD11178017210BD417888
:102A50000129FBD1007A107010BD00000000002099
:102A6000740200205062000010B5FEF71BFC052820
:102A700018D10D48FEF7ACF902000C48426011D0A5
:102A80000B490948FEF7ABF900280BD009480A4961
:102A9000BDE81040401AC008012101EB004007A129
:102AA00001F0FEBC10BD0000246200000000002008
:102AB00074020020F86B0000A86B000043616E6E8A
:102AC0006F74207374617274205258207472616E36
:102AD000736665722066726F6D20686561647068E8
:102AE0006F6E650D0A00000010B50446FEF760FA2F
:102AF0004078002803D02068002180F8541010BDD1
:102B00002DE9F04115460446FEF752FA467807468D
:102B1000FEB1012D02D90720BDE8F08120680C30FC
:102B20000DB1012100E0002180F8481000240CE0E4
:102B300021463846FEF729FA007815B1FEF7E0FB8A
:102B400001E0FEF7DBFB641CE4B2B442F0D30020EA
:102B5000E2E70620E0E710B50446FEF729FA4078E0
:102B6000002805D0206890F85400002800D00120EB
:102B700010BD00002DE9FC5F0E008346DDE90C4727
:102B8000C6F1000098469246814600D408460125C9
:102B900003E000BF90FBFAF06D1C5045FADAA8453F
:102BA00000D9454624B1002E01DB780700D5641E0C
:102BB000B80702D5B8F1000F0AD0F80708D13CB128
:102BC000A54205D220215846641EFFF77FFCF6E798
:102BD000002E02DA4E462D2102E0780703D52B2184
:102BE0005846FFF773FC07F0030002280BD1B8F139
:102BF000000F08D13CB1A54205D230215846641ED1
:102C0000FFF764FCF6E7CDE90047434652463146FC
:102C1000584602F099FFBDE8FC9F000070B50D46D4
:102C2000044600684FF4887101F0F1FD4FF4907193
:102C3000206801F0ECFD4FF49271206801F0E7FD8F
:102C40004FF4A271206801F0E2FD20681249C0F83B
:102C500004132068690740F30730090E002806DADC
:102C600000F00F0000F1E02080F8141D03E000F1F7
:102C7000E02080F800142068012140F3073000F0C4
:102C80001F0291404009800000F1E020C0F880124E
:102C9000C0F8001170BD00001003020002460020C1
:102CA0001268530713D502F00300012802D002284E
:102CB0000CD105E0C2F383100B68801C184404E0BB
:102CC0000223086803EB9252104408600120704709
:102CD0000268134602E08A4204D01268002AFAD140
:102CE0000B600160704700002DE9F047394E002766
:102CF00080463D46DFF8E090D6F804A057E003D0C8
:102D00000446D0F81C8035E099F8002002EB42011F
:102D1000521CD2B289F8002009EBC10199F80230A7
:102D2000091D9A4201D189F8005048680A78044682
:102D3000012A12D0022A02D0032A3BD108E002F075
:102D40000FFD00B10127257434E00574C06900E06F
:102D500070680028F9D170602CE0207C50BB886836
:102D60006060C868A0600869E0604869A061F078A8
:102D700000B165606268B168184B501A20F07F405E
:102D8000984202D2A168084406E0881AA16820F09F
:102D90007F40814202D9081A206000E0256065600A
:102DA0000120A56020742046E56102F0BBFCB8F16B
:102DB0000000A4D199F8001099F801008142A3D134
:102DC00017B97168514502D00120BDE8F087002095
:102DD000FBE70000600000203C060020FFFF7F00B2
:102DE0002DE9FF410026234800F066F92148001F25
:102DF000074600F061F9204C60680090A56800E08B
:102E000000986946284004EB80000C30FFF746FF2D
:102E10000028F5D101AA009901EA050304EB830318
:102E2000491CDB6842F82030401C00910228F2D394
:102E3000019800F0030001280BD0022810D101985E
:102E4000032101EB90500099BDF80A6001EB90005E
:102E500005E00198BDF80A60C0F3831008440090B3
:102E6000384600F026F908B10098606004B030469A
:102E7000BDE8F0818C0E0020740A00204FF4004160
:102E8000002001F081FB08B1FDF744FF01F0E2F9F9
:102E900000F0DEF908B1FDF73DFF1B481B49401A61
:102EA000C008032101EB004019A101F0F9FA032049
:102EB000FFF76EFA1D48FEF735FC08B1FDF72AFF53
:102EC0001A4C1B49583C2046FDF7A3FF08B1FDF7FB
:102ED00021FF2046FDF7A2FF08B1FDF71BFF1348B5
:102EE0002C38FDF79BFF08B1FDF714FFFEF794FCAB
:102EF00008B1FDF70FFFFEF785FB0028FBD101F0BD
:102F0000B7F920BFF7E70000F86B0000A86B0000DE
:102F10005553424420617564696F206578616D7016
:102F20006C6520737461727465642E007C620000AD
:102F3000692A00002DE9F047C5881E1DB6FBF5F78C
:102F40008946B6FBF5F1044605FB176C4079166817
:102F50006843DDF820A0F718001F874200D9C61A81
:102F6000166001E02468491E0029FBD1A5EB0C077F
:102F70008846B74216D818E004EB0C00001D09EB98
:102F80000803BAF1000F3A4602D00146184600E0A5
:102F90001946FDF745FA2468F61B4FF0000CB844BB
:102FA000B54201D9374600E02F46002EE4D1BDE8F6
:102FB000F087000021B1022914D10320FFF712BAD3
:102FC00000680F4910F80C2F6AB1012A11D0022AAB
:102FD00008D0032A06D14278012A03D1806820F064
:102FE0007F40C86070474278012AFBD1497801725E
:102FF00070474278012AFBD1007A48707047000080
:103000000000002030B5024651B101F0DBFA00218A
:10301000074C08E034F821301568AB4202D111604A
:10302000002030BD491C8142F4D3052030BD000092
:103030000000000010B531B1B2FBF3F403FB14241F
:103040001CB1092010BD0E2010BD0160002141609F
:1030500081608281C381084610BD70B50C4605466B
:10306000FDF7F2F8002802D021882868084470BDD6
:1030700010B50A8849888A4203D1FDF727F9012053
:1030800010BD002010BD70B50C460546FDF701F9D6
:10309000002802D061882868084470BD10B50A88ED
:1030A00049888A4203D1FDF7EBF8012010BD0020CA
:1030B00010BD002100F00FB8012100F016B808B5CE
:1030C0006A46FDF758F9009808BD08B56A46FDF74D
:1030D00038F9009808BD08B56A46FDF732F908BD11
:1030E00008B56A46FDF714F908BD08B56A46FDF74C
:1030F0001BF9009808BD08B56A46FDF749F9009824
:1031000008BD70B5044600252846FEF70DFC216871
:103110006268086890420ED9401E08600178238AD0
:10312000E26801FB0325227A2168101AC0B20A79ED
:10313000824200D208710020FEF7F8FB284670BDDD
:1031400070B505460C460020FEF7EEFBE868298ABC
:10315000201AB0FBF1F12A681068431C136001705B
:10316000BDE870400020FEF7E1BB10B530B1017A38
:1031700042680368891AC9B21A6006E00E2010BDC1
:1031800003681A68541C1C601170491EC9B2F7D23A
:10319000006800210171084610BDC20800F0070355
:1031A0000120895C98400840704710B5C20800F0C3
:1031B0000703885C01249C402043885410BD00F123
:1031C00080400068002800D00120704708B500F159
:1031D0008040002101600068009008BD10B500200B
:1031E000FEF7A2FB074C6068401E6060606818B97B
:1031F00001F0D0FB00206070BDE810400020FEF719
:1032000095BB00003403002070B5104D044668786B
:1032100038B114B16168002088470020FEF784FBB4
:103220000CE00020FEF780FB24B10848214608305E
:10323000FFF74EFD686808B901F0A0FB6868401C04
:103240006860BDE870400020FEF770BB34030020CA
:1032500070B50A4C207808B185250CE00020A060EC
:1032600060602061E060064801F0AAFB054601F0BD
:1032700069FB01202070284670BD00003403002047
:103280004125000010B5074C217809B1852010BDFB
:1032900000B9054801F0E8FB0028F8D101212170B0
:1032A00010BD0000100000209062000010B5044620
:1032B00000F007F8204601F055FC01F04CFC00201E
:1032C00010BD10B501F040FCBDE8104001F054BC49
:1032D000F0B505460478154889B0164640F8242014
:1032E000124A08690832A2F10C0742F82400487F0C
:1032F000385520226846FDF793F804942878385C06
:1033000048B10EB10A4A00E000226946281D01F0CA
:1033100091FD09B0F0BD0EB1064A00E000226946F9
:1033200005F10C0001F058FCF3E700001800002044
:10333000255A00007158000003490248C1F80403EF
:1033400070470000041480010070024030B54C68E2
:103350009C4204D2002545600968016007E0436093
:103360000D68E41A05604C600868184408609A42C9
:1033700002D10CB1012030BD002030BD10B500F0ED
:103380009FFB1449D1F80403C1F808031248002434
:103390000460BFF36F8FBFF34F8F02F0C5FC0F497E
:1033A0000120087000F016FA002812D00020FEF765
:1033B000BBFA0B4802680B492AB10C60BDE810400B
:1033C0000020FEF7B3BA49F2753202600C60026069
:1033D000F4E710BD00700240007502402800002094
:1033E00000EC064014ED06402DE9F0414FF4006674
:1033F000304601F089FA00F0EDF9304C49F27535AC
:1034000058B10020FEF790FA226803202C49002AC8
:1034100047D008600020FEF789FA0020FEF784FA02
:103420002168264FC0201437D1B338600020FEF742
:103430007DFA244901200860BFF36F8FBFF34F8FDF
:10344000214801680905FCD5304601F05DFA0020ED
:10345000FEF76AFA2068002658B33E600020FEF7A7
:1034600065FA1A4940F2E37008604020091D0860BF
:10347000BFF36F8FBFF34F8F124980201C3108605C
:103480001049002030310860114C40F2FF10C4E9AF
:10349000020602F049FCA67002202070BDE8F0810F
:1034A00003E0256008602560B4E72560386025608A
:1034B000BCE725603E602560D0E7000000EC0640D8
:1034C00014ED06400075024000740240007802408E
:1034D0002800002010B5044602F0FEFC21064FF043
:1034E000010004F00F0200FA02F001D5084901E0E2
:1034F0000749091D0A6882430A60BFF36F8FBFF353
:103500004F8F204600F0E0F80249C1F8080310BDD3
:10351000107502400070024005490860BFF34F8FEC
:1035200040F480700860BFF36F8FBFF34F8F704718
:103530000C75024070B5044600F0C6F81A49C1F88F
:103540000403204601F06AF900282BD104F00F0192
:1035500022064FF0010505FA01F001D5134A01E0FA
:10356000124A121D136803431360BFF36F8FBFF33A
:103570004F8F200716D0200614D4082912D200201D
:10358000FEF7D2F9204600F0F5FA2046FFF766F87C
:1035900085400748C168A943C160BDE8704000206C
:1035A000FEF7C4B970BD0000007002401075024003
:1035B0002800002001F032B92DE9F0410E460746FF
:1035C000FFF74CF805460020FEF7AEF9144C38071B
:1035D00004D1A078874201D010241BE02089E16843
:1035E000C04380B20843012101FA05F5284201D009
:1035F00011240FE03846FFF741F80021816032685E
:103600000260726842608173E0680543E5600C46C1
:1036100002F028FD0020FEF789F92046BDE8F08180
:103620002800002010B5FFF729F8808910BD10B5DB
:103630000C46FFF723F8848110BD0000044940F4D4
:1036400080700860BFF36F8FBFF34F8F704700002B
:103650001875024000F00F01082901D300207047BF
:10366000020607494FEA007001EB906002D5D0F8DE
:10367000200401E0D0F844040128EFD17047000095
:103680000070024010B50446000606D42046FFF73D
:10369000E1FF10B1204600F06DFA03480460BFF36B
:1036A0006F8FBFF34F8F10BD18750240010601D513
:1036B000044901E00349123100F00F0031F8100015
:1036C000704700004C630000010601D5044901E089
:1036D0000349093100F00F00095C01208840704760
:1036E000706300002DE9F0470D460646FEF7B6FF71
:1036F00080460020FEF718F9254C300704D1A07849
:10370000864201D0102433E02089E168C04380B2B2
:103710004FF00109084309FA08F7384201D0112493
:1037200026E03046FEF7AAFF06F00F01330601EB54
:1037300041014FF0000225D5164B03EB81012B68A8
:10374000B9EB537F2B7A4FEAC37302D1B3B1124B5B
:1037500001E0ABB1114B036068CD81E86800C0E9BE
:1037600001128273E0680743E760002402F07AFCEC
:103770000020FEF7DBF82046BDE8F087084BEAE7BB
:10378000084BE8E7034B6C3303EB8101064BE2E7A0
:103790002800002068040020E9380000813800007B
:1037A000C5380000453800004D33000000F00F0020
:1037B000082805D305480068C10300D500207047DC
:1037C000034901EB8000D0F8A0047047C0740240A8
:1037D0000070024010B500F019F84FF0805418B195
:1037E000D4F8340101280FD000F010F818B1D4F843
:1037F0003401022808D000F009F818B1D4F83401D7
:10380000032801D0002010BD012010BD4FF08050D2
:10381000D0F83001082801D00020704701207047FF
:1038200010B5FFF7F3FF20B14FF08050D0F834010E
:1038300008B1002010BD012010BD000000487047F5
:10384000400500202DE9F0414D680C4E07460C461E
:10385000954200D915462A4630462168FCF7E0FD1E
:10386000C7E900656068401B6060206828442060EC
:103870006068002800D00120BDE8F08140050020EC
:103880002DE9F0414C680E4F06460D46944200D992
:10389000144634B1224638462968FCF7C1FD37602A
:1038A00001E00020306074606868001B6860286870
:1038B0002044286014B10120BDE8F0810020FBE71E
:1038C000400500204B68934200D913460A68C0E9BE
:1038D00000234868C01A48600868184408604868AF
:1038E000002800D0012070474B68934200D913464E
:1038F000002B0ED0D1F80020C0E900234868A0EBCF
:103900000300486008681844086005D04FF00100C3
:1039100070474FF00002EFE74FF0000070470000E3
:103920000149002048707047280000202DE9F0412F
:1039300028B11E490A7822B10820BDE8F08107208D
:10394000FBE7486001200024087046024FEA0405A6
:1039500044F0800707F00F00082801D3314600E04B
:1039600040213846FFF763FE3846FEF787FE857331
:10397000641C0560E4B28560092CE9D35FF00004A3
:1039800004F00F00082801D3314600E04021204612
:10399000FFF74DFE2046FEF771FE8573641C05603F
:1039A000E4B28560092CEBD30020C6E72800002094
:1039B00003480078022801D3012070470020704797
:1039C0002800002002480078002800D0012070471D
:1039D000280000200148807870470000280000205F
:1039E000502000F0A3BF10B5FFF71AFF58B1EFF356
:1039F000108472B64C2000F099FF4C2000F096FF26
:103A000084F3108810BDBDE810404C2000F08EBF3C
:103A10000021016041601149096801700F49091DC9
:103A2000096841700D49083109680C4A0C32126866
:103A300041EA02214180094910310968074A1432DC
:103A4000126841EA02218180044918310968034A59
:103A50001C32126841EA0221C18070478074024022
:103A6000542000F063BF00000F4A10B500215170D0
:103A70000E4C10B9FFF7D4FE00B10D4C0D48C0F844
:103A800004430D49C02081F800040B490122802025
:103A90002339C1F88002C1F8000108480260BFF371
:103AA0006F8FBFF34F8F10BD280000200714C00197
:103AB0000714E0010070024027E000E004750240B6
:103AC00010B52720FDF7C0F8002810D002F084FAC6
:103AD000074900200860BFF36F8FBFF34F8F054980
:103AE0008020C1F8800148170349C1F8080310BDC0
:103AF0000475024004E000E00070024010B50024AC
:103B00002046FDF711FF12484078B0B102F064FA88
:103B100010480168890510D40F4901220A60006825
:103B200082054FF0000001D5086006E00B49012432
:103B30000B680A4A14322BB110600020FDF7F6FE24
:103B4000204610BD49F275330B6010600B60F4E73E
:103B500028000020007402402C75024000EC064052
:103B600003490248C1F808037047000004148001AB
:103B7000007002402DE9F0418046FFF751FE00271A
:103B80000126194C002808F00F05384612D0FDF721
:103B9000CBFE4046FEF762FD8640A0681349B04365
:103BA000A06040F2C57000EB45000860081D07608A
:103BB000006813E0FDF7B8FE4046FEF74FFD864073
:103BC000A068B043A060082D08D2094901EB850028
:103BD000C0F8A074BFF36F8FBFF34F8FBDE8F04103
:103BE0000020FDF7A3BE000028000020007802405E
:103BF0000070024005480178012901D00820704773
:103C00000021416001700846704700002800002034
:103C100010B500242046FDF787FE0E48407868B1B5
:103C200000F07CFE50B10C49002008600B490124D3
:103C30000B680A4AC02014322BB110600020FDF737
:103C400075FE204610BD49F275330B6010600B60A5
:103C5000F4E70000280000202C75024000EC06402C
:103C60000FB408B50399002904D004AA00926A464B
:103C700000F00FF801B05DF814FB10B5826804463F
:103C8000002A05D0D4E90403216898470020A060E9
:103C900010BD2DE9FC4791460C00804676D014F803
:103CA000011B39B125290ED04046FEF70FFC2078C4
:103CB0000028F4D198F80C00002867D04046BDE8F1
:103CC000FC47FFF7DABF0020012221782B291BD007
:103CD0002D2902D0302908D102E040F0010001E096
:103CE00040F00200641C002AEFD100252A290ED0E2
:103CF0002178A1F130020A2A11D205EB850201EBED
:103D00004205641C303DF1E740F00400EAE7D9F8D1
:103D100000100B1DC9F800300968641C0D4421789F
:103D200000232E290BD114F8011FA1F130020A2A19
:103D300005D203EB830201EB4203303BF3E76C292E
:103D40000DD068290BD0692921D00BDC252918D08A
:103D5000582931D063290ED0642915D117E014F801
:103D6000011FECE7702969D0732932D075291BD067
:103D7000782909D120E0D9F80000011DC9F8001008
:103D800001784046FEF7A2FB641C90E76CE0D9F88E
:103D900000100A1DC9F800200968CDE900500A2268
:103DA0004046FEF7E7FEEFE7D9F800100A1DC9F814
:103DB000002009680A2206E0D9F800100A1DC9F897
:103DC000002009681022CDE90050404601F0BCFEF9
:103DD000DAE7D9F8001000270A1DC9F800200E689C
:103DE000C00705D112E04046761C7F1CFEF76EFB33
:103DF00031780029F7D104E0202140466D1EFEF7FE
:103E000065FBBD42C0D9002DF6D1BDE74EB13046AD
:103E1000FCF72AFB074604E0202140466D1EFEF712
:103E200055FBBD4206D9002DF6D103E04046761C75
:103E3000FEF74CFB31780029F8D1A5E7D9F800004E
:103E4000011DC9F80010056830214046FEF73EFB11
:103E500078214046FEF73AFB08200021CDE9000119
:103E6000034610222946B0E7BDE8FC872DE9FF4153
:103E70001C46DDE90A7815460E46684600F092F8C1
:103E800046EA450141EA840141EA072242EA084143
:103E9000009A00EB8200C0F80017BDE8FF812DE911
:103EA000FF411C46DDE90A7815460E46684600F0DB
:103EB00095F846EA450141EA840141EA072242EACF
:103EC0000841009A00EB8200C0F80017BDE8FF81AE
:103ED0002DE9FF411C46DDE90A7815460E46684685
:103EE00000F08AF846EA450141EA840141EA0722E6
:103EF00042EA0841009A00EB8200C0F80017BDE8D2
:103F0000FF811CB5002100910B4601220191FFF7B2
:103F1000C6FF1CBD1CB5002100910B46012201917A
:103F2000FFF7D6FF1CBD1CB500220B4600921146C0
:103F30000192FFF7B4FF1CBD1CB500220B46009296
:103F400011460192FFF7C4FF1CBD1CB50021009172
:103F50000B46012201911146FFF7A1FF1CBD1CB5C4
:103F6000002100910B46012201911146FFF7B0FF9D
:103F70001CBD13B50C46684600F022F8009900EB12
:103F80008101D1F8002722F44032C1F800270099BE
:103F900000EB8100D0F8001741EA0441C0F8001797
:103FA0001CBD00000168202902D24FF0A0407047DC
:103FB00001F01F010160014870470000000300503C
:103FC0000168202902D24FF0A040704701F01F0184
:103FD000016001487047000000030050016820297B
:103FE00002D24FF0A040704701F01F01016001486C
:103FF00070470000000300500168202902D24FF0F2
:10400000A040704701F01F010160014870470000A7
:104010000003005001B56846FFF7E0FF009A012158
:104020009140C0F8081508BD01B56846FFF7E4FFE8
:10403000009A01219140C0F8081508BD38B5012447
:104040000090684631B1FFF7ADFF00998C40C0F891
:10405000084538BDFFF7A6FF00998C40C0F80C4515
:1040600038BD00001CB5094C0144D4E90034CDE949
:1040700000346C4606E000BF54F82030D3F8103509
:10408000401C08C28142F7D81CBD000084630000B8
:10409000034908B50844002101600068009008BD8C
:1040A0000060004002494058012800D000207047BD
:1040B0000060004030B5154A01460020D2F8104497
:1040C00023460AE0DB681D79854205D1401C0A2899
:1040D000F6DB4FF0FF3030BD1B68002BF2D1431CE4
:1040E000F9D0CB681871D2F8103443B1DB68CC68D2
:1040F0001B682360D2F81024D268116030BDC2F86A
:104100001014C96800220A6030BD0000740A002043
:10411000F0B595B01C4615460F4608461A9E00F0AD
:1041200023FB182109A8FCF794F90E96CDE9095450
:104130000023082203A9384600F02BFB05980690BF
:10414000BDF81000ADF81C00BDF81200ADF81E005F
:1041500000208DF821000398082600F003000128B4
:1041600002D0022818D032E003983346850AC0F303
:10417000C2008DF8200003980FA9C0F38314A20099
:10418000384600F006FB09A8009006AB22460FA9AE
:10419000284600F045FA1AE00398840DC0F3C200E7
:1041A0008DF82000082C01D2254600E00825334672
:1041B0002A460FA9384600F0ECFA2E44641B09ABDE
:1041C00006AA29460FA800F089F9002CEAD1384642
:1041D00000F0D0FA15B0F0BD7047012001F066BBC9
:1041E000084810B50178084A515C19B1001D00F06B
:1041F000ADFE02E00C3000F0BBFDBDE81040002039
:1042000001F054BB4C0100201400002008B5034A03
:1042100000924023024AFFF77BFF08BD8551000052
:10422000DC0800200A4A012902EBC00007D002295D
:1042300007D0032907D0042907D0002070470220A7
:10424000704704207047007970474079704700003C
:10425000A86B000010B5FFF7C0FF04210348FFF76B
:1042600029FF02490120C968487110BD986B000000
:104270002DE9F0478CB0FEF739F918B100200CB0E9
:10428000BDE8F0877D4C0020C4F81804BFF34F8FC1
:1042900060680290A5684FF00008284004EB800099
:1042A0000CE000BFD4F8180470B92168029881426C
:1042B00001D86160E2E7284004EB80000C3002A9DD
:1042C000FEF7ECFC0028EDD1002003AA029901EAD8
:1042D000050304EB8303491CDB6842F82030401CD3
:1042E00002910228F2D3039800F00300022802D0C2
:1042F00001284DD0A7E003985022810D8946B2EBEA
:10430000905F00D850210E4666F39F50039008310D
:104310005B4800F0E0F9070078D000F025FA43464A
:10432000082203A9384600F03CFA029908F1080A6D
:104330002940681A8000001D864222D94F4D0C3555
:1043400030B1C2B204EB8101301A90460C3104E066
:104350002946F2B2002590462846C6B25346384652
:1043600000F01FFA0AEB080325B132462946384609
:1043700000F017FA029909F1030001EB9000029096
:104380003BE004EB81015346324638460C31EFE7FF
:104390000398C0F38310062800D30620039960F326
:1043A0008911C1F38310801C03918100344800F00F
:1043B00092F9070047D000F0D7F94346082203A935
:1043C000384600F0EEF908F1080800260FE00298E0
:1043D000434600EA0501401C04EB810102900422DF
:1043E00038460C3100F0DDF908F10408761C03981A
:1043F000C0F38310B042EAD847B1D4F81054D4F8CF
:10440000180478B1384600F0B5F931E01BE0E868EF
:104410004079012804D12A68284639461268904715
:10442000E8680568002DF2D1384600F0A3F90020B5
:10443000FDF77AFAD4F8180408B9029860600020F1
:10444000FDF774FA14E0D4F8104405E02168204622
:1044500089688847E0680468002CF7D109480A4950
:10446000401AC008022101EB004008A100F018F832
:10447000FEF73CF880F0010001E70000740A00201C
:10448000006C0000F86B0000A86B00004261636BD9
:10449000656E647320666C75736865640000000067
:1044A00000231A4601F08CB808B5012300926A4631
:1044B00001F086F808BD3EB5069C8DE81C0003237C
:1044C0006A4601F07DF83EBD7FB5DDE908458DE81F
:1044D0003C0004236A4601F073F87FBD2DE9F047E4
:1044E0000E4680461C46924608293ED894F80C9009
:1044F000002020731946104600F09EFD0025B542AD
:1045000006D218F805201AA12046FFF7A9FB03E000
:1045100019A12046FFF7A4FB6D1C082DEFD317A1AE
:104520002046FFF79DFB0025B54210D218F8057014
:10453000FBF772FF0068C05D10F03E0F01D03A46F5
:1045400000E02E220EA12046FFF78AFB03E00DA11A
:104550002046FFF785FB6D1C082DE5D3012221467F
:10456000504600F04BFD84F80C90BDE8F087000049
:104570002025303278000000202020007C00000040
:1045800025630000200000000B4810B5FF2181606A
:10459000002101604160C0F81814C0F8141480F8BC
:1045A0002014064800F0E4F8002803D1044800F085
:1045B0000AF9002010BD0000740A0020006C000001
:1045C000F864000002480349401AC0087047000020
:1045D000006C0000A86B000013B56846FEF712FDE2
:1045E00008B100201CBD0248009950F831001CBDE4
:1045F000A86B000070B509480125D0F8104480F878
:10460000205407E0E06845712168204649688847E2
:10461000E0680468002CF5D170BD0000740A002029
:104620002DE9FF4781460C9D00200C462F7B287307
:10463000984616462946184600F0FEFC072E42D240
:10464000DFE806F004090F161F2A360049462846FF
:10465000FFF706FB37E0494628462268FFF700FBD4
:1046600031E0D4E9002349462846FFF7F9FA2AE069
:10467000A0680090D4E9002349462846FFF7F0FAE5
:1046800021E0D4E90201CDE90001D4E90023494643
:104690002846FFF7E5FA16E004F1080007C88DE8A0
:1046A0000700D4E9002349462846FFF7D9FA0AE073
:1046B00004F108000FC88DE80F00D4E90023494633
:1046C0002846FFF7CDFA00222946404600F096FC26
:1046D0002F73BDE8FF872DE9F041058A80462D1F25
:1046E0004819C01CB0FBF5F0C6B24046FEF709FD04
:1046F000041E19D00020207101206071E580002780
:104700002546761EC4F800800BE04046FEF7F9FC13
:1047100060B16179491C6171286005467F1CC0F851
:104720000080B742F1D32046BDE8F081204600F07A
:1047300002F80020F8E72DE9F041457901466B1EAB
:10474000002201E00968521C9A42FBD30F6801461F
:10475000002605E038460C68FEF7F2FC2146761C80
:10476000AE42F7D3BDE8F0810121001DFEF7A7BCE2
:10477000FEF7FBBC10B504460121001DFEF7BBFC93
:1047800010F0FF0F04D12046BDE81040FFF7D3BF63
:1047900010BD1CB501920122009201AAFEF7CAFBCE
:1047A0001CBD1CB501920022009201AAFEF7C2FBBB
:1047B0001CBD00F180410868002210B101200A6090
:1047C00070471046704782680021916082681161CD
:1047D000826851618268D16082685160806801603E
:1047E00070474058002800D00120704708B50022CB
:1047F00042504058009008BDD0F80403084000D053
:10480000012070474058002800D00120704708B5AB
:10481000002242504058009008BD000002064FF0B0
:10482000010100F00F0001FA00F101D5044801E098
:104830000348001D0068084000D0012070470000B8
:104840001075024070B5054601F06EFA2846FDF776
:1048500015FF817B0124032902D00068002809D1BB
:104860002846FDF7FBFE8440E143BDE87040024866
:10487000FEF72BBC70BD00003400002038B50546A3
:1048800001F052FA2846FDF7F9FE817B0124032945
:1048900002D0006848B11AE02846FDF7DFFE8440E8
:1048A000E1430D48FEF711FC11E02846FDF7D6FE66
:1048B0008440E1430848FEF708FC084806490069BF
:1048C00000900C398DF80250496868468847BDE869
:1048D000384001F03FBA000034000020A062000020
:1048E00002494058002800D0012070470070024063
:1048F0000449084400210160BFF36F8FBFF34F8F5D
:10490000704700000070024003490860BFF36F8FDA
:10491000BFF34F8F704700000074024002480068E8
:10492000002800D0012070472C750240044908443B
:1049300001210160BFF36F8FBFF34F8F70470000FD
:10494000007002400A480068012110F0010F08D1F0
:104950004FF0E020C02280F80024C0F88012C0F898
:104960000011044A012010600348017070470000E4
:1049700000E100E0180500403C00002010B54FF4B5
:104980008070FEF723FC01208107C1F80403086052
:1049900010BD000007490120086007494FF00110D1
:1049A0000A6802F001128242FAD0044900204871DC
:1049B00070470000040000400C040040400000204C
:1049C0000649024600200B790BB1852070470A602A
:1049D00001220A7100224A71704700004000002045
:1049E00070B54FF480763046FEF7E9FB114CB50503
:1049F00060B13046FEF7EAFB0120C5F80803607994
:104A000020B9012060712168002088474FF4827628
:104A10003046FEF7D4FB00280AD03046FEF7D6FB1E
:104A20000220C5F808032168BDE87040012008474E
:104A300070BD000040000020002802D00149800124
:104A400008477047E1620000002802D00149800158
:104A500008477047A16300000121B1EB507F01D1ED
:104A60000120704700207047104A117809B1852055
:104A7000704701780E4BC1F3400119600C49007872
:104A8000083900F0010008600A480168012011F0AF
:104A9000010F08D14FF0E021C02381F80034C1F8A4
:104AA0008002C1F80001107000207047480000200B
:104AB0008005004000E100E070B54FF08040D0F884
:104AC0000443204D600706D54FF48470FFF771FE54
:104AD00008B168688047A00607D54FF48A70FFF7D1
:104AE00068FE10B1A96800208847600607D54FF41A
:104AF0008C70FFF75EFE10B1A96801208847200680
:104B000007D54FF48E70FFF754FE10B1E96800200E
:104B10008847E00507D54FF49070FFF74AFE10B1C3
:104B2000E96801208847A0050AD54FF49270FFF785
:104B300040FE002804D0E968BDE870400220084724
:104B400070BD0000480000204FF080414FF46070BD
:104B5000C1F8080370474FF080414FF46070C1F80E
:104B60000403704703490022CA600068002800D08F
:104B7000C86070474800002001490020C8607047A5
:104B80004800002070B50D4600F0A2FA04000FD0D6
:104B90000020FCF7C9FE207920B10020FCF7C6FEFA
:104BA000112070BD0120256020710020FCF7BEFEA1
:104BB000002070BD10B500F08BFA002802D0002153
:104BC0000160017110BD00000149024800F096BE6D
:104BD000EC050020002000402DE9F0410546007959
:104BE00016460F4600EB40012D4A01EBC00102EBD7
:104BF000810494F82A1011B10820BDE8F0812949F8
:104C000051F820102868FFF7BDFF08B11120F4E724
:104C100039462846FCF79EFE666038692060300001
:104C20004FF001062FD03F7F4FF48E712868FFF7B9
:104C3000DDFD4FF4A2712868FFF7D8FD28681A49F6
:104C4000C0F8041328684FEA471140F307300028E2
:104C500006DA00F00F0000F1E02080F8141D03E0F8
:104C600000F1E02080F80014286840F3073000F0DD
:104C70001F0206FA02F14009800000F1E020C0F8AE
:104C80008012C0F8001128680421C0F80015002027
:104C9000A061E06184F8290044F8140FA675ACE720
:104CA000EC0500208C630000800002002DE9F04735
:104CB000054600790B4600EB400101EBC00023499B
:104CC00001EB8004284600F043F810B11120BDE844
:104CD000F0874FF00008C4F82080A360626184F878
:104CE00028804FF48E76474631462868FFF77EFDD0
:104CF00028684FF00109C0F808902146286800F0A4
:104D000099FD606800BBD5F800A00EE094F828007B
:104D100008B10F2716E031465046FFF762FD002824
:104D2000F4D02146504600F085FD216A6069814239
:104D3000F1D331462868FFF754FD0028F9D02868E0
:104D4000C0F80C90C4F814803846C0E7EC05002089
:104D5000007900EB400101EBC000044901EB800049
:104D60004069002800D0012070470000EC050020B9
:104D70002DE9F047044600794FF0000900EB4001AF
:104D800001EBC000254901EB80072068C0F80095C1
:104D9000786880B120682249C0F808132068012192
:104DA00040F3073000F01F0291404009800000F1FD
:104DB000E020C0F880112068D0F80C25D0F81485C8
:104DC000D0F80865D0F810554FF0FF31C0F8141531
:104DD000C0F80C152068C0F80815C0F81015501C54
:104DE00002D01046FFF78DF8B8F1FF3F02D04046E1
:104DF000FFF787F8681C02D02846FFF782F8701C7E
:104E000002D03046FFF77DF82068FFF7D3FE87F821
:104E10002A90C7F80490BDE8F0870000EC05002058
:104E2000840202000149024800F014BE1806002066
:104E3000002000402DE9F0410546164600790F4656
:104E4000154A00EBC00102EB810494F8201011B167
:104E50000820BDE8F081114951F820102868FFF7BB
:104E600091FE08B11120F4E739462846FCF7ADFD64
:104E70006660386920601EB1397F2846FDF7CEFE96
:104E800028680821C0F800150020A061E061012118
:104E9000606184F82010DCE71806002090630000B1
:104EA0002DE9F04704460E460079204900EBC0008A
:104EB00001EB800517463046FFF7CEFD30B12046A6
:104EC00000F036F820B11120BDE8F0871020FBE794
:104ED0006F61AE604FF49076002731462068FFF78F
:104EE00096FC4FF4AC7841462068FFF790FC2068B0
:104EF000AA686969C0F84425C0F8481520680121EE
:104F00008160686878B9B14649462068FFF77AFC45
:104F1000064641462068FFF775FC0643F4D000B111
:104F20000F27002068613846CEE7000018060020F1
:104F30000079054900EBC00001EB800040690028C2
:104F400000D0012070470000180600202DE9F0472E
:104F500004460079274900EBC00001EB8007206878
:104F60004FF00009C0F80095786880B120682249A8
:104F7000C0F808132068012140F3073000F01F0239
:104F800091404009800000F1E020C0F880112068C5
:104F9000D0F80C25D0F81485D0F80865D0F8105555
:104FA0004FF0FF31C0F80C15C0F814152068C0F898
:104FB0000815C0F81015501C02D01046FEF7AAFFC5
:104FC000B8F1FF3F02D04046FEF7A4FF681C02D0B4
:104FD0002846FEF79FFF701C02D03046FEF79AFF6E
:104FE0002068FFF7E7FD87F82090C7F80490BDE838
:104FF000F0870000180600201003020010B50C46D0
:10500000017A052908D0407A38B1084808A1026819
:105010002046FEF725FE00E01AB106A12046FEF765
:105020001FFE2046BDE81040FEF727BE9401002079
:10503000257300000D0A000038B5C3880D460446EC
:1050400033B114A0009015A216A12846FEF708FE61
:10505000217A05291CD0607A48B1A088FFF7E2F8D0
:10506000164951F8202016A12846FEF7F9FDA08820
:105070000021FFF7B1FA03461049207A143951F89C
:10508000202001B02846BDE830400EA1FEF7E8BD63
:1050900038BD00001B5B306D000000001B5B313B26
:1050A00033316D0025734C6F67732064726F7070BD
:1050B0006564202825642925730D0A0094010020C9
:1050C000257300003C25733E2025733A2000000024
:1050D0000349884201D1034870470020704700000F
:1050E000002000405800002070B5012670044FF0E9
:1050F000E0210025C1F88001084C4010C4F84803A5
:10510000C4F8080366602F20FFF79EFCA660044CDD
:105110002F20A560FFF798FCA57070BD001001401E
:105120006000002070B5054688690C4600284FF4E1
:10513000847128460AD0FFF759FBD5F81805626A32
:10514000E1688854606A401C606270BDFFF74EFBE6
:10515000D5F8180570BD1FB501238DF80030CDE9D5
:105160000121D0E90012684690471FBD1FB50123F9
:105170008DF800308DF808100192D0E900126846D1
:1051800090471FBD70B50D4C0020D2B22070201D7D
:105190000B4D0378EB5C1BB1001DFFF781FE02E0B5
:1051A0000C30FFF783FD08B1FBF7B4FD60780028F1
:1051B00002D021780029FAD070BD000048010020FB
:1051C00014000020002070472DE9FE4F08790C469E
:1051D000012804D0022809D0032875D162E0B4F870
:1051E000070000285CD01222384967E0B4F80700B5
:1051F000002855D0092800D90920814609264FF0FA
:105200000008FBF7B3FE05464FF0000A16E0002742
:10521000CDF800A000E07F1C686801230022D0F8D0
:1052200004C029466846E0470028F4D1297A3E4464
:1052300001EB080000F0FF0828680568002DE6D1A2
:1052400002A8FCF727F8214905464A461231FBF728
:10525000E7F885F804806E80FBF7B4FE18B1E879B2
:1052600040F02000E871FBF781FE0146184880E815
:105270002202B4F80710C1600020FCF755FB134967
:1052800080200839FCF74EF8040005D10F49802032
:105290001039FBF75BFF04460020FCF747FB204674
:1052A000BDE8FE8FB4F807000028F9D0E078B4F824
:1052B0000510FCF707FB010006D00A7803B0601C5C
:1052C000BDE8F04FFBF7B6BF0620E9E71C6400001D
:1052D000B808002038B54A7812F0600F36D13B4C40
:1052E00012064FF0000533D58A7822B1062A15D070
:1052F000082A2BD116E00B466846FBF7CBFF014688
:105300000580007840F00100087062785208D207EA
:1053100002D040F002000870022213E0BDE83840DD
:10532000FFF752BF0B466846FBF7B4FF01462078F3
:10533000052802D0042803D008E00120087000E00E
:105340000D700122581CFBF775FF38BD062038BDD3
:1053500088780A28FAD2DFE800F00511050605056D
:1053600005050520F2E7B1F803000128EED1FBF7AF
:1053700029FE80B1607840F0020009E0B1F8030036
:105380000128E3D1FBF71EFE28B1607820F002006F
:105390006070002038BD0F2038BD2078052803D06C
:1053A000042801D0082038BDC87818B1012805D0DC
:1053B000072038BDFBF7CAFC042002E0FBF7DCFC49
:1053C000052000F023FC284638BD0000B400002072
:1053D000F8B50546407810F0600F31D120486C795F
:1053E000A978007821B1012923D0032928D111E01F
:1053F000052801D0200729D16846FBF74BFF064658
:105400002046FEF727F9308002223146681CFBF760
:1054100011FFF8BD04F00F01082911D2B5F80310EF
:1054200071B9052801D0200710D12046FEF706F9F2
:1054300014E004F00F01082902D2B5F8031009B1F5
:105440000620F8BD052803D0200701D00820F8BDAC
:105450002046FEF761F82046FEF714F90020F8BD5B
:10546000B4000020FEB54B781A06C3F3411451D5A1
:10547000002214B1012C5CD11DE0054603F01F0091
:105480000C46012855D1A078062852D102A80192D5
:10549000FBF700FF064601A80090E2782179334629
:1054A0002846FBF703FD052843D03146601C019ACE
:1054B000FBF7C0FEFEBD0D468978822909D004DCC9
:1054C000042906D0812934D103E0832901D085291C
:1054D0002FD1046861732979A173E978E173A979FF
:1054E000217469796174B5F80710618204F80C2F92
:1054F000697801F01F01022900D12170002100F01C
:105500001FFEE28803B004F10801681CBDE8F0400A
:10551000FBF790BE012C0CD18A78062A09D2DFE86D
:1055200002F008030303030303B0BDE8F040FCF7F7
:10553000E1BE0620FEBD0000F8B50B4651780646D8
:10554000144611F0600F25D11C480906A178007897
:105550001ED511B10A291DD109E005281ED16846C2
:10556000FBF798FE01460020088002220CE0052887
:1055700014D16846FBF78EFE054619463046FCF707
:10558000C8F8287001222946601CFBF753FEF8BDBD
:105590000B2901D00620F8BD052801D00820F8BD50
:1055A000B4F80300FF2801D90720F8BDD2781946C6
:1055B0003046BDE8F840FCF789B80000B400002090
:1055C0002DE9F84F204D924689460646984601221D
:1055D00069461846AF68FCF735FF58B300980021BC
:1055E0000446801C09E000BF00EA07035AF82120A6
:1055F00005EB8303401C491CDA604145F4D34FEAB4
:10560000164AFDF701F84AEA0041601C384005EBF4
:1056100080003C4005EB8402C160D06866F3C500A1
:1056200068F3891069F39F2020F00300401C20F0EC
:105630000400D06095F8200402E000BFFEF718FED9
:105640000028FBD1BDE8F88F740A002070B505462C
:10565000FCF750F9124C06462078FCF74BF98642CD
:105660000AD02846FCF746F920B104F11800FDF7EE
:10567000CBFD01E0FDF7B2FD2846FCF748F90646F0
:105680002078FCF744F9864208D02846FCF73FF919
:1056900010B1FDF751FE01E0FEF762FA257070BD12
:1056A000740000202DE9F84F1D4C00256846D4E910
:1056B00001A6FCF7B3FF002738B30023009A616806
:1056C0001CE0D1F800C00846944503D9ACEB0202B7
:1056D0000A6015E0A2EB0C0263440760D0F80CC02E
:1056E000C1698146BCF1000F08D006EB030828F021
:1056F0007F48C0E9018CC9F81C5005460029E0D15B
:1057000028466160FDF7F0FA03E02846FDF7ECFA61
:1057100010B15046FCF722FFE770BDE8F88F00009B
:10572000600000200D4B10B5596831B102680C685B
:10573000A24204D8A21A0A60C161586010BD0B468B
:1057400003E00B46C969121B21B10C689442F8D3DF
:10575000A41A0C600260C161D86110BD6000002015
:105760002DE9F041144E77683D462C4603E0844213
:1057700004D02546E469002CF9D11BE0D4B1A54240
:105780000BD1F869706040B90C4901208860002194
:10579000B160F0702F20FFF757F92168E069E861E8
:1057A00010B10268114401607068874202D0012084
:1057B000BDE8F0810020FBE7600000200010014000
:1057C0002DE9F041194D6C68002C2CD018480027A9
:1057D0000068A968B846401A20F07F462068B042A9
:1057E0000CD82146361A0744E469087C20B181F8B8
:1057F0001080886949698847002CEFD1297868783A
:10580000814206D1401CC0B26870022801D185F8DF
:105810000180064869780C3040F82170BDE8F041FD
:105820001420FBF743B8BDE8F081000060000020C1
:105830000415014070B50C4605464FF48E71FEF715
:10584000D5FF216AA068415C206A401C2062C5F82F
:105850001C1570BD1FB500228DF8002002918168D3
:1058600001914261D0E90012684690471FBD0000D7
:105870001FB50A4601788DF8001041680191017A40
:105880008DF80810C0680390044850F822100838BA
:1058900050F82220684690471FBD000020000020DD
:1058A00001490120087070474801002010B588B0F8
:1058B000044620220E496846FAF7B2FD0620009001
:1058C000C01F0190029003904FF0EB7006900CB156
:1058D000084A00E0002269460748FDF7F9FC08B1D4
:1058E000FBF718FA0448001F447008B010BD000010
:1058F000D8640000A15800004C0100202DE9FF47AA
:105900000C4605464FF40071FEF776FF01274FF471
:105910000178002618B34FF4927949462846FEF7DD
:1059200060FFE0B149462846FEF760FFC5F80883EE
:1059300094F8290000B96F6002208DF80000D5F8B6
:105940008004C5F880040390A0690290E06801908B
:10595000A661E661D4E900126846904728E0042178
:105960002846FEF749FF18B34FF484712846FEF726
:1059700038FFE8B121462846FFF7D4FB616AA069E9
:10598000884215D1E06938B1E268616AA061206996
:10599000E6616662E06008E094F8290000B96F6093
:1059A000C5F80883A661E268616A2046FFF7D3FB69
:1059B0004FF48E7841462846FEF713FF78B1206AEF
:1059C0006169884202D294F8280020B341462846F3
:1059D000FEF70CFF616911B12046FFF73BFF4FF462
:1059E000A27841462846FEF7FCFE002818D0414622
:1059F0002846FEF7FBFE94F8290000B12F60A0694D
:105A000000280DD0A661E268616A04B02046BDE8B6
:105A1000F047FFF7A0BB21462846FFF70BFFDEE764
:105A2000BDE8FF871FB50A4601788DF80010416870
:105A30000191017A8DF80810C0680390044850F86D
:105A40002210083850F82220684690471FBD0000F9
:105A5000200000202DE9FF410C464FF492770546C7
:105A60003946FEF7CFFE0026C0B139462846FEF77C
:105A7000CEFE02208DF80000D5F88004C5F8800421
:105A80000390D5F83C058DF80800E0680190A66108
:105A9000E661D4E900126846904723E04FF4887726
:105AA00039462846FEF7AEFEE0B139462846FEF7F5
:105AB000AEFED5F83C15A069884213D1E06960B10B
:105AC000E268D5F8000220F02000C5F80002E06985
:105AD000A0612069E661E06001E0A661E26820461D
