:02000004000FEB
:10100000A0CA0020DD130F00E5130F00E7130F0047
:10101000E9130F00EB130F00ED130F0000000000A9
:10102000000000000000000000000000C9130F00D5
:10103000F1130F0000000000F3130F00F5130F0071
:10104000F7130F00F7130F00F7130F00F7130F003C
:10105000F7130F00F7130F00F7130F00F7130F002C
:10106000F7130F00F7130F00F7130F00F7130F001C
:10107000F7130F00F7130F00F7130F00F7130F000C
:101080007D2C0F00F7130F00F7130F00F7130F005D
:10109000F7130F00F7130F009D2A0F00F7130F002F
:1010A000F7130F00F7130F00F7130F00F7130F00DC
:1010B000F7130F00F7130F000000000000000000FE
:1010C000F7130F00F7130F00F7130F00F7130F00BC
:1010D00099290F00F7130F00F7130F00F7130F00F4
:1010E000F7130F00F7130F00ED140F0000000000BE
:1010F00000000000F7130F0000000000F7130F00BE
:1011000000000000000000000000000000000000DF
:1011100000000000000000000000000000000000CF
:1011200000000000000000000000000000000000BF
:1011300000000000000000000000000000000000AF
:10114000000000000000000000000000000000009F
:10115000000000000000000000000000000000008F
:10116000000000000000000000000000000000007F
:10117000000000000000000000000000000000006F
:10118000000000000000000000000000000000005F
:10119000000000000000000000000000000000004F
:1011A000000000000000000000000000000000003F
:1011B000000000000000000000000000000000002F
:1011C000000000000000000000000000000000001F
:1011D000000000000000000000000000000000000F
:1011E00000000000000000000000000000000000FF
:1011F00000000000000000000000000000000000EF
:10120000DFF80CD000F060F90048004775500F007F
:10121000A0CA002080F308888E46104730B450E8FA
:10122000012F93B2C48923448489A34228BF1B1B86
:101230000489A34202BFBFF32F8F002007E0C3EA57
:10124000020340E80134002CE9D14FF001000A60AC
:1012500030BC704750E8012FC2EA024240E8012149
:101260000029F7D1704730B450E8022F1FFAA2F3DB
:10127000C488A34202BFBFF32F8F00200DE0C489B2
:1012800023448489A34228BF1B1BC2EA034340E8CE
:101290000234002CE8D14FF001000A6030BC7047E6
:1012A00050E8022FC2EA224240E802210029F7D189
:1012B0007047034653E8022FD988B2EB324F4FF004
:1012C000000017BF92B241EA014142EA014104E045
:1012D0005A68B2EB324F08BF012043E80212002ADD
:1012E000E8D1704730B4044654E8000F0D4644E896
:1012F0000053002BF8D1156030BC704730B4044661
:1013000054E8000F40EA010544E80053002BF7D1F0
:10131000156030BC704730B4044654E8000F00EA52
:10132000010544E80053002BF7D1156030BC70472D
:1013300030B4044654E8000F80EA010544E8005345
:10134000002BF7D1156030BC704730B4044654E828
:10135000000F00EB010544E80053002BF7D11560A6
:1013600030BC704730B4044654E8000FA0EB0105D0
:1013700044E80053002BF7D1156030BC704770B4BF
:1013800004464FF0000054E8006F0D68AE4207BFFE
:1013900044E80023012044E800630E60002B1CBFDA
:1013A0000020F0E770BC704730B4044654E8000FEA
:1013B00088422CBF451A054644E80053002BF5D15E
:1013C000156030BC704700001EF0040F0CBFEFF337
:1013D0000880EFF3098007F04BBC00000648804707
:1013E00006480047FEE7FEE7FEE7FEE7FEE7FEE70A
:1013F000FEE7FEE7FEE7FEE7A12A0F0001120F005D
:10140000202A04DB203A00FA02F1002070479140C4
:10141000C2F1200320FA03F3194390407047000003
:1014200000487047F0BA0F0010B5441A03469442C2
:1014300009D28418114403E011F8013D04F8013D7C
:10144000521EF9D210BD40EA0104A40703D009E0FE
:1014500010C9121F10C3042AFAD203E011F8014B7D
:1014600003F8014B521EF9D210BDD2B201E000F8D0
:10147000012B491EFBD270470022F6E710B5134638
:101480000A4604461946FFF7F0FF204610BD421CED
:1014900010F8011B0029FBD1801A704730B50446B3
:1014A0000020034600E05B1C934203D2E05CCD5C6D
:1014B000401BF8D030BD034611F8012B00F8012B7A
:1014C000002AF9D118467047064C074D06E0E0683F
:1014D00040F0010394E8070098471034AC42F6D37B
:1014E000FFF792FEF0CA0F0010CB0F00054B4FF034
:1014F000FF321A6053F8042C034B1A601A68034B2E
:101500001A60704704BA02509CAA002008BA025020
:1015100001EB820204388A4201D10020704752F860
:10152000043D1BBA40F8043FF5E7000000B5374B17
:101530008FB019461A680092009AD207FAD5344B38
:10154000344A1A600A680192019AD007FAD5324AE1
:101550001A600A680292029AD207FAD52F4A1A60D4
:101560000A680392039AD007FAD52D4A1A600A68CE
:101570000492049AD207FAD52A4A1A600A68059298
:10158000059AD007FAD5284A1A600A680692069A80
:10159000D207FAD5254A1A600A680792079AD00737
:1015A000FAD5234A1A600A680892089AD207FAD52F
:1015B000204A1A600A680992099AD007FAD51E4A89
:1015C0001A600A680A920A9AD207FAD51B4A1A6068
:1015D00008680B900B98C007FAD51A600A680C923D
:1015E0000C9AD007FAD5164A1A600A680D920D9A1D
:1015F000D207FAD5134A1A600E210D230F220020BC
:1016000000F088FD0FB05DF804FB00BFB0B00250E1
:1016100080B0025080430129406339218070012944
:101620008020542100D13490C0403490C030202913
:10163000C0530D9000413890832308C880E31021E7
:1016400000413821CF4308C810B5504B96B01C4616
:101650001A680192019AD207FAD54D4B4D4A1A6089
:1016600022680292029AD207FAD54B4A1A604B4A74
:1016700042EA804022680392039AD207FAD51860A2
:1016800022680492049AD007FAD5454A1A60A2F556
:10169000800242EA814122680592059AD207FAD572
:1016A000196022680692069AD007FAD53D4A1A6058
:1016B00022680792079AD107FAD53B4A1A60226836
:1016C0000892089AD207FAD5384A1A602268099215
:1016D000099AD007FAD5364A1A6022680A920A9AFD
:1016E000D107FAD5334A1A6022680B920B9AD207B7
:1016F000FAD5314A1A6022680C920C9AD007FAD5B2
:101700002E4A1A6022680D920D9AD107FAD52C4AFA
:101710001A6022680E920E9AD207FAD5294A1A60E8
:1017200022680F920F9AD007FAD5274A1A602168CB
:1017300010911099C907FAD51A60144B1A46196806
:1017400011911199C807FAD5114B204919601168F8
:1017500012911299C907FAD51D49196011681391A0
:101760001399CC07FAD50B49196011681491149993
:10177000C807FAD517491960116815911599C90755
:10178000FAD5154A1A6016B010BD00BFB0B00250AD
:1017900080B002504004419000862929D81001C829
:1017A0004014419040142129401465210034409098
:1017B00000310C90C0400C90C030202940960D9014
:1017C00000416090031645C8008611210041602148
:1017D000594644C84014459040142D90F0B5464BEE
:1017E00089B01D461C680194019CE407FAD5434B5F
:1017F000DFF810C1DFF810E113449B000A181B68E2
:101800001E2A88BFC0F11E011F330A185B095A4304
:10181000B2F5806F88BF4FF480614FF0000484BF41
:10182000B1FBF3F1091A00F1A05000F52C40274656
:10183000A14233DC2A680492049AD207FAD5304ACE
:101840001268296805910599CF07FAD52D482E4CC5
:101850000260002216469A4202F1010140D12A4C50
:10186000134621F0010100268B423CD32B680693DE
:10187000069BDE07FAD5254B1B682C680794079C4E
:10188000E407FAD5036000231F481C469A422DD175
:101890001D4A00208B422CD309B0F0BD2A68029269
:1018A000029AD207FAD50219920012682E6803969E
:1018B000039EF607FAD5CCF8002000229A4202F1E6
:1018C000010206D11E4622F00102964204D30134E1
:1018D000AEE7CEF80070F1E7CEF800700136F4E71D
:1018E00026600A46B7E726600133BDE7046001338E
:1018F000CCE710600133CDE7B4B0025024AC001443
:101900007CB00250D4B00250D8B0025078B002502F
:10191000F0B5294D85B02C462E680096009EF6073E
:10192000FAD500F1A05000F52C4080000568206831
:1019300001900198C707FAD52048214F056002EBB6
:101940008306B24229D15A1C1D4E22F00102002703
:10195000934227D323680293029BDE07FAD5194BE3
:101960000B449B001B681F335B099A4213D221680A
:1019700003910399C907FAD5154400219B1A104A0F
:1019800005600846994210D35A1C0D4922F0010205
:10199000002093420CD305B0F0BD52F804EBC7F819
:1019A00000E0CEE737600133D2E710600131E9E7AC
:1019B00008600133EDE700BFB4B00250D4B002506C
:1019C000D8B0025024AC001410B5494B94B019465D
:1019D0001A680092009AD207FAD5464B464A1A6016
:1019E0000A680192019AD407FAD5444A1A600A6833
:1019F0000292029AD007FAD5414818600A68039209
:101A0000039AD207FAD53F4A1A600A680492049AE8
:101A1000D407FAD53C4A1A600A680592059AD2079B
:101A2000FAD53A4A1A600A680692069AD407FAD595
:101A3000374A1A600A680792079AD207FAD5354AD8
:101A40001A600A680892089AD407FAD5324A1A60CE
:101A50000A680992099AD207FAD5304A1A600A68C8
:101A60000A920A9AD407FAD52D4A1A600A680B928C
:101A70000B9AD207FAD52B4A1A600A680C920C9A74
:101A8000D407FAD5284A1A600A680D920D9AD2072F
:101A9000FAD5264A1A600A680E920E9AD407FAD529
:101AA000234A1A600A680F920F9AD207FAD5214A80
:101AB0001A600F4B19461C681094109CE407FAD565
:101AC0000C4B1860086811901198C407FAD51A6079
:101AD0000A681292129AD007FAD5174A1A600A6851
:101AE0001392139AD207FAD5144A1A6014B010BD93
:101AF000B0B0025080B0025080906521000409907F
:101B0000409665908080612180200821802064902B
:101B10000081619000461021008111210041442183
:101B200080202029024610C80086092180206021DB
:101B3000402128294096652140962529594614C8F8
:101B400010B5544B98B019461A680192019AD20701
:101B5000FAD5514B514A1A600A680292029AD40788
:101B6000FAD54F4A1A600A680392039AD007FAD549
:101B70004C4818600A680492049AD207FAD54A4A77
:101B80001A600A680592059AD407FAD5474A1A607E
:101B90000A680692069AD207FAD5454A1A600A6878
:101BA0000792079AD407FAD5424A1A600A6808923F
:101BB000089AD207FAD5404A1A600A680992099A27
:101BC000D407FAD53D4A1A600A680A920A9AD207DF
:101BD000FAD53B4A1A600A680B920B9AD407FAD5D9
:101BE000384A1A600A680C920C9AD207FAD5364A1B
:101BF0001A600A680D920D9AD407FAD5334A1A6012
:101C00000A680E920E9AD207FAD5314A1A600A680B
:101C10000F920F9AD407FAD52E4A1A600A681092CA
:101C2000109AD207FAD52C4A1A601A4B19461C682A
:101C30001194119CE407FAD5174B186008681290AC
:101C40001298C407FAD51A600A681392139AD0073B
:101C5000FAD5124A1A600A681492149AD207FAD571
:101C60001E4A1A600A681592159AD407FAD51C4ABA
:101C70001A600A681692169AD007FAD5194A1A609D
:101C80000A681792179AD207FAD5174A1A6018B03D
:101C900010BD00BFB0B0025080B00250009365216B
:101CA00000043190409665900083612100C330218B
:101CB00000C36490008161900046102100811121D1
:101CC0000041442100C320290C4610C80086312160
:101CD00000C3602140C1282940966521001331903E
:101CE00040962529594614C8400432492DE9F0414F
:101CF000814B1D6898682033A0B01E461A68019277
:101D0000019AD707FAD57D4B7D4A1A603268029254
:101D1000029AD407FAD57B4A1A607B4A14461168A6
:101D200003910399C907FAD5784A1168C1F3402194
:101D300037680497049FFF07FAD5754F1F6027681F
:101D40000597059FFF07FAD51768002900F0CF8097
:101D5000B90540F1CC80316806910699CF07FAD5D4
:101D60006C491960216807910799C907FAD511686C
:101D7000C1F3402137680897089FFF07FAD5664FDF
:101D80001F6027680997099FFF07FAD51268002985
:101D900000F0AF80910540F1AC8032680A920A9A57
:101DA000D207FAD5564A1A6032680B920B9AD707B7
:101DB000FAD55A4A1A6031680C910C99CC07FAD5B9
:101DC0005749196031680D910D99C907FAD55549E0
:101DD000196031680E910E99CF07FAD552491960F2
:101DE00031680F910F99CC07FAD550491960504BC3
:101DF0001E46196810911099C907FAD53F4C4D4BF2
:101E0000236033681193119BDB07FAD54A4B23609B
:101E100033681293129BDF07FAD5484B23603A4B85
:101E20009846196813911399C907FAD5324F38604B
:101E300033681493149BDB07FAD52260336815933B
:101E4000159BD807FAD53E4B236033681693169B33
:101E5000D907FAD53B4B236033681793179BDA07F2
:101E6000FAD5394B236033681893189BDB07FAD5F2
:101E7000364B236033681993199BD807FAD5344B36
:101E8000236033681A931A9BD907FAD5314B236024
:101E900033681B931B9BDA07FAD52F4B236000F0A6
:101EA000D3F908BBD8F800301C931C9BDB07F9D58D
:101EB0003D6033681D931D9BD907FAD5274B2360DE
:101EC00033681E931E9BDA07FAD5254B2360D8F89A
:101ED00000301F931F9BDB07F9D50C4B1B6813F4D5
:101EE000805F204B08BF184620B0BDE8F0811E4837
:101EF000FAE71E48F8E700BF90B0025080B00250E9
:101F000000100251C01F7229B4B0025088B00250B4
:101F1000C0CF0129C01F0E29C03F0029400102493E
:101F2000003184A800001649400108A180440888B7
:101F3000B0B00250C044708880077A41C0077E412B
:101F400000006A498006164940006E4900020021DF
:101F500000822021408220218082242140A161A191
:101F600000C861510308F1000108F1000208F10006
:101F700008B540B1202801464FF0070228BF2021B4
:101F80000020FFF72BFC024B00221A6008BD00BFA7
:101F90001CB802507FB51C681CB901F01F041F2C2F
:101FA00027D1174C254626680196019EF607FAD5DB
:101FB00000F1A05000F52C40800000682C680394CC
:101FC000039CE407FAD50F4C00EB611020600E482B
:101FD00001F01F04006802901F2C18BFC94302982B
:101FE0000FBF106001F01F0100FA01F11160002124
:101FF000196010684300C00F136004B070BD00BFCB
:10200000B4B00250E4B00250DCB0025030B51E4B08
:1020100085B01A46196800910099CC07FAD500F1ED
:10202000A05000F52C408000016813680193019BCB
:10203000D807FAD5154B164C1868164D1F302023BB
:1020400090FBF3F00138002810DA00230130400142
:1020500053B1A0F120014FF00042134204D10138E6
:1020600081424FEA5202F8D105B030BD13680393A4
:10207000039BDB07FAD5431823602B680293029B6E
:10208000002BE3D10138DEE7B4B00250ACB002500F
:10209000E4B00250DCB002500A460021AFF30080E9
:1020A00038B5A0F12003B3F5426F05462CD88F2830
:1020B00026D800F1470300F16604DB064FEA54140A
:1020C00000D0013464013F34A409013411B1A142AC
:1020D0001AD30C46E3004FF48050B0FBF3F02028F5
:1020E00028BF202002B11060084B01221A6021464F
:1020F00000F068F82846214600F088F8002038BD36
:1021000000F11F046409DDE7014838BD1CB8025026
:102110002221F00070B5264888B005460468009476
:10212000009CE607FAD52348234C0460234C44EA7C
:1021300083432C680194019CE407FAD50360930162
:1021400043EA824242F0104444F4C0442B680293B4
:10215000029BDE07FAD504602B680393039BDB0721
:10216000FAD5174B03608B0143EA814141F01043DC
:1021700043F4C0432E680496049EF607FAD5036024
:102180002B680593059BDE07FAD5046041F05841A2
:102190002B680693069BDC07FAD5016042F0584293
:1021A0002B680793079BDB07FAD5026008B070BD68
:1021B000B0B0025080B00250C02102298071009856
:1021C0008061189030B500220C4C4900134602384B
:1021D00040F6FC75904202F10102CABF23602560FF
:1021E0005B181E2A04F10404F4D1054A1944136053
:1021F000044B054A19609A6030BD00BF00B0025020
:1022000078B002507CB0025020F80F000C4B1860E0
:102210003F3020F03F008901403058609960D9601C
:102220001961596199611C330648196082B00268CE
:102230000192019AD207FAD5196002B0704700BF27
:1022400090B00250B4B002502DE9F04192B0012399
:1022500003930493624B1D461A680592059AD207B0
:10226000FAD5604C604B2360604B19461A680692A1
:10227000069AD707FAD55E4B1A68D60400F1A880F3
:102280002A680792079AD007FAD55A4A22600A6844
:102290000892089AD207FAD51E68C6F30036002EB7
:1022A00040F098801220FFF7B1FE07461320FFF799
:1022B000ADFE87428CBF12201320FFF7A7FE471EFA
:1022C000FFF734F903AB01AA39461220FFF762FE8B
:1022D00004AB804602AA39461320FFF75BFE00EBF1
:1022E0004800022832D003283ED0012874D12B6840
:1022F0000993099BDB07FAD53F4B23602B680A93B0
:102300000A9BD807FAD53D4B23602B680F930F9B90
:10231000D907FAD53A4B23602B681093109BDA0744
:10232000FAD5384B23602B681193119BDB07FAD544
:10233000354B2360013F25D5102319221821002099
:10234000FFF7E8FE304612B0BDE8F0812B680B9332
:102350000B9BD907FAD52D4B23602B680C930C9B54
:10236000DA07FAD52A4BCFE72B680D930D9BDB07D5
:10237000FAD5284B23602B680E930E9BD807FAD50D
:10238000254BC1E703AB01AA39461220FFF702FE35
:1023900004AB044602AA39461320FFF7FBFD10EBFD
:1023A000440402D1FFF7CCFBC4E7FFF70DFB022C7E
:1023B00008D0032C09D0012C10D117211620FFF7CB
:1023C00043F9B7E715211420F9E70F210E20F6E7AE
:1023D000124EB7E7124EB5E7124EB3E7124EB1E711
:1023E000B0B0025080B0025000084A51B4B0025060
:1023F00088B0025000084E5100065A4940065E4916
:10240000000442410014424940042E49000652494A
:102410004006564900063A4940063E490608F10082
:102420000708F1000408F1000508F100014B1860ED
:10243000704700BF08BA0250014B1860704700BFD8
:1024400004BA0250094BC2431A60043B82B01B68B5
:102450000193074B019A104204D0064A1060186895
:1024600002B0704720BF1A680192F3E704BA025025
:102470009CAA002008BA0250FEF7D6BFFEF7FEBFA6
:102480000A460021FEF7FABF2DE9F74305460E463E
:102490009946114600F060FA0446002840F0848016
:1024A000002E00F08580002900F08480B9F1200F13
:1024B00040F0828005F14404082205F1040820461A
:1024C000FFF726F805F12407082231464046FFF7BA
:1024D0001FF806F1200108223846FFF719F802A973
:1024E0004FF4807041F8049DFFF7D6FD002865D1B8
:1024F000334A4FF480731360012193600823314AFB
:10250000FFF706FA0121084605232F4AFFF700FAD4
:102510000823424601211C20FFF7FAF908233A4616
:1025200001210320FFF7F4F92246082301210220AC
:10253000FFF7EEF90823254A01211A20FFF7E8F9F1
:102540000523234A01211B20FFF7E2F90823214A32
:1025500001211420FFF7DCF908231F4A012115206F
:10256000FFF7D6F9082305F1640201211620FFF7D1
:10257000CFF9082305F1840201211720FFF7C8F9DC
:102580000823164A01210B20FFF7C2F9FFF7AEFB23
:1025900004460198FFF7ECFC114B002C18BF1C46B9
:1025A000A4212846FFF76CFF204603B0BDE8F08366
:1025B0000C4CF9E70C4CF7E70C4CF5E7084CEFE74F
:1025C00090B0025064CA0F00DCCA0F0024CA0F008A
:1025D000C8CA0F0088CA0F00A8CA0F0044CA0F005B
:1025E0008408F0007608F0008008F0008108F00010
:1025F00038B50D460446B0B1A02200210430FFF7E3
:102600003DFF95B12946082204F16400FEF780FFE2
:10261000082205F1200104F18400FEF779FF044B44
:102620002360002038BD034838BD034838BD00BFD3
:10263000DD55AABB7108F0008308F0002DE9F041D8
:10264000069F044615461E46FFF7D2FF38B93B46A3
:10265000324629462046BDE8F041FFF715BFBDE8E8
:10266000F08100002DE9FF41144B04460E460FCBCC
:102670008DE80F00204600F07FF98046B0B9CEB15A
:10268000636A251D01953BB901236362226F04F142
:102690003001684600F088F82B46043E243453F895
:1026A000042B12BAA34246F8042FF8D1404604B0D6
:1026B000BDE8F081DFF80880F8E700BFF4C90F003B
:1026C0000502F00038B5044668B1051D28467021A2
:1026D000FFF7D6FE284620220449FFF7CDFE044B23
:1026E0002360002038BD034838BD00BF04CA0F0076
:1026F000DD55AABB0002F000294B2DE9F04304464A
:102700000E4615460FCB85B06F468DE80F002DB9EC
:102710004FF00009484605B0BDE8F083204600F0C0
:102720002BF981460028F5D1231D0193636AA3BBD1
:10273000236F8BB1C3F14008A84528BFA84604F118
:102740003000314618444246FFF796FE236F43445B
:1027500046442367A5EB0805226F402A06D104F101
:102760003001384600F020F80023236705F03F08C9
:1027700035F03F0505D031462A46384600F014F8BA
:102780002E44B8F1000FC3D04246314604F1300068
:10279000FFF772FEC4F87080BCE7DFF80890B9E775
:1027A000F4C90F000C02F0002DE9F74F314B4468DB
:1027B0008046924699461A68002AFCD12E4B9B46C9
:1027C0001A68002AFCD14FF0FF300191FFF72EFE6E
:1027D0008020FFF731FE294D294A2A4F2A4E012336
:1027E00007202B60A2F59E72C2F83C011360636A59
:1027F0003B60A36A3360D8F8003042F8043CD8F854
:102800000830204698470199D9F80030002BFBD1B9
:10281000BAF1000F20D11D4B04221A60D9F8003004
:10282000002BFBD1DBF800A0BAF1000FFAD1D8F8E9
:102830000C30204698473B6863623368A362144BB0
:10284000C3F800A0C3F844A1D9F80030002BFBD195
:102850002B6003B0BDE8F08F236A012B04BF0C4A44
:1028600013600C4B40201960C3F804A0FFF7EAFD89
:10287000D4E700BF10B9025020BC025018B8025073
:1028800000B90250CCB70250D0B70250C8B70250BE
:1028900084B6025028BC0250084B1B681B0EF02B5C
:1028A00008D1074B1A68074B9A4205D1064B002006
:1028B00018607047052070470620704728B90250FD
:1028C00024BA02500000E0200CBA02500C4B1B68E6
:1028D000C3610C4B1B6883610B4B1B6843610B4B43
:1028E0001B6803610A4B1B68C3600A4B1B6883604B
:1028F000094B1B684360094B1B680360704700BFAE
:102900005CB6025058B6025054B6025050B602504F
:102910004CB6025048B6025044B6025040B602507F
:102920000C4BC2691A60826943F8042C426943F86F
:10293000082C026943F80C2CC26843F8102C8268FA
:1029400043F8142C426843F8182C026843F81C2CF6
:10295000704700BF5CB6025030B10268034B0448B8
:102960009A4208BF0020704702487047DD55AABB55
:102970008208F0007108F00030B10268034B04488F
:102980009A4208BF0020704702487047DD55AABB35
:102990000202F0000002F0002DE9F0411E4E4FF45B
:1029A0008271D6F8040130B11C48C268521CC26062
:1029B000304605F07FFE00254FF4A07707EB850138
:1029C0008AB23046B25812B389B205F073FE13488A
:1029D000103000EB0514204608F07EFB104811492A
:1029E0002246401AC008042101EB00400EA105F068
:1029F00037FC616819B1204608F0C2FA07E0A16807
:102A000011B1204608F0BCFA206800B180476D1C67
:102A1000022DD3D3BDE8F08100400240C45700200E
:102A200080CB0F0030CB0F0074696D65725F6669F3
:102A300072652028307825782900000000F02EB932
:102A400070B50E46144900EB400001EBC00514467A
:102A5000E86A183520B101280FD0022805D113E00B
:102A6000284600F051F9A04201D2002411E022468C
:102A70003146284600F080F90BE0284600F044F982
:102A8000A042F4D20446F2E73146284600F047F966
:102A90000446204670BD0000149A002005F0E6BFF1
:102AA00030B54FF0805000228300D0F83011C3F8C9
:102AB0000C21C3F81021624B1A60624B1B68624CF8
:102AC0002360604B1B1D1B68241D23605D4B083376
:102AD0001B68241D23605B4B0C331B68241D236083
:102AE000584B10331B68241D2360564B14331B684E
:102AF000241D2360534B18331B68534C2034236030
:102B0000504B1C331B68241D23604E4B20331B6825
:102B1000241D23604B4B24331B68241D2360494B29
:102B200028331B68241D2360464B2C331B68241D4F
:102B30002360444B30331B68434C40342360414B8B
:102B400034331B68241D23603E4B38331B68241D1F
:102B500023603C4B3C331B68241D2360394B4033BE
:102B60001B68241D23600124082902D1D0F83431C8
:102B700013B1082904D006E0354B3449196005E04B
:102B8000D0F8343113B1082904D006E0314BFB21D1
:102B9000196005E0D0F8343113B1082908D00EE0EF
:102BA00090F858322C48016863F30301016002E099
:102BB000D0F834311BB929494FF400700860284817
:102BC0000168C90702D06FF0010101602548016862
:102BD00041F470010160BFF34F8FBFF36F8F4FF06F
:102BE0001021D1F80002002803DBD1F804020028EC
:102BF00022DA1D4B1C601D480468002CFCD01224F6
:102C0000C1F800420568002DFCD0C1F804420168FB
:102C10000029FCD01A6001680029FCD0BFF34F8F57
:102C200010487C380168124A01F4E06111430160E8
:102C3000BFF34F8F00BFFDE70F490E48086030BD5E
:102C4000380500400404001020C5004048810300FE
:102C50008C56004018F50040E40E004040960240BB
:102C60000004004088ED00E004E5014000E401407C
:102C70000400FA050090D003BC580020064808B5AF
:102C8000002101600068009005F0A6FB05F076F9D0
:102C90000028FBD108BD00000001014010B5124C16
:102CA00002202061606111A0A06104F17800E06160
:102CB0004FF4805020620020A06260620BA1A164EA
:102CC000E0620D49E1641021A065C4E91410E065DB
:102CD0000AA1E01DFEF7EFFB09A12046FEF7EBFB82
:102CE0002020A07110BD0000149A00205465726D60
:102CF000696E616C000000008CAA002052545400E0
:102D000053454747455200000269C1688A4203D8CB
:102D10008068401A104400E0501A401E70472DE9A8
:102D2000F047C4681746894606464FF000083069E8
:102D3000A04201D9051B02E0B168201A0D1AB06843
:102D40006D1E001BA84200D80546BD4200D33D467B
:102D500070682A4620444946FEF766FBB0687F1B30
:102D60002C44A844A944A04200D10024F460002FC0
:102D7000DDD14046BDE8F0872DE9F04104468846A4
:102D8000D4E90207C51BE168606816460844B542ED
:102D900006D94146FEF748FBB819E060BDE8F0816E
:102DA0002A464146FEF740FB761B08EB05013246FA
:102DB0006068FEF739FBE660F0E702E008C8121F22
:102DC00008C1002AFAD170477047002001E001C114
:102DD000121F002AFBD170470121202803DA81400D
:102DE0000548014003E0402802DA2038814009B15B
:102DF0000120704700207047FC06FFBD800701D00E
:102E0000002070470120704740680068401E08425B
:102E100001D10120704700207047C3688B4206D85B
:102E200011440069491E814201D8012070470020E9
:102E30007047000030B585B00D46164C1621ADF830
:102E400000101ECC0DF1040C8CE81E00124C022167
:102E5000012221706270A0700320E070217159205E
:102E60006071FE20A071694604F109007DDF002831
:102E70000ED1BDF800002A46411CE17109212172E2
:102E8000BDF808100844ADF8080001A9034872DF36
:102E900005B030BDB0B60F00F46C00200058002023
:102EA00030B58FB0062518222B4906A8FEF7BCFACC
:102EB0002A482B49401AC108042000EB014004466F
:102EC00028A105F0C9F90020029003900490059014
:102ED000102202A92748FEF7E1FA0028204637D041
:102EE00025A105F0B9F902208DF82C002148042510
:102EF00010300C9010380D9001210CA86EDF18498D
:102F0000164A511AC908022202EB014430B105F0F9
:102F1000A5FE0246204620A105F0A2F901220021CB
:102F20000DA86FDF30B105F099FE0246204624A1BE
:102F300005F096F906A92846FFF77CFF002805D181
:102F40002B4C207874DF0121207873DF0FB030BD67
:102F500028A105F081F9EDE7C0B60F0038CB0F00CE
:102F600030CB0F004164766572746973696E672EA9
:102F70002E2E0000186D002049524B20466F756EB2
:102F8000642C2073657474696E672075702077688F
:102F90006974656C6973740073645F626C655F6704
:102FA00061705F77686974656C6973745F73657469
:102FB00028292072657475726E656420257300007F
:102FC00073645F626C655F6761705F646576696397
:102FD000655F6964656E7469746965735F73657450
:102FE00028292072657475726E656420257300004F
:102FF000005800204E6F2049524B20666F756E645A
:103000002C2067656E6572616C20646973636F76EE
:10301000657279002DE9F05FDFF89CB05C46DBF863
:103020004890DBF8246003F079F8216B4718751A93
:1030300022482349401AC108042000EB0140804681
:1030400020A105F009F9216B4944B94200D10025BE
:1030500008232A46384601F089FD07001848174919
:103060004FF0010AA1EB00004FEAD0010AEB014446
:1030700004D020461AA105F0EFF819E003F04EF84D
:103080000022314601F072F9DBF828200546D946C6
:10309000AA4208D1404619A105F0DEF8C9E9075A4D
:1030A000C9F8186004E020462B461A4905F0DFF8FD
:1030B0003846BDE8F09F00002081002080CB0F0043
:1030C00030CB0F00456E746572206E72665F646669
:1030D000755F6170705F636F6E74696E7565000017
:1030E0004661696C656420746F20636F7079206637
:1030F00069726D776172652E00000000536574740B
:10310000696E67206170702061732076616C6964FC
:103110000000000090BB0F0008B513460246009364
:103120000648074BC01AC008012303EB00400B46BA
:1031300004A105F0A4F806F051FA000080CB0F00BE
:1031400030CB0F0052656365697665642061206647
:1031500061756C74212069643A20307825303878A4
:103160002C2070633A203078253038782C20696E16
:10317000666F3A20307825303878000002460648DD
:103180000649401AC008012101EB004004A105F0E6
:1031900067F806F023FA000080CB0F0030CB0F0059
:1031A000526563656976656420616E206572726F31
:1031B000723A203078253038782100002DE9F84F18
:1031C000254C8146924660880E46814241D80027B0
:1031D0004FF6FF788DF80070684600F075F8227899
:1031E0006078A188884201DA401C00E00020C0B26B
:1031F000904204D19DF8000000F0B2F827E0657815
:103200006078884201DA401C00E0002060709DF880
:10321000000000F0A5F8454519D0A068B9F1000FED
:1032200040F835A00DD066B16188E068324605FBF4
:1032300001004946FEF7F8F8A06800EBC50086805B
:1032400002E000EBC50087800020BDE8F88F042075
:10325000FBE70920F9E700004058002010B50E4CAC
:1032600003E0401C00E0002020702078617881425B
:1032700010D022786188E068A36802FB010003EBAC
:10328000C20153F83220898890472078A18888426B
:10329000E9DAE6E710BD00004058002030B5CB0069
:1032A00008339DB293074FF0000401D0072030BDD2
:1032B000044B9A602A44DA605C701C7058809980D4
:1032C000002030BD4058002070B5044606F0F0FFE5
:1032D000012803D010A11D2000F086F8EFF3108123
:1032E00072B61D4A9368012083B990604FF0E020C8
:1032F000D0F88051194B1D401560C0F88031D0F8CE
:10330000843153604217C0F88421002020700029C6
:1033100000D162B670BD00002E2E5C2E2E5C2E2ECB
:103320005C2E2E5C2E2E5C636F6D706F6E656E74FE
:10333000735C6C69627261726965735C7574696CE7
:103340005C6170705F7574696C5F706C6174666FDE
:10335000726D2E63000000004C860020FC06FFBD4D
:1033600010B5044606F0A4FF012803D00DA12B20C0
:1033700000F03AF81B498868002811D0002C0FD1C2
:10338000EFF3108072B60B684FF0E022C2F8003104
:103390004B68C2F8043100228A60002800D162B66E
:1033A00010BD00002E2E5C2E2E5C2E2E5C2E2E5C70
:1033B0002E2E5C636F6D706F6E656E74735C6C69DE
:1033C000627261726965735C7574696C5C6170705E
:1033D0005F7574696C5F706C6174666F726D2E637B
:1033E000000000004C8600201CB56A46ADF80000C5
:1033F0000191002144F20200FFF78EFE1CBD000087
:10340000F8B521480146456AC06A8C6CAC2801D0E9
:1034100024B106E0486B04442D1A02E002F092FE4B
:1034200004461A481A492346401AC708042000EBEC
:1034300007400646174A18A1009504F020FF2A46C7
:1034400021461448FEF72AF8D0B130462B462246D2
:103450001FA104F00CFF00BF04F090FD0028FBD179
:1034600002F078FB2946204603F05AFA040005D002
:10347000012000EB074022A104F0EEFE2046F8BD3B
:103480000024304625A1F7E72081002080CB0F00E3
:1034900030CB0F0000100F00566572696679696EB7
:1034A0006720424C3A20416464723A2030782530DB
:1034B00038782C205372633A203078253038782CB5
:1034C000204C656E3A2030782530387800000000B6
:1034D000436F7079696E6720626F6F746C6F61649F
:1034E00065723A205372633A203078253038782C50
:1034F000204C656E3A203078253038780000000086
:103500005265717565737420746F20636F707920D4
:10351000424C206661696C65640000004E6F206259
:103520006F6F746C6F6164657220636F7079206E69
:1035300065656465642C20626F6F746C6F6164658F
:10354000722075706461746520636F6D706C657452
:10355000652E000030B595B0040004D12E4940F22C
:103560002E40FFF741FF2D494FF6FF70224648805D
:1035700001208DF812004FF65960ADF8100004A933
:103580000120A8DF002844D1254B0FCB8DE80F0088
:10359000A11C684662DF00283BD121491C2260390A
:1035A0000BA8FDF741FF1F4D142205F1C401A868C7
:1035B0001290A0788DF84A002868139006A8FDF7AD
:1035C00033FF12A8069013A807902088231D06AA8F
:1035D0000BA9AADF00281CD11C2205F1D8010BA8D9
:1035E000FDF722FFE8681290A0788DF84A0068681D
:1035F0001390142205F1F40106A8FDF715FF12A897
:10360000069013A80790208804F10C0306AA0BA9C2
:10361000AADF15B030BD00007CBC0F0000580020B0
:1036200088B70F0080B60F00F0B585B00D460400D6
:1036300004D1374940F26910FFF7D6FE25B9344965
:103640004FF4B570FFF7D0FE14216846FDF714FF64
:103650002078032308280BD12E48C188491E89B23F
:10366000C1808288002A4BD0002949D1C2802370B2
:103670002178607860228DF800208DF801108DF897
:10368000020063780325012B16D0234823492278B2
:10369000401AC008022101EB004021A104F0E7FD1F
:1036A00060780B2828D101F027F98DF8030000205D
:1036B00001F02AF904251FE0207809281CD2DFE850
:1036C00000F01B1B1B211B1B051B2100D4E90270F2
:1036D0006D46E91C666807F025FD04462919304649
:1036E000C91C07F01FFD044429193846C91C07F0FE
:1036F00019FD2044C01CC5B22946684606F0C2FE2A
:1037000005B0F0BDD4E90112684606F0ABFEF1E762
:103710007CBC0F000058002038CB0F0030CB0F00CE
:103720004446552072657175657374202564206662
:1037300061696C65642077697468206572726F7264
:103740003A203078257800002DE9F0411D4C002604
:10375000217AC90733D01C49884230D01B481C4904
:10376000401AC108042000EB0140054619A104F0ED
:1037700073FD6088A0F57F41FF3916D028461DA152
:1037800004F06AFDA068132140F00400A060608886
:1037900076DF002814D11B4CC8264FF47A47611CF1
:1037A00038468847761EFAD101E0207874DF05F0AC
:1037B000F9F8060003D1284613A104F04DFD304668
:1037C000BDE8F0810058002018CB0F0038CB0F0067
:1037D00030CB0F005368757474696E6720646F771F
:1037E0006E20424C45207472616E73706F72742E3D
:1037F00000000000446973636F6E6E656374696EE8
:10380000672E000090B60F00424C45207472616E26
:1038100073706F7274207368757420646F776E2E86
:103820000000000070B51F4D06460020297AC90728
:1038300037D11D481D49401AC108042000EB014042
:1038400004461BA104F008FD2148EE6001F004FECF
:1038500000F01CFB002824D103F0B4FB38B1204653
:103860001CA104F0F9FC204803F0A0FB02E00320B7
:10387000FFF784FC01F01EF9002812D11A484030ED
:10388000FFF768FE00280CD1FFF70AFB002808D1DB
:10389000A86816A140F00100A860204604F0DCFCF6
:1038A000002070BD0058002038CB0F0030CB0F0037
:1038B000496E697469616C697A696E6720424C452A
:1038C00020444655207472616E73706F72740000EC
:1038D000A0CB0F00436F7079696E672070656572C9
:1038E0002064617461000000146D0020424C45208A
:1038F000444655207472616E73706F727420696EE5
:10390000697469616C697A65642E00002DE9FE4373
:10391000A249A34B0122591AC9080746051D02EB0B
:103920000148008804229F4E4FF0000902EB014439
:1039300021286ED037DC13286CD01EDC01286AD019
:10394000102854D0112868D0122879D1204696A189
:1039500004F082FCEA8820469DA104F081FCAA883C
:103960002046A1A104F07CFC2A892046A4A104F0F1
:1039700077FC6A892046A7A1ECE0142875D01A28A4
:1039800074D01F285CD12046A8A104F065FC291D35
:10399000708875DF040053D040462246AFA104F082
:1039A0005FFC20461FE051287AD00EDC222878D018
:1039B000232868D024287BD0502877D103B03946FB
:1039C000BDE8F043B34805F02FBF5228D8D05528A2
:1039D00037D056286AD1B879002867D1132170886A
:1039E00076DF002862D0BDE8FE43FFF7C7BB204664
:1039F000A9A104F031FC28887080F16809B1012088
:103A00008847A849708875DF02004FD04046A6A1BC
:103A1000A0E07FE055E087E0FFE74FF6FF707080A1
:103A2000307A400704D4FFF73BFA08B1FFF7A6FB52
:103A3000F16800293AD003B00220BDE8F0430847FE
:103A400034E0FA88F72A14D29007B0F1404F0ED034
:103A5000D01F81B2481EC31700EB937323F00303FA
:103A6000C01A081A801D85B204E078E089E0154686
:103A700000E0F72520462B46974904F0F8FB29463D
:103A80007088B5DFADE7204694A104F0E5FBCDF8E2
:103A90000090CDF80490B8880022694690DF2DE0B0
:103AA00046E02EE004E000BFFFF768FBBDE8FE83C0
:103AB0006B89EA8803B02046BDE8F04394A104F086
:103AC000D6BB2046A2A104F0C7FB764801AA16384F
:103AD00042F60521806A0190CDF808D07088ADDFEC
:103AE00008B1FFF74BFB2046BDF80020A2A104F06F
:103AF000B7FB00231A46852170887FDF0028D3D1C9
:103B0000D4E7287900906B79AA792046A3A104F024
:103B1000B6FBCBE72046B0A104F09EFBCDF80090A9
:103B2000288869468FDFE9E70021708866DF58E75B
:103B3000B8790028BAD03946564805F031FE002839
:103B4000B4D007F10801534805F0BCF90200ADD02C
:103B50004046ACA103B0BDE8F04304F081BB204671
:103B6000B5A104F079FB4B4AA889403A0021D38DD6
:103B7000984201D102F11C0100232888121D86DF22
:103B80002FE706F05DFE08B1FFF7F8FA03B0204614
:103B9000BDE8F043B2A104F05FBB000030CB0F00E2
:103BA00038CB0F0000580020526563656976656464
:103BB00020424C455F4741505F4556545F434F4E4E
:103BC0004E5F504152414D5F5550444154450000B5
:103BD0006D61785F636F6E6E5F696E74657276613A
:103BE0006C3A2025640000006D696E5F636F6E6E35
:103BF0005F696E74657276616C3A2025640000001E
:103C0000736C6176655F6C6174656E63793A2025CB
:103C100064000000636F6E6E5F7375705F74696D32
:103C2000656F75743A202564000000005265636575
:103C30006976656420424C455F4741505F45565464
:103C40005F434F4E4E5F504152414D5F555044418E
:103C500054455F5245515545535400004661696CC7
:103C600075726520746F2075706461746520636F70
:103C70006E6E656374696F6E20706172616D6574DC
:103C8000657220726571756573743A203078257895
:103C900000000000546D0020436F6E6E6563746514
:103CA0006400000096B60F004661696C757265206D
:103CB000746F2075706461746520636F6E6E6563E8
:103CC00074696F6E20706172616D65746572733AAC
:103CD000203078257800000034BC0F005265636501
:103CE0006976656420424C455F4741505F455654B4
:103CF0005F444154415F4C454E4754485F555044E2
:103D00004154455F524551554553542E0000000023
:103D1000526563656976656420424C455F47415052
:103D20005F4556545F444154415F4C454E475448AB
:103D30005F555044415445202825752C206D6178ED
:103D40005F72785F74696D65202575292E0000000B
:103D5000526563656976656420424C455F47415012
:103D60005F4556545F5345435F504152414D535F49
:103D700052455155455354004343434420666F72A6
:103D80002073657276696365206368616E67656438
:103D900020697320307825303478000052656365DF
:103DA0006976656420424C455F4741505F455654F3
:103DB0005F5048595F555044415445202852583A65
:103DC00025642C2054583A25642C20737461747532
:103DD000733A25642900000052656365697665645D
:103DE00020424C455F4741505F4556545F5048590B
:103DF0005F5550444154455F524551554553542EEB
:103E000000000000436F756C64206E6F7420686161
:103E10006E646C65206F6E5F6374726C5F70745F4C
:103E200077726974652E206572725F636F64653A9C
:103E30002030782530347800526563656976656492
:103E400020424C455F4741505F4556545F534543C0
:103E50005F494E464F5F524551554553540000004F
:103E600046696E69736865642068616E646C696E2A
:103E70006720636F6E6E2073656320757064617474
:103E800065000000007800F00100704738B50020A0
:103E9000009002F051FD00282DD117481749184A0B
:103EA000401AC108042000EB0140044615A104F0AB
:103EB000D7F9134813DF00281DD1204619A104F0BB
:103EC000CBF904F099FD002815D1684604F0F8FB01
:103ED000002810D1204619A104F0BEF9694601203E
:103EE00004F0F8FB002806D120461AA104F0B4F92A
:103EF000684604F089FC38BD38CB0F0030CB0F008A
:103F000000100F0053657474696E67207570207619
:103F10006563746F72207461626C653A2030782535
:103F200030387800456E61626C696E6720536F6649
:103F3000744465766963652E00000000436F6E6609
:103F400069677572696E6720424C452073746163BE
:103F50006B2E0000456E61626C696E672074686547
:103F600020424C4520737461636B2E0009480A4956
:103F700010B5401AC008042101EB004007A104F06D
:103F80006BF90C4900200870BDE810400A4802F0A7
:103F900031BF000080CB0F0030CB0F00526573653E
:103FA0007474696E6720626F6F746C6F61646572A0
:103FB0002E000000B857002021A40F002DE9FC417D
:103FC0000646C0074FF000050ED0104F0024012216
:103FD000385D009500231146019503F079FE641CBD
:103FE000042CF4D300F064F8B0070DD5074E00247C
:103FF000361D0022305D032300951146019503F024
:1040000067FE641C042CF4D3BDE8FC81F6B40F00F9
:1040100010B50446042803D305A12120FFF7E4F9D5
:104020000E480121005DBDE8104003F0C7BE00004E
:104030002E2E5C2E2E5C2E2E5C2E2E5C2E2E5C6385
:104040006F6D706F6E656E74735C626F61726473B6
:104050005C626F617264732E63000000F6B40F003F
:1040600010B50446042803D305A11B20FFF7BCF9B3
:104070000E480021005DBDE8104003F09FBE000027
:104080002E2E5C2E2E5C2E2E5C2E2E5C2E2E5C6335
:104090006F6D706F6E656E74735C626F6172647366
:1040A0005C626F617264732E63000000F6B40F00EF
:1040B00010B500242046FFF7ABFF641C042CF9D395
:1040C00010BD00002DE9F8430546861C00208DF840
:1040D000000090460F464FF001096846FFF7F4F8DC
:1040E0001B4C20683860D4E90001401AA168081A06
:1040F00041F21C0167180EE00121384601F0D7F8A3
:1041000000F044FF0146384601F0D1F8D4E900013F
:10411000401AA168081A401C8642EDD8B8F1000F79
:1041200003D0052065F3891002E0062065F39F5057
:10413000A2682168114004EB8101C8602068304406
:1041400020609DF80000FFF70BF94846BDE8F883B2
:10415000F089002010B543689C18446021B905E03F
:1041600013F8010B01F8010B521EF9D2012010BD0A
:1041700030B482680468531C8360A154D0E90112F2
:104180008A4202D330BC03F0ABBA30BC70470000A7
:10419000034803C8814201D10120704700207047C5
:1041A000F089002010B50548012101F096F8BFF311
:1041B0005F8F08B1002010BD012010BDF85700200E
:1041C00010B5064C2068012803D005A16D20FFF72B
:1041D0000BF9BFF35F8F0020206010BDF85700205F
:1041E0002E2E5C2E2E5C2E2E5C2E2E5C2E2E5C63D4
:1041F0006F6D706F6E656E74735C6C696272617204
:104200006965735C6D757465785C6E72665F6D74FC
:10421000782E680004490020086004494FF480604B
:10422000C1F880017047000000A5025004E000E0E2
:1042300003490120086003498002C1F8000170476A
:1042400000A5025004E000E070B500F10805106818
:1042500014460E46202802D248F2145070BDFFF7D3
:10426000A1FF90B1FFF7E4FF31462846FEF7FAF9C7
:104270000546FFF7CFFFFFF7A3FF284600F052FCEB
:104280000028EBD12021216070BD48F2045070BDA0
:1042900010B50830FEF716FABDE8104000F042BC39
:1042A0002DE9F04700F108090E461446FFF77AFFA2
:1042B000B8B1FFF7BDFF4FF480584546AC4200D877
:1042C00025462A4631460E48FDF7AEF82A460C49E7
:1042D0004846FEF711FA0700A4EB05042E4404D06B
:1042E00005E048F20450BDE8F087002CE5D1FFF767
:1042F00091FFFFF765FF3846BDE8F04700F012BCBC
:10430000F45C002070B50B4800240460BFF35F8F9D
:10431000094D01202860FEF7BFFA01002C604FF024
:10432000030004D0052901D148F2035070BD0020DC
:1043300070BD0000F857002000A502500149002080
:104340000860704700A5025010B5040003D105496C
:10435000C520FFF749F80448C16B6160006CA0609C
:1043600010BD0000CCBD0F0020810020F0B54FF043
:10437000FF3622B11268D24300230A4D0DE03246C7
:10438000FAE7C45C62400824D70700D037462F40C4
:1043900087EA5202641EF7D15B1C8B42F1D3D043F3
:1043A000F0BD00002083B8ED10B504460068401C45
:1043B00007D0204606F0FEFA2168814201D1012093
:1043C00010BD002010BDF0B5146906468DB0206800
:1043D0001546271DE0B1022920D00A2000906B4627
:1043E00009AA304605F0EAFF00280FD009A901A864
:1043F000009A05F0EBFD01AE96E80F0005AE86E8E9
:104400000F00236869683A4605A898470DB0F0BDCB
:104410000DB03046BDE8F04005F04CBE6946304670
:1044200005F0DEFD0028F1D0236869683A46684649
:1044300098470028EAD002980028F5D101987060CA
:104440000120E3E753685B7813F0C00303D0402BEF
:1044500003D00020704700F003B8FFF7B4BF00009E
:104460002DE9FF410B465168064614464878334D06
:1044700000F00F0210F0300055F8225006D010283E
:1044800006D0202808D0302856D13EE022694DE0E1
:1044900061690120087047E0022B28D1042A26D840
:1044A0004FF0010869463046676905F099FD00281C
:1044B0001AD009E00B79226913FB00226846A8474D
:1044C00070B13878401C3870029820B16168387833
:1044D0004A799042EED301987060029860BB02E086
:1044E0004FF00008F7E7404604B0BDE8F081D4E99A
:1044F00004300F79027817FB023349798A421BD2C4
:10450000521C02701A46616810E008786169072A37
:10451000087009D1606801792069FCF7ADFF606817
:104520002169806805F077FD2269616804B0304632
:10453000AC46BDE8F04160470020D5E748BA0F001F
:1045400038B51C4901200A68D20301D5000407E0F0
:1045500019490A6812F0A90F04D0086800F0560043
:104560000860002001F068FD1449154A891AC9083D
:10457000042202EB0144B8B119200090684603F010
:10458000EFFBD0F810050099C84010F0010F0ED0D5
:104590000948001F006810F0B10004D0204609A1AE
:1045A00003F05AFE012038BD20460FA1F8E720464F
:1045B00016A1F5E7000400402005004080CB0F0065
:1045C00030CB0F00444655206D6F646520726571D5
:1045D000756573746564207669612047505245475C
:1045E0005245542E00000000444655206D6F64650E
:1045F0002062656361757365206170702069732046
:104600006E6F742076616C69642E000044465520FC
:104610006D6F64652072657175657374656420766D
:10462000696120627574746F6E2E0000FEB51949C1
:104630000446086808B1401E08601748174AD4E9C4
:104640000153801AC008042202EB004022789DB179
:104650000E6821690296CDE900312B46012A16D059
:104660000FA211A103F01EFE6169002911D0E068BC
:1046700003B0BDE8F040084709680091012A04D062
:1046800007A218A103F0FBFDEEE720A2F9E71FA2A5
:10469000E7E7FEBD1858002040CB0F0030CB0F00DD
:1046A0006572617365000000466C61736820257354
:1046B000206661696C6564202830782578293A2065
:1046C000616464723D25702C206C656E3D307825E8
:1046D000782062797465732C2070656E64696E67EA
:1046E00020256400466C6173682025732073756310
:1046F000636573733A20616464723D25702C207089
:10470000656E64696E6720256400000077726974C5
:104710006500000010B508281BD2DFE800F0041285
:104720001A1A1A041A040120FFF748FC0020FFF7A8
:1047300097FC0120FFF794FCBDE810400220FFF732
:1047400067BC0120FFF764FCBDE810400220FFF7C2
:1047500087BC10BD10B50446032806D0042C04D035
:10476000062C08D0072C08D105E008494FF470103A
:1047700000F0B4FF01E0FFF7F9FB054841680029AC
:1047800003D02046BDE81040084710BD0D4D0F0076
:10479000B857002010B50446062802D1002002F0C8
:1047A00065FC04480168002903D02046BDE810409C
:1047B000084710BDFC57002010B50021024800F04A
:1047C0008CFD80F3100010BD0C9A00202DE9FC41F7
:1047D00080461F4615460E4600240D4800F064FD35
:1047E00038B11120BDE8FC8106EB043003F01AFF5C
:1047F000641CAC42F8D1064800F04DFDCDE90057ED
:10480000334600220221404600F02AF80020E9E762
:10481000505800202DE9F843104D0F4680461E46A3
:1048200091466946286800F00AFD040014D01C2156
:10483000FCF722FE01202071C4F81490380BC4F854
:104840000080C4E902606946286800F019FD05F09F
:1048500095FD0020BDE8F8830420FBE714B80F00A5
:104860002DE9F04387B00446DDE90E8980681D46D6
:1048700016460F4600280BD018216846FCF7FCFDB1
:1048800002A88DF8007080E86003A1686846884738
:1048900007B0BDE8F08330B50446006887B00D4628
:1048A000806800281FD018216846FCF7E5FD0195B7
:1048B000A0680590207910B1012810D107E00120EF
:1048C0008DF8000020690290E068039005E0022066
:1048D0008DF80000E0680003029060690490206891
:1048E00081686846884707B030BD0B2803D30B3872
:1048F000C0B200F009B870470249002208780A7077
:10490000704700001C580020014908700B207047B8
:104910001C5800200149012008707047B85700203A
:104920000149012008707047F45700202DE9F04339
:104930008BB004004FF02000164688464FF001056A
:104940000A9004D12A494FF4FC70FEF74DFD04F1A2
:104950006F012022894602A801F000FB2548264964
:104960003346401AC708042000EB0740044642467D
:1049700022A103F07CFC0AA92F48CDE900013346AF
:1049800042462E49A0F59A7001F028FA020006D09E
:10499000012000EB07402AA103F062FC22E0202264
:1049A00002A92548FCF77AFDE8B1022000EB074098
:1049B00030A103F051FC204635A103F04DFC204608
:1049C0002022494603F0F4FB204636A103F044FCC4
:1049D00020462022184903F0EBFB00BF03F0CEFA7B
:1049E0000028FBD100250BB02846BDE8F08300006D
:1049F00060C10F0060CB0F0030CB0F0048617368BF
:104A000020766572696669636174696F6E2E2046EF
:104A100069726D776172652073746172742061646C
:104A200064726573733A20307825782C2073697A24
:104A3000653A2030782578002C86002044B50F0098
:104A4000436F756C64206E6F742072756E206861A0
:104A5000736820766572696669636174696F6E2038
:104A6000286572725F636F64652030782578292E1F
:104A700000000000486173682076657269666963AA
:104A80006174696F6E206661696C65642E00000058
:104A90004578706563746564204657206861736863
:104AA0003A00000041637475616C204657206861CC
:104AB00073683A0008B50F499DF8000020F00F0018
:104AC000401C20F0F00010308DF800000848401A1B
:104AD000C008042101EB004007A103F0BDFB0EA1BB
:104AE000072268467CDF002801D10D487ADF08BD27
:104AF00038CB0F0030CB0F005573696E67206465AB
:104B00006661756C74206164766572746973696E30
:104B100067206E616D6500004466755465737400AE
:104B200096B60F0010B50F4C48F20351031B48F224
:104B30001652A04211D007DC00280AD00A4BC01838
:104B400008D0012804D10BE00A2B01D00D2B07D08F
:104B5000104610BD48F2015010BD48F2025010BD81
:104B6000084610BD0202F00000FE0FFF2DE9FC5FB9
:104B70000F4606463D483E499846401A04214FEAF2
:104B8000D00A01EB0A4015468346B74207D13346A7
:104B90003A4638A103F06BFB0020BDE8FC9F04D22D
:104BA00040494FF02900FEF71FFCB8F1000F03D178
:104BB0003C492A20FEF718FC300503D039492B2048
:104BC000FEF712FCB81B040B03D136492E20FEF76A
:104BD0000BFC0020009005F6FF704FEA103900F042
:104BE000CDFF4046A04500D20446A04639E0C1456D
:104BF00003D82C46CDF8049003E04FEA0834CDF8F2
:104C0000048000223046019901F018FD0028C4D12B
:104C1000584633463A4624A1009403F030FB601E08
:104C200000F00300221A002339463046D21C01F05E
:104C3000BBFD0028B1D101992448A9EB01092D1B26
:104C4000016B2644214401632744002002F0FAF955
:104C5000009030B1012101EB0A401DA103F0FCFAE4
:104C600001E0002DC3D1009897E7000080CB0F0032
:104C700030CB0F004E6F20636F7079206E656564D6
:104C80006564207372635F616464723A20307825D2
:104C9000782C206473745F616464723A20307825E4
:104CA0007800000040BB0F00436F7079696E672089
:104CB0003078257820746F20307825782C2073691F
:104CC0007A653A20307825780000000020810020A5
:104CD0004661696C656420746F2077726974652021
:104CE000696D61676520636F7079696E67207072A6
:104CF0006F677265737320746F2073657474696E67
:104D0000677320706167652E00000000074808493E
:104D100010B5401AC008032101EB004005A103F0C3
:104D20009BFABDE81040FFF721B9000080CB0F00CF
:104D300030CB0F00496E61637469766974792074B1
:104D4000696D656F75742E000149416000207047E0
:104D5000E8B70F0010B50B4941600B4800F0A4FA0A
:104D600068B903F09BFE08491C234FF4EE720874E7
:104D70000448A1F5EE71001F006800F04DFA002014
:104D800010BD000018B80F00448800202DE9FC5F1A
:104D90000E008346DDE90C47C6F1000098469246B6
:104DA000814600D40846012503E000BF90FBFAF0DD
:104DB0006D1C5045FADAA84500D9454624B1002EAD
:104DC00001DB780700D5641EB80702D5B8F1000FE3
:104DD0000AD0F80708D13CB1A54205D22021584697
:104DE000641EFFF7C5F9F6E7002E02DA4E462D21C4
:104DF00002E0780703D52B215846FFF7B9F907F0F1
:104E0000030002280BD1B8F1000F08D13CB1A54234
:104E100005D230215846641EFFF7AAF9F6E7CDE91E
:104E20000047434652463146584606F09DF9BDE8D4
:104E3000FC9F024600201268530713D502F00300BE
:104E4000012802D002280CD105E0C2F383100B68C0
:104E5000801C184404E00223086803EB92521044BB
:104E6000086001207047000002480068002800D058
:104E700001207047505800200248007A002800D0D6
:104E8000012070474488002038B54FF440521B4938
:104E9000536800F500508B4204D044688C4201D125
:104EA000012400E000248B4226D143688B4223D1A9
:104EB0001178142901D9526900E000221049B2FB8F
:104EC000F1F30278142A01D9406900E00020B0FB18
:104ED000F1F0834203D001240AA2009002E00024F2
:104EE0000AA200900B480C49401AC008032101EBAC
:104EF00000400AA103F0C3F9204638BDDBE5B151FB
:104F000040420F006D616A6F720000006D696E6F44
:104F10007200000060CB0F0030CB0F00536F66743F
:104F20004465766963652075706461746520697392
:104F300020612025732076657273696F6E2075700D
:104F4000646174652E2043757272656E743A202513
:104F5000642E204E65773A2025642E0070B50546F4
:104F600008680C464A6886682846314604F074FF93
:104F70006068286104F10C00686170780221B1EB6F
:104F8000901F01D1241D2C6170BD00002DE9FF414F
:104F90000026264800F085F92448001F074600F047
:104FA00080F9234C60680090A56800E0009869468D
:104FB000284004EB80000C30FFF73BFF0028F5D1C0
:104FC00001AA009901EA050304EB8303491CDB688D
:104FD00042F82030401C00910228F2D3019800F0E2
:104FE000030001281AD002280ED012A14FF4AC7091
:104FF000FEF7FAF9384600F051F908B10098606000
:1050000004B03046BDE8F0810198032101EB9050D7
:105010000099BDF80A6001EB900005E00198BDF829
:105020000A60C0F3831008440090E3E7089A002068
:10503000F08900202E2E5C2E2E5C2E2E5C2E2E5CF7
:105040002E2E5C636F6D706F6E656E74735C6C6931
:10505000627261726965735C6C6F675C7372635CCA
:105060006E72665F6C6F675F66726F6E74656E649A
:105070002E63000010B500224FF48051104600F05E
:105080004DFBD8B912480022C0F57E2100F046FB46
:10509000A0B900210F4803F069F902F059FF0E484A
:1050A0000E49401AC108032000EB014004460CA140
:1050B00003F0D2F80D4800F049FC08B1FEF75EF8A5
:1050C00000F01EFA20460AA103F0C6F8002010BD29
:1050D00000100F0005570F0080CB0F0030CB0F00E2
:1050E000496E73696465206D61696E0015470F0034
:1050F0004166746572206D61696E00002DE9F05F94
:105100001E46DDF828B091468A46040003D124A14A
:105110009020FEF769F9B4F80680607908FB00F882
:10512000A8F10408464503D31DA19E20FEF75CF9B3
:10513000E788301DB0FBF7F1B0FBF7F207FB120078
:10514000D9F80050AA19424501D9A8EB0605C9F8BB
:10515000005001E02468491E0029FBD13E1A884610
:10516000AE4215D817E000BF2044001D0AEB08032B
:10517000BBF1000F324602D00146184600E0194646
:10518000FCF752F900202468AD1BB044AF4201D9AE
:105190002E4600E03E46002DE6D1BDE8F09F00001F
:1051A0002E2E5C2E2E5C2E2E5C2E2E5C2E2E5C6304
:1051B0006F6D706F6E656E74735C6C696272617234
:1051C0006965735C6D656D6F626A5C6E72665F6D5A
:1051D000656D6F626A2E630030B5024651B103F00F
:1051E000E3F80021074C08E034F821301568AB42A1
:1051F00002D11160002030BD491C8142F4D305204A
:1052000030BD00000000000010B5FCF752F808B1F6
:10521000002010BD112010BD10B531B1B2FBF3F468
:1052200003FB14241CB1092010BD0E2010BD016029
:105230000021416081608281C381084610BD70B544
:105240000C460546FBF7EAFF002802D021882868B3
:10525000084470BD10B50A8849888A4203D1FCF71A
:105260001FF8012010BD002010BD70B50C4605468A
:10527000FBF7F9FF002802D061882868084470BD58
:1052800010B50A8849888A4203D1FBF7E3FF012061
:1052900010BD002010BD002100F00FB8002100F06B
:1052A00012B8012100F01EB8012100F011B808B5B4
:1052B0006A46FCF74AF8009808BD08B56A46FCF74C
:1052C0002AF8009808BD08B56A46FCF724F808BD1E
:1052D00008B56A46FCF712F808BD08B56A46FCF73F
:1052E00001F808BD08B56A46FCF708F8009808BD43
:1052F00008B56A46FCF736F8009808BD38B50400D2
:1053000003D115A1FE20FEF76FF800258DF800509F
:105310006846FDF7D9FF206862680168914214D998
:10532000491E01600D781CB919A1C220FEF75CF876
:10533000208AE16805FB00152068217A0278891A25
:105340000279C9B28A4200D201719DF80000FEF7CD
:1053500007F8284638BD00002E2E5C2E2E5C2E2E1F
:105360005C2E2E5C2E2E5C636F6D706F6E656E749E
:10537000735C6C69627261726965735C62616C6CAA
:105380006F635C6E72665F62616C6C6F632E63004C
:105390002E2E5C2E2E5C2E2E5C2E2E5C2E2E5C6312
:1053A0006F6D706F6E656E74735C6C696272617242
:1053B0006965735C62616C6C6F635C6E72665F6280
:1053C000616C6C6F632E630038B50C46050004D128
:1053D00012A140F22110FEF707F824B90FA14FF4F3
:1053E0009170FEF701F800208DF800006846FDF787
:1053F0006BFF1DB91749CF20FDF7F6FFE8682A6853
:10540000211A288AB1FBF0F11068431C1360017067
:105410009DF80000FDF7A4FF38BD00002E2E5C2E85
:105420002E5C2E2E5C2E2E5C2E2E5C636F6D706FAC
:105430006E656E74735C6C69627261726965735CCF
:1054400062616C6C6F635C6E72665F62616C6C6FE4
:10545000632E630090530F0010B5040002D0206843
:1054600030B901E00E2010BD17A1D920FDF7BCFF17
:10547000606818B914A1DA20FDF7B6FFA06818B962
:1054800011A1DB20FDF7B0FFE06818B90EA1DC2008
:10549000FDF7AAFF208A18B90BA1DD20FDF7A4FFB4
:1054A000207A61682268401AC0B2116004E0226864
:1054B00011684B1C13600870401EC0B2F7D22168FF
:1054C0000020087110BD00002E2E5C2E2E5C2E2EAA
:1054D0005C2E2E5C2E2E5C636F6D706F6E656E742D
:1054E000735C6C69627261726965735C62616C6C39
:1054F0006F635C6E72665F62616C6C6F632E6300DB
:105500002DE9F041184819494FF48052401AC70854
:10551000042000EB0745164615A1284602F0A0FE20
:105520004FF0E024D4F8802128461FA104F5C07470
:1055300002F096FE60172060C4F800016060C4F8B5
:10554000040101F005FA28B1012000EB074021A178
:1055500002F082FE02F012FD0028FBD13046BDE8C9
:10556000F04100F053B8000080CB0F0030CB0F00AB
:1055700052756E6E696E67206E72665F626F6F74D1
:105580006C6F616465725F6170705F737461727477
:10559000207769746820616464726573733A20309F
:1055A000782530387800000044697361626C696E58
:1055B0006720696E74657272757074732E204E5612
:1055C00049432D3E494345525B305D3A20307825B2
:1055D000780000004661696C65642072756E6E69C2
:1055E0006E67206E72665F6466755F6D62725F697A
:1055F00072715F666F72776172645F616464726515
:1056000073735F73657428290000000070B5064647
:10561000204888B0C0F57F21002200F07FF8021EEC
:105620004FF0FF3509D01C481C49401AC008012121
:1056300001EB00401AA102F013FEEFF30580D6E95A
:105640000046C005C00D4FF0000181F3148881F3BE
:10565000108881F3118881F3138813D020221E490A
:105660006846FBF7E1FE203C20226946204606966C
:10567000FBF7DAFE6FF0060229462046FBF7CAFD6B
:1056800008B070BD08B0324629462046BDE87040DB
:10569000FBF7C0BD00100F0080CB0F0030CB0F0018
:1056A000436F756C64206E6F742070726F746563E5
:1056B0007420626F6F746C6F6164657220616E64D8
:1056C0002073657474696E67732070616765732CED
:1056D00020307825782E000008B50F0070B5084DF1
:1056E00004460E46686805F0F7FC002C06D03246EA
:1056F00021466868BDE8704005F0E0BC70BD000060
:10570000C45700200348D0F804050349097B00EB87
:105710000160704700400240C457002070B50B057F
:1057200002D1B0F57F2F01D9072070BD0AB106253F
:1057300000E00225104A114B1468082C01D3042004
:1057400070BD03EB0416C6F80008C6F80418C6F8C6
:105750000858641C146003EB0414D4F8F067864204
:10576000EAD1D4F8F4678E42E6D1D4F8F847AC42D7
:10577000E2D1002070BD0000C057002000E00140D1
:105780002DE9F0413A483B49384E401AC5080420FB
:1057900000EB05400027044637A102F05DFDB0682C
:1057A00001280ED0A52813D0AA2818D0AC281ED0C6
:1057B000032000EB054039A102F04EFD0020BDE8BA
:1057C000F08120463CA102F047FDFDF723FC0CE0F0
:1057D00020463CA102F040FD04F072FE0DE02046A0
:1057E0003BA102F039FDFDF70BFE024607E0204623
:1057F0003AA102F031FD04F031FF024601271D49B4
:105800001B4B0120591AC90800EB014522B128465B
:1058100036A1B36802F02BFD304600F0A3FCDFF8A0
:105820000081002188F800103E4801F00BFC06467C
:1058300098F8000020B93C4940F27D10FDF7D4FDF6
:1058400036B1284639A102F007FD03252846B6E700
:105850000125002FFAD0012000F0EEFB0028F5D042
:105860002046394902F0F8FC0225EFE74481002088
:1058700080CB0F0030CB0F00456E746572206E72C6
:10588000665F626F6F746C6F616465725F66775F8D
:105890006163746976617465000000004E6F206674
:1058A00069726D7761726520746F206163746976C7
:1058B0006174652E0000000056616C6964204170BF
:1058C0007000000056616C696420534400000000C1
:1058D00056616C696420424C0000000056616C699E
:1058E00064205344202B20424C0000004163746923
:1058F000766174696F6E206661696C656420776992
:105900007468206572726F72202564202862616E4F
:105910006B20636F64653A20307825782900000099
:10592000F457002021490F0040BB0F00436F756CF6
:1059300064206E6F74207772697465207365747467
:10594000696E67732E000000D8BB0F002DE9F84385
:10595000044641484149401AC108042000EB014077
:1059600005463FA102F078FC434F19207C6000906F
:10597000684602F0F5F9009A404900EB82004FF0CA
:105980000008C0F80017404601F03AFA00284CD150
:10599000FFF7F6FE314A304B01219A1AD20801EB8B
:1059A000024420B1012821D002283ED105E04FF465
:1059B0007016FEF7C5FD10B934E04FF4A02600F0D4
:1059C000DDF82F4A20211820FDF768FC08B1FDF70B
:1059D000D5FB2C48016811F0B10F03D0016801F02C
:1059E0004E01016000F07CFFF8B904E0FEF7BEFA5A
:1059F000204625A12CE031493046FFF76FFE3048A4
:105A000000F022FF88B928462EA102F025FC00BF35
:105A100000F0A0F8FDF722FC02F0B0FA0028F7D160
:105A200041DFF5E701F0AAF910B10320BDE8F883E2
:105A300087F80080274801F0DDF9387820B926A1E1
:105A40004FF4B970FDF7D0FCFFF75AFD204632A1A4
:105A500002F002FCE9E7000080CB0F0030CB0F0022
:105A6000496E206E72665F626F6F746C6F61646501
:105A7000725F696E69740000B85700200C00030063
:105A8000D45800201C05004053686F756C64206E6C
:105A90006576657220636F6D6520686572653A2072
:105AA000416674657220626F6F746C6F61646572B9
:105AB0005F72657365742829000000000D4D0F00AA
:105AC00055470F00456E746572206D61696E206CDC
:105AD0006F6F700015490F002E2E5C2E2E5C2E2E3F
:105AE0005C2E2E5C2E2E5C636F6D706F6E656E7417
:105AF000735C6C69627261726965735C626F6F740A
:105B00006C6F616465725C6E72665F626F6F746CFD
:105B10006F616465722E630053686F756C64206EEC
:105B20006576657220636F6D6520686572653A20E1
:105B30004166746572206E72665F626F6F746C6F1F
:105B4000616465725F6170705F737461727428293B
:105B50000000000010B503F0B9F8002803D0BDE83C
:105B6000104005F019BC10BD034A93680A4601466F
:105B70009860184605F0A2BAC45700202DE9F041FC
:105B80001A4E307800282ED103F0A0F81849194A8F
:105B90000127891AC908032202EB014500281DD0FC
:105BA000154804682846224614A102F059FBA4F5C2
:105BB0004864962C00DA962405F0EEFB284622462F
:105BC00015A102F04DFB21492046FFF7CDFF4FF014
:105BD000E0214FF48030C1F8000103E028461CA109
:105BE00002F03AFB3770BDE8F0810000F557002065
:105BF00030CB0F0030CB0F00040501405744542038
:105C0000656E61626C6564204352563A2564207467
:105C100069636B73000000005374617274696E678E
:105C200020612074696D6572202825642074696381
:105C30006B732920666F722066656564696E6720E4
:105C40007761746368646F672E000000D5B30F003E
:105C5000574454206973206E6F7420656E61626CC6
:105C60006564000070B504460D4620220830FBF73D
:105C7000DBFB202205F1200104F12800FBF7D4FB17
:105C8000002070BD2DE9F8430C461B49DDF820903B
:105C9000016005461F46904618480121FFF71DFB8D
:105CA000BFF35F8F002618B148F20450BDE8F883B7
:105CB000FEF7BEFA43464A4604F10801284600971B
:105CC000FCF7BCFC0446FEF7A5FA0C4D2868012839
:105CD00003D00BA16D20FDF787FBBFF35F8F2E6014
:105CE00044B11448C44202D148F24250DEE748F2BF
:105CF0001650DBE70020D9E7DD55AABBF857002096
:105D00002E2E5C2E2E5C2E2E5C2E2E5C2E2E5C6398
:105D10006F6D706F6E656E74735C6C6962726172C8
:105D20006965735C6D757465785C6E72665F6D74C1
:105D3000782E68007CF70FFF70B516460C460546B6
:105D400000F0F4F800280ED1AA791946304600F088
:105D5000FAF8002807D131462046FFF783FF0028D4
:105D600001D10149216070BD7052464D2DE9F84FB7
:105D70006C460E46D4E90A7905469A46904616497D
:105D8000304600F0C7F80028A54611D17068494692
:105D900040794200384600F0D6F80028A54607D1E1
:105DA000B8F1000001D02DB107E0A54648F210502F
:105DB000BDE8F88FAAB06D464DB182B00246534699
:105DC000314628460097FFF75DFFA546F0E748F209
:105DD0001550A546ECE700007052464D2DE9F04104
:105DE0001D46DDE906871646044600F02DF800281A
:105DF0000DD12A463146204600F03CF8002806D155
:105E00003A4641462046BDE8F04100F002B8BDE800
:105E1000F08170B515460E46044605F0ADFA00282F
:105E200007D13EB160682968C268914205D248F244
:105E3000145070BD48F2135070BD83682A46314635
:105E40002046BDE87040184710B550B161B14160BF
:105E5000096804468847002802D1054820600020D0
:105E600010BD48F2015010BD48F2105010BD0000A6
:105E70006E52464870B515460E46044605F07CFA4B
:105E800000280BD146B155B160682A4631464368B7
:105E90002046BDE87040184748F2105070BD002001
:105EA00070BD00002DE9F0410B480C4D0C4F401B1C
:105EB000C60801203870002406E000BF55F8340001
:105EC0008047002805D1641CB442F7D30220387003
:105ED0000020BDE8F081000018CB0F0010CB0F00B0
:105EE000F657002070B514460D46064600F036F809
:105EF000291930192246BDE8704000F02FB870B55E
:105F00000C46054600F064F828192146BDE87040AB
:105F100000F05EB828B10068884205D048F24050D1
:105F2000704748F2105070470020704728B139B1CF
:105F30000022C1E900201046704748F21050704717
:105F400048F21350704720B1914205D048F21150E9
:105F5000704748F2105070470020704770B51646E1
:105F60000C46050003D10AA11F20FDF73DFA1CB91C
:105F700007A12020FDF738FAA919491E04E000BF47
:105F800014F8010B01F80109A942F9D270BD000013
:105F90002E2E5C2E2E5C2E2E5C2E2E5C2E2E5C6306
:105FA0006F6D706F6E656E74735C6C696272617236
:105FB0006965735C63727970746F5C6E72665F633F
:105FC000727970746F5F7368617265642E6300002C
:105FD00070B50D46040003D107A10D20FDF704FAAA
:105FE0006019401E05E02178027804F8012B00F8C2
:105FF0000119A042F7D270BD2E2E5C2E2E5C2E2EE3
:106000005C2E2E5C2E2E5C636F6D706F6E656E74F1
:10601000735C6C69627261726965735C63727970DA
:10602000746F5C6E72665F63727970746F5F7368B1
:10603000617265642E63000070B506461648174904
:10604000401AC108042000EB0140044614A102F0EC
:1060500003F91A4D286A012805D0204618A102F03C
:10606000FBF8002070BD8EB1E86978B100F056F8F9
:106070000022A969FEF77AF9E969814206D0204633
:10608000012215A102F0ECF8012070BD20461BA1F1
:1060900002F0E2F8F8E7000080CB0F0030CB0F00F1
:1060A000456E746572206E72665F6466755F6170BE
:1060B000705F69735F76616C696400002081002005
:1060C0004E6F2076616C69642061707020746F205F
:1060D000626F6F742E000000435243206368656353
:1060E0006B206F6620617070206661696C65642E3C
:1060F0002052657475726E202564000052657475B7
:10610000726E20747275652E2041707020776173F5
:106110002076616C69640000AFF300804FF440505A
:10612000074A4168914207D18068411EC1F30B01C3
:10613000401A00F6FF7070474FF48050704700001F
:10614000DBE5B15100B5FFF7E9FF054989690A1898
:10615000401E0844C0F30B00101A00F6FF7000BD8B
:1061600020810020002101604160816001480163BD
:1061700070470000208100202DE9FF4F83466C48C6
:106180006C4981B0401AC108042000EB0144009121
:1061900069A1204602F060F820465A466EA102F03E
:1061A0005FF8029808B172A200E073A2204674A1C1
:1061B00002F056F8039808B16DA200E06EA22046E6
:1061C00074A102F04DF8049808B169A200E06AA237
:1061D000204674A102F044F84FF4405041687748DB
:1061E000814201D162A200E063A2204674A102F0C4
:1061F00037F8204676A102F02FF8794D204679A194
:10620000AB692A6A02F033F820467EA16B6AEA6A1B
:1062100002F02DF84FF00009DFF808A20CE001268B
:1062200050B1012812D0B9F1020F1ED07E49A4202E
:10623000FDF7DAF800201AE0FFF784FF80460398A4
:1062400088B16748006A01280BD00CE0FFF766FFB1
:106250008046049828B94FF440504168574881421D
:1062600001D0012604E0002602E04FF48050804671
:10627000D04503D96C49A920FDF7B6F86B48A0EBCF
:106280000800A0F54050584501D2012700E0002742
:1062900002984A4647EA0005204665A101F0E0FF62
:1062A0002046424665A101F0DBFF0FB130A200E0BD
:1062B00031A2204667A101F0D3FF0EB12CA200E06D
:1062C0002DA2204669A101F0CBFF0DB128A200E06C
:1062D00029A220466AA101F0C3FFB54308D0B9F155
:1062E000020F05D209F10100C0B28146022896D9F9
:1062F00057B10098022101EB004066A101F0ACFF0C
:10630000042005B0BDE8F08FB9F1000F07D020469A
:106310006BA101F0A1FF32481830FFF723FF30488E
:106320002430FFF71FFF2E490020C1F824B0E8E712
:1063300080CB0F0030CB0F00456E746572206E72FB
:10634000665F6466755F63616368655F70726570E0
:106350006172652829000000726571756972656453
:106360005F73697A653A20307825782E0000000046
:10637000747275650000000066616C736500000052
:1063800073696E676C655F62616E6B3A2025732E70
:10639000000000006B6565705F6170703A202573C6
:1063A0002E0000006B6565705F736F6674646576C0
:1063B0006963653A2025732E00000000DBE5B151CA
:1063C00053445F50524553454E543A2025732E0096
:1063D00042616E6B20636F6E74656E74733A000079
:1063E0002081002042616E6B203020636F64653A2B
:1063F000203078253032783A2053697A653A203057
:106400007825780042616E6B203120636F64653AB5
:10641000203078253032783A2053697A653A203036
:106420007825780000E00E00D4BF0F0000100F00A8
:10643000706173733A2025642E0000006361636805
:10644000655F616464726573733A20307825782ED5
:106450000000000063616368655F746F6F5F736D58
:10646000616C6C3A2025732E000000006B6565702E
:106470005F6669726D776172653A2025732E000040
:1064800064656C6574655F6D6F72653A2025732E67
:106490000000000041626F7274696E672E204361D4
:1064A0006E6E6F7420666974206E657720666972FF
:1064B0006D77617265206F6E206465766963650033
:1064C000496E76616C69646174696E672061707091
:1064D0002E00000070B50C46050004D1214940F2A1
:1064E0002D10FCF781FF24B91E494FF49770FCF77B
:1064F0007BFF1D481D4B2978C01A0422C00802EBFF
:106500000040092927D2DFE801F02605260B1526D1
:106510001B260F0021462846BDE8704002F0DEBB76
:1065200013A101F099FE11E021462846BDE8704014
:1065300002F076BC21462846BDE8704002F00EBC51
:1065400014A101F089FE4FF48070E0602046BDE8A0
:106550007040FDF7F9BEBDE87040024940F24D10B1
:10656000FCF742BFCCBD0F0048CB0F0030CB0F0073
:1065700048616E646C65204E52465F4446555F4FDD
:10658000505F4352435F4745542028636F6D6D61F0
:106590006E64290048616E646C65204E52465F440B
:1065A00046555F4F505F4F424A4543545F53454CF9
:1065B0004543542028636F6D6D616E6429000000AF
:1065C00070B50E46040004D11B4940F24120FCF78F
:1065D0000BFF26B9184940F24220FCF705FF20784E
:1065E0000125092820D2DFE800F01F051F0F141F26
:1065F0001A1F0A003146204602F0EEFC19E031462F
:10660000204602F03FFF14E03146204602F0A6FC8F
:106610000FE03146204602F0E9FD054609E031462B
:10662000204602F0E3FE04E0034940F26320FCF759
:10663000DBFE284670BD0000CCBD0F002DE9F843FD
:10664000134C07460D4620680090124812499046A8
:10665000401AC608042000EB06402B463A460FA11C
:1066600001F00DFE43462A4639461C4801F08CF9DC
:10667000050009D0022000EB06402A4618A101F0CF
:10668000EFFD2846BDE8F8832068401C2060F8E74D
:106690001858002040CB0F0030CB0F006E72665FA1
:1066A0006673746F726167655F6572617365286197
:1066B0006464723D307825702C206C656E3D2564D5
:1066C000207061676573292C20717565756520756B
:1066D000736167653A20256400000000C0580020FF
:1066E0006E72665F6673746F726167655F65726113
:1066F00073652829206661696C6564207769746810
:10670000206572726F7220307825782E00000000AC
:106710000C490D4A10B5891AC908042202EB01423E
:106720000028104604D009A101F096FD114903E0AC
:1067300011A101F091FD1A49BDE81040002219484D
:1067400001F082B940CB0F0030CB0F00496E697465
:1067500069616C697A696E67206E72665F667374D0
:106760006F726167655F7364206261636B656E64FD
:106770002E00000024B80F00496E697469616C69CD
:106780007A696E67206E72665F6673746F72616796
:10679000655F6E766D63206261636B656E642E006B
:1067A000F4B70F00C05800202DE9FC47154C804677
:1067B0000F4620681549CDE9002013489946401A34
:1067C000C6081546042000EB06403B4642461049E9
:1067D00001F05EFD2B463A4641460E48CDF800904A
:1067E00001F0FAF9050009D0022000EB06402A4624
:1067F00009A101F035FD2846BDE8FC872068401C52
:106800002060F8E71858002040CB0F0030CB0F0075
:1068100014BD0F00C05800206E72665F6673746FFF
:10682000726167655F77726974652829206661699E
:106830006C65642077697468206572726F722030AD
:106840007825782E0000000070B5114908601148C5
:106850001149401AC508032000EB05400FA101F0C3
:10686000FBFC0020FDF796FF114800F05DFC0400E2
:1068700008D0012000EB054022460EA101F0F0FCFB
:10688000204670BDBDE87040094800F0D7B8000050
:10689000FC57002080CB0F0030CB0F00456E746595
:1068A00072696E6720444655206D6F64652E000046
:1068B00095470F00436F756C64206E6F7420696E8E
:1068C0006974616C697A6520444655207472616E02
:1068D00073706F72743A2030782530387800000079
:1068E0000648074910B5401AC008042101EB0040D2
:1068F00004A101F0B1FC002010BD000080CB0F000E
:1069000030CB0F00696E207765616B206E72665F19
:106910006466755F696E69745F7573657200000007
:106920001FB58908002201AB009283E80700684682
:1069300018DF04B010BD00001FB5044B0FCB8DE86D
:106940000F00684618DF04B010BD000098B70F00B4
:106950000B480C4970B5401AC108042000EB0140F7
:106960004FF48055044608A101F076FC68040CA1A0
:1069700005600025204601F06FFC284670BD000030
:1069800080CB0F0030CB0F0072756E6E696E672082
:10699000697271207461626C652073657400000017
:1069A00041667465722072756E6E696E67206972D9
:1069B00071207461626C65207365740070B50E4659
:1069C0000178134C062901D0012901D1017C2170E5
:1069D00021780125012911D0022913D00D480E4933
:1069E000401AC008012101EB00400CA101F034FC69
:1069F0000020207005207070284670BD3146FFF7DA
:106A000069FDF9E73146FFF7DBFD0546F4E70000D5
:106A10002058002048CB0F0030CB0F00496E766124
:106A20006C6964206F626A65637420747970652094
:106A3000696E20726571756573742E0010B504005F
:106A400011D00120FFF764FE00280BD100F0C8FB35
:106A500000F0E6FC48B10949081F00F059FC012884
:106A600003D0032010BD072010BD04480838C460BF
:106A70000020FDF749FF002010BD0000285800202D
:106A800010B5816889B10A4A1821FCF797FB040008
:106A900009D008480849401AC008022101EB00400B
:106AA00006A101F0D9FB204610BD072010BD000053
:106AB000D96A0F0048CB0F0030CB0F0053636865D5
:106AC00064756C65722072616E206F7574206F66DC
:106AD0002073706163652100AFF3008070B50546D7
