:020000040000FA
:1000000050290020F9020000010300000303000052
:1000100005030000070300000903000000000000C2
:100020000000000000000000000000000B030000C2
:100030000D030000000000000F030000110300008A
:1000400013030000130300009908000013030000CD
:1000500013030000130300007D04000013030000DD
:100060001303000013030000130300001303000038
:100070001303000013030000130300001303000028
:100080001303000095060000130300001303000093
:10009000B90600001303000013030000130300005F
:1000A00013030000130300001303000013030000F8
:1000B0001303000013030000000000000000000014
:1000C00013030000130300001303000013030000D8
:1000D00013030000130300001303000013030000C8
:1000E00013030000130300001303000000000000CE
:1000F00000000000130300000000000013030000D4
:1001000000000000000000000000000000000000EF
:1001100000000000000000000000000000000000DF
:1001200000000000000000000000000000000000CF
:1001300000000000000000000000000000000000BF
:1001400000000000000000000000000000000000AF
:10015000000000000000000000000000000000009F
:10016000000000000000000000000000000000008F
:10017000000000000000000000000000000000007F
:10018000000000000000000000000000000000006F
:10019000000000000000000000000000000000005F
:1001A000000000000000000000000000000000004F
:1001B000000000000000000000000000000000003F
:1001C000000000000000000000000000000000002F
:1001D000000000000000000000000000000000001F
:1001E000000000000000000000000000000000000F
:1001F00000000000000000000000000000000000FF
:10020000DFF80CD000F00AF900480047BD170000E5
:100210005029002030B4044654E8000F0D4644E84D
:100220000053002BF8D1156030BC704730B4044641
:1002300054E8000F40EA010544E80053002BF7D1D1
:10024000156030BC704730B4044654E8000F00EA33
:10025000010544E80053002BF7D1156030BC70470E
:1002600030B4044654E8000F80EA010544E8005326
:10027000002BF7D1156030BC704730B4044654E809
:10028000000F00EB010544E80053002BF7D1156087
:1002900030BC704730B4044654E8000FA0EB0105B1
:1002A00044E80053002BF7D1156030BC704770B4A0
:1002B00004464FF0000054E8006F0D68AE4207BFDF
:1002C00044E80023012044E800630E60002B1CBFBB
:1002D0000020F0E770BC704730B4044654E8000FCB
:1002E00088422CBF451A054644E80053002BF5D13F
:1002F000156030BC7047000006488047064800473C
:10030000FEE7FEE7FEE7FEE7FEE7FEE7FEE7FEE7C5
:10031000FEE7FEE7BD060000010200002DE9F05FE8
:100320000546002092469B46884606468146402464
:100330001BE0284641464746224600F05EF85346F9
:100340005A46C01A914110D311461846224600F071
:1003500016F82D1A67EB01084F46224601200021AE
:1003600000F00DF817EB00094E41201EA4F1010426
:10037000DFDC484631462A464346BDE8F09F202A46
:1003800004DB203A00FA02F1002070479140C2F1EC
:10039000200320FA03F31943904070470048704748
:1003A0001436000040EA01039B0703D009E008C9A6
:1003B000121F08C0042AFAD203E011F8013B00F82A
:1003C000013B521EF9D27047D2B201E000F8012B76
:1003D000491EFBD270470022F6E710B513460A46C5
:1003E00004461946FFF7F0FF204610BD421C10F8E6
:1003F000011B0029FBD1801A7047202A04DB203A18
:1004000021FA02F00021704721FA02F3D040C2F134
:10041000200291400843194670470000064C074DE2
:1004200006E0E06840F0010394E8070098471034C4
:10043000AC42F6D3FFF7E8FE2C3900004C3900003F
:1004400030B58C1810F8012B12F00F0301D110F801
:10045000013B120906D110F8012B03E010F8015BF3
:1004600001F8015B5B1EF9D101E001F8013B521E6E
:10047000FBD1A142E6D3002030BD00002DE9F04FB2
:1004800000268DB0DFF8A081B14604964FF4807548
:10049000012437460596284601F016FD38B1D8F8F4
:1004A0000403204203D0284601F004FD26432D1DFD
:1004B00064007F1CADB2082FEDD34FF4BE7420460C
:1004C00001F002FD48B1204601F0F4FC46F0004680
:1004D00004AA0221002001F0D7FC544C16F0FF0FB3
:1004E00015D00127002537420DD008EB8501D1F842
:1004F0001005D1F81015C0F3052054F82520C1F3DC
:10050000014102B190477F006D1C082DEBD3002EF6
:100510007EDA0020CDF82890411E0DF1100B07AABD
:10052000CDF82C9042F82010401C91460228F9D3B7
:1005300000252E46A11911F8607F91F9000027F0DF
:10054000C008401C40D007A9404601F033FA40B330
:100550004FEA971A404600F06FFE54F820701FB122
:10056000BAF1030F03D006E0BAF1030F2CD10AA9A8
:10057000404601F027FA02A8CDF8088001F028FCD7
:10058000029900EB8100D0F8000704A9C0F30140F4
:100590000290404601F00EFA0028029802D002288C
:1005A00002D011E003280FD1BAF1030F08D102984D
:1005B000022833D00221404601F0E4FB6D1CEDB26D
:1005C00017B151464046B847761C042EB2D3002DD1
:1005D00021D001AA0221002001F056FC00205A4639
:1005E0000DF1040152F8206051F82030B34217D0C9
:1005F00000200AAE4FEA090351F8207042F820703B
:1006000056F8207043F82070401C0228F4D300E014
:1006100001E0002D8CD10DB0BDE8F08F0321CAE7B9
:10062000401C0228DED3F6E700600040A80100204D
:1006300000F01F02012191404009800000F1E020FC
:10064000C0F88012704700F01F020121914040095C
:10065000800000F1E020C0F80011704700F01F0298
:10066000012191404009800000F1E020C0F8001213
:1006700070474907090E002806DA00F00F0000F164
:10068000E02080F8141D704700F1E02080F800148D
:100690007047000007480021C0F84011C0F844111D
:1006A000C0F84811C0F84C11C0F80011C0F804118E
:1006B00002F0E8BC0010014002F036BC30B54FF04B
:1006C000805000228300D0F83011C3F80C21C3F809
:1006D0001021624B1A60624B1B68624C2360604BB6
:1006E0001B1D1B68241D23605D4B08331B68241DE4
:1006F00023605B4B0C331B68241D2360584B103365
:100700001B68241D2360564B14331B68241D236073
:10071000534B18331B68534C20342360504B1C330D
:100720001B68241D23604E4B20331B68241D23604F
:100730004B4B24331B68241D2360494B28331B6813
:10074000241D2360464B2C331B68241D2360444B1F
:1007500030331B68434C40342360414B34331B68B7
:10076000241D23603E4B38331B68241D23603C4B03
:100770003C331B68241D2360394B40331B68241D08
:1007800023600124082902D1D0F8343113B108299B
:1007900004D006E0354B3449196005E0D0F8343117
:1007A00013B1082904D006E0314BFB21196005E0A4
:1007B000D0F8343113B1082908D00EE090F858323F
:1007C0002C48016863F30301016002E0D0F8343182
:1007D0001BB929494FF40070086028480168C9070F
:1007E00002D06FF0010101602548016841F47001F9
:1007F0000160BFF34F8FBFF36F8F4FF01021D1F81F
:100800000002002803DBD1F80402002822DA1D4B85
:100810001C601D480468002CFCD01224C1F8004262
:100820000568002DFCD0C1F8044201680029FCD005
:100830001A6001680029FCD0BFF34F8F10487C3844
:100840000168124A01F4E06111430160BFF34F8F68
:1008500000BFFDE70F490E48086030BD3805004075
:100860000404001020C50040488103008C5600405D
:1008700018F50040E40E004040960240000400409D
:1008800088ED00E004E5014000E401400400FA05C1
:100890000090D003380100200148006800470000A4
:1008A0008800002002E008C8121F08C1002AFAD1FF
:1008B00070477047002001E001C1121F002AFBD1E0
:1008C0007047022000F0DEB970B50024064D06E046
:1008D0006868012110F8340001F09EFE641C28783D
:1008E0008442F5D3002070BD90000020F8B5154675
:1008F0000C460646052A01D20720F8BD01F084FF08
:1009000018B901F047FF0028F7D1124900224E60C4
:100910000C708D60C1E90422C1E906220E4D0DE084
:1009200006EBC4002968009181788DF801100078E9
:100930000A4A694601F0BCFE0028DED1641EE4B21A
:10094000EED2BDE8F84004480021054A001D00F041
:1009500057B8000090000020343500000514000056
:100960001513000072B601F045FD00BF01F092FBC7
:100970000028FBD111481249401AC408012000EB9D
:10098000044010A101F09EFC11480068C00700D08F
:1009900000BE022000EB04400EA101F093FCBFF367
:1009A0004F8F0B48E43801680E4A01F4E0611143AF
:1009B0000160BFF34F8F00BFFDE700007C390000EE
:1009C0005C390000466174616C206572726F720060
:1009D000F0ED00E053797374656D20726573657492
:1009E000000000000400FA050EB500210091CDE9D9
:1009F00001106A4644F20100FFF7B4FF0EBD00008B
:100A0000074B9B7823B12AB120B10068037C1BB14E
:100A100008207047072070474174426100207047EA
:100A20008402002070B502F0CBF9104800240B219D
:100A3000047044700E4D817014206C602C706C70CA
:100A4000FFF7F6FD06211420FFF713FE1420FFF731
:100A5000FAFD0848046006211120FFF70AFE054848
:100A6000001F0068A860002070BD00008402002004
:100A7000B0000020081501402DE9F843DFF8709020
:100A800099F802305BB350B3052902D20720BDE8C4
:100A9000F88343691BB3437C012B22D00027044613
:100AA000002588461646284600F036F8684602F0CB
:100AB00007FDC0B1012101700E4944600968C0E919
:100AC0000218C0E904769DF8000089F801000020B2
:100AD00000F024F81420FFF7C1FD2846D7E70820CE
:100AE000D5E70F46DBE70425002000F017F8F4E710
:100AF00084020020041501400649897839B130B1DB
:100B0000416921B100210174022102F09BBA082041
:100B1000704700008402002000F002B800F008B81E
:100B200072B602480168491C01607047C400002089
:100B300003490868401E086000D162B67047000093
:100B4000C400002070B5054608680C46411C04D05E
:100B500001F073F9206801F001F96068411C02D0CE
:100B6000002101F0E9F82968A069C1F82405607D39
:100B7000227D29681043C1F86C05D4E90012286869
:100B8000C0F81425C0F80C15207D012814D1A068E8
:100B9000411C02D0002101F0CFF8E068411C04D0D4
:100BA00001F04BF9E06801F0D9F8D4E902122868A5
:100BB000C0F80825C0F8101570BD70B50546086866
:100BC0000C46411C04D001F042F9206801F0D0F835
:100BD0006068411C02D0002101F0B7F82968A069C3
:100BE000C1F82405607D217D2A680843C2F86C05A0
:100BF000D4E900122868C0F80C15C0F81425207D2F
:100C0000012814D1A068411C02D0002101F09DF8F8
:100C1000E068411C04D001F01AF9E06801F0A8F87E
:100C2000D4E902122868C0F80825C0F8101570BD74
:100C30002DE9FC410646C0074FF000050ED0104FCD
:100C400000240122385D009500231146019500F033
:100C5000FDFF641C042CF4D300F04EF8B0070DD552
:100C6000074E0024361D0022305D032300951146F7
:100C7000019500F0EBFF641C042CF4D3BDE8FC816B
:100C8000F0340000094908B5085C0090684601F09E
:100C900091F8D0F80425009B0121994021EA020334
:100CA000C0F808351140C0F80C1508BDF03400003C
:100CB0000249085C012101F0D4B80000F0340000C2
:100CC0000249085C002101F0CCB80000F0340000BB
:100CD000084908B5085C0090684601F06BF8D0F848
:100CE00004050099C84010F0010000D0012080F0F8
:100CF000010008BDF034000010B500242046FFF7C5
:100D0000D7FF641C042CF9D310BD10B50024204675
:100D1000FFF7D6FF641C042CF9D310BD10B50246B2
:100D2000064B4FF0FF3000215C5C944201D1084635
:100D300010BD491C0429F7D310BD0000F434000095
:100D40002DE9F0470D468146FFF7E8FF04460428E9
:100D500036D2DFF874801B481C4EA8F10C0725B36F
:100D6000012D0ED0022D2BD104EB440030444578E8
:100D7000002D25D0B968002922D02846BDE8F047CB
:100D8000084704EB4401755C0E44717849B10E4A82
:100D90004FF40041093A8068FFF76EFE08B987F802
:100DA0000390B17808F80410E2E78068FFF7A4FE2A
:100DB00004EB4401314418F804008D78A842D7D0E0
:100DC000BDE8F087F8340000700000207C010020AE
:100DD00010B50549032000F06DF8002803D0BDE8E8
:100DE0001040FFF701BE10BD310E000070B50023AA
:100DF000042810D20D4D00EB4004012A02D1012934
:100E00000CD00022094E00EB4000304461B10129B2
:100E100006D0022906D00723184670BD0E30C2B294
:100E20002A55F9E74270F7E78270F5E77C01002068
:100E300070B5164C0E28217806D00F2824D117291A
:100E400007D0491C217006E009B1491EFAE71720B6
:100E500000E000202070207800F020F805460B48C4
:100E60002178001D50F8212009480A49401AC0087D
:100E7000032101EB004008A101F028FA280003D06B
:100E8000BDE87040FFF7B0BD70BD0000000000205D
:100E90007C3900005C39000025730000044A0146DB
:100EA00000201279D20702D0084600F04DB87047F2
:100EB0006400002070B506461E480024C0E90161A8
:100EC000B00720D50025012211462846FFF78EFFE6
:100ED0006D1C0446042D02D2002CF4D013E094B90A
:100EE00040F2666204211448FFF700FD04000AD1B5
:100EF000FFF7EAFC040006D10F48104A0021001F4A
:100F0000FFF77EFD0446F00712D00120FFF790FEA8
:100F100074B909480A4A00210C38FFF771FD040032
:100F200006D10548074A01210838FFF769FD044644
:100F3000204670BD6400002004350000CD11000083
:100F400015160000C30800002DE9F05F6E4C054641
:100F500000266078B34618B184F801B000F042FB77
:100F60006A4F4FF47A694FF4C87A4FF00108182D90
:100F700069D2DFE805F00C1313384754696E727BB1
:100F8000727BC58484848484B3B6B9BCC5C500F0C3
:100F900029FB3868FFF7B0FD06465CE00020FFF74C
:100FA00097FE00284FF0000008D0FFF781FE022DC9
:100FB00002D14FF4E16008E0484606E0FFF780FE0A
:100FC000022D01D1C82000E05046410CC0034FF46F
:100FD000FA72801841F10001257052000023FFF7DA
:100FE0009DF901462AE00020FFF772FE00284FF02D
:100FF000000004D0FFF75CFE4FF44870E5E7FFF710
:101000005FFEDFE70020FFF763FE00284FF00000DF
:1010100002D0FFF74DFECFE7FFF752FED4E70020E6
:10102000FFF756FE00284FF0000002D0FFF740FE09
:1010300001E0FFF745FE257041F69A11002238685D
:10104000FFF71AFD064646E00020FFF71BFE25705D
:1010500008E0002051E025703DE084F80180012087
:10106000FFF710FE002240F6CD41E8E784F801804A
:101070000120FFF707FE00224FF48041DFE7786888
:10108000FFF73AFD0646D5F1110000D02EB102203F
:10109000FFF70EFE84F802B01DE0012816D980B2D9
:1010A000C8214843C117C90341EA5041C0034FF466
:1010B000FA72801841F1000152000023FFF72EF967
:1010C000014600227868FFF7D7FC06460220FFF7AA
:1010D000F7FD84F802803046BDE8F09F00F082FA08
:1010E000B9E700F07FFAB4E700F07CFA04E000F022
:1010F00079FA0020FFF7E4FD0120FFF7E1FDAAE700
:10110000FFF703FEA7E7000064000020F8340000AA
:101110002DE9F0470546861C90460F464FF0010921
:101120000020FFF7F9FC1B4C20683860D4E900016F
:10113000401AA16804F21C47081A0EE00121384643
:1011400000F0D0FB00F0ECFA0146384600F0CAFB94
:10115000D4E90001401AA168081A401C8642EDD863
:10116000B8F1000F03D0052065F3891002E00620D6
:1011700065F39F50A2682168114004EB8101C860AB
:101180002068304420600020FFF7C8FC4846BDE8D6
:10119000F08700002805002030B482680468531CE2
:1011A0008360A154D0E901128A4202D330BC00F01E
:1011B00054BC30BC70470000034803C8814201D1D1
:1011C0000120704700207047280500200078022188
:1011D000FFF7B6BD05494FF0FF32082841F820203F
:1011E00002D3084480F8582070470000A80100206E
:1011F000F0B54FF0FF3512B10023082601E00823B7
:101200000C260C4C05E000BF54F823707F1C04D062
:101210005B1CB342F8D32846F0BD26185DB286F8B1
:10122000305044F82310002AF5D1E11881F8580015
:10123000F1E70000A80100200249084490F93000BD
:1012400070470000A801002006480121016000222B
:101250008807C0F804218160D0F804110029FBD070
:1012600070470000180500402DE9F05F26484168EE
:10127000F1B3DFF898B00E688146DBF8004087686C
:101280008078E11B21F07F45ED1CB0B9DFF880804C
:101290004FF48030C8F84403C8F804031120FFF766
:1012A000C7F91120FFF7CFF94FF0010AC8F800A0E5
:1012B0002F2001F0A9F989F802A0B54200D23546E5
:1012C000124BE8193C3320F07F401860DBF8001027
:1012D0005A46091B21F07F41001B20F07F40C91CAA
:1012E00081420FD9106818602F2001F08DF900E0BD
:1012F00004E0BDE8F05F1120FFF7B0B9BDE8F05F92
:1013000001F05EBDBDE8F09FB00000200415014073
:10131000001001402DE9F0470025DFF890803DE006
:101320006068002100EBC506012032789146FFF786
:1013300026F8D4E9062300EA020701EA030C57EA7B
:101340000C0729D082438B434846C4E9062301F0A9
:1013500019FA32788246914601200021FFF70FF8F2
:10136000D4E9042300EA020401EA03074A4650468E
:101370000021FFF704F844404F403C430CD1707803
:10138000012801D0012000E00020726880EA0A00F4
:1013900012B1C1B2484690476D1CEDB298F80000FA
:1013A00044468542BCD3BDE8F08700009000002091
:1013B00010B50021024800F0A0FA80F3100010BD23
:1013C000440900200E4910B50A784C780023A24247
:1013D00012D0521CD2B20A70022A00D10B70084AF5
:1013E0000B780C3252F8232002608868104420F0F9
:1013F0007F408860012010BD0360002010BD000008
:10140000B00000202DE9F041804602460120002175
:10141000FEF7B5FF1A4F05460E467868FFF76CFBDE
:1014200000280CD1174CD4E9062110462A4001EAC5
:1014300006031A4305D0A843B143C4E90601BDE839
:10144000F081404601F09EF930B1D4E9040128430F
:101450003143C4E9040105E0D4E90410A943B043D1
:10146000C4E90410D4E9060128433143C4E9060164
:10147000A1687868BDE8F0410022FFF7FDBA0000DE
:1014800034350000900000202DE9FC5F0E008346FB
:10149000DDE90C47C6F1000098469246814600D42B
:1014A0000846012503E000BF90FBFAF06D1C504593
:1014B000FADAA84500D9454624B1002E01DB7807A9
:1014C00000D5641EB80702D5B8F1000F0AD0F8079E
:1014D00008D13CB1A54205D220215846641EFFF731
:1014E0005BFEF6E7002E02DA4E462D2102E0780779
:1014F00003D52B215846FFF74FFE07F003000228C3
:101500000BD1B8F1000F08D13CB1A54205D2302172
:101510005846641EFFF740FEF6E7CDE90047434614
:1015200052463146584601F071FFBDE8FC9F00006D
:1015300070B50D46044600684FF4887101F05DF8FF
:101540004FF49071206801F058F84FF492712068C0
:1015500001F053F84FF4A271206801F04EF82068B2
:101560001249C0F804132068690740F30730090ED8
:10157000002806DA00F00F0000F1E02080F8141DCA
:1015800003E000F1E02080F800142068012140F31E
:10159000073000F01F0291404009800000F1E02078
:1015A000C0F88012C0F8001170BD000010030200E6
:1015B000024600201268530713D502F003000128E9
:1015C00002D002280CD105E0C2F383100B68801C06
:1015D000184404E00223086803EB925210440860A8
:1015E000012070470A4810B5807860B1002401E0FE
:1015F000022C06D02046FFF75BFB641C042CF7D3BB
:1016000010BD0324F6E7BDE81040FFF775BB0000EE
:101610006400002003480179C90702D00078FFF771
:1016200093BC7047640000202DE9F047394E002735
:1016300080463D46DFF8E090D6F804A057E003D09E
:101640000446D0F81C8035E099F8002002EB4201F6
:10165000521CD2B289F8002009EBC10199F802307E
:10166000091D9A4201D189F8005048680A78044659
:10167000012A12D0022A02D0032A3BD108E001F04D
:10168000B1FC00B10127257434E00574C06900E0A5
:1016900070680028F9D170602CE0207C50BB88680D
:1016A0006060C868A0600869E0604869A061F0787F
:1016B00000B165606268B168184B501A20F07F4035
:1016C000984202D2A168084406E0881AA16820F076
:1016D0007F40814202D9081A206000E025606560E1
:1016E0000120A56020742046E56101F05DFCB8F1A1
:1016F0000000A4D199F8001099F801008142A3D10B
:1017000017B97168514502D00120BDE8F08700206B
:10171000FBE70000B000002084020020FFFF7F00F4
:101720002DE9FF410026234800F0D9F82148001F89
:10173000074600F0D4F8204C60680090A56800E0EF
:1017400000986946284004EB80000C30FFF730FF1A
:101750000028F5D101AA009901EA050304EB8303EF
:10176000491CDB6842F82030401C00910228F2D36B
:10177000019800F0030001280BD0022810D1019835
:10178000032101EB90500099BDF80A6001EB900035
:1017900005E00198BDF80A60C0F38310084400908A
:1017A000384600F099F808B10098606004B03046FF
:1017B000BDE8F0814009002028050020FFF744FD26
:1017C000FFF730F908B1FFF70FF94FF4004100209F
:1017D00000F0DAFD08B1FFF707F900F04DFC0A4808
:1017E0000A49401AC008032101EB004008A100F09B
:1017F00069FDFFF7EDFA00BF00F04CFC0028FBD1BB
:1018000040BF20BF20BFF7E77C3900005C390000F3
:10181000425350206578616D706C652073746172FD
:101820007465642E000000002DE9F047C5881E1D78
:10183000B6FBF5F78946B6FBF5F1044605FB176CD8
:10184000407916686843DDF820A0F718001F87422A
:1018500000D9C61A166001E02468491E0029FBD190
:10186000A5EB0C078846B74216D818E004EB0C002D
:10187000001D09EB0803BAF1000F3A4602D00146F9
:10188000184600E01946FEF78DFD2468F61B4FF060
:10189000000CB844B54201D9374600E02F46002E6F
:1018A000E4D1BDE8F087000030B5024651B100F048
:1018B00089FD0021074C08E034F821301568AB425F
:1018C00002D11160002030BD491C8142F4D30520B3
:1018D00030BD000000000000002100F009B8012127
:1018E00000F010B808B56A46FEF7C7FC009808BDBE
:1018F00008B56A46FEF7A7FC08BD08B56A46FEF7BC
:1019000089FC08BD08B56A46FEF790FC009808BD42
:1019100008B56A46FEF7BEFC009808BD70B50446DF
:1019200000252846FFF7F8F82168626808689042A9
:101930000ED9401E08600178238AE26801FB032566
:10194000227A2168101AC0B20A79824200D2087144
:101950000020FFF7E3F8284670BD70B505460C4639
:101960000020FFF7D9F8E868298A201AB0FBF1F1C6
:101970002A681068431C13600170BDE870400020A5
:10198000FFF7CCB810B530B1017A42680368891A04
:10199000C9B21A6006E00E2010BD03681A68541C14
:1019A0001C601170491EC9B2F7D200680021017194
:1019B000084610BDC20800F007030120895C98406A
:1019C0000840704710B5C20800F00703885C012486
:1019D0009C402043885410BDF0B505460478154856
:1019E00089B0164640F82420124A08690832A2F14C
:1019F0000C0742F82400487F385520226846FEF73D
:101A0000D1FC04942878385C48B10EB10A4A00E051
:101A100000226946281D01F061F809B0F0BD0EB141
:101A2000064A00E00022694605F10C0000F028FF9C
:101A3000F3E7000078000020E932000035310000B3
:101A40000FB408B50399002904D004AA00926A468D
:101A500000F00FF801B05DF814FB10B58268044681
:101A6000002A05D0D4E90403216898470020A0602B
:101A700010BD2DE9FC4791460C00804676D014F845
:101A8000011B39B125290ED04046FFF785FB207890
:101A90000028F4D198F80C00002867D04046BDE833
:101AA000FC47FFF7DABF0020012221782B291BD049
:101AB0002D2902D0302908D102E040F0010001E0D8
:101AC00040F00200641C002AEFD100252A290ED024
:101AD0002178A1F130020A2A11D205EB850201EB2F
:101AE0004205641C303DF1E740F00400EAE7D9F814
:101AF00000100B1DC9F800300968641C0D442178E2
:101B000000232E290BD114F8011FA1F130020A2A5B
:101B100005D203EB830201EB4203303BF3E76C2970
:101B20000DD068290BD0692921D00BDC252918D0CC
:101B3000582931D063290ED0642915D117E014F843
:101B4000011FECE7702969D0732932D075291BD0A9
:101B5000782909D120E0D9F80000011DC9F800104A
:101B600001784046FFF718FB641C90E76CE0D9F859
:101B700000100A1DC9F800200968CDE900500A22AA
:101B80004046FFF781FCEFE7D9F800100A1DC9F8BD
:101B9000002009680A2206E0D9F800100A1DC9F8D9
:101BA000002009681022CDE90050404601F02EFCCB
:101BB000DAE7D9F8001000270A1DC9F800200E68DE
:101BC000C00705D112E04046761C7F1CFFF7E4FAFF
:101BD00031780029F7D104E0202140466D1EFFF73F
:101BE000DBFABD42C0D9002DF6D1BDE74EB130467B
:101BF000FEF7FCFB074604E0202140466D1EFFF780
:101C0000CBFABD4206D9002DF6D103E04046761C42
:101C1000FFF7C2FA31780029F8D1A5E7D9F800001A
:101C2000011DC9F80010056830214046FFF7B4FADD
:101C300078214046FFF7B0FA08200021CDE90001E5
:101C4000034610222946B0E7BDE8FC872DE9FF4195
:101C50001C46DDE90A7815460E46684600F0AAF8EB
:101C600046EA450141EA840141EA072242EA084185
:101C7000009A00EB8200C0F80017BDE8FF812DE953
:101C8000FF411C46DDE90A7815460E46684600F01D
:101C90009FF846EA450141EA840141EA072242EA07
:101CA0000841009A00EB8200C0F80017BDE8FF81F0
:101CB0002DE9FF411C46DDE90A7815460E466846C7
:101CC00000F094F846EA450141EA840141EA07221E
:101CD00042EA0841009A00EB8200C0F80017BDE814
:101CE000FF812DE9FF411C46DDE90A7815460E46C5
:101CF000684600F089F846EA450141EA840141EA74
:101D0000072242EA0841009A00EB8200C0F800175F
:101D1000BDE8FF811CB5002100910B460122019115
:101D2000FFF7C6FF1CBD1CB5002100910B46012228
:101D30000191FFF7D6FF1CBD1CB500220B46009297
:101D400011460192FFF7B4FF1CBD1CB500220B46E3
:101D5000009211460192FFF7C4FF1CBD1CB5002183
:101D600000910B46012201911146FFF7A1FF1CBD16
:101D70001CB5002100910B46012201911146FFF78D
:101D8000B0FF1CBD13B50C46684600F021F8009961
:101D900000EB8101D1F8002722F44032C1F800277E
:101DA000009900EB8100D0F8001741EA0441C0F827
:101DB00000171CBD0168202902D24FF0A0407047D7
:101DC00001F01F010160014870470000000300504E
:101DD0000168202902D24FF0A040704701F01F0196
:101DE000016001487047000000030050016820298D
:101DF00002D24FF0A040704701F01F01016001487E
:101E000070470000000300500168202902D24FF003
:101E1000A040704701F01F010160014870470000B9
:101E20000003005001B56846FFF7D2FFD0F8100557
:101E30000099C84000F0010008BD01B56846FFF7F1
:101E4000D5FF009A01219140C0F8081508BD01B5E1
:101E50006846FFF7D9FF009A01219140C0F80815A4
:101E600008BD38B501240090684631B1FFF7A2FFE4
:101E700000998C40C0F8084538BDFFF79BFF0099DA
:101E80008C40C0F80C4538BD1CB5094C0144D4E960
:101E90000034CDE900346C4606E000BF54F8203031
:101EA000D3F81035401C08C28142F7D81CBD000091
:101EB00024350000034908B508440021016000688A
:101EC000009008BD0060004002494058012800D041
:101ED000002070470060004030B5154A01460020E0
:101EE000D2F8104423460AE0DB681D79854205D10B
:101EF000401C0A28F6DB4FF0FF3030BD1B68002B7A
:101F0000F2D1431CF9D0CB681871D2F8103443B128
:101F1000DB68CC681B682360D2F81024D26811609B
:101F200030BDC2F81014C96800220A6030BD00003C
:101F300028050020F0B595B01C4615460F4608460A
:101F40001A9E00F011FB182109A8FEF744FA0E961C
:101F5000CDE909540023082203A9384600F019FBF3
:101F600005980690BDF81000ADF81C00BDF81200F1
:101F7000ADF81E0000208DF821000398082600F01F
:101F80000300012802D0022818D032E0039833461B
:101F9000850AC0F3C2008DF8200003980FA9C0F392
:101FA0008314A200384600F0F4FA09A8009006ABAA
:101FB00022460FA9284600F033FA1AE00398840D50
:101FC000C0F3C2008DF82000082C01D2254600E0A5
:101FD000082533462A460FA9384600F0DAFA2E447F
:101FE000641B09AB06AA29460FA800F077F9002C5C
:101FF000EAD1384600F0BEFA15B0F0BD70470120B6
:1020000001F0B6B8084810B50178084A515C19B11A
:10201000001D00F0EFFD02E00C3000F0FDFCBDE81B
:102020001040002001F0A4B8CC0000207400002073
:1020300008B5034A00924023024AFFF77BFF08BD20
:102040005D2E0000900300200A4A012902EBC00027
:1020500007D0022907D0032907D0042907D0002080
:10206000704702207047042070470079704740791C
:10207000704700005C39000010B5FFF7C0FF042175
:102080000348FFF729FF02490120C968487110BDC4
:102090004C3900002DE9F0478CB0FFF78DF818B1EE
:1020A00000200CB0BDE8F0877D4C0020C4F8180477
:1020B000BFF34F8F60680290A5684FF0000828407A
:1020C00004EB80000CE000BFD4F8180470B921685C
:1020D0000298814201D86160E2E7284004EB800069
:1020E0000C3002A9FFF764FA0028EDD1002003AA02
:1020F000029901EA050304EB8303491CDB6842F8FB
:102100002030401C02910228F2D3039800F0030013
:10211000022802D001284DD0A7E003985022810D5B
:102120008946B2EB905F00D850210E4666F39F506F
:10213000039008315B4800F0CEF9070078D000F03A
:1021400013FA4346082203A9384600F02AFA0299F6
:1021500008F1080A2940681A8000001D864222D929
:102160004F4D0C3530B1C2B204EB8101301A9046AC
:102170000C3104E02946F2B2002590462846C6B24A
:102180005346384600F00DFA0AEB080325B13246F3
:102190002946384600F005FA029909F1030001EBDF
:1021A000900002903BE004EB8101534632463846F2
:1021B0000C31EFE70398C0F38310062800D3062004
:1021C000039960F38911C1F38310801C039181008E
:1021D000344800F080F9070047D000F0C5F94346C5
:1021E000082203A9384600F0DCF908F108080026A7
:1021F0000FE00298434600EA0501401C04EB810110
:102200000290042238460C3100F0CBF908F10408A2
:10221000761C0398C0F38310B042EAD847B1D4F8D3
:102220001054D4F8180478B1384600F0A3F931E01E
:102230001BE0E8684079012804D12A68284639461D
:1022400012689047E8680568002DF2D1384600F022
:1022500091F90020FEF760FCD4F8180408B9029840
:1022600060600020FEF75AFC14E0D4F8104405E04A
:102270002168204689688847E0680468002CF7D107
:1022800009480A49401AC008022101EB004008A190
:1022900000F018F8FEF790FF80F0010001E7000061
:1022A00028050020843900007C3900005C390000DA
:1022B0004261636B656E647320666C7573686564F8
:1022C0000000000000231A4600F0E8BD08B5012315
:1022D00000926A4600F0E2FD08BD00002DE9F047DB
:1022E0000E4680461C46924608293ED894F80C902B
:1022F000002020731946104600F00AFD0025B54263
:1023000006D218F805201AA12046FFF799FB03E032
:1023100019A12046FFF794FB6D1C082DEFD317A1E0
:102320002046FFF78DFB0025B54210D218F8057046
:10233000FEF734F80068C05D10F03E0F01D03A4659
:1023400000E02E220EA12046FFF77AFB03E00DA14C
:102350002046FFF775FB6D1C082DE5D301222146B1
:10236000504600F0B7FC84F80C90BDE8F087000000
:102370002025303278000000202020007C00000062
:1023800025630000200000000B4810B5FF2181608C
:10239000002101604160C0F81814C0F8141480F8DE
:1023A0002014064800F0E4F8002803D1044800F0A7
:1023B00000F9002010BD000028050020843900002D
:1023C0008435000002480349401AC00870470000E5
:1023D000843900005C39000013B56846FFF764FAE1
:1023E00008B100201CBD0248009950F831001CBD06
:1023F0005C39000070B509480125D0F8104480F818
:10240000205407E0E0684571216820464968884704
:10241000E0680468002CF5D170BD0000280500209C
:102420002DE9FF4781460C9D00200C462F7B287329
:10243000984616462946184600F06AFC072E42D2F6
:10244000DFE806F004090F161F2A36004946284621
:10245000FFF7F6FA37E0494628462268FFF7F0FA18
:1024600031E0D4E9002349462846FFF7E9FA2AE09B
:10247000A0680090D4E9002349462846FFF7E0FA17
:1024800021E0D4E90201CDE90001D4E90023494665
:102490002846FFF7D5FA16E004F1080007C88DE8D2
:1024A0000700D4E9002349462846FFF7C9FA0AE0A5
:1024B00004F108000FC88DE80F00D4E90023494655
:1024C0002846FFF7BDFA00222946404600F002FCEC
:1024D0002F73BDE8FF872DE9F041058A80462D1F47
:1024E0004819C01CB0FBF5F0C6B24046FFF716FA1B
:1024F000041E19D00020207101206071E5800027A2
:102500002546761EC4F800800BE04046FFF706FA29
:1025100060B16179491C6171286005467F1CC0F873
:102520000080B742F1D32046BDE8F081204600F09C
:1025300002F80020F8E72DE9F041457901466B1ECD
:10254000002201E00968521C9A42FBD30F68014641
:10255000002605E038460C68FFF7FFF92146761C97
:10256000AE42F7D3BDE8F0810121001DFFF7BAB9F3
:10257000FFF708BA10B504460121001DFFF7C8F99E
:1025800010F0FF0F04D12046BDE81040FFF7D3BF85
:1025900010BD1CB501920122009201AAFFF744F977
:1025A0001CBD1CB501920022009201AAFFF73CF964
:1025B0001CBD82680021916082681161826851614E
:1025C0008268D160826851608068016070474058BD
:1025D000002800D00120704708B500224250405822
:1025E000009008BDD0F80403084000D001207047D7
:1025F0004058002800D00120704708B50022425002
:102600004058009008BD0000002802D00149800118
:1026100008477047413500002DE9F0410E468046DD
:1026200000F040FB204D0028404616D0FEF704FE87
:10263000284490F858008009032802D001280AD0C5
:1026400003E04046FFF7EEFB28B103214046BDE81A
:10265000F041FFF797BB0221F8E700F02FFB0028BD
:1026600020D04046FEF7E8FD0446104F4FF480703E
:1026700007EB840100EB8400D1F8102580B242F012
:102680000102C1F81025FFF715FC002E0AD04046C4
:10269000FEF7D2FD55F82000002803D00120A0400D
:1026A000C7F80403BDE8F081A801002000600040E5
:1026B0002DE9FC41DFF8C080044608EB0400002748
:1026C00090F930001346C0170E46401C01D0082771
:1026D0004FE0B0781946C0F340022046FEF788FD6F
:1026E0000546401C44D0B07841071CD4C0070DD02B
:1026F00068460094FFF76CFB009900EB8100D0F86E
:10270000001721F00201C0F8001707E000217378DC
:10271000204600910A460191FFF7B1FA164920467A
:102720006431FFF74FF9B078800718D51348317836
:1027300000EB8500D0F81025114B1A40C0F8102589
:102740004FF47C524FF4403302EA042203EA014181
:102750000A43D0F810150A43C0F8102509E008EB29
:102760000500327810F8581F41EA8211017000E02C
:1027700004273846BDE8FC81A80100200060004025
:10278000FFC0FCFF10B5FFF74DFB002800D0012073
:1027900010BD000070B5194D95F86A0008B1082009
:1027A00070BD0020411E2A18401CC0B282F83010B3
:1027B0003028F8D300242046FEF70CFD641CE4B258
:1027C0000C2CF8D30D490024C0204C66A1F86840B9
:1027D0000B4981F8000401264020891FC1F88002BE
:1027E000C1F800014FF4BE70FFF764FB0549F00724
:1027F000C1F8040385F86A60204670BDA801002076
:1028000006E000E000600040034890F86A000028FD
:1028100000D0012070470000A80100200121B1EB89
:10282000507F01D1012070470020704770B50D46E0
:1028300000F0BAFA04000FD00020FEF76DF92079FD
:1028400020B10020FEF76AF9112070BD012025603B
:1028500020710020FEF762F9002070BD10B500F075
:10286000A3FA002802D000210160017110BD000010
:102870000149024800F0A4BC1402002000200040DE
:102880002DE9F0410546007916460F4600EB400160
:102890002D4A01EBC00102EB810494F82A1011B11A
:1028A0000820BDE8F081294951F820102868FFF779
:1028B000BDFF08B11120F4E739462846FEF742F97A
:1028C00066603869206030004FF001062FD03F7FEE
:1028D0004FF48E712868FFF77FFE4FF4A2712868CD
:1028E000FFF77AFE28681A49C0F8041328684FEAEF
:1028F000471140F30730002806DA00F00F0000F11E
:10290000E02080F8141D03E000F1E02080F80014BE
:10291000286840F3073000F01F0206FA02F1400970
:10292000800000F1E020C0F88012C0F80011286893
:102930000421C0F800150020A061E06184F829009E
:1029400044F8140FA675ACE7140200202C350000E3
:10295000800002002DE9F047054600790B4600EBA8
:10296000400101EBC000234901EB8004284600F040
:1029700043F810B11120BDE8F0874FF00008C4F80B
:102980002080A360626184F828804FF48E764746E9
:1029900031462868FFF720FE28684FF00109C0F88B
:1029A00008902146286800F0A7FB606800BBD5F8B6
:1029B00000A00EE094F8280008B10F2716E0314679
:1029C0005046FFF704FE0028F4D02146504600F0A0
:1029D00093FB216A60698142F1D331462868FFF791
:1029E000F6FD0028F9D02868C0F80C90C4F81480CF
:1029F0003846C0E714020020007900EB400101EBEB
:102A0000C000044901EB80004069002800D001208B
:102A100070470000140200202DE9F04704460079B9
:102A20004FF0000900EB400101EBC000254901EB2C
:102A300080072068C0F80095786880B12068224936
:102A4000C0F808132068012140F3073000F01F028E
:102A500091404009800000F1E020C0F8801120681A
:102A6000D0F80C25D0F81485D0F80865D0F81055AA
:102A70004FF0FF31C0F81415C0F80C152068C0F8ED
:102A80000815C0F81015501C02D01046FFF742F987
:102A9000B8F1FF3F02D04046FFF73CF9681C02D076
:102AA0002846FFF737F9701C02D03046FFF732F99D
:102AB0002068FFF7D3FE87F82A90C7F80490BDE896
:102AC000F08700001402002084020200014902483D
:102AD00000F022BC40020020002000402DE9F0411F
:102AE0000546164600790F46154A00EBC00102EB79
:102AF000810494F8201011B10820BDE8F08111493B
:102B000051F820102868FFF791FE08B11120F4E772
:102B100039462846FEF751F86660386920601EB1D4
:102B2000397F2846FEF704FD28680821C0F8001503
:102B30000020A061E0610121606184F82010DCE7E1
:102B400040020020303500002DE9F04704460E46D3
:102B50000079204900EBC00001EB800517463046A4
:102B6000FFF75CFE30B1204600F036F820B11120AE
:102B7000BDE8F0871020FBE76F61AE604FF4907600
:102B8000002731462068FFF738FD4FF4AC78414606
:102B90002068FFF732FD2068AA686969C0F84425FB
:102BA000C0F84815206801218160686878B9B1468D
:102BB00049462068FFF71CFD064641462068FFF79E
:102BC00017FD0643F4D000B10F2700206861384696
:102BD000CEE70000400200200079054900EBC0006C
:102BE00001EB80004069002800D001207047000000
:102BF000400200202DE9F04704460079274900EB08
:102C0000C00001EB800720684FF00009C0F8009574
:102C1000786880B120682249C0F808132068012133
:102C200040F3073000F01F0291404009800000F19E
:102C3000E020C0F880112068D0F80C25D0F8148569
:102C4000D0F80865D0F810554FF0FF31C0F80C15DA
:102C5000C0F814152068C0F80815C0F81015501CED
:102C600002D01046FFF75FF8B8F1FF3F02D04046B0
:102C7000FFF759F8681C02D02846FFF754F8701C7B
:102C800002D03046FFF74FF82068FFF7E7FD87F8DE
:102C90002090C7F80490BDE8F087000040020020B3
:102CA000100302000449084490F93000082801DBB1
:102CB0000120704700207047A80100200449084403
:102CC00090F93000082801D2012070470020704799
:102CD000A801002010B50C46017A052908D0407AD9
:102CE00038B1084808A102682046FEF7A9FE00E0B6
:102CF0001AB106A12046FEF7A3FE2046BDE810400B
:102D0000FEF7ABBE14010020257300000D0A000081
:102D100038B5C3880D46044633B114A0009015A2FF
:102D200016A12846FEF78CFE217A05291CD0607A70
:102D300048B1A088FFF788F9164951F8202016A15C
:102D40002846FEF77DFEA0880021FFF745FB0346DD
:102D50001049207A143951F8202001B02846BDE8E6
:102D600030400EA1FEF76CBE38BD00001B5B306D1D
:102D7000000000001B5B313B33316D0025734C6F4D
:102D800067732064726F707065642028256429253C
:102D9000730D0A0014010020257300003C25733ECA
:102DA0002025733A200000000349884201D10348DE
:102DB000704700207047000000200040880000207D
:102DC00070B5012670044FF0E0210025C1F88001A4
:102DD000084C4010C4F84803C4F8080366602F206C
:102DE000FFF712FCA660044C2F20A560FFF70CFC37
:102DF000A57070BD00100140B000002070B5054600
:102E000088690C4600284FF4847128460AD0FFF7E1
:102E1000E3FBD5F81805626AE1688854606A401CD3
:102E2000606270BDFFF7D8FBD5F8180570BD1FB5FF
:102E300001238DF80030CDE90121D0E90012684668
:102E400090471FBD1FB501238DF800308DF8081085
:102E50000192D0E90012684690471FBD70B50D4C35
:102E60000020D2B22070201D0B4D0378EB5C1BB10B
:102E7000001DFFF769FE02E00C30FFF76BFD08B1A3
:102E8000FDF7B2FD6078002802D021780029FAD041
:102E900070BD0000C8000020740000202DE9F84F2C
:102EA000204D9246894606469846012269461846B4
:102EB000AF68FEF72DF958B3009800210446801C36
:102EC00009E000BF00EA07035AF8212005EB83035D
:102ED000401C491CDA604145F4D34FEA164AFEF71C
:102EE00067FA4AEA0041601C384005EB80003C402C
:102EF00005EB8402C160D06866F3C50068F38910F1
:102F000069F39F2020F00300401C20F00400D060F3
:102F100095F8200402E000BFFFF7BCF80028FBD1C1
:102F2000BDE8F88F280500202DE9F84F1D4C00253D
:102F30006846D4E901A6FEF745FA002738B3002316
:102F4000009A61681CE0D1F800C00846944503D996
:102F5000ACEB02020A6015E0A2EB0C0263440760CE
:102F6000D0F80CC0C1698146BCF1000F08D006EB57
:102F7000030828F07F48C0E9018CC9F81C500546B9
:102F80000029E0D128466160FEF74EFB03E02846A9
:102F9000FEF74AFB10B15046FEF766F9E770BDE850
:102FA000F88F0000B00000200D4B10B5596831B10A
:102FB00002680C68A24204D8A21A0A60C161586073
:102FC00010BD0B4603E00B46C969121B21B10C680A
:102FD0009442F8D3A41A0C600260C161D86110BD9C
:102FE000B00000202DE9F041144E77683D462C4694
:102FF00003E0844204D02546E469002CF9D11BE0AB
:10300000D4B1A5420BD1F869706040B90C490120D8
:1030100088600021B160F0702F20FFF7F5FA216879
:10302000E069E86110B1026811440160706887428C
:1030300002D00120BDE8F0810020FBE7B0000020B5
:1030400000100140F8B5064600240D462046FDF765
:1030500063FD684600F034FA68B1057008494660BF
:103060009DF8000048700020FDF758FD1420FDF782
:10307000F5FA2046F8BD04240020FDF74FFDF8E7DF
:10308000840200202DE9F041194D6C68002C2CD0F1
:10309000184800270068A968B846401A20F07F4603
:1030A0002068B0420CD82146361A0744E469087CEF
:1030B00020B181F81080886949698847002CEFD1D8
:1030C00029786878814206D1401CC0B26870022815
:1030D00001D185F80180064869780C3040F82170EC
:1030E000BDE8F0411420FDF7B9BABDE8F081000059
:1030F000B00000200415014070B50C4605464FF4A1
:103100008E71FFF769FA216AA068415C206A401C51
:103110002062C5F81C1570BD1FB500228DF8002077
:103120000291816801914261D0E90012684690479E
:103130001FBD00001FB50A4601788DF800104168D8
:103140000191017A8DF80810C0680390044850F886
:103150002210083850F82220684690471FBD000012
:10316000800000200149012008707047C80000203D
:1031700010B588B0044620220E496846FDF712F9C2
:1031800006200090C01F0190029003904FF0EB705A
:1031900006900CB1084A00E0002269460748FEF795
:1031A0001BFC08B1FDF720FC0448001F447008B068
:1031B00010BD00006435000065310000CC00002027
:1031C0002DE9FF470C4605464FF40071FFF70AFA58
:1031D00001274FF40178002618B34FF4927949463D
:1031E0002846FFF7F4F9E0B149462846FFF7F4F91D
:1031F000C5F8088394F8290000B96F6002208DF8A3
:103200000000D5F88004C5F880040390A0690290FE
:10321000E0680190A661E661D4E900126846904733
:1032200028E004212846FFF7DDF918B34FF4847134
:103230002846FFF7CCF9E8B121462846FFF7DEFD26
:10324000616AA069884215D1E06938B1E268616AB3
:10325000A0612069E6616662E06008E094F82900F8
:1032600000B96F60C5F80883A661E268616A20460C
:10327000FFF7DDFD4FF48E7841462846FFF7A7F9AA
:1032800078B1206A6169884202D294F8280020B39C
:1032900041462846FFF7A0F9616911B12046FFF7C2
:1032A0003BFF4FF4A27841462846FFF790F90028EB
:1032B00018D041462846FFF78FF994F8290000B14D
:1032C0002F60A06900280DD0A661E268616A04B091
:1032D0002046BDE8F047FFF7AABD21462846FFF784
:1032E0000BFFDEE7BDE8FF871FB50A4601788DF8C2
:1032F000001041680191017A8DF80810C0680390B0
:10330000044850F82210083850F8222068469047A8
:103310001FBD0000800000202DE9FF410C464FF446
:10332000927705463946FFF763F90026C0B1394662
:103330002846FFF762F902208DF80000D5F88004D6
:10334000C5F880040390D5F83C058DF80800E068C6
:103350000190A661E661D4E900126846904723E037
:103360004FF4887739462846FFF742F9E0B13946ED
:103370002846FFF742F9D5F83C15A069884213D1D9
:10338000E06960B1E268D5F8000220F02000C5F8DD
:103390000002E069A0612069E661E06001E0A661E9
:1033A000E2682046FFF74EFD4FF4A27739462846E3
:1033B000FFF71EF960B139462846FFF71EF9A069EC
:1033C00030B1A661D5F83C152046E268FFF73AFD1A
:1033D0004FF4907739462846FFF70AF9002813D0B2
:1033E00039462846FFF709F9606900280CD0D5F85E
:1033F0004C058DF800608DF80800A06801906661AA
:10340000D4E9001268469047BDE8FF812DE9F05FDE
:103410008346DDE90A4A994690460D46084601274B
:1034200003E000BFB0FBF8F07F1C4045FAD2B9457D
:1034300000D94F465FEACA7012D18CB15FEA8A7038
:1034400002D5B9F1000F01D0202607E0302605E0B3
:1034500031465846641EFDF79FFE0CB1A742F7D3D4
:103460005FF00106B9F1010F02D9A9F1010903E0EA
:10347000B5FBF6F0404502D306FB08F6F2E7DFF8AD
:103480003C9000BFB5FBF6F000FB165519F8001094
:103490005846FDF781FEB6FBF8F6002EF2D15FEA42
:1034A000CA7009D0002C07D0A74205D22021584667
:1034B000641EFDF771FEF5E7BDE8F09F463500009C
:1034C0000A494A788B78521CD2B2934200D100222A
:1034D0000B78934201D1002070470270487800EBCE
:1034E000400001EBC000001D704700008402002076
:1034F0000D0E0F100B0C18193C0100205C01002070
:10350000880100200B000300410D00000C000300A7
:10351000410D000018000300410D000019000300D8
:10352000410D000000000050000300507128000011
:10353000CD2A00000300000064020020000000000B
:103540000338FDD8704730313233343536373839A7
:103550004142434445460000312000000520000060
:10356000FD1F0000FFFFFFFFFFFFFFFFFFFFFFFF4B
:10357000FFFFFFFF00000000000000000000D60178
:1035800006010000900400207F00000010050020CC
:103590000040404040404040404041414141414066
:1035A000404040404040404040404040404040401B
:1035B00040050202020202020202020202020202AA
:1035C00002202020202020202020200202020202AF
:1035D0000202909090909090101010101010101007
:1035E0001010101010101010101010100202020213
:1035F0000202888888888888080808080808080857
:103600000808080808080808080808080202020252
:1036100040000000913500004253505F494E44493C
:10362000434154455F555345525F53544154455FA0
:10363000300000004253505F494E444943415445D5
:103640005F414C4552545F30000000004253505FD0
:10365000494E4449434154455F555345525F535485
:103660004154455F310000004253505F494E444988
:10367000434154455F414C4552545F3100000000C6
:103680004253505F494E4449434154455F55534569
:10369000525F53544154455F320000004253505F23
:1036A000494E4449434154455F414C4552545F3271
:1036B000000000004253505F494E44494341544585
:1036C0005F555345525F53544154455F33000000EA
:1036D0004253505F494E4449434154455F414C4534
:1036E00052545F33000000004253505F494E44493A
:1036F000434154455F434F4E4E45435445440000BB
:103700004253505F494E4449434154455F414456FA
:103710004552544953494E475F44495245435445E5
:10372000440000004253505F494E444943415445D0
:103730005F49444C450000004253505F494E4449A4
:10374000434154455F555345525F53544154455F7F
:103750004F4646004253505F494E44494341544509
:103760005F414C4552545F4F464600004253505F04
:10377000494E4449434154455F424F4E44494E47A8
:10378000000000004253505F494E444943415445B4
:103790005F5343414E4E494E470000004253505F35
:1037A000494E4449434154455F414456455254496A
:1037B00053494E47000000004253505F494E444970
:1037C000434154455F53454E545F4F4B000000004A
:1037D0004253505F494E4449434154455F5243561A
:1037E0005F4F4B004253505F494E4449434154455B
:1037F0005F555345525F53544154455F4F4E00004F
:103800004253505F494E4449434154455F53454EEE
:10381000445F4552524F52004253505F494E444913
:10382000434154455F464154414C5F4552524F52CB
:10383000000000004253505F494E44494341544503
:103840005F5243565F4552524F5200004253505F01
:10385000494E4449434154455F41445645525449B9
:1038600053494E475F57484954454C49535400000B
:103870004253505F494E4449434154455F41445689
:103880004552544953494E475F534C4F570000002F
:103890007761726E696E670064656275670000002B
:1038A0001B5B313B33306D001B5B306D0000000053
:1038B0001B5B313B33316D001B5B313B33326D00A1
:1038C0001B5B313B33336D001B5B313B33346D008D
:1038D0001B5B313B33356D001B5B313B33366D0079
:1038E0001B5B313B33376D00696E666F0000000073
:1038F0006572726F720000004750494F54450000D6
:10390000505253005541525400000000554152544A
:1039100045000000756172745F6C6F675F62616380
:103920006B656E64000000006170700098390000E3
:10393000000000203C01000040040000183A000094
:103940003C01002014280000B40800005835000095
:103950000000000014390000E0000020F8380000EA
:1039600000000000003900000000000004390000E1
:10397000000000000C3900000000000028390000A1
:1039800000000303F0000020E8000020F000002009
:10399000D00300201800000051332437338437331C
:1039A0009C37334C384370383237336C3733E83612
:1039B00043B837323833D0373334383318383334A8
:1039C00036336836339C3633D03633543733383752
:1039D000331836334C3633803633B4360370E4371D
:1039E00064200040942000400220FF33F0383390E0
:1039F0003833E83833983833A83833A03833B03800
:103A000033B83833C03833C83833D03833D8384374
:083A1000E0381490D00300001F
:0400000500000201F4
:00000001FF
