:020000040002F8
:10600000A8540020C1630200C9630200CB630200F0
:10601000CD630200CF630200D163020000000000E4
:10602000000000000000000000000000D363020038
:10603000D563020000000000D7630200D9630200AC
:1060400041670200DB630200E16A0200DB630200D9
:10605000DB630200DB63020079650200DB630200A0
:10606000DB630200DB630200DB630200DB63020030
:10607000DB630200DB630200DB630200DB63020020
:10608000DB63020099670200DB630200DB6302004E
:10609000BD670200DB630200C1670200DB63020030
:1060A000DB630200DB630200DB630200DB630200F0
:1060B000DB630200DB630200000000000000000060
:1060C000DB630200DB630200DB630200DB630200D0
:1060D000DB630200DB630200DB6302000000000000
:1060E00000000000000000000000000000000000B0
:1060F00000000000000000000000000000000000A0
:10610000000000000000000000000000000000008F
:10611000000000000000000000000000000000007F
:10612000000000000000000000000000000000006F
:10613000000000000000000000000000000000005F
:10614000000000000000000000000000000000004F
:10615000000000000000000000000000000000003F
:10616000000000000000000000000000000000002F
:10617000000000000000000000000000000000001F
:10618000000000000000000000000000000000000F
:1061900000000000000000000000000000000000FF
:1061A00000000000000000000000000000000000EF
:1061B00000000000000000000000000000000000DF
:1061C00000000000000000000000000000000000CF
:1061D00000000000000000000000000000000000BF
:1061E00000000000000000000000000000000000AF
:1061F000000000000000000000000000000000009F
:10620000DFF80CD000F07AF9004800474DAA0200F0
:10621000A854002030B450E8012F93B2C48923441D
:106220008489A34228BF1B1B0489A34202BFBFF37A
:106230002F8F002007E0C3EA020340E80134002C5E
:10624000E9D14FF001000A6030BC704750E8012FDF
:10625000C2EA024240E801210029F7D1704730B478
:1062600050E8022F1FFAA2F3C488A34202BFBFF373
:106270002F8F00200DE0C48923448489A34228BFC6
:106280001B1BC2EA034340E80234002CE8D14FF064
:1062900001000A6030BC704750E8022FC2EA224277
:1062A00040E802210029F7D17047034653E8022F46
:1062B000D988B2EB324F4FF0000017BF92B241EADB
:1062C000014142EA014104E05A68B2EB324F08BF93
:1062D000012043E80212002AE8D1704730B4044696
:1062E00054E8000F0D4644E80053002BF8D1156028
:1062F00030BC704730B4044654E8000F40EA010552
:1063000044E80053002BF7D1156030BC704730B41F
:10631000044654E8000F00EA010544E80053002B4E
:10632000F7D1156030BC704730B4044654E8000F14
:1063300080EA010544E80053002BF7D1156030BC1A
:10634000704730B4044654E8000F00EB010544E800
:106350000053002BF7D1156030BC704730B40446B1
:1063600054E8000FA0EB010544E80053002BF7D1DF
:10637000156030BC704770B404464FF0000054E81C
:10638000006F0D68AE4207BF44E80023012044E8D7
:1063900000630E60002B1CBF0020F0E770BC70474C
:1063A00030B4044654E8000F88422CBF451A054615
:1063B00044E80053002BF5D1156030BC7047000055
:1063C0000648804706480047FEE7FEE7FEE7FEE78F
:1063D000FEE7FEE7FEE7FEE7FEE7FEE7C567020031
:1063E000016202002DE9F05F0546002092469B46BF
:1063F00088460646814640241BE0284641464746DB
:10640000224600F06BF853465A46C01A914110D309
:1064100011461846224600F016F82D1A67EB0108BF
:106420004F4622460120002100F00DF817EB00092D
:106430004E41201EA4F10104DFDC484631462A46C5
:106440004346BDE8F09F202A04DB203A00FA02F11F
:10645000002070479140C2F1200320FA03F3194352
:106460009040704700487047F410030040EA010371
:106470009B0703D009E008C9121F08C0042AFAD2FA
:1064800003E011F8013B00F8013B521EF9D27047BE
:10649000D2B201E000F8012B491EFBD27047002266
:1064A000F6E710B513460A4604461946FFF7F0FF13
:1064B000204610BD421C10F8011B0029FBD1801A98
:1064C000704730B504460020034600E05B1C934251
:1064D00003D2E05CCD5C401BF8D030BD202A04DB49
:1064E000203A21FA02F00021704721FA02F3D0404D
:1064F000C2F120029140084319467047064C074DEF
:1065000006E0E06840F0010394E807009847103483
:10651000AC42F6D3FFF778FE7426030094260300FE
:1065200070B58C1810F8015B15F0070301D110F855
:10653000013B2A1106D110F8012B03E010F8016B82
:1065400001F8016B5B1EF9D12B0705D40023521E05
:106550000DD401F8013BFAE710F8013BCB1A921C6D
:1065600003E013F8015B01F8015B521EF9D5A1426B
:10657000D8D3002070BD00002DE9F04700268AB076
:10658000DFF85091B0464FF48075012437460696E7
:10659000284605F017FC38B1D9F80403204203D08F
:1065A000284605F005FC26432D1D64007F1CADB276
:1065B000082FEDD34FF4BE74204605F003FC48B11C
:1065C000204605F0F5FB46F0004606AA0121002012
:1065D00005F0DAFB404D16F0FF0F15D0012700241F
:1065E00037420DD009EB8401D1F81005D1F8101510
:1065F000C0F3042055F82420C1F3014102B19047B3
:106600007F00641C082CEBD3002E5FDA4FF0FF30C4
:10661000CDF8108054E0281910F8507F90F9000050
:1066200027F0C008401C3BD007A9404604F057FDA6
:1066300010B34FEA9719404602F0D2F955F820708E
:106640001FB1B9F1030F03D006E0B9F1030F27D151
:1066500004A9404604F04BFD4FF0A04101EB880037
:10666000D0F8000706A9C0F3014A404604F037FD00
:1066700018B1BAF1020F03D012E0BAF1030F0FD133
:10668000B9F1030F08D1BAF1020F1DD00221404623
:1066900005F05EFB761CF6B217B149464046B84796
:1066A000641C042CB7D3002E10D06A4601210020B0
:1066B00005F06AFB06990098884207D00690049876
:1066C000002634460790A6E70321E0E70AB0BDE8BC
:1066D000F0870000006000403C2B002000F01F020B
:1066E000012191404009800000F1E020C0F88012B3
:1066F000704700F01F02012191404009800000F125
:10670000E020C0F80011704700F01F020121914005
:106710004009800000F1E020C0F8001270474907EE
:10672000090E002806DA00F00F0000F1E02080F8E2
:10673000141D704700F1E02080F80014704700003D
:1067400070B54FF48076304604F00CFE114CB50560
:1067500060B1304604F00DFE0120C5F808036079F1
:1067600020B9012060712168002088474FF48276AB
:10677000304604F0F7FD00280AD0304604F0F9FD59
:106780000220C5F808032168BDE8704001200847D1
:1067900070BD00001C23002007480021C0F84011F4
:1067A000C0F84411C0F84811C0F84C11C0F80011ED
:1067B000C0F8041109F046BC0010014009F090BB7C
:1067C00006F0C8B8F0B5B5480023021D0178101DC9
:1067D00001254FF0805406290BD11678360708D1D1
:1067E0000678C6F30316032E06D0042E04D0052E19
:1067F00002D0062907D00EE0B4F82463A84FC6F3F0
:1068000004263E6002E01678360704D10678C6F307
:106810000316032E02D0062904D00FE0A24FA14E8A
:106820007E670EE01678360708D10678C6F30316A1
:10683000032E06D0042E04D0052E02D0062907D040
:106840000EE0D4F84462994FC6F342363E6002E04F
:106850001678360704D10678C6F30316032E02D045
:10686000062906D011E0924E376827F0807737600E
:106870000EE01678360708D10678C6F30316032E05
:1068800006D0042E04D0052E02D006290AD011E02D
:106890004FF08046C6F80C31C6F81031834E361FD3
:1068A000336002E01678360704D10678C6F3031683
:1068B000032E02D0062905D00CE07C4F0326643756
:1068C0003E600AE01678360704D10678C6F3031650
:1068D000032E02D006290DD014E0764F05263E6027
:1068E000744E78363560734E083633603F263F1D50
:1068F0003E6002E01678360704D10678C6F3031628
:10690000052E02D0062957D062E06B4E36686B4FD9
:106910003E60694E361D36683F1D3E60664E083645
:1069200036683F1D3E60644E0C3636683F1D3E6043
:10693000614E103636683F1D3E605F4E1436366835
:106940003F1D3E605C4E183636685C4F20373E6017
:10695000594E1C3636683F1D3E60574E203636680D
:106960003F1D3E60544E243636683F1D3E60524EF9
:10697000283636683F1D3E604F4E2C3636683F1D28
:106980003E604D4E303636684C4F40373E604A4E82
:10699000343636683F1D3E60474E383636683F1DF8
:1069A0003E60454E3C3636683F1D3E60424E4036A6
:1069B00036683F1D3E6002E01678360708D106783B
:1069C000C6F30316032E06D0042E04D0052E02D0E3
:1069D000062907D019E0D4F85812394A01F04F01BE
:1069E000116002E0117809070FD10078C0F303109D
:1069F000032803D0042801D0052806D131480168B6
:106A0000C90702D06FF001010160D4F830010628F7
:106A100008D1D4F83401062804D12B48016841F488
:106A20008061016022487438016841F4700101609E
:106A3000BFF34F8FBFF36F8F4FF01021D1F80002DB
:106A4000002803DBD1F80402002822DA1F4A15606F
:106A50001F480468002CFCD01524C1F800420568CA
:106A6000002DFCD0C1F8044201680029FCD013605D
:106A700001680029FCD0BFF34F8F0D48F038016842
:106A8000144A01F4E06111430160BFF34F8F00BF6E
:106A9000FDE7124910480860F0BD0000E00F00F06B
:106AA000403501400DF0ADBA00C007403C05004044
:106AB000FCED00E0105600400404001020C500402A
:106AC000E40E0040000400403C17004004E5014093
:106AD00000E401400400FA050090D00318240020CF
:106AE00001480068004700002423002002E008C895
:106AF000121F08C1002AFAD170477047002001E038
:106B000001C1121F002AFBD170470000012120287B
:106B100003DA81400548014003E0402802DA2038CA
:106B2000814009B10120704700207047FC06FFBD7D
:106B30002DE9F843804643F2020659B9694607F049
:106B400031FAB04202D008B100F0A0F99DF800007F
:106B5000800744D40021404607F060FA05003ED08B
:106B6000112D3CD01F482049401AC708022000EBD5
:106B700007440D2D0AD00B2D1DD0B5421FD11B4946
:106B800020464246BDE8F84305F020BB2046424679
:106B9000174905F01BFB1321404676DF00281ED065
:106BA00005F060FF024601B020464346BDE8F043D1
:106BB00010A105F012BB204642461C49E2E72846D8
:106BC00005F050FF0246012000EB0740434618A1A4
:106BD00005F003FB2846BDE8F84300F057B9BDE8CF
:106BE000F8830000DC260300A426030064180300D9
:106BF000F017030073645F626C655F6761705F64C8
:106C00006973636F6E6E656374282920726574758D
:106C1000726E6564202573206F6E20636F6E6E5FE9
:106C200068616E646C652025642E0000B018030056
:106C3000417373657274696E672E20706D5F636F48
:106C40006E6E5F7365637572652829207265747551
:106C5000726E6564202573206F6E20636F6E6E5FA9
:106C600068616E646C652025642E000010B560B10B
:106C700059B102780B785208B2EB530F05D10622B6
:106C8000401C491CFFF71DFC08B1002010BD01206D
:106C900010BD800701D00020704701207047C368F5
:106CA0008B4206D811440069491E814201D8012057
:106CB00070470020704710B501220221002001F02A
:106CC00063FC08B1072810D107220221012001F03E
:106CD0005BFC08B1072808D100210A22084601F010
:106CE00053FC08B1072800D1002010BD10B50446A0
:106CF0002C21FFF7D4FB012020714FF49670206106
:106D000044F25060606110BD70B58CB015460E46FF
:106D100000236C46C3F10F01415CE1545B1C102B56
:106D2000F8D30D2104F11000FFF7B9FB0020C0F1EA
:106D30000F02315C2244401C11740328F7D36846CB
:106D400046DF0020C0F10F01214491F820102954A2
:106D5000401C0328F6D30CB070BD022001F01EBB0E
:106D60000149C97800F08EBEEC22002070B50024E5
:106D7000064D06E06868012110F8340005F0D6FEE3
:106D8000641C28788442F5D3002070BD3023002095
:106D9000F8B515460C460646052A01D20720F8BD6F
:106DA00005F0C0FF18B905F085FF0028F7D112499A
:106DB00000224E600C708D60C1E90422C1E90622F8
:106DC0000E4D0DE006EBC4002968009181788DF826
:106DD000011000780A4A694605F0FAFE0028DED163
:106DE000641EE4B2EED2BDE8F84004480021054A32
:106DF000001D00F09FB80000302300205C0D030050
:106E0000859C02007D8F020072B605F08DFA00BFEE
:106E100005F0BEF80028FBD111481249401AC408F9
:106E2000012000EB044010A105F0CCF911480068E6
:106E3000C00700D000BE022000EB04400EA105F008
:106E4000C1F9BFF34F8F0B48E43801680E4A01F4D3
:106E5000E06111430160BFF34F8F00BFFDE7000009
:106E600034270300A4260300466174616C20657218
:106E7000726F7200F0ED00E053797374656D2072EB
:106E800065736574000000000400FA050EB500216A
:106E90000091CDE901106A4644F20100FFF7B4FF0A
:106EA0000EBD000010B502280ED108480849401A4E
:106EB000C108032000EB0140044606A105F082F959
:106EC000204610A105F07EF9012010BD34270300F3
:106ED000A4260300506F776572206D616E6167654F
:106EE0006D656E742077616E747320746F207265A7
:106EF00073657420746F20444655206D6F64652E51
:106F000000000000506F776572206D616E616765EB
:106F10006D656E7420616C6C6F77656420746F2092
:106F2000726573657420746F20444655206D6F64DC
:106F3000652E0000074B9B7823B12AB120B1006871
:106F4000037C1BB1082070470720704741744261E1
:106F500000207047082C002070B508F05FF9104839
:106F600000240B21047044700E4D817014206C605D
:106F70002C706C70FFF7B2FB06211420FFF7CFFBDB
:106F80001420FFF7B6FB0848046006211120FFF724
:106F9000C6FB0548001F0068A860002070BD000007
:106FA000082C002050230020081501402DE9FC4743
:106FB000DFF8789099F8023073B368B3052902D2EC
:106FC0000720BDE8FC87436933B3437C012B25D000
:106FD000002704460025884616468DF8005068466E
:106FE00000F038F801A809F0D1FAC8B10121017008
:106FF0000F4944600968C0E90218C0E904769DF8A9
:10700000040089F801009DF8000000F047F8142002
:10701000FFF77AFB2846D4E70820D2E70F46D8E7E7
:1070200004259DF8000000F039F8F3E7082C002053
:10703000041501400649897839B130B1416921B15F
:1070400000210174022108F0D9BF08207047000018
:10705000082C002030B5EFF3108172B60D4A946809
:10706000012324B10370002900D162B630BD9360C2
:107070004FF0E023D3F88051074C25401560C3F84A
:107080008041D3F8844154605A17C3F88421002208
:107090000270E8E7142D0020FC06FFBD0B498A684A
:1070A000002A11D000280FD1EFF3108072B60B68C0
:1070B0004FF0E022C2F800314B68C2F804310022E0
:1070C0008A60002800D162B670470000142D0020AD
:1070D0002DE9F041064608680C46411C4FF0A047D8
:1070E0004FF0010506D005FA00F1C7F80815206831
:1070F00004F01AFE6068411C02D0002104F002FE78
:107100003168A069C1F82405607D227D3168104393
:10711000C1F86C05D4E900123068C0F81425C0F835
:107120000C15207D012815D1A068411C02D000213A
:1071300004F0E8FDE068411C05D08540C7F808551B
:10714000E06804F0F1FDD4E902123068C0F80825C7
:10715000C0F81015BDE8F0812DE9F0410646086839
:107160000C46411C4FF0A0474FF0010506D005FA30
:1071700000F1C7F80815206804F0E0FD6068411CC4
:1071800002D0002104F0C7FD3168A069C1F82405D0
:10719000607D217D32680843C2F86C05D4E9001295
:1071A0003068C0F80C15C0F81425207D012815D1D1
:1071B000A068411C02D0002104F0ADFDE068411C34
:1071C00005D08540C7F80855E06804F0B7FDD4E95C
:1071D00002123068C0F80825C0F81015BDE8F0812B
:1071E00003F004BB2DE9F047814605884A484FF07B
:1071F00000088AB001784246284600F05BFC99F806
:107200000500400701D4002176E005F58077B8B28B
:1072100001AB0122072106F029FB04003F48404A48
:107220004FF00101A0EB02004FEAD00001EB004655
:107230000AD0204605F016FC024630462B46394956
:1072400004F0CBFF214629E0284602F0EBFF4FF681
:10725000FF71044688422BD18A46029802F04CFF07
:107260000446504510D00146284602F0BBFF284690
:10727000FFF776FDE0B9284608F0C6F92846FFF783
:107280006FFD0028BFD013E006F0BCFC044650455B
:1072900008D1304624A104F095FF0421284608F0C7
:1072A000E1F9B0E70146284602F09CFF4FF00108E3
:1072B000B8B22246072106F051FB07001BD0862FEB
:1072C0001ED005F0CFFB024630462B4623490094E2
:1072D00004F08BFF3946284608F0C4F900214846DF
:1072E00006F0B8F9B8F1000F02D0204602F084FF92
:1072F0000AB0BDE8F0870121484606F0ABF9F7E790
:107300001822174903A8FFF7B1F8ADF80E5003A8EB
:1073100002F030F8EFE70000EC220020E426030042
:10732000A4260300681B0300436F756C64206E6F16
:107330007420616C6C6F63617465206E657720707A
:107340006565725F696420666F7220696E636F6D38
:10735000696E6720626F6E642E000000141C0300CB
:10736000E40C03002DE9FC4700251788064615802C
:1073700090F82D001446894630B13A4621464846D9
:1073800000F0C2FB051E09D1B0784FF00C0A18B30B
:107390002088C846001DB84202D95046BDE8FC8787
:1073A000684679DF0028F9D12088032108F8001009
:1073B00020881921401C80B2208008F80010208805
:1073C000401C80B2208000EB0801BDF8000008F0EE
:1073D000FDFF218808442080F0780222C8B121886E
:1073E00096F9033001F1030C4846BC45D5D8425408
:1073F00021884FF0010C491C89B2218000F801C09E
:107400002188491C89B2218009F801302088401C5C
:1074100020807068B8B1218890F9003001F1030C28
:107420004846BC45B9D8425421880A22491C89B231
:10743000218042542188491C89B2218009F80130F9
:107440002088401C2080308950B1CDE900474B4650
:107450000622022106F1080009F0B0F8051E9DD1B0
:10746000308A50B1CDE900474B460722032106F18F
:10747000100009F0A3F8051E90D1308B50B1CDE972
:1074800000474B461522142106F1180009F096F822
:10749000051E83D1306A30B13B462246494601F091
:1074A00026FC051EDBD1706A30B13B4622464946B8
:1074B00003F0EEFB051ED2D196F82C0038B13B4606
:1074C00022464946304608F0A7F9051EC7D1307854
:1074D00038B13B4622464946304603F067FC051E5C
:1074E000BDD128465AE718B504460020ADF8000083
:1074F00013466A46204600F006F8002802D0BDF880
:107500000000204418BD70B588B182B100241588F0
:1075100003E0065D641C3444A4B2A54203D80619F6
:1075200076789E4201D08C42F3D38C4201D3002066
:1075300070BDA11C1180005D401E80B270BD80F83E
:10754000301070472DE9F0470D00044606D02CB1ED
:1075500095F87A000026012803D006E00E20BDE849
:10756000F08795F89800012829D0D5F8A0000428C4
:1075700025D0D5F89C00042821D04FF00109A67031
:107580002C2205F17801201DFEF770FF84F8306091
:10759000D5F8A4006063D5F8A800A0634FF6FF708B
:1075A000A4F8480204F50D70C4F84402C4F84A6215
:1075B000A4F84E6284F85062207810B104E00720ED
:1075C000CDE7FF2084F8540004F15501C4F83412CB
:1075D00094F82400EE274FF01F0801281FD0A4F8CC
:1075E000388200BF04F50E722846FFF7BBFE002864
:1075F000B5D115F13C0F18D004F24311C4F83C1278
:1076000094F8240001280DD0A4F8408204F51072EB
:1076100005F13C00FFF7A6FE0028A0D109E0A4F880
:107620003872DFE7A4F84072F0E7C4F83C62A4F8CF
:10763000406284F85190208BA4F8480084F83C9074
:10764000266484F85060606960644D4604F13C0231
:10765000002104F1540072DF002880D125707EE7FC
:107660002C22001DFEF702BF10B50288102A1BD085
:10767000112A20D0262A1DD1007A0C46012801D0DB
:10768000022817D1A0780521401CB0FBF1F201FBC4
:107690001201204600F03BF800280BD0A16B002916
:1076A00008D0BDE810400847C27B012A02D180887B
:1076B000A1F8480210BD0C46002184F852128088BF
:1076C000B4F848128842F5D120790028F2D101217E
:1076D000DFE7704710B5044690F8540074DF0120CE
:1076E00084F85202002084F8540284F850000621E5
:1076F000204602F013F8002808D1A178204600F0B7
:1077000006F810B1A16B01B18847002010BD2DE92A
:10771000F05F044600780F4698B1A7700025C4F8C2
:107720004A52A4F84E5284F85052A079012608B16A
:10773000012F09D0E07980B1012F05D0022F03D0AD
:107740000BE00820BDE8F09F616B21B184F8516225
:107750000820884701E084F8515204F24B210020B0
:107760000A5C0AB1304603E0401C0628F8D300202A
:107770004FF002084FF0030B012F06D0022F0CD060
:10778000032F0FD0042F15D110E0A17929B194F85F
:10779000241011B908B130460DE0E17911B108B1FA
:1077A000404608E0207A08B1584604E0607A08B103
:1077B000042000E02846A070616B41B1032801D08D
:1077C000042804D1607910B194F85202A0B184F871
:1077D000535204F13C0018210746FEF760FE04F105
:1077E0002C0084F83C60814606F048FB58B194F8C0
:1077F0002C0084F8510008E084F8545284F8536255
:1078000007208847E5E784F8516094F8240050B1D8
:10781000484606F033FB20B194F8280084F8520063
:1078200001E084F8526084F85050A27804F24A21B2
:1078300004F50D794FF0060A052A62D2DFE802F05E
:107840007A030F22410084F83160C4F84452C4E93D
:10785000101584F83C808020A4F8480053E084F898
:10786000318094F82420384612B10722027001E0DA
:1078700080F800B0228A8281C4F844524160E168F5
:10788000B96040E06069B860208BB88194F824004A
:107890003D4610B184F83CA001E084F83C602046ED
:1078A00008F050FE50B185F814800421204601F004
:1078B00035FF30BB052184F8311020E084F831B069
:1078C0001DE0E069B860208CB88194F824003D4642
:1078D00010B184F83CA001E084F83C60204608F038
:1078E00031FE48B185F814800421204601F016FFCE
:1078F00038B984F831A002E0042084F83100C4F8DB
:107900004492A07878B13A4604F15400D4F8441275
:1079100072DF00287FF416AF94F8301094F854000A
:1079200073DF0028F6D1616B11B194F831008847FC
:10793000002007E784F83150F5E7000070B5040037
:1079400012D001461C221448FEF790FD1248134D38
:107950000560206850B17ADF002806D120680168F0
:1079600029604068686005E00E2070BD0B487BDF31
:107970000028FAD108484FF6FF711438084A20F859
:10798000041B0549343901600021FFF7D3FA0028B0
:10799000EBD0032070BD00004827002048220020C3
:1079A000DD04030010B5044600F0A4F8002805D05B
:1079B0002146BDE81040024803F0F5BA10BD0000B2
:1079C000742700200346034880680A46194601F0E0
:1079D000D1BE00006427002070B515460E4604464F
:1079E00008F0BCFD002809D0054800EB8400806940
:1079F0002A463146BDE8704001F0BCBE70BD0000B3
:107A00006427002010B5044600F074F8002805D063
:107A10002146BDE81040024803F0C5BA10BD000081
:107A20007827002070B50546002400F063F838B1CF
:107A30002946044803F0B7FA08B1022400E0012403
:107A4000204670BD7027002070B50546002400F068
:107A500051F838B12946044803F0A5FA08B10224C8
:107A600000E00124204670BD6C27002010B51821CD
:107A7000034803F073FA182800D0C0B210BD00000C
:107A80006427002070B505460C46084608F066FDE0
:107A900060B1284600F02EF840B10548294600EBB9
:107AA0008400BDE87040183003F07DBA002070BD3E
:107AB0006427002070B5054614460E46084608F0B7
:107AC0004DFD002812D0284600F014F800280DD0F3
:107AD0000748294600EB860018301CB1BDE870400D
:107AE00003F06CBABDE8704003F01DBA70BD000031
:107AF00064270020142801D3002070470146014864
:107B000003F051BA682700207CB5054608880C466A
:107B10000930904201D90C207CBD68466DDF0028F9
:107B2000FAD121880820685420881B21401C80B28B
:107B3000208029542088401C80B220802844DDF811
:107B400001100160BDF8051081802088801D80B281
:107B500020809DF80010490800D001212954208878
:107B6000401C208000207CBD10B503F00BFC0028D9
:107B700009D105484FF0020C00DF002803D1BDE811
:107B8000104003F065BC10BDDC2A002020B1034981
:107B90000860034807F024B80E2070470C2300202B
:107BA0004DE0020010B54FF0FF3100203DDF00280E
:107BB0000BD1B1213CDF002807D1044841690120E5
:107BC0008847022004F0DAFC002010BDC02A002003
:107BD00010B5064C206841690020884706F008F976
:107BE0002168086102F0A8F8002010BD0C230020D5
:107BF00010B588B0044620216846FEF750FC0420EA
:107C0000ADF8000020788DF802009DF80D001721D6
:107C100040F028008DF80D000120ADF804108DF81B
:107C2000100002218DF813108DF812108DF80C0041
:107C30008DF811006088A21D694600F0D9FE08B0D9
:107C400010BD000010B5184C86B01ECC8DE81E008B
:107C500050B1164C4FF6FF71A180006800216061A1
:107C60006176217618B104E00E2006B010BD1048F0
:107C700060610E48FFF78AFF0028F6D101208DF8D9
:107C800012004FF65960ADF81000A21C04A90120A3
:107C9000A8DF0028E9D10549684662DF0028E4D161
:107CA0000248FFF7A5FFE0E7400D0300C02A0020CF
:107CB0006190020010B500280FD00188214C502996
:107CC00026D00BDC10291DD0112906D1A18880886F
:107CD000814202D14FF6FF70A08010BD512913D010
:107CE0005329FAD1C088E1888842F6D1607E002805
:107CF000F3D0FFF76DFF0028EFD06169BDE81040B9
:107D0000022008478088E7E7BDE8104005F026BB61
:107D100030F8061F62899142DFD141890229DCD106
:107D20000C3000F0F3FA0849084A2076891AC9088D
:107D3000032202EB01430246BDE8104004A11846AD
:107D400004F044BAC02A002034270300A42603000C
:107D5000526563656976656420696E646963617400
:107D6000696F6E20737461746520256400000000E3
:107D700070B50546007B0424012810D00224287B1E
:107D8000214600F051F80C4C18B1206841690320DD
:107D9000884720684169BDE870400220084701F02B
:107DA00087F9002807D0112803D00F28E7D107242E
:107DB000E5E70624E3E770BD0C23002070B5184901
:107DC00000250A68002A2AD04A68002A27D00126FE
:107DD00008319047082822D0124C0028206810D083
:107DE000457685760621012000F01EF818B120683E
:107DF00041690320884720684169BDE8704002203E
:107E00000847467685760121084600F00DF80028DF
:107E100005D020684169032088472068457670BDF9
:107E2000DC2A00200C23002086B00323ADF80030AC
:107E300020238DF814308DF8150000220E48019291
:107E400002928DF81610C188ADF8041002218DF849
:107E5000061005A90491ADF80820CDF80CD0808853
:107E600001A9AEDF002804D1BDF80010032900D01D
:107E70000C2006B070470000C02A002030B51F4912
:107E80001F4B01250322C91AC9088BB002EB01441C
:107E900078B1012825D0194A1946511AC90801227A
:107EA00002EB014202281FD0032810461FD015A163
:107EB0001EE020461DA104F085F96846FEF716FF76
:107EC0008DF8005069462548FFF7CAFB0021244879
:107ED000FFF778FD0246204622A104F077F90BB0A7
:107EE00030BD204625A103E010462DA100E03BA1B6
:107EF0000BB0BDE8304004F065B900003427030042
:107F0000A4260300556E6B6E6F776E206576656EE6
:107F1000742066726F6D20626C655F6466755F6267
:107F20007574746F6E6C6573732E000044657669AA
:107F3000636520697320707265706172696E672075
:107F4000746F20656E74657220626F6F746C6F6100
:107F5000646572206D6F64652E000000502400205F
:107F600019900200446973636F6E6E656374656493
:107F7000202564206C696E6B732E00004465766961
:107F800063652077696C6C20656E74657220626F22
:107F90006F746C6F61646572206D6F64652E000094
:107FA0005265717565737420746F20656E746572A7
:107FB00020626F6F746C6F61646572206D6F6465B1
:107FC000206661696C6564206173796E6368726FA5
:107FD0006E656F75736C792E0000000052657175C7
:107FE00065737420746F2073656E64206120726500
:107FF00073706F6E736520746F20636C69656E7447
:10800000206661696C65642E0000000038B5044686
:10801000008821281CD013DC102822D1072000F072
:10802000D5FA08B1FEF732FF1048A1880180104848
:1080300003F020F9002814D0BDE83840FEF726BF31
:108040003B280FD056280CD1A088132176DFF1E70A
:1080500000200090A08869468FDF002801D0FEF73D
:1080600015FF38BDA088132176DFE3E72822002022
:108070004424002010B51A4C0188606810290ED0E5
:1080800011292BD1401E606028D1FEF714FE002874
:1080900024D02168002921D0BDE810400847D0B97C
:1080A00000210122084600F06FFA08B107280FD11D
:1080B00007220221012000F067FA08B1072807D142
:1080C00004220221002000F05FFA20B1072802D02C
:1080D000216801B188476068401C606010BD0000E5
:1080E000402200202DE9F04701883B4E40F2F31971
:1080F0004FF6FF7510291BD011293ED0122954D0FC
:10810000502946D1C188F289841D914241D16189AB
:1081100002293ED18688304602F032F9050038D077
:1081200004F10C0000F0F6F8A8B3294630464EE002
:10813000C17B8788044601292BD1A846284602F036
:108140001FF9050017D02F800020287223484346CE
:108150004A460168C5F80A104068C5F80E0004F1E7
:10816000100105F10A0002F0CBF96872F0890028CD
:108170000FD129462AE0042013E0808802F000F99C
:10818000040006D06068FEF755FF08B107F04EFA0C
:108190002580BDE8F087FFE76868FEF74BFF002801
:1081A000F7D0BDE8F04707F041BA87880646384661
:1081B00002F0E6F80400ECD02B464A4606F108012E
:1081C00004F10A0002F09CF9607221463846BDE8CD
:1081D000F04700F0D3BD00004827002048220020CF
:1081E0002DE9F04F0746858802883D48012197B068
:1081F0008346102A09D0112A49D01A2A6CD1387A1C
:10820000B1EB101F45D2012244E0354C083CA06878
:10821000C0430B9061680BA802F0E9FE0B990CA813
:1082200000F046FD2C220CA96846FEF71FF9002637
:10823000E946A04610E000BF09EB46005FF00004ED
:10824000B0F804A008EB84005146001D02F06BFE5C
:10825000641C1D2CF6D3761C0098B042ECD8142D6B
:1082600005D317B00420BDE8F04FFEF70FBE294636
:10827000584602F0A3FE294608F1040002F09EFED3
:10828000F87B012828D016482946001D15E029460C
:108290001AE000220221B1EB101F01D2012600E0FA
:1082A00000260F49083901F11000041D294682B14A
:1082B00002F084FE36B12946204617B0BDE8F04FE3
:1082C00002F07CBE2946204617B0BDE8F04F02F010
:1082D0002ABE02F028FEF5E717B0BDE8F08F0000D7
:1082E0006C27002010B504460748007800280AD003
:1082F000204601F073FE204607F03EFB2046BDE815
:10830000104001F043BB10BD7C2200200078C0F378
:1083100040007047007800F0010070470149085C98
:1083200070470000640B03000649095C4FF0A04051
:10833000D0F81005C84010F0010000D0012080F0F6
:1083400001007047640B03002DE9FC410646C0079D
:108350004FF000050ED0104F00240122385D00952B
:1083600000231146019503F073FC641C042CF4D324
:1083700000F046F8B0070DD5074E0024361D002248
:10838000305D032300951146019503F061FC641CE8
:10839000042CF4D3BDE8FC81600B030007490B5C9F
:1083A0004FF0A041D1F804250120984020EA0203B3
:1083B000C1F808351040C1F80C057047600B030088
:1083C0000249085C012103F0D4BC0000600B0300EB
:1083D0000249085C002103F0CCBC0000600B0300E4
:1083E0000649095C4FF0A040D0F80405C84010F0E1
:1083F000010000D0012080F001007047600B0300F5
:1084000010B500242046FFF7DBFF641C042CF9D3D1
:1084100010BD10B500242046FFF7DAFF641C042CC1
:10842000F9D310BD10B50246064B4FF0FF300021C6
:108430005C5C944201D1084610BD491C0429F7D365
:1084400010BD0000640B030070B50C4E0C004FF023
:10845000000530600BD0012000F06AF808B102205E
:1084600004E0002000F064F800B10B202070706878
:1084700010B9FEF720FC0546284670BD40220020BA
:1084800010B5002000F0DCF908B1062806D1012063
:1084900000F0D6F908B1062800D1002010BD000078
:1084A0002DE9F0470D468146FFF7BCFF044604283E
:1084B00036D2DFF874801B481C4EA8F10C0725B398
:1084C000012D0ED0022D2BD104EB44003044457811
:1084D000002D25D0B968002922D02846BDE8F047F4
:1084E000084704EB4401755C0E44717849B10E4AAB
:1084F0004FF40041093A8068FEF758FD08B987F843
:108500000390B17808F80410E2E78068FEF792FD66
:1085100004EB4401314418F804008D78A842D7D008
:10852000BDE8F087680B03003C220020E82600200D
:10853000042801D2FFF7F8BE00207047014610481A
:1085400010B50088042907D007290ED00A2915D1B3
:10855000BDE8104007F0FAB9132176DF0CE00028DF
:108560000CD0BDE81040FEF791BCA0F57F41FF396B
:1085700004D10448FFF7AEF80828F0D110BD000080
:10858000282200205024002070B50023042810D297
:108590000D4D00EB4004012A02D101290CD000222C
:1085A000094E00EB4000304461B1012906D0022998
:1085B00006D00723184670BD0E30C2B22A55F9E71F
:1085C0004270F7E78270F5E7E8260020044A01468A
:1085D00000201279D20702D0084600F04DB870474B
:1085E0003022002070B506461E480024C0E9016113
:1085F000B00720D50025012211462846FFF7C4FF09
:108600006D1C0446042D02D2002CF4D013E094B962
:1086100040F2666204211448FEF7BAFB04000AD156
:10862000FEF7A4FB040006D10F48104A0021001FEA
:10863000FEF780FC0446F00712D00120FFF784FE0D
:1086400074B909480A4A00210C38FEF773FC04008B
:1086500006D10548074A01210838FEF76BFC04469D
:10866000204670BD30220020740B03000D890200EB
:1086700095A502005B6D02002DE9F05F6E4C05468A
:1086800000266078B34618B184F801B001F06AFFA3
:108690006A4F4FF47A694FF4C87A4FF00108182DE9
:1086A00069D2DFE805F00C1313384754696E727B0A
:1086B000727BC58484848484B3B6B9BCC5C501F01B
:1086C00051FF3868FEF7B6FC06465CE00020FFF775
:1086D00087FE00284FF0000008D0FFF771FE022D42
:1086E00002D14FF4E16008E0484606E0FFF770FE73
:1086F000022D01D1C82000E05046410CC0034FF4C8
:10870000FA72801841F10001257052000023FDF734
:1087100069FE01462AE00020FFF762FE00284FF0C4
:10872000000004D0FFF74CFE4FF44870E5E7FFF778
:108730004FFEDFE70020FFF753FE00284FF0000058
:1087400002D0FFF73DFECFE7FFF742FED4E700205F
:10875000FFF746FE00284FF0000002D0FFF730FE82
:1087600001E0FFF735FE257041F69A1100223868C6
:10877000FEF71CFC064646E00020FFF70FFE2570C2
:1087800008E0002051E025703DE084F801800120E0
:10879000FFF704FE002240F6CD41E8E784F80180AF
:1087A0000120FFF7FBFD00224FF48041DFE77868EE
:1087B000FEF740FC0646D5F1110000D02EB1022094
:1087C000FFF7FEFD84F802B01DE0012816D980B243
:1087D000C8214843C117C90341EA5041C0034FF4BF
:1087E000FA72801841F1000152000023FDF7FAFDF2
:1087F000014600227868FEF7D9FB06460220FFF703
:10880000E7FD84F802803046BDE8F09F01F0AAFE43
:10881000B9E701F0A7FEB4E701F0A4FE04E001F01F
:10882000A1FE0020FFF7D4FD0120FFF7D1FDAAE74C
:10883000FFF7EFFDA7E7000030220020680B0300E0
:10884000012107F022BF00002DE9F8430546861CF0
:1088500000208DF8000090460F464FF00109684651
:10886000FEF7F8FB1B4C20683860D4E90001401A81
:10887000A16804F21C47081A0EE00121384602F0F4
:10888000B0FB02F095F80146384602F0AAFBD4E9A5
:108890000001401AA168081A401C8642EDD8B8F1C0
:1088A000000F03D0052065F3891002E0062065F370
:1088B0009F50A2682168114004EB8101C8602068C4
:1088C000304420609DF80000FEF7E8FB4846BDE814
:1088D000F88300008430002030B482680468531CA0
:1088E0008360A154D0E901128A4202D330BC02F065
:1088F00074BE30BC70470000034803C8814201D1F8
:108900000120704700207047843000200078022149
:10891000FFF7C6BD032805D10349A9200860002040
:1089200003F02CBE70470000200500401CB5044633
:1089300001F078FC00236A46092105F0D9F80528E2
:1089400005D10348012241792046FFF7B3F81CBD49
:10895000502200201CB50021009142F6A621ADF85E
:10896000001001218DF80210034901AA0968019144
:108970006946A0DF1CBD0000940B030005494FF0C1
:10898000FF32082841F8202002D3084480F848200C
:10899000704700003C2B0020F0B54FF0FF3512B1BE
:1089A0000023082601E008230C260C4C05E000BF3C
:1089B00054F823707F1C04D05B1CB342F8D32846C4
:1089C000F0BD26185DB286F8305044F82310002A16
:1089D000F5D1E11881F84800F1E700003C2B0020B8
:1089E0000249084490F93000704700003C2B0020F9
:1089F0002DE9F0438146887891B090460C4600B945
:108A000001208DF83E002088ADF83C00002500953F
:108A1000607C694606F044FF6E46A07C711C06F03F
:108A20003FFFE07B00289DF8020002D040F00800E4
:108A300001E020F008008DF80200217C11B140F027
:108A4000100001E020F010008DF80200217B11B130
:108A500040F0010001E020F001008DF80200217DCE
:108A600009B1022100E0012161F342008DF802000A
:108A70001C2102A8FDF713FD607BC10601D480060E
:108A800017D50E950EAFE07C791C06F009FF9DF816
:108A90003800079720F00F00401C20F0F000103045
:108AA0008DF838009DF83A0020F00600801C8DF803
:108AB0003A00607B8DF80800A07B8DF80900142136
:108AC00009A8FDF7ECFC0FA8CDE90906A088ADF8D0
:108AD0003000A06820B1E088ADF82C00A0680D90AF
:108AE000A06998B301950088ADF81000A06901ADA8
:108AF00001A94088ADF81200A0694068069503906E
:108B0000A069007B06F0CCFEA069691C407B06F0E2
:108B1000C7FEA069807A00289DF8060002D040F0C8
:108B2000080001E020F008008DF80600A169C97A6C
:108B300011B140F0100001E020F010008DF80600A7
:108B4000A169097A19B140F0010002E00DE020F0BE
:108B500001008DF80600A169897B09B1022100E0BE
:108B6000012161F342008DF80600E06900B1059033
:108B7000434609AA02A94846AADF11B0BDE8F0831E
:108B800070B504464FF6FF750A462846AC4209D137
:108B90004FF480742146104602F0E0F980B2A04202
:108BA0000BD070BDFF2CFCD82146104602F0C6F950
:108BB00090F0010F01D0204670BD284670BD000026
:108BC00070B5084C050009D010342168002907D081
:108BD00008682060496828468847F6E70834F4E7C3
:108BE00070BD0000282B0020054A012120B101287A
:108BF00005D19170FFF7E4BF51700020FAE770478C
:108C0000282B00202DE9F05F26484168F1B3DFF8FA
:108C100098B00E688146DBF8004087688078E11BD9
:108C200021F07F45ED1CB0B9DFF880804FF4803033
:108C3000C8F84403C8F804031120FDF74FFD1120C4
:108C4000FDF757FD4FF0010AC8F800A02F2003F0F0
:108C500065FF89F802A0B54200D23546124BE819EB
:108C60003C3320F07F401860DBF800105A46091BA7
:108C700021F07F41001B20F07F40C91C81420FD9A9
:108C8000106818602F2003F049FF00E004E0BDE801
:108C9000F05F1120FDF738BDBDE8F05F06F0BEBA09
:108CA000BDE8F09F50230020041501400010014052
:108CB00073B58CB00646002000900D9880B100245A
:108CC0006D4621460DA802F06EF930B1009805EB13
:108CD000400084800098401C0090641C142CF0D349
:108CE0002C2269463046FDF7C1FB0EB070BD2DE960
:108CF000F04117880646B81D14460D46984202D921
:108D00000C20BDE8F0813188072206290AD34FF4F0
:108D1000486C4FF6FF73614501D9994202D17088C2
:108D2000062801D21046ECE7604501D99842F9D1F6
:108D3000994203D0984201D08142F3D80520E855EA
:108D400020881221401C80B2208029542088401C99
:108D500080B220804119308807F038FB2188084410
:108D600080B220804119708807F030FB21880844C8
:108D700020800020C5E7FEF789B8000038B54A7AA0
:108D80000F4B62B100220A725969002906D00122F4
:108D90008DF80020ADF802006846884738BD0A7A91
:108DA00062B19B684C68024619462046FEF7FEF801
:108DB0000028F3D0BDE8384006F038BC5B68F1E726
:108DC00048270020F0B587B016460F4604461D46DA
:108DD00018220B496846FDF749FB0A488DF80870D0
:108DE000ADF80240ADF80A608DF80C500178002211
:108DF0002046FEF75FFE684600F0BCFA07B0F0BD03
:108E0000FC0C0300EC220020FDF792BE70B588B088
:108E10000646002005900690ADF81410ADF8161027
:108E20000190029001AA05A9304690DF050021D0EB
:108E300003F018FE0346114811493246401AC10892
:108E4000012000EB014004460E4903F0C6F9BDF8CD
:108E5000042012B9BDF8060028B1BDF8063020463E
:108E600009A103F0BAF9BDF808201AB12046164945
:108E700003F0ACF908B0284670BD0000BC26030022
:108E8000A4260300241403005468652072657175DC
:108E900065737465642054582F5258207061636B59
:108EA0006574206C656E67746820697320746F6FD9
:108EB000206C6F6E672062792025752F2575206FD5
:108EC00063746574732E00007014030070B504465B
:108ED0000948012102F0A0F8BFF35F8F00250028A8
:108EE00008D1204601F0DEFC002803D1BFF35F8FDC
:108EF0000148056070BD00005C2200207FB50C4673
:108F000010B1012004B070BD2079002638B141F6BF
:108F10001D5501281BD0022826D00F20F2E7022081
:108F2000207102960396E0680190694601A806F058
:108F300099F850B102988188E18000882081BDF8BD
:108F40000010029806F00CF9DCE70A20DAE70A4B79
:108F50006A460021A01D06F041F838B106491839CB
:108F60008E61CE610A28CDD12846CBE702488188A0
:108F7000019806F0F5F8F5E77C2300202DE9F0478D
:108F80000025DFF890803DE06068002100EBC50619
:108F9000012032789146FDF756FAD4E9062300EA1B
:108FA000020701EA030C57EA0C0729D082438B43DE
:108FB0004846C4E9062303F073FE327882469146A0
:108FC00001200021FDF73FFAD4E9042300EA02045E
:108FD00001EA03074A4650460021FDF734FA4440AF
:108FE0004F403C430CD17078012801D0012000E0B3
:108FF0000020726880EA0A0012B1C1B24846904768
:109000006D1CEDB298F8000044468542BCD3BDE823
:10901000F08700003023002030B40446132176DFAF
:1090200003000BD0064807492246401AC008022117
:1090300001EB004030BC044903F0CFB830BC7047AE
:1090400034270300A4260300F810030010B5002104
:10905000024801F0E1FF80F3100010BDA0340020B1
:10906000704700000E4910B50A784C780023A242E0
:1090700012D0521CD2B20A70022A00D10B70084AD8
:109080000B780C3252F8232002608868104420F0DC
:109090007F408860012010BD0360002010BD0000EB
:1090A0005023002013460A460021FFF78BBE000024
:1090B00070B517481749401AC508032000EB054052
:1090C00015A103F07FF81E4E3068807E28B1BDE800
:1090D000704006210120FEF7A7BE06F065F80028C3
:1090E00015D11848A0F10C010A68011F904704002F
:1090F0004FF0010002D00F2C03D007E031688876D2
:1091000004E000EB0540104903F05CF8204670BD18
:1091100034270300A426030057726974696E672020
:1091200070656572206461746120746F2074686575
:1091300020626F6F746C6F616465722E2E2E00005A
:109140000C230020E82A00204C1E03002DE9F843E0
:10915000104D0F4680461E4691466946286801F02C
:10916000B6FE040014D01C21FDF799F901202071EE
:10917000C4F81490380BC4F80080C4E90260694652
:10918000286801F0C5FE05F095FE0020BDE8F883D3
:109190000420FBE7000E030010B503780022072B24
:1091A00006D2DFE803F005040610202930000A701B
:1091B00010BD01230B7003898B818388CB81C0682C
:1091C00088600A7410BD02220A7002898A8182882E
:1091D000CA81C2688A60807D062802D00020087497
:1091E00010BD0120FBE703220A70C2888A81028930
:1091F000CA81C068886010BD04230B70C088888154
:10920000CA818A6010BD0520087010BD70B5064D7A
:109210000646002455F8241009B130468847641CDE
:10922000042CF7D370BD00003C2D002030B504465F
:10923000006887B00D46806800281FD01821684656
:10924000FDF72DF90195A0680590207910B101284E
:1092500010D107E001208DF8000020690290E0683D
:10926000039005E002208DF80000E0680003029002
:1092700060690490206881686846884707B030BDFF
:109280002DE9F04186B016460C00804629D0112CFD
:1092900027D0082C25D018216846FDF700F9ADF835
:1092A0000280404600F0BEFFADF804001B481C4998
:1092B0000027401AC5080D2C16D0204603F0D2FB1B
:1092C0000246012000EB05404346164902F085FFA7
:1092D00007208DF8000002948DF80C70684600F0AD
:1092E00057F806B0BDE8F081022000EB0540424689
:1092F0000D4902F06BFF03208DF8000026B1307895
:10930000C00701D0012000E002208DF8080041F2E2
:1093100001108DF80C70ADF80A00DFE7EC260300B1
:10932000A4260300E01D0300D01C030010B5044672
:10933000408800F077FFA080024801682046BDE821
:1093400010400847582200202DE9F041074600242C
:10935000064E074D05E000BF56F8241038468847F2
:10936000641CE8788442F7DBBDE8F081742A0020B1
:109370007C22002010B50446408800F053FFA080F6
:10938000024801682046BDE810400847B00C0300C1
:1093900001490968084700003C0D030070B586B01C
:1093A000044618216846FDF77AF8A0890125A0F542
:1093B0004040ADF804002078324E062835D2DFE870
:1093C00000F0340303032E4EA08900F08BF930B96E
:1093D000E08943F6FE71A0F54040884225D8A07B85
:1093E0008DF808002078032811D000208DF809009E
:1093F000A0680390606860B109208DF80000606883
:1094000004908DF81450684604F0C4FA0DE0012071
:10941000ECE708208DF800008DF81050F3E7A089E4
:1094200000F060F908B1E08930B17078002801D00F
:1094300004F0FAFB06B070BD606840B10B208DF8F7
:109440000000606802908DF80C507570DBE70A2010
:109450008DF80000BDF8040004F084FCF5E76068B6
:1094600058B114208DF80000606802908DF80C50FF
:109470004FF6FF70ADF80400C5E713208DF800002B
:10948000F6E700006822002038B504460E48007850
:10949000A8B1A4F57F40FF380FD0684605F03CFC2A
:1094A00078B10521017001210171C480684605F081
:1094B00041FC05F0F1FC002038BD042038BD02203D
:1094C00038BD082038BD0000842300200C4808B5B2
:1094D000007888B1684605F01FFC78B1062101705C
:1094E000684605F027FC0748017809B1012101739E
:1094F00005F0D2FC002008BD022008BD082008BDF0
:1095000084230020002E0020F0B587B01421684687
:10951000FCF7C5FF2B4C207818B16846FFF776FEA4
:109520004EE0201D01F05AFDB8BB4FF010204169FC
:109530000004026940694B1C01D100FB02F1224882
:1095400000220161A1F54051C160204902F0DAF921
:10955000002820D11F481C238C221D49006801F0DF
:10956000A3FC03F0A9FF051E14D0022812D0002787
:109570000126062D12D005A805F0CEFB88B1067095
:109580000C2D18D2DFE805F0170F170F1716171656
:10959000171113110B2007B0F0BD11E026706760A2
:1095A000BBE70820F7E7077105E0032100E002218F
:1095B000017100E0067105A805F0BCFB05F06CFC2C
:1095C0000020E8E7842300201C240020100E030064
:1095D0004C2D0020780D030038B5040014D06946E6
:1095E00005F040FDA0B1BDF8000000EB8001094886
:1095F00000EB8100C16849B1A17A39B1C168491E47
:10960000C1600020A07238BD052038BD062038BDDD
:109610000A2038BDD82D00201FB501A9684605F0E5
:10962000DDFC04B010BD07B513460A4669460020AC
:1096300005F0D4FC0EBD07B513460A460021684666
:1096400005F0CCFC0EBD20B119B100680860002007
:109650007047052070470000F8B50D46040018D08B
:10966000BDB1694605F0FEFCA8B1BDF800000B498C
:1096700000EB800001EB800001210C30666801F0F6
:10968000B0FC2E6060680C3068600120A072002081
:10969000F8BD0520F8BD0A20F8BD0000D82D002037
:1096A00018B10323002207F033B9052070470223C5
:1096B000002207F02DB90000084910B50A69042AF4
:1096C0000AD0074A096942F82100044801211030F4
:1096D00001F087FC002010BD0C2010BD6423002089
:1096E0003C2D002043F6FE71A0F54040884201D891
:1096F000012070470020704710B5044600781828F4
:1097000002D1FEF7B3F9207010BD10B50446007801
:10971000182802D1FEF7AAF9207010BD70B50D46C9
:109720000446B0F83812D0F834020122FDF7DBFE0F
:1097300000B1057004F13C0204F50D7104F1540010
:1097400072DF70BD70B5134600220546112900D1A5
:109750000122074C33B12179FEF7ACF90022617880
:10976000284600E06178BDE87040FEF7A3B900002C
:10977000F4220020F7B517460E0011D000980025FE
:1097800060B100242146684601F00DFC18B1A0B27A
:109790003946B0476D1C641C142CF3D32846FEBD1B
:1097A0000020FEBD406805F0D7BA000070B508B1D2
:1097B000012070BD194C0025207B08B1257301E004
:1097C00000F0A0F82078082826D2DFE800F0250471
:1097D000080C10251420BDE8704000F021B8BDE849
:1097E000704000F07DB8BDE8704000F05FB8BDE8A3
:1097F000704000F03BB86088084900EB80002839D1
:1098000001EB80004068BDE8704003F035BE656044
:10981000BDE8704003F03EBE0F2070BD002E00205A
:109820001149F0B48A1C00200346A1F128050C1848
:10983000A67A4EB1A37200EB800405EB8404E668BF
:1098400016B9247C012C0AD0401C80B20228EED329
:109850000B704B804B60F0BC41F61D507047108080
:10986000F0BC00F03DB80000002E00200C484188FC
:1098700001EB8102A0F1280101EB8201CA6852B11B
:10988000052101700748022181800168002301221F
:10989000054801F09BBF042202704968F6E700000A
:1098A000002E00208C2300201C24002038B50A49FB
:1098B000084803240B684268898803EB81015388B8
:1098C0000470DB1C00201B0400909B0B034802F07B
:1098D000D1F838BD002E00208C2300201C2400204D
:1098E000074910B54888091D05F00CFC18B1BDE802
:1098F0001040FFF7DBBFBDE81040FFF7B7BF000027
:10990000002E0020F0B51F481F49012506780224CB
:109910008B88A0F12802082E19D2DFE806F004187F
:10992000181B222F2F170189491C0181002141801A
:1099300080F80C1001EB810312F8233043B10023AF
:109940004418491C89B2A3720229F3D30570F0BDF3
:109950000123F5E742685288D21C1A448A800470B9
:10996000F0BD46880D6806EB860602EB8602566857
:109970000E60556013818C80062100E00721017084
:10998000F0BD0000002E00208C2300202DE9F041C6
:10999000044680882188394E86B00746352937D05D
:1099A000502923D0522902D054295DD102E000F081
:1099B0001DFF59E0182232496846FCF757FDADF803
:1099C0000270384600F02EFCADF8040000F09CF95F
:1099D000002231793846FEF76DF80022F1783846DA
:1099E000FEF768F86846FFF7A1FC3DE0207B012800
:1099F0003AD1A07A012837D12089A0F52451023923
:109A000032D10121384600F045FF06F04FFD2BE032
:109A10004FF0000842467179FEF74CF8E288B2F543
:109A2000857F1DD017481849401AC008022101EB54
:109A3000004512B1284615A10BE06289012A03D026
:109A4000284621A102F0C2FBA289012A04D028469F
:109A50002CA102F0BBFB03E0A07B00B101208046FB
:109A60004146384606F010FA00223549B078FDF735
:109A7000B3FF06B0BDE8F04105F028BE502200203B
:109A8000F00B0300A4260300A4260300556E65789E
:109A90007065637465642047415454207374617425
:109AA0007573207768696C652067657474696E6783
:109AB0002043415220636861722076616C75653A7B
:109AC00020307825780000004D756C7469706C65E5
:109AD0002028256429204341522063686172616314
:109AE00074657269737469637320666F756E642C34
:109AF000207573696E672074686520666972737477
:109B00002E000000556E65787065637465642043AF
:109B1000415220636861726163746572697374692C
:109B2000632076616C7565206C656E6774682028AB
:109B30002564292C2073746F726520302E0000007C
:109B4000E171020070B504460078002814D16088E5
:109B500000F04CFE6588284600F0A6F928B10748B9
:109B60000122C1782846FDF7A5FF6088FEF7DEFEDA
:109B7000BDE8704006F09ABC70BD00005022002085
:109B800070B51A4C00252570FDF770FF6070FDF769
:109B90006DFFA070FDF76AFFE070FDF767FF2071B1
:109BA000FDF764FF607162780121182A12D0A27853
:109BB000182A0FD0E278182A0CD02279182A09D056
:109BC000182807D004F10C000560BFF35F8F2170E7
:109BD000002070BD0648074A801AC00801EB00400B
:109BE000054902F0EFFA032070BD0000502200206A
:109BF000A4260300A42603003C1103007CB5044600
:109C00000078082837D1607A58BB207A1C4E4FF66E
:109C1000FF75012811D0072802D008282BD121E098
:109C2000A08800F049FA0446A84224D0012100F09F
:109C300031FE2046FEF77AFE1DE0A0886A4601212B
:109C400003F0CAFD68B90198007850B1A08800F00F
:109C500033FAA8420FD00122F178FDF72BFF05F06F
:109C600035FD08E0F068012805D1BFF35F8F044996
:109C700000200C310860BDE87C4006F017BC0000F5
:109C8000502200202DE9F0418046024601200021AB
:109C9000FCF7D9FB1A4F05460E467868FDF7CAF95E
:109CA00000280CD1174CD4E9062110462A4001EABD
:109CB00006031A4305D0A843B143C4E90601BDE831
:109CC000F081404602F0ECFF30B1D4E904012843B2
:109CD0003143C4E9040105E0D4E90410A943B043C9
:109CE000C4E90410D4E9060128433143C4E906015C
:109CF000A1687868BDE8F0410022FDF757B900007F
:109D00005C0D0300302300201CB5054AD2E9021285
:109D1000CDE900120022694603F024FF1CBD0000BB
:109D20000C0C030003484FF6FF7181800121017084
:109D3000002070476022002010B54FF6FF7003F03E
:109D4000A1FE03498880BDE8104005F0C9BC0000B1
:109D5000602200202DE9FC41804600F063FA0024D7
:109D600003250127A0F57F412646FF3908D06A4622
:109D7000082103F031FD18B90198841D8688056813
:109D800032462B4621464046B1DF042804D008283D
:109D900004D00B2808D002E0112000E00020002FA2
:109DA00000D10B20BDE8FC810027A80701D50125C3
:109DB000E6E7344303D0002426460325E0E70648BF
:109DC00006494246401AC008012101EB00400449FF
:109DD00002F0FCF9E5E70000AC260300A42603002E
:109DE000AC1303002DE9FC41804600F01BFAA0F5FE
:109DF0007F410646FF390ED001252A466D1C0027FB
:109E0000ADB26B460821304603F030FD040006D0A9
:109E1000072C33D033E043F20200BDE8FC81019906
:109E200003230A1D0B604046891DB2DF040004D0E5
:109E30000C2C09D0052C09D009E032460821104627
:109E400003F08CFD04461AE0012700E000240821FD
:109E5000304603F079FD70B102F004FE0346094874
:109E600009493246401AC008012101EB0040074968
:109E700002F0B3F90324002FBFD100E00C242046E8
:109E8000CBE70000AC260300A42603002C1303003C
:109E900004488088A0F57F41FF3901D005F020BC3F
:109EA00070470000602200200EB502A9019100F069
:109EB000B9F96A46012103F08FFC08B100200EBDFC
:109EC000019800780EBD00002DE9F04107464FF6DD
:109ED000FF761048B3DF78B102F0C4FD02460E48A9
:109EE0000E49401AC008012101EB00400C4902F064
:109EF0006DF90320BDE8F081064C43F20305A41E72
:109F0000324661883846AFDFA842F3D16088401CF2
:109F10006080F5E762220020AC260300A42603003F
:109F2000E0120300428800EB82020C328A4201D91F
:109F3000022070478188A1F57F42FF3A03D0008854
:109F400008B10020704701207047884204D20068A1
:109F5000401C01D001207047002070473EB50278B8
:109F600002230C46B3EB520F17D1B0F80110ADF835
:109F70000010C1788DF802108188ADF80410807946
:109F80008DF8060002AA01A92046FCF7BDFE0322B7
:109F900002A96846FCF795FA08B100203EBD0120F1
:109FA0003EBD000070B50D460446142810D2FDF7E2
:109FB000A1FD68B1084904EB840001EB4000D0F832
:109FC00002102960C188A980007AA871002070BDA4
:109FD00043F2020070BD0000DC27002070B501884C
:109FE00092B0102961D1011D2C226846FCF73EFA7F
:109FF0009DF804004FF6FF7603213446B1EB500F75
:10A000002BD003F06DFD9DF804006D4640080ED086
:10A0100001280CD0022820D118E00D99281D1131FB
:10A02000FCF724FE18B100BFBDF82C4015E00CAAC7
:10A030000BA9072003F028FD0028EED10DE00D99B3
:10A04000281D491CFFF78AFF0028EDD10CAA0BA997
:10A05000072003F019FD0028F1D1BDF80000B4423B
:10A0600000EB8001124820F8114000EB41000199FB
:10A07000C0F80210BDF80810C1809DF80A100172E6
:10A0800013D0BDF80000ADF82E000020ADF8304030
:10A09000084E8DF82C000BAD044600BF56F8241076
:10A0A00028468847641C022CF8D312B070BD00000B
:10A0B000DC270020200C03002DE9F0414FF6FF764D
:10A0C0000546B04213D00B4F002400BF04EB8400C0
:10A0D00037F81000A84206D12046FDF70BFD10B15D
:10A0E0002046BDE8F081641CA4B2142CEED33046A7
:10A0F000F7E70000DC2700203EB50C46054603F0DC
:10A10000EFFC0BE0BDF80000A04207D02846029902
:10A1100000F00EF810B1BDF800003EBD01AA69467E
:10A12000072003F0B1FC0028ECD14FF6FF703EBDD4
:10A130002DE9F0410C46054600F1110701F1110629
:10A140001022491C401CFCF7BCF948B9681C00F0FF
:10A15000F9F928B1601C00F0F5F908B1012400E01C
:10A16000002431463846FCF781FD3B780222B2EBF1
:10A17000530F0CD00321B1EB530F08D03378B2EB5F
:10A18000530F04D0B1EB530F01D0012100E00021A7
:10A19000084201D18C4302D00120BDE8F0810020AB
:10A1A000FBE7018811B9421892780AB10120704783
:10A1B000491C0829F7D30020704710B50C46034608
:10A1C000FFF7EFFF00280AD018882188884205D1C0
:10A1D0000822A11C981CFCF774F908B1002010BDDE
:10A1E000012010BD142804D2024A00EB800022F89E
:10A1F00010107047DC27002070B50546FFF75CFFA4
:10A200000446284603F0ECFA002808D1142C06D2A4
:10A21000034B04EB84024FF6FF7123F8121070BD5C
:10A22000DC27002010B50446142808D2FDF762FC94
:10A2300028B1044904EB840031F8100010BD4FF63A
:10A24000FF7010BDDC2700203EB5044603F048FC3B
:10A250000EE0019920464631FFF7AFFF28B901997A
:10A2600020462A31FFF7A9FF10B1BDF808003EBD16
:10A270006A4602A9072003F007FC0028E9D14FF63F
:10A28000FF703EBD10B50A4941600A4800F0A6FEC5
:10A2900058B902F071FB07491C238C22087404484A
:10A2A0008C39001F006800F0FFFD002010BD000089
:10A2B000040E0300AC2E00202DE9F0412D4F0025A7
:10A2C00018B17D600120BDE8F0810879012258B104
:10A2D000294E01280CD0274C4FF0020808340228E0
:10A2E00021D0032842D128E00A7103F0D3F83BE0E3
:10A2F0005FF0000000EB800116F82110022908D061
:10A30000401C80B20228F5D33A707D6041F61D50A2
:10A31000D9E700EB800006F8205006EB800040688B
:10A3200003F0AAF820E00D71A4F8048000230122B4
:10A330001248216801F04AFA16E00D71206803F016
:10A340009BF80D4923682831498801EB810206EB0F
:10A350008201D1F804C0C4F800C04B60A3880B810F
:10A36000A4F8048006F822500028ACD07D600E20AE
:10A37000A9E7000084230020D82D00201C24002001
:10A380000146034802888A4200D00020704700003E
:10A39000342700202DE9FC5F0E008346DDE90C47E1
:10A3A000C6F1000098469246814600D40846012531
:10A3B00003E000BF90FBFAF06D1C5045FADAA845A7
:10A3C00000D9454624B1002E01DB780700D5641E74
:10A3D000B80702D5B8F1000F0AD0F80708D13CB190
:10A3E000A54205D220215846641EFEF775FAF6E70D
:10A3F000002E02DA4E462D2102E0780703D52B21EC
:10A400005846FEF769FA07F0030002280BD1B8F1AD
:10A41000000F08D13CB1A54205D230215846641E38
:10A42000FEF75AFAF6E7CDE9004743465246314671
:10A43000584605F0E1FFBDE8FC9F000070B50D46F1
:10A44000044600684FF4887102F02CFB4FF49071C1
:10A45000206802F027FB4FF49271206802F022FB83
:10A460004FF4A271206802F01DFB20681249C0F869
:10A4700004132068690740F30730090E002806DA44
:10A4800000F00F0000F1E02080F8141D03E000F15F
:10A49000E02080F800142068012140F3073000F02C
:10A4A0001F0291404009800000F1E020C0F88012B6
:10A4B000C0F8001170BD0000100302000246002029
:10A4C0001268530713D502F00300012802D00228B6
:10A4D0000CD105E0C2F383100B68801C184404E023
:10A4E0000223086803EB9252104408600120704771
:10A4F0000248007A002800D001207047AC2E0020CE
:10A50000F0B58488A518944200D82246A41AC288BF
:10A51000D6189A4200D81346D21A4B880788BB42F5
:10A520000CD34088834209D88888A04206D3A84229
:10A5300004D8C888904201D3B04201D90020F0BDB0
:10A540000120F0BD0021425C0AB101207047491C86
:10A550001029F8D300207047800701D000207047F1
:10A56000012070470A4810B5807860B1002401E0EE
:10A57000022C06D02046FDF723FF641C042CF7D3E1
:10A5800010BD0324F6E7BDE81040FDF739BF000019
:10A590003022002003480179C90702D00078FEF775
:10A5A0006BB87047302200201721018041800021C4
:10A5B000017141711B218171C17170472DE9FE4FFD
:10A5C0002E4F984692460D00814601D000260DE0A0
:10A5D000684600F03FFC6A460021484603F054F804
:10A5E0003878009E10B99DF8090098B1524631465E
:10A5F000484605F023FB0446014600224846FFF783
:10A60000A1F80D2C37D008DCA4B3082C33D00B2CC8
:10A6100009D130E00520BDE8FE8F112C1ED0A4F535
:10A620004050023827D0204602F01CFA0246144857
:10A6300014494B46401AC008012101EB0040124961
:10A6400001F0CBFD5FF00305B8F1000F04D03246F6
:10A6500021464846FEF714FE2846DCE72A46F978EC
:10A660004846FDF727FA5246B9784846FDF722FAE0
:10A670000025E9E7FFE72546E6E70000F422002091
:10A68000EC260300A4260300881D030070B50E46C7
:10A690000C49154604460978FDF7F4F900280FD057
:10A6A000204602F097FF00282A463146204603D074
:10A6B000BDE8704002F094BFBDE87040FEF7F2BC08
:10A6C00070BD0000EC22002070B5094D0646A97847
:10A6D000FDF7D8F90446E9783046FDF7D3F901468D
:10A6E00022463046BDE870400123FFF767BF0000F7
:10A6F000F42200202DE9F047394E002780463D46E0
:10A70000DFF8E090D6F804A057E003D00446D0F874
:10A710001C8035E099F8002002EB4201521CD2B2B5
:10A7200089F8002009EBC10199F80230091D9A420D
:10A7300001D189F8005048680A780446012A12D0ED
:10A74000022A02D0032A3BD108E005F027FC00B121
:10A750000127257434E00574C06900E070680028A2
:10A76000F9D170602CE0207C50BB88686060C868BC
:10A77000A0600869E0604869A061F07800B1656098
:10A780006268B168184B501A20F07F40984202D29C
:10A79000A168084406E0881AA16820F07F40814241
:10A7A00002D9081A206000E0256065600120A560DC
:10A7B00020742046E56105F0D3FBB8F10000A4D178
:10A7C00099F8001099F801008142A3D117B9716876
:10A7D000514502D00120BDE8F0870020FBE70000D2
:10A7E00050230020082C0020FFFF7F00F0B587B029
:10A7F0000546002718216846FBF751FEA5F57F4066
:10A80000ADF80250FF3825D02846FFF7A3FA040020
:10A8100022D01B481B49401AC6080B2C22D0112CF1
:10A820001ED0A4F5405002380ED0204602F01AF98E
:10A830000246012000EB06402B46134901F0CDFCF7
:10A840002146284604F0FAFE10483A468178284608
:10A85000FDF730F907B0F0BD0E208DF800000BE0D9
:10A860000127F1E70F208DF80000022000EB0640E1
:10A870002A46074901F0AAFC6846FEF757FDE3E7C0
:10A88000A4260300A42603000C120300502200207B
:10A89000601203000A4602494978FDF70BB900002F
:10A8A000502200202DE9F041002786B080463E4628
:10A8B000FFF798FA040022D0112C22D01B481C4923
:10A8C000401AC508862C1ED0A4F5405002380ED080
:10A8D000204602F0C7F80246012000EB054043463F
:10A8E00014A101F07AFC2146404604F0A7FE394647
:10A8F0004046FFF7CFFF06B03046BDE8F0810126A5
:10A90000F5E70127F3E718221A496846FBF7AEFD81
:10A910000220ADF8028000EB0540424616A101F08E
:10A9200055FC6846FEF702FDE1E70000A42603009F
:10A93000A42603006773636D5F6C6F63616C5F6473
:10A94000625F63616368655F75706461746528291F
:10A950002072657475726E656420257320666F724F
:10A9600020636F6E6E5F68616E646C653A2025646B
:10A9700000000000C00B0300466C61736820667520
:10A980006C6C2E20436F756C64206E6F7420737432
:10A990006F7265206461746120666F7220636F6EF0
:10A9A0006E5F68616E646C653A202564000000008B
:10A9B0002DE9FF410026234800F00DFB2148001F30
:10A9C000074600F008FB204C60680090A56800E096
:10A9D00000986946284004EB80000C30FFF76EFDBC
:10A9E0000028F5D101AA009901EA050304EB8303CD
:10A9F000491CDB6842F82030401C00910228F2D349
:10AA0000019800F0030001280BD0022810D1019812
:10AA1000032101EB90500099BDF80A6001EB900012
:10AA200005E00198BDF80A60C0F383100844009067
:10AA3000384600F0CDFA08B10098606004B03046A6
:10AA4000BDE8F0819C34002084300020ACB04FF48D
:10AA50000041002001F032FC08B1FCF717FA01F0C8
:10AA600089FAFDF781F808B1FCF710FAFCF774FADF
:10AA700008B1FCF70BFA01F037FD08B1FCF706FA54
:10AA800067490320FDF7AEFD08B1FCF7FFF9694601
:10AA90000020FDF7D9FC08B1FCF7F8F99DF800009B
:10AAA00002287DD05FF0000501F01AFF08B1FCF725
:10AAB000EDF9002469460120009401F0A1FD08B1E0
:10AAC000FCF7E4F9684601F01BFE08B1FCF7DEF97B
:10AAD00003F09EF99DF8080052A120F00F00401CE1
:10AAE00020F0F00010308DF80800112202A87CDF61
:10AAF00008B1FCF7CBF900945020ADF80000A0207D
:10AB00000194ADF80200ADF804404FF4C870ADF800
:10AB1000060068467ADF08B1FCF7B8F9002146481C
:10AB200000F0EFFA08B1FCF7B1F9AC216846FBF789
:10AB3000B6FC02208DF8000001208DF802000621ED
:10AB4000ADF810008DF803103C4805901EA8FCF7E6
:10AB5000CDF83B482990384869462030FCF7F2FC94
:10AB600008B1FCF793F9344801212030FCF7E7FCE9
:10AB7000344801A9CDE900402F48143000F085FB8E
:10AB800008B1FCF783F9304800906846FDF75AF8A1
:10AB900008B1FCF77BF91C216846FBF780FC00E05C
:10ABA00029E04FF42030CDE900404FF470200290AE
:10ABB00026480590032626488DF80C600690ADF8CF
:10ABC0000E408DF810406846FCF7B8FE08B1FCF75F
:10ABD0005DF920482049401AC00806EB00400446B1
:10ABE0001EA101F0EFFA65B1204625A101F0EAFAB5
:10ABF00003F0ACFF0AE0012556E700BFFCF746F979
:10AC000006E00D4803212030FCF781FD0028F5D136
:10AC100001F0BEF90028FBD101F08EFCF8E700003E
:10AC20003D8502004E6F726469635F427574746F94
:10AC30006E6C657373000000302400202A2200200F
:10AC4000C9D10200CDC502007D7E0200EDD1020017
:10AC5000778D020034270300A42603004275747424
:10AC60006F6E6C65737320444655204170706C693B
:10AC7000636174696F6E20737461727465642E0011
:10AC8000457261736520626F6E647321000000007D
:10AC900070B5144682880E4605462088111D014471
:10ACA000921C994201D8FE2A01D90C2070BD521C79
:10ACB00032542088FF21401C80B2208031542088EB
:10ACC000401C80B220808119288805F07FFB2188F4
:10ACD000084480B22080AA8842B1A96841B13044BA
:10ACE000FBF7C4FB2088A98808442080002070BDA1
:10ACF000072070BD2DE9F047C5881E1DB6FBF5F78E
:10AD00008946B6FBF5F1044605FB176C40791668D9
:10AD10006843DDF820A0F718001F874200D9C61A43
:10AD2000166001E02468491E0029FBD1A5EB0C0741
:10AD30008846B74216D818E004EB0C00001D09EB5A
:10AD40000803BAF1000F3A4602D00146184600E067
:10AD50001946FBF78BFB2468F61B4FF0000CB84438
:10AD6000B54201D9374600E02F46002EE4D1BDE8B8
:10AD7000F087000030B5024651B101F0BDFA002164
:10AD8000074C08E034F821301568AB4202D111605D
:10AD9000002030BD491C8142F4D3052030BD0000A5
:10ADA00000000000BFF35F8F00F0FDB8F8B50F465C
:10ADB000017814460546012901D1687830B1208810
:10ADC000821C9A4232D8012902D006E00720F8BD41
:10ADD00069780144891C994228D8181A801E86B2C5
:10ADE000ADF800602188B81C084469467DDF002862
:10ADF000EDD12978022904D06878BDF8002090426E
:10AE000005D3BDF80000B04201D809200AE00820AF
:10AE1000012905D16978B14202D8ADF8001001E0EE
:10AE2000ADF80060BDF80010FE2901D90C20F8BD76
:10AE30002288491CB9542188491C89B22180785440
:10AE40002088401C2080BDF800100844208000208D
:10AE5000F8BD0000034A00219268C0E9002181602A
:10AE600070470000F422002070B54FF6FF750E46C3
:10AE7000A84201D1002000E0401C84B208E0214635
:10AE8000304600F090F808B1204670BD641CA4B2B2
:10AE9000FF2CF4D9284670BD10B5FBF706FA08B1AF
:10AEA000002010BD112010BD10B531B1B2FBF3F47C
:10AEB00003FB14241CB1092010BD0E2010BD01603D
:10AEC0000021416081608281C381084610BD70B558
:10AED0000C460546FBF79EF9002802D02188286819
:10AEE000084470BD10B50A8849888A4203D1FBF72F
:10AEF000D3F9012010BD002010BD70B50C460546E9
:10AF0000FBF7ADF9002802D061882868084470BDBD
:10AF100010B50A8849888A4203D1FBF797F90120C6
:10AF200010BD002010BD01F01F0301229A40D24342
:10AF3000490900EB8100114600F059B80A4601F0BA
:10AF40001F030121994010B552090C4600EB820005
:10AF500000F05DF8204000D0012010BD2DE9F04147
:10AF600080460D460024481E012101EB501716E0D3
:10AF700058F82400C04390FAA0F0B0FA80F02028DE
:10AF80000CD200EB4416AE4208D231464046FFF7E1
:10AF9000D5FF0028ECD13046BDE8F081641CA74203
:10AFA000E6D82846F8E74A0950F8220001F01F02C7
:10AFB00001219140084000D00120704701F01F039B
:10AFC00001229A40490900EB8100114600F029B89E
:10AFD000002100F017B8012100F023B8012100F092
:10AFE00016B808B56A46FBF7ACF9009808BD08B575
:10AFF0006A46FBF78CF9009808BD08B56A46FBF76E
:10B00000A0F908BD08B56A46FBF781F908BD08B587
:10B010006A46FBF76FF908BD08B56A46FBF75EF9AB
:10B0200008BD08B56A46FBF765F9009808BD08B584
:10B030006A46FBF793F9009808BD38B50446002529
:10B040008DF800506846FCF705F8216862680868CA
:10B0500090420ED9401E08600178238AE26801FB05
:10B060000325227A2168101AC0B20A79824200D2DE
:10B0700008719DF80000FCF711F8284638BD38B576
:10B08000054600208DF800000C466846FBF7E2FFFD
:10B09000E868298A201AB0FBF1F12A681068431C7D
:10B0A000136001709DF80000FBF7F8FF38BD10B584
:10B0B00030B1017A42680368891AC9B21A6006E0A1
:10B0C0000E2010BD03681A68541C1C601170491EC4
:10B0D000C9B2F7D2006800210171084610BDC2084C
:10B0E00000F007030120895C98400840704710B5C4
:10B0F000C20800F00703885C01249C402043885468
:10B1000010BD10B560B10161172120F8021B20F8B5
:10B11000021B1B2100F8021BFFF746FA002010BD9E
:10B120000E2010BDF0B5858893B00C46002D39D1A6
:10B13000018800263F4F24293BD006DC102909D086
:10B1400011290CD0232958D14FE03A290BD0552989
:10B1500053D129E00146204602F056F84DE0A01DEB
:10B16000FFF722FA49E02246408934F8061F81425F
:10B1700000D808466080172800D217206080106928
:10B1800070B1607960B1D7E90001CDE90301ADF894
:10B190000E506088ADF81000136903A91046984757
:10B1A0006671267113B0F0BD0146204602F080F8AA
:10B1B00023E0011D2C2206A8FBF758F9BDF8180062
:10B1C000BDF81C2004EBC0014A732269AAB1D7E97B
:10B1D0000423CDE90423ADF81200487B8DF8140058
:10B1E0002269204604A9904707E0017A207B884223
:10B1F00000D201462846FDF709FEA07A0028D1D0EA
:10B20000E1882846A5DF012580B11128CAD001F0C8
:10B2100029FC02460848094913B0401AC00805EB4A
:10B220000040BDE8F04006A100F0D0BFA672E57274
:10B23000B8E70000280C0300BC260300A426030086
:10B2400073645F626C655F67617474635F65786384
:10B2500068616E67655F6D74755F72657175657342
:10B260007428292072657475726E65642025732EAA
:10B270000000000020B10278DE2A03D008207047C9
:10B280000E20704741800020704760B159B10278AC
:10B29000DE2A0AD009684160DE2101704FF6FF7195
:10B2A0004180002070470E207047082070477FB50E
:10B2B000054600294DD0002D4BD008780C46DE28DD
:10B2C00047D1A8886188884202D1204605F04CF910
:10B2D0002888012825D002283BD011283AD05128AF
:10B2E00037D135F8040F6188884232D1A978A81C7B
:10B2F00002292ED1017A042903D0062901D005297B
:10B3000027D10021009102228DF8002001914FF4F5
:10B31000C07202910391ADF80420007A05280FD085
:10B3200010E0297A2046012913D1A9884288914248
:10B330000FD10121017204B0BDE8704005F014B9CD
:10B34000ADF8041028886946B0DF002801D0616894
:10B3500088477FBDA88861888842FAD14FF6FF7080
:10B3600060807FBD00F180400068002800D001208F
:10B37000704708B500F1804000210160006800902E
:10B3800008BD000070B54FF0102569691048114BD9
:10B390000122181AC00802EB0044491C12D06A6945
:10B3A000032101EB00400CA100F010FF686913DFDE
:10B3B000050005D0204613A100F004FF284670BD0B
:10B3C000002070BD20461CA100F0FCFE042070BDD2
:10B3D000A42603003427030053657474696E672044
:10B3E000766563746F72207461626C6520746F207F
:10B3F000626F6F746C6F616465723A2030782530CB
:10B40000387800004661696C65642072756E6E69FB
:10B410006E672073645F736F6674646576696365D5
:10B420005F766563746F725F7461626C655F6261A1
:10B4300073655F73657400004E6F20626F6F746C8C
:10B440006F616465722077617320666F756E64004A
:10B4500070B50C480C490D4A401AC508032000EB92
:10B4600005400BA100F0B2FE084813DF040007D02E
:10B47000012000EB054011A100F0A4FE204670BDA4
:10B48000002070BD34270300A426030000600200E2
:10B4900053657474696E6720766563746F72207487
:10B4A00061626C6520746F206D61696E20617070DF
:10B4B0003A20307825303878000000004661696C09
:10B4C00065642072756E6E696E672073645F736F5A
:10B4D00066746465766963655F766563746F725FD1
:10B4E0007461626C655F626173655F7365740000AF
:10B4F00070B50B4C207808B185250FE00020A060C6
:10B5000060602061E060074801F0EAFA054601F05A
:10B5100033FA08B901F0CCFA01202070284670BD3A
:10B52000282B0020E98B020038B500258DF800504B
:10B530006846FBF78FFD074CE068401EE060E0685E
:10B5400010B901F0DDFAA5709DF80000FBF7A6FD2B
:10B5500038BD0000282B0020F0B5054604781548BA
:10B5600089B0164640F82420124A0869121DA2F13B
:10B57000080742F82400487F385520226846FAF729
:10B5800075FF04942878385C48B10EB10A4A00E08F
:10B5900000226946281D01F033FD09B0F0BD0EB14F
:10B5A000064A00E00022694605F10C0001F0FAFBB2
:10B5B000F3E7000014230020A9020300F5000300B4
:10B5C0000FB408B50399002904D004AA00926A4672
:10B5D00000F00FF801B05DF814FB10B58268044666
:10B5E000002A05D0D4E90403216898470020A06010
:10B5F00010BD2DE9FC4791460C00804676D014F82A
:10B60000011B39B125290ED04046FDF765F9207898
:10B610000028F4D198F80C00002867D04046BDE817
:10B62000FC47FFF7DABF0020012221782B291BD02D
:10B630002D2902D0302908D102E040F0010001E0BC
:10B6400040F00200641C002AEFD100252A290ED008
:10B650002178A1F130020A2A11D205EB850201EB13
:10B660004205641C303DF1E740F00400EAE7D9F8F8
:10B6700000100B1DC9F800300968641C0D442178C6
:10B6800000232E290BD114F8011FA1F130020A2A40
:10B6900005D203EB830201EB4203303BF3E76C2955
:10B6A0000DD068290BD0692921D00BDC252918D0B1
:10B6B000582931D063290ED0642915D117E014F828
:10B6C000011FECE7702969D0732932D075291BD08E
:10B6D000782909D120E0D9F80000011DC9F800102F
:10B6E00001784046FDF7F8F8641C90E76CE0D9F863
:10B6F00000100A1DC9F800200968CDE900500A228F
:10B700004046FEF747FEEFE7D9F800100A1DC9F8DA
:10B71000002009680A2206E0D9F800100A1DC9F8BD
:10B72000002009681022CDE90050404604F064FE74
:10B73000DAE7D9F8001000270A1DC9F800200E68C2
:10B74000C00705D112E04046761C7F1CFDF7C4F807
:10B7500031780029F7D104E0202140466D1EFDF725
:10B76000BBF8BD42C0D9002DF6D1BDE74EB1304681
:10B77000FAF7A0FE074604E0202140466D1EFDF7C3
:10B78000ABF8BD4206D9002DF6D103E04046761C49
:10B79000FDF7A2F831780029F8D1A5E7D9F8000023
:10B7A000011DC9F80010056830214046FDF794F8E6
:10B7B00078214046FDF790F808200021CDE90001EE
:10B7C000034610222946B0E7BDE8FC872DE9F8437F
:10B7D000884605002C482D499946A0EB01004FEA08
:10B7E000D0004FF00101164601EB004424D0286838
:10B7F00000282CD0002E34D0696840464FF0100746
:10B800000A68511E11EA080F11D1014672432846F9
:10B81000FBF745FA00282ED028684B4632460469CB
:10B8200001B041462846A446BDE8F04360472046A3
:10B83000174B18A2009722E00E2000902046144BD0
:10B840001EA220A100F0D1FC0E20BDE8F883082044
:10B85000009020460E4B26A21AA100F0C6FC08203C
:10B86000F3E7092000902046094B24A215A100F01F
:10B87000BCFC0920E9E7064B214A2046009711A1AC
:10B8800000F0B3FC1020E0E724270300A426030007
:10B89000EB0D0300616464725F69735F70616765DB
:10B8A0005F616C69676E656428705F66732C2070D9
:10B8B0006167655F6164647229000000705F667390
:10B8C00000000000257320636865636B2066616972
:10B8D0006C656420696E2025732829207769746857
:10B8E0002076616C756520307825782E0000000088
:10B8F000705F66732D3E705F617069006C656E00ED
:10B900000C1F030038B503001148124D4FF00E0410
:10B91000A0EB05004FEAD0004FF0010505EB004019
:10B9200009D061B119600C6801B0A446BDE830408F
:10B93000114618466047084B08A2009402E0064BE7
:10B9400008A2009409A100F050FC0E2038BD0000B0
:10B9500024270300A4260300A00D0300705F667374
:10B9600000000000705F61706900000025732063B3
:10B970006865636B206661696C656420696E20256B
:10B9800073282920776974682076616C756520308A
:10B990007825782E00000000044801214174007AC7
:10B9A00008B100207047012070470000AC2E002035
:10B9B000012801D0032808D10449002201284A7433
:10B9C00000D00020087403F017BA7047AC2E002096
:10B9D00070B50246022801D0032A45D1234C207AB3
:10B9E000002841D0012833D0022831D1204800233B
:10B9F000022A006802D0032A2AD11BE0E360017901
:10BA000011B1012924D10DE0D0E90565711B4FF476
:10BA10008056B14200D33146294481614569A9422B
:10BA20000ED015E00169491C0161426991420FD1B4
:10BA3000237213E0E168491CE160082908D9E3603A
:10BA40002372022A0AD00D21FDF7F0FB03F07AF9E8
:10BA5000607C28B1BDE8704000F094BF0021F3E79E
:10BA6000BDE8704003F0C8B970BD0000AC2E0020E6
:10BA7000942300202DE9F84F90468A463A493B4AE4
:10BA80000500A1EB02014FEAD1014FF00102DDF800
:10BA900028901E464FF00E0002EB01441AD0B8F178
:10BAA000000F1CD02868002822D00920002E29D0A1
:10BAB00069684968B6FBF1F201FB1261002926D0E2
:10BAC00000902B4B20462BA235A100F08EFB0920C5
:10BAD000BDE8F88F00902046254B3CA203E0009083
