:020000040000FA
:1000000048290020F902000001030000030300005A
:1000100005030000070300000903000000000000C2
:100020000000000000000000000000000B030000C2
:100030000D030000000000000F030000110300008A
:100040005906000013030000B50800001303000068
:100050001303000013030000410400001303000019
:100060001303000013030000130300001303000038
:100070001303000013030000130300001303000028
:1000800013030000B1060000130300001303000077
:10009000D506000013030000130300001303000043
:1000A00013030000130300001303000013030000F8
:1000B0001303000013030000000000000000000014
:1000C00013030000130300001303000013030000D8
:1000D00013030000130300001303000013030000C8
:1000E00013030000130300001303000000000000CE
:1000F00000000000130300000000000013030000D4
:1001000000000000000000000000000000000000EF
:1001100000000000000000000000000000000000DF
:1001200000000000000000000000000000000000CF
:1001300000000000000000000000000000000000BF
:1001400000000000000000000000000000000000AF
:10015000000000000000000000000000000000009F
:10016000000000000000000000000000000000008F
:10017000000000000000000000000000000000007F
:10018000000000000000000000000000000000006F
:10019000000000000000000000000000000000005F
:1001A000000000000000000000000000000000004F
:1001B000000000000000000000000000000000003F
:1001C000000000000000000000000000000000002F
:1001D000000000000000000000000000000000001F
:1001E000000000000000000000000000000000000F
:1001F00000000000000000000000000000000000FF
:10020000DFF80CD000F00AF900480047551900004B
:100210004829002030B4044654E8000F0D4644E855
:100220000053002BF8D1156030BC704730B4044641
:1002300054E8000F40EA010544E80053002BF7D1D1
:10024000156030BC704730B4044654E8000F00EA33
:10025000010544E80053002BF7D1156030BC70470E
:1002600030B4044654E8000F80EA010544E8005326
:10027000002BF7D1156030BC704730B4044654E809
:10028000000F00EB010544E80053002BF7D1156087
:1002900030BC704730B4044654E8000FA0EB0105B1
:1002A00044E80053002BF7D1156030BC704770B4A0
:1002B00004464FF0000054E8006F0D68AE4207BFDF
:1002C00044E80023012044E800630E60002B1CBFBB
:1002D0000020F0E770BC704730B4044654E8000FCB
:1002E00088422CBF451A054644E80053002BF5D13F
:1002F000156030BC7047000006488047064800473C
:10030000FEE7FEE7FEE7FEE7FEE7FEE7FEE7FEE7C5
:10031000FEE7FEE7D9060000010200002DE9F05FCC
:100320000546002092469B46884606468146402464
:100330001BE0284641464746224600F05EF85346F9
:100340005A46C01A914110D311461846224600F071
:1003500016F82D1A67EB01084F46224601200021AE
:1003600000F00DF817EB00094E41201EA4F1010426
:10037000DFDC484631462A464346BDE8F09F202A46
:1003800004DB203A00FA02F1002070479140C2F1EC
:10039000200320FA03F31943904070470048704748
:1003A0004C3E000040EA01039B0703D009E008C966
:1003B000121F08C0042AFAD203E011F8013B00F82A
:1003C000013B521EF9D27047D2B201E000F8012B76
:1003D000491EFBD270470022F6E710B513460A46C5
:1003E00004461946FFF7F0FF204610BD421C10F8E6
:1003F000011B0029FBD1801A7047202A04DB203A18
:1004000021FA02F00021704721FA02F3D040C2F134
:10041000200291400843194670470000064C074DE2
:1004200006E0E06840F0010394E8070098471034C4
:10043000AC42F6D3FFF7E8FE083F0000283F00007B
:100440002DE9F04F00268DB0DFF8A081B14604966B
:100450004FF48075012437460596284601F05AFE70
:1004600038B1D8F80403204203D0284601F048FEF2
:1004700026432D1D64007F1CADB2082FEDD34FF431
:10048000BE74204601F046FE48B1204601F038FE19
:1004900046F0004604AA0221002001F01BFE544C45
:1004A00016F0FF0F15D00127002537420DD008EBBD
:1004B0008501D1F81005D1F81015C0F3052054F8C6
:1004C0002520C1F3014102B190477F006D1C082D2A
:1004D000EBD3002E7EDA0020CDF82890411E0DF1DE
:1004E000100B07AACDF82C9042F82010401C914622
:1004F0000228F9D300252E46A11911F8607F91F941
:10050000000027F0C008401C40D007A9404601F079
:1005100029FB40B34FEA971A404600F03BFF54F8DE
:1005200020701FB1BAF1030F03D006E0BAF1030F38
:100530002CD10AA9404601F01DFB02A8CDF8088085
:1005400001F06CFD029900EB8100D0F8000704A9CE
:10055000C0F301400290404601F004FB00280298DD
:1005600002D0022802D011E003280FD1BAF1030F04
:1005700008D10298022833D00221404601F028FD1C
:100580006D1CEDB217B151464046B847761C042E9B
:10059000B2D3002D21D001AA0221002001F09AFD42
:1005A00000205A460DF1040152F8206051F8203025
:1005B000B34217D000200AAE4FEA090351F8207069
:1005C00042F8207056F8207043F82070401C022832
:1005D000F4D300E001E0002D8CD10DB0BDE8F08F28
:1005E0000321CAE7401C0228DED3F6E70060004082
:1005F0007801002000F01F02012191404009800095
:1006000000F1E020C0F88012704700F01F020121C5
:1006100091404009800000F1E020C0F800117047CF
:1006200000F01F02012191404009800000F1E0200C
:10063000C0F8001270474907090E002806DA00F0DA
:100640000F0000F1E02080F8141D704700F1E02059
:1006500080F800147047000070B54FF48076304683
:1006600001F092FA114CB50560B1304601F093FAF1
:100670000120C5F80803607920B901206071216864
:10068000002088474FF48276304601F07DFA00283A
:100690000AD0304601F07FFA0220C5F8080321682D
:1006A000BDE870400120084770BD00002800002010
:1006B00007480021C0F84011C0F84411C0F84811A3
:1006C000C0F84C11C0F80011C0F8041103F0B8B81C
:1006D0000010014003F006B830B54FF08050002202
:1006E0008300D0F83011C3F80C21C3F81021624BFD
:1006F0001A60624B1B68624C2360604B1B1D1B68B9
:10070000241D23605D4B08331B68241D23605B4B55
:100710000C331B68241D2360584B10331B68241DA9
:100720002360564B14331B68241D2360534B18332E
:100730001B68534C20342360504B1C331B68241D12
:1007400023604E4B20331B68241D23604B4B243306
:100750001B68241D2360494B28331B68241D23601C
:10076000464B2C331B68241D2360444B30331B68DD
:10077000434C40342360414B34331B68241D2360B9
:100780003E4B38331B68241D23603C4B3C331B68B5
:10079000241D2360394B40331B68241D2360012432
:1007A000082902D1D0F8343113B1082904D006E069
:1007B000354B3449196005E0D0F8343113B10829BC
:1007C00004D006E0314BFB21196005E0D0F834314C
:1007D00013B1082908D00EE090F858322C4801686F
:1007E00063F30301016002E0D0F834311BB92949F9
:1007F0004FF40070086028480168C90702D06FF004
:10080000010101602548016841F470010160BFF3F6
:100810004F8FBFF36F8F4FF01021D1F800020028E7
:1008200003DBD1F80402002822DA1D4B1C601D48AE
:100830000468002CFCD01224C1F800420568002D89
:10084000FCD0C1F8044201680029FCD01A6001689C
:100850000029FCD0BFF34F8F10487C380168124A42
:1008600001F4E06111430160BFF34F8F00BFFDE76A
:100870000F490E48086030BD3805004004040010E0
:1008800020C50040488103008C56004018F5004008
:10089000E40E0040409602400004004088ED00E075
:1008A00004E5014000E401400400FA050090D00393
:1008B000F4000020014800680047000030000020DC
:1008C00002E008C8121F08C1002AFAD17047704719
:1008D000002001E001C1121F002AFBD17047022055
:1008E00000F012BA70B50024084D05E0686810F8F1
:1008F000340002F019F9641C28788442F6D30448C5
:100900004068BDE8704000F027B9000038000020C2
:100910003C3D000070B50024064D06E068680121EA
:1009200010F8340002F024F9641C28788442F5D3CE
:10093000002070BD38000020F8B515460C4606466C
:10094000052A01D20720F8BD02F00AFA18B902F010
:10095000CDF90028F7D1124900224E600C708D604D
:10096000C1E90422C1E906220E4D0DE006EBC400E8
:100970002968009181788DF8011000780A4A69464B
:1009800002F042F90028DED1641EE4B2EED2BDE8E6
:10099000F84004480021054A001D00F061B800003D
:1009A000380000203C3D0000851500009514000033
:1009B00072B601F045FE00BF01F092FC0028FBD1A9
:1009C00011481249401AC408012000EB044010A14C
:1009D00001F09EFD11480068C00700D000BE022053
:1009E00000EB04400EA101F093FDBFF34F8F0B48C5
:1009F000E43801680E4A01F4E06111430160BFF37D
:100A00004F8F00BFFDE70000703F0000383F00003F
:100A1000466174616C206572726F7200F0ED00E0E7
:100A200053797374656D20726573657400000000FE
:100A30000400FA050EB500210091CDE901106A46C7
:100A400044F20100FFF7B4FF0EBD401A20F07F40D2
:100A5000704700000148006870470000041501401D
:100A6000074B9B7823B12AB120B10068037C1BB1EE
:100A7000082070470720704741744261002070478A
:100A80005402002070B502F047FC104800240B21EE
:100A9000047044700E4D817014206C602C706C706A
:100AA000FFF7A8FD06211420FFF7C5FD1420FFF76E
:100AB000ACFD0848046006211120FFF7BCFD054885
:100AC000001F0068A860002070BD000054020020D4
:100AD00058000020081501402DE9F843DFF8709018
:100AE00099F802305BB350B3052902D20720BDE864
:100AF000F88343691BB3437C012B22D000270446B3
:100B0000002588461646284600F042F8684603F05D
:100B1000B5F8C0B1012101700E4944600968C0E90F
:100B20000218C0E904769DF8000089F80100002051
:100B300000F030F81420FFF773FD2846D7E70820AF
:100B4000D5E70F46DBE70425002000F023F8F4E7A3
:100B500054020020041501400649897839B130B1AA
:100B6000416921B100210174022102F049BE08202F
:100B700070470000540200200448807818B1032117
:100B8000002002F03DBE0820704700005402002003
:100B900000F002B800F008B872B602480168491CBB
:100BA000016070476C00002003490868401E08601F
:100BB00000D162B6704700006C00002070B5054699
:100BC00008680C46411C04D001F05DFA206801F071
:100BD000EBF96068411C02D0002101F0D3F92968CB
:100BE000A069C1F82405607D227D29681043C1F801
:100BF0006C05D4E900122868C0F81425C0F80C155B
:100C0000207D012814D1A068411C02D0002101F0F0
:100C1000B9F9E068411C04D001F035FAE06801F050
:100C2000C3F9D4E902122868C0F80825C0F81015E5
:100C300070BD70B5054608680C46411C04D001F033
:100C40002CFA206801F0BAF96068411C02D000213A
:100C500001F0A1F92968A069C1F82405607D217D12
:100C60002A680843C2F86C05D4E900122868C0F865
:100C70000C15C0F81425207D012814D1A068411C52
:100C800002D0002101F087F9E068411C04D001F096
:100C900004FAE06801F092F9D4E902122868C0F879
:100CA0000825C0F8101570BD0149085C70470000A8
:100CB000FC3C00002DE9FC410646C0074FF0000552
:100CC0000ED0104F00240122385D009500231146FC
:100CD000019501F0E1F8641C042CF4D300F04EF807
:100CE000B0070DD5074E0024361D0022305D0323CA
:100CF00000951146019501F0CFF8641C042CF4D343
:100D0000BDE8FC81F83C0000094908B5085C00908A
:100D1000684601F075F9D0F80425009B012199403F
:100D200021EA0203C0F808351140C0F80C1508BDCF
:100D3000F83C00000249085C012101F0B8B900004C
:100D4000F83C00000249085C002101F0B0B9000045
:100D5000F83C0000084908B5085C0090684601F0BE
:100D60004FF9D0F804050099C84010F0010000D0F8
:100D7000012080F0010008BDF83C000010B50024FF
:100D80002046FFF7D7FF641C042CF9D310BD10B523
:100D900000242046FFF7D6FF641C042CF9D310BDB5
:100DA00010B50246064B4FF0FF3000215C5C9442C8
:100DB00001D1084610BD491C0429F7D310BD00001D
:100DC000FC3C00002DE9F0470D468146FFF7E8FFA7
:100DD0000446042836D2DFF874801B481C4EA8F164
:100DE0000C0725B3012D0ED0022D2BD104EB4400AE
:100DF00030444578002D25D0B968002922D02846F6
:100E0000BDE8F047084704EB4401755C0E44717877
:100E100049B10E4A4FF40041093A8068FFF75CFE81
:100E200008B987F80390B17808F80410E2E7806801
:100E3000FFF792FE04EB4401314418F804008D786A
:100E4000A842D7D0BDE8F087003D00001000002088
:100E500038010020FFF746BD10B51949022000F007
:100E6000BFF808B1FFF7E6FD0C220221012000F0D7
:100E700029F808B1FFF7DEFD0A220021012000F069
:100E800021F808B1FFF7D6FD00220121104600F03D
:100E900019F808B1FFF7CEFD00210E22084600F038
:100EA00011F808B1FFF7C6FD09220021022000F069
:100EB00009F8002803D0BDE81040FFF7BBBD10BD06
:100EC000090F000070B50023042810D20D4D00EB6F
:100ED0004004012A02D101290CD00022094E00EB66
:100EE0004000304461B1012906D0022906D0072311
:100EF000184670BD0E30C2B22A55F9E74270F7E7C6
:100F00008270F5E73801002070B5064601F078FCE4
:100F100019481A49401AC108032000EB0140054650
:100F200017A101F0F5FA092E24D01B4C0A2E1AD075
:100F300001200C2E15D00E2E14D1617821B1002085
:100F40006070284615A102E0607028461CA101F0DF
:100F5000DFFAA078002805D06078002802D00420AD
:100F600004E0207070BD207800B10120BDE8704021
:100F700001F0D4BC0320F9E7703F0000383F0000C7
:100F8000506F776572206D616E6167656D656E7417
:100F9000206665640000000000000020537973742F
:100FA000656D206973206E6F7420726561647920AD
:100FB000666F722073687574646F776E000000004E
:100FC00053797374656D206973207265616479204B
:100FD000666F722073687574646F776E000000002E
:100FE00070B506461E480024C0E90161B00720D54F
:100FF0000025012211462846FFF764FF6D1C0446B8
:10100000042D02D2002CF4D013E094B940F26662B1
:1010100004211448FFF790FC04000AD1FFF77AFC82
:10102000040006D10F48104A0021001FFFF718FDE9
:101030000446F00712D00120FFF73CFE74B90948BE
:101040000A4A00210C38FFF70BFD040006D10548C1
:10105000074A01210838FFF703FD0446204670BD0A
:10106000040000200C3D000029130000AD17000013
:10107000DF0800002DE9F05F6E4C05460026607821
:10108000B34618B184F801B000F078FB6A4F4FF412
:101090007A694FF4C87A4FF00108182D69D2DFE859
:1010A00005F00C1313384754696E727B727BC5844C
:1010B00084848484B3B6B9BCC5C500F05FFB3868CE
:1010C000FFF74AFD06465CE00020FFF743FE0028DC
:1010D0004FF0000008D0FFF72DFE022D02D14FF493
:1010E000E16008E0484606E0FFF72CFE022D01D142
:1010F000C82000E05046410CC0034FF4FA7280183B
:1011000041F10001257052000023FFF707F9014665
:101110002AE00020FFF71EFE00284FF0000004D058
:10112000FFF708FE4FF44870E5E7FFF70BFEDFE737
:101130000020FFF70FFE00284FF0000002D0FFF75D
:10114000F9FDCFE7FFF7FEFDD4E70020FFF702FE31
:1011500000284FF0000002D0FFF7ECFD01E0FFF7A0
:10116000F1FD257041F69A1100223868FFF7B4FCB2
:10117000064646E00020FFF7C7FD257008E0002086
:1011800051E025703DE084F801800120FFF7BCFDAF
:10119000002240F6CD41E8E784F801800120FFF706
:1011A000B3FD00224FF48041DFE77868FFF7D4FCFD
:1011B0000646D5F1110000D02EB10220FFF7BAFD8E
:1011C00084F802B01DE0012816D980B2C821484336
:1011D000C117C90341EA5041C0034FF4FA728018A5
:1011E00041F1000152000023FFF798F80146002268
:1011F0007868FFF771FC06460220FFF7A3FD84F82C
:1012000002803046BDE8F09F00F0B8FAB9E700F080
:10121000B5FAB4E700F0B2FA04E000F0AFFA00204B
:10122000FFF790FD0120FFF78DFDAAE7FFF7AFFD67
:10123000A7E7000004000020003D000010B50020DA
:10124000FFF7A6FC05480068400702D104490120C9
:1012500088600020FFF79EFC002010BD1054004065
:1012600000500040012102F021BD00002DE9F047AF
:101270000546861C90460F464FF001090020FFF7F7
:1012800087FC1B4C20683860D4E90001401AA16833
:1012900004F21C47081A0EE00121384600F0FAFB60
:1012A00000F00AFB0146384600F0F4FBD4E90001E7
:1012B000401AA168081A401C8642EDD8B8F1000F08
:1012C00003D0052065F3891002E0062065F39F50E6
:1012D000A2682168114004EB8101C8602068304495
:1012E00020600020FFF756FC4846BDE8F08700006C
:1012F0002405002030B482680468531C8360A15424
:10130000D0E901128A4202D330BC00F0CCBC30BC20
:1013100070470000034803C8814201D10120704793
:10132000002070472405002000780221FFF74ABD05
:1013300005494FF0FF32082841F8202002D3084425
:1013400080F858207047000078010020F0B54FF079
:10135000FF3512B10023082601E008230C260C4CAF
:1013600005E000BF54F823707F1C04D05B1CB3421F
:10137000F8D32846F0BD26185DB286F8305044F800
:101380002310002AF5D1E11881F85800F1E7000098
:10139000780100200249084490F9300070470000AD
:1013A0007801002070B5084C050009D01034216880
:1013B000002907D008682060496828468847F6E772
:1013C0000834F4E770BD000064010020054A0121E3
:1013D00020B1012805D19170FFF7E4BF51700020C2
:1013E000FAE77047640100202DE9F05F2648416864
:1013F000F1B3DFF898B00E688146DBF800408768EB
:101400008078E11B21F07F45ED1CB0B9DFF88080CA
:101410004FF48030C8F84403C8F804031120FFF7E4
:10142000E9F81120FFF7F1F84FF0010AC8F800A021
:101430002F2001F071FB89F802A0B54200D2354699
:10144000124BE8193C3320F07F401860DBF80010A5
:101450005A46091B21F07F41001B20F07F40C91C28
:1014600081420FD9106818602F2001F055FB00E071
:1014700004E0BDE8F05F1120FFF7D2B8BDE8F05FEF
:1014800001F04ABFBDE8F09F58000020041501405C
:10149000001001402DE9F0470025DFF890803DE085
:1014A0006068002100EBC506012032789146FEF706
:1014B00066FFD4E9062300EA020701EA030C57EAB3
:1014C0000C0729D082438B434846C4E9062301F028
:1014D00005FC32788246914601200021FEF74FFF3D
:1014E000D4E9042300EA020401EA03074A4650460D
:1014F0000021FEF744FF44404F403C430CD170783C
:10150000012801D0012000E00020726880EA0A0072
:1015100012B1C1B2484690476D1CEDB298F8000078
:1015200044468542BCD3BDE8F08700003800002067
:1015300010B50021024800F0B8FA80F3100010BD89
:10154000400900200E4910B50A784C780023A242C9
:1015500012D0521CD2B20A70022A00D10B70084A73
:101560000B780C3252F8232002608868104420F077
:101570007F408860012010BD0360002010BD000086
:10158000580000202DE9F04180460246012000214C
:10159000FEF7F5FE1A4F05460E467868FFF7DCFAAF
:1015A00000280CD1174CD4E9062110462A4001EA44
:1015B00006031A4305D0A843B143C4E90601BDE8B8
:1015C000F081404601F08AFB30B1D4E904012843A0
:1015D0003143C4E9040105E0D4E90410A943B04350
:1015E000C4E90410D4E9060128433143C4E90601E3
:1015F000A1687868BDE8F0410022FFF76DBA0000ED
:101600003C3D0000380000202DE9FC5F0E008346C1
:10161000DDE90C47C6F1000098469246814600D4A9
:101620000846012503E000BF90FBFAF06D1C504511
:10163000FADAA84500D9454624B1002E01DB780727
:1016400000D5641EB80702D5B8F1000F0AD0F8071C
:1016500008D13CB1A54205D220215846641EFFF7AF
:1016600049FEF6E7002E02DA4E462D2102E0780709
:1016700003D52B215846FFF73DFE07F00300022853
:101680000BD1B8F1000F08D13CB1A54205D23021F1
:101690005846641EFFF72EFEF6E7CDE900474346A5
:1016A00052463146584602F08FFABDE8FC9F0000D2
:1016B00070B50D46044600684FF4887101F0EDF9ED
:1016C0004FF49071206801F0E8F94FF492712068AE
:1016D00001F0E3F94FF4A271206801F0DEF920680F
:1016E0001249C0F804132068690740F30730090E57
:1016F000002806DA00F00F0000F1E02080F8141D49
:1017000003E000F1E02080F800142068012140F39C
:10171000073000F01F0291404009800000F1E020F6
:10172000C0F88012C0F8001170BD00001003020064
:10173000024600201268530713D502F00300012867
:1017400002D002280CD105E0C2F383100B68801C84
:10175000184404E00223086803EB92521044086026
:10176000012070470268134602E08A4204D01268E2
:10177000002AFAD10B600160704700000A4810B5DA
:10178000807860B1002401E0022C06D02046FFF7EB
:10179000D1FA641C042CF7D310BD0324F6E7BDE88E
:1017A0001040FFF7EBBA0000040000200348017965
:1017B000C90702D00078FFF75DBC70470400002025
:1017C0002DE9F047394E002780463D46DFF8E0908E
:1017D000D6F804A057E003D00446D0F81C8035E0CA
:1017E00099F8002002EB4201521CD2B289F8002085
:1017F00009EBC10199F80230091D9A4201D189F81B
:10180000005048680A780446012A12D0022A02D001
:10181000032A3BD108E001F0C3FF00B10127257482
:1018200034E00574C06900E070680028F9D1706088
:101830002CE0207C50BB88686060C868A0600869A4
:10184000E0604869A061F07800B165606268B168E5
:10185000184B501A20F07F40984202D2A1680844E9
:1018600006E0881AA16820F07F40814202D9081A58
:10187000206000E0256065600120A560207420469E
:10188000E56101F06FFFB8F10000A4D199F80010F4
:1018900099F801008142A3D117B97168514502D06E
:1018A0000120BDE8F0870020FBE700005800002081
:1018B00054020020FFFF7F002DE9FF41002623484E
:1018C00000F0E5F82148001F074600F0E0F8204C42
:1018D00060680090A56800E000986946284004EB25
:1018E00080000C30FFF724FF0028F5D101AA0099F1
:1018F00001EA050304EB8303491CDB6842F820304E
:10190000401C00910228F2D3019800F00300012846
:101910000BD0022810D10198032101EB90500099BF
:10192000BDF80A6001EB900005E00198BDF80A607F
:10193000C0F3831008440090384600F0A5F808B1C1
:101940000098606004B03046BDE8F0813C0900209A
:10195000240500204FF40041002000F03BFE08B1B8
:10196000FFF768F800F0AEFC12481349401AC008AF
:10197000032101EB004011A100F0CAFD00F014F9B1
:1019800008B1FFF757F8002000F028F9FFF77AF8C0
:1019900008B1FFF74FF8FFF75FFA00F04BFF08B10F
:1019A000FFF748F800F09CFC0028FBD100F088FF0E
:1019B000F8E70000703F0000383F0000506F776587
:1019C00072204D616E6167656D656E74206578612A
:1019D0006D706C65000000002DE9F047C5881E1D84
:1019E000B6FBF5F78946B6FBF5F1044605FB176C27
:1019F000407916686843DDF820A0F718001F874279
:101A000000D9C61A166001E02468491E0029FBD1DE
:101A1000A5EB0C078846B74216D818E004EB0C007B
:101A2000001D09EB0803BAF1000F3A4602D0014647
:101A3000184600E01946FEF7B5FC2468F61B4FF087
:101A4000000CB844B54201D9374600E02F46002EBD
:101A5000E4D1BDE8F087000030B5024651B100F096
:101A6000D7FD0021074C08E034F821301568AB425F
:101A700002D11160002030BD491C8142F4D3052001
:101A800030BD000000000000002100F009B8012175
:101A900000F010B808B56A46FEF7EFFB009808BDE5
:101AA00008B56A46FEF7CFFB08BD08B56A46FEF7E3
:101AB000B1FB08BD08B56A46FEF7B8FB009808BD43
:101AC00008B56A46FEF7E6FB009808BD70B5044607
:101AD00000252846FFF75CF8216862680868904294
:101AE0000ED9401E08600178238AE26801FB0325B5
:101AF000227A2168101AC0B20A79824200D2087193
:101B00000020FFF747F8284670BD70B505460C4623
:101B10000020FFF73DF8E868298A201AB0FBF1F1B0
:101B20002A681068431C13600170BDE870400020F3
:101B3000FFF730B810B530B1017A42680368891AEE
:101B4000C9B21A6006E00E2010BD03681A68541C62
:101B50001C601170491EC9B2F7D2006800210171E2
:101B6000084610BDC20800F007030120895C9840B8
:101B70000840704710B5C20800F00703885C0124D4
:101B80009C402043885410BD00F18040006800282C
:101B900000D00120704708B500F1804000210160AD
:101BA0000068009008BD000070B50A4C207808B1AC
:101BB00085250CE00020A06060602061E0600648A0
:101BC00000F08AFF054600F06FFF012020702846D4
:101BD00070BD000064010020CD13000070B5104DF1
:101BE0000446A87838B114B1616801208847002004
:101BF000FEF7CEFF0CE00020FEF7CAFF24B1084834
:101C000021461030FFF7AEFDE86808B900F074FF18
:101C1000E868401CE860BDE870400020FEF7BABFED
:101C200064010020F0B505460478154889B01646D1
:101C300040F82420124A08690832A2F10C0742F841
:101C40002400487F385520226846FEF7ABFB0494F9
:101C50002878385C48B10EB10A4A00E00022694693
:101C6000281D01F0E7F909B0F0BD0EB1064A00E009
:101C70000022694605F10C0001F0AEF8F3E7000020
:101C800018000020A53A0000F13800000FB408B594
:101C90000399002904D004AA00926A4600F00FF8C4
:101CA00001B05DF814FB10B582680446002A05D027
:101CB000D4E90403216898470020A06010BD2DE9F5
:101CC000FC4791460C00804676D014F8011B39B1D0
:101CD00025290ED04046FFF70DFB20780028F4D1CF
:101CE00098F80C00002867D04046BDE8FC47FFF795
:101CF000DABF0020012221782B291BD02D2902D008
:101D0000302908D102E040F0010001E040F002007B
:101D1000641C002AEFD100252A290ED02178A1F1D8
:101D200030020A2A11D205EB850201EB4205641C40
:101D3000303DF1E740F00400EAE7D9F800100B1D50
:101D4000C9F800300968641C0D44217800232E294D
:101D50000BD114F8011FA1F130020A2A05D203EBBE
:101D6000830201EB4203303BF3E76C290DD0682975
:101D70000BD0692921D00BDC252918D0582931D066
:101D800063290ED0642915D117E014F8011FECE780
:101D9000702969D0732932D075291BD0782909D1CF
:101DA00020E0D9F80000011DC9F800100178404674
:101DB000FFF7A0FA641C90E76CE0D9F800100A1D48
:101DC000C9F800200968CDE900500A224046FFF713
:101DD0001BFCEFE7D9F800100A1DC9F800200968BC
:101DE0000A2206E0D9F800100A1DC9F80020096887
:101DF0001022CDE90050404601F0E6FEDAE7D9F8BE
:101E0000001000270A1DC9F800200E68C00705D180
:101E100012E04046761C7F1CFFF76CFA31780029EF
:101E2000F7D104E0202140466D1EFFF763FABD4262
:101E3000C0D9002DF6D1BDE74EB13046FEF7D6FA37
:101E4000074604E0202140466D1EFFF753FABD42CD
:101E500006D9002DF6D103E04046761CFFF74AFA7A
:101E600031780029F8D1A5E7D9F80000011DC9F89B
:101E70000010056830214046FFF73CFA78214046C3
:101E8000FFF738FA08200021CDE9000103461022AF
:101E90002946B0E7BDE8FC872DE9FF411C46DDE996
:101EA0000A7815460E46684600F0AAF846EA45014B
:101EB00041EA840141EA072242EA0841009A00EB24
:101EC0008200C0F80017BDE8FF812DE9FF411C46E4
:101ED000DDE90A7815460E46684600F09FF846EAA6
:101EE000450141EA840141EA072242EA0841009A99
:101EF00000EB8200C0F80017BDE8FF812DE9FF412B
:101F00001C46DDE90A7815460E46684600F094F84E
:101F100046EA450141EA840141EA072242EA0841D2
:101F2000009A00EB8200C0F80017BDE8FF812DE9A0
:101F3000FF411C46DDE90A7815460E46684600F06A
:101F400089F846EA450141EA840141EA072242EA6A
:101F50000841009A00EB8200C0F80017BDE8FF813D
:101F60001CB5002100910B4601220191FFF7C6FF2D
:101F70001CBD1CB5002100910B4601220191FFF709
:101F8000D6FF1CBD1CB500220B46009211460192E3
:101F9000FFF7B4FF1CBD1CB500220B460092114692
:101FA0000192FFF7C4FF1CBD1CB5002100910B4638
:101FB000012201911146FFF7A1FF1CBD1CB50021B4
:101FC00000910B46012201911146FFF7B0FF1CBDA5
:101FD00013B50C46684600F021F8009900EB81012A
:101FE000D1F8002722F44032C1F80027009900EB15
:101FF0008100D0F8001741EA0441C0F800171CBD69
:102000000168202902D24FF0A040704701F01F0163
:10201000016001487047000000030050016820295A
:1020200002D24FF0A040704701F01F01016001484B
:1020300070470000000300500168202902D24FF0D1
:10204000A040704701F01F01016001487047000087
:10205000000300500168202902D24FF0A0407047D1
:1020600001F01F01016001487047000000030050AB
:1020700001B56846FFF7D2FFD0F810050099C840B7
:1020800000F0010008BD01B56846FFF7D5FF009AD2
:1020900001219140C0F8081508BD01B56846FFF759
:1020A000D9FF009A01219140C0F8081508BD38B544
:1020B00001240090684631B1FFF7A2FF00998C40DF
:1020C000C0F8084538BDFFF79BFF00998C40C0F869
:1020D0000C4538BD1CB5094C0144D4E90034CDE9A8
:1020E00000346C4606E000BF54F82030D3F81035B9
:1020F000401C08C28142F7D81CBD00002C3D0000E6
:10210000034908B50844002101600068009008BD3B
:102110000060004002494058012800D0002070476C
:102120000060004030B5154A01460020D2F8104446
:1021300023460AE0DB681D79854205D1401C0A2848
:10214000F6DB4FF0FF3030BD1B68002BF2D1431C93
:10215000F9D0CB681871D2F8103443B1DB68CC6881
:102160001B682360D2F81024D268116030BDC2F819
:102170001014C96800220A6030BD00002405002048
:10218000F0B595B01C4615460F4608461A9E00F05D
:1021900011FB182109A8FEF71EF90E96CDE9095486
:1021A0000023082203A9384600F019FB0598069081
:1021B000BDF81000ADF81C00BDF81200ADF81E000F
:1021C00000208DF821000398082600F00300012864
:1021D00002D0022818D032E003983346850AC0F3B3
:1021E000C2008DF8200003980FA9C0F38314A20049
:1021F000384600F0F4FA09A8009006AB22460FA971
:10220000284600F033FA1AE00398840DC0F3C200A8
:102210008DF82000082C01D2254600E00825334621
:102220002A460FA9384600F0DAFA2E44641B09AB9F
:1022300006AA29460FA800F077F9002CEAD1384603
:1022400000F0BEFA15B0F0BD7047012001F06EBB82
:10225000084810B50178084A515C19B1001D00F01A
:1022600075FF02E00C3000F083FEBDE81040002056
:1022700001F05CBB880000201400002008B5034A70
:1022800000924023024AFFF77BFF08BDB5330000F0
:102290008C0300200A4A012902EBC00007D0022962
:1022A00007D0032907D0042907D000207047022057
:1022B00070470420704700797047407970470000EC
:1022C000383F000010B5FFF7C0FF04210348FFF7B7
:1022D00029FF02490120C968487110BD283F00004C
:1022E0002DE9F0478CB0FFF715F818B100200CB0BD
:1022F000BDE8F0877D4C0020C4F81804BFF34F8F71
:1023000060680290A5684FF00008284004EB800048
:102310000CE000BFD4F8180470B92168029881421B
:1023200001D86160E2E7284004EB80000C3002A98C
:10233000FFF7FEF90028EDD1002003AA029901EA77
:10234000050304EB8303491CDB6842F82030401C82
:1023500002910228F2D3039800F00300022802D071
:1023600001284DD0A7E003985022810D8946B2EB99
:10237000905F00D850210E4666F39F5003900831BD
:102380005B4800F0CEF9070078D000F013FA43461E
:10239000082203A9384600F02AFA029908F1080A2F
:1023A0002940681A8000001D864222D94F4D0C3505
:1023B00030B1C2B204EB8101301A90460C3104E016
:1023C0002946F2B2002590462846C6B25346384602
:1023D00000F00DFA0AEB080325B1324629463846CB
:1023E00000F005FA029909F1030001EB9000029058
:1023F0003BE004EB81015346324638460C31EFE7AF
:102400000398C0F38310062800D30620039960F3D5
:102410008911C1F38310801C03918100344800F0BE
:1024200080F9070047D000F0C5F94346082203A908
:10243000384600F0DCF908F1080800260FE00298A1
:10244000434600EA0501401C04EB8101029004228E
:1024500038460C3100F0CBF908F10408761C0398DB
:10246000C0F38310B042EAD847B1D4F81054D4F87E
:10247000180478B1384600F0A3F931E01BE0E868B1
:102480004079012804D12A682846394612689047C5
:10249000E8680568002DF2D1384600F091F9002077
:1024A000FEF776FBD4F8180408B9029860600020A3
:1024B000FEF770FB14E0D4F8104405E021682046D4
:1024C00089688847E0680468002CF7D109480A4900
:1024D000401AC008022101EB004008A100F018F8E2
:1024E000FEF718FF80F0010001E70000240500203E
:1024F000783F0000703F0000383F00004261636B8E
:10250000656E647320666C75736865640000000016
:1025100000231A4601F0A0B808B5012300926A46CC
:1025200001F09AF808BD00002DE9F0470E468046FC
:102530001C46924608293ED894F80C90002020733F
:102540001946104600F090FE0025B54206D218F854
:1025500005201AA12046FFF799FB03E019A12046A8
:10256000FFF794FB6D1C082DEFD317A12046FFF752
:102570008DFB0025B54210D218F80570FDF70EFF4F
:102580000068C05D10F03E0F01D03A4600E02E22F8
:102590000EA12046FFF77AFB03E00DA12046FFF7CE
:1025A00075FB6D1C082DE5D301222146504600F035
:1025B0003DFE84F80C90BDE8F08700002025303205
:1025C00078000000202020007C000000256300002F
:1025D000200000000B4810B5FF2181600021016040
:1025E0004160C0F81814C0F8141480F8201406488C
:1025F00000F0E4F8002803D1044800F003FA0020BA
:1026000010BD000024050020783F0000BC3D000004
:1026100002480349401AC00870470000783F000094
:10262000383F000013B56846FFF716FA08B10020DE
:102630001CBD0248009950F831001CBD383F000015
:1026400070B509480125D0F8104480F8205407E0FF
:10265000E06845712168204649688847E068046859
:10266000002CF5D170BD0000240500202DE9FF47A6
:1026700081460C9D00200C462F7B287398461646F9
:102680002946184600F0F0FD072E42D2DFE806F09A
:1026900004090F161F2A360049462846FFF7F6FAA6
:1026A00037E0494628462268FFF7F0FA31E0D4E9DE
:1026B000002349462846FFF7E9FA2AE0A06800907F
:1026C000D4E9002349462846FFF7E0FA21E0D4E99F
:1026D0000201CDE90001D4E9002349462846FFF76D
:1026E000D5FA16E004F1080007C88DE80700D4E920
:1026F000002349462846FFF7C9FA0AE004F108001A
:102700000FC88DE80F00D4E9002349462846FFF79B
:10271000BDFA00222946404600F088FD2F73BDE82F
:10272000FF872DE9F041058A80462D1F4819C01CFE
:10273000B0FBF5F0C6B24046FFF7C8F9041E19D049
:102740000020207101206071E58000272546761E5B
:10275000C4F800800BE04046FFF7B8F960B161793A
:10276000491C6171286005467F1CC0F80080B74293
:10277000F1D32046BDE8F081204600F002F80020A9
:10278000F8E72DE9F041457901466B1E002201E092
:102790000968521C9A42FBD30F680146002605E0E7
:1027A00038460C68FFF7B1F92146761CAE42F7D3E4
:1027B000BDE8F0810121001DFFF76CB9FFF7BAB940
:1027C00010B504460121001DFFF77AF910F0FF0F44
:1027D00004D12046BDE81040FFF7D3BF10BD1CB5A3
:1027E00001920122009201AAFFF7F6F81CBD1CB568
:1027F00001920022009201AAFFF7EEF81CBD000032
:102800000748084910B5401AC008042101EB0040F0
:1028100005A1FFF77DFE06490020888010BD00005D
:10282000683F0000383F0000466565640000000016
:102830007000002019481A4970B5401AC0080321D9
:1028400001EB004017A1FFF763FE184D002405F1CE
:1028500008006C700460BFF35F8F1549154800F0E5
:10286000DFF81548016841F010010160AC80EC60B0
:102870000F482C61AC70114A0121001FFEF7F0F8DF
:10288000002809D10A480022001F4FF400410068C7
:10289000BDE87040FEF720B970BD0000683F000041
:1028A000383F0000496E697400000000700000208D
:1028B000843D00008003002010ED00E08D29000021
:1028C00010B50020FEF764F9F1EE100A20F09F0029
:1028D000E1EE100ABFF35F8F0E494020C1F880027D
:1028E0000020FEF757F90020FEF752F9FEF7B2F884
:1028F000044620BF40BF20BFFEF7ACF82146FEF7DC
:10290000A4F80549CA681044C860BDE8104000201A
:10291000FEF740B904E000E07000002070B5044606
:1029200012480121FFF7C1F8BFF35F8F002500288F
:102930000BD101210D4E042C0AD0A6F108004278DB
:1029400022B100BFBFF35F8F356070BD047041706E
:10295000074808492246401AC008032101EB0040FD
:1029600005A1FFF7D9FD00F0D5FDEBE778000020C9
:10297000683F0000383F000053687574646F776EDD
:1029800020726571756573742025640070B5FEF75B
:1029900061F8154C06462169FEF757F8E168642294
:1029A000411A5143B1FBF0F0C5B2104810492A4614
:1029B000401AC008032101EB00400EA1FFF7ACFD57
:1029C000A078A84200D2A5700020C4E90306A08820
:1029D000032802D2401CA08070BD60780028FBD183
:1029E000BDE87040FFF79ABF70000020683F00000C
:1029F000383F00004350552055736167653A2025E4
:102A000075252500826800219160826811618268C5
:102A100051618268D160826851608068016070474E
:102A2000016009684160AFF3008010B5D0E9002172
:102A30005368994201D1002104E0D1E90034A34256
:102A400002D01946816010BD08314160F0E781680D
:102A500000290BD0026892680A44826041684B6882
:102A60009A4203D108314160FFF7DFBF70474058F9
:102A7000002800D00120704708B50022425040587D
:102A8000009008BDD0F80403084000D00120704732
:102A90004058002800D00120704708B5002242505D
:102AA0004058009008BD000009480068012110F05E
:102AB000010F08D14FF0E020C02280F80024C0F8B8
:102AC0008012C0F80011034901200860704700001F
:102AD00000E100E0180500400649024600200B799D
:102AE0000BB1852070470A6001220A7100224A71E9
:102AF000704700002800002010B54FF48270FFF7E7
:102B00004AF802204107C1F8040302490120086085
:102B100010BD000008000040002802D001498001DB
:102B200008477047513D000010B5044600F066FBB1
:102B300028B12046BDE810400021FFF749BA2046E1
:102B400000F068FB00280FD02046FEF723FC074A60
:102B500002EB8001D1F8103523F00103C1F81035E4
:102B600001218140C2F8081310BD00000060004040
:102B70002DE9F0410E46804600F040FB204D002834
:102B8000404616D0FEF706FC284490F8580080090D
:102B9000032802D001280AD003E04046FFF768FA74
:102BA00028B103214046BDE8F041FFF711BA0221E8
:102BB000F8E700F02FFB002820D04046FEF7EAFBA4
:102BC0000446104F4FF4807007EB840100EB840043
:102BD000D1F8102580B242F00102C1F81025FFF7AC
:102BE0008FFA002E0AD04046FEF7D4FB55F820009D
:102BF000002803D00120A040C7F80403BDE8F081FD
:102C000078010020006000402DE9FC41DFF8C08021
:102C1000044608EB0400002790F930001346C01763
:102C20000E46401C01D008274FE0B0781946C0F38B
:102C300040022046FEF78AFB0546401C44D0B0788F
:102C400041071CD4C0070DD068460094FFF7E6F991
:102C5000009900EB8100D0F8001721F00201C0F8C4
:102C6000001707E000217378204600910A46019181
:102C7000FFF72BF9164920466431FEF77BFFB07849
:102C8000800718D51348317800EB8500D0F810255F
:102C9000114B1A40C0F810254FF47C524FF44033CA
:102CA00002EA042203EA01410A43D0F810150A435C
:102CB000C0F8102509E008EB0500327810F8581F1D
:102CC00041EA8211017000E004273846BDE8FC812A
:102CD0007801002000600040FFC0FCFF10B5FFF746
:102CE000C7F9002800D0012010BD000070B5194DB3
:102CF00095F86A0008B1082070BD0020411E2A180E
:102D0000401CC0B282F830103028F8D3002420468E
:102D1000FEF70EFB641CE4B20C2CF8D30D49002422
:102D2000C0204C66A1F868400B4981F800040126D8
:102D30004020891FC1F88002C1F800014FF4BE7025
:102D4000FFF7DEF90549F007C1F8040385F86A606A
:102D5000204670BD7801002006E000E000600040E1
:102D6000034890F86A00002800D001207047000056
:102D7000780100200121B1EB507F01D10120704783
:102D80000020704770B50D4600F0BAFA04000FD06D
:102D90000020FDF7FDFE207920B10020FDF7FAFEAE
:102DA000112070BD0120256020710020FDF7F2FE8A
:102DB000002070BD10B500F0A3FA002802D0002159
:102DC0000160017110BD00000149024800F0D6BD4C
:102DD000E4010020002000402DE9F0410546007983
:102DE00016460F4600EB40012D4A01EBC00102EBF5
:102DF000810494F82A1011B10820BDE8F081294916
:102E000051F820102868FFF7BDFF08B11120F4E742
:102E100039462846FDF7D2FE6660386920603000EA
:102E20004FF001062FD03F7F4FF48E712868FFF7D7
:102E300023FE4FF4A2712868FFF71EFE28681A4986
:102E4000C0F8041328684FEA471140F30730002800
:102E500006DA00F00F0000F1E02080F8141D03E016
:102E600000F1E02080F80014286840F3073000F0FB
:102E70001F0206FA02F14009800000F1E020C0F8CC
:102E80008012C0F8001128680421C0F80015002045
:102E9000A061E06184F8290044F8140FA675ACE73E
:102EA000E4010020343D0000800002002DE9F047DD
:102EB000054600790B4600EB400101EBC0002349B9
:102EC00001EB8004284600F043F810B11120BDE862
:102ED000F0874FF00008C4F82080A360626184F896
:102EE00028804FF48E76474631462868FFF7C4FDA8
:102EF00028684FF00109C0F808902146286800F0C2
:102F0000D9FC606800BBD5F800A00EE094F828005A
:102F100008B10F2716E031465046FFF7A8FD0028FC
:102F2000F4D02146504600F0C5FC216A6069814218
:102F3000F1D331462868FFF79AFD0028F9D02868B8
:102F4000C0F80C90C4F814803846C0E7E4010020B3
:102F5000007900EB400101EBC000044901EB800067
:102F60004069002800D0012070470000E4010020E3
:102F70002DE9F047044600794FF0000900EB4001CD
:102F800001EBC000254901EB80072068C0F80095DF
:102F9000786880B120682249C0F8081320680121B0
:102FA00040F3073000F01F0291404009800000F11B
:102FB000E020C0F880112068D0F80C25D0F81485E6
:102FC000D0F80865D0F810554FF0FF31C0F814154F
:102FD000C0F80C152068C0F80815C0F81015501C72
:102FE00002D01046FEF7BCFFB8F1FF3F02D04046CA
:102FF000FEF7B6FF681C02D02846FEF7B1FF701C32
:1030000002D03046FEF7ACFF2068FFF7D3FE87F80A
:103010002A90C7F80490BDE8F0870000E401002082
:10302000840202000149024800F054BD1002002051
:10303000002000402DE9F0410546164600790F4674
:10304000154A00EBC00102EB810494F8201011B185
:103050000820BDE8F081114951F820102868FFF7D9
:1030600091FE08B11120F4E739462846FDF7E1FD4D
:103070006660386920601EB1397F2846FEF718FB6C
:1030800028680821C0F800150020A061E061012136
:10309000606184F82010DCE710020020383D000059
:1030A0002DE9F04704460E460079204900EBC000A8
:1030B00001EB800517463046FFF75CFE30B1204635
:1030C00000F036F820B11120BDE8F0871020FBE7B2
:1030D0006F61AE604FF49076002731462068FFF7AD
:1030E000DCFC4FF4AC7841462068FFF7D6FC206842
:1030F000AA686969C0F84425C0F84815206801210C
:103100008160686878B9B14649462068FFF7C0FC1D
:10311000064641462068FFF7BBFC0643F4D000B1E9
:103120000F27002068613846CEE70000100200201B
:103130000079054900EBC00001EB800040690028E0
:1031400000D0012070470000100200202DE9F04758
:1031500004460079274900EBC00001EB8007206896
:103160004FF00009C0F80095786880B120682249C6
:10317000C0F808132068012140F3073000F01F0257
:1031800091404009800000F1E020C0F880112068E3
:10319000D0F80C25D0F81485D0F80865D0F8105573
:1031A0004FF0FF31C0F80C15C0F814152068C0F8B6
:1031B0000815C0F81015501C02D01046FEF7D9FEB5
:1031C000B8F1FF3F02D04046FEF7D3FE681C02D0A4
:1031D0002846FEF7CEFE701C02D03046FEF7C9FE30
:1031E0002068FFF7E7FD87F82090C7F80490BDE856
:1031F000F087000010020020100302000449084478
:1032000090F93000082801DB01207047002070474A
:10321000780100200449084490F93000082801D2C0
:1032200001207047002070477801002010B50C463F
:10323000017A052908D0407A38B1084808A1026807
:103240002046FEF723FD00E01AB106A12046FEF756
:103250001DFD2046BDE81040FEF725BDD000002032
:10326000257300000D0A000038B5C3880D460446DA
:1032700033B114A0009015A216A12846FEF706FD52
:10328000217A05291CD0607A48B1A088FFF702F89E
:10329000164951F8202016A12846FEF7F7FCA08811
:1032A0000021FFF7BFF903461049207A143951F87D
:1032B000202001B02846BDE830400EA1FEF7E6BC54
:1032C00038BD00001B5B306D000000001B5B313B14
:1032D00033316D0025734C6F67732064726F7070AB
:1032E0006564202825642925730D0A00D00000207C
:1032F000257300003C25733E2025733A2000000012
:103300000349884201D103487047002070470000FC
:10331000002000403000002070B5012670044FF0FE
:10332000E0210025C1F88001084C4010C4F8480392
:10333000C4F8080366602F20FFF7EEFBA660044C7C
:103340002F20A560FFF7E8FBA57070BD00100140BD
:103350005800002070B5054688690C4600284FF4D7
:10336000847128460AD0FFF787FBD5F81805626AF2
:10337000E1688854606A401C606270BDFFF77CFBA6
:10338000D5F8180570BD1FB501238DF80030CDE9C3
:103390000121D0E90012684690471FBD1FB50123E7
:1033A0008DF800308DF808100192D0E900126846BF
:1033B00090471FBD70B50D4C0020D2B22070201D6B
:1033C0000B4D0378EB5C1BB1001DFFF769FE02E0BB
:1033D0000C30FFF76BFD08B1FDF72CFB607800287F
:1033E00002D021780029FAD070BD000084000020AE
:1033F00014000020204910B54A78012372B11F49FA
:103400001F4C0322091BC90802EB0142A8B1012885
:1034100007D002281DD0032826D121E08B70002080
:1034200010BD104617A1FFF773F8FDF713FD002834
:103430001AD000BFFDF7FEFA16E0104619A1FFF7FB
:1034400067F8FDF707FD0120FDF70CFFFDF7F6FE1D
:103450000AE003EB01401BA1FFF75AF89020E9E7CF
:10346000104624A1FFF754F8FDF786FB08B1FDF7DD
:10347000E1FA012010BD000000000020703F0000B4
:10348000383F00004E52465F5057525F4D474D54F3
:103490005F4556545F505245504152455F53595312
:1034A0004F4646004E52465F5057525F4D474D546F
:1034B0005F4556545F505245504152455F57414B0E
:1034C00045555000456E746572696E6720444655D7
:1034D000206973206E6F7420737570706F727465DD
:1034E000642062792074686973206578616D706CFE
:1034F000652E00004E52465F5057525F4D474D5467
:103500005F4556545F505245504152455F524553B6
:10351000455400002DE9F04125482649264E401A21
:10352000C108032000EB01400446327823A1FEF7D6
:10353000F3FF294F0CE029683078884700282A6873
:10354000204623D025A1FEF7E7FF2348FFF77FFAA7
:10355000BD68002DEFD12046B27828A1FEF7DCFF30
:1035600020462CA1FEF7D4FFFFF76AF8FEF7B8FE5D
:103570000028FBD1307803280DD002280BD02A492F
:1035800001200860BFF34F8F20BFFDE7BDE8F04189
:1035900026A1FEF7C1BFBFF34F8F2D4801682D4A0A
:1035A00001F4E06111430160BFF34F8F00BFFDE7FD
:1035B000683F0000383F00007000002053687574B9
:1035C000646F776E20737461727465642E20547911
:1035D0007065202564000000800300205379734F3C
:1035E00066662068616E646C6572203078253038BC
:1035F00058203D3E20726561647900004D61786914
:103600006D756D204350552075736167653A2025AF
:103610007525250053687574646F776E20636F6D30
:10362000706C6574652E0000000500405379734F7F
:1036300066662068616E646C65722030782530386B
:1036400058203D3E20626C6F636B696E670000001E
:103650000CED00E00400FA052DE9F84F204D9246EC
:10366000894606469846012269461846AF68FDF726
:10367000FDFD58B3009800210446801C09E000BFFE
:1036800000EA07035AF8212005EB8303401C491C7C
:10369000DA604145F4D34FEA164AFDF749FF4AEA9A
:1036A0000041601C384005EB80003C4005EB840283
:1036B000C160D06866F3C50068F3891069F39F2084
:1036C00020F00300401C20F00400D06095F8200496
:1036D00002E000BFFEF704FE0028FBD1BDE8F88F32
:1036E000240500202DE9F84F1D4C00256846D4E93B
:1036F00001A6FDF727FF002738B30023009A616871
:103700001CE0D1F800C00846944503D9ACEB020296
:103710000A6015E0A2EB0C0263440760D0F80CC00D
:10372000C1698146BCF1000F08D006EB030828F000
:103730007F48C0E9018CC9F81C5005460029E0D13A
:1037400028466160FEF73CF803E02846FEF738F8AB
:1037500010B15046FDF748FEE770BDE8F88F000055
:10376000580000200D4B10B5596831B102680C6843
:10377000A24204D8A21A0A60C161586010BD0B466B
:1037800003E00B46C969121B21B10C689442F8D3BF
:10379000A41A0C600260C161D86110BD58000020FD
:1037A0002DE9F041144E77683D462C4603E08442F3
:1037B00004D02546E469002CF9D11BE0D4B1A54220
:1037C0000BD1F869706040B90C4901208860002174
:1037D000B160F0702F20FFF79FF92168E069E86180
:1037E00010B10268114401607068874202D0012064
:1037F000BDE8F0810020FBE75800002000100140E8
:10380000F8B5064600240D462046FDF7C1F9684686
:1038100000F034FA68B10570084946609DF8000070
:1038200048700020FDF7B6F91420FCF7F9FE204699
:10383000F8BD04240020FDF7ADF9F8E7540200209C
:103840002DE9F041194D6C68002C2CD01848002748
:103850000068A968B846401A20F07F462068B04248
:103860000CD82146361A0744E469087C20B181F857
:103870001080886949698847002CEFD129786878D9
:10388000814206D1401CC0B26870022801D185F87F
:103890000180064869780C3040F82170BDE8F0419D
:1038A0001420FCF7BDBEBDE8F081000058000020E8
:1038B0000415014070B50C4605464FF48E71FFF7B4
:1038C000DBF8216AA068415C206A401C2062C5F8D0
:1038D0001C1570BD1FB500228DF800200291816873
:1038E00001914261D0E90012684690471FBD000077
:1038F0001FB50A4601788DF8001041680191017AE0
:103900008DF80810C0680390044850F82210083859
:1039100050F82220684690471FBD0000200000207C
:1039200001490120087070478400002010B588B05C
:10393000044620220E496846FCF734FD062000901C
:10394000C01F0190029003904FF0EB7006900CB1F5
:10395000084A00E0002269460748FEF763F908B10B
:10396000FDF768F80448001F447008B010BD00005F
:103970009C3D000021390000880000202DE9FF4710
:103980000C4605464FF40071FFF77CF801274FF411
:103990000178002618B34FF4927949462846FFF77C
:1039A00066F8E0B149462846FFF766F8C5F808838F
:1039B00094F8290000B96F6002208DF80000D5F856
:1039C0008004C5F880040390A0690290E06801902B
:1039D000A661E661D4E900126846904728E0042118
:1039E0002846FFF74FF818B34FF484712846FFF7C5
:1039F0003EF8E8B121462846FFF7ACFC616AA069B1
:103A0000884215D1E06938B1E268616AA061206935
:103A1000E6616662E06008E094F8290000B96F6032
:103A2000C5F80883A661E268616A2046FFF7ABFC2F
:103A30004FF48E7841462846FFF719F878B1206A8E
:103A40006169884202D294F8280020B34146284692
:103A5000FFF712F8616911B12046FFF73BFF4FF401
:103A6000A27841462846FFF702F8002818D04146C0
:103A70002846FFF701F894F8290000B12F60A069EB
:103A800000280DD0A661E268616A04B02046BDE856
:103A9000F047FFF778BC21462846FFF70BFFDEE72B
:103AA000BDE8FF871FB50A4601788DF80010416810
:103AB0000191017A8DF80810C0680390044850F80D
:103AC0002210083850F82220684690471FBD000099
:103AD000200000202DE9FF410C464FF49277054667
:103AE0003946FEF7D5FF0026C0B139462846FEF715
:103AF000D4FF02208DF80000D5F88004C5F88004BA
:103B00000390D5F83C058DF80800E0680190A661A7
:103B1000E661D4E900126846904723E04FF48877C5
:103B200039462846FEF7B4FFE0B139462846FEF78D
:103B3000B4FFD5F83C15A069884213D1E06960B1A3
:103B4000E268D5F8000220F02000C5F80002E06924
:103B5000A0612069E661E06001E0A661E2682046BC
:103B6000FFF71CFC4FF4A27739462846FEF790FF7A
:103B700060B139462846FEF790FFA06930B1A661D2
:103B8000D5F83C152046E268FFF708FC4FF4907723
:103B900039462846FEF77CFF002813D039462846D0
:103BA000FEF77BFF606900280CD0D5F84C058DF836
:103BB00000608DF80800A06801906661D4E90012E9
:103BC00068469047BDE8FF812DE9F05F8346DDE957
:103BD0000A4A994690460D460846012703E000BF71
:103BE000B0FBF8F07F1C4045FAD2B94500D94F46EA
:103BF0005FEACA7012D18CB15FEA8A7002D5B9F15E
:103C0000000F01D0202607E0302605E03146584657
:103C1000641EFDF76FFB0CB1A742F7D35FF00106FE
:103C2000B9F1010F02D9A9F1010903E0B5FBF6F0E2
:103C3000404502D306FB08F6F2E7DFF83C9000BFF0
:103C4000B5FBF6F000FB165519F800105846FDF7C5
:103C500051FBB6FBF8F6002EF2D15FEACA7009D02C
:103C6000002C07D0A74205D220215846641EFDF73C
:103C700041FBF5E7BDE8F09F563D00000A494A7850
:103C80008B78521CD2B2934200D100220B7893421F
:103C900001D1002070470270487800EB400001EB32
:103CA000C000001D704700005402002010B5042819
:103CB0001DD209B1032400E00024FCF7F5FF202801
:103CC00002D24FF0A04102E00A4900F01F0001EBD0
:103CD0008000D0F8001721F44031C0F80017D0F868
:103CE000001741EA0441C0F80017002010BD06206B
:103CF00010BD0000000300500D0E0F100B0C181922
:103D0000F800002018010020440100200B000300EF
:103D1000C50D00000C000300C50D000018000300D5
:103D2000C50D000019000300C50D00000000005083
:103D300000030050C92D00002530000003000000E2
:103D4000340200200000000000000000000000001D
:103D50000338FDD87047303132333435363738398F
:103D600041424344454600008C3F0000903F000024
:103D70000000000000000000000000000000000043
:103D800060030020683D0000803D0000040000004A
:103D90007D2200005122000049220000FFFFFFFFAA
:103DA000FFFFFFFFFFFFFFFFFFFFFFFF000000001F
:103DB000000000000000D601060100008C04002075
:103DC0007F0000000C050020004040404040404083
:103DD00040404141414141404040404040404040DE
:103DE0004040404040404040400502020202020282
:103DF00002020202020202020220202020202020D1
:103E000020202002020202020202909090909090E4
:103E100010101010101010101010101010101010A2
:103E20001010101002020202020288888888888816
:103E30000808080808080808080808080808080802
:103E4000080808080202020240000000C93D000004
:103E50007761726E696E6700646562756700000065
:103E60001B5B313B33306D001B5B306D000000008D
:103E70001B5B313B33316D001B5B313B33326D00DB
:103E80001B5B313B33336D001B5B313B33346D00C7
:103E90001B5B313B33356D001B5B313B33366D00B3
:103EA0001B5B313B33376D00696E666F00000000AD
:103EB0006572726F72000000636C6F636B000000CC
:103EC000434C4F434B0000004750494F54450000BE
:103ED0005052530055415254000000005541525475
:103EE000450000007077725F6D676D740000000020
:103EF000756172745F6C6F675F6261636B656E643E
:103F00000000000061707000903F00000000002081
:103F1000F8000000C008000088400000F800002001
:103F200050280000D0080000903D00000000000074
:103F3000F03E00009C000020B83E000000000000A1
:103F4000C03E000000000000C83E0000000000006D
:103F5000D03E000000000000D43E00000000000041
:103F6000DC3E000000000000E43E0000000004040D
:103F7000043F000000000404AC000020A400002066
:103F8000AC000020CC03002018000000F533000036
:103F90000000000000000000000000000000000021
:103FA0000000000000000000000000000000000011
:103FB0000000000000000000000000000000000001
:103FC00000000000000000000000000000000000F1
:103FD00000000000000000000000000000000000E1
:103FE00000000000000000000000000000000000D1
:103FF00000000000000000000000000000000000C1
:1040000000000000000000000000000000000000B0
:104010000000000000000000000000000020004040
:104020000000000000200040000000000000000030
:10403000FF00000000000000000000000000000081
:104040000000000000000000000000000000000070
:10405000B03E0000503E0000A83E0000583E000068
:10406000683E0000603E0000703E0000783E0000A8
:10407000803E0000883E0000903E0000983E000018
:08408000A03E00000090D003F7
:0400000500000201F4
:00000001FF
