:020000022000DC
:1060000000000420E1620200096302000B63020049
:106010000D6302000F630200116302000000000024
:1060200000000000000000000000000013630200F8
:1060300015630200000000001763020019630200EC
:10604000198D02001B63020039C2040009370500E4
:106050001B6302001B6302000D9102001B63020020
:106060001B6302001B6302001B6302001B63020030
:106070001B6302001B6302001B6302001B63020020
:106080001B630200E57302001B6302001B63020036
:10609000A97402001B630200FDAC0200DD050500CF
:1060A0001B6302001B6302001B6302001B630200F0
:1060B0001B6302001B6302000000000000000000E0
:1060C0001B6302001B6302001B6302001B630200D0
:1060D000B1B704001B6302001B6302001B630200D4
:1060E000E59802001B630200796E050000000000C5
:1060F000000000001B630200000000001B630200A0
:10610000000000000000000000000000000000008F
:10611000000000000000000000000000000000007F
:10612000000000000000000000000000000000006F
:10613000000000000000000000000000000000005F
:10614000000000000000000000000000000000004F
:10615000000000000000000000000000000000003F
:10616000000000000000000000000000000000002F
:10617000000000000000000000000000000000001F
:10618000000000000000000000000000000000000F
:1061900000000000000000000000000000000000FF
:1061A00000000000000000000000000000000000EF
:1061B00000000000000000000000000000000000DF
:1061C00000000000000000000000000000000000CF
:1061D00000000000000000000000000000000000BF
:1061E00000000000000000000000000000000000AF
:1061F000000000000000000000000000000000009F
:1062000010B5054C237833B9044B13B10448AFF3F0
:1062100000800123237010BD302C002000000000FE
:10622000C83806000C4B43B10C480D4910B5AFF30C
:1062300000800C48036823B910BD0A48036833B9CD
:106240007047094B002BF7D0BDE810401847064BAC
:10625000002BF5D0184700BF00000000C83806002A
:10626000342C00202C2C002000000000154B002BAB
:1062700008BF134B9D46A3F5803A00218B460F467D
:106280001348144A121A31F081FD0F4B002B00D035
:1062900098470E4B002B00D09847002000210400A7
:1062A0000D000D48002802D00C48AFF3008031F0FB
:1062B000E9FC2000290004F03DFA31F0BDFC00BFEC
:1062C00000000800000004200000000000000000A2
:1062D000302C002054FE00200000000000000000D0
:1062E0000649074A074B9B1A03DD043BC858D050A8
:1062F000FBDC02F061F9FFF7B9FF0000803906000E
:10630000E0290020302C0020FEE7FEE7FEE7FEE754
:10631000FEE7FEE7FEE7FEE7FEE7FEE7704700BFA9
:1063200000B583B0044B0093044A402300F036F8D4
:1063300003B05DF804FB00BF41630200502C002055
:1063400002B32DE9F843114B114E8846144643F031
:10635000010903270025224608EB0501002004F06F
:1063600059FA03461D444FF47A40E41A23B93378AE
:1063700033B1C847013F06D001233370002CEAD166
:10638000BDE8F88370473770BDE8F8836097050073
:106390004C2C0020704700BF04F06EBBF0B595B0E8
:1063A000002415460F4608461E4602F001F83846FE
:1063B00023460822089505A91A9D09960D950A9469
:1063C0008DF82C400C9402F04FF89DF8143007988B
:1063D00006998DF8114003F00302012A02900391FF
:1063E00028D0022A04D0384601F0E6FF15B0F0BDEF
:1063F000BDF81650C3F3C2038DF81030C5F38915EC
:106400000826082D2C4628BF0824334622460EA90C
:10641000384602F029F82D1B214608AB02AA0EA827
:10642000264400F099FC002DEBD1384601F0C4FF62
:1064300015B0F0BDBDF81460059DC6F38316C3F317
:10644000C204B2000EA9384608238DF81040C5F3E7
:10645000952502F009F808AB0093324628460EA9AC
:1064600002AB00F0D3FBBEE708B5FFF795FF0421B0
:10647000034800F083FB034B01225A7108BD00BFA3
:106480001C390600E0290020F0B5334D85B005F534
:10649000836001F099FB05F2144001F095FB6B68F5
:1064A000AE6803EA0600C11C05EB810215F8214025
:1064B00014F004040ED0117801F0030101293BD03F
:1064C000022903F1020700F1030126D005EB810246
:1064D000002CF0D105EB80005A1CC16801913240BC
:1064E00005EB820201F00301D2680292012903F157
:1064F000020429D0022925D1BDF80630BDF80A6072
:10650000C3F38913033304EB9304144801F06AFBCB
:1065100000B16C60304605B0F0BD538807EB9313B3
:1065200006EA0300C11C05EB810215F8214004F0C6
:106530000404002CBFD1CDE711880233C1F38311CD
:106540000B44EDE70026E0E7BDF80430BDF80A6033
:10655000C3F383131C44D8E7602D0020743100205E
:106560000B4B0C4810B50022FF21C3F8182499608A
:106570001A605A60C3F8142483F8202401F0CEFE78
:10658000044610B9044801F0A5FF204610BD00BF25
:10659000602D00202C3906008497050021B9114B8D
:1065A00003EBC0000068704730B40F4A0D4C121B5B
:1065B000D2080CD00D4D2B88834210D0002303E06D
:1065C00035F82310814205D001339A42F8D10020DA
:1065D00030BC704704EBC300006830BC70472046F5
:1065E000FAE700BFCC3806001C390600302C00202A
:1065F000094B013903EBC00003290BD8DFE801F098
:1066000002080604022070474079704700797047FD
:106610000420704700207047CC3806002DE9F04771
:10662000944C94E80C009A4284B000F0BB800023A4
:10663000C4F81834BFF34F8F6368A56803EA0501F7
:10664000CA1C04EB820614F8222050071AD52768CA
:10665000327802F00302012A44D0022A03F1020236
:1066600002D1738802EB931305EA0301D4F81804EE
:10667000CA1C04EB820628B99F4239D914F822209B
:106680005207E5D404EB81015A1CC96801912A40E4
:1066900004EB820201F00301D2680292022903F1A5
:1066A000020829D0012900F08180D4F810543DB1AE
:1066B0002B6828469B689847EB681D68002DF7D12A
:1066C0006D486E4B6E49C01AC008000440F00200CD
:1066D00000F0DCF860682368C01A18BF012004B01D
:1066E000BDE8F08732880233C2F383121344BBE75C
:1066F000676004B0BDE8F087BDF806306148C3F3B9
:1067000089194F46502FA8BF502767F38F1307F101
:106710000801ADF8063001F003FE06460028C4D09B
:1067200025EA080A0AF1010A01F042FE4FEA8A0A44
:106730000023082201A9304601F060FE574572D9B6
:10674000BAF1000F7ED13A4608234F49304601F096
:1067500055FE09F1030708EB9707D4F81834002B0E
:106760006CD1D4F810545DB1EB685A7931462846A3
:106770001AB12B681B689847EB681D68002DF3D190
:10678000304601F019FE04A8002300F80D3D01F089
:10679000B5F9D4F8183403B967609DF8030001F027
:1067A000D3F997E7002004B0BDE8F087BDF80430C6
:1067B0003448C3F38312062A28BF0622911C62F3D1
:1067C00089138900ADF8043001F0AAFD06460028BF
:1067D0003FF46BAF01F0ECFD0023082201A9304625
:1067E00001F00CFEBDF8043013F4707F3FD04FF081
:1067F000000A4FF0080905EA080103314B4604EB93
:1068000081010422304601F0F9FDBDF804300AF19F
:10681000010AC3F3831308F10107534509F1040981
:10682000B846E8D899E705EA0801033104EB81018D
:106830003A460823304601F0E1FD8AE7304601F090
:10684000BBFD47E705EA08010331A7EB0A0504EBA6
:10685000810152463046EDB2082301F0CFFD2A46B1
:106860000AF108030849304601F0C8FD71E74746C0
:1068700073E700BF602D0020E4380600CC38060026
:10688000909705002C3906006C2D00202DE9F0436F
:1068900083B002AB002203F8012DDFF8E090074639
:1068A00018468846D9F8085001F028F9D9F8082088
:1068B000D9F80430D9F80060134401339B1B012B35
:1068C00057D809F21C440121204601F061F9FFF775
:1068D000DBFD0146204601F05BF999E80A00D9F892
:1068E0000820134401335B1A012BECD901240A4020
:1068F000033244F004036FF3891302319DF807005B
:1069000049F82230C9F8001001F01EF900211A4898
:1069100001F032F980F3100033192B4009EB8303A7
:1069200000043540033540EA1740D86019F8253097
:1069300067F3C50309F8253039F825306FF389135B
:1069400029F8253059F8252068F39F22134664F36F
:1069500001036FF3820349F8252009F8253099F8DF
:1069600020341BB1FFF75AFE0028FBD103B0BDE86D
:10697000F0833146BAE700BF7C310020602D002053
:106980002DE9F04782B002AB002403F8014D374CEB
:106990008046184692468946A56801F0AFF8A2687D
:1069A0006368276813440133DB1B022B5BD804F2B6
:1069B0001C460121304601F0EBF8FFF765FD01466A
:1069C000304601F0E5F894E80A00A2681344013368
:1069D0005B1A022BEDD901260A40033246F004036C
:1069E00066F3891344F8223003319DF807002160D3
:1069F00001F0AAF8BB1C2B4004EB830300211C48C8
:106A0000C3F80CA001F0B8F880F31000BB192B40BC
:106A100004EB830300043D40033540EA1840D8608E
:106A200014F8253068F3C50304F8253034F8253010
:106A300066F3891324F8253054F8252069F39F2242
:106A4000134666F301036FF3820344F8252004F82C
:106A5000253094F820341BB1FFF7E0FD0028FBD16E
:106A600002B0BDE8F0873946B5E700BF602D0020D1
:106A70007C3100202DE9F04F85B004AD002405F8ED
:106A8000014D3C4C01938046284693468946A668B2
:106A900001F034F8A2686368276813440133DB1BF4
:106AA000032B65D804F21C450121284601F070F83B
:106AB000FFF7EAFC0146284601F06AF894E80A006C
:106AC000A268134401335B1A032BEDD901250A4058
:106AD00003324FF0020A45F004036AF3891344F8C5
:106AE000223004319DF80F00216001F02DF807EBF2
:106AF0000A0EFA1C0EEA060E324004EB820204EB88
:106B00008E0E019B1C48CEF80CB00021D36001F022
:106B100033F880F310007A19324004EB820200044B
:106B20003E40033640EA1840D06014F8262068F34F
:106B3000C50204F8262034F826206AF3891224F8C6
:106B4000262054F8262069F39F22134665F301039B
:106B50006FF3820344F8262004F8263094F820349A
:106B60001BB1FFF75BFD0028FBD105B0BDE8F08F3E
:106B70003946ABE7602D00207C31002030B4174D42
:106B8000D5F8104400215CB1E3681A798A4204D137
:106B900016E0DB681A798A4212D01B68002BF8D104
:106BA000C3681971D5F8103493B1DA68C3681268F4
:106BB0001A60D5F81034DB681860084630BC70479E
:106BC00001310A29DFD14FF0FF31084630BC704750
:106BD000C5F81004C2681360EFE700BF602D002005
:106BE00038B5094BD3F81044012583F820544CB133
:106BF000E3685D71236820465B689847E3681C681A
:106C0000002CF5D138BD00BF602D00202DE9F047E4
:106C100084B01D460C9C002394F80C802373EB88F1
:106C200081460E461746002B3BD1297A05290FD005
:106C30006B7A002B3DD1404BA88853F821A000214E
:106C4000FFF7ACFC524603463C49204601F044F8AD
:106C5000062F0FD8DFE807F0484D535A0463390078
:106C6000F168B06896E80C00019100904946204612
:106C700001F032F82B7A052B05D06B7A5BB93049DD
:106C8000204601F029F8204601F01AF884F80C801B
:106C900004B0BDE8F0872B4A2B49204601F01CF8D0
:106CA000EDE7284A00922949294A204601F014F8C4
:106CB000BBE7A888FFF79CFC264B234953F820200C
:106CC000204601F009F8297AB5E77069316996E83C
:106CD0000C000390B068F76802918DE88100494686
:106CE000204600F0F9FFC5E74946204600F0F4FFD2
:106CF000C0E732684946204600F0EEFFBAE7494651
:106D000096E80C00204600F0E7FFB3E7B16896E88C
:106D10000C0020460091494600F0DEFFAAE7B0686B
:106D2000F768316996E80C0002918DE881004946C8
:106D3000204600F0D1FF9DE7149805000898050053
:106D40005014060000980500E4A20500E89705002D
:106D5000E0970500A8970500082900D970472DE99C
:106D6000F04F1D46904600232A7B2B7385B0B8F860
:106D70000630039207460E46002B6BD198F8081098
:106D8000052911D098F80930002B6BD13C4BB8F88D
:106D9000040053F821400021FFF700FC224603467F
:106DA0003849284600F098FFDFF8F8B0DFF8F8908F
:106DB0000024A642494628463ED93A5D013400F0F7
:106DC0008BFF082CF5D13049DFF8E090DFF8E0B018
:106DD000284600F081FF002411E017F804A030F0ED
:106DE00079FF50445946437813F0970F14BF524629
:106DF0002E222846013400F06FFF082C08D0A6424E
:106E000049462846E9D8013400F066FF082CF6D13F
:106E100098F80830052B02D098F80930A3B91B491F
:106E2000284600F059FF284600F04AFF9DF80C3034
:106E30002B7305B0BDE8F08F01345946284600F0A9
:106E40004BFF082CB5D1BEE7114A1249284600F085
:106E500043FFE4E70E4A00920F49104A284600F02B
:106E60003BFF8BE7B8F80400FFF7C2FB0C4B094966
:106E700053F82020284600F02FFF98F8081085E7E7
:106E80001498050008980500D897050050140600CE
:106E900000980500E4A20500E8970500E0970500CA
:106EA000A8970500D4970500CC9705001098050019
:106EB000DC970500434B1978002900F081802DE90B
:106EC000F04F8C4687B00024012503E00134E4B282
:106ED000644560D23C4B27B21E6816F837E0AEF12D
:106EE000200305FA03F9394BCEF12001D3E9002341
:106EF00025FA01F149EA010905FA0EF808EA02004B
:106F000009EA0301014306EBC70BDFD02F4922EA50
:106F1000080223EA09037046C1E9002302F0E6F8FB
:106F200016F837E0AEF1200205FA02F2019201995B
:106F3000CEF12003C6B225FA03F3AEF120021943C5
:106F400006FA02F30393224B0191D3E90023CDE922
:106F5000042305FA0EF30093CEF12001039B26FAD9
:106F600001F10B43039306FA0EF30293DDE9046784
:106F7000DDE9002316401F4032463B46DDE902674B
:106F8000BB4208BFB24209D00E4B013493F800C097
:106F9000E4B264459ED307B0BDE8F08FDBF804305F
:106FA000002BF1D09BF80110A1F10101B1FA81F1A0
:106FB0004909091AB1FA81F1490970469847E3E78E
:106FC000704700BF1C320020583200205032002091
:106FD000483200202DE9F8430646204800F010FD15
:106FE000D0B91F4F0123A6F1200103FA01F5C6F124
:106FF0002002D7E9000123FA02F2154303FA06F44E
:1070000004EA000205EA0103134307D020EA04045E
:1070100021EA0505C7E90045BDE8F883304602F0DE
:1070200065F8104ED6E9008998B148EA040849EAA3
:107030000509D7E9002314431D43C6E90089C7E9C0
:107040000045094B054819680022BDE8F84300F0E7
:1070500081BC28EA040829EA0509EAE7243200206D
:10706000503200204832002020320020042A01D86B
:10707000072070472DE9F04182B00F4605461646BD
:1070800001F0CCFE002834D01C4C1D4A1D4B1E487C
:107090001E49256017707C1E00221E600023C0E977
:1070A0000023C1E90023E4B2EFB1DFF86C800027D0
:1070B000032601E0FF2C16D023B205EBC30215F81E
:1070C000330093788DF80670424601A98DF804606C
:1070D0008DF8053001F0ACFE013CE4B20028E9D0A7
:1070E00002B0BDE8F0810A4A0A48002100F020FC05
:1070F000F6E701F041FE0028C6D0F1E75832002043
:107100001C32002020320020483200205032002063
:10711000B56E020080980500D56F020070B5084D6D
:107120002B785BB1074E00243368012113F834003B
:1071300001F060FF2B780134A342F5D8002070BD28
:107140001C3200205832002000B585B00023039087
:10715000194601AA44F201000193029300F004F8D9
:1071600005B05DF804FB00BF10B572B6FFF738FD3F
:10717000FFF754FA0028FBD1104B114C1149E41AC7
:10718000E408240444F00100FFF780FB0E4B1B6869
:10719000DB0700D500BE44F002000C49FFF776FB88
:1071A000BFF34F8F0A490B4BCA6802F4E0621343E6
:1071B000CB60BFF34F8F00BFFDE700BFCC380600A8
:1071C000E438060084980500F0ED00E09098050092
:1071D00000ED00E00400FA0510B48468C2680346BC
:1071E0008088121B904203D204205DF8044B704744
:1071F000DA681C6802400020A154DA680132DA60C3
:107200005DF8044B704700BF03468068DA6890421F
:107210000DD010B498689A881C6802400020A25CC7
:107220000A709A6801329A605DF8044B7047052035
:10723000704700BF12F0030301D007207047F0B47D
:10724000094D0A4F2B700A4D3A604C1C2B70094FA8
:10725000094D0A4E3880E400A4B2224429803260ED
:107260001846F0BC704700BF5C320020643200203A
:107270006C320020683200206A3200206032002028
:107280002DE9F0472C4D2B888B4282B003D2092088
:1072900002B0BDE8F087064602A84FF0000800F8EB
:1072A000018D17460C4600F029FC244B244A254842
:1072B000197813780088DBB2834238BF0133C9B232
:1072C00038BF5FFA83F841451FD092F800801378E9
:1072D000DFF87890DBB2984286BF0133DBB200233F
:1072E0005FFA88F89DF80700137000F02DFCD9F8BC
:1072F00000300FFA88F24FEAC20A43F83270534462
:1073000006B144B900209880C2E79DF8070000F05C
:107310001BFC0420BCE70C4B28881B68314608FB8B
:107320000030224630F00DFDD9F800309A4400209C
:10733000AAF80440ACE700BF683200206C3200209D
:107340005C3200206A32002060320020643200206B
:107350002DE9F047174C184D22782B789A4226D009
:10736000DFF85C90DFF85C80144FDFF85CA02378D6
:10737000D9F800203888D8F80060DBB20FFA83FC17
:1073800002EBCC0103FB0060898852F83C3098473F
:107390002378BAF80020DBB29A4203F101038CBFD4
:1073A000DBB20023237022782B789A42DFD1BDE82C
:1073B000F08700BF6C3200205C3200206832002071
:1073C00064320020603200206A320020082910B5A3
:1073D000044602D00020FFF7B7FE23686068BDE8CE
:1073E000104018472DE9F041274A284B0025C2F8E4
:1073F0004051C2F84451C2F84851C2F84C51C2F849
:107400000051C2F804511B6882B023B32049D2F85E
:1074100004450A68DFF88C80A41A1A6824F07F44B7
:10742000A2422F4609D8197CDE69A41A1544A9B9CD
:107430001EB133461A68A242F5D91649164A0B788E
:1074400012789A4219D01549154A41F823504FF441
:107450008013C2F8003102B0BDE8F0819A691F7450
:1074600001925B690093424608216846FFF708FFD6
:107470000028DDD0FFF768FEDAE7531CDBB2022BF1
:1074800008BF00230B70DEE700100140903300209E
:107490008C33002089330020883300208033002083
:1074A00000E100E0CD7302002DE9F04FB74AB84982
:1074B00013780978994285B033D00133DBB2022BBF
:1074C00008BF0023B3481370B34A0768DFF8E082AF
:1074D00052F82320D8F80010BB18002423F07F4373
:1074E000036025462046A646A9B10B68934200F2E8
:1074F0007D81CC68C1F800E0D21A1844CB6934B160
:107500003E1826F07F46CD618C604E600D461946D0
:1075100001240029E9D1002C40F0A5814FF0010B96
:1075200005E0DFF88C820025D8F80010AB469B4BB5
:107530009B4FDFF8809243F0010300930E464FF01B
:10754000000A002D2DD0D5F804E0D5F808C02C464F
:10755000ED69904B93481B68AEEB030222F07F422B
:10756000824255D802EB0C032360002201206260A6
:10757000A260E2612074002E6BD03068834261D932
:10758000B64603E0106898424CD29646DEF81C20BE
:107590001B1A002AF6D12360E261CEF81C40002DB0
:1075A000D1D197F801C097F800E0F44571D0734647
:1075B00003EB43030EF10100BA7807EBC3035FFA54
:1075C00080FE7245187987F800E004BF4FF0000E86
:1075D00087F800E002289A684CD003283DD00128A3
:1075E000E3D1107C0028E0D1D3F80CE0C2F804E02D
:1075F000D3F810C0C2F808C014465A69E26099F87E
:1076000000209B69A361002AA3D060608646A0E7A2
:10761000A3EB0E0323F07F4363450AD2ACEB0303D5
:107620002360A2E7C01A10602360E261CEF81C401C
:10763000B5E70023012223606360A360E361227445
:107640003EB13068C8F80040C31A3360E661264690
:1076500077E7C8F80040264673E7002EA5D0002241
:1076600000E01E46F3693274002BFAD1C8F80030EE
:107670001E4696E74EB1B242344603D1BDE09A426F
:1076800060D01C46E369002BF9D100231374F44544
:107690008DD1BAF1000F02D18E4200F09D80002EF4
:1076A00000F0C5803B4B404A1C68D2F80475DFF8F7
:1076B0000881D6F800A098F800103B1B23F07F4308
:1076C000DD1CA9B93949354B4FF48030C2F8440369
:1076D0000126C2F804034FF40030C1F8800143F0E2
:1076E0000103086016604FF43C60984788F800601A
:1076F000AA452CBF04EB0A0363192B4923F07F43EF
:10770000C1F84035D1F80425D21BDB1B22F07F42A3
:1077100023F07F4303329A420ED9204BD1F804253F
:10772000C1F8402543F001034FF43C6098471F4BDC
:107730004FF40032C3F80021002389F8003005B06F
:10774000BDE8F08FA24239D0D2F81CE01368C4F82B
:107750001CE0BEF1000F11D03046DEF8004023449B
:10776000CEF80030864209D0002397F800E097F861
:1077700001C0137406464FF0010A88E7002397F80A
:1077800000E097F801C0137481E700BF8833002040
:10779000893300208C33002080330020A09805001E
:1077A00070320020FEFF7F000010014000E100E089
:1077B000903300207C3300207D3300201346F06995
:1077C000C8F80000D8B1D3F81CE01B68C4F81CE06E
:1077D000BEF1000FC1D1C5E7BBF1000F7FF45FAF71
:1077E000002389F8003005B0BDE8F08F002C3DD1B2
:1077F0009B1A0B604FF0010B99E63346DFE70193CC
:107800001C4BDFF87CC003924FF0010E0291C3F8CD
:1078100008E0009BCCF8000089F800E04FF43C60E1
:107820009847D8F80000019B0299039ACBE7114DC5
:10783000114A124C4FF480334FF400310127C2F843
:1078400080103C43C5F848334FF43C60C5F808331A
:107850006F60A0470A4BAF604FF43C601E60A047CA
:10786000084B1E7068E7C8F8001057E6C8F800100B
:10787000BEE700BF0010014000E100E0A098050055
:107880008C3300207D3300202DE9F8431F4D204E1E
:10789000204FDFF898804FF480334FF400324FF0E0
:1078A00001090024C6F8802047EA0907C5F84833D3
:1078B0004FF43C60C5F80833C5F80490B847C5F8E4
:1078C00008904FF43C60C8F80040B847124B13488A
:1078D0001349144A1C70144B04600C7014704FF45C
:1078E0008011C0220B2098701C705C70C6F880114B
:1078F00086F814233160C5F8084586F81123D5F8B9
:107900000435C8F800302046BDE8F8830010014077
:1079100000E100E0A09805007D33002090330020B6
:107920008833002089330020703200208C330020FF
:10793000074B9B780BB9082070473AB130B1036808
:10794000187C0028F7D159745A6170470720704796
:10795000703200202DE9F043264CA37883B01BB988
:10796000082003B0BDE8F0830028F9D0042903D82B
:10797000072003B0BDE8F0834369002BF0D0064632
:1079800002A8737C0025012B00F8015D0CBF89461D
:10799000A94690460F4600F0B1F86378A0782178A8
:1079A0005A1CD2B2904208BF2A4691421BD003EB28
:1079B000430304EBC30301200F4918719E60D1F803
:1079C00004159DF80700D9601F61C3F81490C3F82F
:1079D0001880627000F0B8F8084B4FF48012284607
:1079E000C3F80021BDE79DF8070000F0ADF80420C2
:1079F000B7E700BF703200200010014000E100E056
:107A000070B51B4CA37882B013B9082002B070BDCA
:107A10000028FAD04369002BF7D0064602A80025BB
:107A200000F8015D357400F069F86278A07821787B
:107A3000531CDBB2984208BF2B46994212D002EB8E
:107A4000420204EBC20202219DF807009660117108
:107A5000637000F079F8074B4FF480122846C3F8A2
:107A60000021D3E79DF8070000F06EF80420CDE771
:107A70007032002000E100E070B50B4C01460B486D
:107A80002678FFF7C1FB05460EB9284670BD0023D6
:107A9000012207490748237001F08EFE0028F4D028
:107AA000FFF752FB284670BDA4330020943300201A
:107AB000B8330020EC29002010B501460C48FFF730
:107AC0008BFB044608B1204610BD0A4801F066FE53
:107AD0000028F8D108490648FFF796FB0028F2D1A4
:107AE000012205490348BDE8104001F009BE00BF6E
:107AF000A8330020EC290020BC33002070B4EFF341
:107B0000108472B60D4B9A68AAB90D490D4E012525
:107B10009D60D1F8805035401D60C1F88060D1F87B
:107B200084505D604FF0FF33C1F88430027004B9B7
:107B300062B670BC704701230370F8E7DCDC0020FC
:107B400000E100E0FC06FFBD094B9A6872B168B91C
:107B500010B4EFF3108272B606491C680C605C68C2
:107B60004C60986002B962B65DF8044B704700BF84
:107B7000DCDC002000E100E000B550E8002F0B46FF
:107B800040E8003E9EF0000FF7D110465DF804FB80
:107B900000B550E8003F03EB010240E8002E9EF0E4
:107BA000000FF6D110465DF804FB00BF00B550E8A9
:107BB000003FA3EB010240E8002E9EF0000FF6D13B
:107BC00010465DF804FB00BF00B5012350E8002F0C
:107BD00042EA030E40E800E191F0000FF6D1704652
:107BE0005DF804FB00B5002350E800EF0EEA030245
:107BF00040E8002191F0000FF6D170465DF804FBDB
:107C0000B8B130B4416882680468521AD2B2531EC7
:107C10002160DBB242B101680A685C1E551C0D6030
:107C20001370E3B2FF2BF6D103680020187130BC4B
:107C300070470E20704700BFF0B583B002AB00253F
:107C400003F8015D04461846FFF758FF2368616892
:107C50001A688A4210D9511E19602168A3680E68FB
:107C600012F8015C0A79278AE0689B1BDBB29A4212
:107C700007FB050538BF0B719DF80700FFF764FF90
:107C8000284603B0F0BD00BF30B583B002AB002280
:107C900003F8012D054618460C46FFF72FFF2A680A
:107CA0001368591C1160E9682A8A641AB4FBF2F45B
:107CB0001C709DF80700FFF747FF03B030BD00BF01
:107CC000826802B9704710B50446436901680069CB
:107CD00098470023A36010BD0EB400B582B003998D
:107CE00029B102AA04AB42F8043D00F095F802B0B5
:107CF0005DF804EB03B070472DE9F84F1746B94221
:107D0000884606461D46DDF828B00B9A7DD30B4603
:107D10004FF00109B3FBF7F39F4209F10109F9D9CB
:107D2000A94538BFA94612F0010A02D1BBF1000FE4
:107D300049D1B268012402E0013D07FB04F4012DA2
:107D4000FAD8B8FBF4F18F42F7D9324D05E0B4FB15
:107D5000F7F4A4B1B8FBF4F1B268685C531CB360EB
:107D600033689854B26873689A4204FB1188EED362
:107D70003046FFF7A5FFB4FBF7F4002CEAD1BAF1C7
:107D8000000F16D0BBF1000F33D0CB4588BF2024A5
:107D90003ED9B3683268591CB160D454B268736874
:107DA0009A420BF1FF3B06D2BBF1000F09D0D94537
:107DB000EFD1BDE8F88F3046FFF782FFBBF1000F2F
:107DC000F5D1BDE8F88F93071AD42024CB45B0D95C
:107DD000B2683368511CB1609C54B26873689A42AF
:107DE0000BF1FF3B07D2BBF1000FA3D0CB45F0D185
:107DF000A0E7BDE8F88F3046FFF762FFB268F2E710
:107E0000002D0CBF30242024E0E74FF0010987E764
:107E1000BDE8F88FA8980500002900F06F822DE9D1
:107E2000F04F064685B093460C460B780DE0B268DD
:107E30003168501CB0608B54B26873689A4280F00D
:107E4000D3802378002B00F0BA800134002B00F09F
:107E5000B680252BEBD14FF00008234614F8012BF8
:107E60002D2A00F0BB80302A00F0BB802B2A00F0C6
:107E7000AD802A2A00F0BC80A2F13005E9B20929C0
:107E800098BF013302D9A9E1A1F130051C4613F8CE
:107E9000012BA2F1300005EB8501092802EB41011D
:107EA000F2D92E2A00F0B080002701E014F8012F4B
:107EB00002F0FB03682BF9D0253A532A7AD8DFE881
:107EC00012F07A017900790079007900790079005F
:107ED00079007900790079007900790079007900DA
:107EE00079007900790079007900790079007900CA
:107EF00079007900790079007900790079007900BA
:107F000079007900790079007900790079007900A9
:107F10007900790079007900790079007900790099
:107F200079007900790079006A0179007900790097
:107F3000790079007900790079007900790055019C
:107F4000FC007900790079007900FC007900790063
:107F50007900790079007900540079007900CA002D
:107F60007900BA00790079006A01DBF80020131D5E
:107F7000CBF80030B368156831685A1CB2604FF016
:107F80003002CA54B3687268934280F0A0813268AC
:107F9000581C7821B060D154B26873689A4280F05E
:107FA0009281002208230192294600931022304634
:107FB000FFF7A2FE01342378002B7FF446AF337B1A
:107FC000002B40F0058105B0BDE8F08F234614F882
:107FD000012B2D2A48F004087FF445AF48F0010832
:107FE0003BE748F0020838E73046FFF769FE28E72C
:107FF000DBF80020111DCBF8001015685A782E2AE6
:1080000003F101047FF450AF6278A2F13003092B31
:1080100004F101044FF000073FF64AAF07EB870772
:1080200002EB470714F8012FA2F13003092BA7F147
:108030003007F3D93CE7DBF800301A1DCBF80020FD
:108040001968CDF804803B4600950A223046FFF7B8
:1080500053FE0134AFE7DBF800301A1DCBF80020E7
:1080600018F0010FD3F8009040F0BB80B9F1000F79
:1080700000F04781484630F012FB0746BD4240F20F
:10808000F180002D00F0EE804FF0200805E0BD42A9
:1080900000F0E880002D00F0E580B3683268591CDC
:1080A000B16002F80380B26873689A4205F1FF3547
:1080B000EDD33046FFF704FEE9E7DBF800301A1D88
:1080C000CBF80020D3F8009089EAE973A3EBE973B9
:1080D000092B4FF0010A09DD8F4A82FB0312DB17DF
:1080E000C3EBA203092B0AF1010AF5DCBA4538BF3C
:1080F000BA462DB3B9F1000F02DB18F0040F00D01F
:10810000013D18F0020F40F0F58018F0010F17D173
:10811000002D00F0FE80AA4538BF202110D2B268A1
:108120003368501CB0609954B26873689A4205F184
:10813000FF3580F0E880002D00F0EB80AA45EED1FD
:10814000B9F1000FC0F2C88018F0040F7BD108F01D
:108150000303022B00F09A808DE820013B4649463C
:108160000A223046FFF7C8FD013424E7DBF800207F
:10817000131DCBF80030B36831681278581CB0601A
:10818000CA54B26873689A42FFF414AF3046FFF7DE
:1081900097FD01340FE7DBF800301A1DCBF8002003
:1081A0001968CDF804803B46009510223046FFF751
:1081B000A3FD0134FFE6B3683268591CB1604FF08B
:1081C0002501D154B26873689A42DFD20134F2E6D5
:1081D000304605B0BDE8F04FFFF772BD1C460025E4
:1081E0005FE64F46A7EB090817F8013B8BB1B26871
:1081F0003168501CB0608B54B26873689A42F1D3F6
:108200003046FFF75DFDA7EB090817F8013B002B8F
:10821000EDD145457FF6CEAE202705E045453FF43C
:10822000C9AE002D3FF4C6AEB3683268591CB160C8
:10823000D754B26873689A4205F1FF35EED33046E1
:10824000FFF73EFDEAE7B2683368501C2B21B060AF
:108250009954B26873689A42FFF479AF3046FFF7D9
:108260002FFD74E709F1FF3919F8013F002B3FF4A6
:10827000A1AEB2683168501CB0608B54B2687368AC
:108280009A42F1D33046FFF71BFDEDE7002F7FF454
:1082900063AF002D33D0AA45BFF45EAFB268336838
:1082A000511CB1604FF030019954B26873689A4222
:1082B00005F1FF3503D215B3AA45EFD14CE730469F
:1082C000FFF7FEFCF7E73046FFF7FAFC69E63046B9
:1082D000FFF7F6FCB3685AE6B2683368501C2D21EC
:1082E000B0609954B26873689A42C9F10009FFF40A
:1082F0002EAFB3E7002F3FF423AF06E7704700250A
:108300002AE74F46BAE630460391FFF7D9FC0399B6
:1083100011E7002514E700BF67666666FFF770BCCB
:108320002DE9F041B0F81080CF1CA8F104084744B3
:108330000646B7FBF8F7FFF77FFC80B3FFB20025D6
:108340000123013F0446A0F80680066005714371D1
:1083500028D0804609E06379AF4203F101036371DD
:10836000C8F80000066080461CD03046FFF764FC69
:1083700001350028EFD16679721E16D023460130F0
:1083800082421B68FBD81F684EB1214600250C684D
:1083900001353846FFF778FCAE422146F7D1002080
:1083A000BDE8F0812046BDE8F0812768EDE700BF19
:1083B00004300121FFF7ECBBF8B50121044604307D
:1083C000FFF7F4FBC0B200B1F8BD6679721E12D09F
:1083D0002346013082421B68FBD81F68002EF3D071
:1083E000214600240D6801343846FFF74DFCA642B3
:1083F0002946F7D1F8BD2768F2E700BF2DE9F84319
:10840000C78890F805E0154607FB0EFEEC18AEF1A4
:10841000040E1A1DA6458846B2FBF7F638BFAEEB30
:10842000030507FB1621044616B1013E2468FCD162
:108430007E1AAE4228BF2E469DB14FF00009081D9E
:10844000AD1B08EB0901204432462FF07AFCAF4205
:10845000B14424683E464FF0000128BF2E46002D4F
:10846000EDD1BDE8F88300BF2DE9F843C78890F847
:1084700005E0154607FB0EFEEC18AEF1040E1A1DC2
:10848000A6458846B2FBF7F638BFAEEB030507FBFF
:108490001621044616B1013E2468FCD17E1AAE4274
:1084A00028BF2E469DB14FF0000904312144AD1B79
:1084B000324608EB09002FF044FCAF42B144246877
:1084C0003E464FF0000128BF2E46002DEDD1BDE8FD
:1084D000F88300BF8268002393608268136182681A
:1084E00053618268D360826853608268136070470A
:1084F00001600B6843604A68934204BF00234360F5
:10850000704700BF436843B1026891680B44436001
:108510005268934204BF00234360704730B4184D43
:10852000A5F59472AB1ADB1003EBD3735B1002EB6F
:10853000C30152F83330984228BF0C4605D311E0EE
:1085400052F8333098420CD221468B1ADB1003EBE1
:10855000D3735B10914202EBC304F1D8094830BCDD
:1085600070470D46984204D904F10802AA42D9D3B3
:10857000F4E76068034B002808BF1846EFE700BF28
:10858000009A0500C498050070B5161E07DD0C465C
:108590008D1914F8010BFFF78FFAA542F9D1304677
:1085A00070BD00BF10B50C462046FFF765FA0528E0
:1085B000FAD0012010BD00BF10B44FF080414FF041
:1085C00080520020C1F80C015E4BC1F81001C1F8C7
:1085D0003805D2F80414C3F82015D2F80814C3F8EB
:1085E0002415D2F80C14C3F82815D2F81014C3F8C7
:1085F0002C15D2F81414C3F83015D2F81814C3F897
:108600003415D2F81C14C3F84015D2F82014C3F85E
:108610004415D2F82414C3F84815D2F82814C3F826
:108620004C15D2F82C14C3F85015D2F83014C3F8F6
:108630005415D2F83414C3F86015D2F83814C3F8BE
:108640006415D2F83C04C3F86805D2F840043E49EA
:10865000C3F86C050968D2F84424C3F870250829CA
:1086600024D04FF08043D3F80024D20744BF6FF0EA
:108670000102C3F80024354AD2F8883043F470036D
:10868000C2F88830BFF34F8FBFF36F8F4FF01023C6
:10869000D3F80022002A23DBD3F80432002B1FDB9F
:1086A0002B4B2C4A1A605DF8044B70472A4B1B6811
:1086B000002BD6D129482A4A2A4C04602A492B4B40
:1086C000FB20C2F818050A681B68294822F00F022F
:1086D00003F00F0313434FF400720B600260C0E716
:1086E000244B0122C3F80425D3F80024002AFBD030
:1086F0004FF0102312221F49C3F80022D1F8003492
:10870000002BFBD04FF0102212211A4BC2F804129A
:10871000D3F80024002AFBD000221649C3F8042510
:10872000D1F80034002BFBD0BFF34F8F0749124B19
:10873000CA6802F4E0621343CB60BFF34F8F00BFFF
:10874000FDE700BF00C000403001001000ED00E078
:10875000F42900200090D003340100108C56004012
:1087600000F0004048810300E40E00405802001071
:108770004096024000E001400400FA05074B1B5CF4
:108780001F2B8ABF064A4FF0A04203F01F03D2F806
:108790000405D840C04300F001007047F09D05007B
:1087A00000030050074B1B5C1F2B86BF03F01F0309
:1087B00005494FF0A041012202FA03F3C1F80C353C
:1087C000704700BFF09D050000030050074B1B5C85
:1087D0001F2B86BF03F01F0305494FF0A041012264
:1087E00002FA03F3C1F80835704700BFF09D050099
:1087F000000300504FF0A04310B44FF480404FF4FA
:1088000000544FF400414FF48032C3F80845C3F8D8
:108810000805C3F80815C3F808255DF8044B704730
:108820004FF0A04310B44FF480404FF400544FF485
:1088300000414FF48032C3F80C45C3F80C05C3F86F
:108840000C15C3F80C255DF8044B70470A4B195CF6
:108850001F298ABF09484FF0A04001F01F01D0F83E
:10886000043501228A4022EA03011340C0F80815AA
:10887000C0F80C35704700BFF09D050000030050A4
:10888000074B1B5C1F2B8ABF064A4FF0A04203F028
:108890001F03D2F81005D840C04300F00100704714
:1088A000EC9D0500000300500B2809D00C2809D0CE
:1088B000182809D019280CBF03204FF0FF3070474B
:1088C000002070470120704702207047C20770B433
:1088D0000ED483070AD54FF0A0430C22C3F82C27EF
:1088E000C3F83027C3F86027C3F8642770BC70470B
:1088F0004FF0A04303224FF400564FF480454FF44D
:1089000000444FF48031C3F83427C3F83827C3F844
:108910003C27C3F84027C3F80865C3F80855C3F8D7
:108920000845C3F80815D4E742DF704743DF7047B6
:1089300044DF704710B568B101280AD10C4C236997
:10894000A07033B10CCB0120226198472369002B22
:10895000F8D110BD064CA36801226270002BF8D03C
:108960000CCB0020A2609847A368002BF8D110BD63
:10897000C033002068B910B5064CA36801226270AC
:1089800033B10CCB0020A2609847A368002BF8D12C
:1089900010BD7047C033002030B5012883B01CD013
:1089A00015D3032811D100F059F902A800231F4C58
:1089B00000F8013DFFF7A2F8E368013BE360E568DA
:1089C00065B39DF80700FFF7BFF803B030BD184B43
:1089D0000122C3F8802003B030BD02A80023134C4D
:1089E00000F8013DFFF78AF8237853B1E3689DF85A
:1089F000070001330122E360A270FFF7A5F803B07E
:108A000030BD0C486360A3602361E36000F018F997
:108A100002F06EF930B101232370E7E700F04AF964
:108A2000A570CEE700F01AF9F5E700BFC0330020CB
:108A300000E100E03589020038B50C4C237813B111
:108A40008525284638BD0A486360A3602361E3603A
:108A500000F0F6F8054602F04BF918B10123237037
:108A6000284638BD00F0FAF8F8E700BFC033002010
:108A70003589020030B5194DAB7883B0044693B107
:108A800010B143680120984702A8002300F8013D77
:108A9000FFF734F8EB689DF807000133EB60FFF750
:108AA00053F803B030BD02A803F0FF0200F8012D17
:108AB000FFF724F864B12A6942B1944208D0134602
:108AC00001E09C4204D01B68002BFAD122602C618B
:108AD000EB68002BDED100F0D5F8DBE7C0330020D7
:108AE00030B583B002A80023094C00F8013DFFF720
:108AF00005F8E368013BE360E56815B900F0DAF8D2
:108B0000A5709DF80700FFF71FF803B030BD00BF48
:108B1000C033002008B502F0EBF838B94FF08043BD
:108B2000D3F81804000C00F0010008BD012000F08B
:108B3000010008BD30B51C4D6B7883B0044693B17D
:108B400010B143680020984702A8002300F8013DB7
:108B5000FEF7D4FF6B689DF8070001336B60FEF7EA
:108B6000F3FF03B030BD02A803F0FF0200F8012DAF
:108B7000FEF7C4FF64B1AA6842B1944208D013461C
:108B800001E09C4204D01B68002BFAD12260AC604B
:108B90006B68002BDED102F0ABF810B900F096F84C
:108BA000D8E7FFF7C1FED5E7C033002070B582B02B
:108BB00002A80023124C00F8013DFEF79FFF6368F6
:108BC000013B636065682DB19DF80700FEF7BCFFAF
:108BD00002B070BD02F08CF8064640B900F088F88B
:108BE0009DF807006670FEF7AFFF02B070BDFFF79B
:108BF0009DFE9DF807006570FEF7A6FF02B070BDF0
:108C0000C033002000B583B002F072F868B94FF0AD
:108C10008043D3F80C0400F00110A0F10110B0FA69
:108C200080F0400903B05DF804FB01A8FFF780FE67
:108C30000198003018BF012003B05DF804FB00BFAD
:108C4000054A13790BB185207047012110605371DB
:108C500018461171704700BFD4330020084B1A68C2
:108C6000D20706D40122C02183F80013C3F8802163
:108C70001A604FF080430122C3F81825704700BFE7
:108C800000E100E010B4094B094A0021196083B0EB
:108C90001B680193019C4FF0804102200123C1F821
:108CA0000403136003B05DF8044B704704010040F7
:108CB00008000040044B01221A604FF08042D2F8B5
:108CC0001834DB03FBD470470C000040074B002234
:108CD0001A6082B01B68019301994FF08043012212
:108CE000C3F804231A6002B0704700BF00010040BF
:108CF000074B01221A604FF08042D2F80C3403F087
:108D00000113B3F1011FF8D0024B00225A717047D2
:108D100004000040D433002010B5144B1A6882B010
:108D200062B10021124A19601B68507900934FF01C
:108D300080410123009CC1F8083390B10D4B1A68A3
:108D40006AB100221A601B6801934FF08042022131
:108D5000074B0198C2F808131B680120984702B01E
:108D600010BD116853718847E8E700BF000100405B
:108D7000D43300200401004070B5244C94F86A50AC
:108D800082B015B1082002B070BD4FF0FF33294604
:108D9000FF26062204F1640023636363A363E36395
:108DA00023646364A364E36423656365A365E36587
:108DB00023606360A360E36023616361A361E36197
:108DC000236284F860306362A36284F86230E362F5
:108DD00084F8633084F861602EF0D8FF0C4B0D4AA4
:108DE0000D4E15604021C02083F80603C3F88011A2
:108DF00019601368019301994FF00043012228463E
:108E000084F86A20C6F8043302B070BDDC33002059
:108E100000E100E07C61004000600040034B93F8FB
:108E20006A00003018BF0120704700BFDC3300200B
:108E3000F0B56D4C231893F93050002D01DB08205C
:108E4000F0BD91F802E0CEF3400EBEF1000F50D01D
:108E50002568013500F0C2800125082654F8253028
:108E600001334CD06B1C54F82370013748D0AB1C35
:108E7000B3423CD254F82370013741D0EB1CB342CB
:108E800035D254F8237001373AD02B1DB3422ED27D
:108E900054F82370013733D06B1DB34227D254F8F6
:108EA000237001372CD0AB1DB34220D254F823706D
:108EB000013725D0EB1DB34219D254F82370013786
:108EC0001ED005F10803B34211D254F823700137C4
:108ED00016D005F10903B34209D254F823700137C3
:108EE0000ED00A35B54202D2E36A013374D00420B1
:108EF000F0BD256A01353AD009250C26AEE72B4690
:108F000026185DB244F8232086F83050BEF1000FD9
:108F100033D08B785A071CD4DE074ED51F2887BF65
:108F2000324B00F01F0202464FF0A04303EB8203D6
:108F3000D3F8002722F00202C3F800272C4EC20803
:108F400000F0070EB75C012303FA0EF33B43B35462
:108F50008B7813F0020314D1083D2C44097894F85F
:108F6000602042EA811284F860201846F0BD08268D
:108F700083F83060354622623346234483F8580034
:108F8000C7E7AD0005F1804505F5C0450A78D5F87D
:108F9000101521F44F3121F44071C5F8101503026A
:108FA0001204D5F8101502F4403203F47C53134335
:108FB0000B43C5F810350020F0BD1F284A7887BF45
:108FC0000A4E00F01F0303464FF0A04603F5E0737E
:108FD000920046F82320B1E70B2391E70025226099
:108FE00083F8305095E700BFDC33002000030050C9
:108FF00040340020F0B43A4D2E1882B096F930304B
:10900000072B20DD2B4493F858309B09032B45D0C8
:10901000012B14BF4FF440314FF400311F284DD9BC
:1090200000F01F002F4B03EB8000D0F8002722F444
:109030004032C0F80027D0F800370B43C0F80037A3
:1090400002B0F0BC7047DAB2072AF9D8980000F1F4
:10905000804000F5C04003F140029200D0F8104576
:1090600092B202F18042002744F0010402F5C042AE
:10907000C0F810450197019817600029E0D096F9D3
:10908000302055F82220002ADAD00122164902FAAF
:1090900003F3C1F8043302B0F0BC70471F2810D9A5
:1090A000104BD3F8103500F01F00C340DB0748BF5A
:1090B0004FF44031B6D44FF40031B3E74FF0A04342
:1090C000B1E74FF0A0421346D2F81025C24012F08B
:1090D000010F14BF4FF440314FF40031A3E700BF3C
:1090E000DC33002000030050006000401F288ABFCE
:1090F000054B4FF0A04300F01F00D3F8103523FAC2
:1091000000F000F001007047000300502DE9F04727
:1091100088B00023CB4A039302931168012900F021
:10912000A8821E46C84B1A68012A00F09482C74BD9
:109130001A68012A00F08182C54B1A68012A00F0E2
:109140006E82C44B1A68012A00F05B82C24B1A6817
:10915000012A00F04882C14B1A68012A00F03582CA
:10916000BF4B1A68012A00F02282BE4B1A68012AFE
:1091700000F00C8216F0FF0F1AD0BB4F012500241F
:10918000A30003F180432E4203F5C0434FEA450597
:109190000BD0D3F8100557F82420D3F81015C0F3DE
:1091A0000520C1F3014102B190470134082CE7D1F9
:1091B000002E02DB08B0BDE8F0870DF11008002298
:1091C0004FF0FF33A84CA94FC8F80420049206932F
:1091D0000793012694F960305A1C21D05FFA83FE70
:1091E0002EF0C00008AB4FEAD00903EB090C0EF0DB
:1091F00007031CF8082C06FA03F31A4040F03881E4
:1092000094F96110481C00F06A8215460DE0022AAC
:1092100006D1032900F06082002D00F03682A847B5
:1092200094F961104A1C51D00025CBB223F0C00044
:1092300008AA4FEAD00C02EB0C0E03F007011EF84F
:10924000082C06FA01F912EA090F4CD194F96210C0
:10925000481C11D0CBB223F0C00008AA4FEAD00CB2
:1092600002EB0C0E03F007011EF8082C06FA01F9B8
:1092700012EA090F40F0AD8094F963305A1C0FD008
:10928000DBB223F0C00008AA4FEAD00C02EB0C0EB0
:1092900003F007021EF8081C06FA02F211425AD126
:1092A000002D87D04FF0A0430299D3F81035D7F89E
:1092B0001025994203D1039991423FF47BAF049862
:1092C0000599029303920690079183E794F962103F
:1092D0004B1C01D00025BDE794F963305D1C3FF4C1
:1092E00069AF0025CCE72218990992F9302054F88B
:1092F0002220002A00F02381032900F023811F2867
:1093000000F20C8184464FF0A04303EB8C031EF85F
:1093100018CCD3F800E71CEA090FCEF3014E40F059
:10932000F380BEF1030F91D103290FD14FF4003E1A
:10933000D3F800C72CF4403CC3F800C7D3F800C7EB
:1093400001354EEA0C0EEDB2C3F800E7002A3FF4F7
:109350007DAF90477AE704EB0009990999F93090BD
:1093600054F82990B9F1000F00F0FD80032900F0B6
:10937000FD801F288BBFBC464FF0A04C03F01F039D
:1093800003460CEB83031EF818CCD3F800E71CEA65
:10939000020FCEF3014E40F0A680BEF1030F7FF422
:1093A0007FAF032940F0A6804FF40032D3F800E7E6
:1093B0002EF4403EC3F800E7D3F800E7013542EA57
:1093C0000E02EDB2C3F80027B9F1000F40F096800D
:1093D00068E72218990992F9302054F82220002ACF
:1093E00000F0B780032900F0B7801F2800F2A380A7
:1093F00084464FF0A04303EB8C031EF818CCD3F83F
:1094000000E71CEA090FCEF3014E40F08B80BEF15D
:10941000030F7FF431AF03290FD14FF4003ED3F88F
:1094200000C72CF4403CC3F800C7D3F800C701358F
:109430004EEA0C0EEDB2C3F800E7002A3FF41CAF71
:10944000904719E700610040046100400861004056
:109450000C61004010610040146100401861004040
:109460001C6100407C610040DC33002000030050A0
:1094700022184FEA9E1192F9302054F82250002D04
:109480007BD003297CD01F283AD802464FF0A04E4B
:109490000EEB820E1CF8189CDEF8002719EA03096F
:1094A000C2F301427FF4B3AE032A7FF4B9AE0329BD
:1094B0007FF4B2AE4FF40032DEF8003723F44033CD
:1094C000CEF80037DEF800371343CEF80037002D12
:1094D00000F0ED800321A84794F961104B1C00F0C7
:1094E000EB800125A1E6BEF1020F7FF4D9AE03297E
:1094F00000F0EF80B9F1000F3FF4D2AEC847CFE6DD
:109500000EF01F02BE46C3E7BEF1020F7FF49EAE0F
:1095100003297FF41BAF4FF4403E09E703F01F0C13
:109520003B46F2E6BEF1020F7FF4A6AE032984D1DA
:109530004FF4403E73E703F01F0C3B465BE7032903
:109540007FF484AE18F80CA04AEA090A08F80CA0C7
:10955000D5E603297FF490AE18F80CA04AEA090A70
:1095600008F80CA041E703297FF49AAE18F80CA084
:109570004AEA020A08F80CA0FBE6032940F08580BD
:1095800018F809201A4308F809207CE700221A601D
:109590001B6801934FF0A042019BD2F81025564B57
:1095A0000292D3F81035039346F00046E2E5534AA1
:1095B000D2F8042311067FF5D8AD00221A601B688B
:1095C0000093009B46F08006CFE54C4AD2F8042376
:1095D00050067FF5C5AD00221A601B680093009B02
:1095E00046F04006BCE5454AD2F8042394067FF5D0
:1095F000B2AD00221A601B680093009B46F0200663
:10960000A9E53E4AD2F80423D5067FF59FAD002296
:109610001A601B680093009B46F0100696E5374AD7
:10962000D2F8042317077FF58CAD00221A601B685F
:109630000093009B46F0080683E5304AD2F80423E5
:1096400052077FF579AD00221A601B680093009BDA
:1096500046F0040670E5294AD2F8042391077FF505
:1096600066AD00221A601B680093009B46F002065C
:109670005DE52249D1F8046316F001063FF452ADCE
:10968000136013680093009B4CE594F961104B1C28
:109690007FF4CBAD94F96210481C7FF4DBAD94F9F4
:1096A00063305A1C7FF4ECAD08B0BDE8F08794F944
:1096B00061104D1C7FF415AF94F96210481C01D065
:1096C0000125C7E594F96330591C3FF4EBAD012542
:1096D000D6E54FF4403269E64FF44032ECE694F9B7
:1096E00062104B1C01D01546B4E594F963305D1C43
:1096F0003FF460AD1546C3E5000300500060004034
:1097000001F06043B3F1005F01D010207047F0B565
:109710000579214EEF007C1906EB840483B0636960
:1097200013B1112003B0F0BDA1606261D0F800E078
:10973000CEF82031DEF820C1D0F800E0CDF804C02A
:10974000DDF804C0CEF85831DEF858C1D0F800E09A
:10975000CDF800C0DDF800C0CEF84415CEF848259D
:1097600002680121916062680AB11846DAE703686D
:1097700000E079B9D3F82021D3F85811002AF8D0A5
:10978000002914BF0F2000207B1906EB8303002261
:109790005A61C7E70F20F7E7483400200379054AEC
:1097A00003EBC30302EB83035869003018BF0120A9
:1097B000704700BF4834002001F06043B3F1005F00
:1097C00001D010207047F0B50479454EE3001D1913
:1097D00006EB850583B06D6825B107684FF4047EFC
:1097E000C7F808E3234406EB83039C696CB3DC6988
:1097F000002C44D11961DA610368C3F81041D3F831
:10980000105103680195019DC3F84441D3F84441C8
:1098100003680094009CC3F83415C3F83825026827
:10982000D2F8003243F02003C2F800320479E50098
:109830002B1906EB83035B684BB303684FF4047288
:10984000C3F80423002003B0F0BD9A61DC61D96045
:109850000368C3F81041D3F8105103680195019DC6
:10986000C3F84441D3F8444103680094009CC3F812
:109870003415C3F83825036801221A60D6E705B30A
:1098800003684FF40472C3F804231120DBE7036874
:1098900001E0C1B9E8B9D3F81021D3F84411D3F8E5
:1098A0002401002AF5D02C4400284FF0000306EBD9
:1098B000840614BF032018469942B36118BF0F20D5
:1098C000C1E71120BFE72C4406EB84060F20B261EC
:1098D000B9E72C4406EB84060320B161B3E700BF6F
:1098E0004834002070B54A4BD3F8242188B0002AB0
:1098F00055D1D3F81011F1B9454BD3F8442152B1E9
:109900000020444AC3F84401D3F8444191690194CA
:10991000019C002960D13E4BD3F820214AB100219F
:109920003C4AC3F82011D3F8204150690094009CB0
:1099300030BB08B070BDC3F81021D3F81011354802
:10994000039103998169D3F83C458C42D4D1C56910
:10995000002D50D0D3F80012C668856121F0200197
:10996000C3F800120369C26101220168C3608DF867
:109970001840436805968DF8102004A89847BBE767
:10998000D3F84C0593688DF818008DF810105161CC
:10999000059304A892E80A00984708B070BD00211A
:1099A000C3F82411D3F82421029202228DF810204A
:1099B000029AD3F88004174AC3F880040790D3F8BA
:1099C0003C05D3688DF818009161D1610593116849
:1099D000536804A898478FE7D3F83C458DF81840A2
:1099E000D368906101240593116853688DF8104085
:1099F00004A898478FE7C368016885610122059331
:109A00008DF8184043688DF8102004A8984773E734
:109A100000800240483400200220FEF717BF00BF3C
:109A20002DE9F0470D460646FEF73EFF03281ED8F7
:109A3000012D04461FD00ED3022D1AD11C4B00EB72
:109A400040041C44657895B11A4B1B687BB12846CD
:109A5000BDE8F04718471848FDF7D2FF144B174AE6
:109A600004EB44010B44125D9D78AA42EBD0BDE8A3
:109A7000F087BDE8F0870E4F4FEA400808EB00037F
:109A8000FA18FD5C53782BB9A04447440B4BBA78C5
:109A90001A55D8E7DFF8289007484A464FF40041A6
:109AA000FDF758FF0028EFD189F80060ECE700BF10
:109AB000D0340020E434002090340020EC34002026
:109AC0006C34002010B50078FEF7EEFE03280BD8AA
:109AD000064B00EB40001844407828B1044B1B684B
:109AE00013B1BDE81040184710BD00BFD0340020AE
:109AF000E4340020B44B1B68DB0700D4704770B51A
:109B0000B24EB34D33782C78FBB9172C1CD8DFE854
:109B100014F0F1001701170163007600830096002E
:109B20005D0039002C0039002C00A300A800A8001B
:109B3000A800A800A800CE00DE000401460018001E
:109B40001800FEF76DFE2C7070BDA24B1B78002034
:109B50003070002B00F00881FEF738FE0120FEF780
:109B600035FE0320FEF732FECFE70123184633709F
:109B7000FEF76CFE00224FF480419748BDE870402C
:109B8000FDF7E8BE012318463370FEF75FFE0022A2
:109B900040F6CD419048BDE87040FDF7DBBE8D4BEF
:109BA0001B78002B00F001810020FEF70FFE012042
:109BB000FEF70CFE0320FEF709FE0020FEF7F2FD83
:109BC0000120FEF7EFFD15232B7070BD0020FEF77E
:109BD000E9FD07232B7070BD0020FEF7CFFD0028A4
:109BE00000F0D6800020FEF7F1FD46F26661032307
:109BF0002B7000227848BDE87040FDF7ABBE002016
:109C0000FEF7BCFD002800F0C8800020FEF7DEFD56
:109C10004FF400310423EBE70020FEF7AFFD0028EE
:109C200000F0C0800020FEF7D1FD05232B7000223C
:109C300041F69A116848BDE87040FDF78BBE0020E0
:109C4000FEF704FE06232B70002240F6CD41624849
:109C5000BDE87040FDF77EBEFEF7E2FD0C232B70E1
:109C600070BD5E48FDF7CCFED4F1110405467ED0F0
:109C700000287CD1012C13D0C82303FB04F44FF43B
:109C8000FA704FF400430021C3FB04014FF47A72D1
:109C900000232FF0CFFB2A4601465048FDF75AFE1D
:109CA0000220FEF77FFD4B4B01221A7070BD494B1D
:109CB0001B78002B7CD00020FEF788FD0120FEF7EA
:109CC00085FD0320FEF782FD12232B7070BD414BF2
:109CD0001B78002B72D00020FEF778FD0120FEF7E4
:109CE00075FD0320FEF772FD0020FEF75BFD1323D8
:109CF0002B7070BD374B1B78002B5CD00020FEF71B
:109D000065FD0120FEF762FD0320FEF75FFD32488E
:109D1000FDF776FE00232B7070BD2E4B1B78002BB9
:109D20004FD00020FEF752FD0120FEF74FFD03202B
:109D3000FEF74CFD0120FEF735FD14232B7070BD9E
:109D40000020FEF71BFDC8B10020FEF73FFD022CEE
:109D50004EF2666118BF4FF400312C7000221E488D
:109D6000BDE87040FDF7F6BDFEF744FDCDE60220EC
:109D7000FEF72CFD174B00221A7070BDFEF712FD86
:109D800043F2333141F69A13022C08BF1946E4E737
:109D9000FEF708FD41F69A1129E7FEF703FD43F2AD
:109DA000333137E7FEF7FEFC3FE7FEF723FD04E71C
:109DB000FEF720FD88E7FEF71DFDA8E7FEF71AFD78
:109DC00092E7FEF717FDB5E7DC340020E034002011
:109DD000E83400206D340020B034002070340020BE
:109DE000032801D900207047FEF74ABD38B5C54B9E
:109DF0001C6814F0010401D1204638BDC24C237800
:109E00000546E3B9172D00F28981DFE815F00B0153
:109E10003501350169007D009100A5005B0035002A
:109E2000280035002800B300BA00BA00BA00BA0012
:109E3000BA00E300F6002001420063006300B34B68
:109E40001B7800202070002B00F02B81FEF7BEFC59
:109E50000120FEF7BBFC0320FEF7B8FCD2E701238C
:109E600018462370FEF7F2FC00224FF48041A84808
:109E7000BDE83840FDF76EBD012318462370FEF79C
:109E8000E5FC002240F6CD41A148BDE83840FDF791
:109E900061BD9E4B1B78002B00F024810020FEF753
:109EA00095FC0120FEF792FC0320FEF78FFC0020BA
:109EB000FEF778FC0120FEF775FC964B15221A7010
:109EC000002499E70020FEF76DFC924B07221A70E0
:109ED000002491E7FEF7A4FC8E4B00241D708BE755
:109EE0000020FEF74BFC002800F0E5800020FEF784
:109EF0006DFC46F26661874B854803241C70002286
:109F0000BDE83840FDF726BD0020FEF737FC0028ED
:109F100000F0E0800020FEF759FC4FF400317D4B4B
:109F20007B4804241C700022BDE83840FDF712BDB8
:109F30000020FEF723FC002800F0D1800020FEF76F
:109F400045FC744B724805241C70002241F69A119E
:109F5000BDE83840FDF7FEBC0020FEF777FC6D4BF6
:109F60006B4806241C70002240F6CD41BDE8384005
:109F7000FDF7F0BCFEF754FC664B0C221A7000246F
:109F80003AE76548FDF73CFD0446D5F1110000F0C5
:109F90008B80002C40F08880012814D0C82505FB58
:109FA00000F54FF400434FF4FA700021C3FB0501A4
:109FB0004FF47A7200232FF03DFA224601465648AC
:109FC000FDF7C8FC04460220FEF7ECFB4F4B0122D4
:109FD0001A7011E74D4B1B78002B00F08680002093
:109FE000FEF7F4FB0120FEF7F1FB0320FEF7EEFB8A
:109FF000484B12221A700024FEE6444B1B78002BBB
:10A0000079D00020FEF7E2FB0120FEF7DFFB032002
:10A01000FEF7DCFB0020FEF7C5FB3E4B13221A7057
:10A020000024E9E6394B1B78002B61D00020FEF7B5
:10A03000CDFB0120FEF7CAFB0320FEF7C7FB344827
:10A04000FDF7DEFC334B002204461A70D4E62F4B9A
:10A050001B78002B52D00020FEF7B8FB0120FEF742
:10A06000B5FB0320FEF7B2FB0120FEF79BFB294B5B
:10A0700014221A700024BFE60020FEF77FFBF8B11F
:10A080000020FEF7A3FB022D4EF2666118BF4FF4CD
:10A090000031204B1E481D700022BDE83840FDF7FE
:10A0A00059BCFEF7A7FBADE60220FEF78FFB174B6E
:10A0B00000221A70A0E6FEF775FB41F69A111AE726
:10A0C000FEF770FB43F2333141F69A13022D08BFBD
:10A0D0001946DEE7FEF766FB43F233311FE7FEF772
:10A0E00061FB2EE7FEF786FBE1E6FEF783FB7FE7E9
:10A0F000FEF780FBA3E7FEF77DFB8BE7FEF77AFB1D
:10A10000B2E700BFDC340020E03400206D340020D2
:10A11000B0340020E83400207034002000246BE6C6
:10A12000F8B5254B254A196081070446106014D5FF
:10A13000234B24480E2111250F27102619705D721C
:10A1400040F266620421DF709E71FCF78FFF0546C6
:10A15000C0B1E3072AD42846F8BD10F00105FAD0B3
:10A160000120FEF7B3FB184A18480021FDF7E0FB79
:10A1700005460028EFD1164A16480121BDE8F840EF
:10A18000FDF7D6BBFCF7CAFF05460028E1D1014622
:10A19000114A1248FDF7CCFBE2070546DBD501204A
:10A1A000FEF794FB002DDED02846F8BD0120FEF717
:10A1B0008DFB2846F8BD00BFE4340020DC340020CD
:10A1C000D0340020149E0500F59A02003C9E050044
:10A1D000199A0200349E0500C59A0200389E0500B7
:10A1E000032801D907207047012A12D0012917D06E
:10A1F00008D30229F6D10D4B00EB400003440020A8
:10A200005A707047094B00EB4000034400209A70DD
:10A210007047012901D00022E8E700F10E02D2B216
:10A2200000EB400301490020CA547047D03400209D
:10A2300010B50388102B08D0112B05D1264B1868B8
:10A240000138186038B110BD10BD234C216881B1B0
:10A250000131216010BD01220221FFF7C1FF48B387
:10A26000072827D01D4B1B68002BECD0BDE8104001
:10A27000184701220846FFF7B3FF48B1072807D067
:10A28000164B1B6803B1984721680131216010BD4E
:10A29000072202210120FFF7A3FF08B10728EFD111
:10A2A000042202210020FFF79BFF0028ECD00728A2
:10A2B000E6D1E9E7072202210120FFF791FF08B16B
:10A2C0000728CFD1002108460A22FFF789FF00287E
:10A2D000B9D00728C6D110BDF4340020F0340020D6
:10A2E000194B10B5186031B101200C46FFF778FD0D
:10A2F00030B102232370154B186848B1002010BDFF
:10A30000FFF76EFDE8B9114B207018680028F5D1F1
:10A3100001220221FFF764FF08B10728EFD10722CD
:10A3200002210120FFF75CFF08B10728E7D10021D7
:10A3300008460A22FFF754FF0028DFD00728DED1A5
:10A34000DCE70B232370D6E7F0340020F434002040
:10A3500075DF704776DF70478ADF70478BDF7047A5
:10A360008CDF70478FDF704725F09ABE70B50546C9
:10A37000084605F0D5F8074C074B0849E41AE408ED
:10A38000240403462A4644F00300BDE87040FCF76D
:10A3900071BB00BFE4380600CC380600889F05007A
:10A3A0002DE9F04F0388103B85B00646112B34D8B9
:10A3B000DFE803F00944333333333333333333B912
:10A3C000338033AE3336924DDFF87882AF1F0024EE
:10A3D0000DF1080915F8012909EB040041462EF09A
:10A3E00005F9AF42044464B2F4D18A488A4B8B49E0
:10A3F000C01AC00800044A4640F00300FCF7C0FA47
:10A40000FCF70CF90028FBD10720FFF7EFFC08B19F
:10A41000FCF79AFE824BB2881A8005B0BDE8F08F37
:10A42000002380888DF8083002A98DF80930FFF7E5
:10A4300099FF002867D105B0BDE8F08F764B754CC9
:10A440007849E41AE408240444F003042046FCF7A5
:10A450001DFA0020FFF7CAFC002840F0BF80724BB5
:10A460006F491A784FF6FF700880002AD5D0002572
:10A47000294671226D481D702DF088FC294608225E
:10A480006B482DF083FCFFF769FF30F0080340F0C4
:10A49000BB8068496848FFF75FFF002840F0B18043
:10A4A00020466649FCF7F2F90120FFF79FFC0028DF
:10A4B000B3D028E05D4F0422002101A82DF066FCF6
:10A4C00097F8703041F602010122ADF804108DF8C2
:10A4D000062006F10A08002B38D03C46002503E090
:10A4E00097F870309D4231D22146072240462DF028
:10A4F00019FC013507340028F2D14E490020FFF73E
:10A500002BFF002889D0FCF71FFE05B0BDE8F08FB7
:10A5100000F108018088FFF71BFF30F00803F2D13B
:10A5200005B0BDE8F08F037A022B5FD0012B7FF4DA
:10A5300074AF3F48C279002A3FF46FAF404A3E49AA
:10A54000FFF70EFF00283FF468AFDCE73D4D06F152
:10A55000110B06F10B0A00240DF108091BF8012D5F
:10A5600009EB040029462EF041F8DA45044464B2B0
:10A57000F4D1294B274C3449E41AE408240444F06C
:10A5800003042046FCF782F94A4620462F49FCF78F
:10A59000F7F997F87000C0EBC00007224146384435
:10A5A0002DF0CFFB97F87030013387F8703001AA97
:10A5B000B18C306A00F092FA98B11D4D41462846A0
:10A5C00007222DF0BEFB012320462149EB71FCF749
:10A5D0005DF9FCF723F80028FBD18EE7FCF7B4FD0A
:10A5E0003DE720461B49FCF751F9F2E70A4B0948C1
:10A5F0001949C01AC008000440F00300FCF746F9EE
:10A600000BE7FCF7A1FD4BE7FCF79EFD41E700BF20
:10A61000A2370020E4380600CC380600449E05002E
:10A62000F8290020589E050099370020283700207F
:10A630009C370020FC290020489F0500689E0500EB
:10A64000409F0500409E05007C9E0500A09E0500E1
:10A65000C09E0500E49E0500089F0500042810B573
:10A660001CD00E2822D1294C22884FF6FF739A4223
:10A670001DD0274B27482849C01AC008000440F0C5
:10A680000300FCF703F920881321FFF763FE30F085
:10A69000080337D1214B01221A7010BD1B4B132127
:10A6A0001888FFF757FE30F0080327D110BD71223C
:10A6B00000211B482DF06AFB0822002119482DF0CB
:10A6C00065FBFFF74BFE30F0080301D0FCF73CFDC3
:10A6D00015491648FFF740FE08B1FCF735FD0C4B55
:10A6E0000C481349C01AC008000440F00300FCF7EE
:10A6F000CDF80120FFF77AFB0028D7D0BDE8104045
:10A70000FCF722BDFCF720FDC4E700BFF8290020BC
:10A71000CC380600E4380600289F05009937002051
:10A72000283700209C370020FC290020489F050086
:10A73000689E050000B54FF4004185B00020FBF78E
:10A740000FFF08B1FCF700FDFBF78EFE2B4A20211E
:10A750000820FCF76FFD08B1FCF7F6FCFDF794F854
:10A7600008B1FCF7F1FC26490320FFF7D9FC08B13A
:10A77000FCF7EAFC01A90020FFF7B2FD08B1FCF7E5
:10A78000E3FC00F02DFA08B1FCF7DEFC002301A980
:10A790000120019300F0F8FA08B1FCF7D5FC01A8FC
:10A7A00000F0D0FB08B1FCF7CFFC012340F6C41148
:10A7B0000A2201A800240291019403928DF804302A
:10A7C0008DF8063000F036FC00F0D8FC0D4800F0A3
:10A7D000FBFC0D480D4B0E49C01AC008000440F0A8
:10A7E0000300FCF753F800F0D5FCFCF7B1FDFBF7D4
:10A7F00015FF0028F7D100F0D9FCF4E7F834002069
:10A800005DA602006DA30200E4380600CC38060005
:10A81000589F05002DE9F84F4400DFF87CA1261869
:10A820000AEBC6068146D6F82C80B8F1010F8B469C
:10A83000174661D038D3B8F1020F30D100F10109C9
:10A8400009EB4909756A4FEAC9094FF000081CE095
:10A85000326A641BBC420AEB09012346A2EB0504E1
:10A8600028BF3B469C42486828BF1C46284459469E
:10A8700022462DF066FA336A25449D4208BF002522
:10A880003F1BA044A34475620BD0B36AAB4203F1F3
:10A89000FF34DDD8326A1344013B5C1BDAE74FF02A
:10A8A00000084046BDE8F88FB36A756AAB429CBFAA
:10A8B000326A9B18013B5B1B9F42F2D804440AEBAF
:10A8C000C40400F10109266A761B09EB4909B74265
:10A8D0000AEBC90A56D3DAF8040032462844BD1BF5
:10A8E0002DF02FFADAF804000BEB06012A462DF0C2
:10A8F00028FAB8466562D4E7B36A756AAB4226D9CE
:10A9000003F1FF38366AA8EB0508B84528BFB846FA
:10A91000761BB04523D309F1010707EB47070AEB84
:10A92000C707A14478683246594628440AEBC90A49
:10A93000A8EB06052DF005FA78680BEB06012A4610
:10A940002DF0FFF9CAF824504046BDE8F88F366A6A
:10A9500003EB060808F1FF38A8EB0508D5E709F175
:10A96000010303EB43030AEBC303A14458680AEB5A
:10A97000C90A28445946424645442DF0E2F9CAF82E
:10A9800024508EE7DAF804003A4628443D442DF07E
:10A99000D8F9B846656284E7E8DC00202DE9F04389
:10A9A0002F4C94F800E083B00546884616461F46B3
:10A9B000BEF1000F2AD02369AB424DD902A84FF057
:10A9C000000900F8019DFDF799F86DB92A46154474
:10A9D00004EBC5040A9B9DF80700E362FDF7B4F899
:10A9E000002003B0BDE8F0836B1C03EB4303DB00E6
:10A9F0006A00511904EBC10144F8038023440F623B
:10AA00005E60C1F82890C1F82490E0E70222154B5F
:10AA10001548226162614FF40071144AA361A36476
:10AA20001023C4F828E02365C4F824E0C4F82CE01F
:10AA3000C4F858E0C4F854E0C4F85CE0E061216276
:10AA4000E2640B49E01D2DF00DFE0A4920462DF071
:10AA500009FE2023A371AEE74FF0FF30C1E700BF2E
:10AA6000E8DC0020B89F0500B4370020A4370020A0
:10AA7000C49F0500C89F0500F8B5114C114B124A40
:10AA8000E3614FF400750023104FA3621026636248
:10AA9000E362A3656365E3650D492562A261022552
:10AAA000A264E01DE7642665256165612DF0DAFD8D
:10AAB000204608492DF0D6FD2023A371F8BD00BF24
:10AAC000E8DC0020B4370020B89F0500A437002040
:10AAD000C49F0500C89F050064DF7047F0B587B0CC
:10AAE00005460E461046102302AA0DF103018DF80B
:10AAF0000330FFF7F1FF65B158B99DF80320042A30
:10AB00000AD0102A47D0022A04D18DF8052003204C
:10AB100005E0002007B0F0BD8DF80520052095F870
:10AB200001E0002786453ED076B3002301E09E4237
:10AB30002AD9E95C01310B449BB2E9189C4649785B
:10AB40008142F4D1B3421FD20137FFB20233022F48
:10AB50009CB225D1002CDCD015F80C70013FBFB29F
:10AB6000002FD6D0002605E09DF803201644B6B28B
:10AB7000BE42CED23019284402A92DF0D3F80028C5
:10AB8000F2D1012007B0F0BD0137FFB2022FC0D0D3
:10AB90009DF80500C6E706238DF805300720BEE7BF
:10ABA000002CF5D0D8E74FF0000C6346CAE700BF91
:10ABB00010DF704700B583B068460849FDF798FC80
:10ABC000019B43B158681A6890476846FDF79AFCA4
:10ABD000019B002BF6D103B05DF804FBF09F05004C
:10ABE00070B53A4D2B7884B01BB10824204604B0D0
:10ABF00070BD374E3749012302A83370FDF778FC4A
:10AC0000039B2BB90CE002A8FDF77CFC039B3BB136
:10AC10001A685968002090470028F4D10446E5E7F7
:10AC20002D4902A8FDF764FC039B4BB11A685968D3
:10AC30000020904702A8FDF765FC039B002BF5D18F
:10AC4000264A002312688DF8083002A80192FCF70A
:10AC500055FF234901A8FFF7ABFFB0FA80F3044684
:10AC60005B099DF808002B70FCF76EFF002CBDD12E
:10AC70001C4B1D491C70347091F81623EC235209AB
:10AC80001341DB0717D5194B9A68CAB94FF48003F3
:10AC90000B60114902A8FDF72BFC039B002BA5D0EC
:10ACA0001A6859680120904702A8FDF72BFC039B06
:10ACB000002BF5D19AE742F20200FCF745FAE8E7EB
:10ACC0001A6842F480021A60E3E700BFB539002039
:10ACD000B4390020E49F0500FC9F0500E09F0500BB
:10ACE00069710200B639002000E100E0DCDC0020E0
:10ACF000014B1878704700BFB5390020002108B516
:10AD00000846044AFCF7BCFA00B908BDBDE8084093
:10AD1000FCF71ABAB5AB020060DF704769DF704715
:10AD200061DF704730B5134DADF5017D4FF4FA7416
:10AD30000DF1020103A8ADF80240FFF7F1FF88B959
:10AD4000294601A8FDF7D4FB029B002BF0D01A681E
:10AD5000596803A8904701A8FDF7D4FB029B002B7C
:10AD6000F5D1E5E7052801D0FCF7EEF90DF5017DF9
:10AD700030BD00BF90A20500024B1B780BB1FFF75E
:10AD8000D1BF7047B7390020002900F08F8070B51F
:10AD9000634B0B6084B00C4605460C22002101A8D1
:10ADA0002CF0F4FF0126062301A922688DF8045037
:10ADB00020208DF80660ADF80830FFF7AFFF0028BF
:10ADC00040F084800C22002101A82CF0DFFF00213C
:10ADD00001238DF8051022688DF8063001A9402066
:10ADE0008DF80730FFF79AFF002841D10C2200218F
:10ADF00001A82CF0CBFFF72322688DF8045001A99D
:10AE00002320ADF80630FFF789FF00287AD10C2205
:10AE1000002101A82CF0BAFF0123184622688DF802
:10AE2000043001A9FFF77AFF00285DD10C22002130
:10AE300001A82CF0ABFF4FF4B0632268019301A985
:10AE4000A120FFF76BFF002832D10C22002101A8BE
:10AE50002CF09CFF9DF8043022686FF3000301A9D9
:10AE6000A0208DF80430FFF759FF78B904B070BD09
:10AE7000FDF754FB2B4A2C4B2C499B1ADB081B0477
:10AE8000024643F00100FBF77BFDAFE7FDF746FB11
:10AE9000244A254B26499B1ADB081B04024643F033
:10AEA0000100FBF76DFD002004B070BD0E2070475F
:10AEB000FDF734FB1B4A1C4B1E499B1ADB081B0485
:10AEC000024643F00100FBF75BFDBEE7FDF726FB02
:10AED000144A154B18499B1ADB081B04024643EA27
:10AEE0000600FBF74DFD6DE7FDF718FB0D4A0E4B15
:10AEF00012499B1ADB081B04024643F00100FBF7D2
:10AF00003FFD93E7FDF70AFB064A074B0C499B1AE6
:10AF1000DB081B04024643F00100FBF731FD76E736
:10AF2000E0290020CC3806000439060058A00500AE
:10AF30008CA1050038A1050010A00500ECA00500BB
:10AF4000A4A00500F8B504460768FFF7E5FE2368EE
:10AF50009F42064605D326BB1A4B01221A70304683
:10AF6000F8BD194B194D1A49ED1AED082D0445F09D
:10AF700002052846FBF78AFC3A462846236815490D
:10AF8000FBF778FD4FF080532268D3F80C3112495B
:10AF90009B0203F1005328469A1AFBF7F1FC002E9E
:10AFA000DAD03046FDF7BAFA074A084B0B499B1A2C
:10AFB000DB081B04024643F00100FBF7E1FC3046CE
:10AFC000F8BD00BFB7390020CC38060004390600B0
:10AFD000E0A1050010A2050044A2050070A2050032
:10AFE0004BDF704710B5114C84B001A8FFF7F8FF94
:10AFF000A8B9214602A8FDF77BFA039B002BF4D0E9
:10B000001A6859680198904702A8FDF77BFA039BDC
:10B01000002BF5D101A8FFF7E3FF0028E9D00528B0
:10B0200001D0FCF791F804B010BD00BFA8A2050044
:10B0300041DF704770B5002182B00646084621F016
:10B0400011F8434C434D03F01EFF434B2860E41AB4
:10B05000E40803F025FF240444F0030402463F49BA
:10B060002046FBF78DFC286804F022FA3C49024692
:10B070002046FBF785FC286803F0D5FE10B9B378AD
:10B08000002B4FD10122002101A82CF07FFE337844
:10B09000012B9DF804304FD043F00F038DF804309E
:10B0A0009DF80410286804F0CBF9B168002935D167
:10B0B00073780BB102B070BD0121286803F0F4FE73
:10B0C000286803F0B0FE10B9B378002BF2D001214C
:10B0D000286804F082FA23492046FBF7D7FB28684A
:10B0E00003F063FF204902462046FBF749FC28682D
:10B0F00003F096FF1D4902462046FBF741FC2868F5
:10B1000004F076F91A4B1B4A1B4910F0010F18BFC7
:10B110001A462046FBF734FC02B070BD286804F0E4
:10B1200031F9C5E70B21286803F043FF4AF6CD311A
:10B13000286803F079FFA5E743F002036FF30003EB
:10B14000716828688DF8043003F08BFFA8E700BF12
:10B15000E4380600B8390020CC380600C0A205004B
:10B16000D4A20500E8A205000CA3050024A3050055
:10B1700040A3050048A3050054A3050010B5044CE6
:10B18000206800F071F82068BDE8104003F0C0BAF4
:10B19000B839002010B5044C206804F0D8F82068B5
:10B1A000BDE8104020F080BFB839002008B5054B3D
:10B1B000186804F0D8F800B108BDBDE80840FFF7F2
:10B1C00037BF00BFB8390020024B1A68014610464D
:10B1D00003F061BEB83900200EB410B5A3B025ABA2
:10B1E000044653F8042B0193802102A82DF040FB64
:10B1F00002A82DF054FA236882B21B68204602A9E7
:10B20000984723B0BDE8104003B07047B0F8063649
:10B21000B0F80826C3F580618A42CCBFA0F80A16B0
:10B22000A0F80A26B0F80A1621B1184400F2062048
:10B2300020F0E0BF7047000010B50A4B03600446E1
:10B2400000F20C6000F018FB0023A4F80432A4F80C
:10B250000636A4F80836A4F80A3620F037FF204650
:10B2600010BD00BF78A3050010B5044C0146204670
:10B27000FFF7E2FF024B1C6010BD00BFC039002089
:10B28000BC39002010B5B0F80432C2180446D27898
:10B290000A2A01BF03F1FF339BB2A0F804321B1846
:10B2A00004BF00221A71B0F80432C218211DD278EE
:10B2B0000D2A01BF03F1FF339BB2A0F804321B1823
:10B2C00004BF00221A7100F20C60B4F80422234675
:10B2D00002F096FB0020A4F8040210BD70B50446ED
:10B2E0008E180D46B542294649D20B780A2B05F136
:10B2F000010507D001D8082B02E00D2B02D07F2BCF
:10B3000016D028E023681E491B6820460222984771
:10B31000B4F804322BB1234400221A712046FFF7FF
:10B32000B1FF236817491B68204602229847D9E7D6
:10B33000B4F80432002BD5D0236813491B680322CC
:10B3400020469847B4F80432013B9BB2A4F804327B
:10B350000022234411E0B4F80432B3F5007FC1D2D7
:10B36000236801221B6820469847B4F804325A1C0F
:10B37000A4F8042215F8012C23441A71B2E770BD19
:10B3800083A3050069A3050080A305000A460349BD
:10B39000034608681946FFF7A1BF00BFBC3900206B
:10B3A000B0F80A360BB9FFF731BF704770B5B0F887
:10B3B0000846C4F58064A4B2944228BF14460D46E2
:10B3C0006B1AA3420FDAB0F80826B0F8063615F863
:10B3D000016B1344C3F309030344013283F806628B
:10B3E000A0F80826ECE7FFF7DBFF204670BDB0F8B9
:10B3F0000A16B0F806260A44C2F30902A0F8062687
:10B40000B0F80826521AA0F808260022A0F80A264A
:10B41000FFF7FCBE014B1868FFF7E9BFBC390020FD
:10B4200038B505460024A8680C4A0368A2585B6832
:10B430000B490C349847B4F50A7FF4D100242B79DA
:10B440009C4209D2A8682A68036852F834205B68D5
:10B45000034998470134F2E738BD00BF88A30500CF
:10B4600051B00500D0F8300103F018BDD0F830011C
:10B4700003F00FBD70B585682B680446D0F8300125
:10B480005E6804F059F8054902462846B047A068AE
:10B4900003490368BDE870405B68184702B20500C5
:10B4A000B0A5050010B5C0B0044600238DF8FF30EC
:10B4B0000846FF2311466A4603F02CF9A0680349A9
:10B4C00003686A465B68984740B010BD4FBD0500F1
:10B4D0008068024903685B68184700BFB0A5050093
:10B4E00070B5044659B98068694903685B68984734
:10B4F000A06868490368BDE870405B681847106839
:10B5000065492DF0A5F8002840F0C180D4F830013D
:10B5100003F01BFE0546A0682A6803685F495B6864
:10B520009847A0686A6803685D495B689847A068A7
:10B53000AA6803685B495B689847A068EA68036883
:10B5400059495B689847A0682A69036857495B684E
:10B550009847A0686A69036855495B689847A0687E
:10B56000AA69036853495B689847A068EA69036859
:10B5700051495B689847A0682A6A03684F495B682D
:10B580009847A0686A6A03684D495B689847A06855
:10B59000AA6A03684B495B689847A068EA6A03682F
:10B5A00049495B689847A0682A6B036847495B680C
:10B5B0009847A068AA6B036845495B689847A068EC
:10B5C000EA6B036843495B689847A0682A6C036884
:10B5D00041495B689847A0686A6C03683F495B68AB
:10B5E0009847A068AA6C03683D495B689847A068C3
:10B5F000EA6C03683B495B689847A0682A6D03685A
:10B6000039495B689847A0686A6D036837495B6889
:10B610009847A068AA6D036835495B689847A06899
:10B62000EA6D036833495B689847A0682A6E03682F
:10B6300031495B689847A0686A6E03682F495B6868
:10B640009847A068AA6E03682D495B689847A06870
:10B65000EA6E03682B495B689847A0682A6F036805
:10B6600029495B689847A0686A6F036827495B6847
:10B670009847A068AA6F036825495B689847A06847
:10B68000EA6F036823495B68BDE87040184770BDE6
:10B69000B7A50500B0A50500BDA50500C1A505001D
:10B6A000CFA50500E3A50500F9A5050012A6050034
:10B6B00024A605003FA6050050A6050065A60500C6
:10B6C00078A6050092A60500A4A60500B6A605006A
:10B6D000C9A60500E4A60500F2A6050006A7050018
:10B6E0001CA705002DA7050042A7050055A70500CA
:10B6F0006FA7050081A705009DA70500BAA7050053
:10B70000D1A70500E8A7050009A8050027A805009E
:10B710003AA805004DA8050030B504468BB069462F
:10B72000D0F8300103F053FDA068BDF80020036895
:10B730002F495B689847A068BDF8022003682D492F
:10B740005B689847A068BDF8042003682A495D68D3
:10B75000BDF80630A847A068BDF80820036827494F
:10B760005D68BDF80A30A847A068BDF80C200368E2
:10B7700023495D68BDF80E30A847A068BDF81020C9
:10B78000036820495D68BDF81230A847A068BDF87D
:10B79000142003681C495D68BDF81630A847A068EE
:10B7A000BDF81820036819495D68BDF81A30A8472C
:10B7B000A068BDF81C20036815495D68BDF81E30FF
:10B7C000A847A068BDF82020036812495D68BDF84D
:10B7D0002230A847A06810490368BDF824205D689E
:10B7E000BDF82630A8472046FFF772FE0BB030BDEB
:10B7F00062A805006EA8050079A805008BA80500C1
:10B800009DA80500AAA80500B7A80500C4A80500C2
:10B81000F2A80500D1A80500E6A8050010B5044669
:10B82000D0F8300103F010FFA3681A68526810B115
:10B830001846054901E00549184690472046BDE8ED
:10B840001040FFF745BE00BF00A9050007A905008D
:10B8500010B5044603F024FB0246A06804490368BF
:10B860005B6898472046BDE81040FFF731BE00BF37
:10B8700051B0050000BA704770B5002504462C226F
:10B880000E4605600571856029460C302CF07EFA65
:10B8900008232387012363874FF47A73E3631C4BE8
:10B8A000236404F14003A3642146656484F8B8501E
:10B8B00004F1F80002F076FE2146C4F8306104F588
:10B8C0009A7002F081F9294604F14C0060222CF0B4
:10B8D0005DFA2246D4F830010E4903F0DCFA224624
:10B8E000D4F830010C4903F069FE0C4BC4F8AC30BD
:10B8F00004F1AC01C4F8B040D4F8300103F0B9FA57
:10B9000004F1B90029463E222CF040FA204670BDD1
:10B91000EDCC020045DB0200B5DB0200CDCB02001E
:10B920002DE9F041074690460C462CF0B8FE3D1834
:10B9300000F001060130B8EB500F03D33846214622
:10B94000002306E04FF0FF30BDE8F0811B01DBB2C1
:10B950000126A8421AD210F8012BA2F14107052FA7
:10B9600001D8373A04E0A2F16107052F03D8573A0E
:10B970001343DBB204E0303AD2B2092AE2D81343CF
:10B98000002EE3D00B7000260131D9E7081BBDE87B
:10B99000F081000070B50C4619B9BDE87040FFF7A2
:10B9A00097BD85682B6808465E6804F09BFF2246B9
:10B9B0000346B44628460249BDE87040604700BFD0
:10B9C00047B0050070B505460E4681B9D0F8300184
:10B9D00003F01AFE0446A86803685B681CB11249AC
:10B9E000984731461AE011499847214616E01468F5
:10B9F0000F4920462CF02CFE18B9D5F83001012152
:10BA000007E00C4920462CF023FE014628B9D5F862
:10BA1000300103F00DFE014600E007212846BDE895
:10BA20007040FFF7B7BF00BF0FA90500CBAC050002
:10BA300019A9050020A9050010B5044600F59A7063
:10BA400002F0CCFA01462046BDE81040FFF7A2BF45
:10BA500010B50446D0F83001A36802F0C3FC0146DB
:10BA60002046BDE81040FFF795BF000070B50546C1
:10BA70000E4681B9D0F8300103F028FA0446A868D0
:10BA800003685B681CB11249984731461AE01149B6
:10BA90009847214616E014680F4920462CF0D8FD3F
:10BAA00018B9D5F83001012107E00C4920462CF0E7
:10BAB000CFFD014628B9D5F8300103F0F5F901466C
:10BAC00000E007212846BDE87040FFF763BF00BFD4
:10BAD00028A905002DA9050058CE050034A90500A8
