:020000040000FA
:10000000B0240020150200001D0200001F020000A5
:100010002102000023020000250200000000000071
:1000200000000000000000000000000027020000A7
:1000300029020000000000002B0200002D02000039
:100040000D0700002F020000BD0A00002F02000073
:100050002F020000A9040000450300002F02000049
:100060002F0200002F0200002F0200002F020000CC
:100070002F0200002F0200002F0200002F020000BC
:100080002F020000650700002F0200002F02000071
:10009000890700002F0200002F0200002F0200003D
:1000A0002F0200002F0200002F020000A90A00000A
:1000B0002F0200002F0200000000000000000000DE
:1000C0002F0200002F0200002F0200002F0200006C
:1000D0002F0200002F0200002F020000000000008D
:1000E0000000000000000000000000000000000010
:1000F0000000000000000000000000000000000000
:1001000000000000000000000000000000000000EF
:1001100000000000000000000000000000000000DF
:1001200000000000000000000000000000000000CF
:1001300000000000000000000000000000000000BF
:1001400000000000000000000000000000000000AF
:10015000000000000000000000000000000000009F
:10016000000000000000000000000000000000008F
:10017000000000000000000000000000000000007F
:10018000000000000000000000000000000000006F
:10019000000000000000000000000000000000005F
:1001A000000000000000000000000000000000004F
:1001B000000000000000000000000000000000003F
:1001C000000000000000000000000000000000002F
:1001D000000000000000000000000000000000001F
:1001E000000000000000000000000000000000000F
:1001F00000000000000000000000000000000000FF
:10020000DFF80CD000F08CF800480047DD1A000041
:10021000B02400200648804706480047FEE7FEE776
:10022000FEE7FEE7FEE7FEE7FEE7FEE7FEE7FEE7A6
:100230008D070000010200002DE9F05F0546002057
:1002400092469B4688460646814640241BE0284647
:1002500041464746224600F053F853465A46C01AD4
:10026000914110D311461846224600F016F82D1A77
:1002700067EB01084F4622460120002100F00DF8EF
:1002800017EB00094E41201EA4F10104DFDC4846B3
:1002900031462A464346BDE8F09F202A04DB203A37
:1002A00000FA02F1002070479140C2F1200320FAC9
:1002B00003F319439040704740EA01039B0703D0C2
:1002C00009E008C9121F08C0042AFAD203E011F895
:1002D000013B00F8013B521EF9D27047D2B201E057
:1002E00000F8012B491EFBD270470022F6E710B53B
:1002F00013460A4604461946FFF7F0FF204610BD94
:10030000202A04DB203A21FA02F00021704721FA6A
:1003100002F3D040C2F120029140084319467047D1
:10032000064C074D06E0E06840F0010394E8070042
:1003300098471034AC42F6D3FFF766FF3C2A000022
:100340005C2A00002DE9F04700268AB0DFF85091C2
:10035000B0464FF48075012437460696284601F0D2
:10036000E1FF38B1D9F80403204203D0284601F058
:10037000CFFF26432D1D64007F1CADB2082FEDD3A7
:100380004FF4BE74204601F0CDFF48B1204601F085
:10039000BFFF46F0004606AA0121002001F0A4FF9D
:1003A000404D16F0FF0F15D00127002437420DD025
:1003B00009EB8401D1F81005D1F81015C0F3042021
:1003C00055F82420C1F3014102B190477F00641C1D
:1003D000082CEBD3002E5FDA4FF0FF30CDF8108001
:1003E00054E0281910F8507F90F9000027F0C00859
:1003F000401C3BD007A9404601F09CFE10B34FEAD9
:100400009719404600F0EEFE55F820701FB1B9F183
:10041000030F03D006E0B9F1030F27D104A940462A
:1004200001F090FE4FF0A04101EB8800D0F80007EA
:1004300006A9C0F3014A404601F07CFE18B1BAF1AA
:10044000020F03D012E0BAF1030F0FD1B9F1030F7D
:1004500008D1BAF1020F1DD00221404601F028FF59
:10046000761CF6B217B149464046B847641C042CC6
:10047000B7D3002E10D06A460121002001F034FFCE
:1004800006990098884207D00690049800263446C2
:100490000790A6E70321E0E70AB0BDE8F087000077
:1004A000006000402C0200202DE9F05F644CD4F87D
:1004B0000401644D012690B1D4F8000380070ED5E5
:1004C000614801F051FF687840B905F1100001F072
:1004D00069FE5E48C66006600020A8606E70D4F8B1
:1004E00018015B4F4FF00D0830B3D4F800034006FD
:1004F0002DD558480068C0F3C800A0F1020B52483F
:10050000143001F031FFD4F82801B0B1D4F8000361
:10051000400512D5DFF840A1DAF8000000F00D091F
:100520004948243001F020FFCAF80080B9F1000FDB
:1005300003D000BF01F006FF09E03878302873D0FF
:1005400038785028F6D12E704020C4F80803D4F82B
:100550001001DFF800B14FF01009ABF1140BD0B16E
:10056000D4F80003C00616D537480C3001F0FCFE65
:10057000C4F80893CBF800700BF10401C1F80090A7
:10058000E661D5F804C0BCF1000F04D000231A4680
:100590000321E868E047D4F84C01DFF8BCA0AAF1D9
:1005A000080A30B3D4F80003000322D526484830A7
:1005B00001F0DAFE2448143001F0D6FE224824303F
:1005C00001F0D2FECBF8007022491039C1F800903A
:1005D000E6614FF48860C4F804031F49C1F8008045
:1005E000CAF800806F6827B100231A461946E868E8
:1005F000B847D4F81C01002813D0D4F80003000633
:100600000FD5DAF8007054460F48183001F0ACFEF0
:10061000F80704D0287810B1266000202870C4F8AC
:100620000080BDE8F09FFFE7D5F804C0BCF1000FE3
:100630008DD05B46064A0221E868E04787E7000064
:1006400000500040640000200451004000B0014010
:1006500028040020245500400C54004000F01F02E4
:10066000012191404009800000F1E020C0F8801293
:10067000704700F01F02012191404009800000F105
:10068000E020C0F88012704700F01F020121914065
:100690004009800000F1E020C0F80011704700F030
:1006A0001F02012191404009800000F1E020C0F8C4
:1006B0000011704700F01F020121914040098000A5
:1006C00000F1E020C0F8001270474907090E002829
:1006D00006DA00F00F0000F1E02080F8141D7047EA
:1006E00000F1E02080F8001470474907090E002847
:1006F00006DA00F00F0000F1E02080F8141D7047CA
:1007000000F1E02080F800147047000070B54FF44D
:100710008076304601F020FD114CB50560B13046C1
:1007200001F021FD0120C5F80803607920B90120FE
:1007300060712168002088474FF48276304601F0CE
:100740000BFD00280AD0304601F00DFD0220C5F84F
:1007500008032168BDE870400120084770BD000013
:100760001800002007480021C0F84011C0F84411CB
:10077000C0F84811C0F84C11C0F80011C0F80411BD
:1007800002F0B6B80010014002F004B8F0B5B54868
:100790000023021D0178101D01254FF08054062909
:1007A0000BD11678360708D10678C6F30316032E48
:1007B00006D0042E04D0052E02D0062907D00EE064
:1007C000B4F82463A84FC6F304263E6002E016780E
:1007D000360704D10678C6F30316032E02D0062985
:1007E00004D00FE0A24FA14E7E670EE016783607C8
:1007F00008D10678C6F30316032E06D0042E04D0C3
:10080000052E02D0062907D00EE0D4F84462994F95
:10081000C6F342363E6002E01678360704D1067809
:10082000C6F30316032E02D0062906D011E0924E1D
:10083000376827F0807737600EE01678360708D1E2
:100840000678C6F30316032E06D0042E04D0052E18
:1008500002D006290AD011E04FF08046C6F80C31CC
:10086000C6F81031834E361F336002E01678360723
:1008700004D10678C6F30316032E02D0062905D04C
:100880000CE07C4F032664373E600AE0167836079A
:1008900004D10678C6F30316032E02D006290DD024
:1008A00014E0764F05263E60744E78363560734E00
:1008B000083633603F263F1D3E6002E0167836075B
:1008C00004D10678C6F30316052E02D0062957D0A8
:1008D00062E06B4E36686B4F3E60694E361D36687F
:1008E0003F1D3E60664E083636683F1D3E60644ED2
:1008F0000C3636683F1D3E60614E103636683F1D2F
:100900003E605F4E143636683F1D3E605C4E1836C2
:1009100036685C4F20373E60594E1C3636683F1DA6
:100920003E60574E203636683F1D3E60544E24369A
:1009300036683F1D3E60524E283636683F1D3E6089
:100940004F4E2C3636683F1D3E604D4E3036366871
:100950004C4F40373E604A4E343636683F1D3E604D
:10096000474E383636683F1D3E60454E3C36366849
:100970003F1D3E60424E403636683F1D3E6002E0FD
:100980001678360708D10678C6F30316032E06D06C
:10099000042E04D0052E02D0062907D019E0D4F881
:1009A0005812394A01F04F01116002E0117809072D
:1009B0000FD10078C0F30310032803D0042801D01E
:1009C000052806D131480168C90702D06FF001013E
:1009D0000160D4F83001062808D1D4F83401062883
:1009E00004D12B48016841F48061016022487438C9
:1009F000016841F470010160BFF34F8FBFF36F8F47
:100A00004FF01021D1F80002002803DBD1F80402D6
:100A1000002822DA1F4A15601F480468002CFCD009
:100A20001524C1F800420568002DFCD0C1F804422D
:100A300001680029FCD0136001680029FCD0BFF3D5
:100A40004F8F0D48F0380168144A01F4E0611143FA
:100A50000160BFF34F8F00BFFDE7124910480860E7
:100A6000F0BD0000E00F00F0403501400DF0ADBAE0
:100A700000C007403C050040FCED00E0105600407F
:100A80000404001020C50040E40E004000040040B3
:100A90003C17004004E5014000E401400400FA0571
:100AA0000090D0037C00002010B500F02BFD02491F
:100AB0000020C1F8400110BD00B0014001480068AD
:100AC000004700002000002002E008C8121F08C1F3
:100AD000002AFAD170477047002001E001C1121FBF
:100AE000002AFBD17047022000F03EB970B5002407
:100AF000064D06E06868012110F8340001F0B2FCF0
:100B0000641C28788442F5D3002070BD28000020A2
:100B1000F8B515460C460646052A01D20720F8BD51
:100B200001F09CFD18B901F061FD0028F7D11249D0
:100B300000224E600C708D60C1E90422C1E90622DA
:100B40000E4D0DE006EBC4002968009181788DF808
:100B5000011000780A4A694601F0D6FC0028DED16F
:100B6000641EE4B2EED2BDE8F84004480021054A14
:100B7000001D00F02DB8000028000020F82900001A
:100B8000C1130000E512000072B609480068C007F2
:100B900000D000BEBFF34F8F0548E4380168054A16
:100BA00001F4E06111430160BFF34F8F00BFFDE727
:100BB000F0ED00E00400FA050EB500210091CDE94A
:100BC00001106A4644F20100FFF7DEFF0EBD00008F
:100BD000074B9B7823B12AB120B10068037C1BB17D
:100BE0000820704707207047417442610020704719
:100BF000A802002070B501F0AFFD104800240B21C1
:100C0000047044700E4D817014206C602C706C70F8
:100C1000FFF724FD06211420FFF757FD1420FFF7EE
:100C200033FD0848046006211120FFF74EFD0548FA
:100C3000001F0068A860002070BD0000A80200200E
:100C400048000020081501402DE9F843DFF87090B6
:100C500099F802305BB350B3052902D20720BDE8F2
:100C6000F88343691BB3437C012B22D00027044641
:100C7000002588461646284600F036F8684601F0FA
:100C800071FEC0B1012101700E4944600968C0E9DC
:100C90000218C0E904769DF8000089F801000020E0
:100CA00000F024F81420FFF705FD2846D7E70820B8
:100CB000D5E70F46DBE70425002000F017F8F4E73E
:100CC000A8020020041501400649897839B130B1E5
:100CD000416921B100210174022101F0E9BD082020
:100CE00070470000A802002000F002B800F008B829
:100CF00072B602480168491C016070475C00002020
:100D000003490868401E086000D162B670470000C1
:100D10005C0000202DE9FC410646C0074FF00005AD
:100D20000ED0104F00240122385D0095002311469B
:100D3000019501F099FA641C042CF4D300F046F8F4
:100D4000B0070DD5074E0024361D0022305D032369
:100D500000951146019501F087FA641C042CF4D328
:100D6000BDE8FC81C029000007490B5C4FF0A041A1
:100D7000D1F804250120984020EA0203C1F8083583
:100D80001040C1F80C057047C02900000249085CFA
:100D9000012101F09EBA0000C02900000249085C50
:100DA000002101F096BA0000C02900000649095C44
:100DB0004FF0A040D0F80405C84010F0010000D06A
:100DC000012080F001007047C029000010B5002408
:100DD0002046FFF7DBFF641C042CF9D310BD10B5CF
:100DE00000242046FFF7DAFF641C042CF9D310BD61
:100DF00010B50246064B4FF0FF3000215C5C944278
:100E000001D1084610BD491C0429F7D310BD0000CC
:100E1000C42900002DE9F0470D468146FFF7E8FFA1
:100E20000446042836D2DFF874801B481C4EA8F113
:100E30000C0725B3012D0ED0022D2BD104EB44005D
:100E400030444578002D25D0B968002922D02846A5
:100E5000BDE8F047084704EB4401755C0E44717827
:100E600049B10E4A4FF40041093A8068FFF7ECFEA1
:100E700008B987F80390B17808F80410E2E78068B1
:100E8000FFF722FF04EB4401314418F804008D7889
:100E9000A842D7D0BDE8F087C82900001400002080
:100EA000EC01002070B50023042810D20D4D00EB9A
:100EB0004004012A02D101290CD00022094E00EB86
:100EC0004000304461B1012906D0022906D0072331
:100ED000184670BD0E30C2B22A55F9E74270F7E7E6
:100EE0008270F5E7EC0100200B490E2808D00F288E
:100EF00009D010280DD011280AD14FF4801004E039
:100F00004FF4003001E04FF4802048600120087069
:100F100070474FF40020F8E70000002070B5064647
:100F20001E480024C0E90161B00720D50025012238
:100F300011462846FFF7B6FF6D1C0446042D02D269
:100F4000002CF4D013E094B940F2666204211448F6
:100F5000FFF7DEFD04000AD1FFF7C8FD040006D14B
:100F60000F48104A0021001FFFF732FE0446F00729
:100F700012D00120FFF7CEFE74B909480A4A0021B9
:100F80000C38FFF725FE040006D10548074A012169
:100F90000838FFF71DFE0446204670BD08000020FB
:100FA000D42900007911000015190000E70A00009B
:100FB0002DE9F05F6E4C054600266078B34618B107
:100FC00084F801B000F08EFC6A4F4FF47A694FF458
:100FD000C87A4FF00108182D69D2DFE805F00C132C
:100FE00013384754696E727B727BC5848484848411
:100FF000B3B6B9BCC5C500F075FC3868FFF764FE30
:1010000006465CE00020FFF7D1FE00284FF000000C
:1010100008D0FFF7BBFE022D02D14FF4E16008E0DB
:10102000484606E0FFF7BAFE022D01D1C82000E0D5
:101030005046410CC0034FF4FA72801841F1000190
:10104000257052000023FFF7F7F801462AE0002040
:10105000FFF7ACFE00284FF0000004D0FFF796FE2B
:101060004FF44870E5E7FFF799FEDFE70020FFF750
:101070009DFE00284FF0000002D0FFF787FECFE76B
:10108000FFF78CFED4E70020FFF790FE00284FF01A
:10109000000002D0FFF77AFE01E0FFF77FFE257027
:1010A00041F69A1100223868FFF7CEFD064646E069
:1010B0000020FFF759FE257008E0002051E0257060
:1010C0003DE084F801800120FFF74EFE002240F64B
:1010D000CD41E8E784F801800120FFF745FE0022BA
:1010E0004FF48041DFE77868FFF7EEFD0646D5F163
:1010F000110000D02EB10220FFF748FE84F802B0A4
:101100001DE0012816D980B2C8214843C117C90380
:1011100041EA5041C0034FF4FA72801841F10001D6
:1011200052000023FFF788F8014600227868FFF795
:101130008BFD06460220FFF731FE84F80280304620
:10114000BDE8F09F00F0CEFBB9E700F0CBFBB4E7C1
:1011500000F0C8FB04E000F0C5FB0020FFF71EFE16
:101160000120FFF71BFEAAE7FFF739FEA7E7000003
:1011700008000020C829000000780221FFF74ABEBD
:1011800005494FF0FF32082841F8202002D30844D7
:1011900080F84820704700002C020020F0B54FF086
:1011A000FF3512B10023082601E008230C260C4C61
:1011B00005E000BF54F823707F1C04D05B1CB342D1
:1011C000F8D32846F0BD26185DB286F8305044F8B2
:1011D0002310002AF5D1E11881F84800F1E700005A
:1011E0002C0200200249084490F9300070470000AA
:1011F0002C02002070B5084C050009D0103421687D
:10120000002907D008682060496828468847F6E723
:101210000834F4E770BD000018020020054A0121DF
:1012200020B1012805D19170FFF7E4BF5170002073
:10123000FAE77047180200202DE9F05F2648416860
:10124000F1B3DFF898B00E688146DBF8004087689C
:101250008078E11B21F07F45ED1CB0B9DFF880807C
:101260004FF48030C8F84403C8F804031120FFF796
:10127000F5F91120FFF708FA4FF0010AC8F800A0AD
:101280002F2001F0E7F889F802A0B54200D23546D8
:10129000124BE8193C3320F07F401860DBF8001057
:1012A0005A46091B21F07F41001B20F07F40C91CDA
:1012B00081420FD9106818602F2001F0CBF800E0B0
:1012C00004E0BDE8F05F1120FFF7F4B9BDE8F05F7E
:1012D00001F042BABDE8F09F48000020041501402B
:1012E000001001402DE9F0470025DFF890803DE037
:1012F0006068002100EBC506012032789146FEF7B8
:10130000CCFFD4E9062300EA020701EA030C57EAFE
:101310000C0729D082438B434846C4E9062301F0D9
:101320005BF932788246914601200021FEF7B5FF35
:10133000D4E9042300EA020401EA03074A465046BE
:101340000021FEF7AAFF44404F403C430CD1707887
:10135000012801D0012000E00020726880EA0A0024
:1013600012B1C1B2484690476D1CEDB298F800002A
:1013700044468542BCD3BDE8F08700002800002029
:101380000E4910B50A784C780023A24212D0521CA4
:10139000D2B20A70022A00D10B70084A0B780C32C4
:1013A00052F8232002608868104420F07F40886053
:1013B000012010BD0360002010BD00004800002087
:1013C0002DE9F0418046024601200021FEF765FF2D
:1013D0001A4F05460E467868FFF776FC00280CD1B8
:1013E000174CD4E9062110462A4001EA06031A43A5
:1013F00005D0A843B143C4E90601BDE8F0814046E9
:1014000001F0EAF830B1D4E9040128433143C4E9DA
:10141000040105E0D4E90410A943B043C4E9041071
:10142000D4E9060128433143C4E90601A16878687C
:10143000BDE8F0410022FFF707BC0000F8290000DA
:101440002800002070B5254CA0421ED1F1B1012921
:1014500036D0022928D0032917D1072000F0C2FB7B
:10146000002812D194F8680094F8691088420CD1D1
:1014700094F86A00002808D10023D4E901501A46E4
:101480000321A847012084F86A0070BD052000F000
:10149000A9FB0028F9D1A06864680023A446BDE830
:1014A00070401A460121604710461900EDD000280F
:1014B000EBD00278302AE8D1BDE8704000F0B2BB32
:1014C000082000F08FFB28B9A068002364681A4642
:1014D0000221A047BDE8704000F058BC4404002041
:1014E00005480221C0F804130449C0F80413044954
:1014F0000320086000F0A4B80050004080000800FD
:101500000C55004070B513480068134C10F0030FE1
:101510004FF0000501D0A56070BDA068401CA06020
:101520000728F9D90D480126066100F025FEBFF312
:101530005F8F0B480560BFF35F8F0660666826B15A
:1015400000231A460121E068B0476570BDE870408D
:10155000FFF7C6BF3C5400406400002000B00140CB
:10156000FC5F0040FEB5224887780A2F23D0214A2D
:101570000324072F167855789378D1788DF800607A
:101580008DF8015086EA05008DF802301AD04B40E4
:1015900058408DF803108DF80400FF2204210DF14E
:1015A0000500FEF79BFE00BF8DF809400A21684642
:1015B00000F026FDFEBD03B00A21BDE8F0400D4855
:1015C00000F01EBD83F0880358408DF803008DF8AD
:1015D000041013798DF8053050798DF80600927952
:1015E0005940504041408DF807208DF80810DBE746
:1015F00064000020380400200F4810B50268001D68
:101600000168001D03680D48140A02704470120C32
:101610008270CAB2C2700C0A04710C0C4471090EBB
:101620008171C371190A0172190C4172882A01D1A2
:101630009921C17010BD0000500400103804002032
:101640001B491A48897804292BD007292BD010F878
:10165000011B10F8012B090441EA022110F8012BAB
:101660001143144A1160022110F8012B10F8013BBC
:10167000120442EA032210F8013B1A430D4B1B1FD0
:101680001A600268C07812BA22F0FF0202430948C9
:1016900008380260042000EB811006490831086018
:1016A00070470021EDE70121DEE70000380400204B
:1016B000640000209855004070B50C00054613D01A
:1016C0000A4800F051FE0A480560094940F6FF70DB
:1016D0000C3100EAC400086006481021C0F8041369
:1016E0000121C160002070BD0C2070BD1051004070
:1016F000105500400050004070B51D4AD160506048
:10170000907818B907209070FFF776FFFFF7E8FE92
:10171000FFF728FF1648174910300024C0E90041A0
:1017200000F064FD054614480460001D0460124981
:1017300004200C310860104964203C3108600F48D7
:101740000121C0F800120904C0F804131B20FEF7A1
:1017500090FF06211B20FEF7C8FF1B20FEF79FFF0E
:101760001DB1852D01D0032070BD002070BD00008B
:10177000640000203523000004B5014000B00140A2
:10178000094910B50D20086008490120886005202E
:10179000FEF76FFF06210520FEF7A7FF0520FEF7E5
:1017A0007EFF002010BD00000454004000500040A7
:1017B0000268134602E08A4204D01268002AFAD175
:1017C0000B600160704700002DE9F041044640784D
:1017D000D8B3A178884238D9E078B0B3E068A0B334
:1017E00054211B48FEF781FD1948142221460C3074
:1017F000FEF762FD164D0126174A6E70A078E1785B
:101800000844A88000202870E068A860287B85F83C
:101810002000E068A86220696862FF2085F8210046
:101820000C4805F12001E86201F11000074600F0C4
:10183000FFF800280AD1AE70A078E1780844C1B260
:101840003846BDE8F04100F0EBB80720BDE8F08174
:10185000D4030020082A00005D18000070B5194963
:1018600019480A68002A2ADC02464478D37B928809
:1018700064B1447BE51A954206DC00224270848004
:1018800042690BE0521D0BE0D1180CE0847BE51897
:10189000954207D30122427084800269002AF1D167
:1018A0000A6001E0D11A818001790748303000F0E8
:1018B000B7F8002805D0BDE87040FFF77DB9FF3AC2
:1018C000EEE770BD60000020D4030020014601480F
:1018D00000F0DCB804040020014800F0EDB800007E
:1018E000040400200A4810B5807860B1002401E0AB
:1018F000022C06D02046FFF749FA641C042CF7D3CB
:1019000010BD0324F6E7BDE81040FFF75FBA000002
:101910000800002003480179C90702D00078FFF7CA
:1019200047BB7047080000202DE9F047394E0027DB
:1019300080463D46DFF8E090D6F804A057E003D09B
:101940000446D0F81C8035E099F8002002EB4201F3
:10195000521CD2B289F8002009EBC10199F802307B
:10196000091D9A4201D189F8005048680A78044656
:10197000012A12D0022A02D0032A3BD108E000F04B
:1019800067FF00B10127257434E00574C06900E0E9
:1019900070680028F9D170602CE0207C50BB88680A
:1019A0006060C868A0600869E0604869A061F0787C
:1019B00000B165606268B168184B501A20F07F4032
:1019C000984202D2A168084406E0881AA16820F073
:1019D0007F40814202D9081A206000E025606560DE
:1019E0000120A56020742046E56100F013FFB8F1E6
:1019F0000000A4D199F8001099F801008142A3D108
:101A000017B97168514502D00120BDE8F087002068
:101A1000FBE7000048000020A8020020FFFF7F0035
:101A200082788A4201D207207047C1700020704737
:101A300070B58261044608788E6820708868A0605E
:101A40008868E060486820624878A070C86800250F
:101A50000D4A2946E061FFF7BBF8002812D14FF08C
:101A6000A041032046B1F20703D001EB8502C2F882
:101A7000000776086D1CF5E7204600F011FE0120F6
:101A80002071002070BD0000D126000070B5044612
:101A9000022020710D462046E16000F001FEA068A2
:101AA0002843A06000202075A569A061204600F0B1
:101AB0000FFE0020A56170BD70B50446C0690068C6
:101AC000FFF702F90546204600F0EAFD0DB1284671
:101AD00070BD01202071002070BD000086B000F0B4
:101AE00085FB08B1FFF768F8002000F099FBFFF7CD
:101AF00081F808B1FFF760F814221F496846FEF725
:101B0000DBFB4FF40040019040100290C8208DF89C
:101B1000010004208DF8020001208DF803006846C2
:101B2000FFF752FE08B1FFF747F814490220FFF70C
:101B3000F5F908B1FFF740F800F090F9104C4FF4B8
:101B4000003060606068FFF7C1FE08B1FFF734F84D
:101B5000002520BF20780028FBD02570FFF7BCFEB1
:101B600008B1FFF729F86068FFF7B0FE0028F0D051
:101B7000FFF722F8EDE70000AC290000E90E0000B5
:101B80000000002010B51C46934200D9144622469E
:101B9000FEF792FB204610BD10B51C46934200D9BB
:101BA00014460A462146FEF799FB204610BD000068
:101BB0000B4900F1100213464A610A6913448B6114
:101BC00028B14FF47C73CB614FF4806301E00023B4
:101BD000CB61C01C104480080B6281F8690070471B
:101BE0004404002070B50D4D0D4A00212C7800BF33
:101BF00001EB4103D65CA6420AD113445B788342D1
:101C000006D101EB4100104480782870002070BD9F
:101C1000491C0E29ECD3082070BD000044040020AC
:101C20008000002070B50446022920D10620FFF76D
:101C3000D9FF00281BD10E4964784B69A2002046C9
:101C4000934208D88D69103D954204D3C968C3EB0F
:101C50008400084403E000F017F8054838301021EC
:101C6000FFF72AFD2046BDE8704000F0B3B870BD14
:101C700044040020034902684A6242688A6200897B
:101C800088857047440400202DE9F041334E8400DC
:101C9000102529463046FEF728FBA6F1380778695B
:101CA000A0420BD9021B39192B4630462431FFF7CD
:101CB00069FFD0F11005044406444CD0B869A04235
:101CC0000CD978693969201A0A1AF9682B46014437
:101CD0003046FFF757FF2D1A04440644002D3AD032
:101CE000B869A0420ED1396A61B1F969884209D058
:101CF0002B460122FE213046FFF74EFF2D1A0444E9
:101D0000064428D0F869A04209D9021B2B460021BD
:101D10003046FFF741FF2D1A044406441BD0386AB1
:101D2000A04210D9021B2B46FF213046FFF734FF9B
:101D3000F969611AC1F10E01A94201D83F2272541A
:101D40002D1A064407D02B463046BDE8F0411A460E
:101D50000021FFF721BFBDE8F08100007C040020D6
:101D600070B50C460546914201D90C2070BD01208A
:101D7000FFF738FF08B1082070BD05B900240248FC
:101D8000C0E90354002070BD4404002070B5002158
:101D900003230A460C460E4801260CE006FA03F51A
:101DA0000D43E9B25B1E05D5831883F8481007235D
:101DB0000021521C641C90F86950A542EEDC0244DC
:101DC00082F84810002100F8681F817070BD000083
:101DD00044040020F0B5C208514200EBC1010024C8
:101DE000124BC1F107010125042813D305FA01F6AE
:101DF00003EB020CF7B29CF848603E4204D0BE43AD
:101E00008CF848602E4600E0002693F868703E4447
:101E100083F86860491E01D50721521C401C10F050
:101E2000FF0002D0641C042CDEDBF0BD4404002063
:101E300010B5012909D002290DD1FEF7C7FF0648C8
:101E40004068BDE81040FFF741BDFFF745FDBDE824
:101E50001040FEF7C4BF10BD000000201CB54FF4B9
:101E60008070019000210F4800F0F8F808B1FEF7EB
:101E7000A3FE01A800900C4B18220C49012000F091
:101E800017F908B1FEF798FE0748019900F0C6F867
:101E900008B1FEF791FE00F0A8F8002801D0FEF787
:101EA0008BFE1CBD311E0000AC00002094290000F8
:101EB0002DE9F8439046894607004FF0000606D00A
:101EC000B8F1000F03D03D680DB1002422E00E20D0
:101ED000BDE8F88324B1611C884207D1402106E0A7
:101EE000012801D0802102E0C02100E00021D8F8C3
:101EF00000006B46801B00904A46286800F01FF8DF
:101F00000028E5D10098B9F1000F064400D08144C3
:101F1000641C2D1DB868A042DCD80020C8F8006001
:101F2000D6E7D0E901329A4201D304207047036812
:101F300043F822108168491C8160002070472DE918
:101F4000F843144698460A4605004FF000074AD069
:101F50006878297A4618B61D00B1761C8CB332F029
:101F6000C00002D00720BDE8F883D8F80000B042D6
:101F700001D20420F7E722702B78601C1A432270EC
:101F80002A7A00F8012B21460746041D687828B1FB
:101F900004F8010B087840F0080008702A7A2046FF
:101FA000E968FEF789F9287A6A7804442AB120465C
:101FB0006968FEF781F968780444D8F80000801B4E
:101FC00000902B697BB16A462146686998470028D2
:101FD000C9D114B1009800BA3860009831180020B7
:101FE000C8F80010BFE70E20BDE710B50420FFF7CA
:101FF000F9FD08B1082010BDBDE81040FFF7C0BBD7
:1020000010B518B10A2902D00C2010BD0248FFF704
:1020100031FE002010BD0000312A000010B54FF441
:102020007772FFF79DFE040013D10B48032201696C
:1020300000F8342FFE2902D84170022005E0FF226B
:1020400042700A0A8270C1700420FFF7B1FDFFF7E9
:102050009DFE204610BD00004404002070B50E46D1
:10206000050005D00020FFF7BDFD18B1082070BDA8
:10207000072070BD0B4C0C48C4E901561434FFF71F
:10208000F9FDFF20A076E076E12020771020607730
:102090007C20A0770F20E077BDE87040014903481D
:1020A000FFF72ABB44040020312A00004514000039
:1020B00070B51D46134B0C468EB0D3E90113129E2A
:1020C000CDE907130DA906910E498DF824008DF86E
:1020D0002C200A9418220C316846FEF7EDF809A866
:1020E0000590694606A8FFF71CFF002805D134B10A
:1020F0003246294606A8FFF7DBFE0EB070BD0E2063
:10210000FBE700000C2A000070B51546044661B1DB
:10211000207A2A68904201D3042070BD207808708C
:10212000481C227A6168FEF7C7F8207A401C2860B4
:10213000002070BDC20800F007030120895C9840B0
:102140000840704710B5C20800F00703885C0124FE
:102150009C402043885410BD00F180400068002856
:1021600000D00120704708B500F1804000210160D7
:102170000068009008BD000010B50020FEF7B4FD17
:10218000074C6068401E6060606818B900F016F97E
:1021900000206070BDE810400020FEF7A7BD0000E1
:1021A0001802002070B5104D0446687838B114B19B
:1021B0006168002088470020FEF796FD0CE00020B3
:1021C000FEF792FD24B1084821460830FFF7F0FAE7
:1021D000686808B900F0E6F86868401C6860BDE807
:1021E00070400020FEF782BD1802002070B50A4C36
:1021F000207808B185250CE00020A0606060206197
:10220000E060064800F0F0F8054600F0B3F8012061
:102210002070284670BD0000180200201D1200002A
:1022200070B5104D0446A87838B114B1616801202A
:1022300088470020FEF758FD0CE00020FEF754FD13
:1022400024B1084821461030FFF7B2FAE86808B90F
:1022500000F0DAF8E868401CE860BDE87040002053
:10226000FEF744BD1802002070B541EA4201DDE9E5
:1022700004564FF0A04441EA830141EA052104EBF2
:10228000800041EA0641C0F8001770BD70B541EA10
:102290004201DDE904564FF0A04441EA830141EADE
:1022A000052104EB800041EA0641C0F8001770BD2B
:1022B0004FF0A04202EB8000D0F8002722F4403219
:1022C000C0F80027D0F8002742EA0141C0F8001703
:1022D000704701224FF0A043824011B1C3F8082596
:1022E0007047C3F80C25704718B5084B6C4601447D
:1022F0001B68009306E000BF54F82030D3F8103577
:10230000401C08C28142F7D818BD0000F429000023
:10231000034908B50844002101600068009008BD29
:102320000060004002494058012800D0002070475A
:1023300000600040002802D1014901200860704778
:1023400000500040064800684FF00101C2070548F0
:1023500001D0816200E041624021C0F8081370475B
:10236000205400400050004008B500210160006882
:10237000009008BD09480068012110F0010F08D144
:102380004FF0E020C02280F80024C0F88012C0F88E
:1023900000110349012008607047000000E100E0DF
:1023A0001805004010B54FF48070FFF7DCFE0120E7
:1023B0008107C1F80403086010BD0000074901202F
:1023C000086007494FF001100A6802F001128242CA
:1023D000FAD0044900204871704700000400004012
:1023E0000C040040180000200649024600200B792A
:1023F0000BB1852070470A6001220A7100224A71E0
:10240000704700001800002070B54FF48270FFF78D
:10241000AAFE02204107C1F804030B4B196841F0E2
:10242000807018600948026842F001040460446842
:102430004FF40A554668361BAE42FBD30260196062
:1024400003490120086070BDFCED00E0001000E0D1
:1024500008000040002802D0014980010847704769
:10246000012A00002DE9F0418846054600F000F9F8
:10247000234E002828461AD0FEF7B4FE304490F8C8
:1024800048008009032802D001280ED007E04FF051
:10249000A040D0F81005E84010F0010F05D003214E
:1024A0002846BDE8F041FFF703BF0221F8E700F03E
:1024B000EBF8002822D02846FEF794FE04464FF49D
:1024C000807000EB84000F4F81B207EB8400D0F8DE
:1024D000102542F00102C0F810250846FFF718FF4A
:1024E000B8F1000F0AD02846FEF77CFE56F820000F
:1024F000002803D00120A040C7F80403BDE8F08104
:102500002C020020006000402DE9FC41DFF8BC8077
:10251000044608EB0400002790F930001346C0176A
:102520000E46401C01D008274CE0B0781946C0F395
:1025300040022046FEF732FE0546401C41D0B078EE
:10254000410719D4C0070AD04FF0A04000EB840126
:10255000D1F8000720F00200C1F8000707E00021D1
:102560007378204600910A460191FFF78FFE1749C4
:1025700020465431FFF7E6FDB078800718D514489F
:10258000317800EB8500D0F81025124B1A40C0F8C6
:1025900010254FF4F8524FF4403302EA042203EAC4
:1025A00001410A43D0F810150A43C0F8102509E08C
:1025B00008EB0500327810F8481F41EA82110170DB
:1025C00000E004273846BDE8FC8100002C02002012
:1025D00000600040FFE0FCFF4FF0A041D1F8101573
:1025E000C14011F0010000D00120704770B5184DB6
:1025F00095F8580008B1082070BD0020411E2A1827
:10260000401CC0B282F830102028F8D300242046A5
:10261000FEF7B6FD641CE4B20C2CF8D300240D497F
:10262000C0206C6581F8000401264020891FC1F894
:102630008002C1F800014FF4BE70FFF769FE064941
:10264000F007C1F8040385F85860204670BD00000B
:102650002C02002006E000E000600040034890F8F3
:102660005800002800D00120704700002C020020F4
:102670000449084490F93000082801DB0120704724
:10268000002070472C0200200449084490F93000D3
:10269000082801D201207047002070472C0200203A
:1026A0000378026AC16813B1C2F80C1501E0C2F8E0
:1026B00008150021417070470378026AC16813B1A0
:1026C000C2F8081501E0C2F80C15012141707047ED
:1026D00070B50446007D052660B12046FFF7E0FF97
:1026E00000202075A078E178411A11FB00F006EB7C
:1026F00020201FE0A16921B12046884720790228C7
:1027000028D1E578A078A84203D12046FFF7D4FF6E
:102710000EE0204655B1FFF7CFFFA07810FB05F083
:1027200006EB102020610120207504E0FFF7B8FFC0
:10273000A078401D2061207902280BD1E069216931
:1027400022460068FEF780FA002803D0BDE87040FA
:10275000FEF732BA70BD000070B5012670044FF06C
:10276000E0210025C1F88001084C4010C4F848035E
:10277000C4F8080366602F20FFF76CFEA660044CC7
:102780002F20A560FFF766FEA57070BD0010014008
:10279000480000202DE9F84F1D4C00256846D4E97B
:1027A00001A6FEF7EDFD002738B30023009A61680B
:1027B0001CE0D1F800C00846944503D9ACEB0202F6
:1027C0000A6015E0A2EB0C0263440760D0F80CC06D
:1027D000C1698146BCF1000F08D006EB030828F060
:1027E0007F48C0E9018CC9F81C5005460029E0D19A
:1027F00028466160FFF798F803E02846FFF794F851
:1028000010B15046FEF718FDE770BDE8F88F0000E4
:10281000480000200D4B10B5596831B102680C68B2
:10282000A24204D8A21A0A60C161586010BD0B46CA
:1028300003E00B46C969121B21B10C689442F8D31E
:10284000A41A0C600260C161D86110BD480000206C
:102850002DE9F041144E77683D462C4603E0844252
:1028600004D02546E469002CF9D11BE0D4B1A5427F
:102870000BD1F869706040B90C49012088600021D3
:10288000B160F0702F20FFF7E5FD2168E069E86195
:1028900010B10268114401607068874202D00120C3
:1028A000BDE8F0810020FBE7480000200010014057
:1028B000F8B5064600240D462046FEF715FA684690
:1028C00000F050F868B10570084946609DF80000B6
:1028D00048700020FEF70AFA1420FDF7EBFE2046B0
:1028E000F8BD04240020FEF701FAF8E7A802002052
:1028F0002DE9F041194D6C68002C2CD018480027A8
:102900000068A968B846401A20F07F462068B042A7
:102910000CD82146361A0744E469087C20B181F8B6
:102920001080886949698847002CEFD12978687838
:10293000814206D1401CC0B26870022801D185F8DE
:102940000180064869780C3040F82170BDE8F041FC
:102950001420FDF7AFBEBDE8F08100004800002064
:10296000041501400A494A788B78521CD2B293422E
:1029700000D100220B78934201D1002070470270F1
:10298000487800EB400001EBC000001D70470000DC
:10299000A80200206E6F7264696373656D692E63AF
:1029A0006F6D2F73746172743532646B00DC0005D7
:1029B000000001000000000000001E0000000050A8
:1029C000111213140D0E0F10AC010020CC010020C9
:1029D000F80100200D000300150E00000E0003009A
:1029E000150E00000F000300150E0000100003007C
:1029F000150E0000000000500300000088020020B7
:102A00000338FDD870470000B40300200000000028
:102A100001000000000000000100000000000000B4
:102A200001000000302A0000092100000000000021
:102A30005500010203040506070809005C2A00008E
:102A400000000020AC000000C80A0000082B0000B5
:102A5000AC00002004240000D80A000000000000A0
:102A60000000000000000000000000000000000066
:102A70000000000000000000000000000000000056
:102A80000000000000000000000000000000000046
:102A90000000000000000000000000000000000036
:102AA0000000000000000000000000000000000026
:102AB0000000000000000000000000000000000016
:102AC0000000000000000000000000000000000006
:102AD00000000000000000000090D0030406050480
:102AE0000803040902050704050803050902030594
:102AF00004030902000001010102020403020A00AA
:082B00000201020209020000BB
:0400000500000201F4
:00000001FF
